{
	"contracts/voting.sol": {
		"Voting": {
			"abi": [
				{
					"inputs": [],
					"stateMutability": "nonpayable",
					"type": "constructor"
				},
				{
					"inputs": [
						{
							"internalType": "string",
							"name": "_name",
							"type": "string"
						},
						{
							"internalType": "string",
							"name": "_proposal",
							"type": "string"
						},
						{
							"internalType": "address",
							"name": "owner",
							"type": "address"
						}
					],
					"name": "addCandidate",
					"outputs": [],
					"stateMutability": "nonpayable",
					"type": "function"
				},
				{
					"inputs": [
						{
							"internalType": "string",
							"name": "name",
							"type": "string"
						},
						{
							"internalType": "address",
							"name": "_voterAddrress",
							"type": "address"
						}
					],
					"name": "addVoter",
					"outputs": [],
					"stateMutability": "nonpayable",
					"type": "function"
				},
				{
					"inputs": [
						{
							"internalType": "address",
							"name": "voterAddress",
							"type": "address"
						},
						{
							"internalType": "address",
							"name": "receiverAddress",
							"type": "address"
						}
					],
					"name": "delegateVote",
					"outputs": [],
					"stateMutability": "nonpayable",
					"type": "function"
				},
				{
					"inputs": [],
					"name": "endElection",
					"outputs": [],
					"stateMutability": "nonpayable",
					"type": "function"
				},
				{
					"inputs": [
						{
							"internalType": "uint8",
							"name": "_id",
							"type": "uint8"
						}
					],
					"name": "getCandidate",
					"outputs": [
						{
							"internalType": "uint8",
							"name": "id",
							"type": "uint8"
						},
						{
							"internalType": "string",
							"name": "name",
							"type": "string"
						},
						{
							"internalType": "string",
							"name": "proposal",
							"type": "string"
						},
						{
							"internalType": "address",
							"name": "owner",
							"type": "address"
						}
					],
					"stateMutability": "view",
					"type": "function"
				},
				{
					"inputs": [],
					"name": "getCandidateCount",
					"outputs": [
						{
							"internalType": "uint256",
							"name": "",
							"type": "uint256"
						}
					],
					"stateMutability": "view",
					"type": "function"
				},
				{
					"inputs": [],
					"name": "getElectionStatus",
					"outputs": [
						{
							"internalType": "string",
							"name": "",
							"type": "string"
						}
					],
					"stateMutability": "view",
					"type": "function"
				},
				{
					"inputs": [
						{
							"internalType": "address",
							"name": "_voterAddress",
							"type": "address"
						}
					],
					"name": "getVoter",
					"outputs": [
						{
							"internalType": "string",
							"name": "name",
							"type": "string"
						},
						{
							"internalType": "address",
							"name": "owner",
							"type": "address"
						},
						{
							"internalType": "address",
							"name": "delegateaddress",
							"type": "address"
						},
						{
							"internalType": "uint8",
							"name": "weight",
							"type": "uint8"
						},
						{
							"internalType": "uint8",
							"name": "votedTowards",
							"type": "uint8"
						}
					],
					"stateMutability": "view",
					"type": "function"
				},
				{
					"inputs": [],
					"name": "getVoterCount",
					"outputs": [
						{
							"internalType": "uint256",
							"name": "",
							"type": "uint256"
						}
					],
					"stateMutability": "view",
					"type": "function"
				},
				{
					"inputs": [],
					"name": "showWinner",
					"outputs": [
						{
							"internalType": "uint8",
							"name": "id",
							"type": "uint8"
						},
						{
							"internalType": "string",
							"name": "name",
							"type": "string"
						},
						{
							"internalType": "uint8",
							"name": "Votes",
							"type": "uint8"
						}
					],
					"stateMutability": "view",
					"type": "function"
				},
				{
					"inputs": [],
					"name": "startElection",
					"outputs": [],
					"stateMutability": "nonpayable",
					"type": "function"
				},
				{
					"inputs": [
						{
							"internalType": "uint8",
							"name": "candidateId",
							"type": "uint8"
						},
						{
							"internalType": "address",
							"name": "voter",
							"type": "address"
						}
					],
					"name": "vote",
					"outputs": [],
					"stateMutability": "nonpayable",
					"type": "function"
				}
			],
			"devdoc": {
				"kind": "dev",
				"methods": {},
				"version": 1
			},
			"evm": {
				"assembly": "    /* \"contracts/voting.sol\":70:4946  contract Voting {... */\n  mstore(0x40, 0x80)\n    /* \"contracts/voting.sol\":415:457  0x5B38Da6a701c568545dCfcB03FcB875f56beddC4 */\n  0x5b38da6a701c568545dcfcb03fcb875f56beddc4\n    /* \"contracts/voting.sol\":399:457  address admin = 0x5B38Da6a701c568545dCfcB03FcB875f56beddC4 */\n  0x01\n  exp(0x0100, 0x00)\n  dup2\n  sload\n  dup2\n  0xffffffffffffffffffffffffffffffffffffffff\n  mul\n  not\n  and\n  swap1\n  dup4\n  0xffffffffffffffffffffffffffffffffffffffff\n  and\n  mul\n  or\n  swap1\n  sstore\n  pop\n    /* \"contracts/voting.sol\":487:513  ElectionStatus.NOT_STARTED */\n  0x00\n    /* \"contracts/voting.sol\":463:513  ElectionStatus status = ElectionStatus.NOT_STARTED */\n  0x01\n  exp(0x0100, 0x14)\n  dup2\n  sload\n  dup2\n  0xff\n  mul\n  not\n  and\n  swap1\n  dup4\n  0x02\n  dup2\n  gt\n  iszero\n  tag_1\n  jumpi\n  tag_2\n  tag_3\n  jump\t// in\ntag_2:\ntag_1:\n  mul\n  or\n  swap1\n  sstore\n  pop\n    /* \"contracts/voting.sol\":656:657  0 */\n  0x00\n    /* \"contracts/voting.sol\":639:657  uint8 candiateId=0 */\n  0x01\n  exp(0x0100, 0x15)\n  dup2\n  sload\n  dup2\n  0xff\n  mul\n  not\n  and\n  swap1\n  dup4\n  0xff\n  and\n  mul\n  or\n  swap1\n  sstore\n  pop\n    /* \"contracts/voting.sol\":145:305  constructor(){... */\n  callvalue\n  dup1\n  iszero\n  tag_4\n  jumpi\n  0x00\n  dup1\n  revert\ntag_4:\n  pop\n    /* \"contracts/voting.sol\":168:208  ElectionStatusMapping[0] = \"NOT_STARTED\" */\n  mload(0x40)\n  dup1\n  0x40\n  add\n  0x40\n  mstore\n  dup1\n  0x0b\n  dup2\n  mstore\n  0x20\n  add\n  0x4e4f545f53544152544544000000000000000000000000000000000000000000\n  dup2\n  mstore\n  pop\n    /* \"contracts/voting.sol\":168:189  ElectionStatusMapping */\n  0x00\n    /* \"contracts/voting.sol\":168:192  ElectionStatusMapping[0] */\n  dup1\n    /* \"contracts/voting.sol\":190:191  0 */\n  dup1\n    /* \"contracts/voting.sol\":168:192  ElectionStatusMapping[0] */\n  0xff\n  and\n  dup2\n  mstore\n  0x20\n  add\n  swap1\n  dup2\n  mstore\n  0x20\n  add\n  0x00\n  keccak256\n    /* \"contracts/voting.sol\":168:208  ElectionStatusMapping[0] = \"NOT_STARTED\" */\n  swap1\n  dup2\n  tag_7\n  swap2\n  swap1\n  tag_8\n  jump\t// in\ntag_7:\n  pop\n    /* \"contracts/voting.sol\":218:254  ElectionStatusMapping[1] = \"STARTED\" */\n  mload(0x40)\n  dup1\n  0x40\n  add\n  0x40\n  mstore\n  dup1\n  0x07\n  dup2\n  mstore\n  0x20\n  add\n  0x5354415254454400000000000000000000000000000000000000000000000000\n  dup2\n  mstore\n  pop\n    /* \"contracts/voting.sol\":218:239  ElectionStatusMapping */\n  0x00\n    /* \"contracts/voting.sol\":218:242  ElectionStatusMapping[1] */\n  dup1\n    /* \"contracts/voting.sol\":240:241  1 */\n  0x01\n    /* \"contracts/voting.sol\":218:242  ElectionStatusMapping[1] */\n  0xff\n  and\n  dup2\n  mstore\n  0x20\n  add\n  swap1\n  dup2\n  mstore\n  0x20\n  add\n  0x00\n  keccak256\n    /* \"contracts/voting.sol\":218:254  ElectionStatusMapping[1] = \"STARTED\" */\n  swap1\n  dup2\n  tag_9\n  swap2\n  swap1\n  tag_8\n  jump\t// in\ntag_9:\n  pop\n    /* \"contracts/voting.sol\":264:298  ElectionStatusMapping[2] = \"ENDED\" */\n  mload(0x40)\n  dup1\n  0x40\n  add\n  0x40\n  mstore\n  dup1\n  0x05\n  dup2\n  mstore\n  0x20\n  add\n  0x454e444544000000000000000000000000000000000000000000000000000000\n  dup2\n  mstore\n  pop\n    /* \"contracts/voting.sol\":264:285  ElectionStatusMapping */\n  0x00\n    /* \"contracts/voting.sol\":264:288  ElectionStatusMapping[2] */\n  dup1\n    /* \"contracts/voting.sol\":286:287  2 */\n  0x02\n    /* \"contracts/voting.sol\":264:288  ElectionStatusMapping[2] */\n  0xff\n  and\n  dup2\n  mstore\n  0x20\n  add\n  swap1\n  dup2\n  mstore\n  0x20\n  add\n  0x00\n  keccak256\n    /* \"contracts/voting.sol\":264:298  ElectionStatusMapping[2] = \"ENDED\" */\n  swap1\n  dup2\n  tag_10\n  swap2\n  swap1\n  tag_8\n  jump\t// in\ntag_10:\n  pop\n    /* \"contracts/voting.sol\":70:4946  contract Voting {... */\n  jump(tag_11)\n    /* \"#utility.yul\":7:187   */\ntag_3:\n    /* \"#utility.yul\":55:132   */\n  0x4e487b7100000000000000000000000000000000000000000000000000000000\n    /* \"#utility.yul\":52:53   */\n  0x00\n    /* \"#utility.yul\":45:133   */\n  mstore\n    /* \"#utility.yul\":152:156   */\n  0x21\n    /* \"#utility.yul\":149:150   */\n  0x04\n    /* \"#utility.yul\":142:157   */\n  mstore\n    /* \"#utility.yul\":176:180   */\n  0x24\n    /* \"#utility.yul\":173:174   */\n  0x00\n    /* \"#utility.yul\":166:181   */\n  revert\n    /* \"#utility.yul\":193:292   */\ntag_12:\n    /* \"#utility.yul\":245:251   */\n  0x00\n    /* \"#utility.yul\":279:284   */\n  dup2\n    /* \"#utility.yul\":273:285   */\n  mload\n    /* \"#utility.yul\":263:285   */\n  swap1\n  pop\n    /* \"#utility.yul\":193:292   */\n  swap2\n  swap1\n  pop\n  jump\t// out\n    /* \"#utility.yul\":298:478   */\ntag_13:\n    /* \"#utility.yul\":346:423   */\n  0x4e487b7100000000000000000000000000000000000000000000000000000000\n    /* \"#utility.yul\":343:344   */\n  0x00\n    /* \"#utility.yul\":336:424   */\n  mstore\n    /* \"#utility.yul\":443:447   */\n  0x41\n    /* \"#utility.yul\":440:441   */\n  0x04\n    /* \"#utility.yul\":433:448   */\n  mstore\n    /* \"#utility.yul\":467:471   */\n  0x24\n    /* \"#utility.yul\":464:465   */\n  0x00\n    /* \"#utility.yul\":457:472   */\n  revert\n    /* \"#utility.yul\":484:664   */\ntag_14:\n    /* \"#utility.yul\":532:609   */\n  0x4e487b7100000000000000000000000000000000000000000000000000000000\n    /* \"#utility.yul\":529:530   */\n  0x00\n    /* \"#utility.yul\":522:610   */\n  mstore\n    /* \"#utility.yul\":629:633   */\n  0x22\n    /* \"#utility.yul\":626:627   */\n  0x04\n    /* \"#utility.yul\":619:634   */\n  mstore\n    /* \"#utility.yul\":653:657   */\n  0x24\n    /* \"#utility.yul\":650:651   */\n  0x00\n    /* \"#utility.yul\":643:658   */\n  revert\n    /* \"#utility.yul\":670:990   */\ntag_15:\n    /* \"#utility.yul\":714:720   */\n  0x00\n    /* \"#utility.yul\":751:752   */\n  0x02\n    /* \"#utility.yul\":745:749   */\n  dup3\n    /* \"#utility.yul\":741:753   */\n  div\n    /* \"#utility.yul\":731:753   */\n  swap1\n  pop\n    /* \"#utility.yul\":798:799   */\n  0x01\n    /* \"#utility.yul\":792:796   */\n  dup3\n    /* \"#utility.yul\":788:800   */\n  and\n    /* \"#utility.yul\":819:837   */\n  dup1\n    /* \"#utility.yul\":809:890   */\n  tag_38\n  jumpi\n    /* \"#utility.yul\":875:879   */\n  0x7f\n    /* \"#utility.yul\":867:873   */\n  dup3\n    /* \"#utility.yul\":863:880   */\n  and\n    /* \"#utility.yul\":853:880   */\n  swap2\n  pop\n    /* \"#utility.yul\":809:890   */\ntag_38:\n    /* \"#utility.yul\":937:939   */\n  0x20\n    /* \"#utility.yul\":929:935   */\n  dup3\n    /* \"#utility.yul\":926:940   */\n  lt\n    /* \"#utility.yul\":906:924   */\n  dup2\n    /* \"#utility.yul\":903:941   */\n  sub\n    /* \"#utility.yul\":900:984   */\n  tag_39\n  jumpi\n    /* \"#utility.yul\":956:974   */\n  tag_40\n  tag_14\n  jump\t// in\ntag_40:\n    /* \"#utility.yul\":900:984   */\ntag_39:\n    /* \"#utility.yul\":721:990   */\n  pop\n    /* \"#utility.yul\":670:990   */\n  swap2\n  swap1\n  pop\n  jump\t// out\n    /* \"#utility.yul\":996:1137   */\ntag_16:\n    /* \"#utility.yul\":1045:1049   */\n  0x00\n    /* \"#utility.yul\":1068:1071   */\n  dup2\n    /* \"#utility.yul\":1060:1071   */\n  swap1\n  pop\n    /* \"#utility.yul\":1091:1094   */\n  dup2\n    /* \"#utility.yul\":1088:1089   */\n  0x00\n    /* \"#utility.yul\":1081:1095   */\n  mstore\n    /* \"#utility.yul\":1125:1129   */\n  0x20\n    /* \"#utility.yul\":1122:1123   */\n  0x00\n    /* \"#utility.yul\":1112:1130   */\n  keccak256\n    /* \"#utility.yul\":1104:1130   */\n  swap1\n  pop\n    /* \"#utility.yul\":996:1137   */\n  swap2\n  swap1\n  pop\n  jump\t// out\n    /* \"#utility.yul\":1143:1236   */\ntag_17:\n    /* \"#utility.yul\":1180:1186   */\n  0x00\n    /* \"#utility.yul\":1227:1229   */\n  0x20\n    /* \"#utility.yul\":1222:1224   */\n  0x1f\n    /* \"#utility.yul\":1215:1220   */\n  dup4\n    /* \"#utility.yul\":1211:1225   */\n  add\n    /* \"#utility.yul\":1207:1230   */\n  div\n    /* \"#utility.yul\":1197:1230   */\n  swap1\n  pop\n    /* \"#utility.yul\":1143:1236   */\n  swap2\n  swap1\n  pop\n  jump\t// out\n    /* \"#utility.yul\":1242:1349   */\ntag_18:\n    /* \"#utility.yul\":1286:1294   */\n  0x00\n    /* \"#utility.yul\":1336:1341   */\n  dup3\n    /* \"#utility.yul\":1330:1334   */\n  dup3\n    /* \"#utility.yul\":1326:1342   */\n  shl\n    /* \"#utility.yul\":1305:1342   */\n  swap1\n  pop\n    /* \"#utility.yul\":1242:1349   */\n  swap3\n  swap2\n  pop\n  pop\n  jump\t// out\n    /* \"#utility.yul\":1355:1748   */\ntag_19:\n    /* \"#utility.yul\":1424:1430   */\n  0x00\n    /* \"#utility.yul\":1474:1475   */\n  0x08\n    /* \"#utility.yul\":1462:1472   */\n  dup4\n    /* \"#utility.yul\":1458:1476   */\n  mul\n    /* \"#utility.yul\":1497:1594   */\n  tag_45\n    /* \"#utility.yul\":1527:1593   */\n  0xffffffffffffffffffffffffffffffffffffffffffffffffffffffffffffffff\n    /* \"#utility.yul\":1516:1525   */\n  dup3\n    /* \"#utility.yul\":1497:1594   */\n  tag_18\n  jump\t// in\ntag_45:\n    /* \"#utility.yul\":1615:1654   */\n  tag_46\n    /* \"#utility.yul\":1645:1653   */\n  dup7\n    /* \"#utility.yul\":1634:1643   */\n  dup4\n    /* \"#utility.yul\":1615:1654   */\n  tag_18\n  jump\t// in\ntag_46:\n    /* \"#utility.yul\":1603:1654   */\n  swap6\n  pop\n    /* \"#utility.yul\":1687:1691   */\n  dup1\n    /* \"#utility.yul\":1683:1692   */\n  not\n    /* \"#utility.yul\":1676:1681   */\n  dup5\n    /* \"#utility.yul\":1672:1693   */\n  and\n    /* \"#utility.yul\":1663:1693   */\n  swap4\n  pop\n    /* \"#utility.yul\":1736:1740   */\n  dup1\n    /* \"#utility.yul\":1726:1734   */\n  dup7\n    /* \"#utility.yul\":1722:1741   */\n  and\n    /* \"#utility.yul\":1715:1720   */\n  dup5\n    /* \"#utility.yul\":1712:1742   */\n  or\n    /* \"#utility.yul\":1702:1742   */\n  swap3\n  pop\n    /* \"#utility.yul\":1431:1748   */\n  pop\n  pop\n    /* \"#utility.yul\":1355:1748   */\n  swap4\n  swap3\n  pop\n  pop\n  pop\n  jump\t// out\n    /* \"#utility.yul\":1754:1831   */\ntag_20:\n    /* \"#utility.yul\":1791:1798   */\n  0x00\n    /* \"#utility.yul\":1820:1825   */\n  dup2\n    /* \"#utility.yul\":1809:1825   */\n  swap1\n  pop\n    /* \"#utility.yul\":1754:1831   */\n  swap2\n  swap1\n  pop\n  jump\t// out\n    /* \"#utility.yul\":1837:1897   */\ntag_21:\n    /* \"#utility.yul\":1865:1868   */\n  0x00\n    /* \"#utility.yul\":1886:1891   */\n  dup2\n    /* \"#utility.yul\":1879:1891   */\n  swap1\n  pop\n    /* \"#utility.yul\":1837:1897   */\n  swap2\n  swap1\n  pop\n  jump\t// out\n    /* \"#utility.yul\":1903:2045   */\ntag_22:\n    /* \"#utility.yul\":1953:1962   */\n  0x00\n    /* \"#utility.yul\":1986:2039   */\n  tag_50\n    /* \"#utility.yul\":2004:2038   */\n  tag_51\n    /* \"#utility.yul\":2013:2037   */\n  tag_52\n    /* \"#utility.yul\":2031:2036   */\n  dup5\n    /* \"#utility.yul\":2013:2037   */\n  tag_20\n  jump\t// in\ntag_52:\n    /* \"#utility.yul\":2004:2038   */\n  tag_21\n  jump\t// in\ntag_51:\n    /* \"#utility.yul\":1986:2039   */\n  tag_20\n  jump\t// in\ntag_50:\n    /* \"#utility.yul\":1973:2039   */\n  swap1\n  pop\n    /* \"#utility.yul\":1903:2045   */\n  swap2\n  swap1\n  pop\n  jump\t// out\n    /* \"#utility.yul\":2051:2126   */\ntag_23:\n    /* \"#utility.yul\":2094:2097   */\n  0x00\n    /* \"#utility.yul\":2115:2120   */\n  dup2\n    /* \"#utility.yul\":2108:2120   */\n  swap1\n  pop\n    /* \"#utility.yul\":2051:2126   */\n  swap2\n  swap1\n  pop\n  jump\t// out\n    /* \"#utility.yul\":2132:2401   */\ntag_24:\n    /* \"#utility.yul\":2242:2281   */\n  tag_55\n    /* \"#utility.yul\":2273:2280   */\n  dup4\n    /* \"#utility.yul\":2242:2281   */\n  tag_22\n  jump\t// in\ntag_55:\n    /* \"#utility.yul\":2303:2394   */\n  tag_56\n    /* \"#utility.yul\":2352:2393   */\n  tag_57\n    /* \"#utility.yul\":2376:2392   */\n  dup3\n    /* \"#utility.yul\":2352:2393   */\n  tag_23\n  jump\t// in\ntag_57:\n    /* \"#utility.yul\":2344:2350   */\n  dup5\n    /* \"#utility.yul\":2337:2341   */\n  dup5\n    /* \"#utility.yul\":2331:2342   */\n  sload\n    /* \"#utility.yul\":2303:2394   */\n  tag_19\n  jump\t// in\ntag_56:\n    /* \"#utility.yul\":2297:2301   */\n  dup3\n    /* \"#utility.yul\":2290:2395   */\n  sstore\n    /* \"#utility.yul\":2208:2401   */\n  pop\n    /* \"#utility.yul\":2132:2401   */\n  pop\n  pop\n  pop\n  jump\t// out\n    /* \"#utility.yul\":2407:2480   */\ntag_25:\n    /* \"#utility.yul\":2452:2455   */\n  0x00\n    /* \"#utility.yul\":2407:2480   */\n  swap1\n  jump\t// out\n    /* \"#utility.yul\":2486:2675   */\ntag_26:\n    /* \"#utility.yul\":2563:2595   */\n  tag_60\n  tag_25\n  jump\t// in\ntag_60:\n    /* \"#utility.yul\":2604:2669   */\n  tag_61\n    /* \"#utility.yul\":2662:2668   */\n  dup2\n    /* \"#utility.yul\":2654:2660   */\n  dup5\n    /* \"#utility.yul\":2648:2652   */\n  dup5\n    /* \"#utility.yul\":2604:2669   */\n  tag_24\n  jump\t// in\ntag_61:\n    /* \"#utility.yul\":2539:2675   */\n  pop\n    /* \"#utility.yul\":2486:2675   */\n  pop\n  pop\n  jump\t// out\n    /* \"#utility.yul\":2681:2867   */\ntag_27:\n    /* \"#utility.yul\":2741:2861   */\ntag_63:\n    /* \"#utility.yul\":2758:2761   */\n  dup2\n    /* \"#utility.yul\":2751:2756   */\n  dup2\n    /* \"#utility.yul\":2748:2762   */\n  lt\n    /* \"#utility.yul\":2741:2861   */\n  iszero\n  tag_65\n  jumpi\n    /* \"#utility.yul\":2812:2851   */\n  tag_66\n    /* \"#utility.yul\":2849:2850   */\n  0x00\n    /* \"#utility.yul\":2842:2847   */\n  dup3\n    /* \"#utility.yul\":2812:2851   */\n  tag_26\n  jump\t// in\ntag_66:\n    /* \"#utility.yul\":2785:2786   */\n  0x01\n    /* \"#utility.yul\":2778:2783   */\n  dup2\n    /* \"#utility.yul\":2774:2787   */\n  add\n    /* \"#utility.yul\":2765:2787   */\n  swap1\n  pop\n    /* \"#utility.yul\":2741:2861   */\n  jump(tag_63)\ntag_65:\n    /* \"#utility.yul\":2681:2867   */\n  pop\n  pop\n  jump\t// out\n    /* \"#utility.yul\":2873:3416   */\ntag_28:\n    /* \"#utility.yul\":2974:2976   */\n  0x1f\n    /* \"#utility.yul\":2969:2972   */\n  dup3\n    /* \"#utility.yul\":2966:2977   */\n  gt\n    /* \"#utility.yul\":2963:3409   */\n  iszero\n  tag_68\n  jumpi\n    /* \"#utility.yul\":3008:3046   */\n  tag_69\n    /* \"#utility.yul\":3040:3045   */\n  dup2\n    /* \"#utility.yul\":3008:3046   */\n  tag_16\n  jump\t// in\ntag_69:\n    /* \"#utility.yul\":3092:3121   */\n  tag_70\n    /* \"#utility.yul\":3110:3120   */\n  dup5\n    /* \"#utility.yul\":3092:3121   */\n  tag_17\n  jump\t// in\ntag_70:\n    /* \"#utility.yul\":3082:3090   */\n  dup2\n    /* \"#utility.yul\":3078:3122   */\n  add\n    /* \"#utility.yul\":3275:3277   */\n  0x20\n    /* \"#utility.yul\":3263:3273   */\n  dup6\n    /* \"#utility.yul\":3260:3278   */\n  lt\n    /* \"#utility.yul\":3257:3306   */\n  iszero\n  tag_71\n  jumpi\n    /* \"#utility.yul\":3296:3304   */\n  dup2\n    /* \"#utility.yul\":3281:3304   */\n  swap1\n  pop\n    /* \"#utility.yul\":3257:3306   */\ntag_71:\n    /* \"#utility.yul\":3319:3399   */\n  tag_72\n    /* \"#utility.yul\":3375:3397   */\n  tag_73\n    /* \"#utility.yul\":3393:3396   */\n  dup6\n    /* \"#utility.yul\":3375:3397   */\n  tag_17\n  jump\t// in\ntag_73:\n    /* \"#utility.yul\":3365:3373   */\n  dup4\n    /* \"#utility.yul\":3361:3398   */\n  add\n    /* \"#utility.yul\":3348:3359   */\n  dup3\n    /* \"#utility.yul\":3319:3399   */\n  tag_27\n  jump\t// in\ntag_72:\n    /* \"#utility.yul\":2978:3409   */\n  pop\n  pop\n    /* \"#utility.yul\":2963:3409   */\ntag_68:\n    /* \"#utility.yul\":2873:3416   */\n  pop\n  pop\n  pop\n  jump\t// out\n    /* \"#utility.yul\":3422:3539   */\ntag_29:\n    /* \"#utility.yul\":3476:3484   */\n  0x00\n    /* \"#utility.yul\":3526:3531   */\n  dup3\n    /* \"#utility.yul\":3520:3524   */\n  dup3\n    /* \"#utility.yul\":3516:3532   */\n  shr\n    /* \"#utility.yul\":3495:3532   */\n  swap1\n  pop\n    /* \"#utility.yul\":3422:3539   */\n  swap3\n  swap2\n  pop\n  pop\n  jump\t// out\n    /* \"#utility.yul\":3545:3714   */\ntag_30:\n    /* \"#utility.yul\":3589:3595   */\n  0x00\n    /* \"#utility.yul\":3622:3673   */\n  tag_76\n    /* \"#utility.yul\":3670:3671   */\n  0x00\n    /* \"#utility.yul\":3666:3672   */\n  not\n    /* \"#utility.yul\":3658:3663   */\n  dup5\n    /* \"#utility.yul\":3655:3656   */\n  0x08\n    /* \"#utility.yul\":3651:3664   */\n  mul\n    /* \"#utility.yul\":3622:3673   */\n  tag_29\n  jump\t// in\ntag_76:\n    /* \"#utility.yul\":3618:3674   */\n  not\n    /* \"#utility.yul\":3703:3707   */\n  dup1\n    /* \"#utility.yul\":3697:3701   */\n  dup4\n    /* \"#utility.yul\":3693:3708   */\n  and\n    /* \"#utility.yul\":3683:3708   */\n  swap2\n  pop\n    /* \"#utility.yul\":3596:3714   */\n  pop\n    /* \"#utility.yul\":3545:3714   */\n  swap3\n  swap2\n  pop\n  pop\n  jump\t// out\n    /* \"#utility.yul\":3719:4014   */\ntag_31:\n    /* \"#utility.yul\":3795:3799   */\n  0x00\n    /* \"#utility.yul\":3941:3970   */\n  tag_78\n    /* \"#utility.yul\":3966:3969   */\n  dup4\n    /* \"#utility.yul\":3960:3964   */\n  dup4\n    /* \"#utility.yul\":3941:3970   */\n  tag_30\n  jump\t// in\ntag_78:\n    /* \"#utility.yul\":3933:3970   */\n  swap2\n  pop\n    /* \"#utility.yul\":4003:4006   */\n  dup3\n    /* \"#utility.yul\":4000:4001   */\n  0x02\n    /* \"#utility.yul\":3996:4007   */\n  mul\n    /* \"#utility.yul\":3990:3994   */\n  dup3\n    /* \"#utility.yul\":3987:4008   */\n  or\n    /* \"#utility.yul\":3979:4008   */\n  swap1\n  pop\n    /* \"#utility.yul\":3719:4014   */\n  swap3\n  swap2\n  pop\n  pop\n  jump\t// out\n    /* \"#utility.yul\":4019:5414   */\ntag_8:\n    /* \"#utility.yul\":4136:4173   */\n  tag_80\n    /* \"#utility.yul\":4169:4172   */\n  dup3\n    /* \"#utility.yul\":4136:4173   */\n  tag_12\n  jump\t// in\ntag_80:\n    /* \"#utility.yul\":4238:4256   */\n  0xffffffffffffffff\n    /* \"#utility.yul\":4230:4236   */\n  dup2\n    /* \"#utility.yul\":4227:4257   */\n  gt\n    /* \"#utility.yul\":4224:4280   */\n  iszero\n  tag_81\n  jumpi\n    /* \"#utility.yul\":4260:4278   */\n  tag_82\n  tag_13\n  jump\t// in\ntag_82:\n    /* \"#utility.yul\":4224:4280   */\ntag_81:\n    /* \"#utility.yul\":4304:4342   */\n  tag_83\n    /* \"#utility.yul\":4336:4340   */\n  dup3\n    /* \"#utility.yul\":4330:4341   */\n  sload\n    /* \"#utility.yul\":4304:4342   */\n  tag_15\n  jump\t// in\ntag_83:\n    /* \"#utility.yul\":4389:4456   */\n  tag_84\n    /* \"#utility.yul\":4449:4455   */\n  dup3\n    /* \"#utility.yul\":4441:4447   */\n  dup3\n    /* \"#utility.yul\":4435:4439   */\n  dup6\n    /* \"#utility.yul\":4389:4456   */\n  tag_28\n  jump\t// in\ntag_84:\n    /* \"#utility.yul\":4483:4484   */\n  0x00\n    /* \"#utility.yul\":4507:4511   */\n  0x20\n    /* \"#utility.yul\":4494:4511   */\n  swap1\n  pop\n    /* \"#utility.yul\":4539:4541   */\n  0x1f\n    /* \"#utility.yul\":4531:4537   */\n  dup4\n    /* \"#utility.yul\":4528:4542   */\n  gt\n    /* \"#utility.yul\":4556:4557   */\n  0x01\n    /* \"#utility.yul\":4551:5169   */\n  dup2\n  eq\n  tag_86\n  jumpi\n    /* \"#utility.yul\":5213:5214   */\n  0x00\n    /* \"#utility.yul\":5230:5236   */\n  dup5\n    /* \"#utility.yul\":5227:5304   */\n  iszero\n  tag_87\n  jumpi\n    /* \"#utility.yul\":5279:5288   */\n  dup3\n    /* \"#utility.yul\":5274:5277   */\n  dup8\n    /* \"#utility.yul\":5270:5289   */\n  add\n    /* \"#utility.yul\":5264:5290   */\n  mload\n    /* \"#utility.yul\":5255:5290   */\n  swap1\n  pop\n    /* \"#utility.yul\":5227:5304   */\ntag_87:\n    /* \"#utility.yul\":5330:5397   */\n  tag_88\n    /* \"#utility.yul\":5390:5396   */\n  dup6\n    /* \"#utility.yul\":5383:5388   */\n  dup3\n    /* \"#utility.yul\":5330:5397   */\n  tag_31\n  jump\t// in\ntag_88:\n    /* \"#utility.yul\":5324:5328   */\n  dup7\n    /* \"#utility.yul\":5317:5398   */\n  sstore\n    /* \"#utility.yul\":5186:5408   */\n  pop\n    /* \"#utility.yul\":4521:5408   */\n  jump(tag_85)\n    /* \"#utility.yul\":4551:5169   */\ntag_86:\n    /* \"#utility.yul\":4603:4607   */\n  0x1f\n    /* \"#utility.yul\":4599:4608   */\n  not\n    /* \"#utility.yul\":4591:4597   */\n  dup5\n    /* \"#utility.yul\":4587:4609   */\n  and\n    /* \"#utility.yul\":4637:4674   */\n  tag_89\n    /* \"#utility.yul\":4669:4673   */\n  dup7\n    /* \"#utility.yul\":4637:4674   */\n  tag_16\n  jump\t// in\ntag_89:\n    /* \"#utility.yul\":4696:4697   */\n  0x00\n    /* \"#utility.yul\":4710:4918   */\ntag_90:\n    /* \"#utility.yul\":4724:4731   */\n  dup3\n    /* \"#utility.yul\":4721:4722   */\n  dup2\n    /* \"#utility.yul\":4718:4732   */\n  lt\n    /* \"#utility.yul\":4710:4918   */\n  iszero\n  tag_92\n  jumpi\n    /* \"#utility.yul\":4803:4812   */\n  dup5\n    /* \"#utility.yul\":4798:4801   */\n  dup10\n    /* \"#utility.yul\":4794:4813   */\n  add\n    /* \"#utility.yul\":4788:4814   */\n  mload\n    /* \"#utility.yul\":4780:4786   */\n  dup3\n    /* \"#utility.yul\":4773:4815   */\n  sstore\n    /* \"#utility.yul\":4854:4855   */\n  0x01\n    /* \"#utility.yul\":4846:4852   */\n  dup3\n    /* \"#utility.yul\":4842:4856   */\n  add\n    /* \"#utility.yul\":4832:4856   */\n  swap2\n  pop\n    /* \"#utility.yul\":4901:4903   */\n  0x20\n    /* \"#utility.yul\":4890:4899   */\n  dup6\n    /* \"#utility.yul\":4886:4904   */\n  add\n    /* \"#utility.yul\":4873:4904   */\n  swap5\n  pop\n    /* \"#utility.yul\":4747:4751   */\n  0x20\n    /* \"#utility.yul\":4744:4745   */\n  dup2\n    /* \"#utility.yul\":4740:4752   */\n  add\n    /* \"#utility.yul\":4735:4752   */\n  swap1\n  pop\n    /* \"#utility.yul\":4710:4918   */\n  jump(tag_90)\ntag_92:\n    /* \"#utility.yul\":4946:4952   */\n  dup7\n    /* \"#utility.yul\":4937:4944   */\n  dup4\n    /* \"#utility.yul\":4934:4953   */\n  lt\n    /* \"#utility.yul\":4931:5110   */\n  iszero\n  tag_93\n  jumpi\n    /* \"#utility.yul\":5004:5013   */\n  dup5\n    /* \"#utility.yul\":4999:5002   */\n  dup10\n    /* \"#utility.yul\":4995:5014   */\n  add\n    /* \"#utility.yul\":4989:5015   */\n  mload\n    /* \"#utility.yul\":5047:5095   */\n  tag_94\n    /* \"#utility.yul\":5089:5093   */\n  0x1f\n    /* \"#utility.yul\":5081:5087   */\n  dup10\n    /* \"#utility.yul\":5077:5094   */\n  and\n    /* \"#utility.yul\":5066:5075   */\n  dup3\n    /* \"#utility.yul\":5047:5095   */\n  tag_30\n  jump\t// in\ntag_94:\n    /* \"#utility.yul\":5039:5045   */\n  dup4\n    /* \"#utility.yul\":5032:5096   */\n  sstore\n    /* \"#utility.yul\":4954:5110   */\n  pop\n    /* \"#utility.yul\":4931:5110   */\ntag_93:\n    /* \"#utility.yul\":5156:5157   */\n  0x01\n    /* \"#utility.yul\":5152:5153   */\n  0x02\n    /* \"#utility.yul\":5144:5150   */\n  dup9\n    /* \"#utility.yul\":5140:5154   */\n  mul\n    /* \"#utility.yul\":5136:5158   */\n  add\n    /* \"#utility.yul\":5130:5134   */\n  dup9\n    /* \"#utility.yul\":5123:5159   */\n  sstore\n    /* \"#utility.yul\":4558:5169   */\n  pop\n  pop\n  pop\n    /* \"#utility.yul\":4521:5408   */\ntag_85:\n  pop\n    /* \"#utility.yul\":4111:5414   */\n  pop\n  pop\n  pop\n    /* \"#utility.yul\":4019:5414   */\n  pop\n  pop\n  jump\t// out\n    /* \"contracts/voting.sol\":70:4946  contract Voting {... */\ntag_11:\n  dataSize(sub_0)\n  dup1\n  dataOffset(sub_0)\n  0x00\n  codecopy\n  0x00\n  return\nstop\n\nsub_0: assembly {\n        /* \"contracts/voting.sol\":70:4946  contract Voting {... */\n      mstore(0x40, 0x80)\n      callvalue\n      dup1\n      iszero\n      tag_1\n      jumpi\n      0x00\n      dup1\n      revert\n    tag_1:\n      pop\n      jumpi(tag_2, lt(calldatasize, 0x04))\n      shr(0xe0, calldataload(0x00))\n      dup1\n      0x62d73eb8\n      gt\n      tag_15\n      jumpi\n      dup1\n      0x62d73eb8\n      eq\n      tag_9\n      jumpi\n      dup1\n      0xb7e03264\n      eq\n      tag_10\n      jumpi\n      dup1\n      0xb81c6453\n      eq\n      tag_11\n      jumpi\n      dup1\n      0xcde9370f\n      eq\n      tag_12\n      jumpi\n      dup1\n      0xd4f50f98\n      eq\n      tag_13\n      jumpi\n      dup1\n      0xe5ed5b1e\n      eq\n      tag_14\n      jumpi\n      jump(tag_2)\n    tag_15:\n      dup1\n      0x0b32ff77\n      eq\n      tag_3\n      jumpi\n      dup1\n      0x11174a29\n      eq\n      tag_4\n      jumpi\n      dup1\n      0x122902a6\n      eq\n      tag_5\n      jumpi\n      dup1\n      0x30a56347\n      eq\n      tag_6\n      jumpi\n      dup1\n      0x5607395b\n      eq\n      tag_7\n      jumpi\n      dup1\n      0x59f78468\n      eq\n      tag_8\n      jumpi\n    tag_2:\n      0x00\n      dup1\n      revert\n        /* \"contracts/voting.sol\":1662:2198  function addCandidate(... */\n    tag_3:\n      tag_16\n      0x04\n      dup1\n      calldatasize\n      sub\n      dup2\n      add\n      swap1\n      tag_17\n      swap2\n      swap1\n      tag_18\n      jump\t// in\n    tag_17:\n      tag_19\n      jump\t// in\n    tag_16:\n      stop\n        /* \"contracts/voting.sol\":4733:4830  function getVoterCount()public view returns (uint){... */\n    tag_4:\n      tag_20\n      tag_21\n      jump\t// in\n    tag_20:\n      mload(0x40)\n      tag_22\n      swap2\n      swap1\n      tag_23\n      jump\t// in\n    tag_22:\n      mload(0x40)\n      dup1\n      swap2\n      sub\n      swap1\n      return\n        /* \"contracts/voting.sol\":1277:1402  function getElectionStatus() public view returns (string memory) {... */\n    tag_5:\n      tag_24\n      tag_25\n      jump\t// in\n    tag_24:\n      mload(0x40)\n      tag_26\n      swap2\n      swap1\n      tag_27\n      jump\t// in\n    tag_26:\n      mload(0x40)\n      dup1\n      swap2\n      sub\n      swap1\n      return\n        /* \"contracts/voting.sol\":4836:4942  function getCandidateCount() public view returns (uint){... */\n    tag_6:\n      tag_28\n      tag_29\n      jump\t// in\n    tag_28:\n      mload(0x40)\n      tag_30\n      swap2\n      swap1\n      tag_23\n      jump\t// in\n    tag_30:\n      mload(0x40)\n      dup1\n      swap2\n      sub\n      swap1\n      return\n        /* \"contracts/voting.sol\":2830:3106  function addVoter(string memory  name,address _voterAddrress) public{... */\n    tag_7:\n      tag_31\n      0x04\n      dup1\n      calldatasize\n      sub\n      dup2\n      add\n      swap1\n      tag_32\n      swap2\n      swap1\n      tag_33\n      jump\t// in\n    tag_32:\n      tag_34\n      jump\t// in\n    tag_31:\n      stop\n        /* \"contracts/voting.sol\":1408:1656  function endElection() public {... */\n    tag_8:\n      tag_35\n      tag_36\n      jump\t// in\n    tag_35:\n      stop\n        /* \"contracts/voting.sol\":976:1271  function startElection() public {... */\n    tag_9:\n      tag_37\n      tag_38\n      jump\t// in\n    tag_37:\n      stop\n        /* \"contracts/voting.sol\":3986:4727  function showWinner()public view returns(uint8 id,string memory name,uint8 Votes) {... */\n    tag_10:\n      tag_39\n      tag_40\n      jump\t// in\n    tag_39:\n      mload(0x40)\n      tag_41\n      swap4\n      swap3\n      swap2\n      swap1\n      tag_42\n      jump\t// in\n    tag_41:\n      mload(0x40)\n      dup1\n      swap2\n      sub\n      swap1\n      return\n        /* \"contracts/voting.sol\":3654:3980  function vote(uint8 candidateId, address voter) public{... */\n    tag_11:\n      tag_43\n      0x04\n      dup1\n      calldatasize\n      sub\n      dup2\n      add\n      swap1\n      tag_44\n      swap2\n      swap1\n      tag_45\n      jump\t// in\n    tag_44:\n      tag_46\n      jump\t// in\n    tag_43:\n      stop\n        /* \"contracts/voting.sol\":2204:2437  function getCandidate(uint8 _id) public view returns(uint8 id,string memory name,string memory proposal,address owner){... */\n    tag_12:\n      tag_47\n      0x04\n      dup1\n      calldatasize\n      sub\n      dup2\n      add\n      swap1\n      tag_48\n      swap2\n      swap1\n      tag_49\n      jump\t// in\n    tag_48:\n      tag_50\n      jump\t// in\n    tag_47:\n      mload(0x40)\n      tag_51\n      swap5\n      swap4\n      swap3\n      swap2\n      swap1\n      tag_52\n      jump\t// in\n    tag_51:\n      mload(0x40)\n      dup1\n      swap2\n      sub\n      swap1\n      return\n        /* \"contracts/voting.sol\":2443:2824  function getVoter(address _voterAddress) public view returns (string memory name,address owner,address delegateaddress,uint8 weight,uint8 votedTowards){... */\n    tag_13:\n      tag_53\n      0x04\n      dup1\n      calldatasize\n      sub\n      dup2\n      add\n      swap1\n      tag_54\n      swap2\n      swap1\n      tag_55\n      jump\t// in\n    tag_54:\n      tag_56\n      jump\t// in\n    tag_53:\n      mload(0x40)\n      tag_57\n      swap6\n      swap5\n      swap4\n      swap3\n      swap2\n      swap1\n      tag_58\n      jump\t// in\n    tag_57:\n      mload(0x40)\n      dup1\n      swap2\n      sub\n      swap1\n      return\n        /* \"contracts/voting.sol\":3112:3648  function delegateVote(address voterAddress,address receiverAddress) public{... */\n    tag_14:\n      tag_59\n      0x04\n      dup1\n      calldatasize\n      sub\n      dup2\n      add\n      swap1\n      tag_60\n      swap2\n      swap1\n      tag_61\n      jump\t// in\n    tag_60:\n      tag_62\n      jump\t// in\n    tag_59:\n      stop\n        /* \"contracts/voting.sol\":1662:2198  function addCandidate(... */\n    tag_19:\n        /* \"contracts/voting.sol\":1814:1819  admin */\n      0x01\n      0x00\n      swap1\n      sload\n      swap1\n      0x0100\n      exp\n      swap1\n      div\n      0xffffffffffffffffffffffffffffffffffffffff\n      and\n        /* \"contracts/voting.sol\":1800:1819  msg.sender == admin */\n      0xffffffffffffffffffffffffffffffffffffffff\n      and\n        /* \"contracts/voting.sol\":1800:1810  msg.sender */\n      caller\n        /* \"contracts/voting.sol\":1800:1819  msg.sender == admin */\n      0xffffffffffffffffffffffffffffffffffffffff\n      and\n      eq\n        /* \"contracts/voting.sol\":1792:1861  require(msg.sender == admin,\"Only admin is allowed to add candidate\") */\n      tag_64\n      jumpi\n      mload(0x40)\n      0x08c379a000000000000000000000000000000000000000000000000000000000\n      dup2\n      mstore\n      0x04\n      add\n      tag_65\n      swap1\n      tag_66\n      jump\t// in\n    tag_65:\n      mload(0x40)\n      dup1\n      swap2\n      sub\n      swap1\n      revert\n    tag_64:\n        /* \"contracts/voting.sol\":1890:1916  ElectionStatus.NOT_STARTED */\n      0x00\n        /* \"contracts/voting.sol\":1880:1916  status == ElectionStatus.NOT_STARTED */\n      0x02\n      dup2\n      gt\n      iszero\n      tag_67\n      jumpi\n      tag_68\n      tag_69\n      jump\t// in\n    tag_68:\n    tag_67:\n        /* \"contracts/voting.sol\":1880:1886  status */\n      0x01\n      0x14\n      swap1\n      sload\n      swap1\n      0x0100\n      exp\n      swap1\n      div\n      0xff\n      and\n        /* \"contracts/voting.sol\":1880:1916  status == ElectionStatus.NOT_STARTED */\n      0x02\n      dup2\n      gt\n      iszero\n      tag_70\n      jumpi\n      tag_71\n      tag_69\n      jump\t// in\n    tag_71:\n    tag_70:\n      eq\n        /* \"contracts/voting.sol\":1880:1949  status == ElectionStatus.NOT_STARTED ||status == ElectionStatus.ENDED */\n      dup1\n      tag_72\n      jumpi\n      pop\n        /* \"contracts/voting.sol\":1929:1949  ElectionStatus.ENDED */\n      0x02\n        /* \"contracts/voting.sol\":1919:1949  status == ElectionStatus.ENDED */\n      dup1\n      dup2\n      gt\n      iszero\n      tag_73\n      jumpi\n      tag_74\n      tag_69\n      jump\t// in\n    tag_74:\n    tag_73:\n        /* \"contracts/voting.sol\":1919:1925  status */\n      0x01\n      0x14\n      swap1\n      sload\n      swap1\n      0x0100\n      exp\n      swap1\n      div\n      0xff\n      and\n        /* \"contracts/voting.sol\":1919:1949  status == ElectionStatus.ENDED */\n      0x02\n      dup2\n      gt\n      iszero\n      tag_75\n      jumpi\n      tag_76\n      tag_69\n      jump\t// in\n    tag_76:\n    tag_75:\n      eq\n        /* \"contracts/voting.sol\":1880:1949  status == ElectionStatus.NOT_STARTED ||status == ElectionStatus.ENDED */\n    tag_72:\n        /* \"contracts/voting.sol\":1871:1978  require((status == ElectionStatus.NOT_STARTED ||status == ElectionStatus.ENDED),\"Election already started\") */\n      tag_77\n      jumpi\n      mload(0x40)\n      0x08c379a000000000000000000000000000000000000000000000000000000000\n      dup2\n      mstore\n      0x04\n      add\n      tag_78\n      swap1\n      tag_79\n      jump\t// in\n    tag_78:\n      mload(0x40)\n      dup1\n      swap2\n      sub\n      swap1\n      revert\n    tag_77:\n        /* \"contracts/voting.sol\":1988:1998  candiateId */\n      0x01\n      0x15\n        /* \"contracts/voting.sol\":1988:2000  candiateId++ */\n      dup2\n      dup2\n      swap1\n      sload\n      swap1\n      0x0100\n      exp\n      swap1\n      div\n      0xff\n      and\n      dup1\n      swap3\n      swap2\n      swap1\n      tag_80\n      swap1\n      tag_81\n      jump\t// in\n    tag_80:\n      swap2\n      swap1\n      0x0100\n      exp\n      dup2\n      sload\n      dup2\n      0xff\n      mul\n      not\n      and\n      swap1\n      dup4\n      0xff\n      and\n      mul\n      or\n      swap1\n      sstore\n      pop\n      pop\n        /* \"contracts/voting.sol\":2040:2045  _name */\n      dup3\n        /* \"contracts/voting.sol\":2010:2020  candidates */\n      0x02\n        /* \"contracts/voting.sol\":2010:2032  candidates[candiateId] */\n      0x00\n        /* \"contracts/voting.sol\":2021:2031  candiateId */\n      0x01\n      0x15\n      swap1\n      sload\n      swap1\n      0x0100\n      exp\n      swap1\n      div\n      0xff\n      and\n        /* \"contracts/voting.sol\":2010:2032  candidates[candiateId] */\n      0xff\n      and\n      0xff\n      and\n      dup2\n      mstore\n      0x20\n      add\n      swap1\n      dup2\n      mstore\n      0x20\n      add\n      0x00\n      keccak256\n        /* \"contracts/voting.sol\":2010:2037  candidates[candiateId].name */\n      0x00\n      add\n        /* \"contracts/voting.sol\":2010:2045  candidates[candiateId].name = _name */\n      swap1\n      dup2\n      tag_82\n      swap2\n      swap1\n      tag_83\n      jump\t// in\n    tag_82:\n      pop\n        /* \"contracts/voting.sol\":2089:2098  _proposal */\n      dup2\n        /* \"contracts/voting.sol\":2055:2065  candidates */\n      0x02\n        /* \"contracts/voting.sol\":2055:2077  candidates[candiateId] */\n      0x00\n        /* \"contracts/voting.sol\":2066:2076  candiateId */\n      0x01\n      0x15\n      swap1\n      sload\n      swap1\n      0x0100\n      exp\n      swap1\n      div\n      0xff\n      and\n        /* \"contracts/voting.sol\":2055:2077  candidates[candiateId] */\n      0xff\n      and\n      0xff\n      and\n      dup2\n      mstore\n      0x20\n      add\n      swap1\n      dup2\n      mstore\n      0x20\n      add\n      0x00\n      keccak256\n        /* \"contracts/voting.sol\":2055:2086  candidates[candiateId].proposal */\n      0x02\n      add\n        /* \"contracts/voting.sol\":2055:2098  candidates[candiateId].proposal = _proposal */\n      swap1\n      dup2\n      tag_84\n      swap2\n      swap1\n      tag_83\n      jump\t// in\n    tag_84:\n      pop\n        /* \"contracts/voting.sol\":2139:2144  owner */\n      dup1\n        /* \"contracts/voting.sol\":2108:2118  candidates */\n      0x02\n        /* \"contracts/voting.sol\":2108:2130  candidates[candiateId] */\n      0x00\n        /* \"contracts/voting.sol\":2119:2129  candiateId */\n      0x01\n      0x15\n      swap1\n      sload\n      swap1\n      0x0100\n      exp\n      swap1\n      div\n      0xff\n      and\n        /* \"contracts/voting.sol\":2108:2130  candidates[candiateId] */\n      0xff\n      and\n      0xff\n      and\n      dup2\n      mstore\n      0x20\n      add\n      swap1\n      dup2\n      mstore\n      0x20\n      add\n      0x00\n      keccak256\n        /* \"contracts/voting.sol\":2108:2136  candidates[candiateId].owner */\n      0x01\n      add\n      0x00\n        /* \"contracts/voting.sol\":2108:2144  candidates[candiateId].owner = owner */\n      0x0100\n      exp\n      dup2\n      sload\n      dup2\n      0xffffffffffffffffffffffffffffffffffffffff\n      mul\n      not\n      and\n      swap1\n      dup4\n      0xffffffffffffffffffffffffffffffffffffffff\n      and\n      mul\n      or\n      swap1\n      sstore\n      pop\n        /* \"contracts/voting.sol\":2154:2174  candidatesInElection */\n      0x04\n        /* \"contracts/voting.sol\":2180:2190  candiateId */\n      0x01\n      0x15\n      swap1\n      sload\n      swap1\n      0x0100\n      exp\n      swap1\n      div\n      0xff\n      and\n        /* \"contracts/voting.sol\":2154:2191  candidatesInElection.push(candiateId) */\n      swap1\n      dup1\n      0x01\n      dup2\n      sload\n      add\n      dup1\n      dup3\n      sstore\n      dup1\n      swap2\n      pop\n      pop\n      0x01\n      swap1\n      sub\n      swap1\n      0x00\n      mstore\n      keccak256(0x00, 0x20)\n      swap1\n      0x20\n      swap2\n      dup3\n      dup3\n      div\n      add\n      swap2\n      swap1\n      mod\n      swap1\n      swap2\n      swap1\n      swap2\n      swap1\n      swap2\n      0x0100\n      exp\n      dup2\n      sload\n      dup2\n      0xff\n      mul\n      not\n      and\n      swap1\n      dup4\n      0xff\n      and\n      mul\n      or\n      swap1\n      sstore\n      pop\n        /* \"contracts/voting.sol\":1662:2198  function addCandidate(... */\n      pop\n      pop\n      pop\n      jump\t// out\n        /* \"contracts/voting.sol\":4733:4830  function getVoterCount()public view returns (uint){... */\n    tag_21:\n        /* \"contracts/voting.sol\":4778:4782  uint */\n      0x00\n        /* \"contracts/voting.sol\":4800:4816  votersInElection */\n      0x05\n        /* \"contracts/voting.sol\":4800:4823  votersInElection.length */\n      dup1\n      sload\n      swap1\n      pop\n        /* \"contracts/voting.sol\":4793:4823  return votersInElection.length */\n      swap1\n      pop\n        /* \"contracts/voting.sol\":4733:4830  function getVoterCount()public view returns (uint){... */\n      swap1\n      jump\t// out\n        /* \"contracts/voting.sol\":1277:1402  function getElectionStatus() public view returns (string memory) {... */\n    tag_25:\n        /* \"contracts/voting.sol\":1327:1340  string memory */\n      0x60\n        /* \"contracts/voting.sol\":1359:1380  ElectionStatusMapping */\n      0x00\n        /* \"contracts/voting.sol\":1359:1395  ElectionStatusMapping[uint8(status)] */\n      dup1\n        /* \"contracts/voting.sol\":1387:1393  status */\n      0x01\n      0x14\n      swap1\n      sload\n      swap1\n      0x0100\n      exp\n      swap1\n      div\n      0xff\n      and\n        /* \"contracts/voting.sol\":1381:1394  uint8(status) */\n      0x02\n      dup2\n      gt\n      iszero\n      tag_88\n      jumpi\n      tag_89\n      tag_69\n      jump\t// in\n    tag_89:\n    tag_88:\n        /* \"contracts/voting.sol\":1359:1395  ElectionStatusMapping[uint8(status)] */\n      0xff\n      and\n      0xff\n      and\n      dup2\n      mstore\n      0x20\n      add\n      swap1\n      dup2\n      mstore\n      0x20\n      add\n      0x00\n      keccak256\n        /* \"contracts/voting.sol\":1352:1395  return ElectionStatusMapping[uint8(status)] */\n      dup1\n      sload\n      tag_90\n      swap1\n      tag_91\n      jump\t// in\n    tag_90:\n      dup1\n      0x1f\n      add\n      0x20\n      dup1\n      swap2\n      div\n      mul\n      0x20\n      add\n      mload(0x40)\n      swap1\n      dup2\n      add\n      0x40\n      mstore\n      dup1\n      swap3\n      swap2\n      swap1\n      dup2\n      dup2\n      mstore\n      0x20\n      add\n      dup3\n      dup1\n      sload\n      tag_92\n      swap1\n      tag_91\n      jump\t// in\n    tag_92:\n      dup1\n      iszero\n      tag_93\n      jumpi\n      dup1\n      0x1f\n      lt\n      tag_94\n      jumpi\n      0x0100\n      dup1\n      dup4\n      sload\n      div\n      mul\n      dup4\n      mstore\n      swap2\n      0x20\n      add\n      swap2\n      jump(tag_93)\n    tag_94:\n      dup3\n      add\n      swap2\n      swap1\n      0x00\n      mstore\n      keccak256(0x00, 0x20)\n      swap1\n    tag_95:\n      dup2\n      sload\n      dup2\n      mstore\n      swap1\n      0x01\n      add\n      swap1\n      0x20\n      add\n      dup1\n      dup4\n      gt\n      tag_95\n      jumpi\n      dup3\n      swap1\n      sub\n      0x1f\n      and\n      dup3\n      add\n      swap2\n    tag_93:\n      pop\n      pop\n      pop\n      pop\n      pop\n      swap1\n      pop\n        /* \"contracts/voting.sol\":1277:1402  function getElectionStatus() public view returns (string memory) {... */\n      swap1\n      jump\t// out\n        /* \"contracts/voting.sol\":4836:4942  function getCandidateCount() public view returns (uint){... */\n    tag_29:\n        /* \"contracts/voting.sol\":4886:4890  uint */\n      0x00\n        /* \"contracts/voting.sol\":4908:4928  candidatesInElection */\n      0x04\n        /* \"contracts/voting.sol\":4908:4935  candidatesInElection.length */\n      dup1\n      sload\n      swap1\n      pop\n        /* \"contracts/voting.sol\":4901:4935  return candidatesInElection.length */\n      swap1\n      pop\n        /* \"contracts/voting.sol\":4836:4942  function getCandidateCount() public view returns (uint){... */\n      swap1\n      jump\t// out\n        /* \"contracts/voting.sol\":2830:3106  function addVoter(string memory  name,address _voterAddrress) public{... */\n    tag_34:\n        /* \"contracts/voting.sol\":2938:2942  name */\n      dup2\n        /* \"contracts/voting.sol\":2908:2914  voters */\n      0x03\n        /* \"contracts/voting.sol\":2908:2930  voters[_voterAddrress] */\n      0x00\n        /* \"contracts/voting.sol\":2915:2929  _voterAddrress */\n      dup4\n        /* \"contracts/voting.sol\":2908:2930  voters[_voterAddrress] */\n      0xffffffffffffffffffffffffffffffffffffffff\n      and\n      0xffffffffffffffffffffffffffffffffffffffff\n      and\n      dup2\n      mstore\n      0x20\n      add\n      swap1\n      dup2\n      mstore\n      0x20\n      add\n      0x00\n      keccak256\n        /* \"contracts/voting.sol\":2908:2935  voters[_voterAddrress].name */\n      0x00\n      add\n        /* \"contracts/voting.sol\":2908:2942  voters[_voterAddrress].name = name */\n      swap1\n      dup2\n      tag_98\n      swap2\n      swap1\n      tag_83\n      jump\t// in\n    tag_98:\n      pop\n        /* \"contracts/voting.sol\":2990:3004  _voterAddrress */\n      dup1\n        /* \"contracts/voting.sol\":2952:2958  voters */\n      0x03\n        /* \"contracts/voting.sol\":2952:2974  voters[_voterAddrress] */\n      0x00\n        /* \"contracts/voting.sol\":2959:2973  _voterAddrress */\n      dup4\n        /* \"contracts/voting.sol\":2952:2974  voters[_voterAddrress] */\n      0xffffffffffffffffffffffffffffffffffffffff\n      and\n      0xffffffffffffffffffffffffffffffffffffffff\n      and\n      dup2\n      mstore\n      0x20\n      add\n      swap1\n      dup2\n      mstore\n      0x20\n      add\n      0x00\n      keccak256\n        /* \"contracts/voting.sol\":2952:2987  voters[_voterAddrress].voterAddress */\n      0x01\n      add\n      0x00\n        /* \"contracts/voting.sol\":2952:3004  voters[_voterAddrress].voterAddress = _voterAddrress */\n      0x0100\n      exp\n      dup2\n      sload\n      dup2\n      0xffffffffffffffffffffffffffffffffffffffff\n      mul\n      not\n      and\n      swap1\n      dup4\n      0xffffffffffffffffffffffffffffffffffffffff\n      and\n      mul\n      or\n      swap1\n      sstore\n      pop\n        /* \"contracts/voting.sol\":3051:3052  1 */\n      0x01\n        /* \"contracts/voting.sol\":3014:3020  voters */\n      0x03\n        /* \"contracts/voting.sol\":3014:3036  voters[_voterAddrress] */\n      0x00\n        /* \"contracts/voting.sol\":3021:3035  _voterAddrress */\n      dup4\n        /* \"contracts/voting.sol\":3014:3036  voters[_voterAddrress] */\n      0xffffffffffffffffffffffffffffffffffffffff\n      and\n      0xffffffffffffffffffffffffffffffffffffffff\n      and\n      dup2\n      mstore\n      0x20\n      add\n      swap1\n      dup2\n      mstore\n      0x20\n      add\n      0x00\n      keccak256\n        /* \"contracts/voting.sol\":3014:3048  voters[_voterAddrress].no_of_votes */\n      0x01\n      add\n      0x14\n        /* \"contracts/voting.sol\":3014:3052  voters[_voterAddrress].no_of_votes = 1 */\n      0x0100\n      exp\n      dup2\n      sload\n      dup2\n      0xff\n      mul\n      not\n      and\n      swap1\n      dup4\n      0xff\n      and\n      mul\n      or\n      swap1\n      sstore\n      pop\n        /* \"contracts/voting.sol\":3062:3078  votersInElection */\n      0x05\n        /* \"contracts/voting.sol\":3084:3098  _voterAddrress */\n      dup2\n        /* \"contracts/voting.sol\":3062:3099  votersInElection.push(_voterAddrress) */\n      swap1\n      dup1\n      0x01\n      dup2\n      sload\n      add\n      dup1\n      dup3\n      sstore\n      dup1\n      swap2\n      pop\n      pop\n      0x01\n      swap1\n      sub\n      swap1\n      0x00\n      mstore\n      keccak256(0x00, 0x20)\n      add\n      0x00\n      swap1\n      swap2\n      swap1\n      swap2\n      swap1\n      swap2\n      0x0100\n      exp\n      dup2\n      sload\n      dup2\n      0xffffffffffffffffffffffffffffffffffffffff\n      mul\n      not\n      and\n      swap1\n      dup4\n      0xffffffffffffffffffffffffffffffffffffffff\n      and\n      mul\n      or\n      swap1\n      sstore\n      pop\n        /* \"contracts/voting.sol\":2830:3106  function addVoter(string memory  name,address _voterAddrress) public{... */\n      pop\n      pop\n      jump\t// out\n        /* \"contracts/voting.sol\":1408:1656  function endElection() public {... */\n    tag_36:\n        /* \"contracts/voting.sol\":1470:1475  admin */\n      0x01\n      0x00\n      swap1\n      sload\n      swap1\n      0x0100\n      exp\n      swap1\n      div\n      0xffffffffffffffffffffffffffffffffffffffff\n      and\n        /* \"contracts/voting.sol\":1456:1475  msg.sender == admin */\n      0xffffffffffffffffffffffffffffffffffffffff\n      and\n        /* \"contracts/voting.sol\":1456:1466  msg.sender */\n      caller\n        /* \"contracts/voting.sol\":1456:1475  msg.sender == admin */\n      0xffffffffffffffffffffffffffffffffffffffff\n      and\n      eq\n        /* \"contracts/voting.sol\":1448:1516  require(msg.sender == admin,\"Only admin is allowed to end election\") */\n      tag_101\n      jumpi\n      mload(0x40)\n      0x08c379a000000000000000000000000000000000000000000000000000000000\n      dup2\n      mstore\n      0x04\n      add\n      tag_102\n      swap1\n      tag_103\n      jump\t// in\n    tag_102:\n      mload(0x40)\n      dup1\n      swap2\n      sub\n      swap1\n      revert\n    tag_101:\n        /* \"contracts/voting.sol\":1545:1567  ElectionStatus.STARTED */\n      0x01\n        /* \"contracts/voting.sol\":1535:1567  status == ElectionStatus.STARTED */\n      0x02\n      dup2\n      gt\n      iszero\n      tag_104\n      jumpi\n      tag_105\n      tag_69\n      jump\t// in\n    tag_105:\n    tag_104:\n        /* \"contracts/voting.sol\":1535:1541  status */\n      0x01\n      0x14\n      swap1\n      sload\n      swap1\n      0x0100\n      exp\n      swap1\n      div\n      0xff\n      and\n        /* \"contracts/voting.sol\":1535:1567  status == ElectionStatus.STARTED */\n      0x02\n      dup2\n      gt\n      iszero\n      tag_106\n      jumpi\n      tag_107\n      tag_69\n      jump\t// in\n    tag_107:\n    tag_106:\n      eq\n        /* \"contracts/voting.sol\":1526:1594  require (status == ElectionStatus.STARTED,\"election is not started\") */\n      tag_108\n      jumpi\n      mload(0x40)\n      0x08c379a000000000000000000000000000000000000000000000000000000000\n      dup2\n      mstore\n      0x04\n      add\n      tag_109\n      swap1\n      tag_110\n      jump\t// in\n    tag_109:\n      mload(0x40)\n      dup1\n      swap2\n      sub\n      swap1\n      revert\n    tag_108:\n        /* \"contracts/voting.sol\":1628:1648  ElectionStatus.ENDED */\n      0x02\n        /* \"contracts/voting.sol\":1604:1610  status */\n      0x01\n      0x14\n        /* \"contracts/voting.sol\":1604:1649  status = ElectionStatus(ElectionStatus.ENDED) */\n      0x0100\n      exp\n      dup2\n      sload\n      dup2\n      0xff\n      mul\n      not\n      and\n      swap1\n      dup4\n      0x02\n      dup2\n      gt\n      iszero\n      tag_111\n      jumpi\n      tag_112\n      tag_69\n      jump\t// in\n    tag_112:\n    tag_111:\n      mul\n      or\n      swap1\n      sstore\n      pop\n        /* \"contracts/voting.sol\":1408:1656  function endElection() public {... */\n      jump\t// out\n        /* \"contracts/voting.sol\":976:1271  function startElection() public {... */\n    tag_38:\n        /* \"contracts/voting.sol\":1040:1045  admin */\n      0x01\n      0x00\n      swap1\n      sload\n      swap1\n      0x0100\n      exp\n      swap1\n      div\n      0xffffffffffffffffffffffffffffffffffffffff\n      and\n        /* \"contracts/voting.sol\":1026:1045  msg.sender == admin */\n      0xffffffffffffffffffffffffffffffffffffffff\n      and\n        /* \"contracts/voting.sol\":1026:1036  msg.sender */\n      caller\n        /* \"contracts/voting.sol\":1026:1045  msg.sender == admin */\n      0xffffffffffffffffffffffffffffffffffffffff\n      and\n      eq\n        /* \"contracts/voting.sol\":1018:1088  require(msg.sender == admin,\"Only admin is allowed to start election\") */\n      tag_114\n      jumpi\n      mload(0x40)\n      0x08c379a000000000000000000000000000000000000000000000000000000000\n      dup2\n      mstore\n      0x04\n      add\n      tag_115\n      swap1\n      tag_116\n      jump\t// in\n    tag_115:\n      mload(0x40)\n      dup1\n      swap2\n      sub\n      swap1\n      revert\n    tag_114:\n        /* \"contracts/voting.sol\":1118:1144  ElectionStatus.NOT_STARTED */\n      0x00\n        /* \"contracts/voting.sol\":1108:1144  status == ElectionStatus.NOT_STARTED */\n      0x02\n      dup2\n      gt\n      iszero\n      tag_117\n      jumpi\n      tag_118\n      tag_69\n      jump\t// in\n    tag_118:\n    tag_117:\n        /* \"contracts/voting.sol\":1108:1114  status */\n      0x01\n      0x14\n      swap1\n      sload\n      swap1\n      0x0100\n      exp\n      swap1\n      div\n      0xff\n      and\n        /* \"contracts/voting.sol\":1108:1144  status == ElectionStatus.NOT_STARTED */\n      0x02\n      dup2\n      gt\n      iszero\n      tag_119\n      jumpi\n      tag_120\n      tag_69\n      jump\t// in\n    tag_120:\n    tag_119:\n      eq\n        /* \"contracts/voting.sol\":1108:1178  status == ElectionStatus.NOT_STARTED || status == ElectionStatus.ENDED */\n      dup1\n      tag_121\n      jumpi\n      pop\n        /* \"contracts/voting.sol\":1158:1178  ElectionStatus.ENDED */\n      0x02\n        /* \"contracts/voting.sol\":1148:1178  status == ElectionStatus.ENDED */\n      dup1\n      dup2\n      gt\n      iszero\n      tag_122\n      jumpi\n      tag_123\n      tag_69\n      jump\t// in\n    tag_123:\n    tag_122:\n        /* \"contracts/voting.sol\":1148:1154  status */\n      0x01\n      0x14\n      swap1\n      sload\n      swap1\n      0x0100\n      exp\n      swap1\n      div\n      0xff\n      and\n        /* \"contracts/voting.sol\":1148:1178  status == ElectionStatus.ENDED */\n      0x02\n      dup2\n      gt\n      iszero\n      tag_124\n      jumpi\n      tag_125\n      tag_69\n      jump\t// in\n    tag_125:\n    tag_124:\n      eq\n        /* \"contracts/voting.sol\":1108:1178  status == ElectionStatus.NOT_STARTED || status == ElectionStatus.ENDED */\n    tag_121:\n        /* \"contracts/voting.sol\":1098:1207  require ((status == ElectionStatus.NOT_STARTED || status == ElectionStatus.ENDED),\"Election already started\") */\n      tag_126\n      jumpi\n      mload(0x40)\n      0x08c379a000000000000000000000000000000000000000000000000000000000\n      dup2\n      mstore\n      0x04\n      add\n      tag_127\n      swap1\n      tag_79\n      jump\t// in\n    tag_127:\n      mload(0x40)\n      dup1\n      swap2\n      sub\n      swap1\n      revert\n    tag_126:\n        /* \"contracts/voting.sol\":1241:1263  ElectionStatus.STARTED */\n      0x01\n        /* \"contracts/voting.sol\":1217:1223  status */\n      dup1\n      0x14\n        /* \"contracts/voting.sol\":1217:1264  status = ElectionStatus(ElectionStatus.STARTED) */\n      0x0100\n      exp\n      dup2\n      sload\n      dup2\n      0xff\n      mul\n      not\n      and\n      swap1\n      dup4\n      0x02\n      dup2\n      gt\n      iszero\n      tag_128\n      jumpi\n      tag_129\n      tag_69\n      jump\t// in\n    tag_129:\n    tag_128:\n      mul\n      or\n      swap1\n      sstore\n      pop\n        /* \"contracts/voting.sol\":976:1271  function startElection() public {... */\n      jump\t// out\n        /* \"contracts/voting.sol\":3986:4727  function showWinner()public view returns(uint8 id,string memory name,uint8 Votes) {... */\n    tag_40:\n        /* \"contracts/voting.sol\":4027:4035  uint8 id */\n      0x00\n        /* \"contracts/voting.sol\":4036:4054  string memory name */\n      0x60\n        /* \"contracts/voting.sol\":4055:4066  uint8 Votes */\n      0x00\n        /* \"contracts/voting.sol\":4100:4105  admin */\n      0x01\n      0x00\n      swap1\n      sload\n      swap1\n      0x0100\n      exp\n      swap1\n      div\n      0xffffffffffffffffffffffffffffffffffffffff\n      and\n        /* \"contracts/voting.sol\":4086:4105  msg.sender == admin */\n      0xffffffffffffffffffffffffffffffffffffffff\n      and\n        /* \"contracts/voting.sol\":4086:4096  msg.sender */\n      caller\n        /* \"contracts/voting.sol\":4086:4105  msg.sender == admin */\n      0xffffffffffffffffffffffffffffffffffffffff\n      and\n      eq\n        /* \"contracts/voting.sol\":4078:4151  require(msg.sender == admin,\"Only admin is allowed to reveal the winner\") */\n      tag_131\n      jumpi\n      mload(0x40)\n      0x08c379a000000000000000000000000000000000000000000000000000000000\n      dup2\n      mstore\n      0x04\n      add\n      tag_132\n      swap1\n      tag_133\n      jump\t// in\n    tag_132:\n      mload(0x40)\n      dup1\n      swap2\n      sub\n      swap1\n      revert\n    tag_131:\n        /* \"contracts/voting.sol\":4179:4199  ElectionStatus.ENDED */\n      0x02\n        /* \"contracts/voting.sol\":4169:4199  status == ElectionStatus.ENDED */\n      dup1\n      dup2\n      gt\n      iszero\n      tag_134\n      jumpi\n      tag_135\n      tag_69\n      jump\t// in\n    tag_135:\n    tag_134:\n        /* \"contracts/voting.sol\":4169:4175  status */\n      0x01\n      0x14\n      swap1\n      sload\n      swap1\n      0x0100\n      exp\n      swap1\n      div\n      0xff\n      and\n        /* \"contracts/voting.sol\":4169:4199  status == ElectionStatus.ENDED */\n      0x02\n      dup2\n      gt\n      iszero\n      tag_136\n      jumpi\n      tag_137\n      tag_69\n      jump\t// in\n    tag_137:\n    tag_136:\n      eq\n        /* \"contracts/voting.sol\":4161:4221  require(status == ElectionStatus.ENDED,\"Election not ended\") */\n      tag_138\n      jumpi\n      mload(0x40)\n      0x08c379a000000000000000000000000000000000000000000000000000000000\n      dup2\n      mstore\n      0x04\n      add\n      tag_139\n      swap1\n      tag_140\n      jump\t// in\n    tag_139:\n      mload(0x40)\n      dup1\n      swap2\n      sub\n      swap1\n      revert\n    tag_138:\n        /* \"contracts/voting.sol\":4231:4245  uint8 winnerId */\n      0x00\n        /* \"contracts/voting.sol\":4255:4279  string memory winnerName */\n      0x60\n        /* \"contracts/voting.sol\":4289:4305  uint8 totalVotes */\n      0x00\n        /* \"contracts/voting.sol\":4324:4331  uint8 i */\n      dup1\n        /* \"contracts/voting.sol\":4319:4672  for (uint8 i =0; i<candidatesInElection.length; i++) ... */\n    tag_141:\n        /* \"contracts/voting.sol\":4338:4358  candidatesInElection */\n      0x04\n        /* \"contracts/voting.sol\":4338:4365  candidatesInElection.length */\n      dup1\n      sload\n      swap1\n      pop\n        /* \"contracts/voting.sol\":4336:4337  i */\n      dup2\n        /* \"contracts/voting.sol\":4336:4365  i<candidatesInElection.length */\n      0xff\n      and\n      lt\n        /* \"contracts/voting.sol\":4319:4672  for (uint8 i =0; i<candidatesInElection.length; i++) ... */\n      iszero\n      tag_142\n      jumpi\n        /* \"contracts/voting.sol\":4410:4420  candidates */\n      0x02\n        /* \"contracts/voting.sol\":4410:4445  candidates[candidatesInElection[i]] */\n      0x00\n        /* \"contracts/voting.sol\":4421:4441  candidatesInElection */\n      0x04\n        /* \"contracts/voting.sol\":4442:4443  i */\n      dup4\n        /* \"contracts/voting.sol\":4421:4444  candidatesInElection[i] */\n      0xff\n      and\n      dup2\n      sload\n      dup2\n      lt\n      tag_144\n      jumpi\n      tag_145\n      tag_146\n      jump\t// in\n    tag_145:\n    tag_144:\n      swap1\n      0x00\n      mstore\n      keccak256(0x00, 0x20)\n      swap1\n      0x20\n      swap2\n      dup3\n      dup3\n      div\n      add\n      swap2\n      swap1\n      mod\n      swap1\n      sload\n      swap1\n      0x0100\n      exp\n      swap1\n      div\n      0xff\n      and\n        /* \"contracts/voting.sol\":4410:4445  candidates[candidatesInElection[i]] */\n      0xff\n      and\n      0xff\n      and\n      dup2\n      mstore\n      0x20\n      add\n      swap1\n      dup2\n      mstore\n      0x20\n      add\n      0x00\n      keccak256\n        /* \"contracts/voting.sol\":4410:4451  candidates[candidatesInElection[i]].votes */\n      0x03\n      add\n      0x00\n      swap1\n      sload\n      swap1\n      0x0100\n      exp\n      swap1\n      div\n      0xff\n      and\n        /* \"contracts/voting.sol\":4399:4451  totalVotes<candidates[candidatesInElection[i]].votes */\n      0xff\n      and\n        /* \"contracts/voting.sol\":4399:4409  totalVotes */\n      dup3\n        /* \"contracts/voting.sol\":4399:4451  totalVotes<candidates[candidatesInElection[i]].votes */\n      0xff\n      and\n      lt\n        /* \"contracts/voting.sol\":4395:4662  if (totalVotes<candidates[candidatesInElection[i]].votes){... */\n      iszero\n      tag_148\n      jumpi\n        /* \"contracts/voting.sol\":4481:4501  candidatesInElection */\n      0x04\n        /* \"contracts/voting.sol\":4502:4503  i */\n      dup2\n        /* \"contracts/voting.sol\":4481:4504  candidatesInElection[i] */\n      0xff\n      and\n      dup2\n      sload\n      dup2\n      lt\n      tag_149\n      jumpi\n      tag_150\n      tag_146\n      jump\t// in\n    tag_150:\n    tag_149:\n      swap1\n      0x00\n      mstore\n      keccak256(0x00, 0x20)\n      swap1\n      0x20\n      swap2\n      dup3\n      dup3\n      div\n      add\n      swap2\n      swap1\n      mod\n      swap1\n      sload\n      swap1\n      0x0100\n      exp\n      swap1\n      div\n      0xff\n      and\n        /* \"contracts/voting.sol\":4470:4504  winnerId = candidatesInElection[i] */\n      swap4\n      pop\n        /* \"contracts/voting.sol\":4535:4545  candidates */\n      0x02\n        /* \"contracts/voting.sol\":4535:4570  candidates[candidatesInElection[i]] */\n      0x00\n        /* \"contracts/voting.sol\":4546:4566  candidatesInElection */\n      0x04\n        /* \"contracts/voting.sol\":4567:4568  i */\n      dup4\n        /* \"contracts/voting.sol\":4546:4569  candidatesInElection[i] */\n      0xff\n      and\n      dup2\n      sload\n      dup2\n      lt\n      tag_152\n      jumpi\n      tag_153\n      tag_146\n      jump\t// in\n    tag_153:\n    tag_152:\n      swap1\n      0x00\n      mstore\n      keccak256(0x00, 0x20)\n      swap1\n      0x20\n      swap2\n      dup3\n      dup3\n      div\n      add\n      swap2\n      swap1\n      mod\n      swap1\n      sload\n      swap1\n      0x0100\n      exp\n      swap1\n      div\n      0xff\n      and\n        /* \"contracts/voting.sol\":4535:4570  candidates[candidatesInElection[i]] */\n      0xff\n      and\n      0xff\n      and\n      dup2\n      mstore\n      0x20\n      add\n      swap1\n      dup2\n      mstore\n      0x20\n      add\n      0x00\n      keccak256\n        /* \"contracts/voting.sol\":4535:4575  candidates[candidatesInElection[i]].name */\n      0x00\n      add\n        /* \"contracts/voting.sol\":4522:4575  winnerName = candidates[candidatesInElection[i]].name */\n      dup1\n      sload\n      tag_155\n      swap1\n      tag_91\n      jump\t// in\n    tag_155:\n      dup1\n      0x1f\n      add\n      0x20\n      dup1\n      swap2\n      div\n      mul\n      0x20\n      add\n      mload(0x40)\n      swap1\n      dup2\n      add\n      0x40\n      mstore\n      dup1\n      swap3\n      swap2\n      swap1\n      dup2\n      dup2\n      mstore\n      0x20\n      add\n      dup3\n      dup1\n      sload\n      tag_156\n      swap1\n      tag_91\n      jump\t// in\n    tag_156:\n      dup1\n      iszero\n      tag_157\n      jumpi\n      dup1\n      0x1f\n      lt\n      tag_158\n      jumpi\n      0x0100\n      dup1\n      dup4\n      sload\n      div\n      mul\n      dup4\n      mstore\n      swap2\n      0x20\n      add\n      swap2\n      jump(tag_157)\n    tag_158:\n      dup3\n      add\n      swap2\n      swap1\n      0x00\n      mstore\n      keccak256(0x00, 0x20)\n      swap1\n    tag_159:\n      dup2\n      sload\n      dup2\n      mstore\n      swap1\n      0x01\n      add\n      swap1\n      0x20\n      add\n      dup1\n      dup4\n      gt\n      tag_159\n      jumpi\n      dup3\n      swap1\n      sub\n      0x1f\n      and\n      dup3\n      add\n      swap2\n    tag_157:\n      pop\n      pop\n      pop\n      pop\n      pop\n      swap3\n      pop\n        /* \"contracts/voting.sol\":4606:4616  candidates */\n      0x02\n        /* \"contracts/voting.sol\":4606:4641  candidates[candidatesInElection[i]] */\n      0x00\n        /* \"contracts/voting.sol\":4617:4637  candidatesInElection */\n      0x04\n        /* \"contracts/voting.sol\":4638:4639  i */\n      dup4\n        /* \"contracts/voting.sol\":4617:4640  candidatesInElection[i] */\n      0xff\n      and\n      dup2\n      sload\n      dup2\n      lt\n      tag_160\n      jumpi\n      tag_161\n      tag_146\n      jump\t// in\n    tag_161:\n    tag_160:\n      swap1\n      0x00\n      mstore\n      keccak256(0x00, 0x20)\n      swap1\n      0x20\n      swap2\n      dup3\n      dup3\n      div\n      add\n      swap2\n      swap1\n      mod\n      swap1\n      sload\n      swap1\n      0x0100\n      exp\n      swap1\n      div\n      0xff\n      and\n        /* \"contracts/voting.sol\":4606:4641  candidates[candidatesInElection[i]] */\n      0xff\n      and\n      0xff\n      and\n      dup2\n      mstore\n      0x20\n      add\n      swap1\n      dup2\n      mstore\n      0x20\n      add\n      0x00\n      keccak256\n        /* \"contracts/voting.sol\":4606:4647  candidates[candidatesInElection[i]].votes */\n      0x03\n      add\n      0x00\n      swap1\n      sload\n      swap1\n      0x0100\n      exp\n      swap1\n      div\n      0xff\n      and\n        /* \"contracts/voting.sol\":4593:4647  totalVotes = candidates[candidatesInElection[i]].votes */\n      swap2\n      pop\n        /* \"contracts/voting.sol\":4395:4662  if (totalVotes<candidates[candidatesInElection[i]].votes){... */\n    tag_148:\n        /* \"contracts/voting.sol\":4367:4370  i++ */\n      dup1\n      dup1\n      tag_163\n      swap1\n      tag_81\n      jump\t// in\n    tag_163:\n      swap2\n      pop\n      pop\n        /* \"contracts/voting.sol\":4319:4672  for (uint8 i =0; i<candidatesInElection.length; i++) ... */\n      jump(tag_141)\n    tag_142:\n      pop\n        /* \"contracts/voting.sol\":4689:4697  winnerId */\n      dup3\n        /* \"contracts/voting.sol\":4698:4708  winnerName */\n      dup3\n        /* \"contracts/voting.sol\":4709:4719  totalVotes */\n      dup3\n        /* \"contracts/voting.sol\":4681:4720  return (winnerId,winnerName,totalVotes) */\n      swap6\n      pop\n      swap6\n      pop\n      swap6\n      pop\n      pop\n      pop\n      pop\n        /* \"contracts/voting.sol\":3986:4727  function showWinner()public view returns(uint8 id,string memory name,uint8 Votes) {... */\n      swap1\n      swap2\n      swap3\n      jump\t// out\n        /* \"contracts/voting.sol\":3654:3980  function vote(uint8 candidateId, address voter) public{... */\n    tag_46:\n        /* \"contracts/voting.sol\":3738:3743  voter */\n      dup1\n        /* \"contracts/voting.sol\":3726:3743  msg.sender==voter */\n      0xffffffffffffffffffffffffffffffffffffffff\n      and\n        /* \"contracts/voting.sol\":3726:3736  msg.sender */\n      caller\n        /* \"contracts/voting.sol\":3726:3743  msg.sender==voter */\n      0xffffffffffffffffffffffffffffffffffffffff\n      and\n      eq\n        /* \"contracts/voting.sol\":3718:3775  require(msg.sender==voter,\"Only voter can cast his vote\") */\n      tag_165\n      jumpi\n      mload(0x40)\n      0x08c379a000000000000000000000000000000000000000000000000000000000\n      dup2\n      mstore\n      0x04\n      add\n      tag_166\n      swap1\n      tag_167\n      jump\t// in\n    tag_166:\n      mload(0x40)\n      dup1\n      swap2\n      sub\n      swap1\n      revert\n    tag_165:\n        /* \"contracts/voting.sol\":3819:3820  0 */\n      0x00\n        /* \"contracts/voting.sol\":3793:3799  voters */\n      0x03\n        /* \"contracts/voting.sol\":3793:3806  voters[voter] */\n      0x00\n        /* \"contracts/voting.sol\":3800:3805  voter */\n      dup4\n        /* \"contracts/voting.sol\":3793:3806  voters[voter] */\n      0xffffffffffffffffffffffffffffffffffffffff\n      and\n      0xffffffffffffffffffffffffffffffffffffffff\n      and\n      dup2\n      mstore\n      0x20\n      add\n      swap1\n      dup2\n      mstore\n      0x20\n      add\n      0x00\n      keccak256\n        /* \"contracts/voting.sol\":3793:3818  voters[voter].no_of_votes */\n      0x01\n      add\n      0x14\n      swap1\n      sload\n      swap1\n      0x0100\n      exp\n      swap1\n      div\n      0xff\n      and\n        /* \"contracts/voting.sol\":3793:3820  voters[voter].no_of_votes>0 */\n      0xff\n      and\n      gt\n        /* \"contracts/voting.sol\":3785:3843  require(voters[voter].no_of_votes>0,\"Voter already voted\") */\n      tag_168\n      jumpi\n      mload(0x40)\n      0x08c379a000000000000000000000000000000000000000000000000000000000\n      dup2\n      mstore\n      0x04\n      add\n      tag_169\n      swap1\n      tag_170\n      jump\t// in\n    tag_169:\n      mload(0x40)\n      dup1\n      swap2\n      sub\n      swap1\n      revert\n    tag_168:\n        /* \"contracts/voting.sol\":3884:3885  1 */\n      0x01\n        /* \"contracts/voting.sol\":3853:3863  candidates */\n      0x02\n        /* \"contracts/voting.sol\":3853:3876  candidates[candidateId] */\n      0x00\n        /* \"contracts/voting.sol\":3864:3875  candidateId */\n      dup5\n        /* \"contracts/voting.sol\":3853:3876  candidates[candidateId] */\n      0xff\n      and\n      0xff\n      and\n      dup2\n      mstore\n      0x20\n      add\n      swap1\n      dup2\n      mstore\n      0x20\n      add\n      0x00\n      keccak256\n        /* \"contracts/voting.sol\":3853:3882  candidates[candidateId].votes */\n      0x03\n      add\n      0x00\n        /* \"contracts/voting.sol\":3853:3885  candidates[candidateId].votes+=1 */\n      dup3\n      dup3\n      dup3\n      swap1\n      sload\n      swap1\n      0x0100\n      exp\n      swap1\n      div\n      0xff\n      and\n      tag_171\n      swap2\n      swap1\n      tag_172\n      jump\t// in\n    tag_171:\n      swap3\n      pop\n      0x0100\n      exp\n      dup2\n      sload\n      dup2\n      0xff\n      mul\n      not\n      and\n      swap1\n      dup4\n      0xff\n      and\n      mul\n      or\n      swap1\n      sstore\n      pop\n        /* \"contracts/voting.sol\":3922:3923  1 */\n      0x01\n        /* \"contracts/voting.sol\":3895:3901  voters */\n      0x03\n        /* \"contracts/voting.sol\":3895:3908  voters[voter] */\n      0x00\n        /* \"contracts/voting.sol\":3902:3907  voter */\n      dup4\n        /* \"contracts/voting.sol\":3895:3908  voters[voter] */\n      0xffffffffffffffffffffffffffffffffffffffff\n      and\n      0xffffffffffffffffffffffffffffffffffffffff\n      and\n      dup2\n      mstore\n      0x20\n      add\n      swap1\n      dup2\n      mstore\n      0x20\n      add\n      0x00\n      keccak256\n        /* \"contracts/voting.sol\":3895:3920  voters[voter].no_of_votes */\n      0x01\n      add\n      0x14\n        /* \"contracts/voting.sol\":3895:3923  voters[voter].no_of_votes-=1 */\n      dup3\n      dup3\n      dup3\n      swap1\n      sload\n      swap1\n      0x0100\n      exp\n      swap1\n      div\n      0xff\n      and\n      tag_173\n      swap2\n      swap1\n      tag_174\n      jump\t// in\n    tag_173:\n      swap3\n      pop\n      0x0100\n      exp\n      dup2\n      sload\n      dup2\n      0xff\n      mul\n      not\n      and\n      swap1\n      dup4\n      0xff\n      and\n      mul\n      or\n      swap1\n      sstore\n      pop\n        /* \"contracts/voting.sol\":3962:3973  candidateId */\n      dup2\n        /* \"contracts/voting.sol\":3933:3939  voters */\n      0x03\n        /* \"contracts/voting.sol\":3933:3946  voters[voter] */\n      0x00\n        /* \"contracts/voting.sol\":3940:3945  voter */\n      dup4\n        /* \"contracts/voting.sol\":3933:3946  voters[voter] */\n      0xffffffffffffffffffffffffffffffffffffffff\n      and\n      0xffffffffffffffffffffffffffffffffffffffff\n      and\n      dup2\n      mstore\n      0x20\n      add\n      swap1\n      dup2\n      mstore\n      0x20\n      add\n      0x00\n      keccak256\n        /* \"contracts/voting.sol\":3933:3959  voters[voter].votedTowards */\n      0x02\n      add\n      0x14\n        /* \"contracts/voting.sol\":3933:3973  voters[voter].votedTowards = candidateId */\n      0x0100\n      exp\n      dup2\n      sload\n      dup2\n      0xff\n      mul\n      not\n      and\n      swap1\n      dup4\n      0xff\n      and\n      mul\n      or\n      swap1\n      sstore\n      pop\n        /* \"contracts/voting.sol\":3654:3980  function vote(uint8 candidateId, address voter) public{... */\n      pop\n      pop\n      jump\t// out\n        /* \"contracts/voting.sol\":2204:2437  function getCandidate(uint8 _id) public view returns(uint8 id,string memory name,string memory proposal,address owner){... */\n    tag_50:\n        /* \"contracts/voting.sol\":2257:2265  uint8 id */\n      0x00\n        /* \"contracts/voting.sol\":2266:2284  string memory name */\n      0x60\n        /* \"contracts/voting.sol\":2285:2307  string memory proposal */\n      dup1\n        /* \"contracts/voting.sol\":2308:2321  address owner */\n      0x00\n        /* \"contracts/voting.sol\":2340:2343  _id */\n      dup5\n        /* \"contracts/voting.sol\":2344:2354  candidates */\n      0x02\n        /* \"contracts/voting.sol\":2344:2359  candidates[_id] */\n      0x00\n        /* \"contracts/voting.sol\":2355:2358  _id */\n      dup8\n        /* \"contracts/voting.sol\":2344:2359  candidates[_id] */\n      0xff\n      and\n      0xff\n      and\n      dup2\n      mstore\n      0x20\n      add\n      swap1\n      dup2\n      mstore\n      0x20\n      add\n      0x00\n      keccak256\n        /* \"contracts/voting.sol\":2344:2364  candidates[_id].name */\n      0x00\n      add\n        /* \"contracts/voting.sol\":2374:2384  candidates */\n      0x02\n        /* \"contracts/voting.sol\":2374:2389  candidates[_id] */\n      0x00\n        /* \"contracts/voting.sol\":2385:2388  _id */\n      dup9\n        /* \"contracts/voting.sol\":2374:2389  candidates[_id] */\n      0xff\n      and\n      0xff\n      and\n      dup2\n      mstore\n      0x20\n      add\n      swap1\n      dup2\n      mstore\n      0x20\n      add\n      0x00\n      keccak256\n        /* \"contracts/voting.sol\":2374:2398  candidates[_id].proposal */\n      0x02\n      add\n        /* \"contracts/voting.sol\":2408:2418  candidates */\n      0x02\n        /* \"contracts/voting.sol\":2408:2423  candidates[_id] */\n      0x00\n        /* \"contracts/voting.sol\":2419:2422  _id */\n      dup10\n        /* \"contracts/voting.sol\":2408:2423  candidates[_id] */\n      0xff\n      and\n      0xff\n      and\n      dup2\n      mstore\n      0x20\n      add\n      swap1\n      dup2\n      mstore\n      0x20\n      add\n      0x00\n      keccak256\n        /* \"contracts/voting.sol\":2408:2429  candidates[_id].owner */\n      0x01\n      add\n      0x00\n      swap1\n      sload\n      swap1\n      0x0100\n      exp\n      swap1\n      div\n      0xffffffffffffffffffffffffffffffffffffffff\n      and\n        /* \"contracts/voting.sol\":2332:2430  return (_id,candidates[_id].name,... */\n      dup3\n      dup1\n      sload\n      tag_176\n      swap1\n      tag_91\n      jump\t// in\n    tag_176:\n      dup1\n      0x1f\n      add\n      0x20\n      dup1\n      swap2\n      div\n      mul\n      0x20\n      add\n      mload(0x40)\n      swap1\n      dup2\n      add\n      0x40\n      mstore\n      dup1\n      swap3\n      swap2\n      swap1\n      dup2\n      dup2\n      mstore\n      0x20\n      add\n      dup3\n      dup1\n      sload\n      tag_177\n      swap1\n      tag_91\n      jump\t// in\n    tag_177:\n      dup1\n      iszero\n      tag_178\n      jumpi\n      dup1\n      0x1f\n      lt\n      tag_179\n      jumpi\n      0x0100\n      dup1\n      dup4\n      sload\n      div\n      mul\n      dup4\n      mstore\n      swap2\n      0x20\n      add\n      swap2\n      jump(tag_178)\n    tag_179:\n      dup3\n      add\n      swap2\n      swap1\n      0x00\n      mstore\n      keccak256(0x00, 0x20)\n      swap1\n    tag_180:\n      dup2\n      sload\n      dup2\n      mstore\n      swap1\n      0x01\n      add\n      swap1\n      0x20\n      add\n      dup1\n      dup4\n      gt\n      tag_180\n      jumpi\n      dup3\n      swap1\n      sub\n      0x1f\n      and\n      dup3\n      add\n      swap2\n    tag_178:\n      pop\n      pop\n      pop\n      pop\n      pop\n      swap3\n      pop\n      dup2\n      dup1\n      sload\n      tag_181\n      swap1\n      tag_91\n      jump\t// in\n    tag_181:\n      dup1\n      0x1f\n      add\n      0x20\n      dup1\n      swap2\n      div\n      mul\n      0x20\n      add\n      mload(0x40)\n      swap1\n      dup2\n      add\n      0x40\n      mstore\n      dup1\n      swap3\n      swap2\n      swap1\n      dup2\n      dup2\n      mstore\n      0x20\n      add\n      dup3\n      dup1\n      sload\n      tag_182\n      swap1\n      tag_91\n      jump\t// in\n    tag_182:\n      dup1\n      iszero\n      tag_183\n      jumpi\n      dup1\n      0x1f\n      lt\n      tag_184\n      jumpi\n      0x0100\n      dup1\n      dup4\n      sload\n      div\n      mul\n      dup4\n      mstore\n      swap2\n      0x20\n      add\n      swap2\n      jump(tag_183)\n    tag_184:\n      dup3\n      add\n      swap2\n      swap1\n      0x00\n      mstore\n      keccak256(0x00, 0x20)\n      swap1\n    tag_185:\n      dup2\n      sload\n      dup2\n      mstore\n      swap1\n      0x01\n      add\n      swap1\n      0x20\n      add\n      dup1\n      dup4\n      gt\n      tag_185\n      jumpi\n      dup3\n      swap1\n      sub\n      0x1f\n      and\n      dup3\n      add\n      swap2\n    tag_183:\n      pop\n      pop\n      pop\n      pop\n      pop\n      swap2\n      pop\n      swap4\n      pop\n      swap4\n      pop\n      swap4\n      pop\n      swap4\n      pop\n        /* \"contracts/voting.sol\":2204:2437  function getCandidate(uint8 _id) public view returns(uint8 id,string memory name,string memory proposal,address owner){... */\n      swap2\n      swap4\n      pop\n      swap2\n      swap4\n      jump\t// out\n        /* \"contracts/voting.sol\":2443:2824  function getVoter(address _voterAddress) public view returns (string memory name,address owner,address delegateaddress,uint8 weight,uint8 votedTowards){... */\n    tag_56:\n        /* \"contracts/voting.sol\":2505:2523  string memory name */\n      0x60\n        /* \"contracts/voting.sol\":2524:2537  address owner */\n      0x00\n        /* \"contracts/voting.sol\":2538:2561  address delegateaddress */\n      dup1\n        /* \"contracts/voting.sol\":2562:2574  uint8 weight */\n      0x00\n        /* \"contracts/voting.sol\":2575:2593  uint8 votedTowards */\n      dup1\n        /* \"contracts/voting.sol\":2612:2618  voters */\n      0x03\n        /* \"contracts/voting.sol\":2612:2633  voters[_voterAddress] */\n      0x00\n        /* \"contracts/voting.sol\":2619:2632  _voterAddress */\n      dup8\n        /* \"contracts/voting.sol\":2612:2633  voters[_voterAddress] */\n      0xffffffffffffffffffffffffffffffffffffffff\n      and\n      0xffffffffffffffffffffffffffffffffffffffff\n      and\n      dup2\n      mstore\n      0x20\n      add\n      swap1\n      dup2\n      mstore\n      0x20\n      add\n      0x00\n      keccak256\n        /* \"contracts/voting.sol\":2612:2638  voters[_voterAddress].name */\n      0x00\n      add\n        /* \"contracts/voting.sol\":2648:2654  voters */\n      0x03\n        /* \"contracts/voting.sol\":2648:2669  voters[_voterAddress] */\n      0x00\n        /* \"contracts/voting.sol\":2655:2668  _voterAddress */\n      dup9\n        /* \"contracts/voting.sol\":2648:2669  voters[_voterAddress] */\n      0xffffffffffffffffffffffffffffffffffffffff\n      and\n      0xffffffffffffffffffffffffffffffffffffffff\n      and\n      dup2\n      mstore\n      0x20\n      add\n      swap1\n      dup2\n      mstore\n      0x20\n      add\n      0x00\n      keccak256\n        /* \"contracts/voting.sol\":2648:2682  voters[_voterAddress].voterAddress */\n      0x01\n      add\n      0x00\n      swap1\n      sload\n      swap1\n      0x0100\n      exp\n      swap1\n      div\n      0xffffffffffffffffffffffffffffffffffffffff\n      and\n        /* \"contracts/voting.sol\":2692:2698  voters */\n      0x03\n        /* \"contracts/voting.sol\":2692:2713  voters[_voterAddress] */\n      0x00\n        /* \"contracts/voting.sol\":2699:2712  _voterAddress */\n      dup10\n        /* \"contracts/voting.sol\":2692:2713  voters[_voterAddress] */\n      0xffffffffffffffffffffffffffffffffffffffff\n      and\n      0xffffffffffffffffffffffffffffffffffffffff\n      and\n      dup2\n      mstore\n      0x20\n      add\n      swap1\n      dup2\n      mstore\n      0x20\n      add\n      0x00\n      keccak256\n        /* \"contracts/voting.sol\":2692:2729  voters[_voterAddress].delegateAddress */\n      0x02\n      add\n      0x00\n      swap1\n      sload\n      swap1\n      0x0100\n      exp\n      swap1\n      div\n      0xffffffffffffffffffffffffffffffffffffffff\n      and\n        /* \"contracts/voting.sol\":2739:2745  voters */\n      0x03\n        /* \"contracts/voting.sol\":2739:2760  voters[_voterAddress] */\n      0x00\n        /* \"contracts/voting.sol\":2746:2759  _voterAddress */\n      dup11\n        /* \"contracts/voting.sol\":2739:2760  voters[_voterAddress] */\n      0xffffffffffffffffffffffffffffffffffffffff\n      and\n      0xffffffffffffffffffffffffffffffffffffffff\n      and\n      dup2\n      mstore\n      0x20\n      add\n      swap1\n      dup2\n      mstore\n      0x20\n      add\n      0x00\n      keccak256\n        /* \"contracts/voting.sol\":2739:2772  voters[_voterAddress].no_of_votes */\n      0x01\n      add\n      0x14\n      swap1\n      sload\n      swap1\n      0x0100\n      exp\n      swap1\n      div\n      0xff\n      and\n        /* \"contracts/voting.sol\":2782:2788  voters */\n      0x03\n        /* \"contracts/voting.sol\":2782:2803  voters[_voterAddress] */\n      0x00\n        /* \"contracts/voting.sol\":2789:2802  _voterAddress */\n      dup12\n        /* \"contracts/voting.sol\":2782:2803  voters[_voterAddress] */\n      0xffffffffffffffffffffffffffffffffffffffff\n      and\n      0xffffffffffffffffffffffffffffffffffffffff\n      and\n      dup2\n      mstore\n      0x20\n      add\n      swap1\n      dup2\n      mstore\n      0x20\n      add\n      0x00\n      keccak256\n        /* \"contracts/voting.sol\":2782:2816  voters[_voterAddress].votedTowards */\n      0x02\n      add\n      0x14\n      swap1\n      sload\n      swap1\n      0x0100\n      exp\n      swap1\n      div\n      0xff\n      and\n        /* \"contracts/voting.sol\":2604:2817  return (voters[_voterAddress].name,... */\n      dup5\n      dup1\n      sload\n      tag_187\n      swap1\n      tag_91\n      jump\t// in\n    tag_187:\n      dup1\n      0x1f\n      add\n      0x20\n      dup1\n      swap2\n      div\n      mul\n      0x20\n      add\n      mload(0x40)\n      swap1\n      dup2\n      add\n      0x40\n      mstore\n      dup1\n      swap3\n      swap2\n      swap1\n      dup2\n      dup2\n      mstore\n      0x20\n      add\n      dup3\n      dup1\n      sload\n      tag_188\n      swap1\n      tag_91\n      jump\t// in\n    tag_188:\n      dup1\n      iszero\n      tag_189\n      jumpi\n      dup1\n      0x1f\n      lt\n      tag_190\n      jumpi\n      0x0100\n      dup1\n      dup4\n      sload\n      div\n      mul\n      dup4\n      mstore\n      swap2\n      0x20\n      add\n      swap2\n      jump(tag_189)\n    tag_190:\n      dup3\n      add\n      swap2\n      swap1\n      0x00\n      mstore\n      keccak256(0x00, 0x20)\n      swap1\n    tag_191:\n      dup2\n      sload\n      dup2\n      mstore\n      swap1\n      0x01\n      add\n      swap1\n      0x20\n      add\n      dup1\n      dup4\n      gt\n      tag_191\n      jumpi\n      dup3\n      swap1\n      sub\n      0x1f\n      and\n      dup3\n      add\n      swap2\n    tag_189:\n      pop\n      pop\n      pop\n      pop\n      pop\n      swap5\n      pop\n      swap5\n      pop\n      swap5\n      pop\n      swap5\n      pop\n      swap5\n      pop\n      swap5\n      pop\n        /* \"contracts/voting.sol\":2443:2824  function getVoter(address _voterAddress) public view returns (string memory name,address owner,address delegateaddress,uint8 weight,uint8 votedTowards){... */\n      swap2\n      swap4\n      swap6\n      swap1\n      swap3\n      swap5\n      pop\n      jump\t// out\n        /* \"contracts/voting.sol\":3112:3648  function delegateVote(address voterAddress,address receiverAddress) public{... */\n    tag_62:\n        /* \"contracts/voting.sol\":3216:3228  voterAddress */\n      dup2\n        /* \"contracts/voting.sol\":3204:3228  msg.sender==voterAddress */\n      0xffffffffffffffffffffffffffffffffffffffff\n      and\n        /* \"contracts/voting.sol\":3204:3214  msg.sender */\n      caller\n        /* \"contracts/voting.sol\":3204:3228  msg.sender==voterAddress */\n      0xffffffffffffffffffffffffffffffffffffffff\n      and\n      eq\n        /* \"contracts/voting.sol\":3196:3264  require(msg.sender==voterAddress,\"Only voter can deligate his vote\") */\n      tag_193\n      jumpi\n      mload(0x40)\n      0x08c379a000000000000000000000000000000000000000000000000000000000\n      dup2\n      mstore\n      0x04\n      add\n      tag_194\n      swap1\n      tag_195\n      jump\t// in\n    tag_194:\n      mload(0x40)\n      dup1\n      swap2\n      sub\n      swap1\n      revert\n    tag_193:\n        /* \"contracts/voting.sol\":3315:3316  0 */\n      0x00\n        /* \"contracts/voting.sol\":3282:3288  voters */\n      0x03\n        /* \"contracts/voting.sol\":3282:3302  voters[voterAddress] */\n      0x00\n        /* \"contracts/voting.sol\":3289:3301  voterAddress */\n      dup5\n        /* \"contracts/voting.sol\":3282:3302  voters[voterAddress] */\n      0xffffffffffffffffffffffffffffffffffffffff\n      and\n      0xffffffffffffffffffffffffffffffffffffffff\n      and\n      dup2\n      mstore\n      0x20\n      add\n      swap1\n      dup2\n      mstore\n      0x20\n      add\n      0x00\n      keccak256\n        /* \"contracts/voting.sol\":3282:3314  voters[voterAddress].no_of_votes */\n      0x01\n      add\n      0x14\n      swap1\n      sload\n      swap1\n      0x0100\n      exp\n      swap1\n      div\n      0xff\n      and\n        /* \"contracts/voting.sol\":3282:3316  voters[voterAddress].no_of_votes>0 */\n      0xff\n      and\n      gt\n        /* \"contracts/voting.sol\":3274:3336  require(voters[voterAddress].no_of_votes>0,\"voter not exists\") */\n      tag_196\n      jumpi\n      mload(0x40)\n      0x08c379a000000000000000000000000000000000000000000000000000000000\n      dup2\n      mstore\n      0x04\n      add\n      tag_197\n      swap1\n      tag_198\n      jump\t// in\n    tag_197:\n      mload(0x40)\n      dup1\n      swap2\n      sub\n      swap1\n      revert\n    tag_196:\n        /* \"contracts/voting.sol\":3390:3391  0 */\n      0x00\n        /* \"contracts/voting.sol\":3354:3360  voters */\n      0x03\n        /* \"contracts/voting.sol\":3354:3377  voters[receiverAddress] */\n      0x00\n        /* \"contracts/voting.sol\":3361:3376  receiverAddress */\n      dup4\n        /* \"contracts/voting.sol\":3354:3377  voters[receiverAddress] */\n      0xffffffffffffffffffffffffffffffffffffffff\n      and\n      0xffffffffffffffffffffffffffffffffffffffff\n      and\n      dup2\n      mstore\n      0x20\n      add\n      swap1\n      dup2\n      mstore\n      0x20\n      add\n      0x00\n      keccak256\n        /* \"contracts/voting.sol\":3354:3389  voters[receiverAddress].no_of_votes */\n      0x01\n      add\n      0x14\n      swap1\n      sload\n      swap1\n      0x0100\n      exp\n      swap1\n      div\n      0xff\n      and\n        /* \"contracts/voting.sol\":3354:3391  voters[receiverAddress].no_of_votes>0 */\n      0xff\n      and\n      gt\n        /* \"contracts/voting.sol\":3346:3414  require(voters[receiverAddress].no_of_votes>0,\"receiver not exists\") */\n      tag_199\n      jumpi\n      mload(0x40)\n      0x08c379a000000000000000000000000000000000000000000000000000000000\n      dup2\n      mstore\n      0x04\n      add\n      tag_200\n      swap1\n      tag_201\n      jump\t// in\n    tag_200:\n      mload(0x40)\n      dup1\n      swap2\n      sub\n      swap1\n      revert\n    tag_199:\n        /* \"contracts/voting.sol\":3425:3440  uint8 noofVotes */\n      0x00\n        /* \"contracts/voting.sol\":3443:3449  voters */\n      0x03\n        /* \"contracts/voting.sol\":3443:3463  voters[voterAddress] */\n      0x00\n        /* \"contracts/voting.sol\":3450:3462  voterAddress */\n      dup5\n        /* \"contracts/voting.sol\":3443:3463  voters[voterAddress] */\n      0xffffffffffffffffffffffffffffffffffffffff\n      and\n      0xffffffffffffffffffffffffffffffffffffffff\n      and\n      dup2\n      mstore\n      0x20\n      add\n      swap1\n      dup2\n      mstore\n      0x20\n      add\n      0x00\n      keccak256\n        /* \"contracts/voting.sol\":3443:3475  voters[voterAddress].no_of_votes */\n      0x01\n      add\n      0x14\n      swap1\n      sload\n      swap1\n      0x0100\n      exp\n      swap1\n      div\n      0xff\n      and\n        /* \"contracts/voting.sol\":3425:3475  uint8 noofVotes = voters[voterAddress].no_of_votes */\n      swap1\n      pop\n        /* \"contracts/voting.sol\":3522:3531  noofVotes */\n      dup1\n        /* \"contracts/voting.sol\":3485:3491  voters */\n      0x03\n        /* \"contracts/voting.sol\":3485:3508  voters[receiverAddress] */\n      0x00\n        /* \"contracts/voting.sol\":3492:3507  receiverAddress */\n      dup5\n        /* \"contracts/voting.sol\":3485:3508  voters[receiverAddress] */\n      0xffffffffffffffffffffffffffffffffffffffff\n      and\n      0xffffffffffffffffffffffffffffffffffffffff\n      and\n      dup2\n      mstore\n      0x20\n      add\n      swap1\n      dup2\n      mstore\n      0x20\n      add\n      0x00\n      keccak256\n        /* \"contracts/voting.sol\":3485:3520  voters[receiverAddress].no_of_votes */\n      0x01\n      add\n      0x14\n        /* \"contracts/voting.sol\":3485:3531  voters[receiverAddress].no_of_votes+=noofVotes */\n      dup3\n      dup3\n      dup3\n      swap1\n      sload\n      swap1\n      0x0100\n      exp\n      swap1\n      div\n      0xff\n      and\n      tag_202\n      swap2\n      swap1\n      tag_172\n      jump\t// in\n    tag_202:\n      swap3\n      pop\n      0x0100\n      exp\n      dup2\n      sload\n      dup2\n      0xff\n      mul\n      not\n      and\n      swap1\n      dup4\n      0xff\n      and\n      mul\n      or\n      swap1\n      sstore\n      pop\n        /* \"contracts/voting.sol\":3575:3576  1 */\n      0x01\n        /* \"contracts/voting.sol\":3541:3547  voters */\n      0x03\n        /* \"contracts/voting.sol\":3541:3561  voters[voterAddress] */\n      0x00\n        /* \"contracts/voting.sol\":3548:3560  voterAddress */\n      dup6\n        /* \"contracts/voting.sol\":3541:3561  voters[voterAddress] */\n      0xffffffffffffffffffffffffffffffffffffffff\n      and\n      0xffffffffffffffffffffffffffffffffffffffff\n      and\n      dup2\n      mstore\n      0x20\n      add\n      swap1\n      dup2\n      mstore\n      0x20\n      add\n      0x00\n      keccak256\n        /* \"contracts/voting.sol\":3541:3573  voters[voterAddress].no_of_votes */\n      0x01\n      add\n      0x14\n        /* \"contracts/voting.sol\":3541:3576  voters[voterAddress].no_of_votes-=1 */\n      dup3\n      dup3\n      dup3\n      swap1\n      sload\n      swap1\n      0x0100\n      exp\n      swap1\n      div\n      0xff\n      and\n      tag_203\n      swap2\n      swap1\n      tag_174\n      jump\t// in\n    tag_203:\n      swap3\n      pop\n      0x0100\n      exp\n      dup2\n      sload\n      dup2\n      0xff\n      mul\n      not\n      and\n      swap1\n      dup4\n      0xff\n      and\n      mul\n      or\n      swap1\n      sstore\n      pop\n        /* \"contracts/voting.sol\":3625:3640  receiverAddress */\n      dup2\n        /* \"contracts/voting.sol\":3586:3592  voters */\n      0x03\n        /* \"contracts/voting.sol\":3586:3606  voters[voterAddress] */\n      0x00\n        /* \"contracts/voting.sol\":3593:3605  voterAddress */\n      dup6\n        /* \"contracts/voting.sol\":3586:3606  voters[voterAddress] */\n      0xffffffffffffffffffffffffffffffffffffffff\n      and\n      0xffffffffffffffffffffffffffffffffffffffff\n      and\n      dup2\n      mstore\n      0x20\n      add\n      swap1\n      dup2\n      mstore\n      0x20\n      add\n      0x00\n      keccak256\n        /* \"contracts/voting.sol\":3586:3622  voters[voterAddress].delegateAddress */\n      0x02\n      add\n      0x00\n        /* \"contracts/voting.sol\":3586:3640  voters[voterAddress].delegateAddress = receiverAddress */\n      0x0100\n      exp\n      dup2\n      sload\n      dup2\n      0xffffffffffffffffffffffffffffffffffffffff\n      mul\n      not\n      and\n      swap1\n      dup4\n      0xffffffffffffffffffffffffffffffffffffffff\n      and\n      mul\n      or\n      swap1\n      sstore\n      pop\n        /* \"contracts/voting.sol\":3186:3648  {... */\n      pop\n        /* \"contracts/voting.sol\":3112:3648  function delegateVote(address voterAddress,address receiverAddress) public{... */\n      pop\n      pop\n      jump\t// out\n        /* \"#utility.yul\":7:82   */\n    tag_204:\n        /* \"#utility.yul\":40:46   */\n      0x00\n        /* \"#utility.yul\":73:75   */\n      0x40\n        /* \"#utility.yul\":67:76   */\n      mload\n        /* \"#utility.yul\":57:76   */\n      swap1\n      pop\n        /* \"#utility.yul\":7:82   */\n      swap1\n      jump\t// out\n        /* \"#utility.yul\":88:205   */\n    tag_205:\n        /* \"#utility.yul\":197:198   */\n      0x00\n        /* \"#utility.yul\":194:195   */\n      dup1\n        /* \"#utility.yul\":187:199   */\n      revert\n        /* \"#utility.yul\":211:328   */\n    tag_206:\n        /* \"#utility.yul\":320:321   */\n      0x00\n        /* \"#utility.yul\":317:318   */\n      dup1\n        /* \"#utility.yul\":310:322   */\n      revert\n        /* \"#utility.yul\":334:451   */\n    tag_207:\n        /* \"#utility.yul\":443:444   */\n      0x00\n        /* \"#utility.yul\":440:441   */\n      dup1\n        /* \"#utility.yul\":433:445   */\n      revert\n        /* \"#utility.yul\":457:574   */\n    tag_208:\n        /* \"#utility.yul\":566:567   */\n      0x00\n        /* \"#utility.yul\":563:564   */\n      dup1\n        /* \"#utility.yul\":556:568   */\n      revert\n        /* \"#utility.yul\":580:682   */\n    tag_209:\n        /* \"#utility.yul\":621:627   */\n      0x00\n        /* \"#utility.yul\":672:674   */\n      0x1f\n        /* \"#utility.yul\":668:675   */\n      not\n        /* \"#utility.yul\":663:665   */\n      0x1f\n        /* \"#utility.yul\":656:661   */\n      dup4\n        /* \"#utility.yul\":652:666   */\n      add\n        /* \"#utility.yul\":648:676   */\n      and\n        /* \"#utility.yul\":638:676   */\n      swap1\n      pop\n        /* \"#utility.yul\":580:682   */\n      swap2\n      swap1\n      pop\n      jump\t// out\n        /* \"#utility.yul\":688:868   */\n    tag_210:\n        /* \"#utility.yul\":736:813   */\n      0x4e487b7100000000000000000000000000000000000000000000000000000000\n        /* \"#utility.yul\":733:734   */\n      0x00\n        /* \"#utility.yul\":726:814   */\n      mstore\n        /* \"#utility.yul\":833:837   */\n      0x41\n        /* \"#utility.yul\":830:831   */\n      0x04\n        /* \"#utility.yul\":823:838   */\n      mstore\n        /* \"#utility.yul\":857:861   */\n      0x24\n        /* \"#utility.yul\":854:855   */\n      0x00\n        /* \"#utility.yul\":847:862   */\n      revert\n        /* \"#utility.yul\":874:1155   */\n    tag_211:\n        /* \"#utility.yul\":957:984   */\n      tag_282\n        /* \"#utility.yul\":979:983   */\n      dup3\n        /* \"#utility.yul\":957:984   */\n      tag_209\n      jump\t// in\n    tag_282:\n        /* \"#utility.yul\":949:955   */\n      dup2\n        /* \"#utility.yul\":945:985   */\n      add\n        /* \"#utility.yul\":1087:1093   */\n      dup2\n        /* \"#utility.yul\":1075:1085   */\n      dup2\n        /* \"#utility.yul\":1072:1094   */\n      lt\n        /* \"#utility.yul\":1051:1069   */\n      0xffffffffffffffff\n        /* \"#utility.yul\":1039:1049   */\n      dup3\n        /* \"#utility.yul\":1036:1070   */\n      gt\n        /* \"#utility.yul\":1033:1095   */\n      or\n        /* \"#utility.yul\":1030:1118   */\n      iszero\n      tag_283\n      jumpi\n        /* \"#utility.yul\":1098:1116   */\n      tag_284\n      tag_210\n      jump\t// in\n    tag_284:\n        /* \"#utility.yul\":1030:1118   */\n    tag_283:\n        /* \"#utility.yul\":1138:1148   */\n      dup1\n        /* \"#utility.yul\":1134:1136   */\n      0x40\n        /* \"#utility.yul\":1127:1149   */\n      mstore\n        /* \"#utility.yul\":917:1155   */\n      pop\n        /* \"#utility.yul\":874:1155   */\n      pop\n      pop\n      jump\t// out\n        /* \"#utility.yul\":1161:1290   */\n    tag_212:\n        /* \"#utility.yul\":1195:1201   */\n      0x00\n        /* \"#utility.yul\":1222:1242   */\n      tag_286\n      tag_204\n      jump\t// in\n    tag_286:\n        /* \"#utility.yul\":1212:1242   */\n      swap1\n      pop\n        /* \"#utility.yul\":1251:1284   */\n      tag_287\n        /* \"#utility.yul\":1279:1283   */\n      dup3\n        /* \"#utility.yul\":1271:1277   */\n      dup3\n        /* \"#utility.yul\":1251:1284   */\n      tag_211\n      jump\t// in\n    tag_287:\n        /* \"#utility.yul\":1161:1290   */\n      swap2\n      swap1\n      pop\n      jump\t// out\n        /* \"#utility.yul\":1296:1604   */\n    tag_213:\n        /* \"#utility.yul\":1358:1362   */\n      0x00\n        /* \"#utility.yul\":1448:1466   */\n      0xffffffffffffffff\n        /* \"#utility.yul\":1440:1446   */\n      dup3\n        /* \"#utility.yul\":1437:1467   */\n      gt\n        /* \"#utility.yul\":1434:1490   */\n      iszero\n      tag_289\n      jumpi\n        /* \"#utility.yul\":1470:1488   */\n      tag_290\n      tag_210\n      jump\t// in\n    tag_290:\n        /* \"#utility.yul\":1434:1490   */\n    tag_289:\n        /* \"#utility.yul\":1508:1537   */\n      tag_291\n        /* \"#utility.yul\":1530:1536   */\n      dup3\n        /* \"#utility.yul\":1508:1537   */\n      tag_209\n      jump\t// in\n    tag_291:\n        /* \"#utility.yul\":1500:1537   */\n      swap1\n      pop\n        /* \"#utility.yul\":1592:1596   */\n      0x20\n        /* \"#utility.yul\":1586:1590   */\n      dup2\n        /* \"#utility.yul\":1582:1597   */\n      add\n        /* \"#utility.yul\":1574:1597   */\n      swap1\n      pop\n        /* \"#utility.yul\":1296:1604   */\n      swap2\n      swap1\n      pop\n      jump\t// out\n        /* \"#utility.yul\":1610:1756   */\n    tag_214:\n        /* \"#utility.yul\":1707:1713   */\n      dup3\n        /* \"#utility.yul\":1702:1705   */\n      dup2\n        /* \"#utility.yul\":1697:1700   */\n      dup4\n        /* \"#utility.yul\":1684:1714   */\n      calldatacopy\n        /* \"#utility.yul\":1748:1749   */\n      0x00\n        /* \"#utility.yul\":1739:1745   */\n      dup4\n        /* \"#utility.yul\":1734:1737   */\n      dup4\n        /* \"#utility.yul\":1730:1746   */\n      add\n        /* \"#utility.yul\":1723:1750   */\n      mstore\n        /* \"#utility.yul\":1610:1756   */\n      pop\n      pop\n      pop\n      jump\t// out\n        /* \"#utility.yul\":1762:2187   */\n    tag_215:\n        /* \"#utility.yul\":1840:1845   */\n      0x00\n        /* \"#utility.yul\":1865:1931   */\n      tag_294\n        /* \"#utility.yul\":1881:1930   */\n      tag_295\n        /* \"#utility.yul\":1923:1929   */\n      dup5\n        /* \"#utility.yul\":1881:1930   */\n      tag_213\n      jump\t// in\n    tag_295:\n        /* \"#utility.yul\":1865:1931   */\n      tag_212\n      jump\t// in\n    tag_294:\n        /* \"#utility.yul\":1856:1931   */\n      swap1\n      pop\n        /* \"#utility.yul\":1954:1960   */\n      dup3\n        /* \"#utility.yul\":1947:1952   */\n      dup2\n        /* \"#utility.yul\":1940:1961   */\n      mstore\n        /* \"#utility.yul\":1992:1996   */\n      0x20\n        /* \"#utility.yul\":1985:1990   */\n      dup2\n        /* \"#utility.yul\":1981:1997   */\n      add\n        /* \"#utility.yul\":2030:2033   */\n      dup5\n        /* \"#utility.yul\":2021:2027   */\n      dup5\n        /* \"#utility.yul\":2016:2019   */\n      dup5\n        /* \"#utility.yul\":2012:2028   */\n      add\n        /* \"#utility.yul\":2009:2034   */\n      gt\n        /* \"#utility.yul\":2006:2118   */\n      iszero\n      tag_296\n      jumpi\n        /* \"#utility.yul\":2037:2116   */\n      tag_297\n      tag_208\n      jump\t// in\n    tag_297:\n        /* \"#utility.yul\":2006:2118   */\n    tag_296:\n        /* \"#utility.yul\":2127:2181   */\n      tag_298\n        /* \"#utility.yul\":2174:2180   */\n      dup5\n        /* \"#utility.yul\":2169:2172   */\n      dup3\n        /* \"#utility.yul\":2164:2167   */\n      dup6\n        /* \"#utility.yul\":2127:2181   */\n      tag_214\n      jump\t// in\n    tag_298:\n        /* \"#utility.yul\":1846:2187   */\n      pop\n        /* \"#utility.yul\":1762:2187   */\n      swap4\n      swap3\n      pop\n      pop\n      pop\n      jump\t// out\n        /* \"#utility.yul\":2207:2547   */\n    tag_216:\n        /* \"#utility.yul\":2263:2268   */\n      0x00\n        /* \"#utility.yul\":2312:2315   */\n      dup3\n        /* \"#utility.yul\":2305:2309   */\n      0x1f\n        /* \"#utility.yul\":2297:2303   */\n      dup4\n        /* \"#utility.yul\":2293:2310   */\n      add\n        /* \"#utility.yul\":2289:2316   */\n      slt\n        /* \"#utility.yul\":2279:2401   */\n      tag_300\n      jumpi\n        /* \"#utility.yul\":2320:2399   */\n      tag_301\n      tag_207\n      jump\t// in\n    tag_301:\n        /* \"#utility.yul\":2279:2401   */\n    tag_300:\n        /* \"#utility.yul\":2437:2443   */\n      dup2\n        /* \"#utility.yul\":2424:2444   */\n      calldataload\n        /* \"#utility.yul\":2462:2541   */\n      tag_302\n        /* \"#utility.yul\":2537:2540   */\n      dup5\n        /* \"#utility.yul\":2529:2535   */\n      dup3\n        /* \"#utility.yul\":2522:2526   */\n      0x20\n        /* \"#utility.yul\":2514:2520   */\n      dup7\n        /* \"#utility.yul\":2510:2527   */\n      add\n        /* \"#utility.yul\":2462:2541   */\n      tag_215\n      jump\t// in\n    tag_302:\n        /* \"#utility.yul\":2453:2541   */\n      swap2\n      pop\n        /* \"#utility.yul\":2269:2547   */\n      pop\n        /* \"#utility.yul\":2207:2547   */\n      swap3\n      swap2\n      pop\n      pop\n      jump\t// out\n        /* \"#utility.yul\":2553:2679   */\n    tag_217:\n        /* \"#utility.yul\":2590:2597   */\n      0x00\n        /* \"#utility.yul\":2630:2672   */\n      0xffffffffffffffffffffffffffffffffffffffff\n        /* \"#utility.yul\":2623:2628   */\n      dup3\n        /* \"#utility.yul\":2619:2673   */\n      and\n        /* \"#utility.yul\":2608:2673   */\n      swap1\n      pop\n        /* \"#utility.yul\":2553:2679   */\n      swap2\n      swap1\n      pop\n      jump\t// out\n        /* \"#utility.yul\":2685:2781   */\n    tag_218:\n        /* \"#utility.yul\":2722:2729   */\n      0x00\n        /* \"#utility.yul\":2751:2775   */\n      tag_305\n        /* \"#utility.yul\":2769:2774   */\n      dup3\n        /* \"#utility.yul\":2751:2775   */\n      tag_217\n      jump\t// in\n    tag_305:\n        /* \"#utility.yul\":2740:2775   */\n      swap1\n      pop\n        /* \"#utility.yul\":2685:2781   */\n      swap2\n      swap1\n      pop\n      jump\t// out\n        /* \"#utility.yul\":2787:2909   */\n    tag_219:\n        /* \"#utility.yul\":2860:2884   */\n      tag_307\n        /* \"#utility.yul\":2878:2883   */\n      dup2\n        /* \"#utility.yul\":2860:2884   */\n      tag_218\n      jump\t// in\n    tag_307:\n        /* \"#utility.yul\":2853:2858   */\n      dup2\n        /* \"#utility.yul\":2850:2885   */\n      eq\n        /* \"#utility.yul\":2840:2903   */\n      tag_308\n      jumpi\n        /* \"#utility.yul\":2899:2900   */\n      0x00\n        /* \"#utility.yul\":2896:2897   */\n      dup1\n        /* \"#utility.yul\":2889:2901   */\n      revert\n        /* \"#utility.yul\":2840:2903   */\n    tag_308:\n        /* \"#utility.yul\":2787:2909   */\n      pop\n      jump\t// out\n        /* \"#utility.yul\":2915:3054   */\n    tag_220:\n        /* \"#utility.yul\":2961:2966   */\n      0x00\n        /* \"#utility.yul\":2999:3005   */\n      dup2\n        /* \"#utility.yul\":2986:3006   */\n      calldataload\n        /* \"#utility.yul\":2977:3006   */\n      swap1\n      pop\n        /* \"#utility.yul\":3015:3048   */\n      tag_310\n        /* \"#utility.yul\":3042:3047   */\n      dup2\n        /* \"#utility.yul\":3015:3048   */\n      tag_219\n      jump\t// in\n    tag_310:\n        /* \"#utility.yul\":2915:3054   */\n      swap3\n      swap2\n      pop\n      pop\n      jump\t// out\n        /* \"#utility.yul\":3060:4039   */\n    tag_18:\n        /* \"#utility.yul\":3157:3163   */\n      0x00\n        /* \"#utility.yul\":3165:3171   */\n      dup1\n        /* \"#utility.yul\":3173:3179   */\n      0x00\n        /* \"#utility.yul\":3222:3224   */\n      0x60\n        /* \"#utility.yul\":3210:3219   */\n      dup5\n        /* \"#utility.yul\":3201:3208   */\n      dup7\n        /* \"#utility.yul\":3197:3220   */\n      sub\n        /* \"#utility.yul\":3193:3225   */\n      slt\n        /* \"#utility.yul\":3190:3309   */\n      iszero\n      tag_312\n      jumpi\n        /* \"#utility.yul\":3228:3307   */\n      tag_313\n      tag_205\n      jump\t// in\n    tag_313:\n        /* \"#utility.yul\":3190:3309   */\n    tag_312:\n        /* \"#utility.yul\":3376:3377   */\n      0x00\n        /* \"#utility.yul\":3365:3374   */\n      dup5\n        /* \"#utility.yul\":3361:3378   */\n      add\n        /* \"#utility.yul\":3348:3379   */\n      calldataload\n        /* \"#utility.yul\":3406:3424   */\n      0xffffffffffffffff\n        /* \"#utility.yul\":3398:3404   */\n      dup2\n        /* \"#utility.yul\":3395:3425   */\n      gt\n        /* \"#utility.yul\":3392:3509   */\n      iszero\n      tag_314\n      jumpi\n        /* \"#utility.yul\":3428:3507   */\n      tag_315\n      tag_206\n      jump\t// in\n    tag_315:\n        /* \"#utility.yul\":3392:3509   */\n    tag_314:\n        /* \"#utility.yul\":3533:3596   */\n      tag_316\n        /* \"#utility.yul\":3588:3595   */\n      dup7\n        /* \"#utility.yul\":3579:3585   */\n      dup3\n        /* \"#utility.yul\":3568:3577   */\n      dup8\n        /* \"#utility.yul\":3564:3586   */\n      add\n        /* \"#utility.yul\":3533:3596   */\n      tag_216\n      jump\t// in\n    tag_316:\n        /* \"#utility.yul\":3523:3596   */\n      swap4\n      pop\n        /* \"#utility.yul\":3319:3606   */\n      pop\n        /* \"#utility.yul\":3673:3675   */\n      0x20\n        /* \"#utility.yul\":3662:3671   */\n      dup5\n        /* \"#utility.yul\":3658:3676   */\n      add\n        /* \"#utility.yul\":3645:3677   */\n      calldataload\n        /* \"#utility.yul\":3704:3722   */\n      0xffffffffffffffff\n        /* \"#utility.yul\":3696:3702   */\n      dup2\n        /* \"#utility.yul\":3693:3723   */\n      gt\n        /* \"#utility.yul\":3690:3807   */\n      iszero\n      tag_317\n      jumpi\n        /* \"#utility.yul\":3726:3805   */\n      tag_318\n      tag_206\n      jump\t// in\n    tag_318:\n        /* \"#utility.yul\":3690:3807   */\n    tag_317:\n        /* \"#utility.yul\":3831:3894   */\n      tag_319\n        /* \"#utility.yul\":3886:3893   */\n      dup7\n        /* \"#utility.yul\":3877:3883   */\n      dup3\n        /* \"#utility.yul\":3866:3875   */\n      dup8\n        /* \"#utility.yul\":3862:3884   */\n      add\n        /* \"#utility.yul\":3831:3894   */\n      tag_216\n      jump\t// in\n    tag_319:\n        /* \"#utility.yul\":3821:3894   */\n      swap3\n      pop\n        /* \"#utility.yul\":3616:3904   */\n      pop\n        /* \"#utility.yul\":3943:3945   */\n      0x40\n        /* \"#utility.yul\":3969:4022   */\n      tag_320\n        /* \"#utility.yul\":4014:4021   */\n      dup7\n        /* \"#utility.yul\":4005:4011   */\n      dup3\n        /* \"#utility.yul\":3994:4003   */\n      dup8\n        /* \"#utility.yul\":3990:4012   */\n      add\n        /* \"#utility.yul\":3969:4022   */\n      tag_220\n      jump\t// in\n    tag_320:\n        /* \"#utility.yul\":3959:4022   */\n      swap2\n      pop\n        /* \"#utility.yul\":3914:4032   */\n      pop\n        /* \"#utility.yul\":3060:4039   */\n      swap3\n      pop\n      swap3\n      pop\n      swap3\n      jump\t// out\n        /* \"#utility.yul\":4045:4122   */\n    tag_221:\n        /* \"#utility.yul\":4082:4089   */\n      0x00\n        /* \"#utility.yul\":4111:4116   */\n      dup2\n        /* \"#utility.yul\":4100:4116   */\n      swap1\n      pop\n        /* \"#utility.yul\":4045:4122   */\n      swap2\n      swap1\n      pop\n      jump\t// out\n        /* \"#utility.yul\":4128:4246   */\n    tag_222:\n        /* \"#utility.yul\":4215:4239   */\n      tag_323\n        /* \"#utility.yul\":4233:4238   */\n      dup2\n        /* \"#utility.yul\":4215:4239   */\n      tag_221\n      jump\t// in\n    tag_323:\n        /* \"#utility.yul\":4210:4213   */\n      dup3\n        /* \"#utility.yul\":4203:4240   */\n      mstore\n        /* \"#utility.yul\":4128:4246   */\n      pop\n      pop\n      jump\t// out\n        /* \"#utility.yul\":4252:4474   */\n    tag_23:\n        /* \"#utility.yul\":4345:4349   */\n      0x00\n        /* \"#utility.yul\":4383:4385   */\n      0x20\n        /* \"#utility.yul\":4372:4381   */\n      dup3\n        /* \"#utility.yul\":4368:4386   */\n      add\n        /* \"#utility.yul\":4360:4386   */\n      swap1\n      pop\n        /* \"#utility.yul\":4396:4467   */\n      tag_325\n        /* \"#utility.yul\":4464:4465   */\n      0x00\n        /* \"#utility.yul\":4453:4462   */\n      dup4\n        /* \"#utility.yul\":4449:4466   */\n      add\n        /* \"#utility.yul\":4440:4446   */\n      dup5\n        /* \"#utility.yul\":4396:4467   */\n      tag_222\n      jump\t// in\n    tag_325:\n        /* \"#utility.yul\":4252:4474   */\n      swap3\n      swap2\n      pop\n      pop\n      jump\t// out\n        /* \"#utility.yul\":4480:4579   */\n    tag_223:\n        /* \"#utility.yul\":4532:4538   */\n      0x00\n        /* \"#utility.yul\":4566:4571   */\n      dup2\n        /* \"#utility.yul\":4560:4572   */\n      mload\n        /* \"#utility.yul\":4550:4572   */\n      swap1\n      pop\n        /* \"#utility.yul\":4480:4579   */\n      swap2\n      swap1\n      pop\n      jump\t// out\n        /* \"#utility.yul\":4585:4754   */\n    tag_224:\n        /* \"#utility.yul\":4669:4680   */\n      0x00\n        /* \"#utility.yul\":4703:4709   */\n      dup3\n        /* \"#utility.yul\":4698:4701   */\n      dup3\n        /* \"#utility.yul\":4691:4710   */\n      mstore\n        /* \"#utility.yul\":4743:4747   */\n      0x20\n        /* \"#utility.yul\":4738:4741   */\n      dup3\n        /* \"#utility.yul\":4734:4748   */\n      add\n        /* \"#utility.yul\":4719:4748   */\n      swap1\n      pop\n        /* \"#utility.yul\":4585:4754   */\n      swap3\n      swap2\n      pop\n      pop\n      jump\t// out\n        /* \"#utility.yul\":4760:5006   */\n    tag_225:\n        /* \"#utility.yul\":4841:4842   */\n      0x00\n        /* \"#utility.yul\":4851:4964   */\n    tag_329:\n        /* \"#utility.yul\":4865:4871   */\n      dup4\n        /* \"#utility.yul\":4862:4863   */\n      dup2\n        /* \"#utility.yul\":4859:4872   */\n      lt\n        /* \"#utility.yul\":4851:4964   */\n      iszero\n      tag_331\n      jumpi\n        /* \"#utility.yul\":4950:4951   */\n      dup1\n        /* \"#utility.yul\":4945:4948   */\n      dup3\n        /* \"#utility.yul\":4941:4952   */\n      add\n        /* \"#utility.yul\":4935:4953   */\n      mload\n        /* \"#utility.yul\":4931:4932   */\n      dup2\n        /* \"#utility.yul\":4926:4929   */\n      dup5\n        /* \"#utility.yul\":4922:4933   */\n      add\n        /* \"#utility.yul\":4915:4954   */\n      mstore\n        /* \"#utility.yul\":4887:4889   */\n      0x20\n        /* \"#utility.yul\":4884:4885   */\n      dup2\n        /* \"#utility.yul\":4880:4890   */\n      add\n        /* \"#utility.yul\":4875:4890   */\n      swap1\n      pop\n        /* \"#utility.yul\":4851:4964   */\n      jump(tag_329)\n    tag_331:\n        /* \"#utility.yul\":4998:4999   */\n      0x00\n        /* \"#utility.yul\":4989:4995   */\n      dup5\n        /* \"#utility.yul\":4984:4987   */\n      dup5\n        /* \"#utility.yul\":4980:4996   */\n      add\n        /* \"#utility.yul\":4973:5000   */\n      mstore\n        /* \"#utility.yul\":4822:5006   */\n      pop\n        /* \"#utility.yul\":4760:5006   */\n      pop\n      pop\n      pop\n      jump\t// out\n        /* \"#utility.yul\":5012:5389   */\n    tag_226:\n        /* \"#utility.yul\":5100:5103   */\n      0x00\n        /* \"#utility.yul\":5128:5167   */\n      tag_333\n        /* \"#utility.yul\":5161:5166   */\n      dup3\n        /* \"#utility.yul\":5128:5167   */\n      tag_223\n      jump\t// in\n    tag_333:\n        /* \"#utility.yul\":5183:5254   */\n      tag_334\n        /* \"#utility.yul\":5247:5253   */\n      dup2\n        /* \"#utility.yul\":5242:5245   */\n      dup6\n        /* \"#utility.yul\":5183:5254   */\n      tag_224\n      jump\t// in\n    tag_334:\n        /* \"#utility.yul\":5176:5254   */\n      swap4\n      pop\n        /* \"#utility.yul\":5263:5328   */\n      tag_335\n        /* \"#utility.yul\":5321:5327   */\n      dup2\n        /* \"#utility.yul\":5316:5319   */\n      dup6\n        /* \"#utility.yul\":5309:5313   */\n      0x20\n        /* \"#utility.yul\":5302:5307   */\n      dup7\n        /* \"#utility.yul\":5298:5314   */\n      add\n        /* \"#utility.yul\":5263:5328   */\n      tag_225\n      jump\t// in\n    tag_335:\n        /* \"#utility.yul\":5353:5382   */\n      tag_336\n        /* \"#utility.yul\":5375:5381   */\n      dup2\n        /* \"#utility.yul\":5353:5382   */\n      tag_209\n      jump\t// in\n    tag_336:\n        /* \"#utility.yul\":5348:5351   */\n      dup5\n        /* \"#utility.yul\":5344:5383   */\n      add\n        /* \"#utility.yul\":5337:5383   */\n      swap2\n      pop\n        /* \"#utility.yul\":5104:5389   */\n      pop\n        /* \"#utility.yul\":5012:5389   */\n      swap3\n      swap2\n      pop\n      pop\n      jump\t// out\n        /* \"#utility.yul\":5395:5708   */\n    tag_27:\n        /* \"#utility.yul\":5508:5512   */\n      0x00\n        /* \"#utility.yul\":5546:5548   */\n      0x20\n        /* \"#utility.yul\":5535:5544   */\n      dup3\n        /* \"#utility.yul\":5531:5549   */\n      add\n        /* \"#utility.yul\":5523:5549   */\n      swap1\n      pop\n        /* \"#utility.yul\":5595:5604   */\n      dup2\n        /* \"#utility.yul\":5589:5593   */\n      dup2\n        /* \"#utility.yul\":5585:5605   */\n      sub\n        /* \"#utility.yul\":5581:5582   */\n      0x00\n        /* \"#utility.yul\":5570:5579   */\n      dup4\n        /* \"#utility.yul\":5566:5583   */\n      add\n        /* \"#utility.yul\":5559:5606   */\n      mstore\n        /* \"#utility.yul\":5623:5701   */\n      tag_338\n        /* \"#utility.yul\":5696:5700   */\n      dup2\n        /* \"#utility.yul\":5687:5693   */\n      dup5\n        /* \"#utility.yul\":5623:5701   */\n      tag_226\n      jump\t// in\n    tag_338:\n        /* \"#utility.yul\":5615:5701   */\n      swap1\n      pop\n        /* \"#utility.yul\":5395:5708   */\n      swap3\n      swap2\n      pop\n      pop\n      jump\t// out\n        /* \"#utility.yul\":5714:6368   */\n    tag_33:\n        /* \"#utility.yul\":5792:5798   */\n      0x00\n        /* \"#utility.yul\":5800:5806   */\n      dup1\n        /* \"#utility.yul\":5849:5851   */\n      0x40\n        /* \"#utility.yul\":5837:5846   */\n      dup4\n        /* \"#utility.yul\":5828:5835   */\n      dup6\n        /* \"#utility.yul\":5824:5847   */\n      sub\n        /* \"#utility.yul\":5820:5852   */\n      slt\n        /* \"#utility.yul\":5817:5936   */\n      iszero\n      tag_340\n      jumpi\n        /* \"#utility.yul\":5855:5934   */\n      tag_341\n      tag_205\n      jump\t// in\n    tag_341:\n        /* \"#utility.yul\":5817:5936   */\n    tag_340:\n        /* \"#utility.yul\":6003:6004   */\n      0x00\n        /* \"#utility.yul\":5992:6001   */\n      dup4\n        /* \"#utility.yul\":5988:6005   */\n      add\n        /* \"#utility.yul\":5975:6006   */\n      calldataload\n        /* \"#utility.yul\":6033:6051   */\n      0xffffffffffffffff\n        /* \"#utility.yul\":6025:6031   */\n      dup2\n        /* \"#utility.yul\":6022:6052   */\n      gt\n        /* \"#utility.yul\":6019:6136   */\n      iszero\n      tag_342\n      jumpi\n        /* \"#utility.yul\":6055:6134   */\n      tag_343\n      tag_206\n      jump\t// in\n    tag_343:\n        /* \"#utility.yul\":6019:6136   */\n    tag_342:\n        /* \"#utility.yul\":6160:6223   */\n      tag_344\n        /* \"#utility.yul\":6215:6222   */\n      dup6\n        /* \"#utility.yul\":6206:6212   */\n      dup3\n        /* \"#utility.yul\":6195:6204   */\n      dup7\n        /* \"#utility.yul\":6191:6213   */\n      add\n        /* \"#utility.yul\":6160:6223   */\n      tag_216\n      jump\t// in\n    tag_344:\n        /* \"#utility.yul\":6150:6223   */\n      swap3\n      pop\n        /* \"#utility.yul\":5946:6233   */\n      pop\n        /* \"#utility.yul\":6272:6274   */\n      0x20\n        /* \"#utility.yul\":6298:6351   */\n      tag_345\n        /* \"#utility.yul\":6343:6350   */\n      dup6\n        /* \"#utility.yul\":6334:6340   */\n      dup3\n        /* \"#utility.yul\":6323:6332   */\n      dup7\n        /* \"#utility.yul\":6319:6341   */\n      add\n        /* \"#utility.yul\":6298:6351   */\n      tag_220\n      jump\t// in\n    tag_345:\n        /* \"#utility.yul\":6288:6351   */\n      swap2\n      pop\n        /* \"#utility.yul\":6243:6361   */\n      pop\n        /* \"#utility.yul\":5714:6368   */\n      swap3\n      pop\n      swap3\n      swap1\n      pop\n      jump\t// out\n        /* \"#utility.yul\":6374:6460   */\n    tag_227:\n        /* \"#utility.yul\":6409:6416   */\n      0x00\n        /* \"#utility.yul\":6449:6453   */\n      0xff\n        /* \"#utility.yul\":6442:6447   */\n      dup3\n        /* \"#utility.yul\":6438:6454   */\n      and\n        /* \"#utility.yul\":6427:6454   */\n      swap1\n      pop\n        /* \"#utility.yul\":6374:6460   */\n      swap2\n      swap1\n      pop\n      jump\t// out\n        /* \"#utility.yul\":6466:6578   */\n    tag_228:\n        /* \"#utility.yul\":6549:6571   */\n      tag_348\n        /* \"#utility.yul\":6565:6570   */\n      dup2\n        /* \"#utility.yul\":6549:6571   */\n      tag_227\n      jump\t// in\n    tag_348:\n        /* \"#utility.yul\":6544:6547   */\n      dup3\n        /* \"#utility.yul\":6537:6572   */\n      mstore\n        /* \"#utility.yul\":6466:6578   */\n      pop\n      pop\n      jump\t// out\n        /* \"#utility.yul\":6584:7101   */\n    tag_42:\n        /* \"#utility.yul\":6745:6749   */\n      0x00\n        /* \"#utility.yul\":6783:6785   */\n      0x60\n        /* \"#utility.yul\":6772:6781   */\n      dup3\n        /* \"#utility.yul\":6768:6786   */\n      add\n        /* \"#utility.yul\":6760:6786   */\n      swap1\n      pop\n        /* \"#utility.yul\":6796:6863   */\n      tag_350\n        /* \"#utility.yul\":6860:6861   */\n      0x00\n        /* \"#utility.yul\":6849:6858   */\n      dup4\n        /* \"#utility.yul\":6845:6862   */\n      add\n        /* \"#utility.yul\":6836:6842   */\n      dup7\n        /* \"#utility.yul\":6796:6863   */\n      tag_228\n      jump\t// in\n    tag_350:\n        /* \"#utility.yul\":6910:6919   */\n      dup2\n        /* \"#utility.yul\":6904:6908   */\n      dup2\n        /* \"#utility.yul\":6900:6920   */\n      sub\n        /* \"#utility.yul\":6895:6897   */\n      0x20\n        /* \"#utility.yul\":6884:6893   */\n      dup4\n        /* \"#utility.yul\":6880:6898   */\n      add\n        /* \"#utility.yul\":6873:6921   */\n      mstore\n        /* \"#utility.yul\":6938:7016   */\n      tag_351\n        /* \"#utility.yul\":7011:7015   */\n      dup2\n        /* \"#utility.yul\":7002:7008   */\n      dup6\n        /* \"#utility.yul\":6938:7016   */\n      tag_226\n      jump\t// in\n    tag_351:\n        /* \"#utility.yul\":6930:7016   */\n      swap1\n      pop\n        /* \"#utility.yul\":7026:7094   */\n      tag_352\n        /* \"#utility.yul\":7090:7092   */\n      0x40\n        /* \"#utility.yul\":7079:7088   */\n      dup4\n        /* \"#utility.yul\":7075:7093   */\n      add\n        /* \"#utility.yul\":7066:7072   */\n      dup5\n        /* \"#utility.yul\":7026:7094   */\n      tag_228\n      jump\t// in\n    tag_352:\n        /* \"#utility.yul\":6584:7101   */\n      swap5\n      swap4\n      pop\n      pop\n      pop\n      pop\n      jump\t// out\n        /* \"#utility.yul\":7107:7225   */\n    tag_229:\n        /* \"#utility.yul\":7178:7200   */\n      tag_354\n        /* \"#utility.yul\":7194:7199   */\n      dup2\n        /* \"#utility.yul\":7178:7200   */\n      tag_227\n      jump\t// in\n    tag_354:\n        /* \"#utility.yul\":7171:7176   */\n      dup2\n        /* \"#utility.yul\":7168:7201   */\n      eq\n        /* \"#utility.yul\":7158:7219   */\n      tag_355\n      jumpi\n        /* \"#utility.yul\":7215:7216   */\n      0x00\n        /* \"#utility.yul\":7212:7213   */\n      dup1\n        /* \"#utility.yul\":7205:7217   */\n      revert\n        /* \"#utility.yul\":7158:7219   */\n    tag_355:\n        /* \"#utility.yul\":7107:7225   */\n      pop\n      jump\t// out\n        /* \"#utility.yul\":7231:7366   */\n    tag_230:\n        /* \"#utility.yul\":7275:7280   */\n      0x00\n        /* \"#utility.yul\":7313:7319   */\n      dup2\n        /* \"#utility.yul\":7300:7320   */\n      calldataload\n        /* \"#utility.yul\":7291:7320   */\n      swap1\n      pop\n        /* \"#utility.yul\":7329:7360   */\n      tag_357\n        /* \"#utility.yul\":7354:7359   */\n      dup2\n        /* \"#utility.yul\":7329:7360   */\n      tag_229\n      jump\t// in\n    tag_357:\n        /* \"#utility.yul\":7231:7366   */\n      swap3\n      swap2\n      pop\n      pop\n      jump\t// out\n        /* \"#utility.yul\":7372:7842   */\n    tag_45:\n        /* \"#utility.yul\":7438:7444   */\n      0x00\n        /* \"#utility.yul\":7446:7452   */\n      dup1\n        /* \"#utility.yul\":7495:7497   */\n      0x40\n        /* \"#utility.yul\":7483:7492   */\n      dup4\n        /* \"#utility.yul\":7474:7481   */\n      dup6\n        /* \"#utility.yul\":7470:7493   */\n      sub\n        /* \"#utility.yul\":7466:7498   */\n      slt\n        /* \"#utility.yul\":7463:7582   */\n      iszero\n      tag_359\n      jumpi\n        /* \"#utility.yul\":7501:7580   */\n      tag_360\n      tag_205\n      jump\t// in\n    tag_360:\n        /* \"#utility.yul\":7463:7582   */\n    tag_359:\n        /* \"#utility.yul\":7621:7622   */\n      0x00\n        /* \"#utility.yul\":7646:7697   */\n      tag_361\n        /* \"#utility.yul\":7689:7696   */\n      dup6\n        /* \"#utility.yul\":7680:7686   */\n      dup3\n        /* \"#utility.yul\":7669:7678   */\n      dup7\n        /* \"#utility.yul\":7665:7687   */\n      add\n        /* \"#utility.yul\":7646:7697   */\n      tag_230\n      jump\t// in\n    tag_361:\n        /* \"#utility.yul\":7636:7697   */\n      swap3\n      pop\n        /* \"#utility.yul\":7592:7707   */\n      pop\n        /* \"#utility.yul\":7746:7748   */\n      0x20\n        /* \"#utility.yul\":7772:7825   */\n      tag_362\n        /* \"#utility.yul\":7817:7824   */\n      dup6\n        /* \"#utility.yul\":7808:7814   */\n      dup3\n        /* \"#utility.yul\":7797:7806   */\n      dup7\n        /* \"#utility.yul\":7793:7815   */\n      add\n        /* \"#utility.yul\":7772:7825   */\n      tag_220\n      jump\t// in\n    tag_362:\n        /* \"#utility.yul\":7762:7825   */\n      swap2\n      pop\n        /* \"#utility.yul\":7717:7835   */\n      pop\n        /* \"#utility.yul\":7372:7842   */\n      swap3\n      pop\n      swap3\n      swap1\n      pop\n      jump\t// out\n        /* \"#utility.yul\":7848:8173   */\n    tag_49:\n        /* \"#utility.yul\":7905:7911   */\n      0x00\n        /* \"#utility.yul\":7954:7956   */\n      0x20\n        /* \"#utility.yul\":7942:7951   */\n      dup3\n        /* \"#utility.yul\":7933:7940   */\n      dup5\n        /* \"#utility.yul\":7929:7952   */\n      sub\n        /* \"#utility.yul\":7925:7957   */\n      slt\n        /* \"#utility.yul\":7922:8041   */\n      iszero\n      tag_364\n      jumpi\n        /* \"#utility.yul\":7960:8039   */\n      tag_365\n      tag_205\n      jump\t// in\n    tag_365:\n        /* \"#utility.yul\":7922:8041   */\n    tag_364:\n        /* \"#utility.yul\":8080:8081   */\n      0x00\n        /* \"#utility.yul\":8105:8156   */\n      tag_366\n        /* \"#utility.yul\":8148:8155   */\n      dup5\n        /* \"#utility.yul\":8139:8145   */\n      dup3\n        /* \"#utility.yul\":8128:8137   */\n      dup6\n        /* \"#utility.yul\":8124:8146   */\n      add\n        /* \"#utility.yul\":8105:8156   */\n      tag_230\n      jump\t// in\n    tag_366:\n        /* \"#utility.yul\":8095:8156   */\n      swap2\n      pop\n        /* \"#utility.yul\":8051:8166   */\n      pop\n        /* \"#utility.yul\":7848:8173   */\n      swap3\n      swap2\n      pop\n      pop\n      jump\t// out\n        /* \"#utility.yul\":8179:8297   */\n    tag_231:\n        /* \"#utility.yul\":8266:8290   */\n      tag_368\n        /* \"#utility.yul\":8284:8289   */\n      dup2\n        /* \"#utility.yul\":8266:8290   */\n      tag_218\n      jump\t// in\n    tag_368:\n        /* \"#utility.yul\":8261:8264   */\n      dup3\n        /* \"#utility.yul\":8254:8291   */\n      mstore\n        /* \"#utility.yul\":8179:8297   */\n      pop\n      pop\n      jump\t// out\n        /* \"#utility.yul\":8303:9030   */\n    tag_52:\n        /* \"#utility.yul\":8516:8520   */\n      0x00\n        /* \"#utility.yul\":8554:8557   */\n      0x80\n        /* \"#utility.yul\":8543:8552   */\n      dup3\n        /* \"#utility.yul\":8539:8558   */\n      add\n        /* \"#utility.yul\":8531:8558   */\n      swap1\n      pop\n        /* \"#utility.yul\":8568:8635   */\n      tag_370\n        /* \"#utility.yul\":8632:8633   */\n      0x00\n        /* \"#utility.yul\":8621:8630   */\n      dup4\n        /* \"#utility.yul\":8617:8634   */\n      add\n        /* \"#utility.yul\":8608:8614   */\n      dup8\n        /* \"#utility.yul\":8568:8635   */\n      tag_228\n      jump\t// in\n    tag_370:\n        /* \"#utility.yul\":8682:8691   */\n      dup2\n        /* \"#utility.yul\":8676:8680   */\n      dup2\n        /* \"#utility.yul\":8672:8692   */\n      sub\n        /* \"#utility.yul\":8667:8669   */\n      0x20\n        /* \"#utility.yul\":8656:8665   */\n      dup4\n        /* \"#utility.yul\":8652:8670   */\n      add\n        /* \"#utility.yul\":8645:8693   */\n      mstore\n        /* \"#utility.yul\":8710:8788   */\n      tag_371\n        /* \"#utility.yul\":8783:8787   */\n      dup2\n        /* \"#utility.yul\":8774:8780   */\n      dup7\n        /* \"#utility.yul\":8710:8788   */\n      tag_226\n      jump\t// in\n    tag_371:\n        /* \"#utility.yul\":8702:8788   */\n      swap1\n      pop\n        /* \"#utility.yul\":8835:8844   */\n      dup2\n        /* \"#utility.yul\":8829:8833   */\n      dup2\n        /* \"#utility.yul\":8825:8845   */\n      sub\n        /* \"#utility.yul\":8820:8822   */\n      0x40\n        /* \"#utility.yul\":8809:8818   */\n      dup4\n        /* \"#utility.yul\":8805:8823   */\n      add\n        /* \"#utility.yul\":8798:8846   */\n      mstore\n        /* \"#utility.yul\":8863:8941   */\n      tag_372\n        /* \"#utility.yul\":8936:8940   */\n      dup2\n        /* \"#utility.yul\":8927:8933   */\n      dup6\n        /* \"#utility.yul\":8863:8941   */\n      tag_226\n      jump\t// in\n    tag_372:\n        /* \"#utility.yul\":8855:8941   */\n      swap1\n      pop\n        /* \"#utility.yul\":8951:9023   */\n      tag_373\n        /* \"#utility.yul\":9019:9021   */\n      0x60\n        /* \"#utility.yul\":9008:9017   */\n      dup4\n        /* \"#utility.yul\":9004:9022   */\n      add\n        /* \"#utility.yul\":8995:9001   */\n      dup5\n        /* \"#utility.yul\":8951:9023   */\n      tag_231\n      jump\t// in\n    tag_373:\n        /* \"#utility.yul\":8303:9030   */\n      swap6\n      swap5\n      pop\n      pop\n      pop\n      pop\n      pop\n      jump\t// out\n        /* \"#utility.yul\":9036:9365   */\n    tag_55:\n        /* \"#utility.yul\":9095:9101   */\n      0x00\n        /* \"#utility.yul\":9144:9146   */\n      0x20\n        /* \"#utility.yul\":9132:9141   */\n      dup3\n        /* \"#utility.yul\":9123:9130   */\n      dup5\n        /* \"#utility.yul\":9119:9142   */\n      sub\n        /* \"#utility.yul\":9115:9147   */\n      slt\n        /* \"#utility.yul\":9112:9231   */\n      iszero\n      tag_375\n      jumpi\n        /* \"#utility.yul\":9150:9229   */\n      tag_376\n      tag_205\n      jump\t// in\n    tag_376:\n        /* \"#utility.yul\":9112:9231   */\n    tag_375:\n        /* \"#utility.yul\":9270:9271   */\n      0x00\n        /* \"#utility.yul\":9295:9348   */\n      tag_377\n        /* \"#utility.yul\":9340:9347   */\n      dup5\n        /* \"#utility.yul\":9331:9337   */\n      dup3\n        /* \"#utility.yul\":9320:9329   */\n      dup6\n        /* \"#utility.yul\":9316:9338   */\n      add\n        /* \"#utility.yul\":9295:9348   */\n      tag_220\n      jump\t// in\n    tag_377:\n        /* \"#utility.yul\":9285:9348   */\n      swap2\n      pop\n        /* \"#utility.yul\":9241:9358   */\n      pop\n        /* \"#utility.yul\":9036:9365   */\n      swap3\n      swap2\n      pop\n      pop\n      jump\t// out\n        /* \"#utility.yul\":9371:10110   */\n    tag_58:\n        /* \"#utility.yul\":9588:9592   */\n      0x00\n        /* \"#utility.yul\":9626:9629   */\n      0xa0\n        /* \"#utility.yul\":9615:9624   */\n      dup3\n        /* \"#utility.yul\":9611:9630   */\n      add\n        /* \"#utility.yul\":9603:9630   */\n      swap1\n      pop\n        /* \"#utility.yul\":9676:9685   */\n      dup2\n        /* \"#utility.yul\":9670:9674   */\n      dup2\n        /* \"#utility.yul\":9666:9686   */\n      sub\n        /* \"#utility.yul\":9662:9663   */\n      0x00\n        /* \"#utility.yul\":9651:9660   */\n      dup4\n        /* \"#utility.yul\":9647:9664   */\n      add\n        /* \"#utility.yul\":9640:9687   */\n      mstore\n        /* \"#utility.yul\":9704:9782   */\n      tag_379\n        /* \"#utility.yul\":9777:9781   */\n      dup2\n        /* \"#utility.yul\":9768:9774   */\n      dup9\n        /* \"#utility.yul\":9704:9782   */\n      tag_226\n      jump\t// in\n    tag_379:\n        /* \"#utility.yul\":9696:9782   */\n      swap1\n      pop\n        /* \"#utility.yul\":9792:9864   */\n      tag_380\n        /* \"#utility.yul\":9860:9862   */\n      0x20\n        /* \"#utility.yul\":9849:9858   */\n      dup4\n        /* \"#utility.yul\":9845:9863   */\n      add\n        /* \"#utility.yul\":9836:9842   */\n      dup8\n        /* \"#utility.yul\":9792:9864   */\n      tag_231\n      jump\t// in\n    tag_380:\n        /* \"#utility.yul\":9874:9946   */\n      tag_381\n        /* \"#utility.yul\":9942:9944   */\n      0x40\n        /* \"#utility.yul\":9931:9940   */\n      dup4\n        /* \"#utility.yul\":9927:9945   */\n      add\n        /* \"#utility.yul\":9918:9924   */\n      dup7\n        /* \"#utility.yul\":9874:9946   */\n      tag_231\n      jump\t// in\n    tag_381:\n        /* \"#utility.yul\":9956:10024   */\n      tag_382\n        /* \"#utility.yul\":10020:10022   */\n      0x60\n        /* \"#utility.yul\":10009:10018   */\n      dup4\n        /* \"#utility.yul\":10005:10023   */\n      add\n        /* \"#utility.yul\":9996:10002   */\n      dup6\n        /* \"#utility.yul\":9956:10024   */\n      tag_228\n      jump\t// in\n    tag_382:\n        /* \"#utility.yul\":10034:10103   */\n      tag_383\n        /* \"#utility.yul\":10098:10101   */\n      0x80\n        /* \"#utility.yul\":10087:10096   */\n      dup4\n        /* \"#utility.yul\":10083:10102   */\n      add\n        /* \"#utility.yul\":10074:10080   */\n      dup5\n        /* \"#utility.yul\":10034:10103   */\n      tag_228\n      jump\t// in\n    tag_383:\n        /* \"#utility.yul\":9371:10110   */\n      swap7\n      swap6\n      pop\n      pop\n      pop\n      pop\n      pop\n      pop\n      jump\t// out\n        /* \"#utility.yul\":10116:10590   */\n    tag_61:\n        /* \"#utility.yul\":10184:10190   */\n      0x00\n        /* \"#utility.yul\":10192:10198   */\n      dup1\n        /* \"#utility.yul\":10241:10243   */\n      0x40\n        /* \"#utility.yul\":10229:10238   */\n      dup4\n        /* \"#utility.yul\":10220:10227   */\n      dup6\n        /* \"#utility.yul\":10216:10239   */\n      sub\n        /* \"#utility.yul\":10212:10244   */\n      slt\n        /* \"#utility.yul\":10209:10328   */\n      iszero\n      tag_385\n      jumpi\n        /* \"#utility.yul\":10247:10326   */\n      tag_386\n      tag_205\n      jump\t// in\n    tag_386:\n        /* \"#utility.yul\":10209:10328   */\n    tag_385:\n        /* \"#utility.yul\":10367:10368   */\n      0x00\n        /* \"#utility.yul\":10392:10445   */\n      tag_387\n        /* \"#utility.yul\":10437:10444   */\n      dup6\n        /* \"#utility.yul\":10428:10434   */\n      dup3\n        /* \"#utility.yul\":10417:10426   */\n      dup7\n        /* \"#utility.yul\":10413:10435   */\n      add\n        /* \"#utility.yul\":10392:10445   */\n      tag_220\n      jump\t// in\n    tag_387:\n        /* \"#utility.yul\":10382:10445   */\n      swap3\n      pop\n        /* \"#utility.yul\":10338:10455   */\n      pop\n        /* \"#utility.yul\":10494:10496   */\n      0x20\n        /* \"#utility.yul\":10520:10573   */\n      tag_388\n        /* \"#utility.yul\":10565:10572   */\n      dup6\n        /* \"#utility.yul\":10556:10562   */\n      dup3\n        /* \"#utility.yul\":10545:10554   */\n      dup7\n        /* \"#utility.yul\":10541:10563   */\n      add\n        /* \"#utility.yul\":10520:10573   */\n      tag_220\n      jump\t// in\n    tag_388:\n        /* \"#utility.yul\":10510:10573   */\n      swap2\n      pop\n        /* \"#utility.yul\":10465:10583   */\n      pop\n        /* \"#utility.yul\":10116:10590   */\n      swap3\n      pop\n      swap3\n      swap1\n      pop\n      jump\t// out\n        /* \"#utility.yul\":10596:10821   */\n    tag_232:\n        /* \"#utility.yul\":10736:10770   */\n      0x4f6e6c792061646d696e20697320616c6c6f77656420746f206164642063616e\n        /* \"#utility.yul\":10732:10733   */\n      0x00\n        /* \"#utility.yul\":10724:10730   */\n      dup3\n        /* \"#utility.yul\":10720:10734   */\n      add\n        /* \"#utility.yul\":10713:10771   */\n      mstore\n        /* \"#utility.yul\":10805:10813   */\n      0x6469646174650000000000000000000000000000000000000000000000000000\n        /* \"#utility.yul\":10800:10802   */\n      0x20\n        /* \"#utility.yul\":10792:10798   */\n      dup3\n        /* \"#utility.yul\":10788:10803   */\n      add\n        /* \"#utility.yul\":10781:10814   */\n      mstore\n        /* \"#utility.yul\":10596:10821   */\n      pop\n      jump\t// out\n        /* \"#utility.yul\":10827:11193   */\n    tag_233:\n        /* \"#utility.yul\":10969:10972   */\n      0x00\n        /* \"#utility.yul\":10990:11057   */\n      tag_391\n        /* \"#utility.yul\":11054:11056   */\n      0x26\n        /* \"#utility.yul\":11049:11052   */\n      dup4\n        /* \"#utility.yul\":10990:11057   */\n      tag_224\n      jump\t// in\n    tag_391:\n        /* \"#utility.yul\":10983:11057   */\n      swap2\n      pop\n        /* \"#utility.yul\":11066:11159   */\n      tag_392\n        /* \"#utility.yul\":11155:11158   */\n      dup3\n        /* \"#utility.yul\":11066:11159   */\n      tag_232\n      jump\t// in\n    tag_392:\n        /* \"#utility.yul\":11184:11186   */\n      0x40\n        /* \"#utility.yul\":11179:11182   */\n      dup3\n        /* \"#utility.yul\":11175:11187   */\n      add\n        /* \"#utility.yul\":11168:11187   */\n      swap1\n      pop\n        /* \"#utility.yul\":10827:11193   */\n      swap2\n      swap1\n      pop\n      jump\t// out\n        /* \"#utility.yul\":11199:11618   */\n    tag_66:\n        /* \"#utility.yul\":11365:11369   */\n      0x00\n        /* \"#utility.yul\":11403:11405   */\n      0x20\n        /* \"#utility.yul\":11392:11401   */\n      dup3\n        /* \"#utility.yul\":11388:11406   */\n      add\n        /* \"#utility.yul\":11380:11406   */\n      swap1\n      pop\n        /* \"#utility.yul\":11452:11461   */\n      dup2\n        /* \"#utility.yul\":11446:11450   */\n      dup2\n        /* \"#utility.yul\":11442:11462   */\n      sub\n        /* \"#utility.yul\":11438:11439   */\n      0x00\n        /* \"#utility.yul\":11427:11436   */\n      dup4\n        /* \"#utility.yul\":11423:11440   */\n      add\n        /* \"#utility.yul\":11416:11463   */\n      mstore\n        /* \"#utility.yul\":11480:11611   */\n      tag_394\n        /* \"#utility.yul\":11606:11610   */\n      dup2\n        /* \"#utility.yul\":11480:11611   */\n      tag_233\n      jump\t// in\n    tag_394:\n        /* \"#utility.yul\":11472:11611   */\n      swap1\n      pop\n        /* \"#utility.yul\":11199:11618   */\n      swap2\n      swap1\n      pop\n      jump\t// out\n        /* \"#utility.yul\":11624:11804   */\n    tag_69:\n        /* \"#utility.yul\":11672:11749   */\n      0x4e487b7100000000000000000000000000000000000000000000000000000000\n        /* \"#utility.yul\":11669:11670   */\n      0x00\n        /* \"#utility.yul\":11662:11750   */\n      mstore\n        /* \"#utility.yul\":11769:11773   */\n      0x21\n        /* \"#utility.yul\":11766:11767   */\n      0x04\n        /* \"#utility.yul\":11759:11774   */\n      mstore\n        /* \"#utility.yul\":11793:11797   */\n      0x24\n        /* \"#utility.yul\":11790:11791   */\n      0x00\n        /* \"#utility.yul\":11783:11798   */\n      revert\n        /* \"#utility.yul\":11810:11984   */\n    tag_234:\n        /* \"#utility.yul\":11950:11976   */\n      0x456c656374696f6e20616c726561647920737461727465640000000000000000\n        /* \"#utility.yul\":11946:11947   */\n      0x00\n        /* \"#utility.yul\":11938:11944   */\n      dup3\n        /* \"#utility.yul\":11934:11948   */\n      add\n        /* \"#utility.yul\":11927:11977   */\n      mstore\n        /* \"#utility.yul\":11810:11984   */\n      pop\n      jump\t// out\n        /* \"#utility.yul\":11990:12356   */\n    tag_235:\n        /* \"#utility.yul\":12132:12135   */\n      0x00\n        /* \"#utility.yul\":12153:12220   */\n      tag_398\n        /* \"#utility.yul\":12217:12219   */\n      0x18\n        /* \"#utility.yul\":12212:12215   */\n      dup4\n        /* \"#utility.yul\":12153:12220   */\n      tag_224\n      jump\t// in\n    tag_398:\n        /* \"#utility.yul\":12146:12220   */\n      swap2\n      pop\n        /* \"#utility.yul\":12229:12322   */\n      tag_399\n        /* \"#utility.yul\":12318:12321   */\n      dup3\n        /* \"#utility.yul\":12229:12322   */\n      tag_234\n      jump\t// in\n    tag_399:\n        /* \"#utility.yul\":12347:12349   */\n      0x20\n        /* \"#utility.yul\":12342:12345   */\n      dup3\n        /* \"#utility.yul\":12338:12350   */\n      add\n        /* \"#utility.yul\":12331:12350   */\n      swap1\n      pop\n        /* \"#utility.yul\":11990:12356   */\n      swap2\n      swap1\n      pop\n      jump\t// out\n        /* \"#utility.yul\":12362:12781   */\n    tag_79:\n        /* \"#utility.yul\":12528:12532   */\n      0x00\n        /* \"#utility.yul\":12566:12568   */\n      0x20\n        /* \"#utility.yul\":12555:12564   */\n      dup3\n        /* \"#utility.yul\":12551:12569   */\n      add\n        /* \"#utility.yul\":12543:12569   */\n      swap1\n      pop\n        /* \"#utility.yul\":12615:12624   */\n      dup2\n        /* \"#utility.yul\":12609:12613   */\n      dup2\n        /* \"#utility.yul\":12605:12625   */\n      sub\n        /* \"#utility.yul\":12601:12602   */\n      0x00\n        /* \"#utility.yul\":12590:12599   */\n      dup4\n        /* \"#utility.yul\":12586:12603   */\n      add\n        /* \"#utility.yul\":12579:12626   */\n      mstore\n        /* \"#utility.yul\":12643:12774   */\n      tag_401\n        /* \"#utility.yul\":12769:12773   */\n      dup2\n        /* \"#utility.yul\":12643:12774   */\n      tag_235\n      jump\t// in\n    tag_401:\n        /* \"#utility.yul\":12635:12774   */\n      swap1\n      pop\n        /* \"#utility.yul\":12362:12781   */\n      swap2\n      swap1\n      pop\n      jump\t// out\n        /* \"#utility.yul\":12787:12967   */\n    tag_236:\n        /* \"#utility.yul\":12835:12912   */\n      0x4e487b7100000000000000000000000000000000000000000000000000000000\n        /* \"#utility.yul\":12832:12833   */\n      0x00\n        /* \"#utility.yul\":12825:12913   */\n      mstore\n        /* \"#utility.yul\":12932:12936   */\n      0x11\n        /* \"#utility.yul\":12929:12930   */\n      0x04\n        /* \"#utility.yul\":12922:12937   */\n      mstore\n        /* \"#utility.yul\":12956:12960   */\n      0x24\n        /* \"#utility.yul\":12953:12954   */\n      0x00\n        /* \"#utility.yul\":12946:12961   */\n      revert\n        /* \"#utility.yul\":12973:13140   */\n    tag_81:\n        /* \"#utility.yul\":13010:13013   */\n      0x00\n        /* \"#utility.yul\":13033:13055   */\n      tag_404\n        /* \"#utility.yul\":13049:13054   */\n      dup3\n        /* \"#utility.yul\":13033:13055   */\n      tag_227\n      jump\t// in\n    tag_404:\n        /* \"#utility.yul\":13024:13055   */\n      swap2\n      pop\n        /* \"#utility.yul\":13077:13081   */\n      0xff\n        /* \"#utility.yul\":13070:13075   */\n      dup3\n        /* \"#utility.yul\":13067:13082   */\n      sub\n        /* \"#utility.yul\":13064:13105   */\n      tag_405\n      jumpi\n        /* \"#utility.yul\":13085:13103   */\n      tag_406\n      tag_236\n      jump\t// in\n    tag_406:\n        /* \"#utility.yul\":13064:13105   */\n    tag_405:\n        /* \"#utility.yul\":13132:13133   */\n      0x01\n        /* \"#utility.yul\":13125:13130   */\n      dup3\n        /* \"#utility.yul\":13121:13134   */\n      add\n        /* \"#utility.yul\":13114:13134   */\n      swap1\n      pop\n        /* \"#utility.yul\":12973:13140   */\n      swap2\n      swap1\n      pop\n      jump\t// out\n        /* \"#utility.yul\":13146:13326   */\n    tag_237:\n        /* \"#utility.yul\":13194:13271   */\n      0x4e487b7100000000000000000000000000000000000000000000000000000000\n        /* \"#utility.yul\":13191:13192   */\n      0x00\n        /* \"#utility.yul\":13184:13272   */\n      mstore\n        /* \"#utility.yul\":13291:13295   */\n      0x22\n        /* \"#utility.yul\":13288:13289   */\n      0x04\n        /* \"#utility.yul\":13281:13296   */\n      mstore\n        /* \"#utility.yul\":13315:13319   */\n      0x24\n        /* \"#utility.yul\":13312:13313   */\n      0x00\n        /* \"#utility.yul\":13305:13320   */\n      revert\n        /* \"#utility.yul\":13332:13652   */\n    tag_91:\n        /* \"#utility.yul\":13376:13382   */\n      0x00\n        /* \"#utility.yul\":13413:13414   */\n      0x02\n        /* \"#utility.yul\":13407:13411   */\n      dup3\n        /* \"#utility.yul\":13403:13415   */\n      div\n        /* \"#utility.yul\":13393:13415   */\n      swap1\n      pop\n        /* \"#utility.yul\":13460:13461   */\n      0x01\n        /* \"#utility.yul\":13454:13458   */\n      dup3\n        /* \"#utility.yul\":13450:13462   */\n      and\n        /* \"#utility.yul\":13481:13499   */\n      dup1\n        /* \"#utility.yul\":13471:13552   */\n      tag_409\n      jumpi\n        /* \"#utility.yul\":13537:13541   */\n      0x7f\n        /* \"#utility.yul\":13529:13535   */\n      dup3\n        /* \"#utility.yul\":13525:13542   */\n      and\n        /* \"#utility.yul\":13515:13542   */\n      swap2\n      pop\n        /* \"#utility.yul\":13471:13552   */\n    tag_409:\n        /* \"#utility.yul\":13599:13601   */\n      0x20\n        /* \"#utility.yul\":13591:13597   */\n      dup3\n        /* \"#utility.yul\":13588:13602   */\n      lt\n        /* \"#utility.yul\":13568:13586   */\n      dup2\n        /* \"#utility.yul\":13565:13603   */\n      sub\n        /* \"#utility.yul\":13562:13646   */\n      tag_410\n      jumpi\n        /* \"#utility.yul\":13618:13636   */\n      tag_411\n      tag_237\n      jump\t// in\n    tag_411:\n        /* \"#utility.yul\":13562:13646   */\n    tag_410:\n        /* \"#utility.yul\":13383:13652   */\n      pop\n        /* \"#utility.yul\":13332:13652   */\n      swap2\n      swap1\n      pop\n      jump\t// out\n        /* \"#utility.yul\":13658:13799   */\n    tag_238:\n        /* \"#utility.yul\":13707:13711   */\n      0x00\n        /* \"#utility.yul\":13730:13733   */\n      dup2\n        /* \"#utility.yul\":13722:13733   */\n      swap1\n      pop\n        /* \"#utility.yul\":13753:13756   */\n      dup2\n        /* \"#utility.yul\":13750:13751   */\n      0x00\n        /* \"#utility.yul\":13743:13757   */\n      mstore\n        /* \"#utility.yul\":13787:13791   */\n      0x20\n        /* \"#utility.yul\":13784:13785   */\n      0x00\n        /* \"#utility.yul\":13774:13792   */\n      keccak256\n        /* \"#utility.yul\":13766:13792   */\n      swap1\n      pop\n        /* \"#utility.yul\":13658:13799   */\n      swap2\n      swap1\n      pop\n      jump\t// out\n        /* \"#utility.yul\":13805:13898   */\n    tag_239:\n        /* \"#utility.yul\":13842:13848   */\n      0x00\n        /* \"#utility.yul\":13889:13891   */\n      0x20\n        /* \"#utility.yul\":13884:13886   */\n      0x1f\n        /* \"#utility.yul\":13877:13882   */\n      dup4\n        /* \"#utility.yul\":13873:13887   */\n      add\n        /* \"#utility.yul\":13869:13892   */\n      div\n        /* \"#utility.yul\":13859:13892   */\n      swap1\n      pop\n        /* \"#utility.yul\":13805:13898   */\n      swap2\n      swap1\n      pop\n      jump\t// out\n        /* \"#utility.yul\":13904:14011   */\n    tag_240:\n        /* \"#utility.yul\":13948:13956   */\n      0x00\n        /* \"#utility.yul\":13998:14003   */\n      dup3\n        /* \"#utility.yul\":13992:13996   */\n      dup3\n        /* \"#utility.yul\":13988:14004   */\n      shl\n        /* \"#utility.yul\":13967:14004   */\n      swap1\n      pop\n        /* \"#utility.yul\":13904:14011   */\n      swap3\n      swap2\n      pop\n      pop\n      jump\t// out\n        /* \"#utility.yul\":14017:14410   */\n    tag_241:\n        /* \"#utility.yul\":14086:14092   */\n      0x00\n        /* \"#utility.yul\":14136:14137   */\n      0x08\n        /* \"#utility.yul\":14124:14134   */\n      dup4\n        /* \"#utility.yul\":14120:14138   */\n      mul\n        /* \"#utility.yul\":14159:14256   */\n      tag_416\n        /* \"#utility.yul\":14189:14255   */\n      0xffffffffffffffffffffffffffffffffffffffffffffffffffffffffffffffff\n        /* \"#utility.yul\":14178:14187   */\n      dup3\n        /* \"#utility.yul\":14159:14256   */\n      tag_240\n      jump\t// in\n    tag_416:\n        /* \"#utility.yul\":14277:14316   */\n      tag_417\n        /* \"#utility.yul\":14307:14315   */\n      dup7\n        /* \"#utility.yul\":14296:14305   */\n      dup4\n        /* \"#utility.yul\":14277:14316   */\n      tag_240\n      jump\t// in\n    tag_417:\n        /* \"#utility.yul\":14265:14316   */\n      swap6\n      pop\n        /* \"#utility.yul\":14349:14353   */\n      dup1\n        /* \"#utility.yul\":14345:14354   */\n      not\n        /* \"#utility.yul\":14338:14343   */\n      dup5\n        /* \"#utility.yul\":14334:14355   */\n      and\n        /* \"#utility.yul\":14325:14355   */\n      swap4\n      pop\n        /* \"#utility.yul\":14398:14402   */\n      dup1\n        /* \"#utility.yul\":14388:14396   */\n      dup7\n        /* \"#utility.yul\":14384:14403   */\n      and\n        /* \"#utility.yul\":14377:14382   */\n      dup5\n        /* \"#utility.yul\":14374:14404   */\n      or\n        /* \"#utility.yul\":14364:14404   */\n      swap3\n      pop\n        /* \"#utility.yul\":14093:14410   */\n      pop\n      pop\n        /* \"#utility.yul\":14017:14410   */\n      swap4\n      swap3\n      pop\n      pop\n      pop\n      jump\t// out\n        /* \"#utility.yul\":14416:14476   */\n    tag_242:\n        /* \"#utility.yul\":14444:14447   */\n      0x00\n        /* \"#utility.yul\":14465:14470   */\n      dup2\n        /* \"#utility.yul\":14458:14470   */\n      swap1\n      pop\n        /* \"#utility.yul\":14416:14476   */\n      swap2\n      swap1\n      pop\n      jump\t// out\n        /* \"#utility.yul\":14482:14624   */\n    tag_243:\n        /* \"#utility.yul\":14532:14541   */\n      0x00\n        /* \"#utility.yul\":14565:14618   */\n      tag_420\n        /* \"#utility.yul\":14583:14617   */\n      tag_421\n        /* \"#utility.yul\":14592:14616   */\n      tag_422\n        /* \"#utility.yul\":14610:14615   */\n      dup5\n        /* \"#utility.yul\":14592:14616   */\n      tag_221\n      jump\t// in\n    tag_422:\n        /* \"#utility.yul\":14583:14617   */\n      tag_242\n      jump\t// in\n    tag_421:\n        /* \"#utility.yul\":14565:14618   */\n      tag_221\n      jump\t// in\n    tag_420:\n        /* \"#utility.yul\":14552:14618   */\n      swap1\n      pop\n        /* \"#utility.yul\":14482:14624   */\n      swap2\n      swap1\n      pop\n      jump\t// out\n        /* \"#utility.yul\":14630:14705   */\n    tag_244:\n        /* \"#utility.yul\":14673:14676   */\n      0x00\n        /* \"#utility.yul\":14694:14699   */\n      dup2\n        /* \"#utility.yul\":14687:14699   */\n      swap1\n      pop\n        /* \"#utility.yul\":14630:14705   */\n      swap2\n      swap1\n      pop\n      jump\t// out\n        /* \"#utility.yul\":14711:14980   */\n    tag_245:\n        /* \"#utility.yul\":14821:14860   */\n      tag_425\n        /* \"#utility.yul\":14852:14859   */\n      dup4\n        /* \"#utility.yul\":14821:14860   */\n      tag_243\n      jump\t// in\n    tag_425:\n        /* \"#utility.yul\":14882:14973   */\n      tag_426\n        /* \"#utility.yul\":14931:14972   */\n      tag_427\n        /* \"#utility.yul\":14955:14971   */\n      dup3\n        /* \"#utility.yul\":14931:14972   */\n      tag_244\n      jump\t// in\n    tag_427:\n        /* \"#utility.yul\":14923:14929   */\n      dup5\n        /* \"#utility.yul\":14916:14920   */\n      dup5\n        /* \"#utility.yul\":14910:14921   */\n      sload\n        /* \"#utility.yul\":14882:14973   */\n      tag_241\n      jump\t// in\n    tag_426:\n        /* \"#utility.yul\":14876:14880   */\n      dup3\n        /* \"#utility.yul\":14869:14974   */\n      sstore\n        /* \"#utility.yul\":14787:14980   */\n      pop\n        /* \"#utility.yul\":14711:14980   */\n      pop\n      pop\n      pop\n      jump\t// out\n        /* \"#utility.yul\":14986:15059   */\n    tag_246:\n        /* \"#utility.yul\":15031:15034   */\n      0x00\n        /* \"#utility.yul\":14986:15059   */\n      swap1\n      jump\t// out\n        /* \"#utility.yul\":15065:15254   */\n    tag_247:\n        /* \"#utility.yul\":15142:15174   */\n      tag_430\n      tag_246\n      jump\t// in\n    tag_430:\n        /* \"#utility.yul\":15183:15248   */\n      tag_431\n        /* \"#utility.yul\":15241:15247   */\n      dup2\n        /* \"#utility.yul\":15233:15239   */\n      dup5\n        /* \"#utility.yul\":15227:15231   */\n      dup5\n        /* \"#utility.yul\":15183:15248   */\n      tag_245\n      jump\t// in\n    tag_431:\n        /* \"#utility.yul\":15118:15254   */\n      pop\n        /* \"#utility.yul\":15065:15254   */\n      pop\n      pop\n      jump\t// out\n        /* \"#utility.yul\":15260:15446   */\n    tag_248:\n        /* \"#utility.yul\":15320:15440   */\n    tag_433:\n        /* \"#utility.yul\":15337:15340   */\n      dup2\n        /* \"#utility.yul\":15330:15335   */\n      dup2\n        /* \"#utility.yul\":15327:15341   */\n      lt\n        /* \"#utility.yul\":15320:15440   */\n      iszero\n      tag_435\n      jumpi\n        /* \"#utility.yul\":15391:15430   */\n      tag_436\n        /* \"#utility.yul\":15428:15429   */\n      0x00\n        /* \"#utility.yul\":15421:15426   */\n      dup3\n        /* \"#utility.yul\":15391:15430   */\n      tag_247\n      jump\t// in\n    tag_436:\n        /* \"#utility.yul\":15364:15365   */\n      0x01\n        /* \"#utility.yul\":15357:15362   */\n      dup2\n        /* \"#utility.yul\":15353:15366   */\n      add\n        /* \"#utility.yul\":15344:15366   */\n      swap1\n      pop\n        /* \"#utility.yul\":15320:15440   */\n      jump(tag_433)\n    tag_435:\n        /* \"#utility.yul\":15260:15446   */\n      pop\n      pop\n      jump\t// out\n        /* \"#utility.yul\":15452:15995   */\n    tag_249:\n        /* \"#utility.yul\":15553:15555   */\n      0x1f\n        /* \"#utility.yul\":15548:15551   */\n      dup3\n        /* \"#utility.yul\":15545:15556   */\n      gt\n        /* \"#utility.yul\":15542:15988   */\n      iszero\n      tag_438\n      jumpi\n        /* \"#utility.yul\":15587:15625   */\n      tag_439\n        /* \"#utility.yul\":15619:15624   */\n      dup2\n        /* \"#utility.yul\":15587:15625   */\n      tag_238\n      jump\t// in\n    tag_439:\n        /* \"#utility.yul\":15671:15700   */\n      tag_440\n        /* \"#utility.yul\":15689:15699   */\n      dup5\n        /* \"#utility.yul\":15671:15700   */\n      tag_239\n      jump\t// in\n    tag_440:\n        /* \"#utility.yul\":15661:15669   */\n      dup2\n        /* \"#utility.yul\":15657:15701   */\n      add\n        /* \"#utility.yul\":15854:15856   */\n      0x20\n        /* \"#utility.yul\":15842:15852   */\n      dup6\n        /* \"#utility.yul\":15839:15857   */\n      lt\n        /* \"#utility.yul\":15836:15885   */\n      iszero\n      tag_441\n      jumpi\n        /* \"#utility.yul\":15875:15883   */\n      dup2\n        /* \"#utility.yul\":15860:15883   */\n      swap1\n      pop\n        /* \"#utility.yul\":15836:15885   */\n    tag_441:\n        /* \"#utility.yul\":15898:15978   */\n      tag_442\n        /* \"#utility.yul\":15954:15976   */\n      tag_443\n        /* \"#utility.yul\":15972:15975   */\n      dup6\n        /* \"#utility.yul\":15954:15976   */\n      tag_239\n      jump\t// in\n    tag_443:\n        /* \"#utility.yul\":15944:15952   */\n      dup4\n        /* \"#utility.yul\":15940:15977   */\n      add\n        /* \"#utility.yul\":15927:15938   */\n      dup3\n        /* \"#utility.yul\":15898:15978   */\n      tag_248\n      jump\t// in\n    tag_442:\n        /* \"#utility.yul\":15557:15988   */\n      pop\n      pop\n        /* \"#utility.yul\":15542:15988   */\n    tag_438:\n        /* \"#utility.yul\":15452:15995   */\n      pop\n      pop\n      pop\n      jump\t// out\n        /* \"#utility.yul\":16001:16118   */\n    tag_250:\n        /* \"#utility.yul\":16055:16063   */\n      0x00\n        /* \"#utility.yul\":16105:16110   */\n      dup3\n        /* \"#utility.yul\":16099:16103   */\n      dup3\n        /* \"#utility.yul\":16095:16111   */\n      shr\n        /* \"#utility.yul\":16074:16111   */\n      swap1\n      pop\n        /* \"#utility.yul\":16001:16118   */\n      swap3\n      swap2\n      pop\n      pop\n      jump\t// out\n        /* \"#utility.yul\":16124:16293   */\n    tag_251:\n        /* \"#utility.yul\":16168:16174   */\n      0x00\n        /* \"#utility.yul\":16201:16252   */\n      tag_446\n        /* \"#utility.yul\":16249:16250   */\n      0x00\n        /* \"#utility.yul\":16245:16251   */\n      not\n        /* \"#utility.yul\":16237:16242   */\n      dup5\n        /* \"#utility.yul\":16234:16235   */\n      0x08\n        /* \"#utility.yul\":16230:16243   */\n      mul\n        /* \"#utility.yul\":16201:16252   */\n      tag_250\n      jump\t// in\n    tag_446:\n        /* \"#utility.yul\":16197:16253   */\n      not\n        /* \"#utility.yul\":16282:16286   */\n      dup1\n        /* \"#utility.yul\":16276:16280   */\n      dup4\n        /* \"#utility.yul\":16272:16287   */\n      and\n        /* \"#utility.yul\":16262:16287   */\n      swap2\n      pop\n        /* \"#utility.yul\":16175:16293   */\n      pop\n        /* \"#utility.yul\":16124:16293   */\n      swap3\n      swap2\n      pop\n      pop\n      jump\t// out\n        /* \"#utility.yul\":16298:16593   */\n    tag_252:\n        /* \"#utility.yul\":16374:16378   */\n      0x00\n        /* \"#utility.yul\":16520:16549   */\n      tag_448\n        /* \"#utility.yul\":16545:16548   */\n      dup4\n        /* \"#utility.yul\":16539:16543   */\n      dup4\n        /* \"#utility.yul\":16520:16549   */\n      tag_251\n      jump\t// in\n    tag_448:\n        /* \"#utility.yul\":16512:16549   */\n      swap2\n      pop\n        /* \"#utility.yul\":16582:16585   */\n      dup3\n        /* \"#utility.yul\":16579:16580   */\n      0x02\n        /* \"#utility.yul\":16575:16586   */\n      mul\n        /* \"#utility.yul\":16569:16573   */\n      dup3\n        /* \"#utility.yul\":16566:16587   */\n      or\n        /* \"#utility.yul\":16558:16587   */\n      swap1\n      pop\n        /* \"#utility.yul\":16298:16593   */\n      swap3\n      swap2\n      pop\n      pop\n      jump\t// out\n        /* \"#utility.yul\":16598:17993   */\n    tag_83:\n        /* \"#utility.yul\":16715:16752   */\n      tag_450\n        /* \"#utility.yul\":16748:16751   */\n      dup3\n        /* \"#utility.yul\":16715:16752   */\n      tag_223\n      jump\t// in\n    tag_450:\n        /* \"#utility.yul\":16817:16835   */\n      0xffffffffffffffff\n        /* \"#utility.yul\":16809:16815   */\n      dup2\n        /* \"#utility.yul\":16806:16836   */\n      gt\n        /* \"#utility.yul\":16803:16859   */\n      iszero\n      tag_451\n      jumpi\n        /* \"#utility.yul\":16839:16857   */\n      tag_452\n      tag_210\n      jump\t// in\n    tag_452:\n        /* \"#utility.yul\":16803:16859   */\n    tag_451:\n        /* \"#utility.yul\":16883:16921   */\n      tag_453\n        /* \"#utility.yul\":16915:16919   */\n      dup3\n        /* \"#utility.yul\":16909:16920   */\n      sload\n        /* \"#utility.yul\":16883:16921   */\n      tag_91\n      jump\t// in\n    tag_453:\n        /* \"#utility.yul\":16968:17035   */\n      tag_454\n        /* \"#utility.yul\":17028:17034   */\n      dup3\n        /* \"#utility.yul\":17020:17026   */\n      dup3\n        /* \"#utility.yul\":17014:17018   */\n      dup6\n        /* \"#utility.yul\":16968:17035   */\n      tag_249\n      jump\t// in\n    tag_454:\n        /* \"#utility.yul\":17062:17063   */\n      0x00\n        /* \"#utility.yul\":17086:17090   */\n      0x20\n        /* \"#utility.yul\":17073:17090   */\n      swap1\n      pop\n        /* \"#utility.yul\":17118:17120   */\n      0x1f\n        /* \"#utility.yul\":17110:17116   */\n      dup4\n        /* \"#utility.yul\":17107:17121   */\n      gt\n        /* \"#utility.yul\":17135:17136   */\n      0x01\n        /* \"#utility.yul\":17130:17748   */\n      dup2\n      eq\n      tag_456\n      jumpi\n        /* \"#utility.yul\":17792:17793   */\n      0x00\n        /* \"#utility.yul\":17809:17815   */\n      dup5\n        /* \"#utility.yul\":17806:17883   */\n      iszero\n      tag_457\n      jumpi\n        /* \"#utility.yul\":17858:17867   */\n      dup3\n        /* \"#utility.yul\":17853:17856   */\n      dup8\n        /* \"#utility.yul\":17849:17868   */\n      add\n        /* \"#utility.yul\":17843:17869   */\n      mload\n        /* \"#utility.yul\":17834:17869   */\n      swap1\n      pop\n        /* \"#utility.yul\":17806:17883   */\n    tag_457:\n        /* \"#utility.yul\":17909:17976   */\n      tag_458\n        /* \"#utility.yul\":17969:17975   */\n      dup6\n        /* \"#utility.yul\":17962:17967   */\n      dup3\n        /* \"#utility.yul\":17909:17976   */\n      tag_252\n      jump\t// in\n    tag_458:\n        /* \"#utility.yul\":17903:17907   */\n      dup7\n        /* \"#utility.yul\":17896:17977   */\n      sstore\n        /* \"#utility.yul\":17765:17987   */\n      pop\n        /* \"#utility.yul\":17100:17987   */\n      jump(tag_455)\n        /* \"#utility.yul\":17130:17748   */\n    tag_456:\n        /* \"#utility.yul\":17182:17186   */\n      0x1f\n        /* \"#utility.yul\":17178:17187   */\n      not\n        /* \"#utility.yul\":17170:17176   */\n      dup5\n        /* \"#utility.yul\":17166:17188   */\n      and\n        /* \"#utility.yul\":17216:17253   */\n      tag_459\n        /* \"#utility.yul\":17248:17252   */\n      dup7\n        /* \"#utility.yul\":17216:17253   */\n      tag_238\n      jump\t// in\n    tag_459:\n        /* \"#utility.yul\":17275:17276   */\n      0x00\n        /* \"#utility.yul\":17289:17497   */\n    tag_460:\n        /* \"#utility.yul\":17303:17310   */\n      dup3\n        /* \"#utility.yul\":17300:17301   */\n      dup2\n        /* \"#utility.yul\":17297:17311   */\n      lt\n        /* \"#utility.yul\":17289:17497   */\n      iszero\n      tag_462\n      jumpi\n        /* \"#utility.yul\":17382:17391   */\n      dup5\n        /* \"#utility.yul\":17377:17380   */\n      dup10\n        /* \"#utility.yul\":17373:17392   */\n      add\n        /* \"#utility.yul\":17367:17393   */\n      mload\n        /* \"#utility.yul\":17359:17365   */\n      dup3\n        /* \"#utility.yul\":17352:17394   */\n      sstore\n        /* \"#utility.yul\":17433:17434   */\n      0x01\n        /* \"#utility.yul\":17425:17431   */\n      dup3\n        /* \"#utility.yul\":17421:17435   */\n      add\n        /* \"#utility.yul\":17411:17435   */\n      swap2\n      pop\n        /* \"#utility.yul\":17480:17482   */\n      0x20\n        /* \"#utility.yul\":17469:17478   */\n      dup6\n        /* \"#utility.yul\":17465:17483   */\n      add\n        /* \"#utility.yul\":17452:17483   */\n      swap5\n      pop\n        /* \"#utility.yul\":17326:17330   */\n      0x20\n        /* \"#utility.yul\":17323:17324   */\n      dup2\n        /* \"#utility.yul\":17319:17331   */\n      add\n        /* \"#utility.yul\":17314:17331   */\n      swap1\n      pop\n        /* \"#utility.yul\":17289:17497   */\n      jump(tag_460)\n    tag_462:\n        /* \"#utility.yul\":17525:17531   */\n      dup7\n        /* \"#utility.yul\":17516:17523   */\n      dup4\n        /* \"#utility.yul\":17513:17532   */\n      lt\n        /* \"#utility.yul\":17510:17689   */\n      iszero\n      tag_463\n      jumpi\n        /* \"#utility.yul\":17583:17592   */\n      dup5\n        /* \"#utility.yul\":17578:17581   */\n      dup10\n        /* \"#utility.yul\":17574:17593   */\n      add\n        /* \"#utility.yul\":17568:17594   */\n      mload\n        /* \"#utility.yul\":17626:17674   */\n      tag_464\n        /* \"#utility.yul\":17668:17672   */\n      0x1f\n        /* \"#utility.yul\":17660:17666   */\n      dup10\n        /* \"#utility.yul\":17656:17673   */\n      and\n        /* \"#utility.yul\":17645:17654   */\n      dup3\n        /* \"#utility.yul\":17626:17674   */\n      tag_251\n      jump\t// in\n    tag_464:\n        /* \"#utility.yul\":17618:17624   */\n      dup4\n        /* \"#utility.yul\":17611:17675   */\n      sstore\n        /* \"#utility.yul\":17533:17689   */\n      pop\n        /* \"#utility.yul\":17510:17689   */\n    tag_463:\n        /* \"#utility.yul\":17735:17736   */\n      0x01\n        /* \"#utility.yul\":17731:17732   */\n      0x02\n        /* \"#utility.yul\":17723:17729   */\n      dup9\n        /* \"#utility.yul\":17719:17733   */\n      mul\n        /* \"#utility.yul\":17715:17737   */\n      add\n        /* \"#utility.yul\":17709:17713   */\n      dup9\n        /* \"#utility.yul\":17702:17738   */\n      sstore\n        /* \"#utility.yul\":17137:17748   */\n      pop\n      pop\n      pop\n        /* \"#utility.yul\":17100:17987   */\n    tag_455:\n      pop\n        /* \"#utility.yul\":16690:17993   */\n      pop\n      pop\n      pop\n        /* \"#utility.yul\":16598:17993   */\n      pop\n      pop\n      jump\t// out\n        /* \"#utility.yul\":17999:18223   */\n    tag_253:\n        /* \"#utility.yul\":18139:18173   */\n      0x4f6e6c792061646d696e20697320616c6c6f77656420746f20656e6420656c65\n        /* \"#utility.yul\":18135:18136   */\n      0x00\n        /* \"#utility.yul\":18127:18133   */\n      dup3\n        /* \"#utility.yul\":18123:18137   */\n      add\n        /* \"#utility.yul\":18116:18174   */\n      mstore\n        /* \"#utility.yul\":18208:18215   */\n      0x6374696f6e000000000000000000000000000000000000000000000000000000\n        /* \"#utility.yul\":18203:18205   */\n      0x20\n        /* \"#utility.yul\":18195:18201   */\n      dup3\n        /* \"#utility.yul\":18191:18206   */\n      add\n        /* \"#utility.yul\":18184:18216   */\n      mstore\n        /* \"#utility.yul\":17999:18223   */\n      pop\n      jump\t// out\n        /* \"#utility.yul\":18229:18595   */\n    tag_254:\n        /* \"#utility.yul\":18371:18374   */\n      0x00\n        /* \"#utility.yul\":18392:18459   */\n      tag_467\n        /* \"#utility.yul\":18456:18458   */\n      0x25\n        /* \"#utility.yul\":18451:18454   */\n      dup4\n        /* \"#utility.yul\":18392:18459   */\n      tag_224\n      jump\t// in\n    tag_467:\n        /* \"#utility.yul\":18385:18459   */\n      swap2\n      pop\n        /* \"#utility.yul\":18468:18561   */\n      tag_468\n        /* \"#utility.yul\":18557:18560   */\n      dup3\n        /* \"#utility.yul\":18468:18561   */\n      tag_253\n      jump\t// in\n    tag_468:\n        /* \"#utility.yul\":18586:18588   */\n      0x40\n        /* \"#utility.yul\":18581:18584   */\n      dup3\n        /* \"#utility.yul\":18577:18589   */\n      add\n        /* \"#utility.yul\":18570:18589   */\n      swap1\n      pop\n        /* \"#utility.yul\":18229:18595   */\n      swap2\n      swap1\n      pop\n      jump\t// out\n        /* \"#utility.yul\":18601:19020   */\n    tag_103:\n        /* \"#utility.yul\":18767:18771   */\n      0x00\n        /* \"#utility.yul\":18805:18807   */\n      0x20\n        /* \"#utility.yul\":18794:18803   */\n      dup3\n        /* \"#utility.yul\":18790:18808   */\n      add\n        /* \"#utility.yul\":18782:18808   */\n      swap1\n      pop\n        /* \"#utility.yul\":18854:18863   */\n      dup2\n        /* \"#utility.yul\":18848:18852   */\n      dup2\n        /* \"#utility.yul\":18844:18864   */\n      sub\n        /* \"#utility.yul\":18840:18841   */\n      0x00\n        /* \"#utility.yul\":18829:18838   */\n      dup4\n        /* \"#utility.yul\":18825:18842   */\n      add\n        /* \"#utility.yul\":18818:18865   */\n      mstore\n        /* \"#utility.yul\":18882:19013   */\n      tag_470\n        /* \"#utility.yul\":19008:19012   */\n      dup2\n        /* \"#utility.yul\":18882:19013   */\n      tag_254\n      jump\t// in\n    tag_470:\n        /* \"#utility.yul\":18874:19013   */\n      swap1\n      pop\n        /* \"#utility.yul\":18601:19020   */\n      swap2\n      swap1\n      pop\n      jump\t// out\n        /* \"#utility.yul\":19026:19199   */\n    tag_255:\n        /* \"#utility.yul\":19166:19191   */\n      0x656c656374696f6e206973206e6f742073746172746564000000000000000000\n        /* \"#utility.yul\":19162:19163   */\n      0x00\n        /* \"#utility.yul\":19154:19160   */\n      dup3\n        /* \"#utility.yul\":19150:19164   */\n      add\n        /* \"#utility.yul\":19143:19192   */\n      mstore\n        /* \"#utility.yul\":19026:19199   */\n      pop\n      jump\t// out\n        /* \"#utility.yul\":19205:19571   */\n    tag_256:\n        /* \"#utility.yul\":19347:19350   */\n      0x00\n        /* \"#utility.yul\":19368:19435   */\n      tag_473\n        /* \"#utility.yul\":19432:19434   */\n      0x17\n        /* \"#utility.yul\":19427:19430   */\n      dup4\n        /* \"#utility.yul\":19368:19435   */\n      tag_224\n      jump\t// in\n    tag_473:\n        /* \"#utility.yul\":19361:19435   */\n      swap2\n      pop\n        /* \"#utility.yul\":19444:19537   */\n      tag_474\n        /* \"#utility.yul\":19533:19536   */\n      dup3\n        /* \"#utility.yul\":19444:19537   */\n      tag_255\n      jump\t// in\n    tag_474:\n        /* \"#utility.yul\":19562:19564   */\n      0x20\n        /* \"#utility.yul\":19557:19560   */\n      dup3\n        /* \"#utility.yul\":19553:19565   */\n      add\n        /* \"#utility.yul\":19546:19565   */\n      swap1\n      pop\n        /* \"#utility.yul\":19205:19571   */\n      swap2\n      swap1\n      pop\n      jump\t// out\n        /* \"#utility.yul\":19577:19996   */\n    tag_110:\n        /* \"#utility.yul\":19743:19747   */\n      0x00\n        /* \"#utility.yul\":19781:19783   */\n      0x20\n        /* \"#utility.yul\":19770:19779   */\n      dup3\n        /* \"#utility.yul\":19766:19784   */\n      add\n        /* \"#utility.yul\":19758:19784   */\n      swap1\n      pop\n        /* \"#utility.yul\":19830:19839   */\n      dup2\n        /* \"#utility.yul\":19824:19828   */\n      dup2\n        /* \"#utility.yul\":19820:19840   */\n      sub\n        /* \"#utility.yul\":19816:19817   */\n      0x00\n        /* \"#utility.yul\":19805:19814   */\n      dup4\n        /* \"#utility.yul\":19801:19818   */\n      add\n        /* \"#utility.yul\":19794:19841   */\n      mstore\n        /* \"#utility.yul\":19858:19989   */\n      tag_476\n        /* \"#utility.yul\":19984:19988   */\n      dup2\n        /* \"#utility.yul\":19858:19989   */\n      tag_256\n      jump\t// in\n    tag_476:\n        /* \"#utility.yul\":19850:19989   */\n      swap1\n      pop\n        /* \"#utility.yul\":19577:19996   */\n      swap2\n      swap1\n      pop\n      jump\t// out\n        /* \"#utility.yul\":20002:20228   */\n    tag_257:\n        /* \"#utility.yul\":20142:20176   */\n      0x4f6e6c792061646d696e20697320616c6c6f77656420746f2073746172742065\n        /* \"#utility.yul\":20138:20139   */\n      0x00\n        /* \"#utility.yul\":20130:20136   */\n      dup3\n        /* \"#utility.yul\":20126:20140   */\n      add\n        /* \"#utility.yul\":20119:20177   */\n      mstore\n        /* \"#utility.yul\":20211:20220   */\n      0x6c656374696f6e00000000000000000000000000000000000000000000000000\n        /* \"#utility.yul\":20206:20208   */\n      0x20\n        /* \"#utility.yul\":20198:20204   */\n      dup3\n        /* \"#utility.yul\":20194:20209   */\n      add\n        /* \"#utility.yul\":20187:20221   */\n      mstore\n        /* \"#utility.yul\":20002:20228   */\n      pop\n      jump\t// out\n        /* \"#utility.yul\":20234:20600   */\n    tag_258:\n        /* \"#utility.yul\":20376:20379   */\n      0x00\n        /* \"#utility.yul\":20397:20464   */\n      tag_479\n        /* \"#utility.yul\":20461:20463   */\n      0x27\n        /* \"#utility.yul\":20456:20459   */\n      dup4\n        /* \"#utility.yul\":20397:20464   */\n      tag_224\n      jump\t// in\n    tag_479:\n        /* \"#utility.yul\":20390:20464   */\n      swap2\n      pop\n        /* \"#utility.yul\":20473:20566   */\n      tag_480\n        /* \"#utility.yul\":20562:20565   */\n      dup3\n        /* \"#utility.yul\":20473:20566   */\n      tag_257\n      jump\t// in\n    tag_480:\n        /* \"#utility.yul\":20591:20593   */\n      0x40\n        /* \"#utility.yul\":20586:20589   */\n      dup3\n        /* \"#utility.yul\":20582:20594   */\n      add\n        /* \"#utility.yul\":20575:20594   */\n      swap1\n      pop\n        /* \"#utility.yul\":20234:20600   */\n      swap2\n      swap1\n      pop\n      jump\t// out\n        /* \"#utility.yul\":20606:21025   */\n    tag_116:\n        /* \"#utility.yul\":20772:20776   */\n      0x00\n        /* \"#utility.yul\":20810:20812   */\n      0x20\n        /* \"#utility.yul\":20799:20808   */\n      dup3\n        /* \"#utility.yul\":20795:20813   */\n      add\n        /* \"#utility.yul\":20787:20813   */\n      swap1\n      pop\n        /* \"#utility.yul\":20859:20868   */\n      dup2\n        /* \"#utility.yul\":20853:20857   */\n      dup2\n        /* \"#utility.yul\":20849:20869   */\n      sub\n        /* \"#utility.yul\":20845:20846   */\n      0x00\n        /* \"#utility.yul\":20834:20843   */\n      dup4\n        /* \"#utility.yul\":20830:20847   */\n      add\n        /* \"#utility.yul\":20823:20870   */\n      mstore\n        /* \"#utility.yul\":20887:21018   */\n      tag_482\n        /* \"#utility.yul\":21013:21017   */\n      dup2\n        /* \"#utility.yul\":20887:21018   */\n      tag_258\n      jump\t// in\n    tag_482:\n        /* \"#utility.yul\":20879:21018   */\n      swap1\n      pop\n        /* \"#utility.yul\":20606:21025   */\n      swap2\n      swap1\n      pop\n      jump\t// out\n        /* \"#utility.yul\":21031:21260   */\n    tag_259:\n        /* \"#utility.yul\":21171:21205   */\n      0x4f6e6c792061646d696e20697320616c6c6f77656420746f2072657665616c20\n        /* \"#utility.yul\":21167:21168   */\n      0x00\n        /* \"#utility.yul\":21159:21165   */\n      dup3\n        /* \"#utility.yul\":21155:21169   */\n      add\n        /* \"#utility.yul\":21148:21206   */\n      mstore\n        /* \"#utility.yul\":21240:21252   */\n      0x7468652077696e6e657200000000000000000000000000000000000000000000\n        /* \"#utility.yul\":21235:21237   */\n      0x20\n        /* \"#utility.yul\":21227:21233   */\n      dup3\n        /* \"#utility.yul\":21223:21238   */\n      add\n        /* \"#utility.yul\":21216:21253   */\n      mstore\n        /* \"#utility.yul\":21031:21260   */\n      pop\n      jump\t// out\n        /* \"#utility.yul\":21266:21632   */\n    tag_260:\n        /* \"#utility.yul\":21408:21411   */\n      0x00\n        /* \"#utility.yul\":21429:21496   */\n      tag_485\n        /* \"#utility.yul\":21493:21495   */\n      0x2a\n        /* \"#utility.yul\":21488:21491   */\n      dup4\n        /* \"#utility.yul\":21429:21496   */\n      tag_224\n      jump\t// in\n    tag_485:\n        /* \"#utility.yul\":21422:21496   */\n      swap2\n      pop\n        /* \"#utility.yul\":21505:21598   */\n      tag_486\n        /* \"#utility.yul\":21594:21597   */\n      dup3\n        /* \"#utility.yul\":21505:21598   */\n      tag_259\n      jump\t// in\n    tag_486:\n        /* \"#utility.yul\":21623:21625   */\n      0x40\n        /* \"#utility.yul\":21618:21621   */\n      dup3\n        /* \"#utility.yul\":21614:21626   */\n      add\n        /* \"#utility.yul\":21607:21626   */\n      swap1\n      pop\n        /* \"#utility.yul\":21266:21632   */\n      swap2\n      swap1\n      pop\n      jump\t// out\n        /* \"#utility.yul\":21638:22057   */\n    tag_133:\n        /* \"#utility.yul\":21804:21808   */\n      0x00\n        /* \"#utility.yul\":21842:21844   */\n      0x20\n        /* \"#utility.yul\":21831:21840   */\n      dup3\n        /* \"#utility.yul\":21827:21845   */\n      add\n        /* \"#utility.yul\":21819:21845   */\n      swap1\n      pop\n        /* \"#utility.yul\":21891:21900   */\n      dup2\n        /* \"#utility.yul\":21885:21889   */\n      dup2\n        /* \"#utility.yul\":21881:21901   */\n      sub\n        /* \"#utility.yul\":21877:21878   */\n      0x00\n        /* \"#utility.yul\":21866:21875   */\n      dup4\n        /* \"#utility.yul\":21862:21879   */\n      add\n        /* \"#utility.yul\":21855:21902   */\n      mstore\n        /* \"#utility.yul\":21919:22050   */\n      tag_488\n        /* \"#utility.yul\":22045:22049   */\n      dup2\n        /* \"#utility.yul\":21919:22050   */\n      tag_260\n      jump\t// in\n    tag_488:\n        /* \"#utility.yul\":21911:22050   */\n      swap1\n      pop\n        /* \"#utility.yul\":21638:22057   */\n      swap2\n      swap1\n      pop\n      jump\t// out\n        /* \"#utility.yul\":22063:22231   */\n    tag_261:\n        /* \"#utility.yul\":22203:22223   */\n      0x456c656374696f6e206e6f7420656e6465640000000000000000000000000000\n        /* \"#utility.yul\":22199:22200   */\n      0x00\n        /* \"#utility.yul\":22191:22197   */\n      dup3\n        /* \"#utility.yul\":22187:22201   */\n      add\n        /* \"#utility.yul\":22180:22224   */\n      mstore\n        /* \"#utility.yul\":22063:22231   */\n      pop\n      jump\t// out\n        /* \"#utility.yul\":22237:22603   */\n    tag_262:\n        /* \"#utility.yul\":22379:22382   */\n      0x00\n        /* \"#utility.yul\":22400:22467   */\n      tag_491\n        /* \"#utility.yul\":22464:22466   */\n      0x12\n        /* \"#utility.yul\":22459:22462   */\n      dup4\n        /* \"#utility.yul\":22400:22467   */\n      tag_224\n      jump\t// in\n    tag_491:\n        /* \"#utility.yul\":22393:22467   */\n      swap2\n      pop\n        /* \"#utility.yul\":22476:22569   */\n      tag_492\n        /* \"#utility.yul\":22565:22568   */\n      dup3\n        /* \"#utility.yul\":22476:22569   */\n      tag_261\n      jump\t// in\n    tag_492:\n        /* \"#utility.yul\":22594:22596   */\n      0x20\n        /* \"#utility.yul\":22589:22592   */\n      dup3\n        /* \"#utility.yul\":22585:22597   */\n      add\n        /* \"#utility.yul\":22578:22597   */\n      swap1\n      pop\n        /* \"#utility.yul\":22237:22603   */\n      swap2\n      swap1\n      pop\n      jump\t// out\n        /* \"#utility.yul\":22609:23028   */\n    tag_140:\n        /* \"#utility.yul\":22775:22779   */\n      0x00\n        /* \"#utility.yul\":22813:22815   */\n      0x20\n        /* \"#utility.yul\":22802:22811   */\n      dup3\n        /* \"#utility.yul\":22798:22816   */\n      add\n        /* \"#utility.yul\":22790:22816   */\n      swap1\n      pop\n        /* \"#utility.yul\":22862:22871   */\n      dup2\n        /* \"#utility.yul\":22856:22860   */\n      dup2\n        /* \"#utility.yul\":22852:22872   */\n      sub\n        /* \"#utility.yul\":22848:22849   */\n      0x00\n        /* \"#utility.yul\":22837:22846   */\n      dup4\n        /* \"#utility.yul\":22833:22850   */\n      add\n        /* \"#utility.yul\":22826:22873   */\n      mstore\n        /* \"#utility.yul\":22890:23021   */\n      tag_494\n        /* \"#utility.yul\":23016:23020   */\n      dup2\n        /* \"#utility.yul\":22890:23021   */\n      tag_262\n      jump\t// in\n    tag_494:\n        /* \"#utility.yul\":22882:23021   */\n      swap1\n      pop\n        /* \"#utility.yul\":22609:23028   */\n      swap2\n      swap1\n      pop\n      jump\t// out\n        /* \"#utility.yul\":23034:23214   */\n    tag_146:\n        /* \"#utility.yul\":23082:23159   */\n      0x4e487b7100000000000000000000000000000000000000000000000000000000\n        /* \"#utility.yul\":23079:23080   */\n      0x00\n        /* \"#utility.yul\":23072:23160   */\n      mstore\n        /* \"#utility.yul\":23179:23183   */\n      0x32\n        /* \"#utility.yul\":23176:23177   */\n      0x04\n        /* \"#utility.yul\":23169:23184   */\n      mstore\n        /* \"#utility.yul\":23203:23207   */\n      0x24\n        /* \"#utility.yul\":23200:23201   */\n      0x00\n        /* \"#utility.yul\":23193:23208   */\n      revert\n        /* \"#utility.yul\":23220:23398   */\n    tag_263:\n        /* \"#utility.yul\":23360:23390   */\n      0x4f6e6c7920766f7465722063616e20636173742068697320766f746500000000\n        /* \"#utility.yul\":23356:23357   */\n      0x00\n        /* \"#utility.yul\":23348:23354   */\n      dup3\n        /* \"#utility.yul\":23344:23358   */\n      add\n        /* \"#utility.yul\":23337:23391   */\n      mstore\n        /* \"#utility.yul\":23220:23398   */\n      pop\n      jump\t// out\n        /* \"#utility.yul\":23404:23770   */\n    tag_264:\n        /* \"#utility.yul\":23546:23549   */\n      0x00\n        /* \"#utility.yul\":23567:23634   */\n      tag_498\n        /* \"#utility.yul\":23631:23633   */\n      0x1c\n        /* \"#utility.yul\":23626:23629   */\n      dup4\n        /* \"#utility.yul\":23567:23634   */\n      tag_224\n      jump\t// in\n    tag_498:\n        /* \"#utility.yul\":23560:23634   */\n      swap2\n      pop\n        /* \"#utility.yul\":23643:23736   */\n      tag_499\n        /* \"#utility.yul\":23732:23735   */\n      dup3\n        /* \"#utility.yul\":23643:23736   */\n      tag_263\n      jump\t// in\n    tag_499:\n        /* \"#utility.yul\":23761:23763   */\n      0x20\n        /* \"#utility.yul\":23756:23759   */\n      dup3\n        /* \"#utility.yul\":23752:23764   */\n      add\n        /* \"#utility.yul\":23745:23764   */\n      swap1\n      pop\n        /* \"#utility.yul\":23404:23770   */\n      swap2\n      swap1\n      pop\n      jump\t// out\n        /* \"#utility.yul\":23776:24195   */\n    tag_167:\n        /* \"#utility.yul\":23942:23946   */\n      0x00\n        /* \"#utility.yul\":23980:23982   */\n      0x20\n        /* \"#utility.yul\":23969:23978   */\n      dup3\n        /* \"#utility.yul\":23965:23983   */\n      add\n        /* \"#utility.yul\":23957:23983   */\n      swap1\n      pop\n        /* \"#utility.yul\":24029:24038   */\n      dup2\n        /* \"#utility.yul\":24023:24027   */\n      dup2\n        /* \"#utility.yul\":24019:24039   */\n      sub\n        /* \"#utility.yul\":24015:24016   */\n      0x00\n        /* \"#utility.yul\":24004:24013   */\n      dup4\n        /* \"#utility.yul\":24000:24017   */\n      add\n        /* \"#utility.yul\":23993:24040   */\n      mstore\n        /* \"#utility.yul\":24057:24188   */\n      tag_501\n        /* \"#utility.yul\":24183:24187   */\n      dup2\n        /* \"#utility.yul\":24057:24188   */\n      tag_264\n      jump\t// in\n    tag_501:\n        /* \"#utility.yul\":24049:24188   */\n      swap1\n      pop\n        /* \"#utility.yul\":23776:24195   */\n      swap2\n      swap1\n      pop\n      jump\t// out\n        /* \"#utility.yul\":24201:24370   */\n    tag_265:\n        /* \"#utility.yul\":24341:24362   */\n      0x566f74657220616c726561647920766f74656400000000000000000000000000\n        /* \"#utility.yul\":24337:24338   */\n      0x00\n        /* \"#utility.yul\":24329:24335   */\n      dup3\n        /* \"#utility.yul\":24325:24339   */\n      add\n        /* \"#utility.yul\":24318:24363   */\n      mstore\n        /* \"#utility.yul\":24201:24370   */\n      pop\n      jump\t// out\n        /* \"#utility.yul\":24376:24742   */\n    tag_266:\n        /* \"#utility.yul\":24518:24521   */\n      0x00\n        /* \"#utility.yul\":24539:24606   */\n      tag_504\n        /* \"#utility.yul\":24603:24605   */\n      0x13\n        /* \"#utility.yul\":24598:24601   */\n      dup4\n        /* \"#utility.yul\":24539:24606   */\n      tag_224\n      jump\t// in\n    tag_504:\n        /* \"#utility.yul\":24532:24606   */\n      swap2\n      pop\n        /* \"#utility.yul\":24615:24708   */\n      tag_505\n        /* \"#utility.yul\":24704:24707   */\n      dup3\n        /* \"#utility.yul\":24615:24708   */\n      tag_265\n      jump\t// in\n    tag_505:\n        /* \"#utility.yul\":24733:24735   */\n      0x20\n        /* \"#utility.yul\":24728:24731   */\n      dup3\n        /* \"#utility.yul\":24724:24736   */\n      add\n        /* \"#utility.yul\":24717:24736   */\n      swap1\n      pop\n        /* \"#utility.yul\":24376:24742   */\n      swap2\n      swap1\n      pop\n      jump\t// out\n        /* \"#utility.yul\":24748:25167   */\n    tag_170:\n        /* \"#utility.yul\":24914:24918   */\n      0x00\n        /* \"#utility.yul\":24952:24954   */\n      0x20\n        /* \"#utility.yul\":24941:24950   */\n      dup3\n        /* \"#utility.yul\":24937:24955   */\n      add\n        /* \"#utility.yul\":24929:24955   */\n      swap1\n      pop\n        /* \"#utility.yul\":25001:25010   */\n      dup2\n        /* \"#utility.yul\":24995:24999   */\n      dup2\n        /* \"#utility.yul\":24991:25011   */\n      sub\n        /* \"#utility.yul\":24987:24988   */\n      0x00\n        /* \"#utility.yul\":24976:24985   */\n      dup4\n        /* \"#utility.yul\":24972:24989   */\n      add\n        /* \"#utility.yul\":24965:25012   */\n      mstore\n        /* \"#utility.yul\":25029:25160   */\n      tag_507\n        /* \"#utility.yul\":25155:25159   */\n      dup2\n        /* \"#utility.yul\":25029:25160   */\n      tag_266\n      jump\t// in\n    tag_507:\n        /* \"#utility.yul\":25021:25160   */\n      swap1\n      pop\n        /* \"#utility.yul\":24748:25167   */\n      swap2\n      swap1\n      pop\n      jump\t// out\n        /* \"#utility.yul\":25173:25361   */\n    tag_172:\n        /* \"#utility.yul\":25211:25214   */\n      0x00\n        /* \"#utility.yul\":25230:25248   */\n      tag_509\n        /* \"#utility.yul\":25246:25247   */\n      dup3\n        /* \"#utility.yul\":25230:25248   */\n      tag_227\n      jump\t// in\n    tag_509:\n        /* \"#utility.yul\":25225:25248   */\n      swap2\n      pop\n        /* \"#utility.yul\":25262:25280   */\n      tag_510\n        /* \"#utility.yul\":25278:25279   */\n      dup4\n        /* \"#utility.yul\":25262:25280   */\n      tag_227\n      jump\t// in\n    tag_510:\n        /* \"#utility.yul\":25257:25280   */\n      swap3\n      pop\n        /* \"#utility.yul\":25303:25304   */\n      dup3\n        /* \"#utility.yul\":25300:25301   */\n      dup3\n        /* \"#utility.yul\":25296:25305   */\n      add\n        /* \"#utility.yul\":25289:25305   */\n      swap1\n      pop\n        /* \"#utility.yul\":25326:25330   */\n      0xff\n        /* \"#utility.yul\":25321:25324   */\n      dup2\n        /* \"#utility.yul\":25318:25331   */\n      gt\n        /* \"#utility.yul\":25315:25354   */\n      iszero\n      tag_511\n      jumpi\n        /* \"#utility.yul\":25334:25352   */\n      tag_512\n      tag_236\n      jump\t// in\n    tag_512:\n        /* \"#utility.yul\":25315:25354   */\n    tag_511:\n        /* \"#utility.yul\":25173:25361   */\n      swap3\n      swap2\n      pop\n      pop\n      jump\t// out\n        /* \"#utility.yul\":25367:25558   */\n    tag_174:\n        /* \"#utility.yul\":25405:25409   */\n      0x00\n        /* \"#utility.yul\":25425:25443   */\n      tag_514\n        /* \"#utility.yul\":25441:25442   */\n      dup3\n        /* \"#utility.yul\":25425:25443   */\n      tag_227\n      jump\t// in\n    tag_514:\n        /* \"#utility.yul\":25420:25443   */\n      swap2\n      pop\n        /* \"#utility.yul\":25457:25475   */\n      tag_515\n        /* \"#utility.yul\":25473:25474   */\n      dup4\n        /* \"#utility.yul\":25457:25475   */\n      tag_227\n      jump\t// in\n    tag_515:\n        /* \"#utility.yul\":25452:25475   */\n      swap3\n      pop\n        /* \"#utility.yul\":25499:25500   */\n      dup3\n        /* \"#utility.yul\":25496:25497   */\n      dup3\n        /* \"#utility.yul\":25492:25501   */\n      sub\n        /* \"#utility.yul\":25484:25501   */\n      swap1\n      pop\n        /* \"#utility.yul\":25523:25527   */\n      0xff\n        /* \"#utility.yul\":25517:25521   */\n      dup2\n        /* \"#utility.yul\":25514:25528   */\n      gt\n        /* \"#utility.yul\":25511:25551   */\n      iszero\n      tag_516\n      jumpi\n        /* \"#utility.yul\":25531:25549   */\n      tag_517\n      tag_236\n      jump\t// in\n    tag_517:\n        /* \"#utility.yul\":25511:25551   */\n    tag_516:\n        /* \"#utility.yul\":25367:25558   */\n      swap3\n      swap2\n      pop\n      pop\n      jump\t// out\n        /* \"#utility.yul\":25564:25746   */\n    tag_267:\n        /* \"#utility.yul\":25704:25738   */\n      0x4f6e6c7920766f7465722063616e2064656c69676174652068697320766f7465\n        /* \"#utility.yul\":25700:25701   */\n      0x00\n        /* \"#utility.yul\":25692:25698   */\n      dup3\n        /* \"#utility.yul\":25688:25702   */\n      add\n        /* \"#utility.yul\":25681:25739   */\n      mstore\n        /* \"#utility.yul\":25564:25746   */\n      pop\n      jump\t// out\n        /* \"#utility.yul\":25752:26118   */\n    tag_268:\n        /* \"#utility.yul\":25894:25897   */\n      0x00\n        /* \"#utility.yul\":25915:25982   */\n      tag_520\n        /* \"#utility.yul\":25979:25981   */\n      0x20\n        /* \"#utility.yul\":25974:25977   */\n      dup4\n        /* \"#utility.yul\":25915:25982   */\n      tag_224\n      jump\t// in\n    tag_520:\n        /* \"#utility.yul\":25908:25982   */\n      swap2\n      pop\n        /* \"#utility.yul\":25991:26084   */\n      tag_521\n        /* \"#utility.yul\":26080:26083   */\n      dup3\n        /* \"#utility.yul\":25991:26084   */\n      tag_267\n      jump\t// in\n    tag_521:\n        /* \"#utility.yul\":26109:26111   */\n      0x20\n        /* \"#utility.yul\":26104:26107   */\n      dup3\n        /* \"#utility.yul\":26100:26112   */\n      add\n        /* \"#utility.yul\":26093:26112   */\n      swap1\n      pop\n        /* \"#utility.yul\":25752:26118   */\n      swap2\n      swap1\n      pop\n      jump\t// out\n        /* \"#utility.yul\":26124:26543   */\n    tag_195:\n        /* \"#utility.yul\":26290:26294   */\n      0x00\n        /* \"#utility.yul\":26328:26330   */\n      0x20\n        /* \"#utility.yul\":26317:26326   */\n      dup3\n        /* \"#utility.yul\":26313:26331   */\n      add\n        /* \"#utility.yul\":26305:26331   */\n      swap1\n      pop\n        /* \"#utility.yul\":26377:26386   */\n      dup2\n        /* \"#utility.yul\":26371:26375   */\n      dup2\n        /* \"#utility.yul\":26367:26387   */\n      sub\n        /* \"#utility.yul\":26363:26364   */\n      0x00\n        /* \"#utility.yul\":26352:26361   */\n      dup4\n        /* \"#utility.yul\":26348:26365   */\n      add\n        /* \"#utility.yul\":26341:26388   */\n      mstore\n        /* \"#utility.yul\":26405:26536   */\n      tag_523\n        /* \"#utility.yul\":26531:26535   */\n      dup2\n        /* \"#utility.yul\":26405:26536   */\n      tag_268\n      jump\t// in\n    tag_523:\n        /* \"#utility.yul\":26397:26536   */\n      swap1\n      pop\n        /* \"#utility.yul\":26124:26543   */\n      swap2\n      swap1\n      pop\n      jump\t// out\n        /* \"#utility.yul\":26549:26715   */\n    tag_269:\n        /* \"#utility.yul\":26689:26707   */\n      0x766f746572206e6f742065786973747300000000000000000000000000000000\n        /* \"#utility.yul\":26685:26686   */\n      0x00\n        /* \"#utility.yul\":26677:26683   */\n      dup3\n        /* \"#utility.yul\":26673:26687   */\n      add\n        /* \"#utility.yul\":26666:26708   */\n      mstore\n        /* \"#utility.yul\":26549:26715   */\n      pop\n      jump\t// out\n        /* \"#utility.yul\":26721:27087   */\n    tag_270:\n        /* \"#utility.yul\":26863:26866   */\n      0x00\n        /* \"#utility.yul\":26884:26951   */\n      tag_526\n        /* \"#utility.yul\":26948:26950   */\n      0x10\n        /* \"#utility.yul\":26943:26946   */\n      dup4\n        /* \"#utility.yul\":26884:26951   */\n      tag_224\n      jump\t// in\n    tag_526:\n        /* \"#utility.yul\":26877:26951   */\n      swap2\n      pop\n        /* \"#utility.yul\":26960:27053   */\n      tag_527\n        /* \"#utility.yul\":27049:27052   */\n      dup3\n        /* \"#utility.yul\":26960:27053   */\n      tag_269\n      jump\t// in\n    tag_527:\n        /* \"#utility.yul\":27078:27080   */\n      0x20\n        /* \"#utility.yul\":27073:27076   */\n      dup3\n        /* \"#utility.yul\":27069:27081   */\n      add\n        /* \"#utility.yul\":27062:27081   */\n      swap1\n      pop\n        /* \"#utility.yul\":26721:27087   */\n      swap2\n      swap1\n      pop\n      jump\t// out\n        /* \"#utility.yul\":27093:27512   */\n    tag_198:\n        /* \"#utility.yul\":27259:27263   */\n      0x00\n        /* \"#utility.yul\":27297:27299   */\n      0x20\n        /* \"#utility.yul\":27286:27295   */\n      dup3\n        /* \"#utility.yul\":27282:27300   */\n      add\n        /* \"#utility.yul\":27274:27300   */\n      swap1\n      pop\n        /* \"#utility.yul\":27346:27355   */\n      dup2\n        /* \"#utility.yul\":27340:27344   */\n      dup2\n        /* \"#utility.yul\":27336:27356   */\n      sub\n        /* \"#utility.yul\":27332:27333   */\n      0x00\n        /* \"#utility.yul\":27321:27330   */\n      dup4\n        /* \"#utility.yul\":27317:27334   */\n      add\n        /* \"#utility.yul\":27310:27357   */\n      mstore\n        /* \"#utility.yul\":27374:27505   */\n      tag_529\n        /* \"#utility.yul\":27500:27504   */\n      dup2\n        /* \"#utility.yul\":27374:27505   */\n      tag_270\n      jump\t// in\n    tag_529:\n        /* \"#utility.yul\":27366:27505   */\n      swap1\n      pop\n        /* \"#utility.yul\":27093:27512   */\n      swap2\n      swap1\n      pop\n      jump\t// out\n        /* \"#utility.yul\":27518:27687   */\n    tag_271:\n        /* \"#utility.yul\":27658:27679   */\n      0x7265636569766572206e6f742065786973747300000000000000000000000000\n        /* \"#utility.yul\":27654:27655   */\n      0x00\n        /* \"#utility.yul\":27646:27652   */\n      dup3\n        /* \"#utility.yul\":27642:27656   */\n      add\n        /* \"#utility.yul\":27635:27680   */\n      mstore\n        /* \"#utility.yul\":27518:27687   */\n      pop\n      jump\t// out\n        /* \"#utility.yul\":27693:28059   */\n    tag_272:\n        /* \"#utility.yul\":27835:27838   */\n      0x00\n        /* \"#utility.yul\":27856:27923   */\n      tag_532\n        /* \"#utility.yul\":27920:27922   */\n      0x13\n        /* \"#utility.yul\":27915:27918   */\n      dup4\n        /* \"#utility.yul\":27856:27923   */\n      tag_224\n      jump\t// in\n    tag_532:\n        /* \"#utility.yul\":27849:27923   */\n      swap2\n      pop\n        /* \"#utility.yul\":27932:28025   */\n      tag_533\n        /* \"#utility.yul\":28021:28024   */\n      dup3\n        /* \"#utility.yul\":27932:28025   */\n      tag_271\n      jump\t// in\n    tag_533:\n        /* \"#utility.yul\":28050:28052   */\n      0x20\n        /* \"#utility.yul\":28045:28048   */\n      dup3\n        /* \"#utility.yul\":28041:28053   */\n      add\n        /* \"#utility.yul\":28034:28053   */\n      swap1\n      pop\n        /* \"#utility.yul\":27693:28059   */\n      swap2\n      swap1\n      pop\n      jump\t// out\n        /* \"#utility.yul\":28065:28484   */\n    tag_201:\n        /* \"#utility.yul\":28231:28235   */\n      0x00\n        /* \"#utility.yul\":28269:28271   */\n      0x20\n        /* \"#utility.yul\":28258:28267   */\n      dup3\n        /* \"#utility.yul\":28254:28272   */\n      add\n        /* \"#utility.yul\":28246:28272   */\n      swap1\n      pop\n        /* \"#utility.yul\":28318:28327   */\n      dup2\n        /* \"#utility.yul\":28312:28316   */\n      dup2\n        /* \"#utility.yul\":28308:28328   */\n      sub\n        /* \"#utility.yul\":28304:28305   */\n      0x00\n        /* \"#utility.yul\":28293:28302   */\n      dup4\n        /* \"#utility.yul\":28289:28306   */\n      add\n        /* \"#utility.yul\":28282:28329   */\n      mstore\n        /* \"#utility.yul\":28346:28477   */\n      tag_535\n        /* \"#utility.yul\":28472:28476   */\n      dup2\n        /* \"#utility.yul\":28346:28477   */\n      tag_272\n      jump\t// in\n    tag_535:\n        /* \"#utility.yul\":28338:28477   */\n      swap1\n      pop\n        /* \"#utility.yul\":28065:28484   */\n      swap2\n      swap1\n      pop\n      jump\t// out\n\n    auxdata: 0xa2646970667358221220956d924dcbfe1aca7bb2379293d401f61786c1a4f6716e8d7cccd9d6c7b3cbf864736f6c63430008120033\n}\n",
				"bytecode": {
					"linkReferences": {},
					"object": "6080604052735b38da6a701c568545dcfcb03fcb875f56beddc4600160006101000a81548173ffffffffffffffffffffffffffffffffffffffff021916908373ffffffffffffffffffffffffffffffffffffffff1602179055506000600160146101000a81548160ff02191690836002811115620000825762000081620001c7565b5b02179055506000600160156101000a81548160ff021916908360ff160217905550348015620000b057600080fd5b506040518060400160405280600b81526020017f4e4f545f535441525445440000000000000000000000000000000000000000008152506000808060ff16815260200190815260200160002090816200010a919062000470565b506040518060400160405280600781526020017f5354415254454400000000000000000000000000000000000000000000000000815250600080600160ff168152602001908152602001600020908162000165919062000470565b506040518060400160405280600581526020017f454e444544000000000000000000000000000000000000000000000000000000815250600080600260ff1681526020019081526020016000209081620001c0919062000470565b5062000557565b7f4e487b7100000000000000000000000000000000000000000000000000000000600052602160045260246000fd5b600081519050919050565b7f4e487b7100000000000000000000000000000000000000000000000000000000600052604160045260246000fd5b7f4e487b7100000000000000000000000000000000000000000000000000000000600052602260045260246000fd5b600060028204905060018216806200027857607f821691505b6020821081036200028e576200028d62000230565b5b50919050565b60008190508160005260206000209050919050565b60006020601f8301049050919050565b600082821b905092915050565b600060088302620002f87fffffffffffffffffffffffffffffffffffffffffffffffffffffffffffffffff82620002b9565b620003048683620002b9565b95508019841693508086168417925050509392505050565b6000819050919050565b6000819050919050565b6000620003516200034b62000345846200031c565b62000326565b6200031c565b9050919050565b6000819050919050565b6200036d8362000330565b620003856200037c8262000358565b848454620002c6565b825550505050565b600090565b6200039c6200038d565b620003a981848462000362565b505050565b5b81811015620003d157620003c560008262000392565b600181019050620003af565b5050565b601f8211156200042057620003ea8162000294565b620003f584620002a9565b8101602085101562000405578190505b6200041d6200041485620002a9565b830182620003ae565b50505b505050565b600082821c905092915050565b6000620004456000198460080262000425565b1980831691505092915050565b600062000460838362000432565b9150826002028217905092915050565b6200047b82620001f6565b67ffffffffffffffff81111562000497576200049662000201565b5b620004a382546200025f565b620004b0828285620003d5565b600060209050601f831160018114620004e85760008415620004d3578287015190505b620004df858262000452565b8655506200054f565b601f198416620004f88662000294565b60005b828110156200052257848901518255600182019150602085019450602081019050620004fb565b868310156200054257848901516200053e601f89168262000432565b8355505b6001600288020188555050505b505050505050565b6125fd80620005676000396000f3fe608060405234801561001057600080fd5b50600436106100b45760003560e01c806362d73eb81161007157806362d73eb814610155578063b7e032641461015f578063b81c64531461017f578063cde9370f1461019b578063d4f50f98146101ce578063e5ed5b1e14610202576100b4565b80630b32ff77146100b957806311174a29146100d5578063122902a6146100f357806330a56347146101115780635607395b1461012f57806359f784681461014b575b600080fd5b6100d360048036038101906100ce9190611849565b61021e565b005b6100dd6104ce565b6040516100ea91906118ed565b60405180910390f35b6100fb6104db565b6040516101089190611987565b60405180910390f35b6101196105a4565b60405161012691906118ed565b60405180910390f35b610149600480360381019061014491906119a9565b6105b1565b005b610153610745565b005b61015d610878565b005b6101676109e7565b60405161017693929190611a21565b60405180910390f35b61019960048036038101906101949190611a8b565b610d15565b005b6101b560048036038101906101b09190611acb565b610f3f565b6040516101c59493929190611b07565b60405180910390f35b6101e860048036038101906101e39190611b5a565b6110e3565b6040516101f9959493929190611b87565b60405180910390f35b61021c60048036038101906102179190611be1565b611332565b005b600160009054906101000a900473ffffffffffffffffffffffffffffffffffffffff1673ffffffffffffffffffffffffffffffffffffffff163373ffffffffffffffffffffffffffffffffffffffff16146102ae576040517f08c379a00000000000000000000000000000000000000000000000000000000081526004016102a590611c93565b60405180910390fd5b600060028111156102c2576102c1611cb3565b5b600160149054906101000a900460ff1660028111156102e4576102e3611cb3565b5b148061032257506002808111156102fe576102fd611cb3565b5b600160149054906101000a900460ff1660028111156103205761031f611cb3565b5b145b610361576040517f08c379a000000000000000000000000000000000000000000000000000000000815260040161035890611d2e565b60405180910390fd5b6001601581819054906101000a900460ff168092919061038090611d7d565b91906101000a81548160ff021916908360ff160217905550508260026000600160159054906101000a900460ff1660ff1660ff16815260200190815260200160002060000190816103d19190611fb2565b508160026000600160159054906101000a900460ff1660ff1660ff168152602001908152602001600020600201908161040a9190611fb2565b508060026000600160159054906101000a900460ff1660ff1660ff16815260200190815260200160002060010160006101000a81548173ffffffffffffffffffffffffffffffffffffffff021916908373ffffffffffffffffffffffffffffffffffffffff1602179055506004600160159054906101000a900460ff1690806001815401808255809150506001900390600052602060002090602091828204019190069091909190916101000a81548160ff021916908360ff160217905550505050565b6000600580549050905090565b6060600080600160149054906101000a900460ff16600281111561050257610501611cb3565b5b60ff1660ff168152602001908152602001600020805461052190611dd5565b80601f016020809104026020016040519081016040528092919081815260200182805461054d90611dd5565b801561059a5780601f1061056f5761010080835404028352916020019161059a565b820191906000526020600020905b81548152906001019060200180831161057d57829003601f168201915b5050505050905090565b6000600480549050905090565b81600360008373ffffffffffffffffffffffffffffffffffffffff1673ffffffffffffffffffffffffffffffffffffffff16815260200190815260200160002060000190816106009190611fb2565b5080600360008373ffffffffffffffffffffffffffffffffffffffff1673ffffffffffffffffffffffffffffffffffffffff16815260200190815260200160002060010160006101000a81548173ffffffffffffffffffffffffffffffffffffffff021916908373ffffffffffffffffffffffffffffffffffffffff1602179055506001600360008373ffffffffffffffffffffffffffffffffffffffff1673ffffffffffffffffffffffffffffffffffffffff16815260200190815260200160002060010160146101000a81548160ff021916908360ff1602179055506005819080600181540180825580915050600190039060005260206000200160009091909190916101000a81548173ffffffffffffffffffffffffffffffffffffffff021916908373ffffffffffffffffffffffffffffffffffffffff1602179055505050565b600160009054906101000a900473ffffffffffffffffffffffffffffffffffffffff1673ffffffffffffffffffffffffffffffffffffffff163373ffffffffffffffffffffffffffffffffffffffff16146107d5576040517f08c379a00000000000000000000000000000000000000000000000000000000081526004016107cc906120f6565b60405180910390fd5b600160028111156107e9576107e8611cb3565b5b600160149054906101000a900460ff16600281111561080b5761080a611cb3565b5b1461084b576040517f08c379a000000000000000000000000000000000000000000000000000000000815260040161084290612162565b60405180910390fd5b6002600160146101000a81548160ff0219169083600281111561087157610870611cb3565b5b0217905550565b600160009054906101000a900473ffffffffffffffffffffffffffffffffffffffff1673ffffffffffffffffffffffffffffffffffffffff163373ffffffffffffffffffffffffffffffffffffffff1614610908576040517f08c379a00000000000000000000000000000000000000000000000000000000081526004016108ff906121f4565b60405180910390fd5b6000600281111561091c5761091b611cb3565b5b600160149054906101000a900460ff16600281111561093e5761093d611cb3565b5b148061097c575060028081111561095857610957611cb3565b5b600160149054906101000a900460ff16600281111561097a57610979611cb3565b5b145b6109bb576040517f08c379a00000000000000000000000000000000000000000000000000000000081526004016109b290611d2e565b60405180910390fd5b60018060146101000a81548160ff021916908360028111156109e0576109df611cb3565b5b0217905550565b600060606000600160009054906101000a900473ffffffffffffffffffffffffffffffffffffffff1673ffffffffffffffffffffffffffffffffffffffff163373ffffffffffffffffffffffffffffffffffffffff1614610a7d576040517f08c379a0000000000000000000000000000000000000000000000000000000008152600401610a7490612286565b60405180910390fd5b600280811115610a9057610a8f611cb3565b5b600160149054906101000a900460ff166002811115610ab257610ab1611cb3565b5b14610af2576040517f08c379a0000000000000000000000000000000000000000000000000000000008152600401610ae9906122f2565b60405180910390fd5b600060606000805b6004805490508160ff161015610d03576002600060048360ff1681548110610b2557610b24612312565b5b90600052602060002090602091828204019190069054906101000a900460ff1660ff1660ff16815260200190815260200160002060030160009054906101000a900460ff1660ff168260ff161015610cf05760048160ff1681548110610b8e57610b8d612312565b5b90600052602060002090602091828204019190069054906101000a900460ff1693506002600060048360ff1681548110610bcb57610bca612312565b5b90600052602060002090602091828204019190069054906101000a900460ff1660ff1660ff1681526020019081526020016000206000018054610c0d90611dd5565b80601f0160208091040260200160405190810160405280929190818152602001828054610c3990611dd5565b8015610c865780601f10610c5b57610100808354040283529160200191610c86565b820191906000526020600020905b815481529060010190602001808311610c6957829003601f168201915b505050505092506002600060048360ff1681548110610ca857610ca7612312565b5b90600052602060002090602091828204019190069054906101000a900460ff1660ff1660ff16815260200190815260200160002060030160009054906101000a900460ff1691505b8080610cfb90611d7d565b915050610afa565b50828282955095509550505050909192565b8073ffffffffffffffffffffffffffffffffffffffff163373ffffffffffffffffffffffffffffffffffffffff1614610d83576040517f08c379a0000000000000000000000000000000000000000000000000000000008152600401610d7a9061238d565b60405180910390fd5b6000600360008373ffffffffffffffffffffffffffffffffffffffff1673ffffffffffffffffffffffffffffffffffffffff16815260200190815260200160002060010160149054906101000a900460ff1660ff1611610e18576040517f08c379a0000000000000000000000000000000000000000000000000000000008152600401610e0f906123f9565b60405180910390fd5b6001600260008460ff1660ff16815260200190815260200160002060030160008282829054906101000a900460ff16610e519190612419565b92506101000a81548160ff021916908360ff1602179055506001600360008373ffffffffffffffffffffffffffffffffffffffff1673ffffffffffffffffffffffffffffffffffffffff16815260200190815260200160002060010160148282829054906101000a900460ff16610ec8919061244e565b92506101000a81548160ff021916908360ff16021790555081600360008373ffffffffffffffffffffffffffffffffffffffff1673ffffffffffffffffffffffffffffffffffffffff16815260200190815260200160002060020160146101000a81548160ff021916908360ff1602179055505050565b6000606080600084600260008760ff1660ff168152602001908152602001600020600001600260008860ff1660ff168152602001908152602001600020600201600260008960ff1660ff16815260200190815260200160002060010160009054906101000a900473ffffffffffffffffffffffffffffffffffffffff16828054610fc890611dd5565b80601f0160208091040260200160405190810160405280929190818152602001828054610ff490611dd5565b80156110415780601f1061101657610100808354040283529160200191611041565b820191906000526020600020905b81548152906001019060200180831161102457829003601f168201915b5050505050925081805461105490611dd5565b80601f016020809104026020016040519081016040528092919081815260200182805461108090611dd5565b80156110cd5780601f106110a2576101008083540402835291602001916110cd565b820191906000526020600020905b8154815290600101906020018083116110b057829003601f168201915b5050505050915093509350935093509193509193565b6060600080600080600360008773ffffffffffffffffffffffffffffffffffffffff1673ffffffffffffffffffffffffffffffffffffffff168152602001908152602001600020600001600360008873ffffffffffffffffffffffffffffffffffffffff1673ffffffffffffffffffffffffffffffffffffffff16815260200190815260200160002060010160009054906101000a900473ffffffffffffffffffffffffffffffffffffffff16600360008973ffffffffffffffffffffffffffffffffffffffff1673ffffffffffffffffffffffffffffffffffffffff16815260200190815260200160002060020160009054906101000a900473ffffffffffffffffffffffffffffffffffffffff16600360008a73ffffffffffffffffffffffffffffffffffffffff1673ffffffffffffffffffffffffffffffffffffffff16815260200190815260200160002060010160149054906101000a900460ff16600360008b73ffffffffffffffffffffffffffffffffffffffff1673ffffffffffffffffffffffffffffffffffffffff16815260200190815260200160002060020160149054906101000a900460ff1684805461129f90611dd5565b80601f01602080910402602001604051908101604052809291908181526020018280546112cb90611dd5565b80156113185780601f106112ed57610100808354040283529160200191611318565b820191906000526020600020905b8154815290600101906020018083116112fb57829003601f168201915b505050505094509450945094509450945091939590929450565b8173ffffffffffffffffffffffffffffffffffffffff163373ffffffffffffffffffffffffffffffffffffffff16146113a0576040517f08c379a0000000000000000000000000000000000000000000000000000000008152600401611397906124cf565b60405180910390fd5b6000600360008473ffffffffffffffffffffffffffffffffffffffff1673ffffffffffffffffffffffffffffffffffffffff16815260200190815260200160002060010160149054906101000a900460ff1660ff1611611435576040517f08c379a000000000000000000000000000000000000000000000000000000000815260040161142c9061253b565b60405180910390fd5b6000600360008373ffffffffffffffffffffffffffffffffffffffff1673ffffffffffffffffffffffffffffffffffffffff16815260200190815260200160002060010160149054906101000a900460ff1660ff16116114ca576040517f08c379a00000000000000000000000000000000000000000000000000000000081526004016114c1906125a7565b60405180910390fd5b6000600360008473ffffffffffffffffffffffffffffffffffffffff1673ffffffffffffffffffffffffffffffffffffffff16815260200190815260200160002060010160149054906101000a900460ff16905080600360008473ffffffffffffffffffffffffffffffffffffffff1673ffffffffffffffffffffffffffffffffffffffff16815260200190815260200160002060010160148282829054906101000a900460ff1661157c9190612419565b92506101000a81548160ff021916908360ff1602179055506001600360008573ffffffffffffffffffffffffffffffffffffffff1673ffffffffffffffffffffffffffffffffffffffff16815260200190815260200160002060010160148282829054906101000a900460ff166115f3919061244e565b92506101000a81548160ff021916908360ff16021790555081600360008573ffffffffffffffffffffffffffffffffffffffff1673ffffffffffffffffffffffffffffffffffffffff16815260200190815260200160002060020160006101000a81548173ffffffffffffffffffffffffffffffffffffffff021916908373ffffffffffffffffffffffffffffffffffffffff160217905550505050565b6000604051905090565b600080fd5b600080fd5b600080fd5b600080fd5b6000601f19601f8301169050919050565b7f4e487b7100000000000000000000000000000000000000000000000000000000600052604160045260246000fd5b6116f8826116af565b810181811067ffffffffffffffff82111715611717576117166116c0565b5b80604052505050565b600061172a611691565b905061173682826116ef565b919050565b600067ffffffffffffffff821115611756576117556116c0565b5b61175f826116af565b9050602081019050919050565b82818337600083830152505050565b600061178e6117898461173b565b611720565b9050828152602081018484840111156117aa576117a96116aa565b5b6117b584828561176c565b509392505050565b600082601f8301126117d2576117d16116a5565b5b81356117e284826020860161177b565b91505092915050565b600073ffffffffffffffffffffffffffffffffffffffff82169050919050565b6000611816826117eb565b9050919050565b6118268161180b565b811461183157600080fd5b50565b6000813590506118438161181d565b92915050565b6000806000606084860312156118625761186161169b565b5b600084013567ffffffffffffffff8111156118805761187f6116a0565b5b61188c868287016117bd565b935050602084013567ffffffffffffffff8111156118ad576118ac6116a0565b5b6118b9868287016117bd565b92505060406118ca86828701611834565b9150509250925092565b6000819050919050565b6118e7816118d4565b82525050565b600060208201905061190260008301846118de565b92915050565b600081519050919050565b600082825260208201905092915050565b60005b83811015611942578082015181840152602081019050611927565b60008484015250505050565b600061195982611908565b6119638185611913565b9350611973818560208601611924565b61197c816116af565b840191505092915050565b600060208201905081810360008301526119a1818461194e565b905092915050565b600080604083850312156119c0576119bf61169b565b5b600083013567ffffffffffffffff8111156119de576119dd6116a0565b5b6119ea858286016117bd565b92505060206119fb85828601611834565b9150509250929050565b600060ff82169050919050565b611a1b81611a05565b82525050565b6000606082019050611a366000830186611a12565b8181036020830152611a48818561194e565b9050611a576040830184611a12565b949350505050565b611a6881611a05565b8114611a7357600080fd5b50565b600081359050611a8581611a5f565b92915050565b60008060408385031215611aa257611aa161169b565b5b6000611ab085828601611a76565b9250506020611ac185828601611834565b9150509250929050565b600060208284031215611ae157611ae061169b565b5b6000611aef84828501611a76565b91505092915050565b611b018161180b565b82525050565b6000608082019050611b1c6000830187611a12565b8181036020830152611b2e818661194e565b90508181036040830152611b42818561194e565b9050611b516060830184611af8565b95945050505050565b600060208284031215611b7057611b6f61169b565b5b6000611b7e84828501611834565b91505092915050565b600060a0820190508181036000830152611ba1818861194e565b9050611bb06020830187611af8565b611bbd6040830186611af8565b611bca6060830185611a12565b611bd76080830184611a12565b9695505050505050565b60008060408385031215611bf857611bf761169b565b5b6000611c0685828601611834565b9250506020611c1785828601611834565b9150509250929050565b7f4f6e6c792061646d696e20697320616c6c6f77656420746f206164642063616e60008201527f6469646174650000000000000000000000000000000000000000000000000000602082015250565b6000611c7d602683611913565b9150611c8882611c21565b604082019050919050565b60006020820190508181036000830152611cac81611c70565b9050919050565b7f4e487b7100000000000000000000000000000000000000000000000000000000600052602160045260246000fd5b7f456c656374696f6e20616c726561647920737461727465640000000000000000600082015250565b6000611d18601883611913565b9150611d2382611ce2565b602082019050919050565b60006020820190508181036000830152611d4781611d0b565b9050919050565b7f4e487b7100000000000000000000000000000000000000000000000000000000600052601160045260246000fd5b6000611d8882611a05565b915060ff8203611d9b57611d9a611d4e565b5b600182019050919050565b7f4e487b7100000000000000000000000000000000000000000000000000000000600052602260045260246000fd5b60006002820490506001821680611ded57607f821691505b602082108103611e0057611dff611da6565b5b50919050565b60008190508160005260206000209050919050565b60006020601f8301049050919050565b600082821b905092915050565b600060088302611e687fffffffffffffffffffffffffffffffffffffffffffffffffffffffffffffffff82611e2b565b611e728683611e2b565b95508019841693508086168417925050509392505050565b6000819050919050565b6000611eaf611eaa611ea5846118d4565b611e8a565b6118d4565b9050919050565b6000819050919050565b611ec983611e94565b611edd611ed582611eb6565b848454611e38565b825550505050565b600090565b611ef2611ee5565b611efd818484611ec0565b505050565b5b81811015611f2157611f16600082611eea565b600181019050611f03565b5050565b601f821115611f6657611f3781611e06565b611f4084611e1b565b81016020851015611f4f578190505b611f63611f5b85611e1b565b830182611f02565b50505b505050565b600082821c905092915050565b6000611f8960001984600802611f6b565b1980831691505092915050565b6000611fa28383611f78565b9150826002028217905092915050565b611fbb82611908565b67ffffffffffffffff811115611fd457611fd36116c0565b5b611fde8254611dd5565b611fe9828285611f25565b600060209050601f83116001811461201c576000841561200a578287015190505b6120148582611f96565b86555061207c565b601f19841661202a86611e06565b60005b828110156120525784890151825560018201915060208501945060208101905061202d565b8683101561206f578489015161206b601f891682611f78565b8355505b6001600288020188555050505b505050505050565b7f4f6e6c792061646d696e20697320616c6c6f77656420746f20656e6420656c6560008201527f6374696f6e000000000000000000000000000000000000000000000000000000602082015250565b60006120e0602583611913565b91506120eb82612084565b604082019050919050565b6000602082019050818103600083015261210f816120d3565b9050919050565b7f656c656374696f6e206973206e6f742073746172746564000000000000000000600082015250565b600061214c601783611913565b915061215782612116565b602082019050919050565b6000602082019050818103600083015261217b8161213f565b9050919050565b7f4f6e6c792061646d696e20697320616c6c6f77656420746f207374617274206560008201527f6c656374696f6e00000000000000000000000000000000000000000000000000602082015250565b60006121de602783611913565b91506121e982612182565b604082019050919050565b6000602082019050818103600083015261220d816121d1565b9050919050565b7f4f6e6c792061646d696e20697320616c6c6f77656420746f2072657665616c2060008201527f7468652077696e6e657200000000000000000000000000000000000000000000602082015250565b6000612270602a83611913565b915061227b82612214565b604082019050919050565b6000602082019050818103600083015261229f81612263565b9050919050565b7f456c656374696f6e206e6f7420656e6465640000000000000000000000000000600082015250565b60006122dc601283611913565b91506122e7826122a6565b602082019050919050565b6000602082019050818103600083015261230b816122cf565b9050919050565b7f4e487b7100000000000000000000000000000000000000000000000000000000600052603260045260246000fd5b7f4f6e6c7920766f7465722063616e20636173742068697320766f746500000000600082015250565b6000612377601c83611913565b915061238282612341565b602082019050919050565b600060208201905081810360008301526123a68161236a565b9050919050565b7f566f74657220616c726561647920766f74656400000000000000000000000000600082015250565b60006123e3601383611913565b91506123ee826123ad565b602082019050919050565b60006020820190508181036000830152612412816123d6565b9050919050565b600061242482611a05565b915061242f83611a05565b9250828201905060ff81111561244857612447611d4e565b5b92915050565b600061245982611a05565b915061246483611a05565b9250828203905060ff81111561247d5761247c611d4e565b5b92915050565b7f4f6e6c7920766f7465722063616e2064656c69676174652068697320766f7465600082015250565b60006124b9602083611913565b91506124c482612483565b602082019050919050565b600060208201905081810360008301526124e8816124ac565b9050919050565b7f766f746572206e6f742065786973747300000000000000000000000000000000600082015250565b6000612525601083611913565b9150612530826124ef565b602082019050919050565b6000602082019050818103600083015261255481612518565b9050919050565b7f7265636569766572206e6f742065786973747300000000000000000000000000600082015250565b6000612591601383611913565b915061259c8261255b565b602082019050919050565b600060208201905081810360008301526125c081612584565b905091905056fea2646970667358221220956d924dcbfe1aca7bb2379293d401f61786c1a4f6716e8d7cccd9d6c7b3cbf864736f6c63430008120033",
					"opcodes": "PUSH1 0x80 PUSH1 0x40 MSTORE PUSH20 0x5B38DA6A701C568545DCFCB03FCB875F56BEDDC4 PUSH1 0x1 PUSH1 0x0 PUSH2 0x100 EXP DUP2 SLOAD DUP2 PUSH20 0xFFFFFFFFFFFFFFFFFFFFFFFFFFFFFFFFFFFFFFFF MUL NOT AND SWAP1 DUP4 PUSH20 0xFFFFFFFFFFFFFFFFFFFFFFFFFFFFFFFFFFFFFFFF AND MUL OR SWAP1 SSTORE POP PUSH1 0x0 PUSH1 0x1 PUSH1 0x14 PUSH2 0x100 EXP DUP2 SLOAD DUP2 PUSH1 0xFF MUL NOT AND SWAP1 DUP4 PUSH1 0x2 DUP2 GT ISZERO PUSH3 0x82 JUMPI PUSH3 0x81 PUSH3 0x1C7 JUMP JUMPDEST JUMPDEST MUL OR SWAP1 SSTORE POP PUSH1 0x0 PUSH1 0x1 PUSH1 0x15 PUSH2 0x100 EXP DUP2 SLOAD DUP2 PUSH1 0xFF MUL NOT AND SWAP1 DUP4 PUSH1 0xFF AND MUL OR SWAP1 SSTORE POP CALLVALUE DUP1 ISZERO PUSH3 0xB0 JUMPI PUSH1 0x0 DUP1 REVERT JUMPDEST POP PUSH1 0x40 MLOAD DUP1 PUSH1 0x40 ADD PUSH1 0x40 MSTORE DUP1 PUSH1 0xB DUP2 MSTORE PUSH1 0x20 ADD PUSH32 0x4E4F545F53544152544544000000000000000000000000000000000000000000 DUP2 MSTORE POP PUSH1 0x0 DUP1 DUP1 PUSH1 0xFF AND DUP2 MSTORE PUSH1 0x20 ADD SWAP1 DUP2 MSTORE PUSH1 0x20 ADD PUSH1 0x0 KECCAK256 SWAP1 DUP2 PUSH3 0x10A SWAP2 SWAP1 PUSH3 0x470 JUMP JUMPDEST POP PUSH1 0x40 MLOAD DUP1 PUSH1 0x40 ADD PUSH1 0x40 MSTORE DUP1 PUSH1 0x7 DUP2 MSTORE PUSH1 0x20 ADD PUSH32 0x5354415254454400000000000000000000000000000000000000000000000000 DUP2 MSTORE POP PUSH1 0x0 DUP1 PUSH1 0x1 PUSH1 0xFF AND DUP2 MSTORE PUSH1 0x20 ADD SWAP1 DUP2 MSTORE PUSH1 0x20 ADD PUSH1 0x0 KECCAK256 SWAP1 DUP2 PUSH3 0x165 SWAP2 SWAP1 PUSH3 0x470 JUMP JUMPDEST POP PUSH1 0x40 MLOAD DUP1 PUSH1 0x40 ADD PUSH1 0x40 MSTORE DUP1 PUSH1 0x5 DUP2 MSTORE PUSH1 0x20 ADD PUSH32 0x454E444544000000000000000000000000000000000000000000000000000000 DUP2 MSTORE POP PUSH1 0x0 DUP1 PUSH1 0x2 PUSH1 0xFF AND DUP2 MSTORE PUSH1 0x20 ADD SWAP1 DUP2 MSTORE PUSH1 0x20 ADD PUSH1 0x0 KECCAK256 SWAP1 DUP2 PUSH3 0x1C0 SWAP2 SWAP1 PUSH3 0x470 JUMP JUMPDEST POP PUSH3 0x557 JUMP JUMPDEST PUSH32 0x4E487B7100000000000000000000000000000000000000000000000000000000 PUSH1 0x0 MSTORE PUSH1 0x21 PUSH1 0x4 MSTORE PUSH1 0x24 PUSH1 0x0 REVERT JUMPDEST PUSH1 0x0 DUP2 MLOAD SWAP1 POP SWAP2 SWAP1 POP JUMP JUMPDEST PUSH32 0x4E487B7100000000000000000000000000000000000000000000000000000000 PUSH1 0x0 MSTORE PUSH1 0x41 PUSH1 0x4 MSTORE PUSH1 0x24 PUSH1 0x0 REVERT JUMPDEST PUSH32 0x4E487B7100000000000000000000000000000000000000000000000000000000 PUSH1 0x0 MSTORE PUSH1 0x22 PUSH1 0x4 MSTORE PUSH1 0x24 PUSH1 0x0 REVERT JUMPDEST PUSH1 0x0 PUSH1 0x2 DUP3 DIV SWAP1 POP PUSH1 0x1 DUP3 AND DUP1 PUSH3 0x278 JUMPI PUSH1 0x7F DUP3 AND SWAP2 POP JUMPDEST PUSH1 0x20 DUP3 LT DUP2 SUB PUSH3 0x28E JUMPI PUSH3 0x28D PUSH3 0x230 JUMP JUMPDEST JUMPDEST POP SWAP2 SWAP1 POP JUMP JUMPDEST PUSH1 0x0 DUP2 SWAP1 POP DUP2 PUSH1 0x0 MSTORE PUSH1 0x20 PUSH1 0x0 KECCAK256 SWAP1 POP SWAP2 SWAP1 POP JUMP JUMPDEST PUSH1 0x0 PUSH1 0x20 PUSH1 0x1F DUP4 ADD DIV SWAP1 POP SWAP2 SWAP1 POP JUMP JUMPDEST PUSH1 0x0 DUP3 DUP3 SHL SWAP1 POP SWAP3 SWAP2 POP POP JUMP JUMPDEST PUSH1 0x0 PUSH1 0x8 DUP4 MUL PUSH3 0x2F8 PUSH32 0xFFFFFFFFFFFFFFFFFFFFFFFFFFFFFFFFFFFFFFFFFFFFFFFFFFFFFFFFFFFFFFFF DUP3 PUSH3 0x2B9 JUMP JUMPDEST PUSH3 0x304 DUP7 DUP4 PUSH3 0x2B9 JUMP JUMPDEST SWAP6 POP DUP1 NOT DUP5 AND SWAP4 POP DUP1 DUP7 AND DUP5 OR SWAP3 POP POP POP SWAP4 SWAP3 POP POP POP JUMP JUMPDEST PUSH1 0x0 DUP2 SWAP1 POP SWAP2 SWAP1 POP JUMP JUMPDEST PUSH1 0x0 DUP2 SWAP1 POP SWAP2 SWAP1 POP JUMP JUMPDEST PUSH1 0x0 PUSH3 0x351 PUSH3 0x34B PUSH3 0x345 DUP5 PUSH3 0x31C JUMP JUMPDEST PUSH3 0x326 JUMP JUMPDEST PUSH3 0x31C JUMP JUMPDEST SWAP1 POP SWAP2 SWAP1 POP JUMP JUMPDEST PUSH1 0x0 DUP2 SWAP1 POP SWAP2 SWAP1 POP JUMP JUMPDEST PUSH3 0x36D DUP4 PUSH3 0x330 JUMP JUMPDEST PUSH3 0x385 PUSH3 0x37C DUP3 PUSH3 0x358 JUMP JUMPDEST DUP5 DUP5 SLOAD PUSH3 0x2C6 JUMP JUMPDEST DUP3 SSTORE POP POP POP POP JUMP JUMPDEST PUSH1 0x0 SWAP1 JUMP JUMPDEST PUSH3 0x39C PUSH3 0x38D JUMP JUMPDEST PUSH3 0x3A9 DUP2 DUP5 DUP5 PUSH3 0x362 JUMP JUMPDEST POP POP POP JUMP JUMPDEST JUMPDEST DUP2 DUP2 LT ISZERO PUSH3 0x3D1 JUMPI PUSH3 0x3C5 PUSH1 0x0 DUP3 PUSH3 0x392 JUMP JUMPDEST PUSH1 0x1 DUP2 ADD SWAP1 POP PUSH3 0x3AF JUMP JUMPDEST POP POP JUMP JUMPDEST PUSH1 0x1F DUP3 GT ISZERO PUSH3 0x420 JUMPI PUSH3 0x3EA DUP2 PUSH3 0x294 JUMP JUMPDEST PUSH3 0x3F5 DUP5 PUSH3 0x2A9 JUMP JUMPDEST DUP2 ADD PUSH1 0x20 DUP6 LT ISZERO PUSH3 0x405 JUMPI DUP2 SWAP1 POP JUMPDEST PUSH3 0x41D PUSH3 0x414 DUP6 PUSH3 0x2A9 JUMP JUMPDEST DUP4 ADD DUP3 PUSH3 0x3AE JUMP JUMPDEST POP POP JUMPDEST POP POP POP JUMP JUMPDEST PUSH1 0x0 DUP3 DUP3 SHR SWAP1 POP SWAP3 SWAP2 POP POP JUMP JUMPDEST PUSH1 0x0 PUSH3 0x445 PUSH1 0x0 NOT DUP5 PUSH1 0x8 MUL PUSH3 0x425 JUMP JUMPDEST NOT DUP1 DUP4 AND SWAP2 POP POP SWAP3 SWAP2 POP POP JUMP JUMPDEST PUSH1 0x0 PUSH3 0x460 DUP4 DUP4 PUSH3 0x432 JUMP JUMPDEST SWAP2 POP DUP3 PUSH1 0x2 MUL DUP3 OR SWAP1 POP SWAP3 SWAP2 POP POP JUMP JUMPDEST PUSH3 0x47B DUP3 PUSH3 0x1F6 JUMP JUMPDEST PUSH8 0xFFFFFFFFFFFFFFFF DUP2 GT ISZERO PUSH3 0x497 JUMPI PUSH3 0x496 PUSH3 0x201 JUMP JUMPDEST JUMPDEST PUSH3 0x4A3 DUP3 SLOAD PUSH3 0x25F JUMP JUMPDEST PUSH3 0x4B0 DUP3 DUP3 DUP6 PUSH3 0x3D5 JUMP JUMPDEST PUSH1 0x0 PUSH1 0x20 SWAP1 POP PUSH1 0x1F DUP4 GT PUSH1 0x1 DUP2 EQ PUSH3 0x4E8 JUMPI PUSH1 0x0 DUP5 ISZERO PUSH3 0x4D3 JUMPI DUP3 DUP8 ADD MLOAD SWAP1 POP JUMPDEST PUSH3 0x4DF DUP6 DUP3 PUSH3 0x452 JUMP JUMPDEST DUP7 SSTORE POP PUSH3 0x54F JUMP JUMPDEST PUSH1 0x1F NOT DUP5 AND PUSH3 0x4F8 DUP7 PUSH3 0x294 JUMP JUMPDEST PUSH1 0x0 JUMPDEST DUP3 DUP2 LT ISZERO PUSH3 0x522 JUMPI DUP5 DUP10 ADD MLOAD DUP3 SSTORE PUSH1 0x1 DUP3 ADD SWAP2 POP PUSH1 0x20 DUP6 ADD SWAP5 POP PUSH1 0x20 DUP2 ADD SWAP1 POP PUSH3 0x4FB JUMP JUMPDEST DUP7 DUP4 LT ISZERO PUSH3 0x542 JUMPI DUP5 DUP10 ADD MLOAD PUSH3 0x53E PUSH1 0x1F DUP10 AND DUP3 PUSH3 0x432 JUMP JUMPDEST DUP4 SSTORE POP JUMPDEST PUSH1 0x1 PUSH1 0x2 DUP9 MUL ADD DUP9 SSTORE POP POP POP JUMPDEST POP POP POP POP POP POP JUMP JUMPDEST PUSH2 0x25FD DUP1 PUSH3 0x567 PUSH1 0x0 CODECOPY PUSH1 0x0 RETURN INVALID PUSH1 0x80 PUSH1 0x40 MSTORE CALLVALUE DUP1 ISZERO PUSH2 0x10 JUMPI PUSH1 0x0 DUP1 REVERT JUMPDEST POP PUSH1 0x4 CALLDATASIZE LT PUSH2 0xB4 JUMPI PUSH1 0x0 CALLDATALOAD PUSH1 0xE0 SHR DUP1 PUSH4 0x62D73EB8 GT PUSH2 0x71 JUMPI DUP1 PUSH4 0x62D73EB8 EQ PUSH2 0x155 JUMPI DUP1 PUSH4 0xB7E03264 EQ PUSH2 0x15F JUMPI DUP1 PUSH4 0xB81C6453 EQ PUSH2 0x17F JUMPI DUP1 PUSH4 0xCDE9370F EQ PUSH2 0x19B JUMPI DUP1 PUSH4 0xD4F50F98 EQ PUSH2 0x1CE JUMPI DUP1 PUSH4 0xE5ED5B1E EQ PUSH2 0x202 JUMPI PUSH2 0xB4 JUMP JUMPDEST DUP1 PUSH4 0xB32FF77 EQ PUSH2 0xB9 JUMPI DUP1 PUSH4 0x11174A29 EQ PUSH2 0xD5 JUMPI DUP1 PUSH4 0x122902A6 EQ PUSH2 0xF3 JUMPI DUP1 PUSH4 0x30A56347 EQ PUSH2 0x111 JUMPI DUP1 PUSH4 0x5607395B EQ PUSH2 0x12F JUMPI DUP1 PUSH4 0x59F78468 EQ PUSH2 0x14B JUMPI JUMPDEST PUSH1 0x0 DUP1 REVERT JUMPDEST PUSH2 0xD3 PUSH1 0x4 DUP1 CALLDATASIZE SUB DUP2 ADD SWAP1 PUSH2 0xCE SWAP2 SWAP1 PUSH2 0x1849 JUMP JUMPDEST PUSH2 0x21E JUMP JUMPDEST STOP JUMPDEST PUSH2 0xDD PUSH2 0x4CE JUMP JUMPDEST PUSH1 0x40 MLOAD PUSH2 0xEA SWAP2 SWAP1 PUSH2 0x18ED JUMP JUMPDEST PUSH1 0x40 MLOAD DUP1 SWAP2 SUB SWAP1 RETURN JUMPDEST PUSH2 0xFB PUSH2 0x4DB JUMP JUMPDEST PUSH1 0x40 MLOAD PUSH2 0x108 SWAP2 SWAP1 PUSH2 0x1987 JUMP JUMPDEST PUSH1 0x40 MLOAD DUP1 SWAP2 SUB SWAP1 RETURN JUMPDEST PUSH2 0x119 PUSH2 0x5A4 JUMP JUMPDEST PUSH1 0x40 MLOAD PUSH2 0x126 SWAP2 SWAP1 PUSH2 0x18ED JUMP JUMPDEST PUSH1 0x40 MLOAD DUP1 SWAP2 SUB SWAP1 RETURN JUMPDEST PUSH2 0x149 PUSH1 0x4 DUP1 CALLDATASIZE SUB DUP2 ADD SWAP1 PUSH2 0x144 SWAP2 SWAP1 PUSH2 0x19A9 JUMP JUMPDEST PUSH2 0x5B1 JUMP JUMPDEST STOP JUMPDEST PUSH2 0x153 PUSH2 0x745 JUMP JUMPDEST STOP JUMPDEST PUSH2 0x15D PUSH2 0x878 JUMP JUMPDEST STOP JUMPDEST PUSH2 0x167 PUSH2 0x9E7 JUMP JUMPDEST PUSH1 0x40 MLOAD PUSH2 0x176 SWAP4 SWAP3 SWAP2 SWAP1 PUSH2 0x1A21 JUMP JUMPDEST PUSH1 0x40 MLOAD DUP1 SWAP2 SUB SWAP1 RETURN JUMPDEST PUSH2 0x199 PUSH1 0x4 DUP1 CALLDATASIZE SUB DUP2 ADD SWAP1 PUSH2 0x194 SWAP2 SWAP1 PUSH2 0x1A8B JUMP JUMPDEST PUSH2 0xD15 JUMP JUMPDEST STOP JUMPDEST PUSH2 0x1B5 PUSH1 0x4 DUP1 CALLDATASIZE SUB DUP2 ADD SWAP1 PUSH2 0x1B0 SWAP2 SWAP1 PUSH2 0x1ACB JUMP JUMPDEST PUSH2 0xF3F JUMP JUMPDEST PUSH1 0x40 MLOAD PUSH2 0x1C5 SWAP5 SWAP4 SWAP3 SWAP2 SWAP1 PUSH2 0x1B07 JUMP JUMPDEST PUSH1 0x40 MLOAD DUP1 SWAP2 SUB SWAP1 RETURN JUMPDEST PUSH2 0x1E8 PUSH1 0x4 DUP1 CALLDATASIZE SUB DUP2 ADD SWAP1 PUSH2 0x1E3 SWAP2 SWAP1 PUSH2 0x1B5A JUMP JUMPDEST PUSH2 0x10E3 JUMP JUMPDEST PUSH1 0x40 MLOAD PUSH2 0x1F9 SWAP6 SWAP5 SWAP4 SWAP3 SWAP2 SWAP1 PUSH2 0x1B87 JUMP JUMPDEST PUSH1 0x40 MLOAD DUP1 SWAP2 SUB SWAP1 RETURN JUMPDEST PUSH2 0x21C PUSH1 0x4 DUP1 CALLDATASIZE SUB DUP2 ADD SWAP1 PUSH2 0x217 SWAP2 SWAP1 PUSH2 0x1BE1 JUMP JUMPDEST PUSH2 0x1332 JUMP JUMPDEST STOP JUMPDEST PUSH1 0x1 PUSH1 0x0 SWAP1 SLOAD SWAP1 PUSH2 0x100 EXP SWAP1 DIV PUSH20 0xFFFFFFFFFFFFFFFFFFFFFFFFFFFFFFFFFFFFFFFF AND PUSH20 0xFFFFFFFFFFFFFFFFFFFFFFFFFFFFFFFFFFFFFFFF AND CALLER PUSH20 0xFFFFFFFFFFFFFFFFFFFFFFFFFFFFFFFFFFFFFFFF AND EQ PUSH2 0x2AE JUMPI PUSH1 0x40 MLOAD PUSH32 0x8C379A000000000000000000000000000000000000000000000000000000000 DUP2 MSTORE PUSH1 0x4 ADD PUSH2 0x2A5 SWAP1 PUSH2 0x1C93 JUMP JUMPDEST PUSH1 0x40 MLOAD DUP1 SWAP2 SUB SWAP1 REVERT JUMPDEST PUSH1 0x0 PUSH1 0x2 DUP2 GT ISZERO PUSH2 0x2C2 JUMPI PUSH2 0x2C1 PUSH2 0x1CB3 JUMP JUMPDEST JUMPDEST PUSH1 0x1 PUSH1 0x14 SWAP1 SLOAD SWAP1 PUSH2 0x100 EXP SWAP1 DIV PUSH1 0xFF AND PUSH1 0x2 DUP2 GT ISZERO PUSH2 0x2E4 JUMPI PUSH2 0x2E3 PUSH2 0x1CB3 JUMP JUMPDEST JUMPDEST EQ DUP1 PUSH2 0x322 JUMPI POP PUSH1 0x2 DUP1 DUP2 GT ISZERO PUSH2 0x2FE JUMPI PUSH2 0x2FD PUSH2 0x1CB3 JUMP JUMPDEST JUMPDEST PUSH1 0x1 PUSH1 0x14 SWAP1 SLOAD SWAP1 PUSH2 0x100 EXP SWAP1 DIV PUSH1 0xFF AND PUSH1 0x2 DUP2 GT ISZERO PUSH2 0x320 JUMPI PUSH2 0x31F PUSH2 0x1CB3 JUMP JUMPDEST JUMPDEST EQ JUMPDEST PUSH2 0x361 JUMPI PUSH1 0x40 MLOAD PUSH32 0x8C379A000000000000000000000000000000000000000000000000000000000 DUP2 MSTORE PUSH1 0x4 ADD PUSH2 0x358 SWAP1 PUSH2 0x1D2E JUMP JUMPDEST PUSH1 0x40 MLOAD DUP1 SWAP2 SUB SWAP1 REVERT JUMPDEST PUSH1 0x1 PUSH1 0x15 DUP2 DUP2 SWAP1 SLOAD SWAP1 PUSH2 0x100 EXP SWAP1 DIV PUSH1 0xFF AND DUP1 SWAP3 SWAP2 SWAP1 PUSH2 0x380 SWAP1 PUSH2 0x1D7D JUMP JUMPDEST SWAP2 SWAP1 PUSH2 0x100 EXP DUP2 SLOAD DUP2 PUSH1 0xFF MUL NOT AND SWAP1 DUP4 PUSH1 0xFF AND MUL OR SWAP1 SSTORE POP POP DUP3 PUSH1 0x2 PUSH1 0x0 PUSH1 0x1 PUSH1 0x15 SWAP1 SLOAD SWAP1 PUSH2 0x100 EXP SWAP1 DIV PUSH1 0xFF AND PUSH1 0xFF AND PUSH1 0xFF AND DUP2 MSTORE PUSH1 0x20 ADD SWAP1 DUP2 MSTORE PUSH1 0x20 ADD PUSH1 0x0 KECCAK256 PUSH1 0x0 ADD SWAP1 DUP2 PUSH2 0x3D1 SWAP2 SWAP1 PUSH2 0x1FB2 JUMP JUMPDEST POP DUP2 PUSH1 0x2 PUSH1 0x0 PUSH1 0x1 PUSH1 0x15 SWAP1 SLOAD SWAP1 PUSH2 0x100 EXP SWAP1 DIV PUSH1 0xFF AND PUSH1 0xFF AND PUSH1 0xFF AND DUP2 MSTORE PUSH1 0x20 ADD SWAP1 DUP2 MSTORE PUSH1 0x20 ADD PUSH1 0x0 KECCAK256 PUSH1 0x2 ADD SWAP1 DUP2 PUSH2 0x40A SWAP2 SWAP1 PUSH2 0x1FB2 JUMP JUMPDEST POP DUP1 PUSH1 0x2 PUSH1 0x0 PUSH1 0x1 PUSH1 0x15 SWAP1 SLOAD SWAP1 PUSH2 0x100 EXP SWAP1 DIV PUSH1 0xFF AND PUSH1 0xFF AND PUSH1 0xFF AND DUP2 MSTORE PUSH1 0x20 ADD SWAP1 DUP2 MSTORE PUSH1 0x20 ADD PUSH1 0x0 KECCAK256 PUSH1 0x1 ADD PUSH1 0x0 PUSH2 0x100 EXP DUP2 SLOAD DUP2 PUSH20 0xFFFFFFFFFFFFFFFFFFFFFFFFFFFFFFFFFFFFFFFF MUL NOT AND SWAP1 DUP4 PUSH20 0xFFFFFFFFFFFFFFFFFFFFFFFFFFFFFFFFFFFFFFFF AND MUL OR SWAP1 SSTORE POP PUSH1 0x4 PUSH1 0x1 PUSH1 0x15 SWAP1 SLOAD SWAP1 PUSH2 0x100 EXP SWAP1 DIV PUSH1 0xFF AND SWAP1 DUP1 PUSH1 0x1 DUP2 SLOAD ADD DUP1 DUP3 SSTORE DUP1 SWAP2 POP POP PUSH1 0x1 SWAP1 SUB SWAP1 PUSH1 0x0 MSTORE PUSH1 0x20 PUSH1 0x0 KECCAK256 SWAP1 PUSH1 0x20 SWAP2 DUP3 DUP3 DIV ADD SWAP2 SWAP1 MOD SWAP1 SWAP2 SWAP1 SWAP2 SWAP1 SWAP2 PUSH2 0x100 EXP DUP2 SLOAD DUP2 PUSH1 0xFF MUL NOT AND SWAP1 DUP4 PUSH1 0xFF AND MUL OR SWAP1 SSTORE POP POP POP POP JUMP JUMPDEST PUSH1 0x0 PUSH1 0x5 DUP1 SLOAD SWAP1 POP SWAP1 POP SWAP1 JUMP JUMPDEST PUSH1 0x60 PUSH1 0x0 DUP1 PUSH1 0x1 PUSH1 0x14 SWAP1 SLOAD SWAP1 PUSH2 0x100 EXP SWAP1 DIV PUSH1 0xFF AND PUSH1 0x2 DUP2 GT ISZERO PUSH2 0x502 JUMPI PUSH2 0x501 PUSH2 0x1CB3 JUMP JUMPDEST JUMPDEST PUSH1 0xFF AND PUSH1 0xFF AND DUP2 MSTORE PUSH1 0x20 ADD SWAP1 DUP2 MSTORE PUSH1 0x20 ADD PUSH1 0x0 KECCAK256 DUP1 SLOAD PUSH2 0x521 SWAP1 PUSH2 0x1DD5 JUMP JUMPDEST DUP1 PUSH1 0x1F ADD PUSH1 0x20 DUP1 SWAP2 DIV MUL PUSH1 0x20 ADD PUSH1 0x40 MLOAD SWAP1 DUP2 ADD PUSH1 0x40 MSTORE DUP1 SWAP3 SWAP2 SWAP1 DUP2 DUP2 MSTORE PUSH1 0x20 ADD DUP3 DUP1 SLOAD PUSH2 0x54D SWAP1 PUSH2 0x1DD5 JUMP JUMPDEST DUP1 ISZERO PUSH2 0x59A JUMPI DUP1 PUSH1 0x1F LT PUSH2 0x56F JUMPI PUSH2 0x100 DUP1 DUP4 SLOAD DIV MUL DUP4 MSTORE SWAP2 PUSH1 0x20 ADD SWAP2 PUSH2 0x59A JUMP JUMPDEST DUP3 ADD SWAP2 SWAP1 PUSH1 0x0 MSTORE PUSH1 0x20 PUSH1 0x0 KECCAK256 SWAP1 JUMPDEST DUP2 SLOAD DUP2 MSTORE SWAP1 PUSH1 0x1 ADD SWAP1 PUSH1 0x20 ADD DUP1 DUP4 GT PUSH2 0x57D JUMPI DUP3 SWAP1 SUB PUSH1 0x1F AND DUP3 ADD SWAP2 JUMPDEST POP POP POP POP POP SWAP1 POP SWAP1 JUMP JUMPDEST PUSH1 0x0 PUSH1 0x4 DUP1 SLOAD SWAP1 POP SWAP1 POP SWAP1 JUMP JUMPDEST DUP2 PUSH1 0x3 PUSH1 0x0 DUP4 PUSH20 0xFFFFFFFFFFFFFFFFFFFFFFFFFFFFFFFFFFFFFFFF AND PUSH20 0xFFFFFFFFFFFFFFFFFFFFFFFFFFFFFFFFFFFFFFFF AND DUP2 MSTORE PUSH1 0x20 ADD SWAP1 DUP2 MSTORE PUSH1 0x20 ADD PUSH1 0x0 KECCAK256 PUSH1 0x0 ADD SWAP1 DUP2 PUSH2 0x600 SWAP2 SWAP1 PUSH2 0x1FB2 JUMP JUMPDEST POP DUP1 PUSH1 0x3 PUSH1 0x0 DUP4 PUSH20 0xFFFFFFFFFFFFFFFFFFFFFFFFFFFFFFFFFFFFFFFF AND PUSH20 0xFFFFFFFFFFFFFFFFFFFFFFFFFFFFFFFFFFFFFFFF AND DUP2 MSTORE PUSH1 0x20 ADD SWAP1 DUP2 MSTORE PUSH1 0x20 ADD PUSH1 0x0 KECCAK256 PUSH1 0x1 ADD PUSH1 0x0 PUSH2 0x100 EXP DUP2 SLOAD DUP2 PUSH20 0xFFFFFFFFFFFFFFFFFFFFFFFFFFFFFFFFFFFFFFFF MUL NOT AND SWAP1 DUP4 PUSH20 0xFFFFFFFFFFFFFFFFFFFFFFFFFFFFFFFFFFFFFFFF AND MUL OR SWAP1 SSTORE POP PUSH1 0x1 PUSH1 0x3 PUSH1 0x0 DUP4 PUSH20 0xFFFFFFFFFFFFFFFFFFFFFFFFFFFFFFFFFFFFFFFF AND PUSH20 0xFFFFFFFFFFFFFFFFFFFFFFFFFFFFFFFFFFFFFFFF AND DUP2 MSTORE PUSH1 0x20 ADD SWAP1 DUP2 MSTORE PUSH1 0x20 ADD PUSH1 0x0 KECCAK256 PUSH1 0x1 ADD PUSH1 0x14 PUSH2 0x100 EXP DUP2 SLOAD DUP2 PUSH1 0xFF MUL NOT AND SWAP1 DUP4 PUSH1 0xFF AND MUL OR SWAP1 SSTORE POP PUSH1 0x5 DUP2 SWAP1 DUP1 PUSH1 0x1 DUP2 SLOAD ADD DUP1 DUP3 SSTORE DUP1 SWAP2 POP POP PUSH1 0x1 SWAP1 SUB SWAP1 PUSH1 0x0 MSTORE PUSH1 0x20 PUSH1 0x0 KECCAK256 ADD PUSH1 0x0 SWAP1 SWAP2 SWAP1 SWAP2 SWAP1 SWAP2 PUSH2 0x100 EXP DUP2 SLOAD DUP2 PUSH20 0xFFFFFFFFFFFFFFFFFFFFFFFFFFFFFFFFFFFFFFFF MUL NOT AND SWAP1 DUP4 PUSH20 0xFFFFFFFFFFFFFFFFFFFFFFFFFFFFFFFFFFFFFFFF AND MUL OR SWAP1 SSTORE POP POP POP JUMP JUMPDEST PUSH1 0x1 PUSH1 0x0 SWAP1 SLOAD SWAP1 PUSH2 0x100 EXP SWAP1 DIV PUSH20 0xFFFFFFFFFFFFFFFFFFFFFFFFFFFFFFFFFFFFFFFF AND PUSH20 0xFFFFFFFFFFFFFFFFFFFFFFFFFFFFFFFFFFFFFFFF AND CALLER PUSH20 0xFFFFFFFFFFFFFFFFFFFFFFFFFFFFFFFFFFFFFFFF AND EQ PUSH2 0x7D5 JUMPI PUSH1 0x40 MLOAD PUSH32 0x8C379A000000000000000000000000000000000000000000000000000000000 DUP2 MSTORE PUSH1 0x4 ADD PUSH2 0x7CC SWAP1 PUSH2 0x20F6 JUMP JUMPDEST PUSH1 0x40 MLOAD DUP1 SWAP2 SUB SWAP1 REVERT JUMPDEST PUSH1 0x1 PUSH1 0x2 DUP2 GT ISZERO PUSH2 0x7E9 JUMPI PUSH2 0x7E8 PUSH2 0x1CB3 JUMP JUMPDEST JUMPDEST PUSH1 0x1 PUSH1 0x14 SWAP1 SLOAD SWAP1 PUSH2 0x100 EXP SWAP1 DIV PUSH1 0xFF AND PUSH1 0x2 DUP2 GT ISZERO PUSH2 0x80B JUMPI PUSH2 0x80A PUSH2 0x1CB3 JUMP JUMPDEST JUMPDEST EQ PUSH2 0x84B JUMPI PUSH1 0x40 MLOAD PUSH32 0x8C379A000000000000000000000000000000000000000000000000000000000 DUP2 MSTORE PUSH1 0x4 ADD PUSH2 0x842 SWAP1 PUSH2 0x2162 JUMP JUMPDEST PUSH1 0x40 MLOAD DUP1 SWAP2 SUB SWAP1 REVERT JUMPDEST PUSH1 0x2 PUSH1 0x1 PUSH1 0x14 PUSH2 0x100 EXP DUP2 SLOAD DUP2 PUSH1 0xFF MUL NOT AND SWAP1 DUP4 PUSH1 0x2 DUP2 GT ISZERO PUSH2 0x871 JUMPI PUSH2 0x870 PUSH2 0x1CB3 JUMP JUMPDEST JUMPDEST MUL OR SWAP1 SSTORE POP JUMP JUMPDEST PUSH1 0x1 PUSH1 0x0 SWAP1 SLOAD SWAP1 PUSH2 0x100 EXP SWAP1 DIV PUSH20 0xFFFFFFFFFFFFFFFFFFFFFFFFFFFFFFFFFFFFFFFF AND PUSH20 0xFFFFFFFFFFFFFFFFFFFFFFFFFFFFFFFFFFFFFFFF AND CALLER PUSH20 0xFFFFFFFFFFFFFFFFFFFFFFFFFFFFFFFFFFFFFFFF AND EQ PUSH2 0x908 JUMPI PUSH1 0x40 MLOAD PUSH32 0x8C379A000000000000000000000000000000000000000000000000000000000 DUP2 MSTORE PUSH1 0x4 ADD PUSH2 0x8FF SWAP1 PUSH2 0x21F4 JUMP JUMPDEST PUSH1 0x40 MLOAD DUP1 SWAP2 SUB SWAP1 REVERT JUMPDEST PUSH1 0x0 PUSH1 0x2 DUP2 GT ISZERO PUSH2 0x91C JUMPI PUSH2 0x91B PUSH2 0x1CB3 JUMP JUMPDEST JUMPDEST PUSH1 0x1 PUSH1 0x14 SWAP1 SLOAD SWAP1 PUSH2 0x100 EXP SWAP1 DIV PUSH1 0xFF AND PUSH1 0x2 DUP2 GT ISZERO PUSH2 0x93E JUMPI PUSH2 0x93D PUSH2 0x1CB3 JUMP JUMPDEST JUMPDEST EQ DUP1 PUSH2 0x97C JUMPI POP PUSH1 0x2 DUP1 DUP2 GT ISZERO PUSH2 0x958 JUMPI PUSH2 0x957 PUSH2 0x1CB3 JUMP JUMPDEST JUMPDEST PUSH1 0x1 PUSH1 0x14 SWAP1 SLOAD SWAP1 PUSH2 0x100 EXP SWAP1 DIV PUSH1 0xFF AND PUSH1 0x2 DUP2 GT ISZERO PUSH2 0x97A JUMPI PUSH2 0x979 PUSH2 0x1CB3 JUMP JUMPDEST JUMPDEST EQ JUMPDEST PUSH2 0x9BB JUMPI PUSH1 0x40 MLOAD PUSH32 0x8C379A000000000000000000000000000000000000000000000000000000000 DUP2 MSTORE PUSH1 0x4 ADD PUSH2 0x9B2 SWAP1 PUSH2 0x1D2E JUMP JUMPDEST PUSH1 0x40 MLOAD DUP1 SWAP2 SUB SWAP1 REVERT JUMPDEST PUSH1 0x1 DUP1 PUSH1 0x14 PUSH2 0x100 EXP DUP2 SLOAD DUP2 PUSH1 0xFF MUL NOT AND SWAP1 DUP4 PUSH1 0x2 DUP2 GT ISZERO PUSH2 0x9E0 JUMPI PUSH2 0x9DF PUSH2 0x1CB3 JUMP JUMPDEST JUMPDEST MUL OR SWAP1 SSTORE POP JUMP JUMPDEST PUSH1 0x0 PUSH1 0x60 PUSH1 0x0 PUSH1 0x1 PUSH1 0x0 SWAP1 SLOAD SWAP1 PUSH2 0x100 EXP SWAP1 DIV PUSH20 0xFFFFFFFFFFFFFFFFFFFFFFFFFFFFFFFFFFFFFFFF AND PUSH20 0xFFFFFFFFFFFFFFFFFFFFFFFFFFFFFFFFFFFFFFFF AND CALLER PUSH20 0xFFFFFFFFFFFFFFFFFFFFFFFFFFFFFFFFFFFFFFFF AND EQ PUSH2 0xA7D JUMPI PUSH1 0x40 MLOAD PUSH32 0x8C379A000000000000000000000000000000000000000000000000000000000 DUP2 MSTORE PUSH1 0x4 ADD PUSH2 0xA74 SWAP1 PUSH2 0x2286 JUMP JUMPDEST PUSH1 0x40 MLOAD DUP1 SWAP2 SUB SWAP1 REVERT JUMPDEST PUSH1 0x2 DUP1 DUP2 GT ISZERO PUSH2 0xA90 JUMPI PUSH2 0xA8F PUSH2 0x1CB3 JUMP JUMPDEST JUMPDEST PUSH1 0x1 PUSH1 0x14 SWAP1 SLOAD SWAP1 PUSH2 0x100 EXP SWAP1 DIV PUSH1 0xFF AND PUSH1 0x2 DUP2 GT ISZERO PUSH2 0xAB2 JUMPI PUSH2 0xAB1 PUSH2 0x1CB3 JUMP JUMPDEST JUMPDEST EQ PUSH2 0xAF2 JUMPI PUSH1 0x40 MLOAD PUSH32 0x8C379A000000000000000000000000000000000000000000000000000000000 DUP2 MSTORE PUSH1 0x4 ADD PUSH2 0xAE9 SWAP1 PUSH2 0x22F2 JUMP JUMPDEST PUSH1 0x40 MLOAD DUP1 SWAP2 SUB SWAP1 REVERT JUMPDEST PUSH1 0x0 PUSH1 0x60 PUSH1 0x0 DUP1 JUMPDEST PUSH1 0x4 DUP1 SLOAD SWAP1 POP DUP2 PUSH1 0xFF AND LT ISZERO PUSH2 0xD03 JUMPI PUSH1 0x2 PUSH1 0x0 PUSH1 0x4 DUP4 PUSH1 0xFF AND DUP2 SLOAD DUP2 LT PUSH2 0xB25 JUMPI PUSH2 0xB24 PUSH2 0x2312 JUMP JUMPDEST JUMPDEST SWAP1 PUSH1 0x0 MSTORE PUSH1 0x20 PUSH1 0x0 KECCAK256 SWAP1 PUSH1 0x20 SWAP2 DUP3 DUP3 DIV ADD SWAP2 SWAP1 MOD SWAP1 SLOAD SWAP1 PUSH2 0x100 EXP SWAP1 DIV PUSH1 0xFF AND PUSH1 0xFF AND PUSH1 0xFF AND DUP2 MSTORE PUSH1 0x20 ADD SWAP1 DUP2 MSTORE PUSH1 0x20 ADD PUSH1 0x0 KECCAK256 PUSH1 0x3 ADD PUSH1 0x0 SWAP1 SLOAD SWAP1 PUSH2 0x100 EXP SWAP1 DIV PUSH1 0xFF AND PUSH1 0xFF AND DUP3 PUSH1 0xFF AND LT ISZERO PUSH2 0xCF0 JUMPI PUSH1 0x4 DUP2 PUSH1 0xFF AND DUP2 SLOAD DUP2 LT PUSH2 0xB8E JUMPI PUSH2 0xB8D PUSH2 0x2312 JUMP JUMPDEST JUMPDEST SWAP1 PUSH1 0x0 MSTORE PUSH1 0x20 PUSH1 0x0 KECCAK256 SWAP1 PUSH1 0x20 SWAP2 DUP3 DUP3 DIV ADD SWAP2 SWAP1 MOD SWAP1 SLOAD SWAP1 PUSH2 0x100 EXP SWAP1 DIV PUSH1 0xFF AND SWAP4 POP PUSH1 0x2 PUSH1 0x0 PUSH1 0x4 DUP4 PUSH1 0xFF AND DUP2 SLOAD DUP2 LT PUSH2 0xBCB JUMPI PUSH2 0xBCA PUSH2 0x2312 JUMP JUMPDEST JUMPDEST SWAP1 PUSH1 0x0 MSTORE PUSH1 0x20 PUSH1 0x0 KECCAK256 SWAP1 PUSH1 0x20 SWAP2 DUP3 DUP3 DIV ADD SWAP2 SWAP1 MOD SWAP1 SLOAD SWAP1 PUSH2 0x100 EXP SWAP1 DIV PUSH1 0xFF AND PUSH1 0xFF AND PUSH1 0xFF AND DUP2 MSTORE PUSH1 0x20 ADD SWAP1 DUP2 MSTORE PUSH1 0x20 ADD PUSH1 0x0 KECCAK256 PUSH1 0x0 ADD DUP1 SLOAD PUSH2 0xC0D SWAP1 PUSH2 0x1DD5 JUMP JUMPDEST DUP1 PUSH1 0x1F ADD PUSH1 0x20 DUP1 SWAP2 DIV MUL PUSH1 0x20 ADD PUSH1 0x40 MLOAD SWAP1 DUP2 ADD PUSH1 0x40 MSTORE DUP1 SWAP3 SWAP2 SWAP1 DUP2 DUP2 MSTORE PUSH1 0x20 ADD DUP3 DUP1 SLOAD PUSH2 0xC39 SWAP1 PUSH2 0x1DD5 JUMP JUMPDEST DUP1 ISZERO PUSH2 0xC86 JUMPI DUP1 PUSH1 0x1F LT PUSH2 0xC5B JUMPI PUSH2 0x100 DUP1 DUP4 SLOAD DIV MUL DUP4 MSTORE SWAP2 PUSH1 0x20 ADD SWAP2 PUSH2 0xC86 JUMP JUMPDEST DUP3 ADD SWAP2 SWAP1 PUSH1 0x0 MSTORE PUSH1 0x20 PUSH1 0x0 KECCAK256 SWAP1 JUMPDEST DUP2 SLOAD DUP2 MSTORE SWAP1 PUSH1 0x1 ADD SWAP1 PUSH1 0x20 ADD DUP1 DUP4 GT PUSH2 0xC69 JUMPI DUP3 SWAP1 SUB PUSH1 0x1F AND DUP3 ADD SWAP2 JUMPDEST POP POP POP POP POP SWAP3 POP PUSH1 0x2 PUSH1 0x0 PUSH1 0x4 DUP4 PUSH1 0xFF AND DUP2 SLOAD DUP2 LT PUSH2 0xCA8 JUMPI PUSH2 0xCA7 PUSH2 0x2312 JUMP JUMPDEST JUMPDEST SWAP1 PUSH1 0x0 MSTORE PUSH1 0x20 PUSH1 0x0 KECCAK256 SWAP1 PUSH1 0x20 SWAP2 DUP3 DUP3 DIV ADD SWAP2 SWAP1 MOD SWAP1 SLOAD SWAP1 PUSH2 0x100 EXP SWAP1 DIV PUSH1 0xFF AND PUSH1 0xFF AND PUSH1 0xFF AND DUP2 MSTORE PUSH1 0x20 ADD SWAP1 DUP2 MSTORE PUSH1 0x20 ADD PUSH1 0x0 KECCAK256 PUSH1 0x3 ADD PUSH1 0x0 SWAP1 SLOAD SWAP1 PUSH2 0x100 EXP SWAP1 DIV PUSH1 0xFF AND SWAP2 POP JUMPDEST DUP1 DUP1 PUSH2 0xCFB SWAP1 PUSH2 0x1D7D JUMP JUMPDEST SWAP2 POP POP PUSH2 0xAFA JUMP JUMPDEST POP DUP3 DUP3 DUP3 SWAP6 POP SWAP6 POP SWAP6 POP POP POP POP SWAP1 SWAP2 SWAP3 JUMP JUMPDEST DUP1 PUSH20 0xFFFFFFFFFFFFFFFFFFFFFFFFFFFFFFFFFFFFFFFF AND CALLER PUSH20 0xFFFFFFFFFFFFFFFFFFFFFFFFFFFFFFFFFFFFFFFF AND EQ PUSH2 0xD83 JUMPI PUSH1 0x40 MLOAD PUSH32 0x8C379A000000000000000000000000000000000000000000000000000000000 DUP2 MSTORE PUSH1 0x4 ADD PUSH2 0xD7A SWAP1 PUSH2 0x238D JUMP JUMPDEST PUSH1 0x40 MLOAD DUP1 SWAP2 SUB SWAP1 REVERT JUMPDEST PUSH1 0x0 PUSH1 0x3 PUSH1 0x0 DUP4 PUSH20 0xFFFFFFFFFFFFFFFFFFFFFFFFFFFFFFFFFFFFFFFF AND PUSH20 0xFFFFFFFFFFFFFFFFFFFFFFFFFFFFFFFFFFFFFFFF AND DUP2 MSTORE PUSH1 0x20 ADD SWAP1 DUP2 MSTORE PUSH1 0x20 ADD PUSH1 0x0 KECCAK256 PUSH1 0x1 ADD PUSH1 0x14 SWAP1 SLOAD SWAP1 PUSH2 0x100 EXP SWAP1 DIV PUSH1 0xFF AND PUSH1 0xFF AND GT PUSH2 0xE18 JUMPI PUSH1 0x40 MLOAD PUSH32 0x8C379A000000000000000000000000000000000000000000000000000000000 DUP2 MSTORE PUSH1 0x4 ADD PUSH2 0xE0F SWAP1 PUSH2 0x23F9 JUMP JUMPDEST PUSH1 0x40 MLOAD DUP1 SWAP2 SUB SWAP1 REVERT JUMPDEST PUSH1 0x1 PUSH1 0x2 PUSH1 0x0 DUP5 PUSH1 0xFF AND PUSH1 0xFF AND DUP2 MSTORE PUSH1 0x20 ADD SWAP1 DUP2 MSTORE PUSH1 0x20 ADD PUSH1 0x0 KECCAK256 PUSH1 0x3 ADD PUSH1 0x0 DUP3 DUP3 DUP3 SWAP1 SLOAD SWAP1 PUSH2 0x100 EXP SWAP1 DIV PUSH1 0xFF AND PUSH2 0xE51 SWAP2 SWAP1 PUSH2 0x2419 JUMP JUMPDEST SWAP3 POP PUSH2 0x100 EXP DUP2 SLOAD DUP2 PUSH1 0xFF MUL NOT AND SWAP1 DUP4 PUSH1 0xFF AND MUL OR SWAP1 SSTORE POP PUSH1 0x1 PUSH1 0x3 PUSH1 0x0 DUP4 PUSH20 0xFFFFFFFFFFFFFFFFFFFFFFFFFFFFFFFFFFFFFFFF AND PUSH20 0xFFFFFFFFFFFFFFFFFFFFFFFFFFFFFFFFFFFFFFFF AND DUP2 MSTORE PUSH1 0x20 ADD SWAP1 DUP2 MSTORE PUSH1 0x20 ADD PUSH1 0x0 KECCAK256 PUSH1 0x1 ADD PUSH1 0x14 DUP3 DUP3 DUP3 SWAP1 SLOAD SWAP1 PUSH2 0x100 EXP SWAP1 DIV PUSH1 0xFF AND PUSH2 0xEC8 SWAP2 SWAP1 PUSH2 0x244E JUMP JUMPDEST SWAP3 POP PUSH2 0x100 EXP DUP2 SLOAD DUP2 PUSH1 0xFF MUL NOT AND SWAP1 DUP4 PUSH1 0xFF AND MUL OR SWAP1 SSTORE POP DUP2 PUSH1 0x3 PUSH1 0x0 DUP4 PUSH20 0xFFFFFFFFFFFFFFFFFFFFFFFFFFFFFFFFFFFFFFFF AND PUSH20 0xFFFFFFFFFFFFFFFFFFFFFFFFFFFFFFFFFFFFFFFF AND DUP2 MSTORE PUSH1 0x20 ADD SWAP1 DUP2 MSTORE PUSH1 0x20 ADD PUSH1 0x0 KECCAK256 PUSH1 0x2 ADD PUSH1 0x14 PUSH2 0x100 EXP DUP2 SLOAD DUP2 PUSH1 0xFF MUL NOT AND SWAP1 DUP4 PUSH1 0xFF AND MUL OR SWAP1 SSTORE POP POP POP JUMP JUMPDEST PUSH1 0x0 PUSH1 0x60 DUP1 PUSH1 0x0 DUP5 PUSH1 0x2 PUSH1 0x0 DUP8 PUSH1 0xFF AND PUSH1 0xFF AND DUP2 MSTORE PUSH1 0x20 ADD SWAP1 DUP2 MSTORE PUSH1 0x20 ADD PUSH1 0x0 KECCAK256 PUSH1 0x0 ADD PUSH1 0x2 PUSH1 0x0 DUP9 PUSH1 0xFF AND PUSH1 0xFF AND DUP2 MSTORE PUSH1 0x20 ADD SWAP1 DUP2 MSTORE PUSH1 0x20 ADD PUSH1 0x0 KECCAK256 PUSH1 0x2 ADD PUSH1 0x2 PUSH1 0x0 DUP10 PUSH1 0xFF AND PUSH1 0xFF AND DUP2 MSTORE PUSH1 0x20 ADD SWAP1 DUP2 MSTORE PUSH1 0x20 ADD PUSH1 0x0 KECCAK256 PUSH1 0x1 ADD PUSH1 0x0 SWAP1 SLOAD SWAP1 PUSH2 0x100 EXP SWAP1 DIV PUSH20 0xFFFFFFFFFFFFFFFFFFFFFFFFFFFFFFFFFFFFFFFF AND DUP3 DUP1 SLOAD PUSH2 0xFC8 SWAP1 PUSH2 0x1DD5 JUMP JUMPDEST DUP1 PUSH1 0x1F ADD PUSH1 0x20 DUP1 SWAP2 DIV MUL PUSH1 0x20 ADD PUSH1 0x40 MLOAD SWAP1 DUP2 ADD PUSH1 0x40 MSTORE DUP1 SWAP3 SWAP2 SWAP1 DUP2 DUP2 MSTORE PUSH1 0x20 ADD DUP3 DUP1 SLOAD PUSH2 0xFF4 SWAP1 PUSH2 0x1DD5 JUMP JUMPDEST DUP1 ISZERO PUSH2 0x1041 JUMPI DUP1 PUSH1 0x1F LT PUSH2 0x1016 JUMPI PUSH2 0x100 DUP1 DUP4 SLOAD DIV MUL DUP4 MSTORE SWAP2 PUSH1 0x20 ADD SWAP2 PUSH2 0x1041 JUMP JUMPDEST DUP3 ADD SWAP2 SWAP1 PUSH1 0x0 MSTORE PUSH1 0x20 PUSH1 0x0 KECCAK256 SWAP1 JUMPDEST DUP2 SLOAD DUP2 MSTORE SWAP1 PUSH1 0x1 ADD SWAP1 PUSH1 0x20 ADD DUP1 DUP4 GT PUSH2 0x1024 JUMPI DUP3 SWAP1 SUB PUSH1 0x1F AND DUP3 ADD SWAP2 JUMPDEST POP POP POP POP POP SWAP3 POP DUP2 DUP1 SLOAD PUSH2 0x1054 SWAP1 PUSH2 0x1DD5 JUMP JUMPDEST DUP1 PUSH1 0x1F ADD PUSH1 0x20 DUP1 SWAP2 DIV MUL PUSH1 0x20 ADD PUSH1 0x40 MLOAD SWAP1 DUP2 ADD PUSH1 0x40 MSTORE DUP1 SWAP3 SWAP2 SWAP1 DUP2 DUP2 MSTORE PUSH1 0x20 ADD DUP3 DUP1 SLOAD PUSH2 0x1080 SWAP1 PUSH2 0x1DD5 JUMP JUMPDEST DUP1 ISZERO PUSH2 0x10CD JUMPI DUP1 PUSH1 0x1F LT PUSH2 0x10A2 JUMPI PUSH2 0x100 DUP1 DUP4 SLOAD DIV MUL DUP4 MSTORE SWAP2 PUSH1 0x20 ADD SWAP2 PUSH2 0x10CD JUMP JUMPDEST DUP3 ADD SWAP2 SWAP1 PUSH1 0x0 MSTORE PUSH1 0x20 PUSH1 0x0 KECCAK256 SWAP1 JUMPDEST DUP2 SLOAD DUP2 MSTORE SWAP1 PUSH1 0x1 ADD SWAP1 PUSH1 0x20 ADD DUP1 DUP4 GT PUSH2 0x10B0 JUMPI DUP3 SWAP1 SUB PUSH1 0x1F AND DUP3 ADD SWAP2 JUMPDEST POP POP POP POP POP SWAP2 POP SWAP4 POP SWAP4 POP SWAP4 POP SWAP4 POP SWAP2 SWAP4 POP SWAP2 SWAP4 JUMP JUMPDEST PUSH1 0x60 PUSH1 0x0 DUP1 PUSH1 0x0 DUP1 PUSH1 0x3 PUSH1 0x0 DUP8 PUSH20 0xFFFFFFFFFFFFFFFFFFFFFFFFFFFFFFFFFFFFFFFF AND PUSH20 0xFFFFFFFFFFFFFFFFFFFFFFFFFFFFFFFFFFFFFFFF AND DUP2 MSTORE PUSH1 0x20 ADD SWAP1 DUP2 MSTORE PUSH1 0x20 ADD PUSH1 0x0 KECCAK256 PUSH1 0x0 ADD PUSH1 0x3 PUSH1 0x0 DUP9 PUSH20 0xFFFFFFFFFFFFFFFFFFFFFFFFFFFFFFFFFFFFFFFF AND PUSH20 0xFFFFFFFFFFFFFFFFFFFFFFFFFFFFFFFFFFFFFFFF AND DUP2 MSTORE PUSH1 0x20 ADD SWAP1 DUP2 MSTORE PUSH1 0x20 ADD PUSH1 0x0 KECCAK256 PUSH1 0x1 ADD PUSH1 0x0 SWAP1 SLOAD SWAP1 PUSH2 0x100 EXP SWAP1 DIV PUSH20 0xFFFFFFFFFFFFFFFFFFFFFFFFFFFFFFFFFFFFFFFF AND PUSH1 0x3 PUSH1 0x0 DUP10 PUSH20 0xFFFFFFFFFFFFFFFFFFFFFFFFFFFFFFFFFFFFFFFF AND PUSH20 0xFFFFFFFFFFFFFFFFFFFFFFFFFFFFFFFFFFFFFFFF AND DUP2 MSTORE PUSH1 0x20 ADD SWAP1 DUP2 MSTORE PUSH1 0x20 ADD PUSH1 0x0 KECCAK256 PUSH1 0x2 ADD PUSH1 0x0 SWAP1 SLOAD SWAP1 PUSH2 0x100 EXP SWAP1 DIV PUSH20 0xFFFFFFFFFFFFFFFFFFFFFFFFFFFFFFFFFFFFFFFF AND PUSH1 0x3 PUSH1 0x0 DUP11 PUSH20 0xFFFFFFFFFFFFFFFFFFFFFFFFFFFFFFFFFFFFFFFF AND PUSH20 0xFFFFFFFFFFFFFFFFFFFFFFFFFFFFFFFFFFFFFFFF AND DUP2 MSTORE PUSH1 0x20 ADD SWAP1 DUP2 MSTORE PUSH1 0x20 ADD PUSH1 0x0 KECCAK256 PUSH1 0x1 ADD PUSH1 0x14 SWAP1 SLOAD SWAP1 PUSH2 0x100 EXP SWAP1 DIV PUSH1 0xFF AND PUSH1 0x3 PUSH1 0x0 DUP12 PUSH20 0xFFFFFFFFFFFFFFFFFFFFFFFFFFFFFFFFFFFFFFFF AND PUSH20 0xFFFFFFFFFFFFFFFFFFFFFFFFFFFFFFFFFFFFFFFF AND DUP2 MSTORE PUSH1 0x20 ADD SWAP1 DUP2 MSTORE PUSH1 0x20 ADD PUSH1 0x0 KECCAK256 PUSH1 0x2 ADD PUSH1 0x14 SWAP1 SLOAD SWAP1 PUSH2 0x100 EXP SWAP1 DIV PUSH1 0xFF AND DUP5 DUP1 SLOAD PUSH2 0x129F SWAP1 PUSH2 0x1DD5 JUMP JUMPDEST DUP1 PUSH1 0x1F ADD PUSH1 0x20 DUP1 SWAP2 DIV MUL PUSH1 0x20 ADD PUSH1 0x40 MLOAD SWAP1 DUP2 ADD PUSH1 0x40 MSTORE DUP1 SWAP3 SWAP2 SWAP1 DUP2 DUP2 MSTORE PUSH1 0x20 ADD DUP3 DUP1 SLOAD PUSH2 0x12CB SWAP1 PUSH2 0x1DD5 JUMP JUMPDEST DUP1 ISZERO PUSH2 0x1318 JUMPI DUP1 PUSH1 0x1F LT PUSH2 0x12ED JUMPI PUSH2 0x100 DUP1 DUP4 SLOAD DIV MUL DUP4 MSTORE SWAP2 PUSH1 0x20 ADD SWAP2 PUSH2 0x1318 JUMP JUMPDEST DUP3 ADD SWAP2 SWAP1 PUSH1 0x0 MSTORE PUSH1 0x20 PUSH1 0x0 KECCAK256 SWAP1 JUMPDEST DUP2 SLOAD DUP2 MSTORE SWAP1 PUSH1 0x1 ADD SWAP1 PUSH1 0x20 ADD DUP1 DUP4 GT PUSH2 0x12FB JUMPI DUP3 SWAP1 SUB PUSH1 0x1F AND DUP3 ADD SWAP2 JUMPDEST POP POP POP POP POP SWAP5 POP SWAP5 POP SWAP5 POP SWAP5 POP SWAP5 POP SWAP5 POP SWAP2 SWAP4 SWAP6 SWAP1 SWAP3 SWAP5 POP JUMP JUMPDEST DUP2 PUSH20 0xFFFFFFFFFFFFFFFFFFFFFFFFFFFFFFFFFFFFFFFF AND CALLER PUSH20 0xFFFFFFFFFFFFFFFFFFFFFFFFFFFFFFFFFFFFFFFF AND EQ PUSH2 0x13A0 JUMPI PUSH1 0x40 MLOAD PUSH32 0x8C379A000000000000000000000000000000000000000000000000000000000 DUP2 MSTORE PUSH1 0x4 ADD PUSH2 0x1397 SWAP1 PUSH2 0x24CF JUMP JUMPDEST PUSH1 0x40 MLOAD DUP1 SWAP2 SUB SWAP1 REVERT JUMPDEST PUSH1 0x0 PUSH1 0x3 PUSH1 0x0 DUP5 PUSH20 0xFFFFFFFFFFFFFFFFFFFFFFFFFFFFFFFFFFFFFFFF AND PUSH20 0xFFFFFFFFFFFFFFFFFFFFFFFFFFFFFFFFFFFFFFFF AND DUP2 MSTORE PUSH1 0x20 ADD SWAP1 DUP2 MSTORE PUSH1 0x20 ADD PUSH1 0x0 KECCAK256 PUSH1 0x1 ADD PUSH1 0x14 SWAP1 SLOAD SWAP1 PUSH2 0x100 EXP SWAP1 DIV PUSH1 0xFF AND PUSH1 0xFF AND GT PUSH2 0x1435 JUMPI PUSH1 0x40 MLOAD PUSH32 0x8C379A000000000000000000000000000000000000000000000000000000000 DUP2 MSTORE PUSH1 0x4 ADD PUSH2 0x142C SWAP1 PUSH2 0x253B JUMP JUMPDEST PUSH1 0x40 MLOAD DUP1 SWAP2 SUB SWAP1 REVERT JUMPDEST PUSH1 0x0 PUSH1 0x3 PUSH1 0x0 DUP4 PUSH20 0xFFFFFFFFFFFFFFFFFFFFFFFFFFFFFFFFFFFFFFFF AND PUSH20 0xFFFFFFFFFFFFFFFFFFFFFFFFFFFFFFFFFFFFFFFF AND DUP2 MSTORE PUSH1 0x20 ADD SWAP1 DUP2 MSTORE PUSH1 0x20 ADD PUSH1 0x0 KECCAK256 PUSH1 0x1 ADD PUSH1 0x14 SWAP1 SLOAD SWAP1 PUSH2 0x100 EXP SWAP1 DIV PUSH1 0xFF AND PUSH1 0xFF AND GT PUSH2 0x14CA JUMPI PUSH1 0x40 MLOAD PUSH32 0x8C379A000000000000000000000000000000000000000000000000000000000 DUP2 MSTORE PUSH1 0x4 ADD PUSH2 0x14C1 SWAP1 PUSH2 0x25A7 JUMP JUMPDEST PUSH1 0x40 MLOAD DUP1 SWAP2 SUB SWAP1 REVERT JUMPDEST PUSH1 0x0 PUSH1 0x3 PUSH1 0x0 DUP5 PUSH20 0xFFFFFFFFFFFFFFFFFFFFFFFFFFFFFFFFFFFFFFFF AND PUSH20 0xFFFFFFFFFFFFFFFFFFFFFFFFFFFFFFFFFFFFFFFF AND DUP2 MSTORE PUSH1 0x20 ADD SWAP1 DUP2 MSTORE PUSH1 0x20 ADD PUSH1 0x0 KECCAK256 PUSH1 0x1 ADD PUSH1 0x14 SWAP1 SLOAD SWAP1 PUSH2 0x100 EXP SWAP1 DIV PUSH1 0xFF AND SWAP1 POP DUP1 PUSH1 0x3 PUSH1 0x0 DUP5 PUSH20 0xFFFFFFFFFFFFFFFFFFFFFFFFFFFFFFFFFFFFFFFF AND PUSH20 0xFFFFFFFFFFFFFFFFFFFFFFFFFFFFFFFFFFFFFFFF AND DUP2 MSTORE PUSH1 0x20 ADD SWAP1 DUP2 MSTORE PUSH1 0x20 ADD PUSH1 0x0 KECCAK256 PUSH1 0x1 ADD PUSH1 0x14 DUP3 DUP3 DUP3 SWAP1 SLOAD SWAP1 PUSH2 0x100 EXP SWAP1 DIV PUSH1 0xFF AND PUSH2 0x157C SWAP2 SWAP1 PUSH2 0x2419 JUMP JUMPDEST SWAP3 POP PUSH2 0x100 EXP DUP2 SLOAD DUP2 PUSH1 0xFF MUL NOT AND SWAP1 DUP4 PUSH1 0xFF AND MUL OR SWAP1 SSTORE POP PUSH1 0x1 PUSH1 0x3 PUSH1 0x0 DUP6 PUSH20 0xFFFFFFFFFFFFFFFFFFFFFFFFFFFFFFFFFFFFFFFF AND PUSH20 0xFFFFFFFFFFFFFFFFFFFFFFFFFFFFFFFFFFFFFFFF AND DUP2 MSTORE PUSH1 0x20 ADD SWAP1 DUP2 MSTORE PUSH1 0x20 ADD PUSH1 0x0 KECCAK256 PUSH1 0x1 ADD PUSH1 0x14 DUP3 DUP3 DUP3 SWAP1 SLOAD SWAP1 PUSH2 0x100 EXP SWAP1 DIV PUSH1 0xFF AND PUSH2 0x15F3 SWAP2 SWAP1 PUSH2 0x244E JUMP JUMPDEST SWAP3 POP PUSH2 0x100 EXP DUP2 SLOAD DUP2 PUSH1 0xFF MUL NOT AND SWAP1 DUP4 PUSH1 0xFF AND MUL OR SWAP1 SSTORE POP DUP2 PUSH1 0x3 PUSH1 0x0 DUP6 PUSH20 0xFFFFFFFFFFFFFFFFFFFFFFFFFFFFFFFFFFFFFFFF AND PUSH20 0xFFFFFFFFFFFFFFFFFFFFFFFFFFFFFFFFFFFFFFFF AND DUP2 MSTORE PUSH1 0x20 ADD SWAP1 DUP2 MSTORE PUSH1 0x20 ADD PUSH1 0x0 KECCAK256 PUSH1 0x2 ADD PUSH1 0x0 PUSH2 0x100 EXP DUP2 SLOAD DUP2 PUSH20 0xFFFFFFFFFFFFFFFFFFFFFFFFFFFFFFFFFFFFFFFF MUL NOT AND SWAP1 DUP4 PUSH20 0xFFFFFFFFFFFFFFFFFFFFFFFFFFFFFFFFFFFFFFFF AND MUL OR SWAP1 SSTORE POP POP POP POP JUMP JUMPDEST PUSH1 0x0 PUSH1 0x40 MLOAD SWAP1 POP SWAP1 JUMP JUMPDEST PUSH1 0x0 DUP1 REVERT JUMPDEST PUSH1 0x0 DUP1 REVERT JUMPDEST PUSH1 0x0 DUP1 REVERT JUMPDEST PUSH1 0x0 DUP1 REVERT JUMPDEST PUSH1 0x0 PUSH1 0x1F NOT PUSH1 0x1F DUP4 ADD AND SWAP1 POP SWAP2 SWAP1 POP JUMP JUMPDEST PUSH32 0x4E487B7100000000000000000000000000000000000000000000000000000000 PUSH1 0x0 MSTORE PUSH1 0x41 PUSH1 0x4 MSTORE PUSH1 0x24 PUSH1 0x0 REVERT JUMPDEST PUSH2 0x16F8 DUP3 PUSH2 0x16AF JUMP JUMPDEST DUP2 ADD DUP2 DUP2 LT PUSH8 0xFFFFFFFFFFFFFFFF DUP3 GT OR ISZERO PUSH2 0x1717 JUMPI PUSH2 0x1716 PUSH2 0x16C0 JUMP JUMPDEST JUMPDEST DUP1 PUSH1 0x40 MSTORE POP POP POP JUMP JUMPDEST PUSH1 0x0 PUSH2 0x172A PUSH2 0x1691 JUMP JUMPDEST SWAP1 POP PUSH2 0x1736 DUP3 DUP3 PUSH2 0x16EF JUMP JUMPDEST SWAP2 SWAP1 POP JUMP JUMPDEST PUSH1 0x0 PUSH8 0xFFFFFFFFFFFFFFFF DUP3 GT ISZERO PUSH2 0x1756 JUMPI PUSH2 0x1755 PUSH2 0x16C0 JUMP JUMPDEST JUMPDEST PUSH2 0x175F DUP3 PUSH2 0x16AF JUMP JUMPDEST SWAP1 POP PUSH1 0x20 DUP2 ADD SWAP1 POP SWAP2 SWAP1 POP JUMP JUMPDEST DUP3 DUP2 DUP4 CALLDATACOPY PUSH1 0x0 DUP4 DUP4 ADD MSTORE POP POP POP JUMP JUMPDEST PUSH1 0x0 PUSH2 0x178E PUSH2 0x1789 DUP5 PUSH2 0x173B JUMP JUMPDEST PUSH2 0x1720 JUMP JUMPDEST SWAP1 POP DUP3 DUP2 MSTORE PUSH1 0x20 DUP2 ADD DUP5 DUP5 DUP5 ADD GT ISZERO PUSH2 0x17AA JUMPI PUSH2 0x17A9 PUSH2 0x16AA JUMP JUMPDEST JUMPDEST PUSH2 0x17B5 DUP5 DUP3 DUP6 PUSH2 0x176C JUMP JUMPDEST POP SWAP4 SWAP3 POP POP POP JUMP JUMPDEST PUSH1 0x0 DUP3 PUSH1 0x1F DUP4 ADD SLT PUSH2 0x17D2 JUMPI PUSH2 0x17D1 PUSH2 0x16A5 JUMP JUMPDEST JUMPDEST DUP2 CALLDATALOAD PUSH2 0x17E2 DUP5 DUP3 PUSH1 0x20 DUP7 ADD PUSH2 0x177B JUMP JUMPDEST SWAP2 POP POP SWAP3 SWAP2 POP POP JUMP JUMPDEST PUSH1 0x0 PUSH20 0xFFFFFFFFFFFFFFFFFFFFFFFFFFFFFFFFFFFFFFFF DUP3 AND SWAP1 POP SWAP2 SWAP1 POP JUMP JUMPDEST PUSH1 0x0 PUSH2 0x1816 DUP3 PUSH2 0x17EB JUMP JUMPDEST SWAP1 POP SWAP2 SWAP1 POP JUMP JUMPDEST PUSH2 0x1826 DUP2 PUSH2 0x180B JUMP JUMPDEST DUP2 EQ PUSH2 0x1831 JUMPI PUSH1 0x0 DUP1 REVERT JUMPDEST POP JUMP JUMPDEST PUSH1 0x0 DUP2 CALLDATALOAD SWAP1 POP PUSH2 0x1843 DUP2 PUSH2 0x181D JUMP JUMPDEST SWAP3 SWAP2 POP POP JUMP JUMPDEST PUSH1 0x0 DUP1 PUSH1 0x0 PUSH1 0x60 DUP5 DUP7 SUB SLT ISZERO PUSH2 0x1862 JUMPI PUSH2 0x1861 PUSH2 0x169B JUMP JUMPDEST JUMPDEST PUSH1 0x0 DUP5 ADD CALLDATALOAD PUSH8 0xFFFFFFFFFFFFFFFF DUP2 GT ISZERO PUSH2 0x1880 JUMPI PUSH2 0x187F PUSH2 0x16A0 JUMP JUMPDEST JUMPDEST PUSH2 0x188C DUP7 DUP3 DUP8 ADD PUSH2 0x17BD JUMP JUMPDEST SWAP4 POP POP PUSH1 0x20 DUP5 ADD CALLDATALOAD PUSH8 0xFFFFFFFFFFFFFFFF DUP2 GT ISZERO PUSH2 0x18AD JUMPI PUSH2 0x18AC PUSH2 0x16A0 JUMP JUMPDEST JUMPDEST PUSH2 0x18B9 DUP7 DUP3 DUP8 ADD PUSH2 0x17BD JUMP JUMPDEST SWAP3 POP POP PUSH1 0x40 PUSH2 0x18CA DUP7 DUP3 DUP8 ADD PUSH2 0x1834 JUMP JUMPDEST SWAP2 POP POP SWAP3 POP SWAP3 POP SWAP3 JUMP JUMPDEST PUSH1 0x0 DUP2 SWAP1 POP SWAP2 SWAP1 POP JUMP JUMPDEST PUSH2 0x18E7 DUP2 PUSH2 0x18D4 JUMP JUMPDEST DUP3 MSTORE POP POP JUMP JUMPDEST PUSH1 0x0 PUSH1 0x20 DUP3 ADD SWAP1 POP PUSH2 0x1902 PUSH1 0x0 DUP4 ADD DUP5 PUSH2 0x18DE JUMP JUMPDEST SWAP3 SWAP2 POP POP JUMP JUMPDEST PUSH1 0x0 DUP2 MLOAD SWAP1 POP SWAP2 SWAP1 POP JUMP JUMPDEST PUSH1 0x0 DUP3 DUP3 MSTORE PUSH1 0x20 DUP3 ADD SWAP1 POP SWAP3 SWAP2 POP POP JUMP JUMPDEST PUSH1 0x0 JUMPDEST DUP4 DUP2 LT ISZERO PUSH2 0x1942 JUMPI DUP1 DUP3 ADD MLOAD DUP2 DUP5 ADD MSTORE PUSH1 0x20 DUP2 ADD SWAP1 POP PUSH2 0x1927 JUMP JUMPDEST PUSH1 0x0 DUP5 DUP5 ADD MSTORE POP POP POP POP JUMP JUMPDEST PUSH1 0x0 PUSH2 0x1959 DUP3 PUSH2 0x1908 JUMP JUMPDEST PUSH2 0x1963 DUP2 DUP6 PUSH2 0x1913 JUMP JUMPDEST SWAP4 POP PUSH2 0x1973 DUP2 DUP6 PUSH1 0x20 DUP7 ADD PUSH2 0x1924 JUMP JUMPDEST PUSH2 0x197C DUP2 PUSH2 0x16AF JUMP JUMPDEST DUP5 ADD SWAP2 POP POP SWAP3 SWAP2 POP POP JUMP JUMPDEST PUSH1 0x0 PUSH1 0x20 DUP3 ADD SWAP1 POP DUP2 DUP2 SUB PUSH1 0x0 DUP4 ADD MSTORE PUSH2 0x19A1 DUP2 DUP5 PUSH2 0x194E JUMP JUMPDEST SWAP1 POP SWAP3 SWAP2 POP POP JUMP JUMPDEST PUSH1 0x0 DUP1 PUSH1 0x40 DUP4 DUP6 SUB SLT ISZERO PUSH2 0x19C0 JUMPI PUSH2 0x19BF PUSH2 0x169B JUMP JUMPDEST JUMPDEST PUSH1 0x0 DUP4 ADD CALLDATALOAD PUSH8 0xFFFFFFFFFFFFFFFF DUP2 GT ISZERO PUSH2 0x19DE JUMPI PUSH2 0x19DD PUSH2 0x16A0 JUMP JUMPDEST JUMPDEST PUSH2 0x19EA DUP6 DUP3 DUP7 ADD PUSH2 0x17BD JUMP JUMPDEST SWAP3 POP POP PUSH1 0x20 PUSH2 0x19FB DUP6 DUP3 DUP7 ADD PUSH2 0x1834 JUMP JUMPDEST SWAP2 POP POP SWAP3 POP SWAP3 SWAP1 POP JUMP JUMPDEST PUSH1 0x0 PUSH1 0xFF DUP3 AND SWAP1 POP SWAP2 SWAP1 POP JUMP JUMPDEST PUSH2 0x1A1B DUP2 PUSH2 0x1A05 JUMP JUMPDEST DUP3 MSTORE POP POP JUMP JUMPDEST PUSH1 0x0 PUSH1 0x60 DUP3 ADD SWAP1 POP PUSH2 0x1A36 PUSH1 0x0 DUP4 ADD DUP7 PUSH2 0x1A12 JUMP JUMPDEST DUP2 DUP2 SUB PUSH1 0x20 DUP4 ADD MSTORE PUSH2 0x1A48 DUP2 DUP6 PUSH2 0x194E JUMP JUMPDEST SWAP1 POP PUSH2 0x1A57 PUSH1 0x40 DUP4 ADD DUP5 PUSH2 0x1A12 JUMP JUMPDEST SWAP5 SWAP4 POP POP POP POP JUMP JUMPDEST PUSH2 0x1A68 DUP2 PUSH2 0x1A05 JUMP JUMPDEST DUP2 EQ PUSH2 0x1A73 JUMPI PUSH1 0x0 DUP1 REVERT JUMPDEST POP JUMP JUMPDEST PUSH1 0x0 DUP2 CALLDATALOAD SWAP1 POP PUSH2 0x1A85 DUP2 PUSH2 0x1A5F JUMP JUMPDEST SWAP3 SWAP2 POP POP JUMP JUMPDEST PUSH1 0x0 DUP1 PUSH1 0x40 DUP4 DUP6 SUB SLT ISZERO PUSH2 0x1AA2 JUMPI PUSH2 0x1AA1 PUSH2 0x169B JUMP JUMPDEST JUMPDEST PUSH1 0x0 PUSH2 0x1AB0 DUP6 DUP3 DUP7 ADD PUSH2 0x1A76 JUMP JUMPDEST SWAP3 POP POP PUSH1 0x20 PUSH2 0x1AC1 DUP6 DUP3 DUP7 ADD PUSH2 0x1834 JUMP JUMPDEST SWAP2 POP POP SWAP3 POP SWAP3 SWAP1 POP JUMP JUMPDEST PUSH1 0x0 PUSH1 0x20 DUP3 DUP5 SUB SLT ISZERO PUSH2 0x1AE1 JUMPI PUSH2 0x1AE0 PUSH2 0x169B JUMP JUMPDEST JUMPDEST PUSH1 0x0 PUSH2 0x1AEF DUP5 DUP3 DUP6 ADD PUSH2 0x1A76 JUMP JUMPDEST SWAP2 POP POP SWAP3 SWAP2 POP POP JUMP JUMPDEST PUSH2 0x1B01 DUP2 PUSH2 0x180B JUMP JUMPDEST DUP3 MSTORE POP POP JUMP JUMPDEST PUSH1 0x0 PUSH1 0x80 DUP3 ADD SWAP1 POP PUSH2 0x1B1C PUSH1 0x0 DUP4 ADD DUP8 PUSH2 0x1A12 JUMP JUMPDEST DUP2 DUP2 SUB PUSH1 0x20 DUP4 ADD MSTORE PUSH2 0x1B2E DUP2 DUP7 PUSH2 0x194E JUMP JUMPDEST SWAP1 POP DUP2 DUP2 SUB PUSH1 0x40 DUP4 ADD MSTORE PUSH2 0x1B42 DUP2 DUP6 PUSH2 0x194E JUMP JUMPDEST SWAP1 POP PUSH2 0x1B51 PUSH1 0x60 DUP4 ADD DUP5 PUSH2 0x1AF8 JUMP JUMPDEST SWAP6 SWAP5 POP POP POP POP POP JUMP JUMPDEST PUSH1 0x0 PUSH1 0x20 DUP3 DUP5 SUB SLT ISZERO PUSH2 0x1B70 JUMPI PUSH2 0x1B6F PUSH2 0x169B JUMP JUMPDEST JUMPDEST PUSH1 0x0 PUSH2 0x1B7E DUP5 DUP3 DUP6 ADD PUSH2 0x1834 JUMP JUMPDEST SWAP2 POP POP SWAP3 SWAP2 POP POP JUMP JUMPDEST PUSH1 0x0 PUSH1 0xA0 DUP3 ADD SWAP1 POP DUP2 DUP2 SUB PUSH1 0x0 DUP4 ADD MSTORE PUSH2 0x1BA1 DUP2 DUP9 PUSH2 0x194E JUMP JUMPDEST SWAP1 POP PUSH2 0x1BB0 PUSH1 0x20 DUP4 ADD DUP8 PUSH2 0x1AF8 JUMP JUMPDEST PUSH2 0x1BBD PUSH1 0x40 DUP4 ADD DUP7 PUSH2 0x1AF8 JUMP JUMPDEST PUSH2 0x1BCA PUSH1 0x60 DUP4 ADD DUP6 PUSH2 0x1A12 JUMP JUMPDEST PUSH2 0x1BD7 PUSH1 0x80 DUP4 ADD DUP5 PUSH2 0x1A12 JUMP JUMPDEST SWAP7 SWAP6 POP POP POP POP POP POP JUMP JUMPDEST PUSH1 0x0 DUP1 PUSH1 0x40 DUP4 DUP6 SUB SLT ISZERO PUSH2 0x1BF8 JUMPI PUSH2 0x1BF7 PUSH2 0x169B JUMP JUMPDEST JUMPDEST PUSH1 0x0 PUSH2 0x1C06 DUP6 DUP3 DUP7 ADD PUSH2 0x1834 JUMP JUMPDEST SWAP3 POP POP PUSH1 0x20 PUSH2 0x1C17 DUP6 DUP3 DUP7 ADD PUSH2 0x1834 JUMP JUMPDEST SWAP2 POP POP SWAP3 POP SWAP3 SWAP1 POP JUMP JUMPDEST PUSH32 0x4F6E6C792061646D696E20697320616C6C6F77656420746F206164642063616E PUSH1 0x0 DUP3 ADD MSTORE PUSH32 0x6469646174650000000000000000000000000000000000000000000000000000 PUSH1 0x20 DUP3 ADD MSTORE POP JUMP JUMPDEST PUSH1 0x0 PUSH2 0x1C7D PUSH1 0x26 DUP4 PUSH2 0x1913 JUMP JUMPDEST SWAP2 POP PUSH2 0x1C88 DUP3 PUSH2 0x1C21 JUMP JUMPDEST PUSH1 0x40 DUP3 ADD SWAP1 POP SWAP2 SWAP1 POP JUMP JUMPDEST PUSH1 0x0 PUSH1 0x20 DUP3 ADD SWAP1 POP DUP2 DUP2 SUB PUSH1 0x0 DUP4 ADD MSTORE PUSH2 0x1CAC DUP2 PUSH2 0x1C70 JUMP JUMPDEST SWAP1 POP SWAP2 SWAP1 POP JUMP JUMPDEST PUSH32 0x4E487B7100000000000000000000000000000000000000000000000000000000 PUSH1 0x0 MSTORE PUSH1 0x21 PUSH1 0x4 MSTORE PUSH1 0x24 PUSH1 0x0 REVERT JUMPDEST PUSH32 0x456C656374696F6E20616C726561647920737461727465640000000000000000 PUSH1 0x0 DUP3 ADD MSTORE POP JUMP JUMPDEST PUSH1 0x0 PUSH2 0x1D18 PUSH1 0x18 DUP4 PUSH2 0x1913 JUMP JUMPDEST SWAP2 POP PUSH2 0x1D23 DUP3 PUSH2 0x1CE2 JUMP JUMPDEST PUSH1 0x20 DUP3 ADD SWAP1 POP SWAP2 SWAP1 POP JUMP JUMPDEST PUSH1 0x0 PUSH1 0x20 DUP3 ADD SWAP1 POP DUP2 DUP2 SUB PUSH1 0x0 DUP4 ADD MSTORE PUSH2 0x1D47 DUP2 PUSH2 0x1D0B JUMP JUMPDEST SWAP1 POP SWAP2 SWAP1 POP JUMP JUMPDEST PUSH32 0x4E487B7100000000000000000000000000000000000000000000000000000000 PUSH1 0x0 MSTORE PUSH1 0x11 PUSH1 0x4 MSTORE PUSH1 0x24 PUSH1 0x0 REVERT JUMPDEST PUSH1 0x0 PUSH2 0x1D88 DUP3 PUSH2 0x1A05 JUMP JUMPDEST SWAP2 POP PUSH1 0xFF DUP3 SUB PUSH2 0x1D9B JUMPI PUSH2 0x1D9A PUSH2 0x1D4E JUMP JUMPDEST JUMPDEST PUSH1 0x1 DUP3 ADD SWAP1 POP SWAP2 SWAP1 POP JUMP JUMPDEST PUSH32 0x4E487B7100000000000000000000000000000000000000000000000000000000 PUSH1 0x0 MSTORE PUSH1 0x22 PUSH1 0x4 MSTORE PUSH1 0x24 PUSH1 0x0 REVERT JUMPDEST PUSH1 0x0 PUSH1 0x2 DUP3 DIV SWAP1 POP PUSH1 0x1 DUP3 AND DUP1 PUSH2 0x1DED JUMPI PUSH1 0x7F DUP3 AND SWAP2 POP JUMPDEST PUSH1 0x20 DUP3 LT DUP2 SUB PUSH2 0x1E00 JUMPI PUSH2 0x1DFF PUSH2 0x1DA6 JUMP JUMPDEST JUMPDEST POP SWAP2 SWAP1 POP JUMP JUMPDEST PUSH1 0x0 DUP2 SWAP1 POP DUP2 PUSH1 0x0 MSTORE PUSH1 0x20 PUSH1 0x0 KECCAK256 SWAP1 POP SWAP2 SWAP1 POP JUMP JUMPDEST PUSH1 0x0 PUSH1 0x20 PUSH1 0x1F DUP4 ADD DIV SWAP1 POP SWAP2 SWAP1 POP JUMP JUMPDEST PUSH1 0x0 DUP3 DUP3 SHL SWAP1 POP SWAP3 SWAP2 POP POP JUMP JUMPDEST PUSH1 0x0 PUSH1 0x8 DUP4 MUL PUSH2 0x1E68 PUSH32 0xFFFFFFFFFFFFFFFFFFFFFFFFFFFFFFFFFFFFFFFFFFFFFFFFFFFFFFFFFFFFFFFF DUP3 PUSH2 0x1E2B JUMP JUMPDEST PUSH2 0x1E72 DUP7 DUP4 PUSH2 0x1E2B JUMP JUMPDEST SWAP6 POP DUP1 NOT DUP5 AND SWAP4 POP DUP1 DUP7 AND DUP5 OR SWAP3 POP POP POP SWAP4 SWAP3 POP POP POP JUMP JUMPDEST PUSH1 0x0 DUP2 SWAP1 POP SWAP2 SWAP1 POP JUMP JUMPDEST PUSH1 0x0 PUSH2 0x1EAF PUSH2 0x1EAA PUSH2 0x1EA5 DUP5 PUSH2 0x18D4 JUMP JUMPDEST PUSH2 0x1E8A JUMP JUMPDEST PUSH2 0x18D4 JUMP JUMPDEST SWAP1 POP SWAP2 SWAP1 POP JUMP JUMPDEST PUSH1 0x0 DUP2 SWAP1 POP SWAP2 SWAP1 POP JUMP JUMPDEST PUSH2 0x1EC9 DUP4 PUSH2 0x1E94 JUMP JUMPDEST PUSH2 0x1EDD PUSH2 0x1ED5 DUP3 PUSH2 0x1EB6 JUMP JUMPDEST DUP5 DUP5 SLOAD PUSH2 0x1E38 JUMP JUMPDEST DUP3 SSTORE POP POP POP POP JUMP JUMPDEST PUSH1 0x0 SWAP1 JUMP JUMPDEST PUSH2 0x1EF2 PUSH2 0x1EE5 JUMP JUMPDEST PUSH2 0x1EFD DUP2 DUP5 DUP5 PUSH2 0x1EC0 JUMP JUMPDEST POP POP POP JUMP JUMPDEST JUMPDEST DUP2 DUP2 LT ISZERO PUSH2 0x1F21 JUMPI PUSH2 0x1F16 PUSH1 0x0 DUP3 PUSH2 0x1EEA JUMP JUMPDEST PUSH1 0x1 DUP2 ADD SWAP1 POP PUSH2 0x1F03 JUMP JUMPDEST POP POP JUMP JUMPDEST PUSH1 0x1F DUP3 GT ISZERO PUSH2 0x1F66 JUMPI PUSH2 0x1F37 DUP2 PUSH2 0x1E06 JUMP JUMPDEST PUSH2 0x1F40 DUP5 PUSH2 0x1E1B JUMP JUMPDEST DUP2 ADD PUSH1 0x20 DUP6 LT ISZERO PUSH2 0x1F4F JUMPI DUP2 SWAP1 POP JUMPDEST PUSH2 0x1F63 PUSH2 0x1F5B DUP6 PUSH2 0x1E1B JUMP JUMPDEST DUP4 ADD DUP3 PUSH2 0x1F02 JUMP JUMPDEST POP POP JUMPDEST POP POP POP JUMP JUMPDEST PUSH1 0x0 DUP3 DUP3 SHR SWAP1 POP SWAP3 SWAP2 POP POP JUMP JUMPDEST PUSH1 0x0 PUSH2 0x1F89 PUSH1 0x0 NOT DUP5 PUSH1 0x8 MUL PUSH2 0x1F6B JUMP JUMPDEST NOT DUP1 DUP4 AND SWAP2 POP POP SWAP3 SWAP2 POP POP JUMP JUMPDEST PUSH1 0x0 PUSH2 0x1FA2 DUP4 DUP4 PUSH2 0x1F78 JUMP JUMPDEST SWAP2 POP DUP3 PUSH1 0x2 MUL DUP3 OR SWAP1 POP SWAP3 SWAP2 POP POP JUMP JUMPDEST PUSH2 0x1FBB DUP3 PUSH2 0x1908 JUMP JUMPDEST PUSH8 0xFFFFFFFFFFFFFFFF DUP2 GT ISZERO PUSH2 0x1FD4 JUMPI PUSH2 0x1FD3 PUSH2 0x16C0 JUMP JUMPDEST JUMPDEST PUSH2 0x1FDE DUP3 SLOAD PUSH2 0x1DD5 JUMP JUMPDEST PUSH2 0x1FE9 DUP3 DUP3 DUP6 PUSH2 0x1F25 JUMP JUMPDEST PUSH1 0x0 PUSH1 0x20 SWAP1 POP PUSH1 0x1F DUP4 GT PUSH1 0x1 DUP2 EQ PUSH2 0x201C JUMPI PUSH1 0x0 DUP5 ISZERO PUSH2 0x200A JUMPI DUP3 DUP8 ADD MLOAD SWAP1 POP JUMPDEST PUSH2 0x2014 DUP6 DUP3 PUSH2 0x1F96 JUMP JUMPDEST DUP7 SSTORE POP PUSH2 0x207C JUMP JUMPDEST PUSH1 0x1F NOT DUP5 AND PUSH2 0x202A DUP7 PUSH2 0x1E06 JUMP JUMPDEST PUSH1 0x0 JUMPDEST DUP3 DUP2 LT ISZERO PUSH2 0x2052 JUMPI DUP5 DUP10 ADD MLOAD DUP3 SSTORE PUSH1 0x1 DUP3 ADD SWAP2 POP PUSH1 0x20 DUP6 ADD SWAP5 POP PUSH1 0x20 DUP2 ADD SWAP1 POP PUSH2 0x202D JUMP JUMPDEST DUP7 DUP4 LT ISZERO PUSH2 0x206F JUMPI DUP5 DUP10 ADD MLOAD PUSH2 0x206B PUSH1 0x1F DUP10 AND DUP3 PUSH2 0x1F78 JUMP JUMPDEST DUP4 SSTORE POP JUMPDEST PUSH1 0x1 PUSH1 0x2 DUP9 MUL ADD DUP9 SSTORE POP POP POP JUMPDEST POP POP POP POP POP POP JUMP JUMPDEST PUSH32 0x4F6E6C792061646D696E20697320616C6C6F77656420746F20656E6420656C65 PUSH1 0x0 DUP3 ADD MSTORE PUSH32 0x6374696F6E000000000000000000000000000000000000000000000000000000 PUSH1 0x20 DUP3 ADD MSTORE POP JUMP JUMPDEST PUSH1 0x0 PUSH2 0x20E0 PUSH1 0x25 DUP4 PUSH2 0x1913 JUMP JUMPDEST SWAP2 POP PUSH2 0x20EB DUP3 PUSH2 0x2084 JUMP JUMPDEST PUSH1 0x40 DUP3 ADD SWAP1 POP SWAP2 SWAP1 POP JUMP JUMPDEST PUSH1 0x0 PUSH1 0x20 DUP3 ADD SWAP1 POP DUP2 DUP2 SUB PUSH1 0x0 DUP4 ADD MSTORE PUSH2 0x210F DUP2 PUSH2 0x20D3 JUMP JUMPDEST SWAP1 POP SWAP2 SWAP1 POP JUMP JUMPDEST PUSH32 0x656C656374696F6E206973206E6F742073746172746564000000000000000000 PUSH1 0x0 DUP3 ADD MSTORE POP JUMP JUMPDEST PUSH1 0x0 PUSH2 0x214C PUSH1 0x17 DUP4 PUSH2 0x1913 JUMP JUMPDEST SWAP2 POP PUSH2 0x2157 DUP3 PUSH2 0x2116 JUMP JUMPDEST PUSH1 0x20 DUP3 ADD SWAP1 POP SWAP2 SWAP1 POP JUMP JUMPDEST PUSH1 0x0 PUSH1 0x20 DUP3 ADD SWAP1 POP DUP2 DUP2 SUB PUSH1 0x0 DUP4 ADD MSTORE PUSH2 0x217B DUP2 PUSH2 0x213F JUMP JUMPDEST SWAP1 POP SWAP2 SWAP1 POP JUMP JUMPDEST PUSH32 0x4F6E6C792061646D696E20697320616C6C6F77656420746F2073746172742065 PUSH1 0x0 DUP3 ADD MSTORE PUSH32 0x6C656374696F6E00000000000000000000000000000000000000000000000000 PUSH1 0x20 DUP3 ADD MSTORE POP JUMP JUMPDEST PUSH1 0x0 PUSH2 0x21DE PUSH1 0x27 DUP4 PUSH2 0x1913 JUMP JUMPDEST SWAP2 POP PUSH2 0x21E9 DUP3 PUSH2 0x2182 JUMP JUMPDEST PUSH1 0x40 DUP3 ADD SWAP1 POP SWAP2 SWAP1 POP JUMP JUMPDEST PUSH1 0x0 PUSH1 0x20 DUP3 ADD SWAP1 POP DUP2 DUP2 SUB PUSH1 0x0 DUP4 ADD MSTORE PUSH2 0x220D DUP2 PUSH2 0x21D1 JUMP JUMPDEST SWAP1 POP SWAP2 SWAP1 POP JUMP JUMPDEST PUSH32 0x4F6E6C792061646D696E20697320616C6C6F77656420746F2072657665616C20 PUSH1 0x0 DUP3 ADD MSTORE PUSH32 0x7468652077696E6E657200000000000000000000000000000000000000000000 PUSH1 0x20 DUP3 ADD MSTORE POP JUMP JUMPDEST PUSH1 0x0 PUSH2 0x2270 PUSH1 0x2A DUP4 PUSH2 0x1913 JUMP JUMPDEST SWAP2 POP PUSH2 0x227B DUP3 PUSH2 0x2214 JUMP JUMPDEST PUSH1 0x40 DUP3 ADD SWAP1 POP SWAP2 SWAP1 POP JUMP JUMPDEST PUSH1 0x0 PUSH1 0x20 DUP3 ADD SWAP1 POP DUP2 DUP2 SUB PUSH1 0x0 DUP4 ADD MSTORE PUSH2 0x229F DUP2 PUSH2 0x2263 JUMP JUMPDEST SWAP1 POP SWAP2 SWAP1 POP JUMP JUMPDEST PUSH32 0x456C656374696F6E206E6F7420656E6465640000000000000000000000000000 PUSH1 0x0 DUP3 ADD MSTORE POP JUMP JUMPDEST PUSH1 0x0 PUSH2 0x22DC PUSH1 0x12 DUP4 PUSH2 0x1913 JUMP JUMPDEST SWAP2 POP PUSH2 0x22E7 DUP3 PUSH2 0x22A6 JUMP JUMPDEST PUSH1 0x20 DUP3 ADD SWAP1 POP SWAP2 SWAP1 POP JUMP JUMPDEST PUSH1 0x0 PUSH1 0x20 DUP3 ADD SWAP1 POP DUP2 DUP2 SUB PUSH1 0x0 DUP4 ADD MSTORE PUSH2 0x230B DUP2 PUSH2 0x22CF JUMP JUMPDEST SWAP1 POP SWAP2 SWAP1 POP JUMP JUMPDEST PUSH32 0x4E487B7100000000000000000000000000000000000000000000000000000000 PUSH1 0x0 MSTORE PUSH1 0x32 PUSH1 0x4 MSTORE PUSH1 0x24 PUSH1 0x0 REVERT JUMPDEST PUSH32 0x4F6E6C7920766F7465722063616E20636173742068697320766F746500000000 PUSH1 0x0 DUP3 ADD MSTORE POP JUMP JUMPDEST PUSH1 0x0 PUSH2 0x2377 PUSH1 0x1C DUP4 PUSH2 0x1913 JUMP JUMPDEST SWAP2 POP PUSH2 0x2382 DUP3 PUSH2 0x2341 JUMP JUMPDEST PUSH1 0x20 DUP3 ADD SWAP1 POP SWAP2 SWAP1 POP JUMP JUMPDEST PUSH1 0x0 PUSH1 0x20 DUP3 ADD SWAP1 POP DUP2 DUP2 SUB PUSH1 0x0 DUP4 ADD MSTORE PUSH2 0x23A6 DUP2 PUSH2 0x236A JUMP JUMPDEST SWAP1 POP SWAP2 SWAP1 POP JUMP JUMPDEST PUSH32 0x566F74657220616C726561647920766F74656400000000000000000000000000 PUSH1 0x0 DUP3 ADD MSTORE POP JUMP JUMPDEST PUSH1 0x0 PUSH2 0x23E3 PUSH1 0x13 DUP4 PUSH2 0x1913 JUMP JUMPDEST SWAP2 POP PUSH2 0x23EE DUP3 PUSH2 0x23AD JUMP JUMPDEST PUSH1 0x20 DUP3 ADD SWAP1 POP SWAP2 SWAP1 POP JUMP JUMPDEST PUSH1 0x0 PUSH1 0x20 DUP3 ADD SWAP1 POP DUP2 DUP2 SUB PUSH1 0x0 DUP4 ADD MSTORE PUSH2 0x2412 DUP2 PUSH2 0x23D6 JUMP JUMPDEST SWAP1 POP SWAP2 SWAP1 POP JUMP JUMPDEST PUSH1 0x0 PUSH2 0x2424 DUP3 PUSH2 0x1A05 JUMP JUMPDEST SWAP2 POP PUSH2 0x242F DUP4 PUSH2 0x1A05 JUMP JUMPDEST SWAP3 POP DUP3 DUP3 ADD SWAP1 POP PUSH1 0xFF DUP2 GT ISZERO PUSH2 0x2448 JUMPI PUSH2 0x2447 PUSH2 0x1D4E JUMP JUMPDEST JUMPDEST SWAP3 SWAP2 POP POP JUMP JUMPDEST PUSH1 0x0 PUSH2 0x2459 DUP3 PUSH2 0x1A05 JUMP JUMPDEST SWAP2 POP PUSH2 0x2464 DUP4 PUSH2 0x1A05 JUMP JUMPDEST SWAP3 POP DUP3 DUP3 SUB SWAP1 POP PUSH1 0xFF DUP2 GT ISZERO PUSH2 0x247D JUMPI PUSH2 0x247C PUSH2 0x1D4E JUMP JUMPDEST JUMPDEST SWAP3 SWAP2 POP POP JUMP JUMPDEST PUSH32 0x4F6E6C7920766F7465722063616E2064656C69676174652068697320766F7465 PUSH1 0x0 DUP3 ADD MSTORE POP JUMP JUMPDEST PUSH1 0x0 PUSH2 0x24B9 PUSH1 0x20 DUP4 PUSH2 0x1913 JUMP JUMPDEST SWAP2 POP PUSH2 0x24C4 DUP3 PUSH2 0x2483 JUMP JUMPDEST PUSH1 0x20 DUP3 ADD SWAP1 POP SWAP2 SWAP1 POP JUMP JUMPDEST PUSH1 0x0 PUSH1 0x20 DUP3 ADD SWAP1 POP DUP2 DUP2 SUB PUSH1 0x0 DUP4 ADD MSTORE PUSH2 0x24E8 DUP2 PUSH2 0x24AC JUMP JUMPDEST SWAP1 POP SWAP2 SWAP1 POP JUMP JUMPDEST PUSH32 0x766F746572206E6F742065786973747300000000000000000000000000000000 PUSH1 0x0 DUP3 ADD MSTORE POP JUMP JUMPDEST PUSH1 0x0 PUSH2 0x2525 PUSH1 0x10 DUP4 PUSH2 0x1913 JUMP JUMPDEST SWAP2 POP PUSH2 0x2530 DUP3 PUSH2 0x24EF JUMP JUMPDEST PUSH1 0x20 DUP3 ADD SWAP1 POP SWAP2 SWAP1 POP JUMP JUMPDEST PUSH1 0x0 PUSH1 0x20 DUP3 ADD SWAP1 POP DUP2 DUP2 SUB PUSH1 0x0 DUP4 ADD MSTORE PUSH2 0x2554 DUP2 PUSH2 0x2518 JUMP JUMPDEST SWAP1 POP SWAP2 SWAP1 POP JUMP JUMPDEST PUSH32 0x7265636569766572206E6F742065786973747300000000000000000000000000 PUSH1 0x0 DUP3 ADD MSTORE POP JUMP JUMPDEST PUSH1 0x0 PUSH2 0x2591 PUSH1 0x13 DUP4 PUSH2 0x1913 JUMP JUMPDEST SWAP2 POP PUSH2 0x259C DUP3 PUSH2 0x255B JUMP JUMPDEST PUSH1 0x20 DUP3 ADD SWAP1 POP SWAP2 SWAP1 POP JUMP JUMPDEST PUSH1 0x0 PUSH1 0x20 DUP3 ADD SWAP1 POP DUP2 DUP2 SUB PUSH1 0x0 DUP4 ADD MSTORE PUSH2 0x25C0 DUP2 PUSH2 0x2584 JUMP JUMPDEST SWAP1 POP SWAP2 SWAP1 POP JUMP INVALID LOG2 PUSH5 0x6970667358 0x22 SLT KECCAK256 SWAP6 PUSH14 0x924DCBFE1ACA7BB2379293D401F6 OR DUP7 0xC1 LOG4 0xF6 PUSH18 0x6E8D7CCCD9D6C7B3CBF864736F6C63430008 SLT STOP CALLER "
				},
				"gasEstimates": {
					"creation": {
						"codeDepositCost": "1945000",
						"executionCost": "infinite",
						"totalCost": "infinite"
					},
					"external": {
						"addCandidate(string,string,address)": "infinite",
						"addVoter(string,address)": "infinite",
						"delegateVote(address,address)": "infinite",
						"endElection()": "29023",
						"getCandidate(uint8)": "infinite",
						"getCandidateCount()": "2512",
						"getElectionStatus()": "infinite",
						"getVoter(address)": "infinite",
						"getVoterCount()": "2468",
						"showWinner()": "infinite",
						"startElection()": "31178",
						"vote(uint8,address)": "infinite"
					}
				},
				"methodIdentifiers": {
					"addCandidate(string,string,address)": "0b32ff77",
					"addVoter(string,address)": "5607395b",
					"delegateVote(address,address)": "e5ed5b1e",
					"endElection()": "59f78468",
					"getCandidate(uint8)": "cde9370f",
					"getCandidateCount()": "30a56347",
					"getElectionStatus()": "122902a6",
					"getVoter(address)": "d4f50f98",
					"getVoterCount()": "11174a29",
					"showWinner()": "b7e03264",
					"startElection()": "62d73eb8",
					"vote(uint8,address)": "b81c6453"
				}
			},
			"storageLayout": {
				"storage": [
					{
						"astId": 5,
						"contract": "contracts/voting.sol:Voting",
						"label": "ElectionStatusMapping",
						"offset": 0,
						"slot": "0",
						"type": "t_mapping(t_uint8,t_string_storage)"
					},
					{
						"astId": 34,
						"contract": "contracts/voting.sol:Voting",
						"label": "admin",
						"offset": 0,
						"slot": "1",
						"type": "t_address"
					},
					{
						"astId": 39,
						"contract": "contracts/voting.sol:Voting",
						"label": "status",
						"offset": 20,
						"slot": "1",
						"type": "t_enum(ElectionStatus)31"
					},
					{
						"astId": 51,
						"contract": "contracts/voting.sol:Voting",
						"label": "candiateId",
						"offset": 21,
						"slot": "1",
						"type": "t_uint8"
					},
					{
						"astId": 56,
						"contract": "contracts/voting.sol:Voting",
						"label": "candidates",
						"offset": 0,
						"slot": "2",
						"type": "t_mapping(t_uint8,t_struct(Candidate)48_storage)"
					},
					{
						"astId": 72,
						"contract": "contracts/voting.sol:Voting",
						"label": "voters",
						"offset": 0,
						"slot": "3",
						"type": "t_mapping(t_address,t_struct(Voter)67_storage)"
					},
					{
						"astId": 75,
						"contract": "contracts/voting.sol:Voting",
						"label": "candidatesInElection",
						"offset": 0,
						"slot": "4",
						"type": "t_array(t_uint8)dyn_storage"
					},
					{
						"astId": 78,
						"contract": "contracts/voting.sol:Voting",
						"label": "votersInElection",
						"offset": 0,
						"slot": "5",
						"type": "t_array(t_address)dyn_storage"
					}
				],
				"types": {
					"t_address": {
						"encoding": "inplace",
						"label": "address",
						"numberOfBytes": "20"
					},
					"t_array(t_address)dyn_storage": {
						"base": "t_address",
						"encoding": "dynamic_array",
						"label": "address[]",
						"numberOfBytes": "32"
					},
					"t_array(t_uint8)dyn_storage": {
						"base": "t_uint8",
						"encoding": "dynamic_array",
						"label": "uint8[]",
						"numberOfBytes": "32"
					},
					"t_enum(ElectionStatus)31": {
						"encoding": "inplace",
						"label": "enum Voting.ElectionStatus",
						"numberOfBytes": "1"
					},
					"t_mapping(t_address,t_struct(Voter)67_storage)": {
						"encoding": "mapping",
						"key": "t_address",
						"label": "mapping(address => struct Voting.Voter)",
						"numberOfBytes": "32",
						"value": "t_struct(Voter)67_storage"
					},
					"t_mapping(t_uint8,t_string_storage)": {
						"encoding": "mapping",
						"key": "t_uint8",
						"label": "mapping(uint8 => string)",
						"numberOfBytes": "32",
						"value": "t_string_storage"
					},
					"t_mapping(t_uint8,t_struct(Candidate)48_storage)": {
						"encoding": "mapping",
						"key": "t_uint8",
						"label": "mapping(uint8 => struct Voting.Candidate)",
						"numberOfBytes": "32",
						"value": "t_struct(Candidate)48_storage"
					},
					"t_string_storage": {
						"encoding": "bytes",
						"label": "string",
						"numberOfBytes": "32"
					},
					"t_struct(Candidate)48_storage": {
						"encoding": "inplace",
						"label": "struct Voting.Candidate",
						"members": [
							{
								"astId": 41,
								"contract": "contracts/voting.sol:Voting",
								"label": "name",
								"offset": 0,
								"slot": "0",
								"type": "t_string_storage"
							},
							{
								"astId": 43,
								"contract": "contracts/voting.sol:Voting",
								"label": "owner",
								"offset": 0,
								"slot": "1",
								"type": "t_address"
							},
							{
								"astId": 45,
								"contract": "contracts/voting.sol:Voting",
								"label": "proposal",
								"offset": 0,
								"slot": "2",
								"type": "t_string_storage"
							},
							{
								"astId": 47,
								"contract": "contracts/voting.sol:Voting",
								"label": "votes",
								"offset": 0,
								"slot": "3",
								"type": "t_uint8"
							}
						],
						"numberOfBytes": "128"
					},
					"t_struct(Voter)67_storage": {
						"encoding": "inplace",
						"label": "struct Voting.Voter",
						"members": [
							{
								"astId": 58,
								"contract": "contracts/voting.sol:Voting",
								"label": "name",
								"offset": 0,
								"slot": "0",
								"type": "t_string_storage"
							},
							{
								"astId": 60,
								"contract": "contracts/voting.sol:Voting",
								"label": "voterAddress",
								"offset": 0,
								"slot": "1",
								"type": "t_address"
							},
							{
								"astId": 62,
								"contract": "contracts/voting.sol:Voting",
								"label": "no_of_votes",
								"offset": 20,
								"slot": "1",
								"type": "t_uint8"
							},
							{
								"astId": 64,
								"contract": "contracts/voting.sol:Voting",
								"label": "delegateAddress",
								"offset": 0,
								"slot": "2",
								"type": "t_address"
							},
							{
								"astId": 66,
								"contract": "contracts/voting.sol:Voting",
								"label": "votedTowards",
								"offset": 20,
								"slot": "2",
								"type": "t_uint8"
							}
						],
						"numberOfBytes": "96"
					},
					"t_uint8": {
						"encoding": "inplace",
						"label": "uint8",
						"numberOfBytes": "1"
					}
				}
			},
			"userdoc": {
				"kind": "user",
				"methods": {},
				"version": 1
			}
		}
	}
}