{
	"contracts/voting.sol": {
		"Voting": {
			"abi": [
				{
					"inputs": [
						{
							"internalType": "string",
							"name": "_name",
							"type": "string"
						},
						{
							"internalType": "string",
							"name": "_proposal",
							"type": "string"
						},
						{
							"internalType": "address",
							"name": "owner",
							"type": "address"
						}
					],
					"name": "addCandidate",
					"outputs": [],
					"stateMutability": "nonpayable",
					"type": "function"
				},
				{
					"inputs": [
						{
							"internalType": "string",
							"name": "name",
							"type": "string"
						},
						{
							"internalType": "address",
							"name": "_voterAddrress",
							"type": "address"
						}
					],
					"name": "addVoter",
					"outputs": [],
					"stateMutability": "nonpayable",
					"type": "function"
				},
				{
					"inputs": [
						{
							"internalType": "address",
							"name": "voterAddress",
							"type": "address"
						},
						{
							"internalType": "address",
							"name": "receiverAddress",
							"type": "address"
						}
					],
					"name": "delegateVote",
					"outputs": [],
					"stateMutability": "nonpayable",
					"type": "function"
				},
				{
					"inputs": [
						{
							"internalType": "address",
							"name": "owner",
							"type": "address"
						}
					],
					"name": "endElection",
					"outputs": [],
					"stateMutability": "nonpayable",
					"type": "function"
				},
				{
					"inputs": [
						{
							"internalType": "uint8",
							"name": "_id",
							"type": "uint8"
						}
					],
					"name": "getCandidate",
					"outputs": [
						{
							"components": [
								{
									"internalType": "string",
									"name": "name",
									"type": "string"
								},
								{
									"internalType": "address",
									"name": "owner",
									"type": "address"
								},
								{
									"internalType": "string",
									"name": "proposal",
									"type": "string"
								},
								{
									"internalType": "uint8",
									"name": "votes",
									"type": "uint8"
								}
							],
							"internalType": "struct Voting.Candidate",
							"name": "",
							"type": "tuple"
						}
					],
					"stateMutability": "view",
					"type": "function"
				},
				{
					"inputs": [],
					"name": "getElectionStatus",
					"outputs": [
						{
							"internalType": "enum Voting.ElectionStatus",
							"name": "",
							"type": "uint8"
						}
					],
					"stateMutability": "view",
					"type": "function"
				},
				{
					"inputs": [
						{
							"internalType": "address",
							"name": "_voterAddress",
							"type": "address"
						}
					],
					"name": "getVoter",
					"outputs": [
						{
							"components": [
								{
									"internalType": "string",
									"name": "name",
									"type": "string"
								},
								{
									"internalType": "address",
									"name": "voterAddress",
									"type": "address"
								},
								{
									"internalType": "uint8",
									"name": "no_of_votes",
									"type": "uint8"
								}
							],
							"internalType": "struct Voting.Voter",
							"name": "",
							"type": "tuple"
						}
					],
					"stateMutability": "view",
					"type": "function"
				},
				{
					"inputs": [
						{
							"internalType": "address",
							"name": "owner",
							"type": "address"
						}
					],
					"name": "startElection",
					"outputs": [],
					"stateMutability": "nonpayable",
					"type": "function"
				},
				{
					"inputs": [
						{
							"internalType": "uint8",
							"name": "candidateId",
							"type": "uint8"
						},
						{
							"internalType": "address",
							"name": "voter",
							"type": "address"
						}
					],
					"name": "vote",
					"outputs": [],
					"stateMutability": "nonpayable",
					"type": "function"
				}
			],
			"devdoc": {
				"kind": "dev",
				"methods": {},
				"version": 1
			},
			"evm": {
				"assembly": "    /* \"contracts/voting.sol\":70:2994  contract Voting {... */\n  mstore(0x40, 0x80)\n    /* \"contracts/voting.sol\":192:234  0x5B38Da6a701c568545dCfcB03FcB875f56beddC4 */\n  0x5b38da6a701c568545dcfcb03fcb875f56beddc4\n    /* \"contracts/voting.sol\":176:234  address admin = 0x5B38Da6a701c568545dCfcB03FcB875f56beddC4 */\n  0x00\n  dup1\n  0x0100\n  exp\n  dup2\n  sload\n  dup2\n  0xffffffffffffffffffffffffffffffffffffffff\n  mul\n  not\n  and\n  swap1\n  dup4\n  0xffffffffffffffffffffffffffffffffffffffff\n  and\n  mul\n  or\n  swap1\n  sstore\n  pop\n    /* \"contracts/voting.sol\":264:290  ElectionStatus.NOT_STARTED */\n  0x00\n    /* \"contracts/voting.sol\":240:290  ElectionStatus status = ElectionStatus.NOT_STARTED */\n  dup1\n  exp(0x0100, 0x14)\n  dup2\n  sload\n  dup2\n  0xff\n  mul\n  not\n  and\n  swap1\n  dup4\n  0x02\n  dup2\n  gt\n  iszero\n  tag_1\n  jumpi\n  tag_2\n  tag_3\n  jump\t// in\ntag_2:\ntag_1:\n  mul\n  or\n  swap1\n  sstore\n  pop\n    /* \"contracts/voting.sol\":433:434  0 */\n  0x00\n    /* \"contracts/voting.sol\":416:434  uint8 candiateId=0 */\n  dup1\n  exp(0x0100, 0x15)\n  dup2\n  sload\n  dup2\n  0xff\n  mul\n  not\n  and\n  swap1\n  dup4\n  0xff\n  and\n  mul\n  or\n  swap1\n  sstore\n  pop\n    /* \"contracts/voting.sol\":70:2994  contract Voting {... */\n  callvalue\n  dup1\n  iszero\n  tag_4\n  jumpi\n  0x00\n  dup1\n  revert\ntag_4:\n  pop\n  jump(tag_5)\n    /* \"#utility.yul\":7:187   */\ntag_3:\n    /* \"#utility.yul\":55:132   */\n  0x4e487b7100000000000000000000000000000000000000000000000000000000\n    /* \"#utility.yul\":52:53   */\n  0x00\n    /* \"#utility.yul\":45:133   */\n  mstore\n    /* \"#utility.yul\":152:156   */\n  0x21\n    /* \"#utility.yul\":149:150   */\n  0x04\n    /* \"#utility.yul\":142:157   */\n  mstore\n    /* \"#utility.yul\":176:180   */\n  0x24\n    /* \"#utility.yul\":173:174   */\n  0x00\n    /* \"#utility.yul\":166:181   */\n  revert\n    /* \"contracts/voting.sol\":70:2994  contract Voting {... */\ntag_5:\n  dataSize(sub_0)\n  dup1\n  dataOffset(sub_0)\n  0x00\n  codecopy\n  0x00\n  return\nstop\n\nsub_0: assembly {\n        /* \"contracts/voting.sol\":70:2994  contract Voting {... */\n      mstore(0x40, 0x80)\n      callvalue\n      dup1\n      iszero\n      tag_1\n      jumpi\n      0x00\n      dup1\n      revert\n    tag_1:\n      pop\n      jumpi(tag_2, lt(calldatasize, 0x04))\n      shr(0xe0, calldataload(0x00))\n      dup1\n      0xb81c6453\n      gt\n      tag_12\n      jumpi\n      dup1\n      0xb81c6453\n      eq\n      tag_7\n      jumpi\n      dup1\n      0xcde9370f\n      eq\n      tag_8\n      jumpi\n      dup1\n      0xd4f50f98\n      eq\n      tag_9\n      jumpi\n      dup1\n      0xe5ed5b1e\n      eq\n      tag_10\n      jumpi\n      dup1\n      0xe6a5e61d\n      eq\n      tag_11\n      jumpi\n      jump(tag_2)\n    tag_12:\n      dup1\n      0x07e4b70a\n      eq\n      tag_3\n      jumpi\n      dup1\n      0x0b32ff77\n      eq\n      tag_4\n      jumpi\n      dup1\n      0x122902a6\n      eq\n      tag_5\n      jumpi\n      dup1\n      0x5607395b\n      eq\n      tag_6\n      jumpi\n    tag_2:\n      0x00\n      dup1\n      revert\n        /* \"contracts/voting.sol\":1021:1261  function endElection(address owner) public {... */\n    tag_3:\n      tag_13\n      0x04\n      dup1\n      calldatasize\n      sub\n      dup2\n      add\n      swap1\n      tag_14\n      swap2\n      swap1\n      tag_15\n      jump\t// in\n    tag_14:\n      tag_16\n      jump\t// in\n    tag_13:\n      stop\n        /* \"contracts/voting.sol\":1267:1756  function addCandidate(... */\n    tag_4:\n      tag_17\n      0x04\n      dup1\n      calldatasize\n      sub\n      dup2\n      add\n      swap1\n      tag_18\n      swap2\n      swap1\n      tag_19\n      jump\t// in\n    tag_18:\n      tag_20\n      jump\t// in\n    tag_17:\n      stop\n        /* \"contracts/voting.sol\":919:1015  function getElectionStatus() public view returns (ElectionStatus) {... */\n    tag_5:\n      tag_21\n      tag_22\n      jump\t// in\n    tag_21:\n      mload(0x40)\n      tag_23\n      swap2\n      swap1\n      tag_24\n      jump\t// in\n    tag_23:\n      mload(0x40)\n      dup1\n      swap2\n      sub\n      swap1\n      return\n        /* \"contracts/voting.sol\":2003:2232  function addVoter(string memory  name,address _voterAddrress) public{... */\n    tag_6:\n      tag_25\n      0x04\n      dup1\n      calldatasize\n      sub\n      dup2\n      add\n      swap1\n      tag_26\n      swap2\n      swap1\n      tag_27\n      jump\t// in\n    tag_26:\n      tag_28\n      jump\t// in\n    tag_25:\n      stop\n        /* \"contracts/voting.sol\":2715:2991  function vote(uint8 candidateId, address voter) public{... */\n    tag_7:\n      tag_29\n      0x04\n      dup1\n      calldatasize\n      sub\n      dup2\n      add\n      swap1\n      tag_30\n      swap2\n      swap1\n      tag_31\n      jump\t// in\n    tag_30:\n      tag_32\n      jump\t// in\n    tag_29:\n      stop\n        /* \"contracts/voting.sol\":1762:1871  function getCandidate(uint8 _id) public view returns(Candidate memory){... */\n    tag_8:\n      tag_33\n      0x04\n      dup1\n      calldatasize\n      sub\n      dup2\n      add\n      swap1\n      tag_34\n      swap2\n      swap1\n      tag_35\n      jump\t// in\n    tag_34:\n      tag_36\n      jump\t// in\n    tag_33:\n      mload(0x40)\n      tag_37\n      swap2\n      swap1\n      tag_38\n      jump\t// in\n    tag_37:\n      mload(0x40)\n      dup1\n      swap2\n      sub\n      swap1\n      return\n        /* \"contracts/voting.sol\":1877:1997  function getVoter(address _voterAddress) public view returns (Voter memory){... */\n    tag_9:\n      tag_39\n      0x04\n      dup1\n      calldatasize\n      sub\n      dup2\n      add\n      swap1\n      tag_40\n      swap2\n      swap1\n      tag_15\n      jump\t// in\n    tag_40:\n      tag_41\n      jump\t// in\n    tag_39:\n      mload(0x40)\n      tag_42\n      swap2\n      swap1\n      tag_43\n      jump\t// in\n    tag_42:\n      mload(0x40)\n      dup1\n      swap2\n      sub\n      swap1\n      return\n        /* \"contracts/voting.sol\":2238:2709  function delegateVote(address voterAddress,address receiverAddress) public{... */\n    tag_10:\n      tag_44\n      0x04\n      dup1\n      calldatasize\n      sub\n      dup2\n      add\n      swap1\n      tag_45\n      swap2\n      swap1\n      tag_46\n      jump\t// in\n    tag_45:\n      tag_47\n      jump\t// in\n    tag_44:\n      stop\n        /* \"contracts/voting.sol\":626:913  function startElection(address owner) public {... */\n    tag_11:\n      tag_48\n      0x04\n      dup1\n      calldatasize\n      sub\n      dup2\n      add\n      swap1\n      tag_49\n      swap2\n      swap1\n      tag_15\n      jump\t// in\n    tag_49:\n      tag_50\n      jump\t// in\n    tag_48:\n      stop\n        /* \"contracts/voting.sol\":1021:1261  function endElection(address owner) public {... */\n    tag_16:\n        /* \"contracts/voting.sol\":1091:1096  admin */\n      0x00\n      dup1\n      sload\n      swap1\n      0x0100\n      exp\n      swap1\n      div\n      0xffffffffffffffffffffffffffffffffffffffff\n      and\n        /* \"contracts/voting.sol\":1082:1096  owner == admin */\n      0xffffffffffffffffffffffffffffffffffffffff\n      and\n        /* \"contracts/voting.sol\":1082:1087  owner */\n      dup2\n        /* \"contracts/voting.sol\":1082:1096  owner == admin */\n      0xffffffffffffffffffffffffffffffffffffffff\n      and\n      eq\n        /* \"contracts/voting.sol\":1074:1137  require(owner == admin,\"Only admin is allowed to end election\") */\n      tag_52\n      jumpi\n      mload(0x40)\n      0x08c379a000000000000000000000000000000000000000000000000000000000\n      dup2\n      mstore\n      0x04\n      add\n      tag_53\n      swap1\n      tag_54\n      jump\t// in\n    tag_53:\n      mload(0x40)\n      dup1\n      swap2\n      sub\n      swap1\n      revert\n    tag_52:\n        /* \"contracts/voting.sol\":1166:1188  ElectionStatus.STARTED */\n      0x01\n        /* \"contracts/voting.sol\":1156:1188  status == ElectionStatus.STARTED */\n      0x02\n      dup2\n      gt\n      iszero\n      tag_55\n      jumpi\n      tag_56\n      tag_57\n      jump\t// in\n    tag_56:\n    tag_55:\n        /* \"contracts/voting.sol\":1156:1162  status */\n      0x00\n      0x14\n      swap1\n      sload\n      swap1\n      0x0100\n      exp\n      swap1\n      div\n      0xff\n      and\n        /* \"contracts/voting.sol\":1156:1188  status == ElectionStatus.STARTED */\n      0x02\n      dup2\n      gt\n      iszero\n      tag_58\n      jumpi\n      tag_59\n      tag_57\n      jump\t// in\n    tag_59:\n    tag_58:\n      eq\n        /* \"contracts/voting.sol\":1147:1215  require (status == ElectionStatus.STARTED,\"election is not started\") */\n      tag_60\n      jumpi\n      mload(0x40)\n      0x08c379a000000000000000000000000000000000000000000000000000000000\n      dup2\n      mstore\n      0x04\n      add\n      tag_61\n      swap1\n      tag_62\n      jump\t// in\n    tag_61:\n      mload(0x40)\n      dup1\n      swap2\n      sub\n      swap1\n      revert\n    tag_60:\n        /* \"contracts/voting.sol\":1234:1254  ElectionStatus.ENDED */\n      0x02\n        /* \"contracts/voting.sol\":1225:1231  status */\n      0x00\n      0x14\n        /* \"contracts/voting.sol\":1225:1254  status = ElectionStatus.ENDED */\n      0x0100\n      exp\n      dup2\n      sload\n      dup2\n      0xff\n      mul\n      not\n      and\n      swap1\n      dup4\n      0x02\n      dup2\n      gt\n      iszero\n      tag_63\n      jumpi\n      tag_64\n      tag_57\n      jump\t// in\n    tag_64:\n    tag_63:\n      mul\n      or\n      swap1\n      sstore\n      pop\n        /* \"contracts/voting.sol\":1021:1261  function endElection(address owner) public {... */\n      pop\n      jump\t// out\n        /* \"contracts/voting.sol\":1267:1756  function addCandidate(... */\n    tag_20:\n        /* \"contracts/voting.sol\":1419:1424  admin */\n      0x00\n      dup1\n      sload\n      swap1\n      0x0100\n      exp\n      swap1\n      div\n      0xffffffffffffffffffffffffffffffffffffffff\n      and\n        /* \"contracts/voting.sol\":1405:1424  msg.sender == admin */\n      0xffffffffffffffffffffffffffffffffffffffff\n      and\n        /* \"contracts/voting.sol\":1405:1415  msg.sender */\n      caller\n        /* \"contracts/voting.sol\":1405:1424  msg.sender == admin */\n      0xffffffffffffffffffffffffffffffffffffffff\n      and\n      eq\n        /* \"contracts/voting.sol\":1397:1466  require(msg.sender == admin,\"Only admin is allowed to add candidate\") */\n      tag_66\n      jumpi\n      mload(0x40)\n      0x08c379a000000000000000000000000000000000000000000000000000000000\n      dup2\n      mstore\n      0x04\n      add\n      tag_67\n      swap1\n      tag_68\n      jump\t// in\n    tag_67:\n      mload(0x40)\n      dup1\n      swap2\n      sub\n      swap1\n      revert\n    tag_66:\n        /* \"contracts/voting.sol\":1495:1521  ElectionStatus.NOT_STARTED */\n      0x00\n        /* \"contracts/voting.sol\":1485:1521  status == ElectionStatus.NOT_STARTED */\n      0x02\n      dup2\n      gt\n      iszero\n      tag_69\n      jumpi\n      tag_70\n      tag_57\n      jump\t// in\n    tag_70:\n    tag_69:\n        /* \"contracts/voting.sol\":1485:1491  status */\n      0x00\n      0x14\n      swap1\n      sload\n      swap1\n      0x0100\n      exp\n      swap1\n      div\n      0xff\n      and\n        /* \"contracts/voting.sol\":1485:1521  status == ElectionStatus.NOT_STARTED */\n      0x02\n      dup2\n      gt\n      iszero\n      tag_71\n      jumpi\n      tag_72\n      tag_57\n      jump\t// in\n    tag_72:\n    tag_71:\n      eq\n        /* \"contracts/voting.sol\":1485:1554  status == ElectionStatus.NOT_STARTED ||status == ElectionStatus.ENDED */\n      dup1\n      tag_73\n      jumpi\n      pop\n        /* \"contracts/voting.sol\":1534:1554  ElectionStatus.ENDED */\n      0x02\n        /* \"contracts/voting.sol\":1524:1554  status == ElectionStatus.ENDED */\n      dup1\n      dup2\n      gt\n      iszero\n      tag_74\n      jumpi\n      tag_75\n      tag_57\n      jump\t// in\n    tag_75:\n    tag_74:\n        /* \"contracts/voting.sol\":1524:1530  status */\n      0x00\n      0x14\n      swap1\n      sload\n      swap1\n      0x0100\n      exp\n      swap1\n      div\n      0xff\n      and\n        /* \"contracts/voting.sol\":1524:1554  status == ElectionStatus.ENDED */\n      0x02\n      dup2\n      gt\n      iszero\n      tag_76\n      jumpi\n      tag_77\n      tag_57\n      jump\t// in\n    tag_77:\n    tag_76:\n      eq\n        /* \"contracts/voting.sol\":1485:1554  status == ElectionStatus.NOT_STARTED ||status == ElectionStatus.ENDED */\n    tag_73:\n        /* \"contracts/voting.sol\":1476:1583  require((status == ElectionStatus.NOT_STARTED ||status == ElectionStatus.ENDED),\"Election already started\") */\n      tag_78\n      jumpi\n      mload(0x40)\n      0x08c379a000000000000000000000000000000000000000000000000000000000\n      dup2\n      mstore\n      0x04\n      add\n      tag_79\n      swap1\n      tag_80\n      jump\t// in\n    tag_79:\n      mload(0x40)\n      dup1\n      swap2\n      sub\n      swap1\n      revert\n    tag_78:\n        /* \"contracts/voting.sol\":1593:1603  candiateId */\n      0x00\n      0x15\n        /* \"contracts/voting.sol\":1593:1605  candiateId++ */\n      dup2\n      dup2\n      swap1\n      sload\n      swap1\n      0x0100\n      exp\n      swap1\n      div\n      0xff\n      and\n      dup1\n      swap3\n      swap2\n      swap1\n      tag_81\n      swap1\n      tag_82\n      jump\t// in\n    tag_81:\n      swap2\n      swap1\n      0x0100\n      exp\n      dup2\n      sload\n      dup2\n      0xff\n      mul\n      not\n      and\n      swap1\n      dup4\n      0xff\n      and\n      mul\n      or\n      swap1\n      sstore\n      pop\n      pop\n        /* \"contracts/voting.sol\":1645:1650  _name */\n      dup3\n        /* \"contracts/voting.sol\":1615:1625  candidates */\n      0x01\n        /* \"contracts/voting.sol\":1615:1637  candidates[candiateId] */\n      0x00\n        /* \"contracts/voting.sol\":1626:1636  candiateId */\n      dup1\n      0x15\n      swap1\n      sload\n      swap1\n      0x0100\n      exp\n      swap1\n      div\n      0xff\n      and\n        /* \"contracts/voting.sol\":1615:1637  candidates[candiateId] */\n      0xff\n      and\n      0xff\n      and\n      dup2\n      mstore\n      0x20\n      add\n      swap1\n      dup2\n      mstore\n      0x20\n      add\n      0x00\n      keccak256\n        /* \"contracts/voting.sol\":1615:1642  candidates[candiateId].name */\n      0x00\n      add\n        /* \"contracts/voting.sol\":1615:1650  candidates[candiateId].name = _name */\n      swap1\n      dup2\n      tag_83\n      swap2\n      swap1\n      tag_84\n      jump\t// in\n    tag_83:\n      pop\n        /* \"contracts/voting.sol\":1694:1703  _proposal */\n      dup2\n        /* \"contracts/voting.sol\":1660:1670  candidates */\n      0x01\n        /* \"contracts/voting.sol\":1660:1682  candidates[candiateId] */\n      0x00\n        /* \"contracts/voting.sol\":1671:1681  candiateId */\n      dup1\n      0x15\n      swap1\n      sload\n      swap1\n      0x0100\n      exp\n      swap1\n      div\n      0xff\n      and\n        /* \"contracts/voting.sol\":1660:1682  candidates[candiateId] */\n      0xff\n      and\n      0xff\n      and\n      dup2\n      mstore\n      0x20\n      add\n      swap1\n      dup2\n      mstore\n      0x20\n      add\n      0x00\n      keccak256\n        /* \"contracts/voting.sol\":1660:1691  candidates[candiateId].proposal */\n      0x02\n      add\n        /* \"contracts/voting.sol\":1660:1703  candidates[candiateId].proposal = _proposal */\n      swap1\n      dup2\n      tag_85\n      swap2\n      swap1\n      tag_84\n      jump\t// in\n    tag_85:\n      pop\n        /* \"contracts/voting.sol\":1744:1749  owner */\n      dup1\n        /* \"contracts/voting.sol\":1713:1723  candidates */\n      0x01\n        /* \"contracts/voting.sol\":1713:1735  candidates[candiateId] */\n      0x00\n        /* \"contracts/voting.sol\":1724:1734  candiateId */\n      dup1\n      0x15\n      swap1\n      sload\n      swap1\n      0x0100\n      exp\n      swap1\n      div\n      0xff\n      and\n        /* \"contracts/voting.sol\":1713:1735  candidates[candiateId] */\n      0xff\n      and\n      0xff\n      and\n      dup2\n      mstore\n      0x20\n      add\n      swap1\n      dup2\n      mstore\n      0x20\n      add\n      0x00\n      keccak256\n        /* \"contracts/voting.sol\":1713:1741  candidates[candiateId].owner */\n      0x01\n      add\n      0x00\n        /* \"contracts/voting.sol\":1713:1749  candidates[candiateId].owner = owner */\n      0x0100\n      exp\n      dup2\n      sload\n      dup2\n      0xffffffffffffffffffffffffffffffffffffffff\n      mul\n      not\n      and\n      swap1\n      dup4\n      0xffffffffffffffffffffffffffffffffffffffff\n      and\n      mul\n      or\n      swap1\n      sstore\n      pop\n        /* \"contracts/voting.sol\":1267:1756  function addCandidate(... */\n      pop\n      pop\n      pop\n      jump\t// out\n        /* \"contracts/voting.sol\":919:1015  function getElectionStatus() public view returns (ElectionStatus) {... */\n    tag_22:\n        /* \"contracts/voting.sol\":969:983  ElectionStatus */\n      0x00\n        /* \"contracts/voting.sol\":1002:1008  status */\n      dup1\n      0x14\n      swap1\n      sload\n      swap1\n      0x0100\n      exp\n      swap1\n      div\n      0xff\n      and\n        /* \"contracts/voting.sol\":995:1008  return status */\n      swap1\n      pop\n        /* \"contracts/voting.sol\":919:1015  function getElectionStatus() public view returns (ElectionStatus) {... */\n      swap1\n      jump\t// out\n        /* \"contracts/voting.sol\":2003:2232  function addVoter(string memory  name,address _voterAddrress) public{... */\n    tag_28:\n        /* \"contracts/voting.sol\":2111:2115  name */\n      dup2\n        /* \"contracts/voting.sol\":2081:2087  voters */\n      0x02\n        /* \"contracts/voting.sol\":2081:2103  voters[_voterAddrress] */\n      0x00\n        /* \"contracts/voting.sol\":2088:2102  _voterAddrress */\n      dup4\n        /* \"contracts/voting.sol\":2081:2103  voters[_voterAddrress] */\n      0xffffffffffffffffffffffffffffffffffffffff\n      and\n      0xffffffffffffffffffffffffffffffffffffffff\n      and\n      dup2\n      mstore\n      0x20\n      add\n      swap1\n      dup2\n      mstore\n      0x20\n      add\n      0x00\n      keccak256\n        /* \"contracts/voting.sol\":2081:2108  voters[_voterAddrress].name */\n      0x00\n      add\n        /* \"contracts/voting.sol\":2081:2115  voters[_voterAddrress].name = name */\n      swap1\n      dup2\n      tag_88\n      swap2\n      swap1\n      tag_84\n      jump\t// in\n    tag_88:\n      pop\n        /* \"contracts/voting.sol\":2163:2177  _voterAddrress */\n      dup1\n        /* \"contracts/voting.sol\":2125:2131  voters */\n      0x02\n        /* \"contracts/voting.sol\":2125:2147  voters[_voterAddrress] */\n      0x00\n        /* \"contracts/voting.sol\":2132:2146  _voterAddrress */\n      dup4\n        /* \"contracts/voting.sol\":2125:2147  voters[_voterAddrress] */\n      0xffffffffffffffffffffffffffffffffffffffff\n      and\n      0xffffffffffffffffffffffffffffffffffffffff\n      and\n      dup2\n      mstore\n      0x20\n      add\n      swap1\n      dup2\n      mstore\n      0x20\n      add\n      0x00\n      keccak256\n        /* \"contracts/voting.sol\":2125:2160  voters[_voterAddrress].voterAddress */\n      0x01\n      add\n      0x00\n        /* \"contracts/voting.sol\":2125:2177  voters[_voterAddrress].voterAddress = _voterAddrress */\n      0x0100\n      exp\n      dup2\n      sload\n      dup2\n      0xffffffffffffffffffffffffffffffffffffffff\n      mul\n      not\n      and\n      swap1\n      dup4\n      0xffffffffffffffffffffffffffffffffffffffff\n      and\n      mul\n      or\n      swap1\n      sstore\n      pop\n        /* \"contracts/voting.sol\":2224:2225  1 */\n      0x01\n        /* \"contracts/voting.sol\":2187:2193  voters */\n      0x02\n        /* \"contracts/voting.sol\":2187:2209  voters[_voterAddrress] */\n      0x00\n        /* \"contracts/voting.sol\":2194:2208  _voterAddrress */\n      dup4\n        /* \"contracts/voting.sol\":2187:2209  voters[_voterAddrress] */\n      0xffffffffffffffffffffffffffffffffffffffff\n      and\n      0xffffffffffffffffffffffffffffffffffffffff\n      and\n      dup2\n      mstore\n      0x20\n      add\n      swap1\n      dup2\n      mstore\n      0x20\n      add\n      0x00\n      keccak256\n        /* \"contracts/voting.sol\":2187:2221  voters[_voterAddrress].no_of_votes */\n      0x01\n      add\n      0x14\n        /* \"contracts/voting.sol\":2187:2225  voters[_voterAddrress].no_of_votes = 1 */\n      0x0100\n      exp\n      dup2\n      sload\n      dup2\n      0xff\n      mul\n      not\n      and\n      swap1\n      dup4\n      0xff\n      and\n      mul\n      or\n      swap1\n      sstore\n      pop\n        /* \"contracts/voting.sol\":2003:2232  function addVoter(string memory  name,address _voterAddrress) public{... */\n      pop\n      pop\n      jump\t// out\n        /* \"contracts/voting.sol\":2715:2991  function vote(uint8 candidateId, address voter) public{... */\n    tag_32:\n        /* \"contracts/voting.sol\":2799:2804  voter */\n      dup1\n        /* \"contracts/voting.sol\":2787:2804  msg.sender==voter */\n      0xffffffffffffffffffffffffffffffffffffffff\n      and\n        /* \"contracts/voting.sol\":2787:2797  msg.sender */\n      caller\n        /* \"contracts/voting.sol\":2787:2804  msg.sender==voter */\n      0xffffffffffffffffffffffffffffffffffffffff\n      and\n      eq\n        /* \"contracts/voting.sol\":2779:2836  require(msg.sender==voter,\"Only voter can cast his vote\") */\n      tag_90\n      jumpi\n      mload(0x40)\n      0x08c379a000000000000000000000000000000000000000000000000000000000\n      dup2\n      mstore\n      0x04\n      add\n      tag_91\n      swap1\n      tag_92\n      jump\t// in\n    tag_91:\n      mload(0x40)\n      dup1\n      swap2\n      sub\n      swap1\n      revert\n    tag_90:\n        /* \"contracts/voting.sol\":2880:2881  0 */\n      0x00\n        /* \"contracts/voting.sol\":2854:2860  voters */\n      0x02\n        /* \"contracts/voting.sol\":2854:2867  voters[voter] */\n      0x00\n        /* \"contracts/voting.sol\":2861:2866  voter */\n      dup4\n        /* \"contracts/voting.sol\":2854:2867  voters[voter] */\n      0xffffffffffffffffffffffffffffffffffffffff\n      and\n      0xffffffffffffffffffffffffffffffffffffffff\n      and\n      dup2\n      mstore\n      0x20\n      add\n      swap1\n      dup2\n      mstore\n      0x20\n      add\n      0x00\n      keccak256\n        /* \"contracts/voting.sol\":2854:2879  voters[voter].no_of_votes */\n      0x01\n      add\n      0x14\n      swap1\n      sload\n      swap1\n      0x0100\n      exp\n      swap1\n      div\n      0xff\n      and\n        /* \"contracts/voting.sol\":2854:2881  voters[voter].no_of_votes>0 */\n      0xff\n      and\n      gt\n        /* \"contracts/voting.sol\":2846:2904  require(voters[voter].no_of_votes>0,\"Voter already voted\") */\n      tag_93\n      jumpi\n      mload(0x40)\n      0x08c379a000000000000000000000000000000000000000000000000000000000\n      dup2\n      mstore\n      0x04\n      add\n      tag_94\n      swap1\n      tag_95\n      jump\t// in\n    tag_94:\n      mload(0x40)\n      dup1\n      swap2\n      sub\n      swap1\n      revert\n    tag_93:\n        /* \"contracts/voting.sol\":2945:2946  1 */\n      0x01\n        /* \"contracts/voting.sol\":2914:2924  candidates */\n      dup1\n        /* \"contracts/voting.sol\":2914:2937  candidates[candidateId] */\n      0x00\n        /* \"contracts/voting.sol\":2925:2936  candidateId */\n      dup5\n        /* \"contracts/voting.sol\":2914:2937  candidates[candidateId] */\n      0xff\n      and\n      0xff\n      and\n      dup2\n      mstore\n      0x20\n      add\n      swap1\n      dup2\n      mstore\n      0x20\n      add\n      0x00\n      keccak256\n        /* \"contracts/voting.sol\":2914:2943  candidates[candidateId].votes */\n      0x03\n      add\n      0x00\n        /* \"contracts/voting.sol\":2914:2946  candidates[candidateId].votes+=1 */\n      dup3\n      dup3\n      dup3\n      swap1\n      sload\n      swap1\n      0x0100\n      exp\n      swap1\n      div\n      0xff\n      and\n      tag_96\n      swap2\n      swap1\n      tag_97\n      jump\t// in\n    tag_96:\n      swap3\n      pop\n      0x0100\n      exp\n      dup2\n      sload\n      dup2\n      0xff\n      mul\n      not\n      and\n      swap1\n      dup4\n      0xff\n      and\n      mul\n      or\n      swap1\n      sstore\n      pop\n        /* \"contracts/voting.sol\":2983:2984  1 */\n      0x01\n        /* \"contracts/voting.sol\":2956:2962  voters */\n      0x02\n        /* \"contracts/voting.sol\":2956:2969  voters[voter] */\n      0x00\n        /* \"contracts/voting.sol\":2963:2968  voter */\n      dup4\n        /* \"contracts/voting.sol\":2956:2969  voters[voter] */\n      0xffffffffffffffffffffffffffffffffffffffff\n      and\n      0xffffffffffffffffffffffffffffffffffffffff\n      and\n      dup2\n      mstore\n      0x20\n      add\n      swap1\n      dup2\n      mstore\n      0x20\n      add\n      0x00\n      keccak256\n        /* \"contracts/voting.sol\":2956:2981  voters[voter].no_of_votes */\n      0x01\n      add\n      0x14\n        /* \"contracts/voting.sol\":2956:2984  voters[voter].no_of_votes-=1 */\n      dup3\n      dup3\n      dup3\n      swap1\n      sload\n      swap1\n      0x0100\n      exp\n      swap1\n      div\n      0xff\n      and\n      tag_98\n      swap2\n      swap1\n      tag_99\n      jump\t// in\n    tag_98:\n      swap3\n      pop\n      0x0100\n      exp\n      dup2\n      sload\n      dup2\n      0xff\n      mul\n      not\n      and\n      swap1\n      dup4\n      0xff\n      and\n      mul\n      or\n      swap1\n      sstore\n      pop\n        /* \"contracts/voting.sol\":2715:2991  function vote(uint8 candidateId, address voter) public{... */\n      pop\n      pop\n      jump\t// out\n        /* \"contracts/voting.sol\":1762:1871  function getCandidate(uint8 _id) public view returns(Candidate memory){... */\n    tag_36:\n        /* \"contracts/voting.sol\":1815:1831  Candidate memory */\n      tag_100\n      tag_101\n      jump\t// in\n    tag_100:\n        /* \"contracts/voting.sol\":1849:1859  candidates */\n      0x01\n        /* \"contracts/voting.sol\":1849:1864  candidates[_id] */\n      0x00\n        /* \"contracts/voting.sol\":1860:1863  _id */\n      dup4\n        /* \"contracts/voting.sol\":1849:1864  candidates[_id] */\n      0xff\n      and\n      0xff\n      and\n      dup2\n      mstore\n      0x20\n      add\n      swap1\n      dup2\n      mstore\n      0x20\n      add\n      0x00\n      keccak256\n        /* \"contracts/voting.sol\":1842:1864  return candidates[_id] */\n      mload(0x40)\n      dup1\n      0x80\n      add\n      0x40\n      mstore\n      swap1\n      dup2\n      0x00\n      dup3\n      add\n      dup1\n      sload\n      tag_103\n      swap1\n      tag_104\n      jump\t// in\n    tag_103:\n      dup1\n      0x1f\n      add\n      0x20\n      dup1\n      swap2\n      div\n      mul\n      0x20\n      add\n      mload(0x40)\n      swap1\n      dup2\n      add\n      0x40\n      mstore\n      dup1\n      swap3\n      swap2\n      swap1\n      dup2\n      dup2\n      mstore\n      0x20\n      add\n      dup3\n      dup1\n      sload\n      tag_105\n      swap1\n      tag_104\n      jump\t// in\n    tag_105:\n      dup1\n      iszero\n      tag_106\n      jumpi\n      dup1\n      0x1f\n      lt\n      tag_107\n      jumpi\n      0x0100\n      dup1\n      dup4\n      sload\n      div\n      mul\n      dup4\n      mstore\n      swap2\n      0x20\n      add\n      swap2\n      jump(tag_106)\n    tag_107:\n      dup3\n      add\n      swap2\n      swap1\n      0x00\n      mstore\n      keccak256(0x00, 0x20)\n      swap1\n    tag_108:\n      dup2\n      sload\n      dup2\n      mstore\n      swap1\n      0x01\n      add\n      swap1\n      0x20\n      add\n      dup1\n      dup4\n      gt\n      tag_108\n      jumpi\n      dup3\n      swap1\n      sub\n      0x1f\n      and\n      dup3\n      add\n      swap2\n    tag_106:\n      pop\n      pop\n      pop\n      pop\n      pop\n      dup2\n      mstore\n      0x20\n      add\n      0x01\n      dup3\n      add\n      0x00\n      swap1\n      sload\n      swap1\n      0x0100\n      exp\n      swap1\n      div\n      0xffffffffffffffffffffffffffffffffffffffff\n      and\n      0xffffffffffffffffffffffffffffffffffffffff\n      and\n      0xffffffffffffffffffffffffffffffffffffffff\n      and\n      dup2\n      mstore\n      0x20\n      add\n      0x02\n      dup3\n      add\n      dup1\n      sload\n      tag_109\n      swap1\n      tag_104\n      jump\t// in\n    tag_109:\n      dup1\n      0x1f\n      add\n      0x20\n      dup1\n      swap2\n      div\n      mul\n      0x20\n      add\n      mload(0x40)\n      swap1\n      dup2\n      add\n      0x40\n      mstore\n      dup1\n      swap3\n      swap2\n      swap1\n      dup2\n      dup2\n      mstore\n      0x20\n      add\n      dup3\n      dup1\n      sload\n      tag_110\n      swap1\n      tag_104\n      jump\t// in\n    tag_110:\n      dup1\n      iszero\n      tag_111\n      jumpi\n      dup1\n      0x1f\n      lt\n      tag_112\n      jumpi\n      0x0100\n      dup1\n      dup4\n      sload\n      div\n      mul\n      dup4\n      mstore\n      swap2\n      0x20\n      add\n      swap2\n      jump(tag_111)\n    tag_112:\n      dup3\n      add\n      swap2\n      swap1\n      0x00\n      mstore\n      keccak256(0x00, 0x20)\n      swap1\n    tag_113:\n      dup2\n      sload\n      dup2\n      mstore\n      swap1\n      0x01\n      add\n      swap1\n      0x20\n      add\n      dup1\n      dup4\n      gt\n      tag_113\n      jumpi\n      dup3\n      swap1\n      sub\n      0x1f\n      and\n      dup3\n      add\n      swap2\n    tag_111:\n      pop\n      pop\n      pop\n      pop\n      pop\n      dup2\n      mstore\n      0x20\n      add\n      0x03\n      dup3\n      add\n      0x00\n      swap1\n      sload\n      swap1\n      0x0100\n      exp\n      swap1\n      div\n      0xff\n      and\n      0xff\n      and\n      0xff\n      and\n      dup2\n      mstore\n      pop\n      pop\n      swap1\n      pop\n        /* \"contracts/voting.sol\":1762:1871  function getCandidate(uint8 _id) public view returns(Candidate memory){... */\n      swap2\n      swap1\n      pop\n      jump\t// out\n        /* \"contracts/voting.sol\":1877:1997  function getVoter(address _voterAddress) public view returns (Voter memory){... */\n    tag_41:\n        /* \"contracts/voting.sol\":1939:1951  Voter memory */\n      tag_114\n      tag_115\n      jump\t// in\n    tag_114:\n        /* \"contracts/voting.sol\":1969:1975  voters */\n      0x02\n        /* \"contracts/voting.sol\":1969:1990  voters[_voterAddress] */\n      0x00\n        /* \"contracts/voting.sol\":1976:1989  _voterAddress */\n      dup4\n        /* \"contracts/voting.sol\":1969:1990  voters[_voterAddress] */\n      0xffffffffffffffffffffffffffffffffffffffff\n      and\n      0xffffffffffffffffffffffffffffffffffffffff\n      and\n      dup2\n      mstore\n      0x20\n      add\n      swap1\n      dup2\n      mstore\n      0x20\n      add\n      0x00\n      keccak256\n        /* \"contracts/voting.sol\":1962:1990  return voters[_voterAddress] */\n      mload(0x40)\n      dup1\n      0x60\n      add\n      0x40\n      mstore\n      swap1\n      dup2\n      0x00\n      dup3\n      add\n      dup1\n      sload\n      tag_117\n      swap1\n      tag_104\n      jump\t// in\n    tag_117:\n      dup1\n      0x1f\n      add\n      0x20\n      dup1\n      swap2\n      div\n      mul\n      0x20\n      add\n      mload(0x40)\n      swap1\n      dup2\n      add\n      0x40\n      mstore\n      dup1\n      swap3\n      swap2\n      swap1\n      dup2\n      dup2\n      mstore\n      0x20\n      add\n      dup3\n      dup1\n      sload\n      tag_118\n      swap1\n      tag_104\n      jump\t// in\n    tag_118:\n      dup1\n      iszero\n      tag_119\n      jumpi\n      dup1\n      0x1f\n      lt\n      tag_120\n      jumpi\n      0x0100\n      dup1\n      dup4\n      sload\n      div\n      mul\n      dup4\n      mstore\n      swap2\n      0x20\n      add\n      swap2\n      jump(tag_119)\n    tag_120:\n      dup3\n      add\n      swap2\n      swap1\n      0x00\n      mstore\n      keccak256(0x00, 0x20)\n      swap1\n    tag_121:\n      dup2\n      sload\n      dup2\n      mstore\n      swap1\n      0x01\n      add\n      swap1\n      0x20\n      add\n      dup1\n      dup4\n      gt\n      tag_121\n      jumpi\n      dup3\n      swap1\n      sub\n      0x1f\n      and\n      dup3\n      add\n      swap2\n    tag_119:\n      pop\n      pop\n      pop\n      pop\n      pop\n      dup2\n      mstore\n      0x20\n      add\n      0x01\n      dup3\n      add\n      0x00\n      swap1\n      sload\n      swap1\n      0x0100\n      exp\n      swap1\n      div\n      0xffffffffffffffffffffffffffffffffffffffff\n      and\n      0xffffffffffffffffffffffffffffffffffffffff\n      and\n      0xffffffffffffffffffffffffffffffffffffffff\n      and\n      dup2\n      mstore\n      0x20\n      add\n      0x01\n      dup3\n      add\n      0x14\n      swap1\n      sload\n      swap1\n      0x0100\n      exp\n      swap1\n      div\n      0xff\n      and\n      0xff\n      and\n      0xff\n      and\n      dup2\n      mstore\n      pop\n      pop\n      swap1\n      pop\n        /* \"contracts/voting.sol\":1877:1997  function getVoter(address _voterAddress) public view returns (Voter memory){... */\n      swap2\n      swap1\n      pop\n      jump\t// out\n        /* \"contracts/voting.sol\":2238:2709  function delegateVote(address voterAddress,address receiverAddress) public{... */\n    tag_47:\n        /* \"contracts/voting.sol\":2342:2354  voterAddress */\n      dup2\n        /* \"contracts/voting.sol\":2330:2354  msg.sender==voterAddress */\n      0xffffffffffffffffffffffffffffffffffffffff\n      and\n        /* \"contracts/voting.sol\":2330:2340  msg.sender */\n      caller\n        /* \"contracts/voting.sol\":2330:2354  msg.sender==voterAddress */\n      0xffffffffffffffffffffffffffffffffffffffff\n      and\n      eq\n        /* \"contracts/voting.sol\":2322:2390  require(msg.sender==voterAddress,\"Only voter can deligate his vote\") */\n      tag_123\n      jumpi\n      mload(0x40)\n      0x08c379a000000000000000000000000000000000000000000000000000000000\n      dup2\n      mstore\n      0x04\n      add\n      tag_124\n      swap1\n      tag_125\n      jump\t// in\n    tag_124:\n      mload(0x40)\n      dup1\n      swap2\n      sub\n      swap1\n      revert\n    tag_123:\n        /* \"contracts/voting.sol\":2441:2442  0 */\n      0x00\n        /* \"contracts/voting.sol\":2408:2414  voters */\n      0x02\n        /* \"contracts/voting.sol\":2408:2428  voters[voterAddress] */\n      0x00\n        /* \"contracts/voting.sol\":2415:2427  voterAddress */\n      dup5\n        /* \"contracts/voting.sol\":2408:2428  voters[voterAddress] */\n      0xffffffffffffffffffffffffffffffffffffffff\n      and\n      0xffffffffffffffffffffffffffffffffffffffff\n      and\n      dup2\n      mstore\n      0x20\n      add\n      swap1\n      dup2\n      mstore\n      0x20\n      add\n      0x00\n      keccak256\n        /* \"contracts/voting.sol\":2408:2440  voters[voterAddress].no_of_votes */\n      0x01\n      add\n      0x14\n      swap1\n      sload\n      swap1\n      0x0100\n      exp\n      swap1\n      div\n      0xff\n      and\n        /* \"contracts/voting.sol\":2408:2442  voters[voterAddress].no_of_votes>0 */\n      0xff\n      and\n      gt\n        /* \"contracts/voting.sol\":2400:2462  require(voters[voterAddress].no_of_votes>0,\"voter not exists\") */\n      tag_126\n      jumpi\n      mload(0x40)\n      0x08c379a000000000000000000000000000000000000000000000000000000000\n      dup2\n      mstore\n      0x04\n      add\n      tag_127\n      swap1\n      tag_128\n      jump\t// in\n    tag_127:\n      mload(0x40)\n      dup1\n      swap2\n      sub\n      swap1\n      revert\n    tag_126:\n        /* \"contracts/voting.sol\":2516:2517  0 */\n      0x00\n        /* \"contracts/voting.sol\":2480:2486  voters */\n      0x02\n        /* \"contracts/voting.sol\":2480:2503  voters[receiverAddress] */\n      0x00\n        /* \"contracts/voting.sol\":2487:2502  receiverAddress */\n      dup4\n        /* \"contracts/voting.sol\":2480:2503  voters[receiverAddress] */\n      0xffffffffffffffffffffffffffffffffffffffff\n      and\n      0xffffffffffffffffffffffffffffffffffffffff\n      and\n      dup2\n      mstore\n      0x20\n      add\n      swap1\n      dup2\n      mstore\n      0x20\n      add\n      0x00\n      keccak256\n        /* \"contracts/voting.sol\":2480:2515  voters[receiverAddress].no_of_votes */\n      0x01\n      add\n      0x14\n      swap1\n      sload\n      swap1\n      0x0100\n      exp\n      swap1\n      div\n      0xff\n      and\n        /* \"contracts/voting.sol\":2480:2517  voters[receiverAddress].no_of_votes>0 */\n      0xff\n      and\n      gt\n        /* \"contracts/voting.sol\":2472:2540  require(voters[receiverAddress].no_of_votes>0,\"receiver not exists\") */\n      tag_129\n      jumpi\n      mload(0x40)\n      0x08c379a000000000000000000000000000000000000000000000000000000000\n      dup2\n      mstore\n      0x04\n      add\n      tag_130\n      swap1\n      tag_131\n      jump\t// in\n    tag_130:\n      mload(0x40)\n      dup1\n      swap2\n      sub\n      swap1\n      revert\n    tag_129:\n        /* \"contracts/voting.sol\":2551:2566  uint8 noofVotes */\n      0x00\n        /* \"contracts/voting.sol\":2569:2575  voters */\n      0x02\n        /* \"contracts/voting.sol\":2569:2589  voters[voterAddress] */\n      0x00\n        /* \"contracts/voting.sol\":2576:2588  voterAddress */\n      dup5\n        /* \"contracts/voting.sol\":2569:2589  voters[voterAddress] */\n      0xffffffffffffffffffffffffffffffffffffffff\n      and\n      0xffffffffffffffffffffffffffffffffffffffff\n      and\n      dup2\n      mstore\n      0x20\n      add\n      swap1\n      dup2\n      mstore\n      0x20\n      add\n      0x00\n      keccak256\n        /* \"contracts/voting.sol\":2569:2601  voters[voterAddress].no_of_votes */\n      0x01\n      add\n      0x14\n      swap1\n      sload\n      swap1\n      0x0100\n      exp\n      swap1\n      div\n      0xff\n      and\n        /* \"contracts/voting.sol\":2551:2601  uint8 noofVotes = voters[voterAddress].no_of_votes */\n      swap1\n      pop\n        /* \"contracts/voting.sol\":2648:2657  noofVotes */\n      dup1\n        /* \"contracts/voting.sol\":2611:2617  voters */\n      0x02\n        /* \"contracts/voting.sol\":2611:2634  voters[receiverAddress] */\n      0x00\n        /* \"contracts/voting.sol\":2618:2633  receiverAddress */\n      dup5\n        /* \"contracts/voting.sol\":2611:2634  voters[receiverAddress] */\n      0xffffffffffffffffffffffffffffffffffffffff\n      and\n      0xffffffffffffffffffffffffffffffffffffffff\n      and\n      dup2\n      mstore\n      0x20\n      add\n      swap1\n      dup2\n      mstore\n      0x20\n      add\n      0x00\n      keccak256\n        /* \"contracts/voting.sol\":2611:2646  voters[receiverAddress].no_of_votes */\n      0x01\n      add\n      0x14\n        /* \"contracts/voting.sol\":2611:2657  voters[receiverAddress].no_of_votes+=noofVotes */\n      dup3\n      dup3\n      dup3\n      swap1\n      sload\n      swap1\n      0x0100\n      exp\n      swap1\n      div\n      0xff\n      and\n      tag_132\n      swap2\n      swap1\n      tag_97\n      jump\t// in\n    tag_132:\n      swap3\n      pop\n      0x0100\n      exp\n      dup2\n      sload\n      dup2\n      0xff\n      mul\n      not\n      and\n      swap1\n      dup4\n      0xff\n      and\n      mul\n      or\n      swap1\n      sstore\n      pop\n        /* \"contracts/voting.sol\":2701:2702  1 */\n      0x01\n        /* \"contracts/voting.sol\":2667:2673  voters */\n      0x02\n        /* \"contracts/voting.sol\":2667:2687  voters[voterAddress] */\n      0x00\n        /* \"contracts/voting.sol\":2674:2686  voterAddress */\n      dup6\n        /* \"contracts/voting.sol\":2667:2687  voters[voterAddress] */\n      0xffffffffffffffffffffffffffffffffffffffff\n      and\n      0xffffffffffffffffffffffffffffffffffffffff\n      and\n      dup2\n      mstore\n      0x20\n      add\n      swap1\n      dup2\n      mstore\n      0x20\n      add\n      0x00\n      keccak256\n        /* \"contracts/voting.sol\":2667:2699  voters[voterAddress].no_of_votes */\n      0x01\n      add\n      0x14\n        /* \"contracts/voting.sol\":2667:2702  voters[voterAddress].no_of_votes-=1 */\n      dup3\n      dup3\n      dup3\n      swap1\n      sload\n      swap1\n      0x0100\n      exp\n      swap1\n      div\n      0xff\n      and\n      tag_133\n      swap2\n      swap1\n      tag_99\n      jump\t// in\n    tag_133:\n      swap3\n      pop\n      0x0100\n      exp\n      dup2\n      sload\n      dup2\n      0xff\n      mul\n      not\n      and\n      swap1\n      dup4\n      0xff\n      and\n      mul\n      or\n      swap1\n      sstore\n      pop\n        /* \"contracts/voting.sol\":2312:2709  {... */\n      pop\n        /* \"contracts/voting.sol\":2238:2709  function delegateVote(address voterAddress,address receiverAddress) public{... */\n      pop\n      pop\n      jump\t// out\n        /* \"contracts/voting.sol\":626:913  function startElection(address owner) public {... */\n    tag_50:\n        /* \"contracts/voting.sol\":698:703  admin */\n      0x00\n      dup1\n      sload\n      swap1\n      0x0100\n      exp\n      swap1\n      div\n      0xffffffffffffffffffffffffffffffffffffffff\n      and\n        /* \"contracts/voting.sol\":689:703  owner == admin */\n      0xffffffffffffffffffffffffffffffffffffffff\n      and\n        /* \"contracts/voting.sol\":689:694  owner */\n      dup2\n        /* \"contracts/voting.sol\":689:703  owner == admin */\n      0xffffffffffffffffffffffffffffffffffffffff\n      and\n      eq\n        /* \"contracts/voting.sol\":681:746  require(owner == admin,\"Only admin is allowed to start election\") */\n      tag_135\n      jumpi\n      mload(0x40)\n      0x08c379a000000000000000000000000000000000000000000000000000000000\n      dup2\n      mstore\n      0x04\n      add\n      tag_136\n      swap1\n      tag_137\n      jump\t// in\n    tag_136:\n      mload(0x40)\n      dup1\n      swap2\n      sub\n      swap1\n      revert\n    tag_135:\n        /* \"contracts/voting.sol\":776:802  ElectionStatus.NOT_STARTED */\n      0x00\n        /* \"contracts/voting.sol\":766:802  status == ElectionStatus.NOT_STARTED */\n      0x02\n      dup2\n      gt\n      iszero\n      tag_138\n      jumpi\n      tag_139\n      tag_57\n      jump\t// in\n    tag_139:\n    tag_138:\n        /* \"contracts/voting.sol\":766:772  status */\n      0x00\n      0x14\n      swap1\n      sload\n      swap1\n      0x0100\n      exp\n      swap1\n      div\n      0xff\n      and\n        /* \"contracts/voting.sol\":766:802  status == ElectionStatus.NOT_STARTED */\n      0x02\n      dup2\n      gt\n      iszero\n      tag_140\n      jumpi\n      tag_141\n      tag_57\n      jump\t// in\n    tag_141:\n    tag_140:\n      eq\n        /* \"contracts/voting.sol\":766:836  status == ElectionStatus.NOT_STARTED || status == ElectionStatus.ENDED */\n      dup1\n      tag_142\n      jumpi\n      pop\n        /* \"contracts/voting.sol\":816:836  ElectionStatus.ENDED */\n      0x02\n        /* \"contracts/voting.sol\":806:836  status == ElectionStatus.ENDED */\n      dup1\n      dup2\n      gt\n      iszero\n      tag_143\n      jumpi\n      tag_144\n      tag_57\n      jump\t// in\n    tag_144:\n    tag_143:\n        /* \"contracts/voting.sol\":806:812  status */\n      0x00\n      0x14\n      swap1\n      sload\n      swap1\n      0x0100\n      exp\n      swap1\n      div\n      0xff\n      and\n        /* \"contracts/voting.sol\":806:836  status == ElectionStatus.ENDED */\n      0x02\n      dup2\n      gt\n      iszero\n      tag_145\n      jumpi\n      tag_146\n      tag_57\n      jump\t// in\n    tag_146:\n    tag_145:\n      eq\n        /* \"contracts/voting.sol\":766:836  status == ElectionStatus.NOT_STARTED || status == ElectionStatus.ENDED */\n    tag_142:\n        /* \"contracts/voting.sol\":756:865  require ((status == ElectionStatus.NOT_STARTED || status == ElectionStatus.ENDED),\"Election already started\") */\n      tag_147\n      jumpi\n      mload(0x40)\n      0x08c379a000000000000000000000000000000000000000000000000000000000\n      dup2\n      mstore\n      0x04\n      add\n      tag_148\n      swap1\n      tag_80\n      jump\t// in\n    tag_148:\n      mload(0x40)\n      dup1\n      swap2\n      sub\n      swap1\n      revert\n    tag_147:\n        /* \"contracts/voting.sol\":884:906  ElectionStatus.STARTED */\n      0x01\n        /* \"contracts/voting.sol\":875:881  status */\n      0x00\n      0x14\n        /* \"contracts/voting.sol\":875:906  status = ElectionStatus.STARTED */\n      0x0100\n      exp\n      dup2\n      sload\n      dup2\n      0xff\n      mul\n      not\n      and\n      swap1\n      dup4\n      0x02\n      dup2\n      gt\n      iszero\n      tag_149\n      jumpi\n      tag_150\n      tag_57\n      jump\t// in\n    tag_150:\n    tag_149:\n      mul\n      or\n      swap1\n      sstore\n      pop\n        /* \"contracts/voting.sol\":626:913  function startElection(address owner) public {... */\n      pop\n      jump\t// out\n    tag_101:\n      mload(0x40)\n      dup1\n      0x80\n      add\n      0x40\n      mstore\n      dup1\n      0x60\n      dup2\n      mstore\n      0x20\n      add\n      and(0xffffffffffffffffffffffffffffffffffffffff, 0x00)\n      dup2\n      mstore\n      0x20\n      add\n      0x60\n      dup2\n      mstore\n      0x20\n      add\n      and(0xff, 0x00)\n      dup2\n      mstore\n      pop\n      swap1\n      jump\t// out\n    tag_115:\n      mload(0x40)\n      dup1\n      0x60\n      add\n      0x40\n      mstore\n      dup1\n      0x60\n      dup2\n      mstore\n      0x20\n      add\n      and(0xffffffffffffffffffffffffffffffffffffffff, 0x00)\n      dup2\n      mstore\n      0x20\n      add\n      and(0xff, 0x00)\n      dup2\n      mstore\n      pop\n      swap1\n      jump\t// out\n        /* \"#utility.yul\":7:82   */\n    tag_151:\n        /* \"#utility.yul\":40:46   */\n      0x00\n        /* \"#utility.yul\":73:75   */\n      0x40\n        /* \"#utility.yul\":67:76   */\n      mload\n        /* \"#utility.yul\":57:76   */\n      swap1\n      pop\n        /* \"#utility.yul\":7:82   */\n      swap1\n      jump\t// out\n        /* \"#utility.yul\":88:205   */\n    tag_152:\n        /* \"#utility.yul\":197:198   */\n      0x00\n        /* \"#utility.yul\":194:195   */\n      dup1\n        /* \"#utility.yul\":187:199   */\n      revert\n        /* \"#utility.yul\":211:328   */\n    tag_153:\n        /* \"#utility.yul\":320:321   */\n      0x00\n        /* \"#utility.yul\":317:318   */\n      dup1\n        /* \"#utility.yul\":310:322   */\n      revert\n        /* \"#utility.yul\":334:460   */\n    tag_154:\n        /* \"#utility.yul\":371:378   */\n      0x00\n        /* \"#utility.yul\":411:453   */\n      0xffffffffffffffffffffffffffffffffffffffff\n        /* \"#utility.yul\":404:409   */\n      dup3\n        /* \"#utility.yul\":400:454   */\n      and\n        /* \"#utility.yul\":389:454   */\n      swap1\n      pop\n        /* \"#utility.yul\":334:460   */\n      swap2\n      swap1\n      pop\n      jump\t// out\n        /* \"#utility.yul\":466:562   */\n    tag_155:\n        /* \"#utility.yul\":503:510   */\n      0x00\n        /* \"#utility.yul\":532:556   */\n      tag_228\n        /* \"#utility.yul\":550:555   */\n      dup3\n        /* \"#utility.yul\":532:556   */\n      tag_154\n      jump\t// in\n    tag_228:\n        /* \"#utility.yul\":521:556   */\n      swap1\n      pop\n        /* \"#utility.yul\":466:562   */\n      swap2\n      swap1\n      pop\n      jump\t// out\n        /* \"#utility.yul\":568:690   */\n    tag_156:\n        /* \"#utility.yul\":641:665   */\n      tag_230\n        /* \"#utility.yul\":659:664   */\n      dup2\n        /* \"#utility.yul\":641:665   */\n      tag_155\n      jump\t// in\n    tag_230:\n        /* \"#utility.yul\":634:639   */\n      dup2\n        /* \"#utility.yul\":631:666   */\n      eq\n        /* \"#utility.yul\":621:684   */\n      tag_231\n      jumpi\n        /* \"#utility.yul\":680:681   */\n      0x00\n        /* \"#utility.yul\":677:678   */\n      dup1\n        /* \"#utility.yul\":670:682   */\n      revert\n        /* \"#utility.yul\":621:684   */\n    tag_231:\n        /* \"#utility.yul\":568:690   */\n      pop\n      jump\t// out\n        /* \"#utility.yul\":696:835   */\n    tag_157:\n        /* \"#utility.yul\":742:747   */\n      0x00\n        /* \"#utility.yul\":780:786   */\n      dup2\n        /* \"#utility.yul\":767:787   */\n      calldataload\n        /* \"#utility.yul\":758:787   */\n      swap1\n      pop\n        /* \"#utility.yul\":796:829   */\n      tag_233\n        /* \"#utility.yul\":823:828   */\n      dup2\n        /* \"#utility.yul\":796:829   */\n      tag_156\n      jump\t// in\n    tag_233:\n        /* \"#utility.yul\":696:835   */\n      swap3\n      swap2\n      pop\n      pop\n      jump\t// out\n        /* \"#utility.yul\":841:1170   */\n    tag_15:\n        /* \"#utility.yul\":900:906   */\n      0x00\n        /* \"#utility.yul\":949:951   */\n      0x20\n        /* \"#utility.yul\":937:946   */\n      dup3\n        /* \"#utility.yul\":928:935   */\n      dup5\n        /* \"#utility.yul\":924:947   */\n      sub\n        /* \"#utility.yul\":920:952   */\n      slt\n        /* \"#utility.yul\":917:1036   */\n      iszero\n      tag_235\n      jumpi\n        /* \"#utility.yul\":955:1034   */\n      tag_236\n      tag_152\n      jump\t// in\n    tag_236:\n        /* \"#utility.yul\":917:1036   */\n    tag_235:\n        /* \"#utility.yul\":1075:1076   */\n      0x00\n        /* \"#utility.yul\":1100:1153   */\n      tag_237\n        /* \"#utility.yul\":1145:1152   */\n      dup5\n        /* \"#utility.yul\":1136:1142   */\n      dup3\n        /* \"#utility.yul\":1125:1134   */\n      dup6\n        /* \"#utility.yul\":1121:1143   */\n      add\n        /* \"#utility.yul\":1100:1153   */\n      tag_157\n      jump\t// in\n    tag_237:\n        /* \"#utility.yul\":1090:1153   */\n      swap2\n      pop\n        /* \"#utility.yul\":1046:1163   */\n      pop\n        /* \"#utility.yul\":841:1170   */\n      swap3\n      swap2\n      pop\n      pop\n      jump\t// out\n        /* \"#utility.yul\":1176:1293   */\n    tag_158:\n        /* \"#utility.yul\":1285:1286   */\n      0x00\n        /* \"#utility.yul\":1282:1283   */\n      dup1\n        /* \"#utility.yul\":1275:1287   */\n      revert\n        /* \"#utility.yul\":1299:1416   */\n    tag_159:\n        /* \"#utility.yul\":1408:1409   */\n      0x00\n        /* \"#utility.yul\":1405:1406   */\n      dup1\n        /* \"#utility.yul\":1398:1410   */\n      revert\n        /* \"#utility.yul\":1422:1524   */\n    tag_160:\n        /* \"#utility.yul\":1463:1469   */\n      0x00\n        /* \"#utility.yul\":1514:1516   */\n      0x1f\n        /* \"#utility.yul\":1510:1517   */\n      not\n        /* \"#utility.yul\":1505:1507   */\n      0x1f\n        /* \"#utility.yul\":1498:1503   */\n      dup4\n        /* \"#utility.yul\":1494:1508   */\n      add\n        /* \"#utility.yul\":1490:1518   */\n      and\n        /* \"#utility.yul\":1480:1518   */\n      swap1\n      pop\n        /* \"#utility.yul\":1422:1524   */\n      swap2\n      swap1\n      pop\n      jump\t// out\n        /* \"#utility.yul\":1530:1710   */\n    tag_161:\n        /* \"#utility.yul\":1578:1655   */\n      0x4e487b7100000000000000000000000000000000000000000000000000000000\n        /* \"#utility.yul\":1575:1576   */\n      0x00\n        /* \"#utility.yul\":1568:1656   */\n      mstore\n        /* \"#utility.yul\":1675:1679   */\n      0x41\n        /* \"#utility.yul\":1672:1673   */\n      0x04\n        /* \"#utility.yul\":1665:1680   */\n      mstore\n        /* \"#utility.yul\":1699:1703   */\n      0x24\n        /* \"#utility.yul\":1696:1697   */\n      0x00\n        /* \"#utility.yul\":1689:1704   */\n      revert\n        /* \"#utility.yul\":1716:1997   */\n    tag_162:\n        /* \"#utility.yul\":1799:1826   */\n      tag_243\n        /* \"#utility.yul\":1821:1825   */\n      dup3\n        /* \"#utility.yul\":1799:1826   */\n      tag_160\n      jump\t// in\n    tag_243:\n        /* \"#utility.yul\":1791:1797   */\n      dup2\n        /* \"#utility.yul\":1787:1827   */\n      add\n        /* \"#utility.yul\":1929:1935   */\n      dup2\n        /* \"#utility.yul\":1917:1927   */\n      dup2\n        /* \"#utility.yul\":1914:1936   */\n      lt\n        /* \"#utility.yul\":1893:1911   */\n      0xffffffffffffffff\n        /* \"#utility.yul\":1881:1891   */\n      dup3\n        /* \"#utility.yul\":1878:1912   */\n      gt\n        /* \"#utility.yul\":1875:1937   */\n      or\n        /* \"#utility.yul\":1872:1960   */\n      iszero\n      tag_244\n      jumpi\n        /* \"#utility.yul\":1940:1958   */\n      tag_245\n      tag_161\n      jump\t// in\n    tag_245:\n        /* \"#utility.yul\":1872:1960   */\n    tag_244:\n        /* \"#utility.yul\":1980:1990   */\n      dup1\n        /* \"#utility.yul\":1976:1978   */\n      0x40\n        /* \"#utility.yul\":1969:1991   */\n      mstore\n        /* \"#utility.yul\":1759:1997   */\n      pop\n        /* \"#utility.yul\":1716:1997   */\n      pop\n      pop\n      jump\t// out\n        /* \"#utility.yul\":2003:2132   */\n    tag_163:\n        /* \"#utility.yul\":2037:2043   */\n      0x00\n        /* \"#utility.yul\":2064:2084   */\n      tag_247\n      tag_151\n      jump\t// in\n    tag_247:\n        /* \"#utility.yul\":2054:2084   */\n      swap1\n      pop\n        /* \"#utility.yul\":2093:2126   */\n      tag_248\n        /* \"#utility.yul\":2121:2125   */\n      dup3\n        /* \"#utility.yul\":2113:2119   */\n      dup3\n        /* \"#utility.yul\":2093:2126   */\n      tag_162\n      jump\t// in\n    tag_248:\n        /* \"#utility.yul\":2003:2132   */\n      swap2\n      swap1\n      pop\n      jump\t// out\n        /* \"#utility.yul\":2138:2446   */\n    tag_164:\n        /* \"#utility.yul\":2200:2204   */\n      0x00\n        /* \"#utility.yul\":2290:2308   */\n      0xffffffffffffffff\n        /* \"#utility.yul\":2282:2288   */\n      dup3\n        /* \"#utility.yul\":2279:2309   */\n      gt\n        /* \"#utility.yul\":2276:2332   */\n      iszero\n      tag_250\n      jumpi\n        /* \"#utility.yul\":2312:2330   */\n      tag_251\n      tag_161\n      jump\t// in\n    tag_251:\n        /* \"#utility.yul\":2276:2332   */\n    tag_250:\n        /* \"#utility.yul\":2350:2379   */\n      tag_252\n        /* \"#utility.yul\":2372:2378   */\n      dup3\n        /* \"#utility.yul\":2350:2379   */\n      tag_160\n      jump\t// in\n    tag_252:\n        /* \"#utility.yul\":2342:2379   */\n      swap1\n      pop\n        /* \"#utility.yul\":2434:2438   */\n      0x20\n        /* \"#utility.yul\":2428:2432   */\n      dup2\n        /* \"#utility.yul\":2424:2439   */\n      add\n        /* \"#utility.yul\":2416:2439   */\n      swap1\n      pop\n        /* \"#utility.yul\":2138:2446   */\n      swap2\n      swap1\n      pop\n      jump\t// out\n        /* \"#utility.yul\":2452:2598   */\n    tag_165:\n        /* \"#utility.yul\":2549:2555   */\n      dup3\n        /* \"#utility.yul\":2544:2547   */\n      dup2\n        /* \"#utility.yul\":2539:2542   */\n      dup4\n        /* \"#utility.yul\":2526:2556   */\n      calldatacopy\n        /* \"#utility.yul\":2590:2591   */\n      0x00\n        /* \"#utility.yul\":2581:2587   */\n      dup4\n        /* \"#utility.yul\":2576:2579   */\n      dup4\n        /* \"#utility.yul\":2572:2588   */\n      add\n        /* \"#utility.yul\":2565:2592   */\n      mstore\n        /* \"#utility.yul\":2452:2598   */\n      pop\n      pop\n      pop\n      jump\t// out\n        /* \"#utility.yul\":2604:3029   */\n    tag_166:\n        /* \"#utility.yul\":2682:2687   */\n      0x00\n        /* \"#utility.yul\":2707:2773   */\n      tag_255\n        /* \"#utility.yul\":2723:2772   */\n      tag_256\n        /* \"#utility.yul\":2765:2771   */\n      dup5\n        /* \"#utility.yul\":2723:2772   */\n      tag_164\n      jump\t// in\n    tag_256:\n        /* \"#utility.yul\":2707:2773   */\n      tag_163\n      jump\t// in\n    tag_255:\n        /* \"#utility.yul\":2698:2773   */\n      swap1\n      pop\n        /* \"#utility.yul\":2796:2802   */\n      dup3\n        /* \"#utility.yul\":2789:2794   */\n      dup2\n        /* \"#utility.yul\":2782:2803   */\n      mstore\n        /* \"#utility.yul\":2834:2838   */\n      0x20\n        /* \"#utility.yul\":2827:2832   */\n      dup2\n        /* \"#utility.yul\":2823:2839   */\n      add\n        /* \"#utility.yul\":2872:2875   */\n      dup5\n        /* \"#utility.yul\":2863:2869   */\n      dup5\n        /* \"#utility.yul\":2858:2861   */\n      dup5\n        /* \"#utility.yul\":2854:2870   */\n      add\n        /* \"#utility.yul\":2851:2876   */\n      gt\n        /* \"#utility.yul\":2848:2960   */\n      iszero\n      tag_257\n      jumpi\n        /* \"#utility.yul\":2879:2958   */\n      tag_258\n      tag_159\n      jump\t// in\n    tag_258:\n        /* \"#utility.yul\":2848:2960   */\n    tag_257:\n        /* \"#utility.yul\":2969:3023   */\n      tag_259\n        /* \"#utility.yul\":3016:3022   */\n      dup5\n        /* \"#utility.yul\":3011:3014   */\n      dup3\n        /* \"#utility.yul\":3006:3009   */\n      dup6\n        /* \"#utility.yul\":2969:3023   */\n      tag_165\n      jump\t// in\n    tag_259:\n        /* \"#utility.yul\":2688:3029   */\n      pop\n        /* \"#utility.yul\":2604:3029   */\n      swap4\n      swap3\n      pop\n      pop\n      pop\n      jump\t// out\n        /* \"#utility.yul\":3049:3389   */\n    tag_167:\n        /* \"#utility.yul\":3105:3110   */\n      0x00\n        /* \"#utility.yul\":3154:3157   */\n      dup3\n        /* \"#utility.yul\":3147:3151   */\n      0x1f\n        /* \"#utility.yul\":3139:3145   */\n      dup4\n        /* \"#utility.yul\":3135:3152   */\n      add\n        /* \"#utility.yul\":3131:3158   */\n      slt\n        /* \"#utility.yul\":3121:3243   */\n      tag_261\n      jumpi\n        /* \"#utility.yul\":3162:3241   */\n      tag_262\n      tag_158\n      jump\t// in\n    tag_262:\n        /* \"#utility.yul\":3121:3243   */\n    tag_261:\n        /* \"#utility.yul\":3279:3285   */\n      dup2\n        /* \"#utility.yul\":3266:3286   */\n      calldataload\n        /* \"#utility.yul\":3304:3383   */\n      tag_263\n        /* \"#utility.yul\":3379:3382   */\n      dup5\n        /* \"#utility.yul\":3371:3377   */\n      dup3\n        /* \"#utility.yul\":3364:3368   */\n      0x20\n        /* \"#utility.yul\":3356:3362   */\n      dup7\n        /* \"#utility.yul\":3352:3369   */\n      add\n        /* \"#utility.yul\":3304:3383   */\n      tag_166\n      jump\t// in\n    tag_263:\n        /* \"#utility.yul\":3295:3383   */\n      swap2\n      pop\n        /* \"#utility.yul\":3111:3389   */\n      pop\n        /* \"#utility.yul\":3049:3389   */\n      swap3\n      swap2\n      pop\n      pop\n      jump\t// out\n        /* \"#utility.yul\":3395:4374   */\n    tag_19:\n        /* \"#utility.yul\":3492:3498   */\n      0x00\n        /* \"#utility.yul\":3500:3506   */\n      dup1\n        /* \"#utility.yul\":3508:3514   */\n      0x00\n        /* \"#utility.yul\":3557:3559   */\n      0x60\n        /* \"#utility.yul\":3545:3554   */\n      dup5\n        /* \"#utility.yul\":3536:3543   */\n      dup7\n        /* \"#utility.yul\":3532:3555   */\n      sub\n        /* \"#utility.yul\":3528:3560   */\n      slt\n        /* \"#utility.yul\":3525:3644   */\n      iszero\n      tag_265\n      jumpi\n        /* \"#utility.yul\":3563:3642   */\n      tag_266\n      tag_152\n      jump\t// in\n    tag_266:\n        /* \"#utility.yul\":3525:3644   */\n    tag_265:\n        /* \"#utility.yul\":3711:3712   */\n      0x00\n        /* \"#utility.yul\":3700:3709   */\n      dup5\n        /* \"#utility.yul\":3696:3713   */\n      add\n        /* \"#utility.yul\":3683:3714   */\n      calldataload\n        /* \"#utility.yul\":3741:3759   */\n      0xffffffffffffffff\n        /* \"#utility.yul\":3733:3739   */\n      dup2\n        /* \"#utility.yul\":3730:3760   */\n      gt\n        /* \"#utility.yul\":3727:3844   */\n      iszero\n      tag_267\n      jumpi\n        /* \"#utility.yul\":3763:3842   */\n      tag_268\n      tag_153\n      jump\t// in\n    tag_268:\n        /* \"#utility.yul\":3727:3844   */\n    tag_267:\n        /* \"#utility.yul\":3868:3931   */\n      tag_269\n        /* \"#utility.yul\":3923:3930   */\n      dup7\n        /* \"#utility.yul\":3914:3920   */\n      dup3\n        /* \"#utility.yul\":3903:3912   */\n      dup8\n        /* \"#utility.yul\":3899:3921   */\n      add\n        /* \"#utility.yul\":3868:3931   */\n      tag_167\n      jump\t// in\n    tag_269:\n        /* \"#utility.yul\":3858:3931   */\n      swap4\n      pop\n        /* \"#utility.yul\":3654:3941   */\n      pop\n        /* \"#utility.yul\":4008:4010   */\n      0x20\n        /* \"#utility.yul\":3997:4006   */\n      dup5\n        /* \"#utility.yul\":3993:4011   */\n      add\n        /* \"#utility.yul\":3980:4012   */\n      calldataload\n        /* \"#utility.yul\":4039:4057   */\n      0xffffffffffffffff\n        /* \"#utility.yul\":4031:4037   */\n      dup2\n        /* \"#utility.yul\":4028:4058   */\n      gt\n        /* \"#utility.yul\":4025:4142   */\n      iszero\n      tag_270\n      jumpi\n        /* \"#utility.yul\":4061:4140   */\n      tag_271\n      tag_153\n      jump\t// in\n    tag_271:\n        /* \"#utility.yul\":4025:4142   */\n    tag_270:\n        /* \"#utility.yul\":4166:4229   */\n      tag_272\n        /* \"#utility.yul\":4221:4228   */\n      dup7\n        /* \"#utility.yul\":4212:4218   */\n      dup3\n        /* \"#utility.yul\":4201:4210   */\n      dup8\n        /* \"#utility.yul\":4197:4219   */\n      add\n        /* \"#utility.yul\":4166:4229   */\n      tag_167\n      jump\t// in\n    tag_272:\n        /* \"#utility.yul\":4156:4229   */\n      swap3\n      pop\n        /* \"#utility.yul\":3951:4239   */\n      pop\n        /* \"#utility.yul\":4278:4280   */\n      0x40\n        /* \"#utility.yul\":4304:4357   */\n      tag_273\n        /* \"#utility.yul\":4349:4356   */\n      dup7\n        /* \"#utility.yul\":4340:4346   */\n      dup3\n        /* \"#utility.yul\":4329:4338   */\n      dup8\n        /* \"#utility.yul\":4325:4347   */\n      add\n        /* \"#utility.yul\":4304:4357   */\n      tag_157\n      jump\t// in\n    tag_273:\n        /* \"#utility.yul\":4294:4357   */\n      swap2\n      pop\n        /* \"#utility.yul\":4249:4367   */\n      pop\n        /* \"#utility.yul\":3395:4374   */\n      swap3\n      pop\n      swap3\n      pop\n      swap3\n      jump\t// out\n        /* \"#utility.yul\":4380:4560   */\n    tag_57:\n        /* \"#utility.yul\":4428:4505   */\n      0x4e487b7100000000000000000000000000000000000000000000000000000000\n        /* \"#utility.yul\":4425:4426   */\n      0x00\n        /* \"#utility.yul\":4418:4506   */\n      mstore\n        /* \"#utility.yul\":4525:4529   */\n      0x21\n        /* \"#utility.yul\":4522:4523   */\n      0x04\n        /* \"#utility.yul\":4515:4530   */\n      mstore\n        /* \"#utility.yul\":4549:4553   */\n      0x24\n        /* \"#utility.yul\":4546:4547   */\n      0x00\n        /* \"#utility.yul\":4539:4554   */\n      revert\n        /* \"#utility.yul\":4566:4687   */\n    tag_168:\n        /* \"#utility.yul\":4655:4656   */\n      0x03\n        /* \"#utility.yul\":4648:4653   */\n      dup2\n        /* \"#utility.yul\":4645:4657   */\n      lt\n        /* \"#utility.yul\":4635:4681   */\n      tag_276\n      jumpi\n        /* \"#utility.yul\":4661:4679   */\n      tag_277\n      tag_57\n      jump\t// in\n    tag_277:\n        /* \"#utility.yul\":4635:4681   */\n    tag_276:\n        /* \"#utility.yul\":4566:4687   */\n      pop\n      jump\t// out\n        /* \"#utility.yul\":4693:4836   */\n    tag_169:\n        /* \"#utility.yul\":4746:4753   */\n      0x00\n        /* \"#utility.yul\":4775:4780   */\n      dup2\n        /* \"#utility.yul\":4764:4780   */\n      swap1\n      pop\n        /* \"#utility.yul\":4781:4830   */\n      tag_279\n        /* \"#utility.yul\":4824:4829   */\n      dup3\n        /* \"#utility.yul\":4781:4830   */\n      tag_168\n      jump\t// in\n    tag_279:\n        /* \"#utility.yul\":4693:4836   */\n      swap2\n      swap1\n      pop\n      jump\t// out\n        /* \"#utility.yul\":4842:4985   */\n    tag_170:\n        /* \"#utility.yul\":4906:4915   */\n      0x00\n        /* \"#utility.yul\":4939:4979   */\n      tag_281\n        /* \"#utility.yul\":4973:4978   */\n      dup3\n        /* \"#utility.yul\":4939:4979   */\n      tag_169\n      jump\t// in\n    tag_281:\n        /* \"#utility.yul\":4926:4979   */\n      swap1\n      pop\n        /* \"#utility.yul\":4842:4985   */\n      swap2\n      swap1\n      pop\n      jump\t// out\n        /* \"#utility.yul\":4991:5150   */\n    tag_171:\n        /* \"#utility.yul\":5092:5143   */\n      tag_283\n        /* \"#utility.yul\":5137:5142   */\n      dup2\n        /* \"#utility.yul\":5092:5143   */\n      tag_170\n      jump\t// in\n    tag_283:\n        /* \"#utility.yul\":5087:5090   */\n      dup3\n        /* \"#utility.yul\":5080:5144   */\n      mstore\n        /* \"#utility.yul\":4991:5150   */\n      pop\n      pop\n      jump\t// out\n        /* \"#utility.yul\":5156:5406   */\n    tag_24:\n        /* \"#utility.yul\":5263:5267   */\n      0x00\n        /* \"#utility.yul\":5301:5303   */\n      0x20\n        /* \"#utility.yul\":5290:5299   */\n      dup3\n        /* \"#utility.yul\":5286:5304   */\n      add\n        /* \"#utility.yul\":5278:5304   */\n      swap1\n      pop\n        /* \"#utility.yul\":5314:5399   */\n      tag_285\n        /* \"#utility.yul\":5396:5397   */\n      0x00\n        /* \"#utility.yul\":5385:5394   */\n      dup4\n        /* \"#utility.yul\":5381:5398   */\n      add\n        /* \"#utility.yul\":5372:5378   */\n      dup5\n        /* \"#utility.yul\":5314:5399   */\n      tag_171\n      jump\t// in\n    tag_285:\n        /* \"#utility.yul\":5156:5406   */\n      swap3\n      swap2\n      pop\n      pop\n      jump\t// out\n        /* \"#utility.yul\":5412:6066   */\n    tag_27:\n        /* \"#utility.yul\":5490:5496   */\n      0x00\n        /* \"#utility.yul\":5498:5504   */\n      dup1\n        /* \"#utility.yul\":5547:5549   */\n      0x40\n        /* \"#utility.yul\":5535:5544   */\n      dup4\n        /* \"#utility.yul\":5526:5533   */\n      dup6\n        /* \"#utility.yul\":5522:5545   */\n      sub\n        /* \"#utility.yul\":5518:5550   */\n      slt\n        /* \"#utility.yul\":5515:5634   */\n      iszero\n      tag_287\n      jumpi\n        /* \"#utility.yul\":5553:5632   */\n      tag_288\n      tag_152\n      jump\t// in\n    tag_288:\n        /* \"#utility.yul\":5515:5634   */\n    tag_287:\n        /* \"#utility.yul\":5701:5702   */\n      0x00\n        /* \"#utility.yul\":5690:5699   */\n      dup4\n        /* \"#utility.yul\":5686:5703   */\n      add\n        /* \"#utility.yul\":5673:5704   */\n      calldataload\n        /* \"#utility.yul\":5731:5749   */\n      0xffffffffffffffff\n        /* \"#utility.yul\":5723:5729   */\n      dup2\n        /* \"#utility.yul\":5720:5750   */\n      gt\n        /* \"#utility.yul\":5717:5834   */\n      iszero\n      tag_289\n      jumpi\n        /* \"#utility.yul\":5753:5832   */\n      tag_290\n      tag_153\n      jump\t// in\n    tag_290:\n        /* \"#utility.yul\":5717:5834   */\n    tag_289:\n        /* \"#utility.yul\":5858:5921   */\n      tag_291\n        /* \"#utility.yul\":5913:5920   */\n      dup6\n        /* \"#utility.yul\":5904:5910   */\n      dup3\n        /* \"#utility.yul\":5893:5902   */\n      dup7\n        /* \"#utility.yul\":5889:5911   */\n      add\n        /* \"#utility.yul\":5858:5921   */\n      tag_167\n      jump\t// in\n    tag_291:\n        /* \"#utility.yul\":5848:5921   */\n      swap3\n      pop\n        /* \"#utility.yul\":5644:5931   */\n      pop\n        /* \"#utility.yul\":5970:5972   */\n      0x20\n        /* \"#utility.yul\":5996:6049   */\n      tag_292\n        /* \"#utility.yul\":6041:6048   */\n      dup6\n        /* \"#utility.yul\":6032:6038   */\n      dup3\n        /* \"#utility.yul\":6021:6030   */\n      dup7\n        /* \"#utility.yul\":6017:6039   */\n      add\n        /* \"#utility.yul\":5996:6049   */\n      tag_157\n      jump\t// in\n    tag_292:\n        /* \"#utility.yul\":5986:6049   */\n      swap2\n      pop\n        /* \"#utility.yul\":5941:6059   */\n      pop\n        /* \"#utility.yul\":5412:6066   */\n      swap3\n      pop\n      swap3\n      swap1\n      pop\n      jump\t// out\n        /* \"#utility.yul\":6072:6158   */\n    tag_172:\n        /* \"#utility.yul\":6107:6114   */\n      0x00\n        /* \"#utility.yul\":6147:6151   */\n      0xff\n        /* \"#utility.yul\":6140:6145   */\n      dup3\n        /* \"#utility.yul\":6136:6152   */\n      and\n        /* \"#utility.yul\":6125:6152   */\n      swap1\n      pop\n        /* \"#utility.yul\":6072:6158   */\n      swap2\n      swap1\n      pop\n      jump\t// out\n        /* \"#utility.yul\":6164:6282   */\n    tag_173:\n        /* \"#utility.yul\":6235:6257   */\n      tag_295\n        /* \"#utility.yul\":6251:6256   */\n      dup2\n        /* \"#utility.yul\":6235:6257   */\n      tag_172\n      jump\t// in\n    tag_295:\n        /* \"#utility.yul\":6228:6233   */\n      dup2\n        /* \"#utility.yul\":6225:6258   */\n      eq\n        /* \"#utility.yul\":6215:6276   */\n      tag_296\n      jumpi\n        /* \"#utility.yul\":6272:6273   */\n      0x00\n        /* \"#utility.yul\":6269:6270   */\n      dup1\n        /* \"#utility.yul\":6262:6274   */\n      revert\n        /* \"#utility.yul\":6215:6276   */\n    tag_296:\n        /* \"#utility.yul\":6164:6282   */\n      pop\n      jump\t// out\n        /* \"#utility.yul\":6288:6423   */\n    tag_174:\n        /* \"#utility.yul\":6332:6337   */\n      0x00\n        /* \"#utility.yul\":6370:6376   */\n      dup2\n        /* \"#utility.yul\":6357:6377   */\n      calldataload\n        /* \"#utility.yul\":6348:6377   */\n      swap1\n      pop\n        /* \"#utility.yul\":6386:6417   */\n      tag_298\n        /* \"#utility.yul\":6411:6416   */\n      dup2\n        /* \"#utility.yul\":6386:6417   */\n      tag_173\n      jump\t// in\n    tag_298:\n        /* \"#utility.yul\":6288:6423   */\n      swap3\n      swap2\n      pop\n      pop\n      jump\t// out\n        /* \"#utility.yul\":6429:6899   */\n    tag_31:\n        /* \"#utility.yul\":6495:6501   */\n      0x00\n        /* \"#utility.yul\":6503:6509   */\n      dup1\n        /* \"#utility.yul\":6552:6554   */\n      0x40\n        /* \"#utility.yul\":6540:6549   */\n      dup4\n        /* \"#utility.yul\":6531:6538   */\n      dup6\n        /* \"#utility.yul\":6527:6550   */\n      sub\n        /* \"#utility.yul\":6523:6555   */\n      slt\n        /* \"#utility.yul\":6520:6639   */\n      iszero\n      tag_300\n      jumpi\n        /* \"#utility.yul\":6558:6637   */\n      tag_301\n      tag_152\n      jump\t// in\n    tag_301:\n        /* \"#utility.yul\":6520:6639   */\n    tag_300:\n        /* \"#utility.yul\":6678:6679   */\n      0x00\n        /* \"#utility.yul\":6703:6754   */\n      tag_302\n        /* \"#utility.yul\":6746:6753   */\n      dup6\n        /* \"#utility.yul\":6737:6743   */\n      dup3\n        /* \"#utility.yul\":6726:6735   */\n      dup7\n        /* \"#utility.yul\":6722:6744   */\n      add\n        /* \"#utility.yul\":6703:6754   */\n      tag_174\n      jump\t// in\n    tag_302:\n        /* \"#utility.yul\":6693:6754   */\n      swap3\n      pop\n        /* \"#utility.yul\":6649:6764   */\n      pop\n        /* \"#utility.yul\":6803:6805   */\n      0x20\n        /* \"#utility.yul\":6829:6882   */\n      tag_303\n        /* \"#utility.yul\":6874:6881   */\n      dup6\n        /* \"#utility.yul\":6865:6871   */\n      dup3\n        /* \"#utility.yul\":6854:6863   */\n      dup7\n        /* \"#utility.yul\":6850:6872   */\n      add\n        /* \"#utility.yul\":6829:6882   */\n      tag_157\n      jump\t// in\n    tag_303:\n        /* \"#utility.yul\":6819:6882   */\n      swap2\n      pop\n        /* \"#utility.yul\":6774:6892   */\n      pop\n        /* \"#utility.yul\":6429:6899   */\n      swap3\n      pop\n      swap3\n      swap1\n      pop\n      jump\t// out\n        /* \"#utility.yul\":6905:7230   */\n    tag_35:\n        /* \"#utility.yul\":6962:6968   */\n      0x00\n        /* \"#utility.yul\":7011:7013   */\n      0x20\n        /* \"#utility.yul\":6999:7008   */\n      dup3\n        /* \"#utility.yul\":6990:6997   */\n      dup5\n        /* \"#utility.yul\":6986:7009   */\n      sub\n        /* \"#utility.yul\":6982:7014   */\n      slt\n        /* \"#utility.yul\":6979:7098   */\n      iszero\n      tag_305\n      jumpi\n        /* \"#utility.yul\":7017:7096   */\n      tag_306\n      tag_152\n      jump\t// in\n    tag_306:\n        /* \"#utility.yul\":6979:7098   */\n    tag_305:\n        /* \"#utility.yul\":7137:7138   */\n      0x00\n        /* \"#utility.yul\":7162:7213   */\n      tag_307\n        /* \"#utility.yul\":7205:7212   */\n      dup5\n        /* \"#utility.yul\":7196:7202   */\n      dup3\n        /* \"#utility.yul\":7185:7194   */\n      dup6\n        /* \"#utility.yul\":7181:7203   */\n      add\n        /* \"#utility.yul\":7162:7213   */\n      tag_174\n      jump\t// in\n    tag_307:\n        /* \"#utility.yul\":7152:7213   */\n      swap2\n      pop\n        /* \"#utility.yul\":7108:7223   */\n      pop\n        /* \"#utility.yul\":6905:7230   */\n      swap3\n      swap2\n      pop\n      pop\n      jump\t// out\n        /* \"#utility.yul\":7236:7335   */\n    tag_175:\n        /* \"#utility.yul\":7288:7294   */\n      0x00\n        /* \"#utility.yul\":7322:7327   */\n      dup2\n        /* \"#utility.yul\":7316:7328   */\n      mload\n        /* \"#utility.yul\":7306:7328   */\n      swap1\n      pop\n        /* \"#utility.yul\":7236:7335   */\n      swap2\n      swap1\n      pop\n      jump\t// out\n        /* \"#utility.yul\":7341:7500   */\n    tag_176:\n        /* \"#utility.yul\":7415:7426   */\n      0x00\n        /* \"#utility.yul\":7449:7455   */\n      dup3\n        /* \"#utility.yul\":7444:7447   */\n      dup3\n        /* \"#utility.yul\":7437:7456   */\n      mstore\n        /* \"#utility.yul\":7489:7493   */\n      0x20\n        /* \"#utility.yul\":7484:7487   */\n      dup3\n        /* \"#utility.yul\":7480:7494   */\n      add\n        /* \"#utility.yul\":7465:7494   */\n      swap1\n      pop\n        /* \"#utility.yul\":7341:7500   */\n      swap3\n      swap2\n      pop\n      pop\n      jump\t// out\n        /* \"#utility.yul\":7506:7752   */\n    tag_177:\n        /* \"#utility.yul\":7587:7588   */\n      0x00\n        /* \"#utility.yul\":7597:7710   */\n    tag_311:\n        /* \"#utility.yul\":7611:7617   */\n      dup4\n        /* \"#utility.yul\":7608:7609   */\n      dup2\n        /* \"#utility.yul\":7605:7618   */\n      lt\n        /* \"#utility.yul\":7597:7710   */\n      iszero\n      tag_313\n      jumpi\n        /* \"#utility.yul\":7696:7697   */\n      dup1\n        /* \"#utility.yul\":7691:7694   */\n      dup3\n        /* \"#utility.yul\":7687:7698   */\n      add\n        /* \"#utility.yul\":7681:7699   */\n      mload\n        /* \"#utility.yul\":7677:7678   */\n      dup2\n        /* \"#utility.yul\":7672:7675   */\n      dup5\n        /* \"#utility.yul\":7668:7679   */\n      add\n        /* \"#utility.yul\":7661:7700   */\n      mstore\n        /* \"#utility.yul\":7633:7635   */\n      0x20\n        /* \"#utility.yul\":7630:7631   */\n      dup2\n        /* \"#utility.yul\":7626:7636   */\n      add\n        /* \"#utility.yul\":7621:7636   */\n      swap1\n      pop\n        /* \"#utility.yul\":7597:7710   */\n      jump(tag_311)\n    tag_313:\n        /* \"#utility.yul\":7744:7745   */\n      0x00\n        /* \"#utility.yul\":7735:7741   */\n      dup5\n        /* \"#utility.yul\":7730:7733   */\n      dup5\n        /* \"#utility.yul\":7726:7742   */\n      add\n        /* \"#utility.yul\":7719:7746   */\n      mstore\n        /* \"#utility.yul\":7568:7752   */\n      pop\n        /* \"#utility.yul\":7506:7752   */\n      pop\n      pop\n      pop\n      jump\t// out\n        /* \"#utility.yul\":7758:8115   */\n    tag_178:\n        /* \"#utility.yul\":7836:7839   */\n      0x00\n        /* \"#utility.yul\":7864:7903   */\n      tag_315\n        /* \"#utility.yul\":7897:7902   */\n      dup3\n        /* \"#utility.yul\":7864:7903   */\n      tag_175\n      jump\t// in\n    tag_315:\n        /* \"#utility.yul\":7919:7980   */\n      tag_316\n        /* \"#utility.yul\":7973:7979   */\n      dup2\n        /* \"#utility.yul\":7968:7971   */\n      dup6\n        /* \"#utility.yul\":7919:7980   */\n      tag_176\n      jump\t// in\n    tag_316:\n        /* \"#utility.yul\":7912:7980   */\n      swap4\n      pop\n        /* \"#utility.yul\":7989:8054   */\n      tag_317\n        /* \"#utility.yul\":8047:8053   */\n      dup2\n        /* \"#utility.yul\":8042:8045   */\n      dup6\n        /* \"#utility.yul\":8035:8039   */\n      0x20\n        /* \"#utility.yul\":8028:8033   */\n      dup7\n        /* \"#utility.yul\":8024:8040   */\n      add\n        /* \"#utility.yul\":7989:8054   */\n      tag_177\n      jump\t// in\n    tag_317:\n        /* \"#utility.yul\":8079:8108   */\n      tag_318\n        /* \"#utility.yul\":8101:8107   */\n      dup2\n        /* \"#utility.yul\":8079:8108   */\n      tag_160\n      jump\t// in\n    tag_318:\n        /* \"#utility.yul\":8074:8077   */\n      dup5\n        /* \"#utility.yul\":8070:8109   */\n      add\n        /* \"#utility.yul\":8063:8109   */\n      swap2\n      pop\n        /* \"#utility.yul\":7840:8115   */\n      pop\n        /* \"#utility.yul\":7758:8115   */\n      swap3\n      swap2\n      pop\n      pop\n      jump\t// out\n        /* \"#utility.yul\":8121:8229   */\n    tag_179:\n        /* \"#utility.yul\":8198:8222   */\n      tag_320\n        /* \"#utility.yul\":8216:8221   */\n      dup2\n        /* \"#utility.yul\":8198:8222   */\n      tag_155\n      jump\t// in\n    tag_320:\n        /* \"#utility.yul\":8193:8196   */\n      dup3\n        /* \"#utility.yul\":8186:8223   */\n      mstore\n        /* \"#utility.yul\":8121:8229   */\n      pop\n      pop\n      jump\t// out\n        /* \"#utility.yul\":8235:8337   */\n    tag_180:\n        /* \"#utility.yul\":8308:8330   */\n      tag_322\n        /* \"#utility.yul\":8324:8329   */\n      dup2\n        /* \"#utility.yul\":8308:8330   */\n      tag_172\n      jump\t// in\n    tag_322:\n        /* \"#utility.yul\":8303:8306   */\n      dup3\n        /* \"#utility.yul\":8296:8331   */\n      mstore\n        /* \"#utility.yul\":8235:8337   */\n      pop\n      pop\n      jump\t// out\n        /* \"#utility.yul\":8401:9428   */\n    tag_181:\n        /* \"#utility.yul\":8520:8523   */\n      0x00\n        /* \"#utility.yul\":8556:8560   */\n      0x80\n        /* \"#utility.yul\":8551:8554   */\n      dup4\n        /* \"#utility.yul\":8547:8561   */\n      add\n        /* \"#utility.yul\":8643:8647   */\n      0x00\n        /* \"#utility.yul\":8636:8641   */\n      dup4\n        /* \"#utility.yul\":8632:8648   */\n      add\n        /* \"#utility.yul\":8626:8649   */\n      mload\n        /* \"#utility.yul\":8696:8699   */\n      dup5\n        /* \"#utility.yul\":8690:8694   */\n      dup3\n        /* \"#utility.yul\":8686:8700   */\n      sub\n        /* \"#utility.yul\":8679:8683   */\n      0x00\n        /* \"#utility.yul\":8674:8677   */\n      dup7\n        /* \"#utility.yul\":8670:8684   */\n      add\n        /* \"#utility.yul\":8663:8701   */\n      mstore\n        /* \"#utility.yul\":8722:8795   */\n      tag_324\n        /* \"#utility.yul\":8790:8794   */\n      dup3\n        /* \"#utility.yul\":8776:8788   */\n      dup3\n        /* \"#utility.yul\":8722:8795   */\n      tag_178\n      jump\t// in\n    tag_324:\n        /* \"#utility.yul\":8714:8795   */\n      swap2\n      pop\n        /* \"#utility.yul\":8571:8806   */\n      pop\n        /* \"#utility.yul\":8889:8893   */\n      0x20\n        /* \"#utility.yul\":8882:8887   */\n      dup4\n        /* \"#utility.yul\":8878:8894   */\n      add\n        /* \"#utility.yul\":8872:8895   */\n      mload\n        /* \"#utility.yul\":8908:8971   */\n      tag_325\n        /* \"#utility.yul\":8965:8969   */\n      0x20\n        /* \"#utility.yul\":8960:8963   */\n      dup7\n        /* \"#utility.yul\":8956:8970   */\n      add\n        /* \"#utility.yul\":8942:8954   */\n      dup3\n        /* \"#utility.yul\":8908:8971   */\n      tag_179\n      jump\t// in\n    tag_325:\n        /* \"#utility.yul\":8816:8981   */\n      pop\n        /* \"#utility.yul\":9067:9071   */\n      0x40\n        /* \"#utility.yul\":9060:9065   */\n      dup4\n        /* \"#utility.yul\":9056:9072   */\n      add\n        /* \"#utility.yul\":9050:9073   */\n      mload\n        /* \"#utility.yul\":9120:9123   */\n      dup5\n        /* \"#utility.yul\":9114:9118   */\n      dup3\n        /* \"#utility.yul\":9110:9124   */\n      sub\n        /* \"#utility.yul\":9103:9107   */\n      0x40\n        /* \"#utility.yul\":9098:9101   */\n      dup7\n        /* \"#utility.yul\":9094:9108   */\n      add\n        /* \"#utility.yul\":9087:9125   */\n      mstore\n        /* \"#utility.yul\":9146:9219   */\n      tag_326\n        /* \"#utility.yul\":9214:9218   */\n      dup3\n        /* \"#utility.yul\":9200:9212   */\n      dup3\n        /* \"#utility.yul\":9146:9219   */\n      tag_178\n      jump\t// in\n    tag_326:\n        /* \"#utility.yul\":9138:9219   */\n      swap2\n      pop\n        /* \"#utility.yul\":8991:9230   */\n      pop\n        /* \"#utility.yul\":9313:9317   */\n      0x60\n        /* \"#utility.yul\":9306:9311   */\n      dup4\n        /* \"#utility.yul\":9302:9318   */\n      add\n        /* \"#utility.yul\":9296:9319   */\n      mload\n        /* \"#utility.yul\":9332:9391   */\n      tag_327\n        /* \"#utility.yul\":9385:9389   */\n      0x60\n        /* \"#utility.yul\":9380:9383   */\n      dup7\n        /* \"#utility.yul\":9376:9390   */\n      add\n        /* \"#utility.yul\":9362:9374   */\n      dup3\n        /* \"#utility.yul\":9332:9391   */\n      tag_180\n      jump\t// in\n    tag_327:\n        /* \"#utility.yul\":9240:9401   */\n      pop\n        /* \"#utility.yul\":9418:9422   */\n      dup1\n        /* \"#utility.yul\":9411:9422   */\n      swap2\n      pop\n        /* \"#utility.yul\":8525:9428   */\n      pop\n        /* \"#utility.yul\":8401:9428   */\n      swap3\n      swap2\n      pop\n      pop\n      jump\t// out\n        /* \"#utility.yul\":9434:9807   */\n    tag_38:\n        /* \"#utility.yul\":9577:9581   */\n      0x00\n        /* \"#utility.yul\":9615:9617   */\n      0x20\n        /* \"#utility.yul\":9604:9613   */\n      dup3\n        /* \"#utility.yul\":9600:9618   */\n      add\n        /* \"#utility.yul\":9592:9618   */\n      swap1\n      pop\n        /* \"#utility.yul\":9664:9673   */\n      dup2\n        /* \"#utility.yul\":9658:9662   */\n      dup2\n        /* \"#utility.yul\":9654:9674   */\n      sub\n        /* \"#utility.yul\":9650:9651   */\n      0x00\n        /* \"#utility.yul\":9639:9648   */\n      dup4\n        /* \"#utility.yul\":9635:9652   */\n      add\n        /* \"#utility.yul\":9628:9675   */\n      mstore\n        /* \"#utility.yul\":9692:9800   */\n      tag_329\n        /* \"#utility.yul\":9795:9799   */\n      dup2\n        /* \"#utility.yul\":9786:9792   */\n      dup5\n        /* \"#utility.yul\":9692:9800   */\n      tag_181\n      jump\t// in\n    tag_329:\n        /* \"#utility.yul\":9684:9800   */\n      swap1\n      pop\n        /* \"#utility.yul\":9434:9807   */\n      swap3\n      swap2\n      pop\n      pop\n      jump\t// out\n        /* \"#utility.yul\":9863:10646   */\n    tag_182:\n        /* \"#utility.yul\":9974:9977   */\n      0x00\n        /* \"#utility.yul\":10010:10014   */\n      0x60\n        /* \"#utility.yul\":10005:10008   */\n      dup4\n        /* \"#utility.yul\":10001:10015   */\n      add\n        /* \"#utility.yul\":10097:10101   */\n      0x00\n        /* \"#utility.yul\":10090:10095   */\n      dup4\n        /* \"#utility.yul\":10086:10102   */\n      add\n        /* \"#utility.yul\":10080:10103   */\n      mload\n        /* \"#utility.yul\":10150:10153   */\n      dup5\n        /* \"#utility.yul\":10144:10148   */\n      dup3\n        /* \"#utility.yul\":10140:10154   */\n      sub\n        /* \"#utility.yul\":10133:10137   */\n      0x00\n        /* \"#utility.yul\":10128:10131   */\n      dup7\n        /* \"#utility.yul\":10124:10138   */\n      add\n        /* \"#utility.yul\":10117:10155   */\n      mstore\n        /* \"#utility.yul\":10176:10249   */\n      tag_331\n        /* \"#utility.yul\":10244:10248   */\n      dup3\n        /* \"#utility.yul\":10230:10242   */\n      dup3\n        /* \"#utility.yul\":10176:10249   */\n      tag_178\n      jump\t// in\n    tag_331:\n        /* \"#utility.yul\":10168:10249   */\n      swap2\n      pop\n        /* \"#utility.yul\":10025:10260   */\n      pop\n        /* \"#utility.yul\":10350:10354   */\n      0x20\n        /* \"#utility.yul\":10343:10348   */\n      dup4\n        /* \"#utility.yul\":10339:10355   */\n      add\n        /* \"#utility.yul\":10333:10356   */\n      mload\n        /* \"#utility.yul\":10369:10432   */\n      tag_332\n        /* \"#utility.yul\":10426:10430   */\n      0x20\n        /* \"#utility.yul\":10421:10424   */\n      dup7\n        /* \"#utility.yul\":10417:10431   */\n      add\n        /* \"#utility.yul\":10403:10415   */\n      dup3\n        /* \"#utility.yul\":10369:10432   */\n      tag_179\n      jump\t// in\n    tag_332:\n        /* \"#utility.yul\":10270:10442   */\n      pop\n        /* \"#utility.yul\":10531:10535   */\n      0x40\n        /* \"#utility.yul\":10524:10529   */\n      dup4\n        /* \"#utility.yul\":10520:10536   */\n      add\n        /* \"#utility.yul\":10514:10537   */\n      mload\n        /* \"#utility.yul\":10550:10609   */\n      tag_333\n        /* \"#utility.yul\":10603:10607   */\n      0x40\n        /* \"#utility.yul\":10598:10601   */\n      dup7\n        /* \"#utility.yul\":10594:10608   */\n      add\n        /* \"#utility.yul\":10580:10592   */\n      dup3\n        /* \"#utility.yul\":10550:10609   */\n      tag_180\n      jump\t// in\n    tag_333:\n        /* \"#utility.yul\":10452:10619   */\n      pop\n        /* \"#utility.yul\":10636:10640   */\n      dup1\n        /* \"#utility.yul\":10629:10640   */\n      swap2\n      pop\n        /* \"#utility.yul\":9979:10646   */\n      pop\n        /* \"#utility.yul\":9863:10646   */\n      swap3\n      swap2\n      pop\n      pop\n      jump\t// out\n        /* \"#utility.yul\":10652:11009   */\n    tag_43:\n        /* \"#utility.yul\":10787:10791   */\n      0x00\n        /* \"#utility.yul\":10825:10827   */\n      0x20\n        /* \"#utility.yul\":10814:10823   */\n      dup3\n        /* \"#utility.yul\":10810:10828   */\n      add\n        /* \"#utility.yul\":10802:10828   */\n      swap1\n      pop\n        /* \"#utility.yul\":10874:10883   */\n      dup2\n        /* \"#utility.yul\":10868:10872   */\n      dup2\n        /* \"#utility.yul\":10864:10884   */\n      sub\n        /* \"#utility.yul\":10860:10861   */\n      0x00\n        /* \"#utility.yul\":10849:10858   */\n      dup4\n        /* \"#utility.yul\":10845:10862   */\n      add\n        /* \"#utility.yul\":10838:10885   */\n      mstore\n        /* \"#utility.yul\":10902:11002   */\n      tag_335\n        /* \"#utility.yul\":10997:11001   */\n      dup2\n        /* \"#utility.yul\":10988:10994   */\n      dup5\n        /* \"#utility.yul\":10902:11002   */\n      tag_182\n      jump\t// in\n    tag_335:\n        /* \"#utility.yul\":10894:11002   */\n      swap1\n      pop\n        /* \"#utility.yul\":10652:11009   */\n      swap3\n      swap2\n      pop\n      pop\n      jump\t// out\n        /* \"#utility.yul\":11015:11489   */\n    tag_46:\n        /* \"#utility.yul\":11083:11089   */\n      0x00\n        /* \"#utility.yul\":11091:11097   */\n      dup1\n        /* \"#utility.yul\":11140:11142   */\n      0x40\n        /* \"#utility.yul\":11128:11137   */\n      dup4\n        /* \"#utility.yul\":11119:11126   */\n      dup6\n        /* \"#utility.yul\":11115:11138   */\n      sub\n        /* \"#utility.yul\":11111:11143   */\n      slt\n        /* \"#utility.yul\":11108:11227   */\n      iszero\n      tag_337\n      jumpi\n        /* \"#utility.yul\":11146:11225   */\n      tag_338\n      tag_152\n      jump\t// in\n    tag_338:\n        /* \"#utility.yul\":11108:11227   */\n    tag_337:\n        /* \"#utility.yul\":11266:11267   */\n      0x00\n        /* \"#utility.yul\":11291:11344   */\n      tag_339\n        /* \"#utility.yul\":11336:11343   */\n      dup6\n        /* \"#utility.yul\":11327:11333   */\n      dup3\n        /* \"#utility.yul\":11316:11325   */\n      dup7\n        /* \"#utility.yul\":11312:11334   */\n      add\n        /* \"#utility.yul\":11291:11344   */\n      tag_157\n      jump\t// in\n    tag_339:\n        /* \"#utility.yul\":11281:11344   */\n      swap3\n      pop\n        /* \"#utility.yul\":11237:11354   */\n      pop\n        /* \"#utility.yul\":11393:11395   */\n      0x20\n        /* \"#utility.yul\":11419:11472   */\n      tag_340\n        /* \"#utility.yul\":11464:11471   */\n      dup6\n        /* \"#utility.yul\":11455:11461   */\n      dup3\n        /* \"#utility.yul\":11444:11453   */\n      dup7\n        /* \"#utility.yul\":11440:11462   */\n      add\n        /* \"#utility.yul\":11419:11472   */\n      tag_157\n      jump\t// in\n    tag_340:\n        /* \"#utility.yul\":11409:11472   */\n      swap2\n      pop\n        /* \"#utility.yul\":11364:11482   */\n      pop\n        /* \"#utility.yul\":11015:11489   */\n      swap3\n      pop\n      swap3\n      swap1\n      pop\n      jump\t// out\n        /* \"#utility.yul\":11495:11664   */\n    tag_183:\n        /* \"#utility.yul\":11579:11590   */\n      0x00\n        /* \"#utility.yul\":11613:11619   */\n      dup3\n        /* \"#utility.yul\":11608:11611   */\n      dup3\n        /* \"#utility.yul\":11601:11620   */\n      mstore\n        /* \"#utility.yul\":11653:11657   */\n      0x20\n        /* \"#utility.yul\":11648:11651   */\n      dup3\n        /* \"#utility.yul\":11644:11658   */\n      add\n        /* \"#utility.yul\":11629:11658   */\n      swap1\n      pop\n        /* \"#utility.yul\":11495:11664   */\n      swap3\n      swap2\n      pop\n      pop\n      jump\t// out\n        /* \"#utility.yul\":11670:11894   */\n    tag_184:\n        /* \"#utility.yul\":11810:11844   */\n      0x4f6e6c792061646d696e20697320616c6c6f77656420746f20656e6420656c65\n        /* \"#utility.yul\":11806:11807   */\n      0x00\n        /* \"#utility.yul\":11798:11804   */\n      dup3\n        /* \"#utility.yul\":11794:11808   */\n      add\n        /* \"#utility.yul\":11787:11845   */\n      mstore\n        /* \"#utility.yul\":11879:11886   */\n      0x6374696f6e000000000000000000000000000000000000000000000000000000\n        /* \"#utility.yul\":11874:11876   */\n      0x20\n        /* \"#utility.yul\":11866:11872   */\n      dup3\n        /* \"#utility.yul\":11862:11877   */\n      add\n        /* \"#utility.yul\":11855:11887   */\n      mstore\n        /* \"#utility.yul\":11670:11894   */\n      pop\n      jump\t// out\n        /* \"#utility.yul\":11900:12266   */\n    tag_185:\n        /* \"#utility.yul\":12042:12045   */\n      0x00\n        /* \"#utility.yul\":12063:12130   */\n      tag_344\n        /* \"#utility.yul\":12127:12129   */\n      0x25\n        /* \"#utility.yul\":12122:12125   */\n      dup4\n        /* \"#utility.yul\":12063:12130   */\n      tag_183\n      jump\t// in\n    tag_344:\n        /* \"#utility.yul\":12056:12130   */\n      swap2\n      pop\n        /* \"#utility.yul\":12139:12232   */\n      tag_345\n        /* \"#utility.yul\":12228:12231   */\n      dup3\n        /* \"#utility.yul\":12139:12232   */\n      tag_184\n      jump\t// in\n    tag_345:\n        /* \"#utility.yul\":12257:12259   */\n      0x40\n        /* \"#utility.yul\":12252:12255   */\n      dup3\n        /* \"#utility.yul\":12248:12260   */\n      add\n        /* \"#utility.yul\":12241:12260   */\n      swap1\n      pop\n        /* \"#utility.yul\":11900:12266   */\n      swap2\n      swap1\n      pop\n      jump\t// out\n        /* \"#utility.yul\":12272:12691   */\n    tag_54:\n        /* \"#utility.yul\":12438:12442   */\n      0x00\n        /* \"#utility.yul\":12476:12478   */\n      0x20\n        /* \"#utility.yul\":12465:12474   */\n      dup3\n        /* \"#utility.yul\":12461:12479   */\n      add\n        /* \"#utility.yul\":12453:12479   */\n      swap1\n      pop\n        /* \"#utility.yul\":12525:12534   */\n      dup2\n        /* \"#utility.yul\":12519:12523   */\n      dup2\n        /* \"#utility.yul\":12515:12535   */\n      sub\n        /* \"#utility.yul\":12511:12512   */\n      0x00\n        /* \"#utility.yul\":12500:12509   */\n      dup4\n        /* \"#utility.yul\":12496:12513   */\n      add\n        /* \"#utility.yul\":12489:12536   */\n      mstore\n        /* \"#utility.yul\":12553:12684   */\n      tag_347\n        /* \"#utility.yul\":12679:12683   */\n      dup2\n        /* \"#utility.yul\":12553:12684   */\n      tag_185\n      jump\t// in\n    tag_347:\n        /* \"#utility.yul\":12545:12684   */\n      swap1\n      pop\n        /* \"#utility.yul\":12272:12691   */\n      swap2\n      swap1\n      pop\n      jump\t// out\n        /* \"#utility.yul\":12697:12870   */\n    tag_186:\n        /* \"#utility.yul\":12837:12862   */\n      0x656c656374696f6e206973206e6f742073746172746564000000000000000000\n        /* \"#utility.yul\":12833:12834   */\n      0x00\n        /* \"#utility.yul\":12825:12831   */\n      dup3\n        /* \"#utility.yul\":12821:12835   */\n      add\n        /* \"#utility.yul\":12814:12863   */\n      mstore\n        /* \"#utility.yul\":12697:12870   */\n      pop\n      jump\t// out\n        /* \"#utility.yul\":12876:13242   */\n    tag_187:\n        /* \"#utility.yul\":13018:13021   */\n      0x00\n        /* \"#utility.yul\":13039:13106   */\n      tag_350\n        /* \"#utility.yul\":13103:13105   */\n      0x17\n        /* \"#utility.yul\":13098:13101   */\n      dup4\n        /* \"#utility.yul\":13039:13106   */\n      tag_183\n      jump\t// in\n    tag_350:\n        /* \"#utility.yul\":13032:13106   */\n      swap2\n      pop\n        /* \"#utility.yul\":13115:13208   */\n      tag_351\n        /* \"#utility.yul\":13204:13207   */\n      dup3\n        /* \"#utility.yul\":13115:13208   */\n      tag_186\n      jump\t// in\n    tag_351:\n        /* \"#utility.yul\":13233:13235   */\n      0x20\n        /* \"#utility.yul\":13228:13231   */\n      dup3\n        /* \"#utility.yul\":13224:13236   */\n      add\n        /* \"#utility.yul\":13217:13236   */\n      swap1\n      pop\n        /* \"#utility.yul\":12876:13242   */\n      swap2\n      swap1\n      pop\n      jump\t// out\n        /* \"#utility.yul\":13248:13667   */\n    tag_62:\n        /* \"#utility.yul\":13414:13418   */\n      0x00\n        /* \"#utility.yul\":13452:13454   */\n      0x20\n        /* \"#utility.yul\":13441:13450   */\n      dup3\n        /* \"#utility.yul\":13437:13455   */\n      add\n        /* \"#utility.yul\":13429:13455   */\n      swap1\n      pop\n        /* \"#utility.yul\":13501:13510   */\n      dup2\n        /* \"#utility.yul\":13495:13499   */\n      dup2\n        /* \"#utility.yul\":13491:13511   */\n      sub\n        /* \"#utility.yul\":13487:13488   */\n      0x00\n        /* \"#utility.yul\":13476:13485   */\n      dup4\n        /* \"#utility.yul\":13472:13489   */\n      add\n        /* \"#utility.yul\":13465:13512   */\n      mstore\n        /* \"#utility.yul\":13529:13660   */\n      tag_353\n        /* \"#utility.yul\":13655:13659   */\n      dup2\n        /* \"#utility.yul\":13529:13660   */\n      tag_187\n      jump\t// in\n    tag_353:\n        /* \"#utility.yul\":13521:13660   */\n      swap1\n      pop\n        /* \"#utility.yul\":13248:13667   */\n      swap2\n      swap1\n      pop\n      jump\t// out\n        /* \"#utility.yul\":13673:13898   */\n    tag_188:\n        /* \"#utility.yul\":13813:13847   */\n      0x4f6e6c792061646d696e20697320616c6c6f77656420746f206164642063616e\n        /* \"#utility.yul\":13809:13810   */\n      0x00\n        /* \"#utility.yul\":13801:13807   */\n      dup3\n        /* \"#utility.yul\":13797:13811   */\n      add\n        /* \"#utility.yul\":13790:13848   */\n      mstore\n        /* \"#utility.yul\":13882:13890   */\n      0x6469646174650000000000000000000000000000000000000000000000000000\n        /* \"#utility.yul\":13877:13879   */\n      0x20\n        /* \"#utility.yul\":13869:13875   */\n      dup3\n        /* \"#utility.yul\":13865:13880   */\n      add\n        /* \"#utility.yul\":13858:13891   */\n      mstore\n        /* \"#utility.yul\":13673:13898   */\n      pop\n      jump\t// out\n        /* \"#utility.yul\":13904:14270   */\n    tag_189:\n        /* \"#utility.yul\":14046:14049   */\n      0x00\n        /* \"#utility.yul\":14067:14134   */\n      tag_356\n        /* \"#utility.yul\":14131:14133   */\n      0x26\n        /* \"#utility.yul\":14126:14129   */\n      dup4\n        /* \"#utility.yul\":14067:14134   */\n      tag_183\n      jump\t// in\n    tag_356:\n        /* \"#utility.yul\":14060:14134   */\n      swap2\n      pop\n        /* \"#utility.yul\":14143:14236   */\n      tag_357\n        /* \"#utility.yul\":14232:14235   */\n      dup3\n        /* \"#utility.yul\":14143:14236   */\n      tag_188\n      jump\t// in\n    tag_357:\n        /* \"#utility.yul\":14261:14263   */\n      0x40\n        /* \"#utility.yul\":14256:14259   */\n      dup3\n        /* \"#utility.yul\":14252:14264   */\n      add\n        /* \"#utility.yul\":14245:14264   */\n      swap1\n      pop\n        /* \"#utility.yul\":13904:14270   */\n      swap2\n      swap1\n      pop\n      jump\t// out\n        /* \"#utility.yul\":14276:14695   */\n    tag_68:\n        /* \"#utility.yul\":14442:14446   */\n      0x00\n        /* \"#utility.yul\":14480:14482   */\n      0x20\n        /* \"#utility.yul\":14469:14478   */\n      dup3\n        /* \"#utility.yul\":14465:14483   */\n      add\n        /* \"#utility.yul\":14457:14483   */\n      swap1\n      pop\n        /* \"#utility.yul\":14529:14538   */\n      dup2\n        /* \"#utility.yul\":14523:14527   */\n      dup2\n        /* \"#utility.yul\":14519:14539   */\n      sub\n        /* \"#utility.yul\":14515:14516   */\n      0x00\n        /* \"#utility.yul\":14504:14513   */\n      dup4\n        /* \"#utility.yul\":14500:14517   */\n      add\n        /* \"#utility.yul\":14493:14540   */\n      mstore\n        /* \"#utility.yul\":14557:14688   */\n      tag_359\n        /* \"#utility.yul\":14683:14687   */\n      dup2\n        /* \"#utility.yul\":14557:14688   */\n      tag_189\n      jump\t// in\n    tag_359:\n        /* \"#utility.yul\":14549:14688   */\n      swap1\n      pop\n        /* \"#utility.yul\":14276:14695   */\n      swap2\n      swap1\n      pop\n      jump\t// out\n        /* \"#utility.yul\":14701:14875   */\n    tag_190:\n        /* \"#utility.yul\":14841:14867   */\n      0x456c656374696f6e20616c726561647920737461727465640000000000000000\n        /* \"#utility.yul\":14837:14838   */\n      0x00\n        /* \"#utility.yul\":14829:14835   */\n      dup3\n        /* \"#utility.yul\":14825:14839   */\n      add\n        /* \"#utility.yul\":14818:14868   */\n      mstore\n        /* \"#utility.yul\":14701:14875   */\n      pop\n      jump\t// out\n        /* \"#utility.yul\":14881:15247   */\n    tag_191:\n        /* \"#utility.yul\":15023:15026   */\n      0x00\n        /* \"#utility.yul\":15044:15111   */\n      tag_362\n        /* \"#utility.yul\":15108:15110   */\n      0x18\n        /* \"#utility.yul\":15103:15106   */\n      dup4\n        /* \"#utility.yul\":15044:15111   */\n      tag_183\n      jump\t// in\n    tag_362:\n        /* \"#utility.yul\":15037:15111   */\n      swap2\n      pop\n        /* \"#utility.yul\":15120:15213   */\n      tag_363\n        /* \"#utility.yul\":15209:15212   */\n      dup3\n        /* \"#utility.yul\":15120:15213   */\n      tag_190\n      jump\t// in\n    tag_363:\n        /* \"#utility.yul\":15238:15240   */\n      0x20\n        /* \"#utility.yul\":15233:15236   */\n      dup3\n        /* \"#utility.yul\":15229:15241   */\n      add\n        /* \"#utility.yul\":15222:15241   */\n      swap1\n      pop\n        /* \"#utility.yul\":14881:15247   */\n      swap2\n      swap1\n      pop\n      jump\t// out\n        /* \"#utility.yul\":15253:15672   */\n    tag_80:\n        /* \"#utility.yul\":15419:15423   */\n      0x00\n        /* \"#utility.yul\":15457:15459   */\n      0x20\n        /* \"#utility.yul\":15446:15455   */\n      dup3\n        /* \"#utility.yul\":15442:15460   */\n      add\n        /* \"#utility.yul\":15434:15460   */\n      swap1\n      pop\n        /* \"#utility.yul\":15506:15515   */\n      dup2\n        /* \"#utility.yul\":15500:15504   */\n      dup2\n        /* \"#utility.yul\":15496:15516   */\n      sub\n        /* \"#utility.yul\":15492:15493   */\n      0x00\n        /* \"#utility.yul\":15481:15490   */\n      dup4\n        /* \"#utility.yul\":15477:15494   */\n      add\n        /* \"#utility.yul\":15470:15517   */\n      mstore\n        /* \"#utility.yul\":15534:15665   */\n      tag_365\n        /* \"#utility.yul\":15660:15664   */\n      dup2\n        /* \"#utility.yul\":15534:15665   */\n      tag_191\n      jump\t// in\n    tag_365:\n        /* \"#utility.yul\":15526:15665   */\n      swap1\n      pop\n        /* \"#utility.yul\":15253:15672   */\n      swap2\n      swap1\n      pop\n      jump\t// out\n        /* \"#utility.yul\":15678:15858   */\n    tag_192:\n        /* \"#utility.yul\":15726:15803   */\n      0x4e487b7100000000000000000000000000000000000000000000000000000000\n        /* \"#utility.yul\":15723:15724   */\n      0x00\n        /* \"#utility.yul\":15716:15804   */\n      mstore\n        /* \"#utility.yul\":15823:15827   */\n      0x11\n        /* \"#utility.yul\":15820:15821   */\n      0x04\n        /* \"#utility.yul\":15813:15828   */\n      mstore\n        /* \"#utility.yul\":15847:15851   */\n      0x24\n        /* \"#utility.yul\":15844:15845   */\n      0x00\n        /* \"#utility.yul\":15837:15852   */\n      revert\n        /* \"#utility.yul\":15864:16031   */\n    tag_82:\n        /* \"#utility.yul\":15901:15904   */\n      0x00\n        /* \"#utility.yul\":15924:15946   */\n      tag_368\n        /* \"#utility.yul\":15940:15945   */\n      dup3\n        /* \"#utility.yul\":15924:15946   */\n      tag_172\n      jump\t// in\n    tag_368:\n        /* \"#utility.yul\":15915:15946   */\n      swap2\n      pop\n        /* \"#utility.yul\":15968:15972   */\n      0xff\n        /* \"#utility.yul\":15961:15966   */\n      dup3\n        /* \"#utility.yul\":15958:15973   */\n      sub\n        /* \"#utility.yul\":15955:15996   */\n      tag_369\n      jumpi\n        /* \"#utility.yul\":15976:15994   */\n      tag_370\n      tag_192\n      jump\t// in\n    tag_370:\n        /* \"#utility.yul\":15955:15996   */\n    tag_369:\n        /* \"#utility.yul\":16023:16024   */\n      0x01\n        /* \"#utility.yul\":16016:16021   */\n      dup3\n        /* \"#utility.yul\":16012:16025   */\n      add\n        /* \"#utility.yul\":16005:16025   */\n      swap1\n      pop\n        /* \"#utility.yul\":15864:16031   */\n      swap2\n      swap1\n      pop\n      jump\t// out\n        /* \"#utility.yul\":16037:16217   */\n    tag_193:\n        /* \"#utility.yul\":16085:16162   */\n      0x4e487b7100000000000000000000000000000000000000000000000000000000\n        /* \"#utility.yul\":16082:16083   */\n      0x00\n        /* \"#utility.yul\":16075:16163   */\n      mstore\n        /* \"#utility.yul\":16182:16186   */\n      0x22\n        /* \"#utility.yul\":16179:16180   */\n      0x04\n        /* \"#utility.yul\":16172:16187   */\n      mstore\n        /* \"#utility.yul\":16206:16210   */\n      0x24\n        /* \"#utility.yul\":16203:16204   */\n      0x00\n        /* \"#utility.yul\":16196:16211   */\n      revert\n        /* \"#utility.yul\":16223:16543   */\n    tag_104:\n        /* \"#utility.yul\":16267:16273   */\n      0x00\n        /* \"#utility.yul\":16304:16305   */\n      0x02\n        /* \"#utility.yul\":16298:16302   */\n      dup3\n        /* \"#utility.yul\":16294:16306   */\n      div\n        /* \"#utility.yul\":16284:16306   */\n      swap1\n      pop\n        /* \"#utility.yul\":16351:16352   */\n      0x01\n        /* \"#utility.yul\":16345:16349   */\n      dup3\n        /* \"#utility.yul\":16341:16353   */\n      and\n        /* \"#utility.yul\":16372:16390   */\n      dup1\n        /* \"#utility.yul\":16362:16443   */\n      tag_373\n      jumpi\n        /* \"#utility.yul\":16428:16432   */\n      0x7f\n        /* \"#utility.yul\":16420:16426   */\n      dup3\n        /* \"#utility.yul\":16416:16433   */\n      and\n        /* \"#utility.yul\":16406:16433   */\n      swap2\n      pop\n        /* \"#utility.yul\":16362:16443   */\n    tag_373:\n        /* \"#utility.yul\":16490:16492   */\n      0x20\n        /* \"#utility.yul\":16482:16488   */\n      dup3\n        /* \"#utility.yul\":16479:16493   */\n      lt\n        /* \"#utility.yul\":16459:16477   */\n      dup2\n        /* \"#utility.yul\":16456:16494   */\n      sub\n        /* \"#utility.yul\":16453:16537   */\n      tag_374\n      jumpi\n        /* \"#utility.yul\":16509:16527   */\n      tag_375\n      tag_193\n      jump\t// in\n    tag_375:\n        /* \"#utility.yul\":16453:16537   */\n    tag_374:\n        /* \"#utility.yul\":16274:16543   */\n      pop\n        /* \"#utility.yul\":16223:16543   */\n      swap2\n      swap1\n      pop\n      jump\t// out\n        /* \"#utility.yul\":16549:16690   */\n    tag_194:\n        /* \"#utility.yul\":16598:16602   */\n      0x00\n        /* \"#utility.yul\":16621:16624   */\n      dup2\n        /* \"#utility.yul\":16613:16624   */\n      swap1\n      pop\n        /* \"#utility.yul\":16644:16647   */\n      dup2\n        /* \"#utility.yul\":16641:16642   */\n      0x00\n        /* \"#utility.yul\":16634:16648   */\n      mstore\n        /* \"#utility.yul\":16678:16682   */\n      0x20\n        /* \"#utility.yul\":16675:16676   */\n      0x00\n        /* \"#utility.yul\":16665:16683   */\n      keccak256\n        /* \"#utility.yul\":16657:16683   */\n      swap1\n      pop\n        /* \"#utility.yul\":16549:16690   */\n      swap2\n      swap1\n      pop\n      jump\t// out\n        /* \"#utility.yul\":16696:16789   */\n    tag_195:\n        /* \"#utility.yul\":16733:16739   */\n      0x00\n        /* \"#utility.yul\":16780:16782   */\n      0x20\n        /* \"#utility.yul\":16775:16777   */\n      0x1f\n        /* \"#utility.yul\":16768:16773   */\n      dup4\n        /* \"#utility.yul\":16764:16778   */\n      add\n        /* \"#utility.yul\":16760:16783   */\n      div\n        /* \"#utility.yul\":16750:16783   */\n      swap1\n      pop\n        /* \"#utility.yul\":16696:16789   */\n      swap2\n      swap1\n      pop\n      jump\t// out\n        /* \"#utility.yul\":16795:16902   */\n    tag_196:\n        /* \"#utility.yul\":16839:16847   */\n      0x00\n        /* \"#utility.yul\":16889:16894   */\n      dup3\n        /* \"#utility.yul\":16883:16887   */\n      dup3\n        /* \"#utility.yul\":16879:16895   */\n      shl\n        /* \"#utility.yul\":16858:16895   */\n      swap1\n      pop\n        /* \"#utility.yul\":16795:16902   */\n      swap3\n      swap2\n      pop\n      pop\n      jump\t// out\n        /* \"#utility.yul\":16908:17301   */\n    tag_197:\n        /* \"#utility.yul\":16977:16983   */\n      0x00\n        /* \"#utility.yul\":17027:17028   */\n      0x08\n        /* \"#utility.yul\":17015:17025   */\n      dup4\n        /* \"#utility.yul\":17011:17029   */\n      mul\n        /* \"#utility.yul\":17050:17147   */\n      tag_380\n        /* \"#utility.yul\":17080:17146   */\n      0xffffffffffffffffffffffffffffffffffffffffffffffffffffffffffffffff\n        /* \"#utility.yul\":17069:17078   */\n      dup3\n        /* \"#utility.yul\":17050:17147   */\n      tag_196\n      jump\t// in\n    tag_380:\n        /* \"#utility.yul\":17168:17207   */\n      tag_381\n        /* \"#utility.yul\":17198:17206   */\n      dup7\n        /* \"#utility.yul\":17187:17196   */\n      dup4\n        /* \"#utility.yul\":17168:17207   */\n      tag_196\n      jump\t// in\n    tag_381:\n        /* \"#utility.yul\":17156:17207   */\n      swap6\n      pop\n        /* \"#utility.yul\":17240:17244   */\n      dup1\n        /* \"#utility.yul\":17236:17245   */\n      not\n        /* \"#utility.yul\":17229:17234   */\n      dup5\n        /* \"#utility.yul\":17225:17246   */\n      and\n        /* \"#utility.yul\":17216:17246   */\n      swap4\n      pop\n        /* \"#utility.yul\":17289:17293   */\n      dup1\n        /* \"#utility.yul\":17279:17287   */\n      dup7\n        /* \"#utility.yul\":17275:17294   */\n      and\n        /* \"#utility.yul\":17268:17273   */\n      dup5\n        /* \"#utility.yul\":17265:17295   */\n      or\n        /* \"#utility.yul\":17255:17295   */\n      swap3\n      pop\n        /* \"#utility.yul\":16984:17301   */\n      pop\n      pop\n        /* \"#utility.yul\":16908:17301   */\n      swap4\n      swap3\n      pop\n      pop\n      pop\n      jump\t// out\n        /* \"#utility.yul\":17307:17384   */\n    tag_198:\n        /* \"#utility.yul\":17344:17351   */\n      0x00\n        /* \"#utility.yul\":17373:17378   */\n      dup2\n        /* \"#utility.yul\":17362:17378   */\n      swap1\n      pop\n        /* \"#utility.yul\":17307:17384   */\n      swap2\n      swap1\n      pop\n      jump\t// out\n        /* \"#utility.yul\":17390:17450   */\n    tag_199:\n        /* \"#utility.yul\":17418:17421   */\n      0x00\n        /* \"#utility.yul\":17439:17444   */\n      dup2\n        /* \"#utility.yul\":17432:17444   */\n      swap1\n      pop\n        /* \"#utility.yul\":17390:17450   */\n      swap2\n      swap1\n      pop\n      jump\t// out\n        /* \"#utility.yul\":17456:17598   */\n    tag_200:\n        /* \"#utility.yul\":17506:17515   */\n      0x00\n        /* \"#utility.yul\":17539:17592   */\n      tag_385\n        /* \"#utility.yul\":17557:17591   */\n      tag_386\n        /* \"#utility.yul\":17566:17590   */\n      tag_387\n        /* \"#utility.yul\":17584:17589   */\n      dup5\n        /* \"#utility.yul\":17566:17590   */\n      tag_198\n      jump\t// in\n    tag_387:\n        /* \"#utility.yul\":17557:17591   */\n      tag_199\n      jump\t// in\n    tag_386:\n        /* \"#utility.yul\":17539:17592   */\n      tag_198\n      jump\t// in\n    tag_385:\n        /* \"#utility.yul\":17526:17592   */\n      swap1\n      pop\n        /* \"#utility.yul\":17456:17598   */\n      swap2\n      swap1\n      pop\n      jump\t// out\n        /* \"#utility.yul\":17604:17679   */\n    tag_201:\n        /* \"#utility.yul\":17647:17650   */\n      0x00\n        /* \"#utility.yul\":17668:17673   */\n      dup2\n        /* \"#utility.yul\":17661:17673   */\n      swap1\n      pop\n        /* \"#utility.yul\":17604:17679   */\n      swap2\n      swap1\n      pop\n      jump\t// out\n        /* \"#utility.yul\":17685:17954   */\n    tag_202:\n        /* \"#utility.yul\":17795:17834   */\n      tag_390\n        /* \"#utility.yul\":17826:17833   */\n      dup4\n        /* \"#utility.yul\":17795:17834   */\n      tag_200\n      jump\t// in\n    tag_390:\n        /* \"#utility.yul\":17856:17947   */\n      tag_391\n        /* \"#utility.yul\":17905:17946   */\n      tag_392\n        /* \"#utility.yul\":17929:17945   */\n      dup3\n        /* \"#utility.yul\":17905:17946   */\n      tag_201\n      jump\t// in\n    tag_392:\n        /* \"#utility.yul\":17897:17903   */\n      dup5\n        /* \"#utility.yul\":17890:17894   */\n      dup5\n        /* \"#utility.yul\":17884:17895   */\n      sload\n        /* \"#utility.yul\":17856:17947   */\n      tag_197\n      jump\t// in\n    tag_391:\n        /* \"#utility.yul\":17850:17854   */\n      dup3\n        /* \"#utility.yul\":17843:17948   */\n      sstore\n        /* \"#utility.yul\":17761:17954   */\n      pop\n        /* \"#utility.yul\":17685:17954   */\n      pop\n      pop\n      pop\n      jump\t// out\n        /* \"#utility.yul\":17960:18033   */\n    tag_203:\n        /* \"#utility.yul\":18005:18008   */\n      0x00\n        /* \"#utility.yul\":17960:18033   */\n      swap1\n      jump\t// out\n        /* \"#utility.yul\":18039:18228   */\n    tag_204:\n        /* \"#utility.yul\":18116:18148   */\n      tag_395\n      tag_203\n      jump\t// in\n    tag_395:\n        /* \"#utility.yul\":18157:18222   */\n      tag_396\n        /* \"#utility.yul\":18215:18221   */\n      dup2\n        /* \"#utility.yul\":18207:18213   */\n      dup5\n        /* \"#utility.yul\":18201:18205   */\n      dup5\n        /* \"#utility.yul\":18157:18222   */\n      tag_202\n      jump\t// in\n    tag_396:\n        /* \"#utility.yul\":18092:18228   */\n      pop\n        /* \"#utility.yul\":18039:18228   */\n      pop\n      pop\n      jump\t// out\n        /* \"#utility.yul\":18234:18420   */\n    tag_205:\n        /* \"#utility.yul\":18294:18414   */\n    tag_398:\n        /* \"#utility.yul\":18311:18314   */\n      dup2\n        /* \"#utility.yul\":18304:18309   */\n      dup2\n        /* \"#utility.yul\":18301:18315   */\n      lt\n        /* \"#utility.yul\":18294:18414   */\n      iszero\n      tag_400\n      jumpi\n        /* \"#utility.yul\":18365:18404   */\n      tag_401\n        /* \"#utility.yul\":18402:18403   */\n      0x00\n        /* \"#utility.yul\":18395:18400   */\n      dup3\n        /* \"#utility.yul\":18365:18404   */\n      tag_204\n      jump\t// in\n    tag_401:\n        /* \"#utility.yul\":18338:18339   */\n      0x01\n        /* \"#utility.yul\":18331:18336   */\n      dup2\n        /* \"#utility.yul\":18327:18340   */\n      add\n        /* \"#utility.yul\":18318:18340   */\n      swap1\n      pop\n        /* \"#utility.yul\":18294:18414   */\n      jump(tag_398)\n    tag_400:\n        /* \"#utility.yul\":18234:18420   */\n      pop\n      pop\n      jump\t// out\n        /* \"#utility.yul\":18426:18969   */\n    tag_206:\n        /* \"#utility.yul\":18527:18529   */\n      0x1f\n        /* \"#utility.yul\":18522:18525   */\n      dup3\n        /* \"#utility.yul\":18519:18530   */\n      gt\n        /* \"#utility.yul\":18516:18962   */\n      iszero\n      tag_403\n      jumpi\n        /* \"#utility.yul\":18561:18599   */\n      tag_404\n        /* \"#utility.yul\":18593:18598   */\n      dup2\n        /* \"#utility.yul\":18561:18599   */\n      tag_194\n      jump\t// in\n    tag_404:\n        /* \"#utility.yul\":18645:18674   */\n      tag_405\n        /* \"#utility.yul\":18663:18673   */\n      dup5\n        /* \"#utility.yul\":18645:18674   */\n      tag_195\n      jump\t// in\n    tag_405:\n        /* \"#utility.yul\":18635:18643   */\n      dup2\n        /* \"#utility.yul\":18631:18675   */\n      add\n        /* \"#utility.yul\":18828:18830   */\n      0x20\n        /* \"#utility.yul\":18816:18826   */\n      dup6\n        /* \"#utility.yul\":18813:18831   */\n      lt\n        /* \"#utility.yul\":18810:18859   */\n      iszero\n      tag_406\n      jumpi\n        /* \"#utility.yul\":18849:18857   */\n      dup2\n        /* \"#utility.yul\":18834:18857   */\n      swap1\n      pop\n        /* \"#utility.yul\":18810:18859   */\n    tag_406:\n        /* \"#utility.yul\":18872:18952   */\n      tag_407\n        /* \"#utility.yul\":18928:18950   */\n      tag_408\n        /* \"#utility.yul\":18946:18949   */\n      dup6\n        /* \"#utility.yul\":18928:18950   */\n      tag_195\n      jump\t// in\n    tag_408:\n        /* \"#utility.yul\":18918:18926   */\n      dup4\n        /* \"#utility.yul\":18914:18951   */\n      add\n        /* \"#utility.yul\":18901:18912   */\n      dup3\n        /* \"#utility.yul\":18872:18952   */\n      tag_205\n      jump\t// in\n    tag_407:\n        /* \"#utility.yul\":18531:18962   */\n      pop\n      pop\n        /* \"#utility.yul\":18516:18962   */\n    tag_403:\n        /* \"#utility.yul\":18426:18969   */\n      pop\n      pop\n      pop\n      jump\t// out\n        /* \"#utility.yul\":18975:19092   */\n    tag_207:\n        /* \"#utility.yul\":19029:19037   */\n      0x00\n        /* \"#utility.yul\":19079:19084   */\n      dup3\n        /* \"#utility.yul\":19073:19077   */\n      dup3\n        /* \"#utility.yul\":19069:19085   */\n      shr\n        /* \"#utility.yul\":19048:19085   */\n      swap1\n      pop\n        /* \"#utility.yul\":18975:19092   */\n      swap3\n      swap2\n      pop\n      pop\n      jump\t// out\n        /* \"#utility.yul\":19098:19267   */\n    tag_208:\n        /* \"#utility.yul\":19142:19148   */\n      0x00\n        /* \"#utility.yul\":19175:19226   */\n      tag_411\n        /* \"#utility.yul\":19223:19224   */\n      0x00\n        /* \"#utility.yul\":19219:19225   */\n      not\n        /* \"#utility.yul\":19211:19216   */\n      dup5\n        /* \"#utility.yul\":19208:19209   */\n      0x08\n        /* \"#utility.yul\":19204:19217   */\n      mul\n        /* \"#utility.yul\":19175:19226   */\n      tag_207\n      jump\t// in\n    tag_411:\n        /* \"#utility.yul\":19171:19227   */\n      not\n        /* \"#utility.yul\":19256:19260   */\n      dup1\n        /* \"#utility.yul\":19250:19254   */\n      dup4\n        /* \"#utility.yul\":19246:19261   */\n      and\n        /* \"#utility.yul\":19236:19261   */\n      swap2\n      pop\n        /* \"#utility.yul\":19149:19267   */\n      pop\n        /* \"#utility.yul\":19098:19267   */\n      swap3\n      swap2\n      pop\n      pop\n      jump\t// out\n        /* \"#utility.yul\":19272:19567   */\n    tag_209:\n        /* \"#utility.yul\":19348:19352   */\n      0x00\n        /* \"#utility.yul\":19494:19523   */\n      tag_413\n        /* \"#utility.yul\":19519:19522   */\n      dup4\n        /* \"#utility.yul\":19513:19517   */\n      dup4\n        /* \"#utility.yul\":19494:19523   */\n      tag_208\n      jump\t// in\n    tag_413:\n        /* \"#utility.yul\":19486:19523   */\n      swap2\n      pop\n        /* \"#utility.yul\":19556:19559   */\n      dup3\n        /* \"#utility.yul\":19553:19554   */\n      0x02\n        /* \"#utility.yul\":19549:19560   */\n      mul\n        /* \"#utility.yul\":19543:19547   */\n      dup3\n        /* \"#utility.yul\":19540:19561   */\n      or\n        /* \"#utility.yul\":19532:19561   */\n      swap1\n      pop\n        /* \"#utility.yul\":19272:19567   */\n      swap3\n      swap2\n      pop\n      pop\n      jump\t// out\n        /* \"#utility.yul\":19572:20967   */\n    tag_84:\n        /* \"#utility.yul\":19689:19726   */\n      tag_415\n        /* \"#utility.yul\":19722:19725   */\n      dup3\n        /* \"#utility.yul\":19689:19726   */\n      tag_175\n      jump\t// in\n    tag_415:\n        /* \"#utility.yul\":19791:19809   */\n      0xffffffffffffffff\n        /* \"#utility.yul\":19783:19789   */\n      dup2\n        /* \"#utility.yul\":19780:19810   */\n      gt\n        /* \"#utility.yul\":19777:19833   */\n      iszero\n      tag_416\n      jumpi\n        /* \"#utility.yul\":19813:19831   */\n      tag_417\n      tag_161\n      jump\t// in\n    tag_417:\n        /* \"#utility.yul\":19777:19833   */\n    tag_416:\n        /* \"#utility.yul\":19857:19895   */\n      tag_418\n        /* \"#utility.yul\":19889:19893   */\n      dup3\n        /* \"#utility.yul\":19883:19894   */\n      sload\n        /* \"#utility.yul\":19857:19895   */\n      tag_104\n      jump\t// in\n    tag_418:\n        /* \"#utility.yul\":19942:20009   */\n      tag_419\n        /* \"#utility.yul\":20002:20008   */\n      dup3\n        /* \"#utility.yul\":19994:20000   */\n      dup3\n        /* \"#utility.yul\":19988:19992   */\n      dup6\n        /* \"#utility.yul\":19942:20009   */\n      tag_206\n      jump\t// in\n    tag_419:\n        /* \"#utility.yul\":20036:20037   */\n      0x00\n        /* \"#utility.yul\":20060:20064   */\n      0x20\n        /* \"#utility.yul\":20047:20064   */\n      swap1\n      pop\n        /* \"#utility.yul\":20092:20094   */\n      0x1f\n        /* \"#utility.yul\":20084:20090   */\n      dup4\n        /* \"#utility.yul\":20081:20095   */\n      gt\n        /* \"#utility.yul\":20109:20110   */\n      0x01\n        /* \"#utility.yul\":20104:20722   */\n      dup2\n      eq\n      tag_421\n      jumpi\n        /* \"#utility.yul\":20766:20767   */\n      0x00\n        /* \"#utility.yul\":20783:20789   */\n      dup5\n        /* \"#utility.yul\":20780:20857   */\n      iszero\n      tag_422\n      jumpi\n        /* \"#utility.yul\":20832:20841   */\n      dup3\n        /* \"#utility.yul\":20827:20830   */\n      dup8\n        /* \"#utility.yul\":20823:20842   */\n      add\n        /* \"#utility.yul\":20817:20843   */\n      mload\n        /* \"#utility.yul\":20808:20843   */\n      swap1\n      pop\n        /* \"#utility.yul\":20780:20857   */\n    tag_422:\n        /* \"#utility.yul\":20883:20950   */\n      tag_423\n        /* \"#utility.yul\":20943:20949   */\n      dup6\n        /* \"#utility.yul\":20936:20941   */\n      dup3\n        /* \"#utility.yul\":20883:20950   */\n      tag_209\n      jump\t// in\n    tag_423:\n        /* \"#utility.yul\":20877:20881   */\n      dup7\n        /* \"#utility.yul\":20870:20951   */\n      sstore\n        /* \"#utility.yul\":20739:20961   */\n      pop\n        /* \"#utility.yul\":20074:20961   */\n      jump(tag_420)\n        /* \"#utility.yul\":20104:20722   */\n    tag_421:\n        /* \"#utility.yul\":20156:20160   */\n      0x1f\n        /* \"#utility.yul\":20152:20161   */\n      not\n        /* \"#utility.yul\":20144:20150   */\n      dup5\n        /* \"#utility.yul\":20140:20162   */\n      and\n        /* \"#utility.yul\":20190:20227   */\n      tag_424\n        /* \"#utility.yul\":20222:20226   */\n      dup7\n        /* \"#utility.yul\":20190:20227   */\n      tag_194\n      jump\t// in\n    tag_424:\n        /* \"#utility.yul\":20249:20250   */\n      0x00\n        /* \"#utility.yul\":20263:20471   */\n    tag_425:\n        /* \"#utility.yul\":20277:20284   */\n      dup3\n        /* \"#utility.yul\":20274:20275   */\n      dup2\n        /* \"#utility.yul\":20271:20285   */\n      lt\n        /* \"#utility.yul\":20263:20471   */\n      iszero\n      tag_427\n      jumpi\n        /* \"#utility.yul\":20356:20365   */\n      dup5\n        /* \"#utility.yul\":20351:20354   */\n      dup10\n        /* \"#utility.yul\":20347:20366   */\n      add\n        /* \"#utility.yul\":20341:20367   */\n      mload\n        /* \"#utility.yul\":20333:20339   */\n      dup3\n        /* \"#utility.yul\":20326:20368   */\n      sstore\n        /* \"#utility.yul\":20407:20408   */\n      0x01\n        /* \"#utility.yul\":20399:20405   */\n      dup3\n        /* \"#utility.yul\":20395:20409   */\n      add\n        /* \"#utility.yul\":20385:20409   */\n      swap2\n      pop\n        /* \"#utility.yul\":20454:20456   */\n      0x20\n        /* \"#utility.yul\":20443:20452   */\n      dup6\n        /* \"#utility.yul\":20439:20457   */\n      add\n        /* \"#utility.yul\":20426:20457   */\n      swap5\n      pop\n        /* \"#utility.yul\":20300:20304   */\n      0x20\n        /* \"#utility.yul\":20297:20298   */\n      dup2\n        /* \"#utility.yul\":20293:20305   */\n      add\n        /* \"#utility.yul\":20288:20305   */\n      swap1\n      pop\n        /* \"#utility.yul\":20263:20471   */\n      jump(tag_425)\n    tag_427:\n        /* \"#utility.yul\":20499:20505   */\n      dup7\n        /* \"#utility.yul\":20490:20497   */\n      dup4\n        /* \"#utility.yul\":20487:20506   */\n      lt\n        /* \"#utility.yul\":20484:20663   */\n      iszero\n      tag_428\n      jumpi\n        /* \"#utility.yul\":20557:20566   */\n      dup5\n        /* \"#utility.yul\":20552:20555   */\n      dup10\n        /* \"#utility.yul\":20548:20567   */\n      add\n        /* \"#utility.yul\":20542:20568   */\n      mload\n        /* \"#utility.yul\":20600:20648   */\n      tag_429\n        /* \"#utility.yul\":20642:20646   */\n      0x1f\n        /* \"#utility.yul\":20634:20640   */\n      dup10\n        /* \"#utility.yul\":20630:20647   */\n      and\n        /* \"#utility.yul\":20619:20628   */\n      dup3\n        /* \"#utility.yul\":20600:20648   */\n      tag_208\n      jump\t// in\n    tag_429:\n        /* \"#utility.yul\":20592:20598   */\n      dup4\n        /* \"#utility.yul\":20585:20649   */\n      sstore\n        /* \"#utility.yul\":20507:20663   */\n      pop\n        /* \"#utility.yul\":20484:20663   */\n    tag_428:\n        /* \"#utility.yul\":20709:20710   */\n      0x01\n        /* \"#utility.yul\":20705:20706   */\n      0x02\n        /* \"#utility.yul\":20697:20703   */\n      dup9\n        /* \"#utility.yul\":20693:20707   */\n      mul\n        /* \"#utility.yul\":20689:20711   */\n      add\n        /* \"#utility.yul\":20683:20687   */\n      dup9\n        /* \"#utility.yul\":20676:20712   */\n      sstore\n        /* \"#utility.yul\":20111:20722   */\n      pop\n      pop\n      pop\n        /* \"#utility.yul\":20074:20961   */\n    tag_420:\n      pop\n        /* \"#utility.yul\":19664:20967   */\n      pop\n      pop\n      pop\n        /* \"#utility.yul\":19572:20967   */\n      pop\n      pop\n      jump\t// out\n        /* \"#utility.yul\":20973:21151   */\n    tag_210:\n        /* \"#utility.yul\":21113:21143   */\n      0x4f6e6c7920766f7465722063616e20636173742068697320766f746500000000\n        /* \"#utility.yul\":21109:21110   */\n      0x00\n        /* \"#utility.yul\":21101:21107   */\n      dup3\n        /* \"#utility.yul\":21097:21111   */\n      add\n        /* \"#utility.yul\":21090:21144   */\n      mstore\n        /* \"#utility.yul\":20973:21151   */\n      pop\n      jump\t// out\n        /* \"#utility.yul\":21157:21523   */\n    tag_211:\n        /* \"#utility.yul\":21299:21302   */\n      0x00\n        /* \"#utility.yul\":21320:21387   */\n      tag_432\n        /* \"#utility.yul\":21384:21386   */\n      0x1c\n        /* \"#utility.yul\":21379:21382   */\n      dup4\n        /* \"#utility.yul\":21320:21387   */\n      tag_183\n      jump\t// in\n    tag_432:\n        /* \"#utility.yul\":21313:21387   */\n      swap2\n      pop\n        /* \"#utility.yul\":21396:21489   */\n      tag_433\n        /* \"#utility.yul\":21485:21488   */\n      dup3\n        /* \"#utility.yul\":21396:21489   */\n      tag_210\n      jump\t// in\n    tag_433:\n        /* \"#utility.yul\":21514:21516   */\n      0x20\n        /* \"#utility.yul\":21509:21512   */\n      dup3\n        /* \"#utility.yul\":21505:21517   */\n      add\n        /* \"#utility.yul\":21498:21517   */\n      swap1\n      pop\n        /* \"#utility.yul\":21157:21523   */\n      swap2\n      swap1\n      pop\n      jump\t// out\n        /* \"#utility.yul\":21529:21948   */\n    tag_92:\n        /* \"#utility.yul\":21695:21699   */\n      0x00\n        /* \"#utility.yul\":21733:21735   */\n      0x20\n        /* \"#utility.yul\":21722:21731   */\n      dup3\n        /* \"#utility.yul\":21718:21736   */\n      add\n        /* \"#utility.yul\":21710:21736   */\n      swap1\n      pop\n        /* \"#utility.yul\":21782:21791   */\n      dup2\n        /* \"#utility.yul\":21776:21780   */\n      dup2\n        /* \"#utility.yul\":21772:21792   */\n      sub\n        /* \"#utility.yul\":21768:21769   */\n      0x00\n        /* \"#utility.yul\":21757:21766   */\n      dup4\n        /* \"#utility.yul\":21753:21770   */\n      add\n        /* \"#utility.yul\":21746:21793   */\n      mstore\n        /* \"#utility.yul\":21810:21941   */\n      tag_435\n        /* \"#utility.yul\":21936:21940   */\n      dup2\n        /* \"#utility.yul\":21810:21941   */\n      tag_211\n      jump\t// in\n    tag_435:\n        /* \"#utility.yul\":21802:21941   */\n      swap1\n      pop\n        /* \"#utility.yul\":21529:21948   */\n      swap2\n      swap1\n      pop\n      jump\t// out\n        /* \"#utility.yul\":21954:22123   */\n    tag_212:\n        /* \"#utility.yul\":22094:22115   */\n      0x566f74657220616c726561647920766f74656400000000000000000000000000\n        /* \"#utility.yul\":22090:22091   */\n      0x00\n        /* \"#utility.yul\":22082:22088   */\n      dup3\n        /* \"#utility.yul\":22078:22092   */\n      add\n        /* \"#utility.yul\":22071:22116   */\n      mstore\n        /* \"#utility.yul\":21954:22123   */\n      pop\n      jump\t// out\n        /* \"#utility.yul\":22129:22495   */\n    tag_213:\n        /* \"#utility.yul\":22271:22274   */\n      0x00\n        /* \"#utility.yul\":22292:22359   */\n      tag_438\n        /* \"#utility.yul\":22356:22358   */\n      0x13\n        /* \"#utility.yul\":22351:22354   */\n      dup4\n        /* \"#utility.yul\":22292:22359   */\n      tag_183\n      jump\t// in\n    tag_438:\n        /* \"#utility.yul\":22285:22359   */\n      swap2\n      pop\n        /* \"#utility.yul\":22368:22461   */\n      tag_439\n        /* \"#utility.yul\":22457:22460   */\n      dup3\n        /* \"#utility.yul\":22368:22461   */\n      tag_212\n      jump\t// in\n    tag_439:\n        /* \"#utility.yul\":22486:22488   */\n      0x20\n        /* \"#utility.yul\":22481:22484   */\n      dup3\n        /* \"#utility.yul\":22477:22489   */\n      add\n        /* \"#utility.yul\":22470:22489   */\n      swap1\n      pop\n        /* \"#utility.yul\":22129:22495   */\n      swap2\n      swap1\n      pop\n      jump\t// out\n        /* \"#utility.yul\":22501:22920   */\n    tag_95:\n        /* \"#utility.yul\":22667:22671   */\n      0x00\n        /* \"#utility.yul\":22705:22707   */\n      0x20\n        /* \"#utility.yul\":22694:22703   */\n      dup3\n        /* \"#utility.yul\":22690:22708   */\n      add\n        /* \"#utility.yul\":22682:22708   */\n      swap1\n      pop\n        /* \"#utility.yul\":22754:22763   */\n      dup2\n        /* \"#utility.yul\":22748:22752   */\n      dup2\n        /* \"#utility.yul\":22744:22764   */\n      sub\n        /* \"#utility.yul\":22740:22741   */\n      0x00\n        /* \"#utility.yul\":22729:22738   */\n      dup4\n        /* \"#utility.yul\":22725:22742   */\n      add\n        /* \"#utility.yul\":22718:22765   */\n      mstore\n        /* \"#utility.yul\":22782:22913   */\n      tag_441\n        /* \"#utility.yul\":22908:22912   */\n      dup2\n        /* \"#utility.yul\":22782:22913   */\n      tag_213\n      jump\t// in\n    tag_441:\n        /* \"#utility.yul\":22774:22913   */\n      swap1\n      pop\n        /* \"#utility.yul\":22501:22920   */\n      swap2\n      swap1\n      pop\n      jump\t// out\n        /* \"#utility.yul\":22926:23114   */\n    tag_97:\n        /* \"#utility.yul\":22964:22967   */\n      0x00\n        /* \"#utility.yul\":22983:23001   */\n      tag_443\n        /* \"#utility.yul\":22999:23000   */\n      dup3\n        /* \"#utility.yul\":22983:23001   */\n      tag_172\n      jump\t// in\n    tag_443:\n        /* \"#utility.yul\":22978:23001   */\n      swap2\n      pop\n        /* \"#utility.yul\":23015:23033   */\n      tag_444\n        /* \"#utility.yul\":23031:23032   */\n      dup4\n        /* \"#utility.yul\":23015:23033   */\n      tag_172\n      jump\t// in\n    tag_444:\n        /* \"#utility.yul\":23010:23033   */\n      swap3\n      pop\n        /* \"#utility.yul\":23056:23057   */\n      dup3\n        /* \"#utility.yul\":23053:23054   */\n      dup3\n        /* \"#utility.yul\":23049:23058   */\n      add\n        /* \"#utility.yul\":23042:23058   */\n      swap1\n      pop\n        /* \"#utility.yul\":23079:23083   */\n      0xff\n        /* \"#utility.yul\":23074:23077   */\n      dup2\n        /* \"#utility.yul\":23071:23084   */\n      gt\n        /* \"#utility.yul\":23068:23107   */\n      iszero\n      tag_445\n      jumpi\n        /* \"#utility.yul\":23087:23105   */\n      tag_446\n      tag_192\n      jump\t// in\n    tag_446:\n        /* \"#utility.yul\":23068:23107   */\n    tag_445:\n        /* \"#utility.yul\":22926:23114   */\n      swap3\n      swap2\n      pop\n      pop\n      jump\t// out\n        /* \"#utility.yul\":23120:23311   */\n    tag_99:\n        /* \"#utility.yul\":23158:23162   */\n      0x00\n        /* \"#utility.yul\":23178:23196   */\n      tag_448\n        /* \"#utility.yul\":23194:23195   */\n      dup3\n        /* \"#utility.yul\":23178:23196   */\n      tag_172\n      jump\t// in\n    tag_448:\n        /* \"#utility.yul\":23173:23196   */\n      swap2\n      pop\n        /* \"#utility.yul\":23210:23228   */\n      tag_449\n        /* \"#utility.yul\":23226:23227   */\n      dup4\n        /* \"#utility.yul\":23210:23228   */\n      tag_172\n      jump\t// in\n    tag_449:\n        /* \"#utility.yul\":23205:23228   */\n      swap3\n      pop\n        /* \"#utility.yul\":23252:23253   */\n      dup3\n        /* \"#utility.yul\":23249:23250   */\n      dup3\n        /* \"#utility.yul\":23245:23254   */\n      sub\n        /* \"#utility.yul\":23237:23254   */\n      swap1\n      pop\n        /* \"#utility.yul\":23276:23280   */\n      0xff\n        /* \"#utility.yul\":23270:23274   */\n      dup2\n        /* \"#utility.yul\":23267:23281   */\n      gt\n        /* \"#utility.yul\":23264:23304   */\n      iszero\n      tag_450\n      jumpi\n        /* \"#utility.yul\":23284:23302   */\n      tag_451\n      tag_192\n      jump\t// in\n    tag_451:\n        /* \"#utility.yul\":23264:23304   */\n    tag_450:\n        /* \"#utility.yul\":23120:23311   */\n      swap3\n      swap2\n      pop\n      pop\n      jump\t// out\n        /* \"#utility.yul\":23317:23499   */\n    tag_214:\n        /* \"#utility.yul\":23457:23491   */\n      0x4f6e6c7920766f7465722063616e2064656c69676174652068697320766f7465\n        /* \"#utility.yul\":23453:23454   */\n      0x00\n        /* \"#utility.yul\":23445:23451   */\n      dup3\n        /* \"#utility.yul\":23441:23455   */\n      add\n        /* \"#utility.yul\":23434:23492   */\n      mstore\n        /* \"#utility.yul\":23317:23499   */\n      pop\n      jump\t// out\n        /* \"#utility.yul\":23505:23871   */\n    tag_215:\n        /* \"#utility.yul\":23647:23650   */\n      0x00\n        /* \"#utility.yul\":23668:23735   */\n      tag_454\n        /* \"#utility.yul\":23732:23734   */\n      0x20\n        /* \"#utility.yul\":23727:23730   */\n      dup4\n        /* \"#utility.yul\":23668:23735   */\n      tag_183\n      jump\t// in\n    tag_454:\n        /* \"#utility.yul\":23661:23735   */\n      swap2\n      pop\n        /* \"#utility.yul\":23744:23837   */\n      tag_455\n        /* \"#utility.yul\":23833:23836   */\n      dup3\n        /* \"#utility.yul\":23744:23837   */\n      tag_214\n      jump\t// in\n    tag_455:\n        /* \"#utility.yul\":23862:23864   */\n      0x20\n        /* \"#utility.yul\":23857:23860   */\n      dup3\n        /* \"#utility.yul\":23853:23865   */\n      add\n        /* \"#utility.yul\":23846:23865   */\n      swap1\n      pop\n        /* \"#utility.yul\":23505:23871   */\n      swap2\n      swap1\n      pop\n      jump\t// out\n        /* \"#utility.yul\":23877:24296   */\n    tag_125:\n        /* \"#utility.yul\":24043:24047   */\n      0x00\n        /* \"#utility.yul\":24081:24083   */\n      0x20\n        /* \"#utility.yul\":24070:24079   */\n      dup3\n        /* \"#utility.yul\":24066:24084   */\n      add\n        /* \"#utility.yul\":24058:24084   */\n      swap1\n      pop\n        /* \"#utility.yul\":24130:24139   */\n      dup2\n        /* \"#utility.yul\":24124:24128   */\n      dup2\n        /* \"#utility.yul\":24120:24140   */\n      sub\n        /* \"#utility.yul\":24116:24117   */\n      0x00\n        /* \"#utility.yul\":24105:24114   */\n      dup4\n        /* \"#utility.yul\":24101:24118   */\n      add\n        /* \"#utility.yul\":24094:24141   */\n      mstore\n        /* \"#utility.yul\":24158:24289   */\n      tag_457\n        /* \"#utility.yul\":24284:24288   */\n      dup2\n        /* \"#utility.yul\":24158:24289   */\n      tag_215\n      jump\t// in\n    tag_457:\n        /* \"#utility.yul\":24150:24289   */\n      swap1\n      pop\n        /* \"#utility.yul\":23877:24296   */\n      swap2\n      swap1\n      pop\n      jump\t// out\n        /* \"#utility.yul\":24302:24468   */\n    tag_216:\n        /* \"#utility.yul\":24442:24460   */\n      0x766f746572206e6f742065786973747300000000000000000000000000000000\n        /* \"#utility.yul\":24438:24439   */\n      0x00\n        /* \"#utility.yul\":24430:24436   */\n      dup3\n        /* \"#utility.yul\":24426:24440   */\n      add\n        /* \"#utility.yul\":24419:24461   */\n      mstore\n        /* \"#utility.yul\":24302:24468   */\n      pop\n      jump\t// out\n        /* \"#utility.yul\":24474:24840   */\n    tag_217:\n        /* \"#utility.yul\":24616:24619   */\n      0x00\n        /* \"#utility.yul\":24637:24704   */\n      tag_460\n        /* \"#utility.yul\":24701:24703   */\n      0x10\n        /* \"#utility.yul\":24696:24699   */\n      dup4\n        /* \"#utility.yul\":24637:24704   */\n      tag_183\n      jump\t// in\n    tag_460:\n        /* \"#utility.yul\":24630:24704   */\n      swap2\n      pop\n        /* \"#utility.yul\":24713:24806   */\n      tag_461\n        /* \"#utility.yul\":24802:24805   */\n      dup3\n        /* \"#utility.yul\":24713:24806   */\n      tag_216\n      jump\t// in\n    tag_461:\n        /* \"#utility.yul\":24831:24833   */\n      0x20\n        /* \"#utility.yul\":24826:24829   */\n      dup3\n        /* \"#utility.yul\":24822:24834   */\n      add\n        /* \"#utility.yul\":24815:24834   */\n      swap1\n      pop\n        /* \"#utility.yul\":24474:24840   */\n      swap2\n      swap1\n      pop\n      jump\t// out\n        /* \"#utility.yul\":24846:25265   */\n    tag_128:\n        /* \"#utility.yul\":25012:25016   */\n      0x00\n        /* \"#utility.yul\":25050:25052   */\n      0x20\n        /* \"#utility.yul\":25039:25048   */\n      dup3\n        /* \"#utility.yul\":25035:25053   */\n      add\n        /* \"#utility.yul\":25027:25053   */\n      swap1\n      pop\n        /* \"#utility.yul\":25099:25108   */\n      dup2\n        /* \"#utility.yul\":25093:25097   */\n      dup2\n        /* \"#utility.yul\":25089:25109   */\n      sub\n        /* \"#utility.yul\":25085:25086   */\n      0x00\n        /* \"#utility.yul\":25074:25083   */\n      dup4\n        /* \"#utility.yul\":25070:25087   */\n      add\n        /* \"#utility.yul\":25063:25110   */\n      mstore\n        /* \"#utility.yul\":25127:25258   */\n      tag_463\n        /* \"#utility.yul\":25253:25257   */\n      dup2\n        /* \"#utility.yul\":25127:25258   */\n      tag_217\n      jump\t// in\n    tag_463:\n        /* \"#utility.yul\":25119:25258   */\n      swap1\n      pop\n        /* \"#utility.yul\":24846:25265   */\n      swap2\n      swap1\n      pop\n      jump\t// out\n        /* \"#utility.yul\":25271:25440   */\n    tag_218:\n        /* \"#utility.yul\":25411:25432   */\n      0x7265636569766572206e6f742065786973747300000000000000000000000000\n        /* \"#utility.yul\":25407:25408   */\n      0x00\n        /* \"#utility.yul\":25399:25405   */\n      dup3\n        /* \"#utility.yul\":25395:25409   */\n      add\n        /* \"#utility.yul\":25388:25433   */\n      mstore\n        /* \"#utility.yul\":25271:25440   */\n      pop\n      jump\t// out\n        /* \"#utility.yul\":25446:25812   */\n    tag_219:\n        /* \"#utility.yul\":25588:25591   */\n      0x00\n        /* \"#utility.yul\":25609:25676   */\n      tag_466\n        /* \"#utility.yul\":25673:25675   */\n      0x13\n        /* \"#utility.yul\":25668:25671   */\n      dup4\n        /* \"#utility.yul\":25609:25676   */\n      tag_183\n      jump\t// in\n    tag_466:\n        /* \"#utility.yul\":25602:25676   */\n      swap2\n      pop\n        /* \"#utility.yul\":25685:25778   */\n      tag_467\n        /* \"#utility.yul\":25774:25777   */\n      dup3\n        /* \"#utility.yul\":25685:25778   */\n      tag_218\n      jump\t// in\n    tag_467:\n        /* \"#utility.yul\":25803:25805   */\n      0x20\n        /* \"#utility.yul\":25798:25801   */\n      dup3\n        /* \"#utility.yul\":25794:25806   */\n      add\n        /* \"#utility.yul\":25787:25806   */\n      swap1\n      pop\n        /* \"#utility.yul\":25446:25812   */\n      swap2\n      swap1\n      pop\n      jump\t// out\n        /* \"#utility.yul\":25818:26237   */\n    tag_131:\n        /* \"#utility.yul\":25984:25988   */\n      0x00\n        /* \"#utility.yul\":26022:26024   */\n      0x20\n        /* \"#utility.yul\":26011:26020   */\n      dup3\n        /* \"#utility.yul\":26007:26025   */\n      add\n        /* \"#utility.yul\":25999:26025   */\n      swap1\n      pop\n        /* \"#utility.yul\":26071:26080   */\n      dup2\n        /* \"#utility.yul\":26065:26069   */\n      dup2\n        /* \"#utility.yul\":26061:26081   */\n      sub\n        /* \"#utility.yul\":26057:26058   */\n      0x00\n        /* \"#utility.yul\":26046:26055   */\n      dup4\n        /* \"#utility.yul\":26042:26059   */\n      add\n        /* \"#utility.yul\":26035:26082   */\n      mstore\n        /* \"#utility.yul\":26099:26230   */\n      tag_469\n        /* \"#utility.yul\":26225:26229   */\n      dup2\n        /* \"#utility.yul\":26099:26230   */\n      tag_219\n      jump\t// in\n    tag_469:\n        /* \"#utility.yul\":26091:26230   */\n      swap1\n      pop\n        /* \"#utility.yul\":25818:26237   */\n      swap2\n      swap1\n      pop\n      jump\t// out\n        /* \"#utility.yul\":26243:26469   */\n    tag_220:\n        /* \"#utility.yul\":26383:26417   */\n      0x4f6e6c792061646d696e20697320616c6c6f77656420746f2073746172742065\n        /* \"#utility.yul\":26379:26380   */\n      0x00\n        /* \"#utility.yul\":26371:26377   */\n      dup3\n        /* \"#utility.yul\":26367:26381   */\n      add\n        /* \"#utility.yul\":26360:26418   */\n      mstore\n        /* \"#utility.yul\":26452:26461   */\n      0x6c656374696f6e00000000000000000000000000000000000000000000000000\n        /* \"#utility.yul\":26447:26449   */\n      0x20\n        /* \"#utility.yul\":26439:26445   */\n      dup3\n        /* \"#utility.yul\":26435:26450   */\n      add\n        /* \"#utility.yul\":26428:26462   */\n      mstore\n        /* \"#utility.yul\":26243:26469   */\n      pop\n      jump\t// out\n        /* \"#utility.yul\":26475:26841   */\n    tag_221:\n        /* \"#utility.yul\":26617:26620   */\n      0x00\n        /* \"#utility.yul\":26638:26705   */\n      tag_472\n        /* \"#utility.yul\":26702:26704   */\n      0x27\n        /* \"#utility.yul\":26697:26700   */\n      dup4\n        /* \"#utility.yul\":26638:26705   */\n      tag_183\n      jump\t// in\n    tag_472:\n        /* \"#utility.yul\":26631:26705   */\n      swap2\n      pop\n        /* \"#utility.yul\":26714:26807   */\n      tag_473\n        /* \"#utility.yul\":26803:26806   */\n      dup3\n        /* \"#utility.yul\":26714:26807   */\n      tag_220\n      jump\t// in\n    tag_473:\n        /* \"#utility.yul\":26832:26834   */\n      0x40\n        /* \"#utility.yul\":26827:26830   */\n      dup3\n        /* \"#utility.yul\":26823:26835   */\n      add\n        /* \"#utility.yul\":26816:26835   */\n      swap1\n      pop\n        /* \"#utility.yul\":26475:26841   */\n      swap2\n      swap1\n      pop\n      jump\t// out\n        /* \"#utility.yul\":26847:27266   */\n    tag_137:\n        /* \"#utility.yul\":27013:27017   */\n      0x00\n        /* \"#utility.yul\":27051:27053   */\n      0x20\n        /* \"#utility.yul\":27040:27049   */\n      dup3\n        /* \"#utility.yul\":27036:27054   */\n      add\n        /* \"#utility.yul\":27028:27054   */\n      swap1\n      pop\n        /* \"#utility.yul\":27100:27109   */\n      dup2\n        /* \"#utility.yul\":27094:27098   */\n      dup2\n        /* \"#utility.yul\":27090:27110   */\n      sub\n        /* \"#utility.yul\":27086:27087   */\n      0x00\n        /* \"#utility.yul\":27075:27084   */\n      dup4\n        /* \"#utility.yul\":27071:27088   */\n      add\n        /* \"#utility.yul\":27064:27111   */\n      mstore\n        /* \"#utility.yul\":27128:27259   */\n      tag_475\n        /* \"#utility.yul\":27254:27258   */\n      dup2\n        /* \"#utility.yul\":27128:27259   */\n      tag_221\n      jump\t// in\n    tag_475:\n        /* \"#utility.yul\":27120:27259   */\n      swap1\n      pop\n        /* \"#utility.yul\":26847:27266   */\n      swap2\n      swap1\n      pop\n      jump\t// out\n\n    auxdata: 0xa2646970667358221220c7f8baded55f623a386d82c821d910389c366ee0703e685a6003d28729a24db164736f6c63430008120033\n}\n",
				"bytecode": {
					"linkReferences": {},
					"object": "6080604052735b38da6a701c568545dcfcb03fcb875f56beddc46000806101000a81548173ffffffffffffffffffffffffffffffffffffffff021916908373ffffffffffffffffffffffffffffffffffffffff16021790555060008060146101000a81548160ff0219169083600281111561007d5761007c6100af565b5b021790555060008060156101000a81548160ff021916908360ff1602179055503480156100a957600080fd5b506100de565b7f4e487b7100000000000000000000000000000000000000000000000000000000600052602160045260246000fd5b611ec6806100ed6000396000f3fe608060405234801561001057600080fd5b50600436106100935760003560e01c8063b81c645311610066578063b81c64531461010a578063cde9370f14610126578063d4f50f9814610156578063e5ed5b1e14610186578063e6a5e61d146101a257610093565b806307e4b70a146100985780630b32ff77146100b4578063122902a6146100d05780635607395b146100ee575b600080fd5b6100b260048036038101906100ad91906110be565b6101be565b005b6100ce60048036038101906100c99190611231565b6102f0565b005b6100d8610547565b6040516100e59190611333565b60405180910390f35b6101086004803603810190610103919061134e565b61055d565b005b610124600480360381019061011f91906113e3565b61068e565b005b610140600480360381019061013b9190611423565b61085c565b60405161014d9190611557565b60405180910390f35b610170600480360381019061016b91906110be565b610a26565b60405161017d91906115c9565b60405180910390f35b6101a0600480360381019061019b91906115eb565b610b84565b005b6101bc60048036038101906101b791906110be565b610e62565b005b60008054906101000a900473ffffffffffffffffffffffffffffffffffffffff1673ffffffffffffffffffffffffffffffffffffffff168173ffffffffffffffffffffffffffffffffffffffff161461024c576040517f08c379a0000000000000000000000000000000000000000000000000000000008152600401610243906116ae565b60405180910390fd5b600160028111156102605761025f6112bc565b5b600060149054906101000a900460ff166002811115610282576102816112bc565b5b146102c2576040517f08c379a00000000000000000000000000000000000000000000000000000000081526004016102b99061171a565b60405180910390fd5b6002600060146101000a81548160ff021916908360028111156102e8576102e76112bc565b5b021790555050565b60008054906101000a900473ffffffffffffffffffffffffffffffffffffffff1673ffffffffffffffffffffffffffffffffffffffff163373ffffffffffffffffffffffffffffffffffffffff161461037e576040517f08c379a0000000000000000000000000000000000000000000000000000000008152600401610375906117ac565b60405180910390fd5b60006002811115610392576103916112bc565b5b600060149054906101000a900460ff1660028111156103b4576103b36112bc565b5b14806103f257506002808111156103ce576103cd6112bc565b5b600060149054906101000a900460ff1660028111156103f0576103ef6112bc565b5b145b610431576040517f08c379a000000000000000000000000000000000000000000000000000000000815260040161042890611818565b60405180910390fd5b6000601581819054906101000a900460ff168092919061045090611867565b91906101000a81548160ff021916908360ff1602179055505082600160008060159054906101000a900460ff1660ff1660ff16815260200190815260200160002060000190816104a09190611aa6565b5081600160008060159054906101000a900460ff1660ff1660ff16815260200190815260200160002060020190816104d89190611aa6565b5080600160008060159054906101000a900460ff1660ff1660ff16815260200190815260200160002060010160006101000a81548173ffffffffffffffffffffffffffffffffffffffff021916908373ffffffffffffffffffffffffffffffffffffffff160217905550505050565b60008060149054906101000a900460ff16905090565b81600260008373ffffffffffffffffffffffffffffffffffffffff1673ffffffffffffffffffffffffffffffffffffffff16815260200190815260200160002060000190816105ac9190611aa6565b5080600260008373ffffffffffffffffffffffffffffffffffffffff1673ffffffffffffffffffffffffffffffffffffffff16815260200190815260200160002060010160006101000a81548173ffffffffffffffffffffffffffffffffffffffff021916908373ffffffffffffffffffffffffffffffffffffffff1602179055506001600260008373ffffffffffffffffffffffffffffffffffffffff1673ffffffffffffffffffffffffffffffffffffffff16815260200190815260200160002060010160146101000a81548160ff021916908360ff1602179055505050565b8073ffffffffffffffffffffffffffffffffffffffff163373ffffffffffffffffffffffffffffffffffffffff16146106fc576040517f08c379a00000000000000000000000000000000000000000000000000000000081526004016106f390611bc4565b60405180910390fd5b6000600260008373ffffffffffffffffffffffffffffffffffffffff1673ffffffffffffffffffffffffffffffffffffffff16815260200190815260200160002060010160149054906101000a900460ff1660ff1611610791576040517f08c379a000000000000000000000000000000000000000000000000000000000815260040161078890611c30565b60405180910390fd5b60018060008460ff1660ff16815260200190815260200160002060030160008282829054906101000a900460ff166107c99190611c50565b92506101000a81548160ff021916908360ff1602179055506001600260008373ffffffffffffffffffffffffffffffffffffffff1673ffffffffffffffffffffffffffffffffffffffff16815260200190815260200160002060010160148282829054906101000a900460ff166108409190611c85565b92506101000a81548160ff021916908360ff1602179055505050565b610864610fd1565b600160008360ff1660ff168152602001908152602001600020604051806080016040529081600082018054610898906118bf565b80601f01602080910402602001604051908101604052809291908181526020018280546108c4906118bf565b80156109115780601f106108e657610100808354040283529160200191610911565b820191906000526020600020905b8154815290600101906020018083116108f457829003601f168201915b505050505081526020016001820160009054906101000a900473ffffffffffffffffffffffffffffffffffffffff1673ffffffffffffffffffffffffffffffffffffffff1673ffffffffffffffffffffffffffffffffffffffff168152602001600282018054610980906118bf565b80601f01602080910402602001604051908101604052809291908181526020018280546109ac906118bf565b80156109f95780601f106109ce576101008083540402835291602001916109f9565b820191906000526020600020905b8154815290600101906020018083116109dc57829003601f168201915b505050505081526020016003820160009054906101000a900460ff1660ff1660ff16815250509050919050565b610a2e611012565b600260008373ffffffffffffffffffffffffffffffffffffffff1673ffffffffffffffffffffffffffffffffffffffff168152602001908152602001600020604051806060016040529081600082018054610a88906118bf565b80601f0160208091040260200160405190810160405280929190818152602001828054610ab4906118bf565b8015610b015780601f10610ad657610100808354040283529160200191610b01565b820191906000526020600020905b815481529060010190602001808311610ae457829003601f168201915b505050505081526020016001820160009054906101000a900473ffffffffffffffffffffffffffffffffffffffff1673ffffffffffffffffffffffffffffffffffffffff1673ffffffffffffffffffffffffffffffffffffffff1681526020016001820160149054906101000a900460ff1660ff1660ff16815250509050919050565b8173ffffffffffffffffffffffffffffffffffffffff163373ffffffffffffffffffffffffffffffffffffffff1614610bf2576040517f08c379a0000000000000000000000000000000000000000000000000000000008152600401610be990611d06565b60405180910390fd5b6000600260008473ffffffffffffffffffffffffffffffffffffffff1673ffffffffffffffffffffffffffffffffffffffff16815260200190815260200160002060010160149054906101000a900460ff1660ff1611610c87576040517f08c379a0000000000000000000000000000000000000000000000000000000008152600401610c7e90611d72565b60405180910390fd5b6000600260008373ffffffffffffffffffffffffffffffffffffffff1673ffffffffffffffffffffffffffffffffffffffff16815260200190815260200160002060010160149054906101000a900460ff1660ff1611610d1c576040517f08c379a0000000000000000000000000000000000000000000000000000000008152600401610d1390611dde565b60405180910390fd5b6000600260008473ffffffffffffffffffffffffffffffffffffffff1673ffffffffffffffffffffffffffffffffffffffff16815260200190815260200160002060010160149054906101000a900460ff16905080600260008473ffffffffffffffffffffffffffffffffffffffff1673ffffffffffffffffffffffffffffffffffffffff16815260200190815260200160002060010160148282829054906101000a900460ff16610dce9190611c50565b92506101000a81548160ff021916908360ff1602179055506001600260008573ffffffffffffffffffffffffffffffffffffffff1673ffffffffffffffffffffffffffffffffffffffff16815260200190815260200160002060010160148282829054906101000a900460ff16610e459190611c85565b92506101000a81548160ff021916908360ff160217905550505050565b60008054906101000a900473ffffffffffffffffffffffffffffffffffffffff1673ffffffffffffffffffffffffffffffffffffffff168173ffffffffffffffffffffffffffffffffffffffff1614610ef0576040517f08c379a0000000000000000000000000000000000000000000000000000000008152600401610ee790611e70565b60405180910390fd5b60006002811115610f0457610f036112bc565b5b600060149054906101000a900460ff166002811115610f2657610f256112bc565b5b1480610f645750600280811115610f4057610f3f6112bc565b5b600060149054906101000a900460ff166002811115610f6257610f616112bc565b5b145b610fa3576040517f08c379a0000000000000000000000000000000000000000000000000000000008152600401610f9a90611818565b60405180910390fd5b6001600060146101000a81548160ff02191690836002811115610fc957610fc86112bc565b5b021790555050565b604051806080016040528060608152602001600073ffffffffffffffffffffffffffffffffffffffff16815260200160608152602001600060ff1681525090565b604051806060016040528060608152602001600073ffffffffffffffffffffffffffffffffffffffff168152602001600060ff1681525090565b6000604051905090565b600080fd5b600080fd5b600073ffffffffffffffffffffffffffffffffffffffff82169050919050565b600061108b82611060565b9050919050565b61109b81611080565b81146110a657600080fd5b50565b6000813590506110b881611092565b92915050565b6000602082840312156110d4576110d3611056565b5b60006110e2848285016110a9565b91505092915050565b600080fd5b600080fd5b6000601f19601f8301169050919050565b7f4e487b7100000000000000000000000000000000000000000000000000000000600052604160045260246000fd5b61113e826110f5565b810181811067ffffffffffffffff8211171561115d5761115c611106565b5b80604052505050565b600061117061104c565b905061117c8282611135565b919050565b600067ffffffffffffffff82111561119c5761119b611106565b5b6111a5826110f5565b9050602081019050919050565b82818337600083830152505050565b60006111d46111cf84611181565b611166565b9050828152602081018484840111156111f0576111ef6110f0565b5b6111fb8482856111b2565b509392505050565b600082601f830112611218576112176110eb565b5b81356112288482602086016111c1565b91505092915050565b60008060006060848603121561124a57611249611056565b5b600084013567ffffffffffffffff8111156112685761126761105b565b5b61127486828701611203565b935050602084013567ffffffffffffffff8111156112955761129461105b565b5b6112a186828701611203565b92505060406112b2868287016110a9565b9150509250925092565b7f4e487b7100000000000000000000000000000000000000000000000000000000600052602160045260246000fd5b600381106112fc576112fb6112bc565b5b50565b600081905061130d826112eb565b919050565b600061131d826112ff565b9050919050565b61132d81611312565b82525050565b60006020820190506113486000830184611324565b92915050565b6000806040838503121561136557611364611056565b5b600083013567ffffffffffffffff8111156113835761138261105b565b5b61138f85828601611203565b92505060206113a0858286016110a9565b9150509250929050565b600060ff82169050919050565b6113c0816113aa565b81146113cb57600080fd5b50565b6000813590506113dd816113b7565b92915050565b600080604083850312156113fa576113f9611056565b5b6000611408858286016113ce565b9250506020611419858286016110a9565b9150509250929050565b60006020828403121561143957611438611056565b5b6000611447848285016113ce565b91505092915050565b600081519050919050565b600082825260208201905092915050565b60005b8381101561148a57808201518184015260208101905061146f565b60008484015250505050565b60006114a182611450565b6114ab818561145b565b93506114bb81856020860161146c565b6114c4816110f5565b840191505092915050565b6114d881611080565b82525050565b6114e7816113aa565b82525050565b6000608083016000830151848203600086015261150a8282611496565b915050602083015161151f60208601826114cf565b50604083015184820360408601526115378282611496565b915050606083015161154c60608601826114de565b508091505092915050565b6000602082019050818103600083015261157181846114ed565b905092915050565b600060608301600083015184820360008601526115968282611496565b91505060208301516115ab60208601826114cf565b5060408301516115be60408601826114de565b508091505092915050565b600060208201905081810360008301526115e38184611579565b905092915050565b6000806040838503121561160257611601611056565b5b6000611610858286016110a9565b9250506020611621858286016110a9565b9150509250929050565b600082825260208201905092915050565b7f4f6e6c792061646d696e20697320616c6c6f77656420746f20656e6420656c6560008201527f6374696f6e000000000000000000000000000000000000000000000000000000602082015250565b600061169860258361162b565b91506116a38261163c565b604082019050919050565b600060208201905081810360008301526116c78161168b565b9050919050565b7f656c656374696f6e206973206e6f742073746172746564000000000000000000600082015250565b600061170460178361162b565b915061170f826116ce565b602082019050919050565b60006020820190508181036000830152611733816116f7565b9050919050565b7f4f6e6c792061646d696e20697320616c6c6f77656420746f206164642063616e60008201527f6469646174650000000000000000000000000000000000000000000000000000602082015250565b600061179660268361162b565b91506117a18261173a565b604082019050919050565b600060208201905081810360008301526117c581611789565b9050919050565b7f456c656374696f6e20616c726561647920737461727465640000000000000000600082015250565b600061180260188361162b565b915061180d826117cc565b602082019050919050565b60006020820190508181036000830152611831816117f5565b9050919050565b7f4e487b7100000000000000000000000000000000000000000000000000000000600052601160045260246000fd5b6000611872826113aa565b915060ff820361188557611884611838565b5b600182019050919050565b7f4e487b7100000000000000000000000000000000000000000000000000000000600052602260045260246000fd5b600060028204905060018216806118d757607f821691505b6020821081036118ea576118e9611890565b5b50919050565b60008190508160005260206000209050919050565b60006020601f8301049050919050565b600082821b905092915050565b6000600883026119527fffffffffffffffffffffffffffffffffffffffffffffffffffffffffffffffff82611915565b61195c8683611915565b95508019841693508086168417925050509392505050565b6000819050919050565b6000819050919050565b60006119a361199e61199984611974565b61197e565b611974565b9050919050565b6000819050919050565b6119bd83611988565b6119d16119c9826119aa565b848454611922565b825550505050565b600090565b6119e66119d9565b6119f18184846119b4565b505050565b5b81811015611a1557611a0a6000826119de565b6001810190506119f7565b5050565b601f821115611a5a57611a2b816118f0565b611a3484611905565b81016020851015611a43578190505b611a57611a4f85611905565b8301826119f6565b50505b505050565b600082821c905092915050565b6000611a7d60001984600802611a5f565b1980831691505092915050565b6000611a968383611a6c565b9150826002028217905092915050565b611aaf82611450565b67ffffffffffffffff811115611ac857611ac7611106565b5b611ad282546118bf565b611add828285611a19565b600060209050601f831160018114611b105760008415611afe578287015190505b611b088582611a8a565b865550611b70565b601f198416611b1e866118f0565b60005b82811015611b4657848901518255600182019150602085019450602081019050611b21565b86831015611b635784890151611b5f601f891682611a6c565b8355505b6001600288020188555050505b505050505050565b7f4f6e6c7920766f7465722063616e20636173742068697320766f746500000000600082015250565b6000611bae601c8361162b565b9150611bb982611b78565b602082019050919050565b60006020820190508181036000830152611bdd81611ba1565b9050919050565b7f566f74657220616c726561647920766f74656400000000000000000000000000600082015250565b6000611c1a60138361162b565b9150611c2582611be4565b602082019050919050565b60006020820190508181036000830152611c4981611c0d565b9050919050565b6000611c5b826113aa565b9150611c66836113aa565b9250828201905060ff811115611c7f57611c7e611838565b5b92915050565b6000611c90826113aa565b9150611c9b836113aa565b9250828203905060ff811115611cb457611cb3611838565b5b92915050565b7f4f6e6c7920766f7465722063616e2064656c69676174652068697320766f7465600082015250565b6000611cf060208361162b565b9150611cfb82611cba565b602082019050919050565b60006020820190508181036000830152611d1f81611ce3565b9050919050565b7f766f746572206e6f742065786973747300000000000000000000000000000000600082015250565b6000611d5c60108361162b565b9150611d6782611d26565b602082019050919050565b60006020820190508181036000830152611d8b81611d4f565b9050919050565b7f7265636569766572206e6f742065786973747300000000000000000000000000600082015250565b6000611dc860138361162b565b9150611dd382611d92565b602082019050919050565b60006020820190508181036000830152611df781611dbb565b9050919050565b7f4f6e6c792061646d696e20697320616c6c6f77656420746f207374617274206560008201527f6c656374696f6e00000000000000000000000000000000000000000000000000602082015250565b6000611e5a60278361162b565b9150611e6582611dfe565b604082019050919050565b60006020820190508181036000830152611e8981611e4d565b905091905056fea2646970667358221220c7f8baded55f623a386d82c821d910389c366ee0703e685a6003d28729a24db164736f6c63430008120033",
					"opcodes": "PUSH1 0x80 PUSH1 0x40 MSTORE PUSH20 0x5B38DA6A701C568545DCFCB03FCB875F56BEDDC4 PUSH1 0x0 DUP1 PUSH2 0x100 EXP DUP2 SLOAD DUP2 PUSH20 0xFFFFFFFFFFFFFFFFFFFFFFFFFFFFFFFFFFFFFFFF MUL NOT AND SWAP1 DUP4 PUSH20 0xFFFFFFFFFFFFFFFFFFFFFFFFFFFFFFFFFFFFFFFF AND MUL OR SWAP1 SSTORE POP PUSH1 0x0 DUP1 PUSH1 0x14 PUSH2 0x100 EXP DUP2 SLOAD DUP2 PUSH1 0xFF MUL NOT AND SWAP1 DUP4 PUSH1 0x2 DUP2 GT ISZERO PUSH2 0x7D JUMPI PUSH2 0x7C PUSH2 0xAF JUMP JUMPDEST JUMPDEST MUL OR SWAP1 SSTORE POP PUSH1 0x0 DUP1 PUSH1 0x15 PUSH2 0x100 EXP DUP2 SLOAD DUP2 PUSH1 0xFF MUL NOT AND SWAP1 DUP4 PUSH1 0xFF AND MUL OR SWAP1 SSTORE POP CALLVALUE DUP1 ISZERO PUSH2 0xA9 JUMPI PUSH1 0x0 DUP1 REVERT JUMPDEST POP PUSH2 0xDE JUMP JUMPDEST PUSH32 0x4E487B7100000000000000000000000000000000000000000000000000000000 PUSH1 0x0 MSTORE PUSH1 0x21 PUSH1 0x4 MSTORE PUSH1 0x24 PUSH1 0x0 REVERT JUMPDEST PUSH2 0x1EC6 DUP1 PUSH2 0xED PUSH1 0x0 CODECOPY PUSH1 0x0 RETURN INVALID PUSH1 0x80 PUSH1 0x40 MSTORE CALLVALUE DUP1 ISZERO PUSH2 0x10 JUMPI PUSH1 0x0 DUP1 REVERT JUMPDEST POP PUSH1 0x4 CALLDATASIZE LT PUSH2 0x93 JUMPI PUSH1 0x0 CALLDATALOAD PUSH1 0xE0 SHR DUP1 PUSH4 0xB81C6453 GT PUSH2 0x66 JUMPI DUP1 PUSH4 0xB81C6453 EQ PUSH2 0x10A JUMPI DUP1 PUSH4 0xCDE9370F EQ PUSH2 0x126 JUMPI DUP1 PUSH4 0xD4F50F98 EQ PUSH2 0x156 JUMPI DUP1 PUSH4 0xE5ED5B1E EQ PUSH2 0x186 JUMPI DUP1 PUSH4 0xE6A5E61D EQ PUSH2 0x1A2 JUMPI PUSH2 0x93 JUMP JUMPDEST DUP1 PUSH4 0x7E4B70A EQ PUSH2 0x98 JUMPI DUP1 PUSH4 0xB32FF77 EQ PUSH2 0xB4 JUMPI DUP1 PUSH4 0x122902A6 EQ PUSH2 0xD0 JUMPI DUP1 PUSH4 0x5607395B EQ PUSH2 0xEE JUMPI JUMPDEST PUSH1 0x0 DUP1 REVERT JUMPDEST PUSH2 0xB2 PUSH1 0x4 DUP1 CALLDATASIZE SUB DUP2 ADD SWAP1 PUSH2 0xAD SWAP2 SWAP1 PUSH2 0x10BE JUMP JUMPDEST PUSH2 0x1BE JUMP JUMPDEST STOP JUMPDEST PUSH2 0xCE PUSH1 0x4 DUP1 CALLDATASIZE SUB DUP2 ADD SWAP1 PUSH2 0xC9 SWAP2 SWAP1 PUSH2 0x1231 JUMP JUMPDEST PUSH2 0x2F0 JUMP JUMPDEST STOP JUMPDEST PUSH2 0xD8 PUSH2 0x547 JUMP JUMPDEST PUSH1 0x40 MLOAD PUSH2 0xE5 SWAP2 SWAP1 PUSH2 0x1333 JUMP JUMPDEST PUSH1 0x40 MLOAD DUP1 SWAP2 SUB SWAP1 RETURN JUMPDEST PUSH2 0x108 PUSH1 0x4 DUP1 CALLDATASIZE SUB DUP2 ADD SWAP1 PUSH2 0x103 SWAP2 SWAP1 PUSH2 0x134E JUMP JUMPDEST PUSH2 0x55D JUMP JUMPDEST STOP JUMPDEST PUSH2 0x124 PUSH1 0x4 DUP1 CALLDATASIZE SUB DUP2 ADD SWAP1 PUSH2 0x11F SWAP2 SWAP1 PUSH2 0x13E3 JUMP JUMPDEST PUSH2 0x68E JUMP JUMPDEST STOP JUMPDEST PUSH2 0x140 PUSH1 0x4 DUP1 CALLDATASIZE SUB DUP2 ADD SWAP1 PUSH2 0x13B SWAP2 SWAP1 PUSH2 0x1423 JUMP JUMPDEST PUSH2 0x85C JUMP JUMPDEST PUSH1 0x40 MLOAD PUSH2 0x14D SWAP2 SWAP1 PUSH2 0x1557 JUMP JUMPDEST PUSH1 0x40 MLOAD DUP1 SWAP2 SUB SWAP1 RETURN JUMPDEST PUSH2 0x170 PUSH1 0x4 DUP1 CALLDATASIZE SUB DUP2 ADD SWAP1 PUSH2 0x16B SWAP2 SWAP1 PUSH2 0x10BE JUMP JUMPDEST PUSH2 0xA26 JUMP JUMPDEST PUSH1 0x40 MLOAD PUSH2 0x17D SWAP2 SWAP1 PUSH2 0x15C9 JUMP JUMPDEST PUSH1 0x40 MLOAD DUP1 SWAP2 SUB SWAP1 RETURN JUMPDEST PUSH2 0x1A0 PUSH1 0x4 DUP1 CALLDATASIZE SUB DUP2 ADD SWAP1 PUSH2 0x19B SWAP2 SWAP1 PUSH2 0x15EB JUMP JUMPDEST PUSH2 0xB84 JUMP JUMPDEST STOP JUMPDEST PUSH2 0x1BC PUSH1 0x4 DUP1 CALLDATASIZE SUB DUP2 ADD SWAP1 PUSH2 0x1B7 SWAP2 SWAP1 PUSH2 0x10BE JUMP JUMPDEST PUSH2 0xE62 JUMP JUMPDEST STOP JUMPDEST PUSH1 0x0 DUP1 SLOAD SWAP1 PUSH2 0x100 EXP SWAP1 DIV PUSH20 0xFFFFFFFFFFFFFFFFFFFFFFFFFFFFFFFFFFFFFFFF AND PUSH20 0xFFFFFFFFFFFFFFFFFFFFFFFFFFFFFFFFFFFFFFFF AND DUP2 PUSH20 0xFFFFFFFFFFFFFFFFFFFFFFFFFFFFFFFFFFFFFFFF AND EQ PUSH2 0x24C JUMPI PUSH1 0x40 MLOAD PUSH32 0x8C379A000000000000000000000000000000000000000000000000000000000 DUP2 MSTORE PUSH1 0x4 ADD PUSH2 0x243 SWAP1 PUSH2 0x16AE JUMP JUMPDEST PUSH1 0x40 MLOAD DUP1 SWAP2 SUB SWAP1 REVERT JUMPDEST PUSH1 0x1 PUSH1 0x2 DUP2 GT ISZERO PUSH2 0x260 JUMPI PUSH2 0x25F PUSH2 0x12BC JUMP JUMPDEST JUMPDEST PUSH1 0x0 PUSH1 0x14 SWAP1 SLOAD SWAP1 PUSH2 0x100 EXP SWAP1 DIV PUSH1 0xFF AND PUSH1 0x2 DUP2 GT ISZERO PUSH2 0x282 JUMPI PUSH2 0x281 PUSH2 0x12BC JUMP JUMPDEST JUMPDEST EQ PUSH2 0x2C2 JUMPI PUSH1 0x40 MLOAD PUSH32 0x8C379A000000000000000000000000000000000000000000000000000000000 DUP2 MSTORE PUSH1 0x4 ADD PUSH2 0x2B9 SWAP1 PUSH2 0x171A JUMP JUMPDEST PUSH1 0x40 MLOAD DUP1 SWAP2 SUB SWAP1 REVERT JUMPDEST PUSH1 0x2 PUSH1 0x0 PUSH1 0x14 PUSH2 0x100 EXP DUP2 SLOAD DUP2 PUSH1 0xFF MUL NOT AND SWAP1 DUP4 PUSH1 0x2 DUP2 GT ISZERO PUSH2 0x2E8 JUMPI PUSH2 0x2E7 PUSH2 0x12BC JUMP JUMPDEST JUMPDEST MUL OR SWAP1 SSTORE POP POP JUMP JUMPDEST PUSH1 0x0 DUP1 SLOAD SWAP1 PUSH2 0x100 EXP SWAP1 DIV PUSH20 0xFFFFFFFFFFFFFFFFFFFFFFFFFFFFFFFFFFFFFFFF AND PUSH20 0xFFFFFFFFFFFFFFFFFFFFFFFFFFFFFFFFFFFFFFFF AND CALLER PUSH20 0xFFFFFFFFFFFFFFFFFFFFFFFFFFFFFFFFFFFFFFFF AND EQ PUSH2 0x37E JUMPI PUSH1 0x40 MLOAD PUSH32 0x8C379A000000000000000000000000000000000000000000000000000000000 DUP2 MSTORE PUSH1 0x4 ADD PUSH2 0x375 SWAP1 PUSH2 0x17AC JUMP JUMPDEST PUSH1 0x40 MLOAD DUP1 SWAP2 SUB SWAP1 REVERT JUMPDEST PUSH1 0x0 PUSH1 0x2 DUP2 GT ISZERO PUSH2 0x392 JUMPI PUSH2 0x391 PUSH2 0x12BC JUMP JUMPDEST JUMPDEST PUSH1 0x0 PUSH1 0x14 SWAP1 SLOAD SWAP1 PUSH2 0x100 EXP SWAP1 DIV PUSH1 0xFF AND PUSH1 0x2 DUP2 GT ISZERO PUSH2 0x3B4 JUMPI PUSH2 0x3B3 PUSH2 0x12BC JUMP JUMPDEST JUMPDEST EQ DUP1 PUSH2 0x3F2 JUMPI POP PUSH1 0x2 DUP1 DUP2 GT ISZERO PUSH2 0x3CE JUMPI PUSH2 0x3CD PUSH2 0x12BC JUMP JUMPDEST JUMPDEST PUSH1 0x0 PUSH1 0x14 SWAP1 SLOAD SWAP1 PUSH2 0x100 EXP SWAP1 DIV PUSH1 0xFF AND PUSH1 0x2 DUP2 GT ISZERO PUSH2 0x3F0 JUMPI PUSH2 0x3EF PUSH2 0x12BC JUMP JUMPDEST JUMPDEST EQ JUMPDEST PUSH2 0x431 JUMPI PUSH1 0x40 MLOAD PUSH32 0x8C379A000000000000000000000000000000000000000000000000000000000 DUP2 MSTORE PUSH1 0x4 ADD PUSH2 0x428 SWAP1 PUSH2 0x1818 JUMP JUMPDEST PUSH1 0x40 MLOAD DUP1 SWAP2 SUB SWAP1 REVERT JUMPDEST PUSH1 0x0 PUSH1 0x15 DUP2 DUP2 SWAP1 SLOAD SWAP1 PUSH2 0x100 EXP SWAP1 DIV PUSH1 0xFF AND DUP1 SWAP3 SWAP2 SWAP1 PUSH2 0x450 SWAP1 PUSH2 0x1867 JUMP JUMPDEST SWAP2 SWAP1 PUSH2 0x100 EXP DUP2 SLOAD DUP2 PUSH1 0xFF MUL NOT AND SWAP1 DUP4 PUSH1 0xFF AND MUL OR SWAP1 SSTORE POP POP DUP3 PUSH1 0x1 PUSH1 0x0 DUP1 PUSH1 0x15 SWAP1 SLOAD SWAP1 PUSH2 0x100 EXP SWAP1 DIV PUSH1 0xFF AND PUSH1 0xFF AND PUSH1 0xFF AND DUP2 MSTORE PUSH1 0x20 ADD SWAP1 DUP2 MSTORE PUSH1 0x20 ADD PUSH1 0x0 KECCAK256 PUSH1 0x0 ADD SWAP1 DUP2 PUSH2 0x4A0 SWAP2 SWAP1 PUSH2 0x1AA6 JUMP JUMPDEST POP DUP2 PUSH1 0x1 PUSH1 0x0 DUP1 PUSH1 0x15 SWAP1 SLOAD SWAP1 PUSH2 0x100 EXP SWAP1 DIV PUSH1 0xFF AND PUSH1 0xFF AND PUSH1 0xFF AND DUP2 MSTORE PUSH1 0x20 ADD SWAP1 DUP2 MSTORE PUSH1 0x20 ADD PUSH1 0x0 KECCAK256 PUSH1 0x2 ADD SWAP1 DUP2 PUSH2 0x4D8 SWAP2 SWAP1 PUSH2 0x1AA6 JUMP JUMPDEST POP DUP1 PUSH1 0x1 PUSH1 0x0 DUP1 PUSH1 0x15 SWAP1 SLOAD SWAP1 PUSH2 0x100 EXP SWAP1 DIV PUSH1 0xFF AND PUSH1 0xFF AND PUSH1 0xFF AND DUP2 MSTORE PUSH1 0x20 ADD SWAP1 DUP2 MSTORE PUSH1 0x20 ADD PUSH1 0x0 KECCAK256 PUSH1 0x1 ADD PUSH1 0x0 PUSH2 0x100 EXP DUP2 SLOAD DUP2 PUSH20 0xFFFFFFFFFFFFFFFFFFFFFFFFFFFFFFFFFFFFFFFF MUL NOT AND SWAP1 DUP4 PUSH20 0xFFFFFFFFFFFFFFFFFFFFFFFFFFFFFFFFFFFFFFFF AND MUL OR SWAP1 SSTORE POP POP POP POP JUMP JUMPDEST PUSH1 0x0 DUP1 PUSH1 0x14 SWAP1 SLOAD SWAP1 PUSH2 0x100 EXP SWAP1 DIV PUSH1 0xFF AND SWAP1 POP SWAP1 JUMP JUMPDEST DUP2 PUSH1 0x2 PUSH1 0x0 DUP4 PUSH20 0xFFFFFFFFFFFFFFFFFFFFFFFFFFFFFFFFFFFFFFFF AND PUSH20 0xFFFFFFFFFFFFFFFFFFFFFFFFFFFFFFFFFFFFFFFF AND DUP2 MSTORE PUSH1 0x20 ADD SWAP1 DUP2 MSTORE PUSH1 0x20 ADD PUSH1 0x0 KECCAK256 PUSH1 0x0 ADD SWAP1 DUP2 PUSH2 0x5AC SWAP2 SWAP1 PUSH2 0x1AA6 JUMP JUMPDEST POP DUP1 PUSH1 0x2 PUSH1 0x0 DUP4 PUSH20 0xFFFFFFFFFFFFFFFFFFFFFFFFFFFFFFFFFFFFFFFF AND PUSH20 0xFFFFFFFFFFFFFFFFFFFFFFFFFFFFFFFFFFFFFFFF AND DUP2 MSTORE PUSH1 0x20 ADD SWAP1 DUP2 MSTORE PUSH1 0x20 ADD PUSH1 0x0 KECCAK256 PUSH1 0x1 ADD PUSH1 0x0 PUSH2 0x100 EXP DUP2 SLOAD DUP2 PUSH20 0xFFFFFFFFFFFFFFFFFFFFFFFFFFFFFFFFFFFFFFFF MUL NOT AND SWAP1 DUP4 PUSH20 0xFFFFFFFFFFFFFFFFFFFFFFFFFFFFFFFFFFFFFFFF AND MUL OR SWAP1 SSTORE POP PUSH1 0x1 PUSH1 0x2 PUSH1 0x0 DUP4 PUSH20 0xFFFFFFFFFFFFFFFFFFFFFFFFFFFFFFFFFFFFFFFF AND PUSH20 0xFFFFFFFFFFFFFFFFFFFFFFFFFFFFFFFFFFFFFFFF AND DUP2 MSTORE PUSH1 0x20 ADD SWAP1 DUP2 MSTORE PUSH1 0x20 ADD PUSH1 0x0 KECCAK256 PUSH1 0x1 ADD PUSH1 0x14 PUSH2 0x100 EXP DUP2 SLOAD DUP2 PUSH1 0xFF MUL NOT AND SWAP1 DUP4 PUSH1 0xFF AND MUL OR SWAP1 SSTORE POP POP POP JUMP JUMPDEST DUP1 PUSH20 0xFFFFFFFFFFFFFFFFFFFFFFFFFFFFFFFFFFFFFFFF AND CALLER PUSH20 0xFFFFFFFFFFFFFFFFFFFFFFFFFFFFFFFFFFFFFFFF AND EQ PUSH2 0x6FC JUMPI PUSH1 0x40 MLOAD PUSH32 0x8C379A000000000000000000000000000000000000000000000000000000000 DUP2 MSTORE PUSH1 0x4 ADD PUSH2 0x6F3 SWAP1 PUSH2 0x1BC4 JUMP JUMPDEST PUSH1 0x40 MLOAD DUP1 SWAP2 SUB SWAP1 REVERT JUMPDEST PUSH1 0x0 PUSH1 0x2 PUSH1 0x0 DUP4 PUSH20 0xFFFFFFFFFFFFFFFFFFFFFFFFFFFFFFFFFFFFFFFF AND PUSH20 0xFFFFFFFFFFFFFFFFFFFFFFFFFFFFFFFFFFFFFFFF AND DUP2 MSTORE PUSH1 0x20 ADD SWAP1 DUP2 MSTORE PUSH1 0x20 ADD PUSH1 0x0 KECCAK256 PUSH1 0x1 ADD PUSH1 0x14 SWAP1 SLOAD SWAP1 PUSH2 0x100 EXP SWAP1 DIV PUSH1 0xFF AND PUSH1 0xFF AND GT PUSH2 0x791 JUMPI PUSH1 0x40 MLOAD PUSH32 0x8C379A000000000000000000000000000000000000000000000000000000000 DUP2 MSTORE PUSH1 0x4 ADD PUSH2 0x788 SWAP1 PUSH2 0x1C30 JUMP JUMPDEST PUSH1 0x40 MLOAD DUP1 SWAP2 SUB SWAP1 REVERT JUMPDEST PUSH1 0x1 DUP1 PUSH1 0x0 DUP5 PUSH1 0xFF AND PUSH1 0xFF AND DUP2 MSTORE PUSH1 0x20 ADD SWAP1 DUP2 MSTORE PUSH1 0x20 ADD PUSH1 0x0 KECCAK256 PUSH1 0x3 ADD PUSH1 0x0 DUP3 DUP3 DUP3 SWAP1 SLOAD SWAP1 PUSH2 0x100 EXP SWAP1 DIV PUSH1 0xFF AND PUSH2 0x7C9 SWAP2 SWAP1 PUSH2 0x1C50 JUMP JUMPDEST SWAP3 POP PUSH2 0x100 EXP DUP2 SLOAD DUP2 PUSH1 0xFF MUL NOT AND SWAP1 DUP4 PUSH1 0xFF AND MUL OR SWAP1 SSTORE POP PUSH1 0x1 PUSH1 0x2 PUSH1 0x0 DUP4 PUSH20 0xFFFFFFFFFFFFFFFFFFFFFFFFFFFFFFFFFFFFFFFF AND PUSH20 0xFFFFFFFFFFFFFFFFFFFFFFFFFFFFFFFFFFFFFFFF AND DUP2 MSTORE PUSH1 0x20 ADD SWAP1 DUP2 MSTORE PUSH1 0x20 ADD PUSH1 0x0 KECCAK256 PUSH1 0x1 ADD PUSH1 0x14 DUP3 DUP3 DUP3 SWAP1 SLOAD SWAP1 PUSH2 0x100 EXP SWAP1 DIV PUSH1 0xFF AND PUSH2 0x840 SWAP2 SWAP1 PUSH2 0x1C85 JUMP JUMPDEST SWAP3 POP PUSH2 0x100 EXP DUP2 SLOAD DUP2 PUSH1 0xFF MUL NOT AND SWAP1 DUP4 PUSH1 0xFF AND MUL OR SWAP1 SSTORE POP POP POP JUMP JUMPDEST PUSH2 0x864 PUSH2 0xFD1 JUMP JUMPDEST PUSH1 0x1 PUSH1 0x0 DUP4 PUSH1 0xFF AND PUSH1 0xFF AND DUP2 MSTORE PUSH1 0x20 ADD SWAP1 DUP2 MSTORE PUSH1 0x20 ADD PUSH1 0x0 KECCAK256 PUSH1 0x40 MLOAD DUP1 PUSH1 0x80 ADD PUSH1 0x40 MSTORE SWAP1 DUP2 PUSH1 0x0 DUP3 ADD DUP1 SLOAD PUSH2 0x898 SWAP1 PUSH2 0x18BF JUMP JUMPDEST DUP1 PUSH1 0x1F ADD PUSH1 0x20 DUP1 SWAP2 DIV MUL PUSH1 0x20 ADD PUSH1 0x40 MLOAD SWAP1 DUP2 ADD PUSH1 0x40 MSTORE DUP1 SWAP3 SWAP2 SWAP1 DUP2 DUP2 MSTORE PUSH1 0x20 ADD DUP3 DUP1 SLOAD PUSH2 0x8C4 SWAP1 PUSH2 0x18BF JUMP JUMPDEST DUP1 ISZERO PUSH2 0x911 JUMPI DUP1 PUSH1 0x1F LT PUSH2 0x8E6 JUMPI PUSH2 0x100 DUP1 DUP4 SLOAD DIV MUL DUP4 MSTORE SWAP2 PUSH1 0x20 ADD SWAP2 PUSH2 0x911 JUMP JUMPDEST DUP3 ADD SWAP2 SWAP1 PUSH1 0x0 MSTORE PUSH1 0x20 PUSH1 0x0 KECCAK256 SWAP1 JUMPDEST DUP2 SLOAD DUP2 MSTORE SWAP1 PUSH1 0x1 ADD SWAP1 PUSH1 0x20 ADD DUP1 DUP4 GT PUSH2 0x8F4 JUMPI DUP3 SWAP1 SUB PUSH1 0x1F AND DUP3 ADD SWAP2 JUMPDEST POP POP POP POP POP DUP2 MSTORE PUSH1 0x20 ADD PUSH1 0x1 DUP3 ADD PUSH1 0x0 SWAP1 SLOAD SWAP1 PUSH2 0x100 EXP SWAP1 DIV PUSH20 0xFFFFFFFFFFFFFFFFFFFFFFFFFFFFFFFFFFFFFFFF AND PUSH20 0xFFFFFFFFFFFFFFFFFFFFFFFFFFFFFFFFFFFFFFFF AND PUSH20 0xFFFFFFFFFFFFFFFFFFFFFFFFFFFFFFFFFFFFFFFF AND DUP2 MSTORE PUSH1 0x20 ADD PUSH1 0x2 DUP3 ADD DUP1 SLOAD PUSH2 0x980 SWAP1 PUSH2 0x18BF JUMP JUMPDEST DUP1 PUSH1 0x1F ADD PUSH1 0x20 DUP1 SWAP2 DIV MUL PUSH1 0x20 ADD PUSH1 0x40 MLOAD SWAP1 DUP2 ADD PUSH1 0x40 MSTORE DUP1 SWAP3 SWAP2 SWAP1 DUP2 DUP2 MSTORE PUSH1 0x20 ADD DUP3 DUP1 SLOAD PUSH2 0x9AC SWAP1 PUSH2 0x18BF JUMP JUMPDEST DUP1 ISZERO PUSH2 0x9F9 JUMPI DUP1 PUSH1 0x1F LT PUSH2 0x9CE JUMPI PUSH2 0x100 DUP1 DUP4 SLOAD DIV MUL DUP4 MSTORE SWAP2 PUSH1 0x20 ADD SWAP2 PUSH2 0x9F9 JUMP JUMPDEST DUP3 ADD SWAP2 SWAP1 PUSH1 0x0 MSTORE PUSH1 0x20 PUSH1 0x0 KECCAK256 SWAP1 JUMPDEST DUP2 SLOAD DUP2 MSTORE SWAP1 PUSH1 0x1 ADD SWAP1 PUSH1 0x20 ADD DUP1 DUP4 GT PUSH2 0x9DC JUMPI DUP3 SWAP1 SUB PUSH1 0x1F AND DUP3 ADD SWAP2 JUMPDEST POP POP POP POP POP DUP2 MSTORE PUSH1 0x20 ADD PUSH1 0x3 DUP3 ADD PUSH1 0x0 SWAP1 SLOAD SWAP1 PUSH2 0x100 EXP SWAP1 DIV PUSH1 0xFF AND PUSH1 0xFF AND PUSH1 0xFF AND DUP2 MSTORE POP POP SWAP1 POP SWAP2 SWAP1 POP JUMP JUMPDEST PUSH2 0xA2E PUSH2 0x1012 JUMP JUMPDEST PUSH1 0x2 PUSH1 0x0 DUP4 PUSH20 0xFFFFFFFFFFFFFFFFFFFFFFFFFFFFFFFFFFFFFFFF AND PUSH20 0xFFFFFFFFFFFFFFFFFFFFFFFFFFFFFFFFFFFFFFFF AND DUP2 MSTORE PUSH1 0x20 ADD SWAP1 DUP2 MSTORE PUSH1 0x20 ADD PUSH1 0x0 KECCAK256 PUSH1 0x40 MLOAD DUP1 PUSH1 0x60 ADD PUSH1 0x40 MSTORE SWAP1 DUP2 PUSH1 0x0 DUP3 ADD DUP1 SLOAD PUSH2 0xA88 SWAP1 PUSH2 0x18BF JUMP JUMPDEST DUP1 PUSH1 0x1F ADD PUSH1 0x20 DUP1 SWAP2 DIV MUL PUSH1 0x20 ADD PUSH1 0x40 MLOAD SWAP1 DUP2 ADD PUSH1 0x40 MSTORE DUP1 SWAP3 SWAP2 SWAP1 DUP2 DUP2 MSTORE PUSH1 0x20 ADD DUP3 DUP1 SLOAD PUSH2 0xAB4 SWAP1 PUSH2 0x18BF JUMP JUMPDEST DUP1 ISZERO PUSH2 0xB01 JUMPI DUP1 PUSH1 0x1F LT PUSH2 0xAD6 JUMPI PUSH2 0x100 DUP1 DUP4 SLOAD DIV MUL DUP4 MSTORE SWAP2 PUSH1 0x20 ADD SWAP2 PUSH2 0xB01 JUMP JUMPDEST DUP3 ADD SWAP2 SWAP1 PUSH1 0x0 MSTORE PUSH1 0x20 PUSH1 0x0 KECCAK256 SWAP1 JUMPDEST DUP2 SLOAD DUP2 MSTORE SWAP1 PUSH1 0x1 ADD SWAP1 PUSH1 0x20 ADD DUP1 DUP4 GT PUSH2 0xAE4 JUMPI DUP3 SWAP1 SUB PUSH1 0x1F AND DUP3 ADD SWAP2 JUMPDEST POP POP POP POP POP DUP2 MSTORE PUSH1 0x20 ADD PUSH1 0x1 DUP3 ADD PUSH1 0x0 SWAP1 SLOAD SWAP1 PUSH2 0x100 EXP SWAP1 DIV PUSH20 0xFFFFFFFFFFFFFFFFFFFFFFFFFFFFFFFFFFFFFFFF AND PUSH20 0xFFFFFFFFFFFFFFFFFFFFFFFFFFFFFFFFFFFFFFFF AND PUSH20 0xFFFFFFFFFFFFFFFFFFFFFFFFFFFFFFFFFFFFFFFF AND DUP2 MSTORE PUSH1 0x20 ADD PUSH1 0x1 DUP3 ADD PUSH1 0x14 SWAP1 SLOAD SWAP1 PUSH2 0x100 EXP SWAP1 DIV PUSH1 0xFF AND PUSH1 0xFF AND PUSH1 0xFF AND DUP2 MSTORE POP POP SWAP1 POP SWAP2 SWAP1 POP JUMP JUMPDEST DUP2 PUSH20 0xFFFFFFFFFFFFFFFFFFFFFFFFFFFFFFFFFFFFFFFF AND CALLER PUSH20 0xFFFFFFFFFFFFFFFFFFFFFFFFFFFFFFFFFFFFFFFF AND EQ PUSH2 0xBF2 JUMPI PUSH1 0x40 MLOAD PUSH32 0x8C379A000000000000000000000000000000000000000000000000000000000 DUP2 MSTORE PUSH1 0x4 ADD PUSH2 0xBE9 SWAP1 PUSH2 0x1D06 JUMP JUMPDEST PUSH1 0x40 MLOAD DUP1 SWAP2 SUB SWAP1 REVERT JUMPDEST PUSH1 0x0 PUSH1 0x2 PUSH1 0x0 DUP5 PUSH20 0xFFFFFFFFFFFFFFFFFFFFFFFFFFFFFFFFFFFFFFFF AND PUSH20 0xFFFFFFFFFFFFFFFFFFFFFFFFFFFFFFFFFFFFFFFF AND DUP2 MSTORE PUSH1 0x20 ADD SWAP1 DUP2 MSTORE PUSH1 0x20 ADD PUSH1 0x0 KECCAK256 PUSH1 0x1 ADD PUSH1 0x14 SWAP1 SLOAD SWAP1 PUSH2 0x100 EXP SWAP1 DIV PUSH1 0xFF AND PUSH1 0xFF AND GT PUSH2 0xC87 JUMPI PUSH1 0x40 MLOAD PUSH32 0x8C379A000000000000000000000000000000000000000000000000000000000 DUP2 MSTORE PUSH1 0x4 ADD PUSH2 0xC7E SWAP1 PUSH2 0x1D72 JUMP JUMPDEST PUSH1 0x40 MLOAD DUP1 SWAP2 SUB SWAP1 REVERT JUMPDEST PUSH1 0x0 PUSH1 0x2 PUSH1 0x0 DUP4 PUSH20 0xFFFFFFFFFFFFFFFFFFFFFFFFFFFFFFFFFFFFFFFF AND PUSH20 0xFFFFFFFFFFFFFFFFFFFFFFFFFFFFFFFFFFFFFFFF AND DUP2 MSTORE PUSH1 0x20 ADD SWAP1 DUP2 MSTORE PUSH1 0x20 ADD PUSH1 0x0 KECCAK256 PUSH1 0x1 ADD PUSH1 0x14 SWAP1 SLOAD SWAP1 PUSH2 0x100 EXP SWAP1 DIV PUSH1 0xFF AND PUSH1 0xFF AND GT PUSH2 0xD1C JUMPI PUSH1 0x40 MLOAD PUSH32 0x8C379A000000000000000000000000000000000000000000000000000000000 DUP2 MSTORE PUSH1 0x4 ADD PUSH2 0xD13 SWAP1 PUSH2 0x1DDE JUMP JUMPDEST PUSH1 0x40 MLOAD DUP1 SWAP2 SUB SWAP1 REVERT JUMPDEST PUSH1 0x0 PUSH1 0x2 PUSH1 0x0 DUP5 PUSH20 0xFFFFFFFFFFFFFFFFFFFFFFFFFFFFFFFFFFFFFFFF AND PUSH20 0xFFFFFFFFFFFFFFFFFFFFFFFFFFFFFFFFFFFFFFFF AND DUP2 MSTORE PUSH1 0x20 ADD SWAP1 DUP2 MSTORE PUSH1 0x20 ADD PUSH1 0x0 KECCAK256 PUSH1 0x1 ADD PUSH1 0x14 SWAP1 SLOAD SWAP1 PUSH2 0x100 EXP SWAP1 DIV PUSH1 0xFF AND SWAP1 POP DUP1 PUSH1 0x2 PUSH1 0x0 DUP5 PUSH20 0xFFFFFFFFFFFFFFFFFFFFFFFFFFFFFFFFFFFFFFFF AND PUSH20 0xFFFFFFFFFFFFFFFFFFFFFFFFFFFFFFFFFFFFFFFF AND DUP2 MSTORE PUSH1 0x20 ADD SWAP1 DUP2 MSTORE PUSH1 0x20 ADD PUSH1 0x0 KECCAK256 PUSH1 0x1 ADD PUSH1 0x14 DUP3 DUP3 DUP3 SWAP1 SLOAD SWAP1 PUSH2 0x100 EXP SWAP1 DIV PUSH1 0xFF AND PUSH2 0xDCE SWAP2 SWAP1 PUSH2 0x1C50 JUMP JUMPDEST SWAP3 POP PUSH2 0x100 EXP DUP2 SLOAD DUP2 PUSH1 0xFF MUL NOT AND SWAP1 DUP4 PUSH1 0xFF AND MUL OR SWAP1 SSTORE POP PUSH1 0x1 PUSH1 0x2 PUSH1 0x0 DUP6 PUSH20 0xFFFFFFFFFFFFFFFFFFFFFFFFFFFFFFFFFFFFFFFF AND PUSH20 0xFFFFFFFFFFFFFFFFFFFFFFFFFFFFFFFFFFFFFFFF AND DUP2 MSTORE PUSH1 0x20 ADD SWAP1 DUP2 MSTORE PUSH1 0x20 ADD PUSH1 0x0 KECCAK256 PUSH1 0x1 ADD PUSH1 0x14 DUP3 DUP3 DUP3 SWAP1 SLOAD SWAP1 PUSH2 0x100 EXP SWAP1 DIV PUSH1 0xFF AND PUSH2 0xE45 SWAP2 SWAP1 PUSH2 0x1C85 JUMP JUMPDEST SWAP3 POP PUSH2 0x100 EXP DUP2 SLOAD DUP2 PUSH1 0xFF MUL NOT AND SWAP1 DUP4 PUSH1 0xFF AND MUL OR SWAP1 SSTORE POP POP POP POP JUMP JUMPDEST PUSH1 0x0 DUP1 SLOAD SWAP1 PUSH2 0x100 EXP SWAP1 DIV PUSH20 0xFFFFFFFFFFFFFFFFFFFFFFFFFFFFFFFFFFFFFFFF AND PUSH20 0xFFFFFFFFFFFFFFFFFFFFFFFFFFFFFFFFFFFFFFFF AND DUP2 PUSH20 0xFFFFFFFFFFFFFFFFFFFFFFFFFFFFFFFFFFFFFFFF AND EQ PUSH2 0xEF0 JUMPI PUSH1 0x40 MLOAD PUSH32 0x8C379A000000000000000000000000000000000000000000000000000000000 DUP2 MSTORE PUSH1 0x4 ADD PUSH2 0xEE7 SWAP1 PUSH2 0x1E70 JUMP JUMPDEST PUSH1 0x40 MLOAD DUP1 SWAP2 SUB SWAP1 REVERT JUMPDEST PUSH1 0x0 PUSH1 0x2 DUP2 GT ISZERO PUSH2 0xF04 JUMPI PUSH2 0xF03 PUSH2 0x12BC JUMP JUMPDEST JUMPDEST PUSH1 0x0 PUSH1 0x14 SWAP1 SLOAD SWAP1 PUSH2 0x100 EXP SWAP1 DIV PUSH1 0xFF AND PUSH1 0x2 DUP2 GT ISZERO PUSH2 0xF26 JUMPI PUSH2 0xF25 PUSH2 0x12BC JUMP JUMPDEST JUMPDEST EQ DUP1 PUSH2 0xF64 JUMPI POP PUSH1 0x2 DUP1 DUP2 GT ISZERO PUSH2 0xF40 JUMPI PUSH2 0xF3F PUSH2 0x12BC JUMP JUMPDEST JUMPDEST PUSH1 0x0 PUSH1 0x14 SWAP1 SLOAD SWAP1 PUSH2 0x100 EXP SWAP1 DIV PUSH1 0xFF AND PUSH1 0x2 DUP2 GT ISZERO PUSH2 0xF62 JUMPI PUSH2 0xF61 PUSH2 0x12BC JUMP JUMPDEST JUMPDEST EQ JUMPDEST PUSH2 0xFA3 JUMPI PUSH1 0x40 MLOAD PUSH32 0x8C379A000000000000000000000000000000000000000000000000000000000 DUP2 MSTORE PUSH1 0x4 ADD PUSH2 0xF9A SWAP1 PUSH2 0x1818 JUMP JUMPDEST PUSH1 0x40 MLOAD DUP1 SWAP2 SUB SWAP1 REVERT JUMPDEST PUSH1 0x1 PUSH1 0x0 PUSH1 0x14 PUSH2 0x100 EXP DUP2 SLOAD DUP2 PUSH1 0xFF MUL NOT AND SWAP1 DUP4 PUSH1 0x2 DUP2 GT ISZERO PUSH2 0xFC9 JUMPI PUSH2 0xFC8 PUSH2 0x12BC JUMP JUMPDEST JUMPDEST MUL OR SWAP1 SSTORE POP POP JUMP JUMPDEST PUSH1 0x40 MLOAD DUP1 PUSH1 0x80 ADD PUSH1 0x40 MSTORE DUP1 PUSH1 0x60 DUP2 MSTORE PUSH1 0x20 ADD PUSH1 0x0 PUSH20 0xFFFFFFFFFFFFFFFFFFFFFFFFFFFFFFFFFFFFFFFF AND DUP2 MSTORE PUSH1 0x20 ADD PUSH1 0x60 DUP2 MSTORE PUSH1 0x20 ADD PUSH1 0x0 PUSH1 0xFF AND DUP2 MSTORE POP SWAP1 JUMP JUMPDEST PUSH1 0x40 MLOAD DUP1 PUSH1 0x60 ADD PUSH1 0x40 MSTORE DUP1 PUSH1 0x60 DUP2 MSTORE PUSH1 0x20 ADD PUSH1 0x0 PUSH20 0xFFFFFFFFFFFFFFFFFFFFFFFFFFFFFFFFFFFFFFFF AND DUP2 MSTORE PUSH1 0x20 ADD PUSH1 0x0 PUSH1 0xFF AND DUP2 MSTORE POP SWAP1 JUMP JUMPDEST PUSH1 0x0 PUSH1 0x40 MLOAD SWAP1 POP SWAP1 JUMP JUMPDEST PUSH1 0x0 DUP1 REVERT JUMPDEST PUSH1 0x0 DUP1 REVERT JUMPDEST PUSH1 0x0 PUSH20 0xFFFFFFFFFFFFFFFFFFFFFFFFFFFFFFFFFFFFFFFF DUP3 AND SWAP1 POP SWAP2 SWAP1 POP JUMP JUMPDEST PUSH1 0x0 PUSH2 0x108B DUP3 PUSH2 0x1060 JUMP JUMPDEST SWAP1 POP SWAP2 SWAP1 POP JUMP JUMPDEST PUSH2 0x109B DUP2 PUSH2 0x1080 JUMP JUMPDEST DUP2 EQ PUSH2 0x10A6 JUMPI PUSH1 0x0 DUP1 REVERT JUMPDEST POP JUMP JUMPDEST PUSH1 0x0 DUP2 CALLDATALOAD SWAP1 POP PUSH2 0x10B8 DUP2 PUSH2 0x1092 JUMP JUMPDEST SWAP3 SWAP2 POP POP JUMP JUMPDEST PUSH1 0x0 PUSH1 0x20 DUP3 DUP5 SUB SLT ISZERO PUSH2 0x10D4 JUMPI PUSH2 0x10D3 PUSH2 0x1056 JUMP JUMPDEST JUMPDEST PUSH1 0x0 PUSH2 0x10E2 DUP5 DUP3 DUP6 ADD PUSH2 0x10A9 JUMP JUMPDEST SWAP2 POP POP SWAP3 SWAP2 POP POP JUMP JUMPDEST PUSH1 0x0 DUP1 REVERT JUMPDEST PUSH1 0x0 DUP1 REVERT JUMPDEST PUSH1 0x0 PUSH1 0x1F NOT PUSH1 0x1F DUP4 ADD AND SWAP1 POP SWAP2 SWAP1 POP JUMP JUMPDEST PUSH32 0x4E487B7100000000000000000000000000000000000000000000000000000000 PUSH1 0x0 MSTORE PUSH1 0x41 PUSH1 0x4 MSTORE PUSH1 0x24 PUSH1 0x0 REVERT JUMPDEST PUSH2 0x113E DUP3 PUSH2 0x10F5 JUMP JUMPDEST DUP2 ADD DUP2 DUP2 LT PUSH8 0xFFFFFFFFFFFFFFFF DUP3 GT OR ISZERO PUSH2 0x115D JUMPI PUSH2 0x115C PUSH2 0x1106 JUMP JUMPDEST JUMPDEST DUP1 PUSH1 0x40 MSTORE POP POP POP JUMP JUMPDEST PUSH1 0x0 PUSH2 0x1170 PUSH2 0x104C JUMP JUMPDEST SWAP1 POP PUSH2 0x117C DUP3 DUP3 PUSH2 0x1135 JUMP JUMPDEST SWAP2 SWAP1 POP JUMP JUMPDEST PUSH1 0x0 PUSH8 0xFFFFFFFFFFFFFFFF DUP3 GT ISZERO PUSH2 0x119C JUMPI PUSH2 0x119B PUSH2 0x1106 JUMP JUMPDEST JUMPDEST PUSH2 0x11A5 DUP3 PUSH2 0x10F5 JUMP JUMPDEST SWAP1 POP PUSH1 0x20 DUP2 ADD SWAP1 POP SWAP2 SWAP1 POP JUMP JUMPDEST DUP3 DUP2 DUP4 CALLDATACOPY PUSH1 0x0 DUP4 DUP4 ADD MSTORE POP POP POP JUMP JUMPDEST PUSH1 0x0 PUSH2 0x11D4 PUSH2 0x11CF DUP5 PUSH2 0x1181 JUMP JUMPDEST PUSH2 0x1166 JUMP JUMPDEST SWAP1 POP DUP3 DUP2 MSTORE PUSH1 0x20 DUP2 ADD DUP5 DUP5 DUP5 ADD GT ISZERO PUSH2 0x11F0 JUMPI PUSH2 0x11EF PUSH2 0x10F0 JUMP JUMPDEST JUMPDEST PUSH2 0x11FB DUP5 DUP3 DUP6 PUSH2 0x11B2 JUMP JUMPDEST POP SWAP4 SWAP3 POP POP POP JUMP JUMPDEST PUSH1 0x0 DUP3 PUSH1 0x1F DUP4 ADD SLT PUSH2 0x1218 JUMPI PUSH2 0x1217 PUSH2 0x10EB JUMP JUMPDEST JUMPDEST DUP2 CALLDATALOAD PUSH2 0x1228 DUP5 DUP3 PUSH1 0x20 DUP7 ADD PUSH2 0x11C1 JUMP JUMPDEST SWAP2 POP POP SWAP3 SWAP2 POP POP JUMP JUMPDEST PUSH1 0x0 DUP1 PUSH1 0x0 PUSH1 0x60 DUP5 DUP7 SUB SLT ISZERO PUSH2 0x124A JUMPI PUSH2 0x1249 PUSH2 0x1056 JUMP JUMPDEST JUMPDEST PUSH1 0x0 DUP5 ADD CALLDATALOAD PUSH8 0xFFFFFFFFFFFFFFFF DUP2 GT ISZERO PUSH2 0x1268 JUMPI PUSH2 0x1267 PUSH2 0x105B JUMP JUMPDEST JUMPDEST PUSH2 0x1274 DUP7 DUP3 DUP8 ADD PUSH2 0x1203 JUMP JUMPDEST SWAP4 POP POP PUSH1 0x20 DUP5 ADD CALLDATALOAD PUSH8 0xFFFFFFFFFFFFFFFF DUP2 GT ISZERO PUSH2 0x1295 JUMPI PUSH2 0x1294 PUSH2 0x105B JUMP JUMPDEST JUMPDEST PUSH2 0x12A1 DUP7 DUP3 DUP8 ADD PUSH2 0x1203 JUMP JUMPDEST SWAP3 POP POP PUSH1 0x40 PUSH2 0x12B2 DUP7 DUP3 DUP8 ADD PUSH2 0x10A9 JUMP JUMPDEST SWAP2 POP POP SWAP3 POP SWAP3 POP SWAP3 JUMP JUMPDEST PUSH32 0x4E487B7100000000000000000000000000000000000000000000000000000000 PUSH1 0x0 MSTORE PUSH1 0x21 PUSH1 0x4 MSTORE PUSH1 0x24 PUSH1 0x0 REVERT JUMPDEST PUSH1 0x3 DUP2 LT PUSH2 0x12FC JUMPI PUSH2 0x12FB PUSH2 0x12BC JUMP JUMPDEST JUMPDEST POP JUMP JUMPDEST PUSH1 0x0 DUP2 SWAP1 POP PUSH2 0x130D DUP3 PUSH2 0x12EB JUMP JUMPDEST SWAP2 SWAP1 POP JUMP JUMPDEST PUSH1 0x0 PUSH2 0x131D DUP3 PUSH2 0x12FF JUMP JUMPDEST SWAP1 POP SWAP2 SWAP1 POP JUMP JUMPDEST PUSH2 0x132D DUP2 PUSH2 0x1312 JUMP JUMPDEST DUP3 MSTORE POP POP JUMP JUMPDEST PUSH1 0x0 PUSH1 0x20 DUP3 ADD SWAP1 POP PUSH2 0x1348 PUSH1 0x0 DUP4 ADD DUP5 PUSH2 0x1324 JUMP JUMPDEST SWAP3 SWAP2 POP POP JUMP JUMPDEST PUSH1 0x0 DUP1 PUSH1 0x40 DUP4 DUP6 SUB SLT ISZERO PUSH2 0x1365 JUMPI PUSH2 0x1364 PUSH2 0x1056 JUMP JUMPDEST JUMPDEST PUSH1 0x0 DUP4 ADD CALLDATALOAD PUSH8 0xFFFFFFFFFFFFFFFF DUP2 GT ISZERO PUSH2 0x1383 JUMPI PUSH2 0x1382 PUSH2 0x105B JUMP JUMPDEST JUMPDEST PUSH2 0x138F DUP6 DUP3 DUP7 ADD PUSH2 0x1203 JUMP JUMPDEST SWAP3 POP POP PUSH1 0x20 PUSH2 0x13A0 DUP6 DUP3 DUP7 ADD PUSH2 0x10A9 JUMP JUMPDEST SWAP2 POP POP SWAP3 POP SWAP3 SWAP1 POP JUMP JUMPDEST PUSH1 0x0 PUSH1 0xFF DUP3 AND SWAP1 POP SWAP2 SWAP1 POP JUMP JUMPDEST PUSH2 0x13C0 DUP2 PUSH2 0x13AA JUMP JUMPDEST DUP2 EQ PUSH2 0x13CB JUMPI PUSH1 0x0 DUP1 REVERT JUMPDEST POP JUMP JUMPDEST PUSH1 0x0 DUP2 CALLDATALOAD SWAP1 POP PUSH2 0x13DD DUP2 PUSH2 0x13B7 JUMP JUMPDEST SWAP3 SWAP2 POP POP JUMP JUMPDEST PUSH1 0x0 DUP1 PUSH1 0x40 DUP4 DUP6 SUB SLT ISZERO PUSH2 0x13FA JUMPI PUSH2 0x13F9 PUSH2 0x1056 JUMP JUMPDEST JUMPDEST PUSH1 0x0 PUSH2 0x1408 DUP6 DUP3 DUP7 ADD PUSH2 0x13CE JUMP JUMPDEST SWAP3 POP POP PUSH1 0x20 PUSH2 0x1419 DUP6 DUP3 DUP7 ADD PUSH2 0x10A9 JUMP JUMPDEST SWAP2 POP POP SWAP3 POP SWAP3 SWAP1 POP JUMP JUMPDEST PUSH1 0x0 PUSH1 0x20 DUP3 DUP5 SUB SLT ISZERO PUSH2 0x1439 JUMPI PUSH2 0x1438 PUSH2 0x1056 JUMP JUMPDEST JUMPDEST PUSH1 0x0 PUSH2 0x1447 DUP5 DUP3 DUP6 ADD PUSH2 0x13CE JUMP JUMPDEST SWAP2 POP POP SWAP3 SWAP2 POP POP JUMP JUMPDEST PUSH1 0x0 DUP2 MLOAD SWAP1 POP SWAP2 SWAP1 POP JUMP JUMPDEST PUSH1 0x0 DUP3 DUP3 MSTORE PUSH1 0x20 DUP3 ADD SWAP1 POP SWAP3 SWAP2 POP POP JUMP JUMPDEST PUSH1 0x0 JUMPDEST DUP4 DUP2 LT ISZERO PUSH2 0x148A JUMPI DUP1 DUP3 ADD MLOAD DUP2 DUP5 ADD MSTORE PUSH1 0x20 DUP2 ADD SWAP1 POP PUSH2 0x146F JUMP JUMPDEST PUSH1 0x0 DUP5 DUP5 ADD MSTORE POP POP POP POP JUMP JUMPDEST PUSH1 0x0 PUSH2 0x14A1 DUP3 PUSH2 0x1450 JUMP JUMPDEST PUSH2 0x14AB DUP2 DUP6 PUSH2 0x145B JUMP JUMPDEST SWAP4 POP PUSH2 0x14BB DUP2 DUP6 PUSH1 0x20 DUP7 ADD PUSH2 0x146C JUMP JUMPDEST PUSH2 0x14C4 DUP2 PUSH2 0x10F5 JUMP JUMPDEST DUP5 ADD SWAP2 POP POP SWAP3 SWAP2 POP POP JUMP JUMPDEST PUSH2 0x14D8 DUP2 PUSH2 0x1080 JUMP JUMPDEST DUP3 MSTORE POP POP JUMP JUMPDEST PUSH2 0x14E7 DUP2 PUSH2 0x13AA JUMP JUMPDEST DUP3 MSTORE POP POP JUMP JUMPDEST PUSH1 0x0 PUSH1 0x80 DUP4 ADD PUSH1 0x0 DUP4 ADD MLOAD DUP5 DUP3 SUB PUSH1 0x0 DUP7 ADD MSTORE PUSH2 0x150A DUP3 DUP3 PUSH2 0x1496 JUMP JUMPDEST SWAP2 POP POP PUSH1 0x20 DUP4 ADD MLOAD PUSH2 0x151F PUSH1 0x20 DUP7 ADD DUP3 PUSH2 0x14CF JUMP JUMPDEST POP PUSH1 0x40 DUP4 ADD MLOAD DUP5 DUP3 SUB PUSH1 0x40 DUP7 ADD MSTORE PUSH2 0x1537 DUP3 DUP3 PUSH2 0x1496 JUMP JUMPDEST SWAP2 POP POP PUSH1 0x60 DUP4 ADD MLOAD PUSH2 0x154C PUSH1 0x60 DUP7 ADD DUP3 PUSH2 0x14DE JUMP JUMPDEST POP DUP1 SWAP2 POP POP SWAP3 SWAP2 POP POP JUMP JUMPDEST PUSH1 0x0 PUSH1 0x20 DUP3 ADD SWAP1 POP DUP2 DUP2 SUB PUSH1 0x0 DUP4 ADD MSTORE PUSH2 0x1571 DUP2 DUP5 PUSH2 0x14ED JUMP JUMPDEST SWAP1 POP SWAP3 SWAP2 POP POP JUMP JUMPDEST PUSH1 0x0 PUSH1 0x60 DUP4 ADD PUSH1 0x0 DUP4 ADD MLOAD DUP5 DUP3 SUB PUSH1 0x0 DUP7 ADD MSTORE PUSH2 0x1596 DUP3 DUP3 PUSH2 0x1496 JUMP JUMPDEST SWAP2 POP POP PUSH1 0x20 DUP4 ADD MLOAD PUSH2 0x15AB PUSH1 0x20 DUP7 ADD DUP3 PUSH2 0x14CF JUMP JUMPDEST POP PUSH1 0x40 DUP4 ADD MLOAD PUSH2 0x15BE PUSH1 0x40 DUP7 ADD DUP3 PUSH2 0x14DE JUMP JUMPDEST POP DUP1 SWAP2 POP POP SWAP3 SWAP2 POP POP JUMP JUMPDEST PUSH1 0x0 PUSH1 0x20 DUP3 ADD SWAP1 POP DUP2 DUP2 SUB PUSH1 0x0 DUP4 ADD MSTORE PUSH2 0x15E3 DUP2 DUP5 PUSH2 0x1579 JUMP JUMPDEST SWAP1 POP SWAP3 SWAP2 POP POP JUMP JUMPDEST PUSH1 0x0 DUP1 PUSH1 0x40 DUP4 DUP6 SUB SLT ISZERO PUSH2 0x1602 JUMPI PUSH2 0x1601 PUSH2 0x1056 JUMP JUMPDEST JUMPDEST PUSH1 0x0 PUSH2 0x1610 DUP6 DUP3 DUP7 ADD PUSH2 0x10A9 JUMP JUMPDEST SWAP3 POP POP PUSH1 0x20 PUSH2 0x1621 DUP6 DUP3 DUP7 ADD PUSH2 0x10A9 JUMP JUMPDEST SWAP2 POP POP SWAP3 POP SWAP3 SWAP1 POP JUMP JUMPDEST PUSH1 0x0 DUP3 DUP3 MSTORE PUSH1 0x20 DUP3 ADD SWAP1 POP SWAP3 SWAP2 POP POP JUMP JUMPDEST PUSH32 0x4F6E6C792061646D696E20697320616C6C6F77656420746F20656E6420656C65 PUSH1 0x0 DUP3 ADD MSTORE PUSH32 0x6374696F6E000000000000000000000000000000000000000000000000000000 PUSH1 0x20 DUP3 ADD MSTORE POP JUMP JUMPDEST PUSH1 0x0 PUSH2 0x1698 PUSH1 0x25 DUP4 PUSH2 0x162B JUMP JUMPDEST SWAP2 POP PUSH2 0x16A3 DUP3 PUSH2 0x163C JUMP JUMPDEST PUSH1 0x40 DUP3 ADD SWAP1 POP SWAP2 SWAP1 POP JUMP JUMPDEST PUSH1 0x0 PUSH1 0x20 DUP3 ADD SWAP1 POP DUP2 DUP2 SUB PUSH1 0x0 DUP4 ADD MSTORE PUSH2 0x16C7 DUP2 PUSH2 0x168B JUMP JUMPDEST SWAP1 POP SWAP2 SWAP1 POP JUMP JUMPDEST PUSH32 0x656C656374696F6E206973206E6F742073746172746564000000000000000000 PUSH1 0x0 DUP3 ADD MSTORE POP JUMP JUMPDEST PUSH1 0x0 PUSH2 0x1704 PUSH1 0x17 DUP4 PUSH2 0x162B JUMP JUMPDEST SWAP2 POP PUSH2 0x170F DUP3 PUSH2 0x16CE JUMP JUMPDEST PUSH1 0x20 DUP3 ADD SWAP1 POP SWAP2 SWAP1 POP JUMP JUMPDEST PUSH1 0x0 PUSH1 0x20 DUP3 ADD SWAP1 POP DUP2 DUP2 SUB PUSH1 0x0 DUP4 ADD MSTORE PUSH2 0x1733 DUP2 PUSH2 0x16F7 JUMP JUMPDEST SWAP1 POP SWAP2 SWAP1 POP JUMP JUMPDEST PUSH32 0x4F6E6C792061646D696E20697320616C6C6F77656420746F206164642063616E PUSH1 0x0 DUP3 ADD MSTORE PUSH32 0x6469646174650000000000000000000000000000000000000000000000000000 PUSH1 0x20 DUP3 ADD MSTORE POP JUMP JUMPDEST PUSH1 0x0 PUSH2 0x1796 PUSH1 0x26 DUP4 PUSH2 0x162B JUMP JUMPDEST SWAP2 POP PUSH2 0x17A1 DUP3 PUSH2 0x173A JUMP JUMPDEST PUSH1 0x40 DUP3 ADD SWAP1 POP SWAP2 SWAP1 POP JUMP JUMPDEST PUSH1 0x0 PUSH1 0x20 DUP3 ADD SWAP1 POP DUP2 DUP2 SUB PUSH1 0x0 DUP4 ADD MSTORE PUSH2 0x17C5 DUP2 PUSH2 0x1789 JUMP JUMPDEST SWAP1 POP SWAP2 SWAP1 POP JUMP JUMPDEST PUSH32 0x456C656374696F6E20616C726561647920737461727465640000000000000000 PUSH1 0x0 DUP3 ADD MSTORE POP JUMP JUMPDEST PUSH1 0x0 PUSH2 0x1802 PUSH1 0x18 DUP4 PUSH2 0x162B JUMP JUMPDEST SWAP2 POP PUSH2 0x180D DUP3 PUSH2 0x17CC JUMP JUMPDEST PUSH1 0x20 DUP3 ADD SWAP1 POP SWAP2 SWAP1 POP JUMP JUMPDEST PUSH1 0x0 PUSH1 0x20 DUP3 ADD SWAP1 POP DUP2 DUP2 SUB PUSH1 0x0 DUP4 ADD MSTORE PUSH2 0x1831 DUP2 PUSH2 0x17F5 JUMP JUMPDEST SWAP1 POP SWAP2 SWAP1 POP JUMP JUMPDEST PUSH32 0x4E487B7100000000000000000000000000000000000000000000000000000000 PUSH1 0x0 MSTORE PUSH1 0x11 PUSH1 0x4 MSTORE PUSH1 0x24 PUSH1 0x0 REVERT JUMPDEST PUSH1 0x0 PUSH2 0x1872 DUP3 PUSH2 0x13AA JUMP JUMPDEST SWAP2 POP PUSH1 0xFF DUP3 SUB PUSH2 0x1885 JUMPI PUSH2 0x1884 PUSH2 0x1838 JUMP JUMPDEST JUMPDEST PUSH1 0x1 DUP3 ADD SWAP1 POP SWAP2 SWAP1 POP JUMP JUMPDEST PUSH32 0x4E487B7100000000000000000000000000000000000000000000000000000000 PUSH1 0x0 MSTORE PUSH1 0x22 PUSH1 0x4 MSTORE PUSH1 0x24 PUSH1 0x0 REVERT JUMPDEST PUSH1 0x0 PUSH1 0x2 DUP3 DIV SWAP1 POP PUSH1 0x1 DUP3 AND DUP1 PUSH2 0x18D7 JUMPI PUSH1 0x7F DUP3 AND SWAP2 POP JUMPDEST PUSH1 0x20 DUP3 LT DUP2 SUB PUSH2 0x18EA JUMPI PUSH2 0x18E9 PUSH2 0x1890 JUMP JUMPDEST JUMPDEST POP SWAP2 SWAP1 POP JUMP JUMPDEST PUSH1 0x0 DUP2 SWAP1 POP DUP2 PUSH1 0x0 MSTORE PUSH1 0x20 PUSH1 0x0 KECCAK256 SWAP1 POP SWAP2 SWAP1 POP JUMP JUMPDEST PUSH1 0x0 PUSH1 0x20 PUSH1 0x1F DUP4 ADD DIV SWAP1 POP SWAP2 SWAP1 POP JUMP JUMPDEST PUSH1 0x0 DUP3 DUP3 SHL SWAP1 POP SWAP3 SWAP2 POP POP JUMP JUMPDEST PUSH1 0x0 PUSH1 0x8 DUP4 MUL PUSH2 0x1952 PUSH32 0xFFFFFFFFFFFFFFFFFFFFFFFFFFFFFFFFFFFFFFFFFFFFFFFFFFFFFFFFFFFFFFFF DUP3 PUSH2 0x1915 JUMP JUMPDEST PUSH2 0x195C DUP7 DUP4 PUSH2 0x1915 JUMP JUMPDEST SWAP6 POP DUP1 NOT DUP5 AND SWAP4 POP DUP1 DUP7 AND DUP5 OR SWAP3 POP POP POP SWAP4 SWAP3 POP POP POP JUMP JUMPDEST PUSH1 0x0 DUP2 SWAP1 POP SWAP2 SWAP1 POP JUMP JUMPDEST PUSH1 0x0 DUP2 SWAP1 POP SWAP2 SWAP1 POP JUMP JUMPDEST PUSH1 0x0 PUSH2 0x19A3 PUSH2 0x199E PUSH2 0x1999 DUP5 PUSH2 0x1974 JUMP JUMPDEST PUSH2 0x197E JUMP JUMPDEST PUSH2 0x1974 JUMP JUMPDEST SWAP1 POP SWAP2 SWAP1 POP JUMP JUMPDEST PUSH1 0x0 DUP2 SWAP1 POP SWAP2 SWAP1 POP JUMP JUMPDEST PUSH2 0x19BD DUP4 PUSH2 0x1988 JUMP JUMPDEST PUSH2 0x19D1 PUSH2 0x19C9 DUP3 PUSH2 0x19AA JUMP JUMPDEST DUP5 DUP5 SLOAD PUSH2 0x1922 JUMP JUMPDEST DUP3 SSTORE POP POP POP POP JUMP JUMPDEST PUSH1 0x0 SWAP1 JUMP JUMPDEST PUSH2 0x19E6 PUSH2 0x19D9 JUMP JUMPDEST PUSH2 0x19F1 DUP2 DUP5 DUP5 PUSH2 0x19B4 JUMP JUMPDEST POP POP POP JUMP JUMPDEST JUMPDEST DUP2 DUP2 LT ISZERO PUSH2 0x1A15 JUMPI PUSH2 0x1A0A PUSH1 0x0 DUP3 PUSH2 0x19DE JUMP JUMPDEST PUSH1 0x1 DUP2 ADD SWAP1 POP PUSH2 0x19F7 JUMP JUMPDEST POP POP JUMP JUMPDEST PUSH1 0x1F DUP3 GT ISZERO PUSH2 0x1A5A JUMPI PUSH2 0x1A2B DUP2 PUSH2 0x18F0 JUMP JUMPDEST PUSH2 0x1A34 DUP5 PUSH2 0x1905 JUMP JUMPDEST DUP2 ADD PUSH1 0x20 DUP6 LT ISZERO PUSH2 0x1A43 JUMPI DUP2 SWAP1 POP JUMPDEST PUSH2 0x1A57 PUSH2 0x1A4F DUP6 PUSH2 0x1905 JUMP JUMPDEST DUP4 ADD DUP3 PUSH2 0x19F6 JUMP JUMPDEST POP POP JUMPDEST POP POP POP JUMP JUMPDEST PUSH1 0x0 DUP3 DUP3 SHR SWAP1 POP SWAP3 SWAP2 POP POP JUMP JUMPDEST PUSH1 0x0 PUSH2 0x1A7D PUSH1 0x0 NOT DUP5 PUSH1 0x8 MUL PUSH2 0x1A5F JUMP JUMPDEST NOT DUP1 DUP4 AND SWAP2 POP POP SWAP3 SWAP2 POP POP JUMP JUMPDEST PUSH1 0x0 PUSH2 0x1A96 DUP4 DUP4 PUSH2 0x1A6C JUMP JUMPDEST SWAP2 POP DUP3 PUSH1 0x2 MUL DUP3 OR SWAP1 POP SWAP3 SWAP2 POP POP JUMP JUMPDEST PUSH2 0x1AAF DUP3 PUSH2 0x1450 JUMP JUMPDEST PUSH8 0xFFFFFFFFFFFFFFFF DUP2 GT ISZERO PUSH2 0x1AC8 JUMPI PUSH2 0x1AC7 PUSH2 0x1106 JUMP JUMPDEST JUMPDEST PUSH2 0x1AD2 DUP3 SLOAD PUSH2 0x18BF JUMP JUMPDEST PUSH2 0x1ADD DUP3 DUP3 DUP6 PUSH2 0x1A19 JUMP JUMPDEST PUSH1 0x0 PUSH1 0x20 SWAP1 POP PUSH1 0x1F DUP4 GT PUSH1 0x1 DUP2 EQ PUSH2 0x1B10 JUMPI PUSH1 0x0 DUP5 ISZERO PUSH2 0x1AFE JUMPI DUP3 DUP8 ADD MLOAD SWAP1 POP JUMPDEST PUSH2 0x1B08 DUP6 DUP3 PUSH2 0x1A8A JUMP JUMPDEST DUP7 SSTORE POP PUSH2 0x1B70 JUMP JUMPDEST PUSH1 0x1F NOT DUP5 AND PUSH2 0x1B1E DUP7 PUSH2 0x18F0 JUMP JUMPDEST PUSH1 0x0 JUMPDEST DUP3 DUP2 LT ISZERO PUSH2 0x1B46 JUMPI DUP5 DUP10 ADD MLOAD DUP3 SSTORE PUSH1 0x1 DUP3 ADD SWAP2 POP PUSH1 0x20 DUP6 ADD SWAP5 POP PUSH1 0x20 DUP2 ADD SWAP1 POP PUSH2 0x1B21 JUMP JUMPDEST DUP7 DUP4 LT ISZERO PUSH2 0x1B63 JUMPI DUP5 DUP10 ADD MLOAD PUSH2 0x1B5F PUSH1 0x1F DUP10 AND DUP3 PUSH2 0x1A6C JUMP JUMPDEST DUP4 SSTORE POP JUMPDEST PUSH1 0x1 PUSH1 0x2 DUP9 MUL ADD DUP9 SSTORE POP POP POP JUMPDEST POP POP POP POP POP POP JUMP JUMPDEST PUSH32 0x4F6E6C7920766F7465722063616E20636173742068697320766F746500000000 PUSH1 0x0 DUP3 ADD MSTORE POP JUMP JUMPDEST PUSH1 0x0 PUSH2 0x1BAE PUSH1 0x1C DUP4 PUSH2 0x162B JUMP JUMPDEST SWAP2 POP PUSH2 0x1BB9 DUP3 PUSH2 0x1B78 JUMP JUMPDEST PUSH1 0x20 DUP3 ADD SWAP1 POP SWAP2 SWAP1 POP JUMP JUMPDEST PUSH1 0x0 PUSH1 0x20 DUP3 ADD SWAP1 POP DUP2 DUP2 SUB PUSH1 0x0 DUP4 ADD MSTORE PUSH2 0x1BDD DUP2 PUSH2 0x1BA1 JUMP JUMPDEST SWAP1 POP SWAP2 SWAP1 POP JUMP JUMPDEST PUSH32 0x566F74657220616C726561647920766F74656400000000000000000000000000 PUSH1 0x0 DUP3 ADD MSTORE POP JUMP JUMPDEST PUSH1 0x0 PUSH2 0x1C1A PUSH1 0x13 DUP4 PUSH2 0x162B JUMP JUMPDEST SWAP2 POP PUSH2 0x1C25 DUP3 PUSH2 0x1BE4 JUMP JUMPDEST PUSH1 0x20 DUP3 ADD SWAP1 POP SWAP2 SWAP1 POP JUMP JUMPDEST PUSH1 0x0 PUSH1 0x20 DUP3 ADD SWAP1 POP DUP2 DUP2 SUB PUSH1 0x0 DUP4 ADD MSTORE PUSH2 0x1C49 DUP2 PUSH2 0x1C0D JUMP JUMPDEST SWAP1 POP SWAP2 SWAP1 POP JUMP JUMPDEST PUSH1 0x0 PUSH2 0x1C5B DUP3 PUSH2 0x13AA JUMP JUMPDEST SWAP2 POP PUSH2 0x1C66 DUP4 PUSH2 0x13AA JUMP JUMPDEST SWAP3 POP DUP3 DUP3 ADD SWAP1 POP PUSH1 0xFF DUP2 GT ISZERO PUSH2 0x1C7F JUMPI PUSH2 0x1C7E PUSH2 0x1838 JUMP JUMPDEST JUMPDEST SWAP3 SWAP2 POP POP JUMP JUMPDEST PUSH1 0x0 PUSH2 0x1C90 DUP3 PUSH2 0x13AA JUMP JUMPDEST SWAP2 POP PUSH2 0x1C9B DUP4 PUSH2 0x13AA JUMP JUMPDEST SWAP3 POP DUP3 DUP3 SUB SWAP1 POP PUSH1 0xFF DUP2 GT ISZERO PUSH2 0x1CB4 JUMPI PUSH2 0x1CB3 PUSH2 0x1838 JUMP JUMPDEST JUMPDEST SWAP3 SWAP2 POP POP JUMP JUMPDEST PUSH32 0x4F6E6C7920766F7465722063616E2064656C69676174652068697320766F7465 PUSH1 0x0 DUP3 ADD MSTORE POP JUMP JUMPDEST PUSH1 0x0 PUSH2 0x1CF0 PUSH1 0x20 DUP4 PUSH2 0x162B JUMP JUMPDEST SWAP2 POP PUSH2 0x1CFB DUP3 PUSH2 0x1CBA JUMP JUMPDEST PUSH1 0x20 DUP3 ADD SWAP1 POP SWAP2 SWAP1 POP JUMP JUMPDEST PUSH1 0x0 PUSH1 0x20 DUP3 ADD SWAP1 POP DUP2 DUP2 SUB PUSH1 0x0 DUP4 ADD MSTORE PUSH2 0x1D1F DUP2 PUSH2 0x1CE3 JUMP JUMPDEST SWAP1 POP SWAP2 SWAP1 POP JUMP JUMPDEST PUSH32 0x766F746572206E6F742065786973747300000000000000000000000000000000 PUSH1 0x0 DUP3 ADD MSTORE POP JUMP JUMPDEST PUSH1 0x0 PUSH2 0x1D5C PUSH1 0x10 DUP4 PUSH2 0x162B JUMP JUMPDEST SWAP2 POP PUSH2 0x1D67 DUP3 PUSH2 0x1D26 JUMP JUMPDEST PUSH1 0x20 DUP3 ADD SWAP1 POP SWAP2 SWAP1 POP JUMP JUMPDEST PUSH1 0x0 PUSH1 0x20 DUP3 ADD SWAP1 POP DUP2 DUP2 SUB PUSH1 0x0 DUP4 ADD MSTORE PUSH2 0x1D8B DUP2 PUSH2 0x1D4F JUMP JUMPDEST SWAP1 POP SWAP2 SWAP1 POP JUMP JUMPDEST PUSH32 0x7265636569766572206E6F742065786973747300000000000000000000000000 PUSH1 0x0 DUP3 ADD MSTORE POP JUMP JUMPDEST PUSH1 0x0 PUSH2 0x1DC8 PUSH1 0x13 DUP4 PUSH2 0x162B JUMP JUMPDEST SWAP2 POP PUSH2 0x1DD3 DUP3 PUSH2 0x1D92 JUMP JUMPDEST PUSH1 0x20 DUP3 ADD SWAP1 POP SWAP2 SWAP1 POP JUMP JUMPDEST PUSH1 0x0 PUSH1 0x20 DUP3 ADD SWAP1 POP DUP2 DUP2 SUB PUSH1 0x0 DUP4 ADD MSTORE PUSH2 0x1DF7 DUP2 PUSH2 0x1DBB JUMP JUMPDEST SWAP1 POP SWAP2 SWAP1 POP JUMP JUMPDEST PUSH32 0x4F6E6C792061646D696E20697320616C6C6F77656420746F2073746172742065 PUSH1 0x0 DUP3 ADD MSTORE PUSH32 0x6C656374696F6E00000000000000000000000000000000000000000000000000 PUSH1 0x20 DUP3 ADD MSTORE POP JUMP JUMPDEST PUSH1 0x0 PUSH2 0x1E5A PUSH1 0x27 DUP4 PUSH2 0x162B JUMP JUMPDEST SWAP2 POP PUSH2 0x1E65 DUP3 PUSH2 0x1DFE JUMP JUMPDEST PUSH1 0x40 DUP3 ADD SWAP1 POP SWAP2 SWAP1 POP JUMP JUMPDEST PUSH1 0x0 PUSH1 0x20 DUP3 ADD SWAP1 POP DUP2 DUP2 SUB PUSH1 0x0 DUP4 ADD MSTORE PUSH2 0x1E89 DUP2 PUSH2 0x1E4D JUMP JUMPDEST SWAP1 POP SWAP2 SWAP1 POP JUMP INVALID LOG2 PUSH5 0x6970667358 0x22 SLT KECCAK256 0xC7 0xF8 0xBA 0xDE 0xD5 0x5F PUSH3 0x3A386D DUP3 0xC8 0x21 0xD9 LT CODESIZE SWAP13 CALLDATASIZE PUSH15 0xE0703E685A6003D28729A24DB16473 PUSH16 0x6C634300081200330000000000000000 "
				},
				"gasEstimates": {
					"creation": {
						"codeDepositCost": "1575600",
						"executionCost": "74585",
						"totalCost": "1650185"
					},
					"external": {
						"addCandidate(string,string,address)": "infinite",
						"addVoter(string,address)": "infinite",
						"delegateVote(address,address)": "infinite",
						"endElection(address)": "29222",
						"getCandidate(uint8)": "infinite",
						"getElectionStatus()": "2663",
						"getVoter(address)": "infinite",
						"startElection(address)": "31575",
						"vote(uint8,address)": "infinite"
					}
				},
				"methodIdentifiers": {
					"addCandidate(string,string,address)": "0b32ff77",
					"addVoter(string,address)": "5607395b",
					"delegateVote(address,address)": "e5ed5b1e",
					"endElection(address)": "07e4b70a",
					"getCandidate(uint8)": "cde9370f",
					"getElectionStatus()": "122902a6",
					"getVoter(address)": "d4f50f98",
					"startElection(address)": "e6a5e61d",
					"vote(uint8,address)": "b81c6453"
				}
			},
			"storageLayout": {
				"storage": [
					{
						"astId": 8,
						"contract": "contracts/voting.sol:Voting",
						"label": "admin",
						"offset": 0,
						"slot": "0",
						"type": "t_address"
					},
					{
						"astId": 13,
						"contract": "contracts/voting.sol:Voting",
						"label": "status",
						"offset": 20,
						"slot": "0",
						"type": "t_enum(ElectionStatus)5"
					},
					{
						"astId": 25,
						"contract": "contracts/voting.sol:Voting",
						"label": "candiateId",
						"offset": 21,
						"slot": "0",
						"type": "t_uint8"
					},
					{
						"astId": 30,
						"contract": "contracts/voting.sol:Voting",
						"label": "candidates",
						"offset": 0,
						"slot": "1",
						"type": "t_mapping(t_uint8,t_struct(Candidate)22_storage)"
					},
					{
						"astId": 42,
						"contract": "contracts/voting.sol:Voting",
						"label": "voters",
						"offset": 0,
						"slot": "2",
						"type": "t_mapping(t_address,t_struct(Voter)37_storage)"
					}
				],
				"types": {
					"t_address": {
						"encoding": "inplace",
						"label": "address",
						"numberOfBytes": "20"
					},
					"t_enum(ElectionStatus)5": {
						"encoding": "inplace",
						"label": "enum Voting.ElectionStatus",
						"numberOfBytes": "1"
					},
					"t_mapping(t_address,t_struct(Voter)37_storage)": {
						"encoding": "mapping",
						"key": "t_address",
						"label": "mapping(address => struct Voting.Voter)",
						"numberOfBytes": "32",
						"value": "t_struct(Voter)37_storage"
					},
					"t_mapping(t_uint8,t_struct(Candidate)22_storage)": {
						"encoding": "mapping",
						"key": "t_uint8",
						"label": "mapping(uint8 => struct Voting.Candidate)",
						"numberOfBytes": "32",
						"value": "t_struct(Candidate)22_storage"
					},
					"t_string_storage": {
						"encoding": "bytes",
						"label": "string",
						"numberOfBytes": "32"
					},
					"t_struct(Candidate)22_storage": {
						"encoding": "inplace",
						"label": "struct Voting.Candidate",
						"members": [
							{
								"astId": 15,
								"contract": "contracts/voting.sol:Voting",
								"label": "name",
								"offset": 0,
								"slot": "0",
								"type": "t_string_storage"
							},
							{
								"astId": 17,
								"contract": "contracts/voting.sol:Voting",
								"label": "owner",
								"offset": 0,
								"slot": "1",
								"type": "t_address"
							},
							{
								"astId": 19,
								"contract": "contracts/voting.sol:Voting",
								"label": "proposal",
								"offset": 0,
								"slot": "2",
								"type": "t_string_storage"
							},
							{
								"astId": 21,
								"contract": "contracts/voting.sol:Voting",
								"label": "votes",
								"offset": 0,
								"slot": "3",
								"type": "t_uint8"
							}
						],
						"numberOfBytes": "128"
					},
					"t_struct(Voter)37_storage": {
						"encoding": "inplace",
						"label": "struct Voting.Voter",
						"members": [
							{
								"astId": 32,
								"contract": "contracts/voting.sol:Voting",
								"label": "name",
								"offset": 0,
								"slot": "0",
								"type": "t_string_storage"
							},
							{
								"astId": 34,
								"contract": "contracts/voting.sol:Voting",
								"label": "voterAddress",
								"offset": 0,
								"slot": "1",
								"type": "t_address"
							},
							{
								"astId": 36,
								"contract": "contracts/voting.sol:Voting",
								"label": "no_of_votes",
								"offset": 20,
								"slot": "1",
								"type": "t_uint8"
							}
						],
						"numberOfBytes": "64"
					},
					"t_uint8": {
						"encoding": "inplace",
						"label": "uint8",
						"numberOfBytes": "1"
					}
				}
			},
			"userdoc": {
				"kind": "user",
				"methods": {},
				"version": 1
			}
		}
	}
}