{
	"contracts/voting.sol": {
		"Voting": {
			"abi": [
				{
					"inputs": [
						{
							"internalType": "string",
							"name": "_name",
							"type": "string"
						},
						{
							"internalType": "string",
							"name": "_proposal",
							"type": "string"
						},
						{
							"internalType": "address",
							"name": "owner",
							"type": "address"
						}
					],
					"name": "addCandidate",
					"outputs": [],
					"stateMutability": "nonpayable",
					"type": "function"
				},
				{
					"inputs": [
						{
							"internalType": "string",
							"name": "name",
							"type": "string"
						},
						{
							"internalType": "address",
							"name": "_voterAddrress",
							"type": "address"
						}
					],
					"name": "addVoter",
					"outputs": [],
					"stateMutability": "nonpayable",
					"type": "function"
				},
				{
					"inputs": [
						{
							"internalType": "address",
							"name": "owner",
							"type": "address"
						}
					],
					"name": "endElection",
					"outputs": [],
					"stateMutability": "nonpayable",
					"type": "function"
				},
				{
					"inputs": [
						{
							"internalType": "uint8",
							"name": "_id",
							"type": "uint8"
						}
					],
					"name": "getCandidate",
					"outputs": [
						{
							"components": [
								{
									"internalType": "string",
									"name": "name",
									"type": "string"
								},
								{
									"internalType": "address",
									"name": "owner",
									"type": "address"
								},
								{
									"internalType": "string",
									"name": "proposal",
									"type": "string"
								}
							],
							"internalType": "struct Voting.Candidate",
							"name": "",
							"type": "tuple"
						}
					],
					"stateMutability": "view",
					"type": "function"
				},
				{
					"inputs": [],
					"name": "getElectionStatus",
					"outputs": [
						{
							"internalType": "enum Voting.ElectionStatus",
							"name": "",
							"type": "uint8"
						}
					],
					"stateMutability": "view",
					"type": "function"
				},
				{
					"inputs": [
						{
							"internalType": "address",
							"name": "_voterAddress",
							"type": "address"
						}
					],
					"name": "getVoter",
					"outputs": [
						{
							"components": [
								{
									"internalType": "string",
									"name": "name",
									"type": "string"
								},
								{
									"internalType": "address",
									"name": "voterAddress",
									"type": "address"
								}
							],
							"internalType": "struct Voting.Voter",
							"name": "",
							"type": "tuple"
						}
					],
					"stateMutability": "view",
					"type": "function"
				},
				{
					"inputs": [
						{
							"internalType": "address",
							"name": "owner",
							"type": "address"
						}
					],
					"name": "startElection",
					"outputs": [],
					"stateMutability": "nonpayable",
					"type": "function"
				}
			],
			"devdoc": {
				"kind": "dev",
				"methods": {},
				"version": 1
			},
			"evm": {
				"assembly": "    /* \"contracts/voting.sol\":70:2143  contract Voting {... */\n  mstore(0x40, 0x80)\n    /* \"contracts/voting.sol\":192:234  0x5B38Da6a701c568545dCfcB03FcB875f56beddC4 */\n  0x5b38da6a701c568545dcfcb03fcb875f56beddc4\n    /* \"contracts/voting.sol\":176:234  address admin = 0x5B38Da6a701c568545dCfcB03FcB875f56beddC4 */\n  0x00\n  dup1\n  0x0100\n  exp\n  dup2\n  sload\n  dup2\n  0xffffffffffffffffffffffffffffffffffffffff\n  mul\n  not\n  and\n  swap1\n  dup4\n  0xffffffffffffffffffffffffffffffffffffffff\n  and\n  mul\n  or\n  swap1\n  sstore\n  pop\n    /* \"contracts/voting.sol\":264:290  ElectionStatus.NOT_STARTED */\n  0x00\n    /* \"contracts/voting.sol\":240:290  ElectionStatus status = ElectionStatus.NOT_STARTED */\n  dup1\n  exp(0x0100, 0x14)\n  dup2\n  sload\n  dup2\n  0xff\n  mul\n  not\n  and\n  swap1\n  dup4\n  0x02\n  dup2\n  gt\n  iszero\n  tag_1\n  jumpi\n  tag_2\n  tag_3\n  jump\t// in\ntag_2:\ntag_1:\n  mul\n  or\n  swap1\n  sstore\n  pop\n    /* \"contracts/voting.sol\":412:413  0 */\n  0x00\n    /* \"contracts/voting.sol\":395:413  uint8 candiateId=0 */\n  dup1\n  exp(0x0100, 0x15)\n  dup2\n  sload\n  dup2\n  0xff\n  mul\n  not\n  and\n  swap1\n  dup4\n  0xff\n  and\n  mul\n  or\n  swap1\n  sstore\n  pop\n    /* \"contracts/voting.sol\":70:2143  contract Voting {... */\n  callvalue\n  dup1\n  iszero\n  tag_4\n  jumpi\n  0x00\n  dup1\n  revert\ntag_4:\n  pop\n  jump(tag_5)\n    /* \"#utility.yul\":7:187   */\ntag_3:\n    /* \"#utility.yul\":55:132   */\n  0x4e487b7100000000000000000000000000000000000000000000000000000000\n    /* \"#utility.yul\":52:53   */\n  0x00\n    /* \"#utility.yul\":45:133   */\n  mstore\n    /* \"#utility.yul\":152:156   */\n  0x21\n    /* \"#utility.yul\":149:150   */\n  0x04\n    /* \"#utility.yul\":142:157   */\n  mstore\n    /* \"#utility.yul\":176:180   */\n  0x24\n    /* \"#utility.yul\":173:174   */\n  0x00\n    /* \"#utility.yul\":166:181   */\n  revert\n    /* \"contracts/voting.sol\":70:2143  contract Voting {... */\ntag_5:\n  dataSize(sub_0)\n  dup1\n  dataOffset(sub_0)\n  0x00\n  codecopy\n  0x00\n  return\nstop\n\nsub_0: assembly {\n        /* \"contracts/voting.sol\":70:2143  contract Voting {... */\n      mstore(0x40, 0x80)\n      callvalue\n      dup1\n      iszero\n      tag_1\n      jumpi\n      0x00\n      dup1\n      revert\n    tag_1:\n      pop\n      jumpi(tag_2, lt(calldatasize, 0x04))\n      shr(0xe0, calldataload(0x00))\n      dup1\n      0x5607395b\n      gt\n      tag_10\n      jumpi\n      dup1\n      0x5607395b\n      eq\n      tag_6\n      jumpi\n      dup1\n      0xcde9370f\n      eq\n      tag_7\n      jumpi\n      dup1\n      0xd4f50f98\n      eq\n      tag_8\n      jumpi\n      dup1\n      0xe6a5e61d\n      eq\n      tag_9\n      jumpi\n      jump(tag_2)\n    tag_10:\n      dup1\n      0x07e4b70a\n      eq\n      tag_3\n      jumpi\n      dup1\n      0x0b32ff77\n      eq\n      tag_4\n      jumpi\n      dup1\n      0x122902a6\n      eq\n      tag_5\n      jumpi\n    tag_2:\n      0x00\n      dup1\n      revert\n        /* \"contracts/voting.sol\":973:1213  function endElection(address owner) public {... */\n    tag_3:\n      tag_11\n      0x04\n      dup1\n      calldatasize\n      sub\n      dup2\n      add\n      swap1\n      tag_12\n      swap2\n      swap1\n      tag_13\n      jump\t// in\n    tag_12:\n      tag_14\n      jump\t// in\n    tag_11:\n      stop\n        /* \"contracts/voting.sol\":1219:1708  function addCandidate(... */\n    tag_4:\n      tag_15\n      0x04\n      dup1\n      calldatasize\n      sub\n      dup2\n      add\n      swap1\n      tag_16\n      swap2\n      swap1\n      tag_17\n      jump\t// in\n    tag_16:\n      tag_18\n      jump\t// in\n    tag_15:\n      stop\n        /* \"contracts/voting.sol\":871:967  function getElectionStatus() public view returns (ElectionStatus) {... */\n    tag_5:\n      tag_19\n      tag_20\n      jump\t// in\n    tag_19:\n      mload(0x40)\n      tag_21\n      swap2\n      swap1\n      tag_22\n      jump\t// in\n    tag_21:\n      mload(0x40)\n      dup1\n      swap2\n      sub\n      swap1\n      return\n        /* \"contracts/voting.sol\":1955:2136  function addVoter(string memory  name,address _voterAddrress) public{... */\n    tag_6:\n      tag_23\n      0x04\n      dup1\n      calldatasize\n      sub\n      dup2\n      add\n      swap1\n      tag_24\n      swap2\n      swap1\n      tag_25\n      jump\t// in\n    tag_24:\n      tag_26\n      jump\t// in\n    tag_23:\n      stop\n        /* \"contracts/voting.sol\":1714:1823  function getCandidate(uint8 _id) public view returns(Candidate memory){... */\n    tag_7:\n      tag_27\n      0x04\n      dup1\n      calldatasize\n      sub\n      dup2\n      add\n      swap1\n      tag_28\n      swap2\n      swap1\n      tag_29\n      jump\t// in\n    tag_28:\n      tag_30\n      jump\t// in\n    tag_27:\n      mload(0x40)\n      tag_31\n      swap2\n      swap1\n      tag_32\n      jump\t// in\n    tag_31:\n      mload(0x40)\n      dup1\n      swap2\n      sub\n      swap1\n      return\n        /* \"contracts/voting.sol\":1829:1949  function getVoter(address _voterAddress) public view returns (Voter memory){... */\n    tag_8:\n      tag_33\n      0x04\n      dup1\n      calldatasize\n      sub\n      dup2\n      add\n      swap1\n      tag_34\n      swap2\n      swap1\n      tag_13\n      jump\t// in\n    tag_34:\n      tag_35\n      jump\t// in\n    tag_33:\n      mload(0x40)\n      tag_36\n      swap2\n      swap1\n      tag_37\n      jump\t// in\n    tag_36:\n      mload(0x40)\n      dup1\n      swap2\n      sub\n      swap1\n      return\n        /* \"contracts/voting.sol\":578:865  function startElection(address owner) public {... */\n    tag_9:\n      tag_38\n      0x04\n      dup1\n      calldatasize\n      sub\n      dup2\n      add\n      swap1\n      tag_39\n      swap2\n      swap1\n      tag_13\n      jump\t// in\n    tag_39:\n      tag_40\n      jump\t// in\n    tag_38:\n      stop\n        /* \"contracts/voting.sol\":973:1213  function endElection(address owner) public {... */\n    tag_14:\n        /* \"contracts/voting.sol\":1043:1048  admin */\n      0x00\n      dup1\n      sload\n      swap1\n      0x0100\n      exp\n      swap1\n      div\n      0xffffffffffffffffffffffffffffffffffffffff\n      and\n        /* \"contracts/voting.sol\":1034:1048  owner == admin */\n      0xffffffffffffffffffffffffffffffffffffffff\n      and\n        /* \"contracts/voting.sol\":1034:1039  owner */\n      dup2\n        /* \"contracts/voting.sol\":1034:1048  owner == admin */\n      0xffffffffffffffffffffffffffffffffffffffff\n      and\n      eq\n        /* \"contracts/voting.sol\":1026:1089  require(owner == admin,\"Only admin is allowed to end election\") */\n      tag_42\n      jumpi\n      mload(0x40)\n      0x08c379a000000000000000000000000000000000000000000000000000000000\n      dup2\n      mstore\n      0x04\n      add\n      tag_43\n      swap1\n      tag_44\n      jump\t// in\n    tag_43:\n      mload(0x40)\n      dup1\n      swap2\n      sub\n      swap1\n      revert\n    tag_42:\n        /* \"contracts/voting.sol\":1118:1140  ElectionStatus.STARTED */\n      0x01\n        /* \"contracts/voting.sol\":1108:1140  status == ElectionStatus.STARTED */\n      0x02\n      dup2\n      gt\n      iszero\n      tag_45\n      jumpi\n      tag_46\n      tag_47\n      jump\t// in\n    tag_46:\n    tag_45:\n        /* \"contracts/voting.sol\":1108:1114  status */\n      0x00\n      0x14\n      swap1\n      sload\n      swap1\n      0x0100\n      exp\n      swap1\n      div\n      0xff\n      and\n        /* \"contracts/voting.sol\":1108:1140  status == ElectionStatus.STARTED */\n      0x02\n      dup2\n      gt\n      iszero\n      tag_48\n      jumpi\n      tag_49\n      tag_47\n      jump\t// in\n    tag_49:\n    tag_48:\n      eq\n        /* \"contracts/voting.sol\":1099:1167  require (status == ElectionStatus.STARTED,\"election is not started\") */\n      tag_50\n      jumpi\n      mload(0x40)\n      0x08c379a000000000000000000000000000000000000000000000000000000000\n      dup2\n      mstore\n      0x04\n      add\n      tag_51\n      swap1\n      tag_52\n      jump\t// in\n    tag_51:\n      mload(0x40)\n      dup1\n      swap2\n      sub\n      swap1\n      revert\n    tag_50:\n        /* \"contracts/voting.sol\":1186:1206  ElectionStatus.ENDED */\n      0x02\n        /* \"contracts/voting.sol\":1177:1183  status */\n      0x00\n      0x14\n        /* \"contracts/voting.sol\":1177:1206  status = ElectionStatus.ENDED */\n      0x0100\n      exp\n      dup2\n      sload\n      dup2\n      0xff\n      mul\n      not\n      and\n      swap1\n      dup4\n      0x02\n      dup2\n      gt\n      iszero\n      tag_53\n      jumpi\n      tag_54\n      tag_47\n      jump\t// in\n    tag_54:\n    tag_53:\n      mul\n      or\n      swap1\n      sstore\n      pop\n        /* \"contracts/voting.sol\":973:1213  function endElection(address owner) public {... */\n      pop\n      jump\t// out\n        /* \"contracts/voting.sol\":1219:1708  function addCandidate(... */\n    tag_18:\n        /* \"contracts/voting.sol\":1371:1376  admin */\n      0x00\n      dup1\n      sload\n      swap1\n      0x0100\n      exp\n      swap1\n      div\n      0xffffffffffffffffffffffffffffffffffffffff\n      and\n        /* \"contracts/voting.sol\":1357:1376  msg.sender == admin */\n      0xffffffffffffffffffffffffffffffffffffffff\n      and\n        /* \"contracts/voting.sol\":1357:1367  msg.sender */\n      caller\n        /* \"contracts/voting.sol\":1357:1376  msg.sender == admin */\n      0xffffffffffffffffffffffffffffffffffffffff\n      and\n      eq\n        /* \"contracts/voting.sol\":1349:1418  require(msg.sender == admin,\"Only admin is allowed to add candidate\") */\n      tag_56\n      jumpi\n      mload(0x40)\n      0x08c379a000000000000000000000000000000000000000000000000000000000\n      dup2\n      mstore\n      0x04\n      add\n      tag_57\n      swap1\n      tag_58\n      jump\t// in\n    tag_57:\n      mload(0x40)\n      dup1\n      swap2\n      sub\n      swap1\n      revert\n    tag_56:\n        /* \"contracts/voting.sol\":1447:1473  ElectionStatus.NOT_STARTED */\n      0x00\n        /* \"contracts/voting.sol\":1437:1473  status == ElectionStatus.NOT_STARTED */\n      0x02\n      dup2\n      gt\n      iszero\n      tag_59\n      jumpi\n      tag_60\n      tag_47\n      jump\t// in\n    tag_60:\n    tag_59:\n        /* \"contracts/voting.sol\":1437:1443  status */\n      0x00\n      0x14\n      swap1\n      sload\n      swap1\n      0x0100\n      exp\n      swap1\n      div\n      0xff\n      and\n        /* \"contracts/voting.sol\":1437:1473  status == ElectionStatus.NOT_STARTED */\n      0x02\n      dup2\n      gt\n      iszero\n      tag_61\n      jumpi\n      tag_62\n      tag_47\n      jump\t// in\n    tag_62:\n    tag_61:\n      eq\n        /* \"contracts/voting.sol\":1437:1506  status == ElectionStatus.NOT_STARTED ||status == ElectionStatus.ENDED */\n      dup1\n      tag_63\n      jumpi\n      pop\n        /* \"contracts/voting.sol\":1486:1506  ElectionStatus.ENDED */\n      0x02\n        /* \"contracts/voting.sol\":1476:1506  status == ElectionStatus.ENDED */\n      dup1\n      dup2\n      gt\n      iszero\n      tag_64\n      jumpi\n      tag_65\n      tag_47\n      jump\t// in\n    tag_65:\n    tag_64:\n        /* \"contracts/voting.sol\":1476:1482  status */\n      0x00\n      0x14\n      swap1\n      sload\n      swap1\n      0x0100\n      exp\n      swap1\n      div\n      0xff\n      and\n        /* \"contracts/voting.sol\":1476:1506  status == ElectionStatus.ENDED */\n      0x02\n      dup2\n      gt\n      iszero\n      tag_66\n      jumpi\n      tag_67\n      tag_47\n      jump\t// in\n    tag_67:\n    tag_66:\n      eq\n        /* \"contracts/voting.sol\":1437:1506  status == ElectionStatus.NOT_STARTED ||status == ElectionStatus.ENDED */\n    tag_63:\n        /* \"contracts/voting.sol\":1428:1535  require((status == ElectionStatus.NOT_STARTED ||status == ElectionStatus.ENDED),\"Election already started\") */\n      tag_68\n      jumpi\n      mload(0x40)\n      0x08c379a000000000000000000000000000000000000000000000000000000000\n      dup2\n      mstore\n      0x04\n      add\n      tag_69\n      swap1\n      tag_70\n      jump\t// in\n    tag_69:\n      mload(0x40)\n      dup1\n      swap2\n      sub\n      swap1\n      revert\n    tag_68:\n        /* \"contracts/voting.sol\":1545:1555  candiateId */\n      0x00\n      0x15\n        /* \"contracts/voting.sol\":1545:1557  candiateId++ */\n      dup2\n      dup2\n      swap1\n      sload\n      swap1\n      0x0100\n      exp\n      swap1\n      div\n      0xff\n      and\n      dup1\n      swap3\n      swap2\n      swap1\n      tag_71\n      swap1\n      tag_72\n      jump\t// in\n    tag_71:\n      swap2\n      swap1\n      0x0100\n      exp\n      dup2\n      sload\n      dup2\n      0xff\n      mul\n      not\n      and\n      swap1\n      dup4\n      0xff\n      and\n      mul\n      or\n      swap1\n      sstore\n      pop\n      pop\n        /* \"contracts/voting.sol\":1597:1602  _name */\n      dup3\n        /* \"contracts/voting.sol\":1567:1577  candidates */\n      0x01\n        /* \"contracts/voting.sol\":1567:1589  candidates[candiateId] */\n      0x00\n        /* \"contracts/voting.sol\":1578:1588  candiateId */\n      dup1\n      0x15\n      swap1\n      sload\n      swap1\n      0x0100\n      exp\n      swap1\n      div\n      0xff\n      and\n        /* \"contracts/voting.sol\":1567:1589  candidates[candiateId] */\n      0xff\n      and\n      0xff\n      and\n      dup2\n      mstore\n      0x20\n      add\n      swap1\n      dup2\n      mstore\n      0x20\n      add\n      0x00\n      keccak256\n        /* \"contracts/voting.sol\":1567:1594  candidates[candiateId].name */\n      0x00\n      add\n        /* \"contracts/voting.sol\":1567:1602  candidates[candiateId].name = _name */\n      swap1\n      dup2\n      tag_73\n      swap2\n      swap1\n      tag_74\n      jump\t// in\n    tag_73:\n      pop\n        /* \"contracts/voting.sol\":1646:1655  _proposal */\n      dup2\n        /* \"contracts/voting.sol\":1612:1622  candidates */\n      0x01\n        /* \"contracts/voting.sol\":1612:1634  candidates[candiateId] */\n      0x00\n        /* \"contracts/voting.sol\":1623:1633  candiateId */\n      dup1\n      0x15\n      swap1\n      sload\n      swap1\n      0x0100\n      exp\n      swap1\n      div\n      0xff\n      and\n        /* \"contracts/voting.sol\":1612:1634  candidates[candiateId] */\n      0xff\n      and\n      0xff\n      and\n      dup2\n      mstore\n      0x20\n      add\n      swap1\n      dup2\n      mstore\n      0x20\n      add\n      0x00\n      keccak256\n        /* \"contracts/voting.sol\":1612:1643  candidates[candiateId].proposal */\n      0x02\n      add\n        /* \"contracts/voting.sol\":1612:1655  candidates[candiateId].proposal = _proposal */\n      swap1\n      dup2\n      tag_75\n      swap2\n      swap1\n      tag_74\n      jump\t// in\n    tag_75:\n      pop\n        /* \"contracts/voting.sol\":1696:1701  owner */\n      dup1\n        /* \"contracts/voting.sol\":1665:1675  candidates */\n      0x01\n        /* \"contracts/voting.sol\":1665:1687  candidates[candiateId] */\n      0x00\n        /* \"contracts/voting.sol\":1676:1686  candiateId */\n      dup1\n      0x15\n      swap1\n      sload\n      swap1\n      0x0100\n      exp\n      swap1\n      div\n      0xff\n      and\n        /* \"contracts/voting.sol\":1665:1687  candidates[candiateId] */\n      0xff\n      and\n      0xff\n      and\n      dup2\n      mstore\n      0x20\n      add\n      swap1\n      dup2\n      mstore\n      0x20\n      add\n      0x00\n      keccak256\n        /* \"contracts/voting.sol\":1665:1693  candidates[candiateId].owner */\n      0x01\n      add\n      0x00\n        /* \"contracts/voting.sol\":1665:1701  candidates[candiateId].owner = owner */\n      0x0100\n      exp\n      dup2\n      sload\n      dup2\n      0xffffffffffffffffffffffffffffffffffffffff\n      mul\n      not\n      and\n      swap1\n      dup4\n      0xffffffffffffffffffffffffffffffffffffffff\n      and\n      mul\n      or\n      swap1\n      sstore\n      pop\n        /* \"contracts/voting.sol\":1219:1708  function addCandidate(... */\n      pop\n      pop\n      pop\n      jump\t// out\n        /* \"contracts/voting.sol\":871:967  function getElectionStatus() public view returns (ElectionStatus) {... */\n    tag_20:\n        /* \"contracts/voting.sol\":921:935  ElectionStatus */\n      0x00\n        /* \"contracts/voting.sol\":954:960  status */\n      dup1\n      0x14\n      swap1\n      sload\n      swap1\n      0x0100\n      exp\n      swap1\n      div\n      0xff\n      and\n        /* \"contracts/voting.sol\":947:960  return status */\n      swap1\n      pop\n        /* \"contracts/voting.sol\":871:967  function getElectionStatus() public view returns (ElectionStatus) {... */\n      swap1\n      jump\t// out\n        /* \"contracts/voting.sol\":1955:2136  function addVoter(string memory  name,address _voterAddrress) public{... */\n    tag_26:\n        /* \"contracts/voting.sol\":2063:2067  name */\n      dup2\n        /* \"contracts/voting.sol\":2033:2039  voters */\n      0x02\n        /* \"contracts/voting.sol\":2033:2055  voters[_voterAddrress] */\n      0x00\n        /* \"contracts/voting.sol\":2040:2054  _voterAddrress */\n      dup4\n        /* \"contracts/voting.sol\":2033:2055  voters[_voterAddrress] */\n      0xffffffffffffffffffffffffffffffffffffffff\n      and\n      0xffffffffffffffffffffffffffffffffffffffff\n      and\n      dup2\n      mstore\n      0x20\n      add\n      swap1\n      dup2\n      mstore\n      0x20\n      add\n      0x00\n      keccak256\n        /* \"contracts/voting.sol\":2033:2060  voters[_voterAddrress].name */\n      0x00\n      add\n        /* \"contracts/voting.sol\":2033:2067  voters[_voterAddrress].name = name */\n      swap1\n      dup2\n      tag_78\n      swap2\n      swap1\n      tag_74\n      jump\t// in\n    tag_78:\n      pop\n        /* \"contracts/voting.sol\":2115:2129  _voterAddrress */\n      dup1\n        /* \"contracts/voting.sol\":2077:2083  voters */\n      0x02\n        /* \"contracts/voting.sol\":2077:2099  voters[_voterAddrress] */\n      0x00\n        /* \"contracts/voting.sol\":2084:2098  _voterAddrress */\n      dup4\n        /* \"contracts/voting.sol\":2077:2099  voters[_voterAddrress] */\n      0xffffffffffffffffffffffffffffffffffffffff\n      and\n      0xffffffffffffffffffffffffffffffffffffffff\n      and\n      dup2\n      mstore\n      0x20\n      add\n      swap1\n      dup2\n      mstore\n      0x20\n      add\n      0x00\n      keccak256\n        /* \"contracts/voting.sol\":2077:2112  voters[_voterAddrress].voterAddress */\n      0x01\n      add\n      0x00\n        /* \"contracts/voting.sol\":2077:2129  voters[_voterAddrress].voterAddress = _voterAddrress */\n      0x0100\n      exp\n      dup2\n      sload\n      dup2\n      0xffffffffffffffffffffffffffffffffffffffff\n      mul\n      not\n      and\n      swap1\n      dup4\n      0xffffffffffffffffffffffffffffffffffffffff\n      and\n      mul\n      or\n      swap1\n      sstore\n      pop\n        /* \"contracts/voting.sol\":1955:2136  function addVoter(string memory  name,address _voterAddrress) public{... */\n      pop\n      pop\n      jump\t// out\n        /* \"contracts/voting.sol\":1714:1823  function getCandidate(uint8 _id) public view returns(Candidate memory){... */\n    tag_30:\n        /* \"contracts/voting.sol\":1767:1783  Candidate memory */\n      tag_79\n      tag_80\n      jump\t// in\n    tag_79:\n        /* \"contracts/voting.sol\":1801:1811  candidates */\n      0x01\n        /* \"contracts/voting.sol\":1801:1816  candidates[_id] */\n      0x00\n        /* \"contracts/voting.sol\":1812:1815  _id */\n      dup4\n        /* \"contracts/voting.sol\":1801:1816  candidates[_id] */\n      0xff\n      and\n      0xff\n      and\n      dup2\n      mstore\n      0x20\n      add\n      swap1\n      dup2\n      mstore\n      0x20\n      add\n      0x00\n      keccak256\n        /* \"contracts/voting.sol\":1794:1816  return candidates[_id] */\n      mload(0x40)\n      dup1\n      0x60\n      add\n      0x40\n      mstore\n      swap1\n      dup2\n      0x00\n      dup3\n      add\n      dup1\n      sload\n      tag_82\n      swap1\n      tag_83\n      jump\t// in\n    tag_82:\n      dup1\n      0x1f\n      add\n      0x20\n      dup1\n      swap2\n      div\n      mul\n      0x20\n      add\n      mload(0x40)\n      swap1\n      dup2\n      add\n      0x40\n      mstore\n      dup1\n      swap3\n      swap2\n      swap1\n      dup2\n      dup2\n      mstore\n      0x20\n      add\n      dup3\n      dup1\n      sload\n      tag_84\n      swap1\n      tag_83\n      jump\t// in\n    tag_84:\n      dup1\n      iszero\n      tag_85\n      jumpi\n      dup1\n      0x1f\n      lt\n      tag_86\n      jumpi\n      0x0100\n      dup1\n      dup4\n      sload\n      div\n      mul\n      dup4\n      mstore\n      swap2\n      0x20\n      add\n      swap2\n      jump(tag_85)\n    tag_86:\n      dup3\n      add\n      swap2\n      swap1\n      0x00\n      mstore\n      keccak256(0x00, 0x20)\n      swap1\n    tag_87:\n      dup2\n      sload\n      dup2\n      mstore\n      swap1\n      0x01\n      add\n      swap1\n      0x20\n      add\n      dup1\n      dup4\n      gt\n      tag_87\n      jumpi\n      dup3\n      swap1\n      sub\n      0x1f\n      and\n      dup3\n      add\n      swap2\n    tag_85:\n      pop\n      pop\n      pop\n      pop\n      pop\n      dup2\n      mstore\n      0x20\n      add\n      0x01\n      dup3\n      add\n      0x00\n      swap1\n      sload\n      swap1\n      0x0100\n      exp\n      swap1\n      div\n      0xffffffffffffffffffffffffffffffffffffffff\n      and\n      0xffffffffffffffffffffffffffffffffffffffff\n      and\n      0xffffffffffffffffffffffffffffffffffffffff\n      and\n      dup2\n      mstore\n      0x20\n      add\n      0x02\n      dup3\n      add\n      dup1\n      sload\n      tag_88\n      swap1\n      tag_83\n      jump\t// in\n    tag_88:\n      dup1\n      0x1f\n      add\n      0x20\n      dup1\n      swap2\n      div\n      mul\n      0x20\n      add\n      mload(0x40)\n      swap1\n      dup2\n      add\n      0x40\n      mstore\n      dup1\n      swap3\n      swap2\n      swap1\n      dup2\n      dup2\n      mstore\n      0x20\n      add\n      dup3\n      dup1\n      sload\n      tag_89\n      swap1\n      tag_83\n      jump\t// in\n    tag_89:\n      dup1\n      iszero\n      tag_90\n      jumpi\n      dup1\n      0x1f\n      lt\n      tag_91\n      jumpi\n      0x0100\n      dup1\n      dup4\n      sload\n      div\n      mul\n      dup4\n      mstore\n      swap2\n      0x20\n      add\n      swap2\n      jump(tag_90)\n    tag_91:\n      dup3\n      add\n      swap2\n      swap1\n      0x00\n      mstore\n      keccak256(0x00, 0x20)\n      swap1\n    tag_92:\n      dup2\n      sload\n      dup2\n      mstore\n      swap1\n      0x01\n      add\n      swap1\n      0x20\n      add\n      dup1\n      dup4\n      gt\n      tag_92\n      jumpi\n      dup3\n      swap1\n      sub\n      0x1f\n      and\n      dup3\n      add\n      swap2\n    tag_90:\n      pop\n      pop\n      pop\n      pop\n      pop\n      dup2\n      mstore\n      pop\n      pop\n      swap1\n      pop\n        /* \"contracts/voting.sol\":1714:1823  function getCandidate(uint8 _id) public view returns(Candidate memory){... */\n      swap2\n      swap1\n      pop\n      jump\t// out\n        /* \"contracts/voting.sol\":1829:1949  function getVoter(address _voterAddress) public view returns (Voter memory){... */\n    tag_35:\n        /* \"contracts/voting.sol\":1891:1903  Voter memory */\n      tag_93\n      tag_94\n      jump\t// in\n    tag_93:\n        /* \"contracts/voting.sol\":1921:1927  voters */\n      0x02\n        /* \"contracts/voting.sol\":1921:1942  voters[_voterAddress] */\n      0x00\n        /* \"contracts/voting.sol\":1928:1941  _voterAddress */\n      dup4\n        /* \"contracts/voting.sol\":1921:1942  voters[_voterAddress] */\n      0xffffffffffffffffffffffffffffffffffffffff\n      and\n      0xffffffffffffffffffffffffffffffffffffffff\n      and\n      dup2\n      mstore\n      0x20\n      add\n      swap1\n      dup2\n      mstore\n      0x20\n      add\n      0x00\n      keccak256\n        /* \"contracts/voting.sol\":1914:1942  return voters[_voterAddress] */\n      mload(0x40)\n      dup1\n      0x40\n      add\n      0x40\n      mstore\n      swap1\n      dup2\n      0x00\n      dup3\n      add\n      dup1\n      sload\n      tag_96\n      swap1\n      tag_83\n      jump\t// in\n    tag_96:\n      dup1\n      0x1f\n      add\n      0x20\n      dup1\n      swap2\n      div\n      mul\n      0x20\n      add\n      mload(0x40)\n      swap1\n      dup2\n      add\n      0x40\n      mstore\n      dup1\n      swap3\n      swap2\n      swap1\n      dup2\n      dup2\n      mstore\n      0x20\n      add\n      dup3\n      dup1\n      sload\n      tag_97\n      swap1\n      tag_83\n      jump\t// in\n    tag_97:\n      dup1\n      iszero\n      tag_98\n      jumpi\n      dup1\n      0x1f\n      lt\n      tag_99\n      jumpi\n      0x0100\n      dup1\n      dup4\n      sload\n      div\n      mul\n      dup4\n      mstore\n      swap2\n      0x20\n      add\n      swap2\n      jump(tag_98)\n    tag_99:\n      dup3\n      add\n      swap2\n      swap1\n      0x00\n      mstore\n      keccak256(0x00, 0x20)\n      swap1\n    tag_100:\n      dup2\n      sload\n      dup2\n      mstore\n      swap1\n      0x01\n      add\n      swap1\n      0x20\n      add\n      dup1\n      dup4\n      gt\n      tag_100\n      jumpi\n      dup3\n      swap1\n      sub\n      0x1f\n      and\n      dup3\n      add\n      swap2\n    tag_98:\n      pop\n      pop\n      pop\n      pop\n      pop\n      dup2\n      mstore\n      0x20\n      add\n      0x01\n      dup3\n      add\n      0x00\n      swap1\n      sload\n      swap1\n      0x0100\n      exp\n      swap1\n      div\n      0xffffffffffffffffffffffffffffffffffffffff\n      and\n      0xffffffffffffffffffffffffffffffffffffffff\n      and\n      0xffffffffffffffffffffffffffffffffffffffff\n      and\n      dup2\n      mstore\n      pop\n      pop\n      swap1\n      pop\n        /* \"contracts/voting.sol\":1829:1949  function getVoter(address _voterAddress) public view returns (Voter memory){... */\n      swap2\n      swap1\n      pop\n      jump\t// out\n        /* \"contracts/voting.sol\":578:865  function startElection(address owner) public {... */\n    tag_40:\n        /* \"contracts/voting.sol\":650:655  admin */\n      0x00\n      dup1\n      sload\n      swap1\n      0x0100\n      exp\n      swap1\n      div\n      0xffffffffffffffffffffffffffffffffffffffff\n      and\n        /* \"contracts/voting.sol\":641:655  owner == admin */\n      0xffffffffffffffffffffffffffffffffffffffff\n      and\n        /* \"contracts/voting.sol\":641:646  owner */\n      dup2\n        /* \"contracts/voting.sol\":641:655  owner == admin */\n      0xffffffffffffffffffffffffffffffffffffffff\n      and\n      eq\n        /* \"contracts/voting.sol\":633:698  require(owner == admin,\"Only admin is allowed to start election\") */\n      tag_102\n      jumpi\n      mload(0x40)\n      0x08c379a000000000000000000000000000000000000000000000000000000000\n      dup2\n      mstore\n      0x04\n      add\n      tag_103\n      swap1\n      tag_104\n      jump\t// in\n    tag_103:\n      mload(0x40)\n      dup1\n      swap2\n      sub\n      swap1\n      revert\n    tag_102:\n        /* \"contracts/voting.sol\":728:754  ElectionStatus.NOT_STARTED */\n      0x00\n        /* \"contracts/voting.sol\":718:754  status == ElectionStatus.NOT_STARTED */\n      0x02\n      dup2\n      gt\n      iszero\n      tag_105\n      jumpi\n      tag_106\n      tag_47\n      jump\t// in\n    tag_106:\n    tag_105:\n        /* \"contracts/voting.sol\":718:724  status */\n      0x00\n      0x14\n      swap1\n      sload\n      swap1\n      0x0100\n      exp\n      swap1\n      div\n      0xff\n      and\n        /* \"contracts/voting.sol\":718:754  status == ElectionStatus.NOT_STARTED */\n      0x02\n      dup2\n      gt\n      iszero\n      tag_107\n      jumpi\n      tag_108\n      tag_47\n      jump\t// in\n    tag_108:\n    tag_107:\n      eq\n        /* \"contracts/voting.sol\":718:788  status == ElectionStatus.NOT_STARTED || status == ElectionStatus.ENDED */\n      dup1\n      tag_109\n      jumpi\n      pop\n        /* \"contracts/voting.sol\":768:788  ElectionStatus.ENDED */\n      0x02\n        /* \"contracts/voting.sol\":758:788  status == ElectionStatus.ENDED */\n      dup1\n      dup2\n      gt\n      iszero\n      tag_110\n      jumpi\n      tag_111\n      tag_47\n      jump\t// in\n    tag_111:\n    tag_110:\n        /* \"contracts/voting.sol\":758:764  status */\n      0x00\n      0x14\n      swap1\n      sload\n      swap1\n      0x0100\n      exp\n      swap1\n      div\n      0xff\n      and\n        /* \"contracts/voting.sol\":758:788  status == ElectionStatus.ENDED */\n      0x02\n      dup2\n      gt\n      iszero\n      tag_112\n      jumpi\n      tag_113\n      tag_47\n      jump\t// in\n    tag_113:\n    tag_112:\n      eq\n        /* \"contracts/voting.sol\":718:788  status == ElectionStatus.NOT_STARTED || status == ElectionStatus.ENDED */\n    tag_109:\n        /* \"contracts/voting.sol\":708:817  require ((status == ElectionStatus.NOT_STARTED || status == ElectionStatus.ENDED),\"Election already started\") */\n      tag_114\n      jumpi\n      mload(0x40)\n      0x08c379a000000000000000000000000000000000000000000000000000000000\n      dup2\n      mstore\n      0x04\n      add\n      tag_115\n      swap1\n      tag_70\n      jump\t// in\n    tag_115:\n      mload(0x40)\n      dup1\n      swap2\n      sub\n      swap1\n      revert\n    tag_114:\n        /* \"contracts/voting.sol\":836:858  ElectionStatus.STARTED */\n      0x01\n        /* \"contracts/voting.sol\":827:833  status */\n      0x00\n      0x14\n        /* \"contracts/voting.sol\":827:858  status = ElectionStatus.STARTED */\n      0x0100\n      exp\n      dup2\n      sload\n      dup2\n      0xff\n      mul\n      not\n      and\n      swap1\n      dup4\n      0x02\n      dup2\n      gt\n      iszero\n      tag_116\n      jumpi\n      tag_117\n      tag_47\n      jump\t// in\n    tag_117:\n    tag_116:\n      mul\n      or\n      swap1\n      sstore\n      pop\n        /* \"contracts/voting.sol\":578:865  function startElection(address owner) public {... */\n      pop\n      jump\t// out\n    tag_80:\n      mload(0x40)\n      dup1\n      0x60\n      add\n      0x40\n      mstore\n      dup1\n      0x60\n      dup2\n      mstore\n      0x20\n      add\n      and(0xffffffffffffffffffffffffffffffffffffffff, 0x00)\n      dup2\n      mstore\n      0x20\n      add\n      0x60\n      dup2\n      mstore\n      pop\n      swap1\n      jump\t// out\n    tag_94:\n      mload(0x40)\n      dup1\n      0x40\n      add\n      0x40\n      mstore\n      dup1\n      0x60\n      dup2\n      mstore\n      0x20\n      add\n      and(0xffffffffffffffffffffffffffffffffffffffff, 0x00)\n      dup2\n      mstore\n      pop\n      swap1\n      jump\t// out\n        /* \"#utility.yul\":7:82   */\n    tag_118:\n        /* \"#utility.yul\":40:46   */\n      0x00\n        /* \"#utility.yul\":73:75   */\n      0x40\n        /* \"#utility.yul\":67:76   */\n      mload\n        /* \"#utility.yul\":57:76   */\n      swap1\n      pop\n        /* \"#utility.yul\":7:82   */\n      swap1\n      jump\t// out\n        /* \"#utility.yul\":88:205   */\n    tag_119:\n        /* \"#utility.yul\":197:198   */\n      0x00\n        /* \"#utility.yul\":194:195   */\n      dup1\n        /* \"#utility.yul\":187:199   */\n      revert\n        /* \"#utility.yul\":211:328   */\n    tag_120:\n        /* \"#utility.yul\":320:321   */\n      0x00\n        /* \"#utility.yul\":317:318   */\n      dup1\n        /* \"#utility.yul\":310:322   */\n      revert\n        /* \"#utility.yul\":334:460   */\n    tag_121:\n        /* \"#utility.yul\":371:378   */\n      0x00\n        /* \"#utility.yul\":411:453   */\n      0xffffffffffffffffffffffffffffffffffffffff\n        /* \"#utility.yul\":404:409   */\n      dup3\n        /* \"#utility.yul\":400:454   */\n      and\n        /* \"#utility.yul\":389:454   */\n      swap1\n      pop\n        /* \"#utility.yul\":334:460   */\n      swap2\n      swap1\n      pop\n      jump\t// out\n        /* \"#utility.yul\":466:562   */\n    tag_122:\n        /* \"#utility.yul\":503:510   */\n      0x00\n        /* \"#utility.yul\":532:556   */\n      tag_184\n        /* \"#utility.yul\":550:555   */\n      dup3\n        /* \"#utility.yul\":532:556   */\n      tag_121\n      jump\t// in\n    tag_184:\n        /* \"#utility.yul\":521:556   */\n      swap1\n      pop\n        /* \"#utility.yul\":466:562   */\n      swap2\n      swap1\n      pop\n      jump\t// out\n        /* \"#utility.yul\":568:690   */\n    tag_123:\n        /* \"#utility.yul\":641:665   */\n      tag_186\n        /* \"#utility.yul\":659:664   */\n      dup2\n        /* \"#utility.yul\":641:665   */\n      tag_122\n      jump\t// in\n    tag_186:\n        /* \"#utility.yul\":634:639   */\n      dup2\n        /* \"#utility.yul\":631:666   */\n      eq\n        /* \"#utility.yul\":621:684   */\n      tag_187\n      jumpi\n        /* \"#utility.yul\":680:681   */\n      0x00\n        /* \"#utility.yul\":677:678   */\n      dup1\n        /* \"#utility.yul\":670:682   */\n      revert\n        /* \"#utility.yul\":621:684   */\n    tag_187:\n        /* \"#utility.yul\":568:690   */\n      pop\n      jump\t// out\n        /* \"#utility.yul\":696:835   */\n    tag_124:\n        /* \"#utility.yul\":742:747   */\n      0x00\n        /* \"#utility.yul\":780:786   */\n      dup2\n        /* \"#utility.yul\":767:787   */\n      calldataload\n        /* \"#utility.yul\":758:787   */\n      swap1\n      pop\n        /* \"#utility.yul\":796:829   */\n      tag_189\n        /* \"#utility.yul\":823:828   */\n      dup2\n        /* \"#utility.yul\":796:829   */\n      tag_123\n      jump\t// in\n    tag_189:\n        /* \"#utility.yul\":696:835   */\n      swap3\n      swap2\n      pop\n      pop\n      jump\t// out\n        /* \"#utility.yul\":841:1170   */\n    tag_13:\n        /* \"#utility.yul\":900:906   */\n      0x00\n        /* \"#utility.yul\":949:951   */\n      0x20\n        /* \"#utility.yul\":937:946   */\n      dup3\n        /* \"#utility.yul\":928:935   */\n      dup5\n        /* \"#utility.yul\":924:947   */\n      sub\n        /* \"#utility.yul\":920:952   */\n      slt\n        /* \"#utility.yul\":917:1036   */\n      iszero\n      tag_191\n      jumpi\n        /* \"#utility.yul\":955:1034   */\n      tag_192\n      tag_119\n      jump\t// in\n    tag_192:\n        /* \"#utility.yul\":917:1036   */\n    tag_191:\n        /* \"#utility.yul\":1075:1076   */\n      0x00\n        /* \"#utility.yul\":1100:1153   */\n      tag_193\n        /* \"#utility.yul\":1145:1152   */\n      dup5\n        /* \"#utility.yul\":1136:1142   */\n      dup3\n        /* \"#utility.yul\":1125:1134   */\n      dup6\n        /* \"#utility.yul\":1121:1143   */\n      add\n        /* \"#utility.yul\":1100:1153   */\n      tag_124\n      jump\t// in\n    tag_193:\n        /* \"#utility.yul\":1090:1153   */\n      swap2\n      pop\n        /* \"#utility.yul\":1046:1163   */\n      pop\n        /* \"#utility.yul\":841:1170   */\n      swap3\n      swap2\n      pop\n      pop\n      jump\t// out\n        /* \"#utility.yul\":1176:1293   */\n    tag_125:\n        /* \"#utility.yul\":1285:1286   */\n      0x00\n        /* \"#utility.yul\":1282:1283   */\n      dup1\n        /* \"#utility.yul\":1275:1287   */\n      revert\n        /* \"#utility.yul\":1299:1416   */\n    tag_126:\n        /* \"#utility.yul\":1408:1409   */\n      0x00\n        /* \"#utility.yul\":1405:1406   */\n      dup1\n        /* \"#utility.yul\":1398:1410   */\n      revert\n        /* \"#utility.yul\":1422:1524   */\n    tag_127:\n        /* \"#utility.yul\":1463:1469   */\n      0x00\n        /* \"#utility.yul\":1514:1516   */\n      0x1f\n        /* \"#utility.yul\":1510:1517   */\n      not\n        /* \"#utility.yul\":1505:1507   */\n      0x1f\n        /* \"#utility.yul\":1498:1503   */\n      dup4\n        /* \"#utility.yul\":1494:1508   */\n      add\n        /* \"#utility.yul\":1490:1518   */\n      and\n        /* \"#utility.yul\":1480:1518   */\n      swap1\n      pop\n        /* \"#utility.yul\":1422:1524   */\n      swap2\n      swap1\n      pop\n      jump\t// out\n        /* \"#utility.yul\":1530:1710   */\n    tag_128:\n        /* \"#utility.yul\":1578:1655   */\n      0x4e487b7100000000000000000000000000000000000000000000000000000000\n        /* \"#utility.yul\":1575:1576   */\n      0x00\n        /* \"#utility.yul\":1568:1656   */\n      mstore\n        /* \"#utility.yul\":1675:1679   */\n      0x41\n        /* \"#utility.yul\":1672:1673   */\n      0x04\n        /* \"#utility.yul\":1665:1680   */\n      mstore\n        /* \"#utility.yul\":1699:1703   */\n      0x24\n        /* \"#utility.yul\":1696:1697   */\n      0x00\n        /* \"#utility.yul\":1689:1704   */\n      revert\n        /* \"#utility.yul\":1716:1997   */\n    tag_129:\n        /* \"#utility.yul\":1799:1826   */\n      tag_199\n        /* \"#utility.yul\":1821:1825   */\n      dup3\n        /* \"#utility.yul\":1799:1826   */\n      tag_127\n      jump\t// in\n    tag_199:\n        /* \"#utility.yul\":1791:1797   */\n      dup2\n        /* \"#utility.yul\":1787:1827   */\n      add\n        /* \"#utility.yul\":1929:1935   */\n      dup2\n        /* \"#utility.yul\":1917:1927   */\n      dup2\n        /* \"#utility.yul\":1914:1936   */\n      lt\n        /* \"#utility.yul\":1893:1911   */\n      0xffffffffffffffff\n        /* \"#utility.yul\":1881:1891   */\n      dup3\n        /* \"#utility.yul\":1878:1912   */\n      gt\n        /* \"#utility.yul\":1875:1937   */\n      or\n        /* \"#utility.yul\":1872:1960   */\n      iszero\n      tag_200\n      jumpi\n        /* \"#utility.yul\":1940:1958   */\n      tag_201\n      tag_128\n      jump\t// in\n    tag_201:\n        /* \"#utility.yul\":1872:1960   */\n    tag_200:\n        /* \"#utility.yul\":1980:1990   */\n      dup1\n        /* \"#utility.yul\":1976:1978   */\n      0x40\n        /* \"#utility.yul\":1969:1991   */\n      mstore\n        /* \"#utility.yul\":1759:1997   */\n      pop\n        /* \"#utility.yul\":1716:1997   */\n      pop\n      pop\n      jump\t// out\n        /* \"#utility.yul\":2003:2132   */\n    tag_130:\n        /* \"#utility.yul\":2037:2043   */\n      0x00\n        /* \"#utility.yul\":2064:2084   */\n      tag_203\n      tag_118\n      jump\t// in\n    tag_203:\n        /* \"#utility.yul\":2054:2084   */\n      swap1\n      pop\n        /* \"#utility.yul\":2093:2126   */\n      tag_204\n        /* \"#utility.yul\":2121:2125   */\n      dup3\n        /* \"#utility.yul\":2113:2119   */\n      dup3\n        /* \"#utility.yul\":2093:2126   */\n      tag_129\n      jump\t// in\n    tag_204:\n        /* \"#utility.yul\":2003:2132   */\n      swap2\n      swap1\n      pop\n      jump\t// out\n        /* \"#utility.yul\":2138:2446   */\n    tag_131:\n        /* \"#utility.yul\":2200:2204   */\n      0x00\n        /* \"#utility.yul\":2290:2308   */\n      0xffffffffffffffff\n        /* \"#utility.yul\":2282:2288   */\n      dup3\n        /* \"#utility.yul\":2279:2309   */\n      gt\n        /* \"#utility.yul\":2276:2332   */\n      iszero\n      tag_206\n      jumpi\n        /* \"#utility.yul\":2312:2330   */\n      tag_207\n      tag_128\n      jump\t// in\n    tag_207:\n        /* \"#utility.yul\":2276:2332   */\n    tag_206:\n        /* \"#utility.yul\":2350:2379   */\n      tag_208\n        /* \"#utility.yul\":2372:2378   */\n      dup3\n        /* \"#utility.yul\":2350:2379   */\n      tag_127\n      jump\t// in\n    tag_208:\n        /* \"#utility.yul\":2342:2379   */\n      swap1\n      pop\n        /* \"#utility.yul\":2434:2438   */\n      0x20\n        /* \"#utility.yul\":2428:2432   */\n      dup2\n        /* \"#utility.yul\":2424:2439   */\n      add\n        /* \"#utility.yul\":2416:2439   */\n      swap1\n      pop\n        /* \"#utility.yul\":2138:2446   */\n      swap2\n      swap1\n      pop\n      jump\t// out\n        /* \"#utility.yul\":2452:2598   */\n    tag_132:\n        /* \"#utility.yul\":2549:2555   */\n      dup3\n        /* \"#utility.yul\":2544:2547   */\n      dup2\n        /* \"#utility.yul\":2539:2542   */\n      dup4\n        /* \"#utility.yul\":2526:2556   */\n      calldatacopy\n        /* \"#utility.yul\":2590:2591   */\n      0x00\n        /* \"#utility.yul\":2581:2587   */\n      dup4\n        /* \"#utility.yul\":2576:2579   */\n      dup4\n        /* \"#utility.yul\":2572:2588   */\n      add\n        /* \"#utility.yul\":2565:2592   */\n      mstore\n        /* \"#utility.yul\":2452:2598   */\n      pop\n      pop\n      pop\n      jump\t// out\n        /* \"#utility.yul\":2604:3029   */\n    tag_133:\n        /* \"#utility.yul\":2682:2687   */\n      0x00\n        /* \"#utility.yul\":2707:2773   */\n      tag_211\n        /* \"#utility.yul\":2723:2772   */\n      tag_212\n        /* \"#utility.yul\":2765:2771   */\n      dup5\n        /* \"#utility.yul\":2723:2772   */\n      tag_131\n      jump\t// in\n    tag_212:\n        /* \"#utility.yul\":2707:2773   */\n      tag_130\n      jump\t// in\n    tag_211:\n        /* \"#utility.yul\":2698:2773   */\n      swap1\n      pop\n        /* \"#utility.yul\":2796:2802   */\n      dup3\n        /* \"#utility.yul\":2789:2794   */\n      dup2\n        /* \"#utility.yul\":2782:2803   */\n      mstore\n        /* \"#utility.yul\":2834:2838   */\n      0x20\n        /* \"#utility.yul\":2827:2832   */\n      dup2\n        /* \"#utility.yul\":2823:2839   */\n      add\n        /* \"#utility.yul\":2872:2875   */\n      dup5\n        /* \"#utility.yul\":2863:2869   */\n      dup5\n        /* \"#utility.yul\":2858:2861   */\n      dup5\n        /* \"#utility.yul\":2854:2870   */\n      add\n        /* \"#utility.yul\":2851:2876   */\n      gt\n        /* \"#utility.yul\":2848:2960   */\n      iszero\n      tag_213\n      jumpi\n        /* \"#utility.yul\":2879:2958   */\n      tag_214\n      tag_126\n      jump\t// in\n    tag_214:\n        /* \"#utility.yul\":2848:2960   */\n    tag_213:\n        /* \"#utility.yul\":2969:3023   */\n      tag_215\n        /* \"#utility.yul\":3016:3022   */\n      dup5\n        /* \"#utility.yul\":3011:3014   */\n      dup3\n        /* \"#utility.yul\":3006:3009   */\n      dup6\n        /* \"#utility.yul\":2969:3023   */\n      tag_132\n      jump\t// in\n    tag_215:\n        /* \"#utility.yul\":2688:3029   */\n      pop\n        /* \"#utility.yul\":2604:3029   */\n      swap4\n      swap3\n      pop\n      pop\n      pop\n      jump\t// out\n        /* \"#utility.yul\":3049:3389   */\n    tag_134:\n        /* \"#utility.yul\":3105:3110   */\n      0x00\n        /* \"#utility.yul\":3154:3157   */\n      dup3\n        /* \"#utility.yul\":3147:3151   */\n      0x1f\n        /* \"#utility.yul\":3139:3145   */\n      dup4\n        /* \"#utility.yul\":3135:3152   */\n      add\n        /* \"#utility.yul\":3131:3158   */\n      slt\n        /* \"#utility.yul\":3121:3243   */\n      tag_217\n      jumpi\n        /* \"#utility.yul\":3162:3241   */\n      tag_218\n      tag_125\n      jump\t// in\n    tag_218:\n        /* \"#utility.yul\":3121:3243   */\n    tag_217:\n        /* \"#utility.yul\":3279:3285   */\n      dup2\n        /* \"#utility.yul\":3266:3286   */\n      calldataload\n        /* \"#utility.yul\":3304:3383   */\n      tag_219\n        /* \"#utility.yul\":3379:3382   */\n      dup5\n        /* \"#utility.yul\":3371:3377   */\n      dup3\n        /* \"#utility.yul\":3364:3368   */\n      0x20\n        /* \"#utility.yul\":3356:3362   */\n      dup7\n        /* \"#utility.yul\":3352:3369   */\n      add\n        /* \"#utility.yul\":3304:3383   */\n      tag_133\n      jump\t// in\n    tag_219:\n        /* \"#utility.yul\":3295:3383   */\n      swap2\n      pop\n        /* \"#utility.yul\":3111:3389   */\n      pop\n        /* \"#utility.yul\":3049:3389   */\n      swap3\n      swap2\n      pop\n      pop\n      jump\t// out\n        /* \"#utility.yul\":3395:4374   */\n    tag_17:\n        /* \"#utility.yul\":3492:3498   */\n      0x00\n        /* \"#utility.yul\":3500:3506   */\n      dup1\n        /* \"#utility.yul\":3508:3514   */\n      0x00\n        /* \"#utility.yul\":3557:3559   */\n      0x60\n        /* \"#utility.yul\":3545:3554   */\n      dup5\n        /* \"#utility.yul\":3536:3543   */\n      dup7\n        /* \"#utility.yul\":3532:3555   */\n      sub\n        /* \"#utility.yul\":3528:3560   */\n      slt\n        /* \"#utility.yul\":3525:3644   */\n      iszero\n      tag_221\n      jumpi\n        /* \"#utility.yul\":3563:3642   */\n      tag_222\n      tag_119\n      jump\t// in\n    tag_222:\n        /* \"#utility.yul\":3525:3644   */\n    tag_221:\n        /* \"#utility.yul\":3711:3712   */\n      0x00\n        /* \"#utility.yul\":3700:3709   */\n      dup5\n        /* \"#utility.yul\":3696:3713   */\n      add\n        /* \"#utility.yul\":3683:3714   */\n      calldataload\n        /* \"#utility.yul\":3741:3759   */\n      0xffffffffffffffff\n        /* \"#utility.yul\":3733:3739   */\n      dup2\n        /* \"#utility.yul\":3730:3760   */\n      gt\n        /* \"#utility.yul\":3727:3844   */\n      iszero\n      tag_223\n      jumpi\n        /* \"#utility.yul\":3763:3842   */\n      tag_224\n      tag_120\n      jump\t// in\n    tag_224:\n        /* \"#utility.yul\":3727:3844   */\n    tag_223:\n        /* \"#utility.yul\":3868:3931   */\n      tag_225\n        /* \"#utility.yul\":3923:3930   */\n      dup7\n        /* \"#utility.yul\":3914:3920   */\n      dup3\n        /* \"#utility.yul\":3903:3912   */\n      dup8\n        /* \"#utility.yul\":3899:3921   */\n      add\n        /* \"#utility.yul\":3868:3931   */\n      tag_134\n      jump\t// in\n    tag_225:\n        /* \"#utility.yul\":3858:3931   */\n      swap4\n      pop\n        /* \"#utility.yul\":3654:3941   */\n      pop\n        /* \"#utility.yul\":4008:4010   */\n      0x20\n        /* \"#utility.yul\":3997:4006   */\n      dup5\n        /* \"#utility.yul\":3993:4011   */\n      add\n        /* \"#utility.yul\":3980:4012   */\n      calldataload\n        /* \"#utility.yul\":4039:4057   */\n      0xffffffffffffffff\n        /* \"#utility.yul\":4031:4037   */\n      dup2\n        /* \"#utility.yul\":4028:4058   */\n      gt\n        /* \"#utility.yul\":4025:4142   */\n      iszero\n      tag_226\n      jumpi\n        /* \"#utility.yul\":4061:4140   */\n      tag_227\n      tag_120\n      jump\t// in\n    tag_227:\n        /* \"#utility.yul\":4025:4142   */\n    tag_226:\n        /* \"#utility.yul\":4166:4229   */\n      tag_228\n        /* \"#utility.yul\":4221:4228   */\n      dup7\n        /* \"#utility.yul\":4212:4218   */\n      dup3\n        /* \"#utility.yul\":4201:4210   */\n      dup8\n        /* \"#utility.yul\":4197:4219   */\n      add\n        /* \"#utility.yul\":4166:4229   */\n      tag_134\n      jump\t// in\n    tag_228:\n        /* \"#utility.yul\":4156:4229   */\n      swap3\n      pop\n        /* \"#utility.yul\":3951:4239   */\n      pop\n        /* \"#utility.yul\":4278:4280   */\n      0x40\n        /* \"#utility.yul\":4304:4357   */\n      tag_229\n        /* \"#utility.yul\":4349:4356   */\n      dup7\n        /* \"#utility.yul\":4340:4346   */\n      dup3\n        /* \"#utility.yul\":4329:4338   */\n      dup8\n        /* \"#utility.yul\":4325:4347   */\n      add\n        /* \"#utility.yul\":4304:4357   */\n      tag_124\n      jump\t// in\n    tag_229:\n        /* \"#utility.yul\":4294:4357   */\n      swap2\n      pop\n        /* \"#utility.yul\":4249:4367   */\n      pop\n        /* \"#utility.yul\":3395:4374   */\n      swap3\n      pop\n      swap3\n      pop\n      swap3\n      jump\t// out\n        /* \"#utility.yul\":4380:4560   */\n    tag_47:\n        /* \"#utility.yul\":4428:4505   */\n      0x4e487b7100000000000000000000000000000000000000000000000000000000\n        /* \"#utility.yul\":4425:4426   */\n      0x00\n        /* \"#utility.yul\":4418:4506   */\n      mstore\n        /* \"#utility.yul\":4525:4529   */\n      0x21\n        /* \"#utility.yul\":4522:4523   */\n      0x04\n        /* \"#utility.yul\":4515:4530   */\n      mstore\n        /* \"#utility.yul\":4549:4553   */\n      0x24\n        /* \"#utility.yul\":4546:4547   */\n      0x00\n        /* \"#utility.yul\":4539:4554   */\n      revert\n        /* \"#utility.yul\":4566:4687   */\n    tag_135:\n        /* \"#utility.yul\":4655:4656   */\n      0x03\n        /* \"#utility.yul\":4648:4653   */\n      dup2\n        /* \"#utility.yul\":4645:4657   */\n      lt\n        /* \"#utility.yul\":4635:4681   */\n      tag_232\n      jumpi\n        /* \"#utility.yul\":4661:4679   */\n      tag_233\n      tag_47\n      jump\t// in\n    tag_233:\n        /* \"#utility.yul\":4635:4681   */\n    tag_232:\n        /* \"#utility.yul\":4566:4687   */\n      pop\n      jump\t// out\n        /* \"#utility.yul\":4693:4836   */\n    tag_136:\n        /* \"#utility.yul\":4746:4753   */\n      0x00\n        /* \"#utility.yul\":4775:4780   */\n      dup2\n        /* \"#utility.yul\":4764:4780   */\n      swap1\n      pop\n        /* \"#utility.yul\":4781:4830   */\n      tag_235\n        /* \"#utility.yul\":4824:4829   */\n      dup3\n        /* \"#utility.yul\":4781:4830   */\n      tag_135\n      jump\t// in\n    tag_235:\n        /* \"#utility.yul\":4693:4836   */\n      swap2\n      swap1\n      pop\n      jump\t// out\n        /* \"#utility.yul\":4842:4985   */\n    tag_137:\n        /* \"#utility.yul\":4906:4915   */\n      0x00\n        /* \"#utility.yul\":4939:4979   */\n      tag_237\n        /* \"#utility.yul\":4973:4978   */\n      dup3\n        /* \"#utility.yul\":4939:4979   */\n      tag_136\n      jump\t// in\n    tag_237:\n        /* \"#utility.yul\":4926:4979   */\n      swap1\n      pop\n        /* \"#utility.yul\":4842:4985   */\n      swap2\n      swap1\n      pop\n      jump\t// out\n        /* \"#utility.yul\":4991:5150   */\n    tag_138:\n        /* \"#utility.yul\":5092:5143   */\n      tag_239\n        /* \"#utility.yul\":5137:5142   */\n      dup2\n        /* \"#utility.yul\":5092:5143   */\n      tag_137\n      jump\t// in\n    tag_239:\n        /* \"#utility.yul\":5087:5090   */\n      dup3\n        /* \"#utility.yul\":5080:5144   */\n      mstore\n        /* \"#utility.yul\":4991:5150   */\n      pop\n      pop\n      jump\t// out\n        /* \"#utility.yul\":5156:5406   */\n    tag_22:\n        /* \"#utility.yul\":5263:5267   */\n      0x00\n        /* \"#utility.yul\":5301:5303   */\n      0x20\n        /* \"#utility.yul\":5290:5299   */\n      dup3\n        /* \"#utility.yul\":5286:5304   */\n      add\n        /* \"#utility.yul\":5278:5304   */\n      swap1\n      pop\n        /* \"#utility.yul\":5314:5399   */\n      tag_241\n        /* \"#utility.yul\":5396:5397   */\n      0x00\n        /* \"#utility.yul\":5385:5394   */\n      dup4\n        /* \"#utility.yul\":5381:5398   */\n      add\n        /* \"#utility.yul\":5372:5378   */\n      dup5\n        /* \"#utility.yul\":5314:5399   */\n      tag_138\n      jump\t// in\n    tag_241:\n        /* \"#utility.yul\":5156:5406   */\n      swap3\n      swap2\n      pop\n      pop\n      jump\t// out\n        /* \"#utility.yul\":5412:6066   */\n    tag_25:\n        /* \"#utility.yul\":5490:5496   */\n      0x00\n        /* \"#utility.yul\":5498:5504   */\n      dup1\n        /* \"#utility.yul\":5547:5549   */\n      0x40\n        /* \"#utility.yul\":5535:5544   */\n      dup4\n        /* \"#utility.yul\":5526:5533   */\n      dup6\n        /* \"#utility.yul\":5522:5545   */\n      sub\n        /* \"#utility.yul\":5518:5550   */\n      slt\n        /* \"#utility.yul\":5515:5634   */\n      iszero\n      tag_243\n      jumpi\n        /* \"#utility.yul\":5553:5632   */\n      tag_244\n      tag_119\n      jump\t// in\n    tag_244:\n        /* \"#utility.yul\":5515:5634   */\n    tag_243:\n        /* \"#utility.yul\":5701:5702   */\n      0x00\n        /* \"#utility.yul\":5690:5699   */\n      dup4\n        /* \"#utility.yul\":5686:5703   */\n      add\n        /* \"#utility.yul\":5673:5704   */\n      calldataload\n        /* \"#utility.yul\":5731:5749   */\n      0xffffffffffffffff\n        /* \"#utility.yul\":5723:5729   */\n      dup2\n        /* \"#utility.yul\":5720:5750   */\n      gt\n        /* \"#utility.yul\":5717:5834   */\n      iszero\n      tag_245\n      jumpi\n        /* \"#utility.yul\":5753:5832   */\n      tag_246\n      tag_120\n      jump\t// in\n    tag_246:\n        /* \"#utility.yul\":5717:5834   */\n    tag_245:\n        /* \"#utility.yul\":5858:5921   */\n      tag_247\n        /* \"#utility.yul\":5913:5920   */\n      dup6\n        /* \"#utility.yul\":5904:5910   */\n      dup3\n        /* \"#utility.yul\":5893:5902   */\n      dup7\n        /* \"#utility.yul\":5889:5911   */\n      add\n        /* \"#utility.yul\":5858:5921   */\n      tag_134\n      jump\t// in\n    tag_247:\n        /* \"#utility.yul\":5848:5921   */\n      swap3\n      pop\n        /* \"#utility.yul\":5644:5931   */\n      pop\n        /* \"#utility.yul\":5970:5972   */\n      0x20\n        /* \"#utility.yul\":5996:6049   */\n      tag_248\n        /* \"#utility.yul\":6041:6048   */\n      dup6\n        /* \"#utility.yul\":6032:6038   */\n      dup3\n        /* \"#utility.yul\":6021:6030   */\n      dup7\n        /* \"#utility.yul\":6017:6039   */\n      add\n        /* \"#utility.yul\":5996:6049   */\n      tag_124\n      jump\t// in\n    tag_248:\n        /* \"#utility.yul\":5986:6049   */\n      swap2\n      pop\n        /* \"#utility.yul\":5941:6059   */\n      pop\n        /* \"#utility.yul\":5412:6066   */\n      swap3\n      pop\n      swap3\n      swap1\n      pop\n      jump\t// out\n        /* \"#utility.yul\":6072:6158   */\n    tag_139:\n        /* \"#utility.yul\":6107:6114   */\n      0x00\n        /* \"#utility.yul\":6147:6151   */\n      0xff\n        /* \"#utility.yul\":6140:6145   */\n      dup3\n        /* \"#utility.yul\":6136:6152   */\n      and\n        /* \"#utility.yul\":6125:6152   */\n      swap1\n      pop\n        /* \"#utility.yul\":6072:6158   */\n      swap2\n      swap1\n      pop\n      jump\t// out\n        /* \"#utility.yul\":6164:6282   */\n    tag_140:\n        /* \"#utility.yul\":6235:6257   */\n      tag_251\n        /* \"#utility.yul\":6251:6256   */\n      dup2\n        /* \"#utility.yul\":6235:6257   */\n      tag_139\n      jump\t// in\n    tag_251:\n        /* \"#utility.yul\":6228:6233   */\n      dup2\n        /* \"#utility.yul\":6225:6258   */\n      eq\n        /* \"#utility.yul\":6215:6276   */\n      tag_252\n      jumpi\n        /* \"#utility.yul\":6272:6273   */\n      0x00\n        /* \"#utility.yul\":6269:6270   */\n      dup1\n        /* \"#utility.yul\":6262:6274   */\n      revert\n        /* \"#utility.yul\":6215:6276   */\n    tag_252:\n        /* \"#utility.yul\":6164:6282   */\n      pop\n      jump\t// out\n        /* \"#utility.yul\":6288:6423   */\n    tag_141:\n        /* \"#utility.yul\":6332:6337   */\n      0x00\n        /* \"#utility.yul\":6370:6376   */\n      dup2\n        /* \"#utility.yul\":6357:6377   */\n      calldataload\n        /* \"#utility.yul\":6348:6377   */\n      swap1\n      pop\n        /* \"#utility.yul\":6386:6417   */\n      tag_254\n        /* \"#utility.yul\":6411:6416   */\n      dup2\n        /* \"#utility.yul\":6386:6417   */\n      tag_140\n      jump\t// in\n    tag_254:\n        /* \"#utility.yul\":6288:6423   */\n      swap3\n      swap2\n      pop\n      pop\n      jump\t// out\n        /* \"#utility.yul\":6429:6754   */\n    tag_29:\n        /* \"#utility.yul\":6486:6492   */\n      0x00\n        /* \"#utility.yul\":6535:6537   */\n      0x20\n        /* \"#utility.yul\":6523:6532   */\n      dup3\n        /* \"#utility.yul\":6514:6521   */\n      dup5\n        /* \"#utility.yul\":6510:6533   */\n      sub\n        /* \"#utility.yul\":6506:6538   */\n      slt\n        /* \"#utility.yul\":6503:6622   */\n      iszero\n      tag_256\n      jumpi\n        /* \"#utility.yul\":6541:6620   */\n      tag_257\n      tag_119\n      jump\t// in\n    tag_257:\n        /* \"#utility.yul\":6503:6622   */\n    tag_256:\n        /* \"#utility.yul\":6661:6662   */\n      0x00\n        /* \"#utility.yul\":6686:6737   */\n      tag_258\n        /* \"#utility.yul\":6729:6736   */\n      dup5\n        /* \"#utility.yul\":6720:6726   */\n      dup3\n        /* \"#utility.yul\":6709:6718   */\n      dup6\n        /* \"#utility.yul\":6705:6727   */\n      add\n        /* \"#utility.yul\":6686:6737   */\n      tag_141\n      jump\t// in\n    tag_258:\n        /* \"#utility.yul\":6676:6737   */\n      swap2\n      pop\n        /* \"#utility.yul\":6632:6747   */\n      pop\n        /* \"#utility.yul\":6429:6754   */\n      swap3\n      swap2\n      pop\n      pop\n      jump\t// out\n        /* \"#utility.yul\":6760:6859   */\n    tag_142:\n        /* \"#utility.yul\":6812:6818   */\n      0x00\n        /* \"#utility.yul\":6846:6851   */\n      dup2\n        /* \"#utility.yul\":6840:6852   */\n      mload\n        /* \"#utility.yul\":6830:6852   */\n      swap1\n      pop\n        /* \"#utility.yul\":6760:6859   */\n      swap2\n      swap1\n      pop\n      jump\t// out\n        /* \"#utility.yul\":6865:7024   */\n    tag_143:\n        /* \"#utility.yul\":6939:6950   */\n      0x00\n        /* \"#utility.yul\":6973:6979   */\n      dup3\n        /* \"#utility.yul\":6968:6971   */\n      dup3\n        /* \"#utility.yul\":6961:6980   */\n      mstore\n        /* \"#utility.yul\":7013:7017   */\n      0x20\n        /* \"#utility.yul\":7008:7011   */\n      dup3\n        /* \"#utility.yul\":7004:7018   */\n      add\n        /* \"#utility.yul\":6989:7018   */\n      swap1\n      pop\n        /* \"#utility.yul\":6865:7024   */\n      swap3\n      swap2\n      pop\n      pop\n      jump\t// out\n        /* \"#utility.yul\":7030:7276   */\n    tag_144:\n        /* \"#utility.yul\":7111:7112   */\n      0x00\n        /* \"#utility.yul\":7121:7234   */\n    tag_262:\n        /* \"#utility.yul\":7135:7141   */\n      dup4\n        /* \"#utility.yul\":7132:7133   */\n      dup2\n        /* \"#utility.yul\":7129:7142   */\n      lt\n        /* \"#utility.yul\":7121:7234   */\n      iszero\n      tag_264\n      jumpi\n        /* \"#utility.yul\":7220:7221   */\n      dup1\n        /* \"#utility.yul\":7215:7218   */\n      dup3\n        /* \"#utility.yul\":7211:7222   */\n      add\n        /* \"#utility.yul\":7205:7223   */\n      mload\n        /* \"#utility.yul\":7201:7202   */\n      dup2\n        /* \"#utility.yul\":7196:7199   */\n      dup5\n        /* \"#utility.yul\":7192:7203   */\n      add\n        /* \"#utility.yul\":7185:7224   */\n      mstore\n        /* \"#utility.yul\":7157:7159   */\n      0x20\n        /* \"#utility.yul\":7154:7155   */\n      dup2\n        /* \"#utility.yul\":7150:7160   */\n      add\n        /* \"#utility.yul\":7145:7160   */\n      swap1\n      pop\n        /* \"#utility.yul\":7121:7234   */\n      jump(tag_262)\n    tag_264:\n        /* \"#utility.yul\":7268:7269   */\n      0x00\n        /* \"#utility.yul\":7259:7265   */\n      dup5\n        /* \"#utility.yul\":7254:7257   */\n      dup5\n        /* \"#utility.yul\":7250:7266   */\n      add\n        /* \"#utility.yul\":7243:7270   */\n      mstore\n        /* \"#utility.yul\":7092:7276   */\n      pop\n        /* \"#utility.yul\":7030:7276   */\n      pop\n      pop\n      pop\n      jump\t// out\n        /* \"#utility.yul\":7282:7639   */\n    tag_145:\n        /* \"#utility.yul\":7360:7363   */\n      0x00\n        /* \"#utility.yul\":7388:7427   */\n      tag_266\n        /* \"#utility.yul\":7421:7426   */\n      dup3\n        /* \"#utility.yul\":7388:7427   */\n      tag_142\n      jump\t// in\n    tag_266:\n        /* \"#utility.yul\":7443:7504   */\n      tag_267\n        /* \"#utility.yul\":7497:7503   */\n      dup2\n        /* \"#utility.yul\":7492:7495   */\n      dup6\n        /* \"#utility.yul\":7443:7504   */\n      tag_143\n      jump\t// in\n    tag_267:\n        /* \"#utility.yul\":7436:7504   */\n      swap4\n      pop\n        /* \"#utility.yul\":7513:7578   */\n      tag_268\n        /* \"#utility.yul\":7571:7577   */\n      dup2\n        /* \"#utility.yul\":7566:7569   */\n      dup6\n        /* \"#utility.yul\":7559:7563   */\n      0x20\n        /* \"#utility.yul\":7552:7557   */\n      dup7\n        /* \"#utility.yul\":7548:7564   */\n      add\n        /* \"#utility.yul\":7513:7578   */\n      tag_144\n      jump\t// in\n    tag_268:\n        /* \"#utility.yul\":7603:7632   */\n      tag_269\n        /* \"#utility.yul\":7625:7631   */\n      dup2\n        /* \"#utility.yul\":7603:7632   */\n      tag_127\n      jump\t// in\n    tag_269:\n        /* \"#utility.yul\":7598:7601   */\n      dup5\n        /* \"#utility.yul\":7594:7633   */\n      add\n        /* \"#utility.yul\":7587:7633   */\n      swap2\n      pop\n        /* \"#utility.yul\":7364:7639   */\n      pop\n        /* \"#utility.yul\":7282:7639   */\n      swap3\n      swap2\n      pop\n      pop\n      jump\t// out\n        /* \"#utility.yul\":7645:7753   */\n    tag_146:\n        /* \"#utility.yul\":7722:7746   */\n      tag_271\n        /* \"#utility.yul\":7740:7745   */\n      dup2\n        /* \"#utility.yul\":7722:7746   */\n      tag_122\n      jump\t// in\n    tag_271:\n        /* \"#utility.yul\":7717:7720   */\n      dup3\n        /* \"#utility.yul\":7710:7747   */\n      mstore\n        /* \"#utility.yul\":7645:7753   */\n      pop\n      pop\n      jump\t// out\n        /* \"#utility.yul\":7817:8673   */\n    tag_147:\n        /* \"#utility.yul\":7936:7939   */\n      0x00\n        /* \"#utility.yul\":7972:7976   */\n      0x60\n        /* \"#utility.yul\":7967:7970   */\n      dup4\n        /* \"#utility.yul\":7963:7977   */\n      add\n        /* \"#utility.yul\":8059:8063   */\n      0x00\n        /* \"#utility.yul\":8052:8057   */\n      dup4\n        /* \"#utility.yul\":8048:8064   */\n      add\n        /* \"#utility.yul\":8042:8065   */\n      mload\n        /* \"#utility.yul\":8112:8115   */\n      dup5\n        /* \"#utility.yul\":8106:8110   */\n      dup3\n        /* \"#utility.yul\":8102:8116   */\n      sub\n        /* \"#utility.yul\":8095:8099   */\n      0x00\n        /* \"#utility.yul\":8090:8093   */\n      dup7\n        /* \"#utility.yul\":8086:8100   */\n      add\n        /* \"#utility.yul\":8079:8117   */\n      mstore\n        /* \"#utility.yul\":8138:8211   */\n      tag_273\n        /* \"#utility.yul\":8206:8210   */\n      dup3\n        /* \"#utility.yul\":8192:8204   */\n      dup3\n        /* \"#utility.yul\":8138:8211   */\n      tag_145\n      jump\t// in\n    tag_273:\n        /* \"#utility.yul\":8130:8211   */\n      swap2\n      pop\n        /* \"#utility.yul\":7987:8222   */\n      pop\n        /* \"#utility.yul\":8305:8309   */\n      0x20\n        /* \"#utility.yul\":8298:8303   */\n      dup4\n        /* \"#utility.yul\":8294:8310   */\n      add\n        /* \"#utility.yul\":8288:8311   */\n      mload\n        /* \"#utility.yul\":8324:8387   */\n      tag_274\n        /* \"#utility.yul\":8381:8385   */\n      0x20\n        /* \"#utility.yul\":8376:8379   */\n      dup7\n        /* \"#utility.yul\":8372:8386   */\n      add\n        /* \"#utility.yul\":8358:8370   */\n      dup3\n        /* \"#utility.yul\":8324:8387   */\n      tag_146\n      jump\t// in\n    tag_274:\n        /* \"#utility.yul\":8232:8397   */\n      pop\n        /* \"#utility.yul\":8483:8487   */\n      0x40\n        /* \"#utility.yul\":8476:8481   */\n      dup4\n        /* \"#utility.yul\":8472:8488   */\n      add\n        /* \"#utility.yul\":8466:8489   */\n      mload\n        /* \"#utility.yul\":8536:8539   */\n      dup5\n        /* \"#utility.yul\":8530:8534   */\n      dup3\n        /* \"#utility.yul\":8526:8540   */\n      sub\n        /* \"#utility.yul\":8519:8523   */\n      0x40\n        /* \"#utility.yul\":8514:8517   */\n      dup7\n        /* \"#utility.yul\":8510:8524   */\n      add\n        /* \"#utility.yul\":8503:8541   */\n      mstore\n        /* \"#utility.yul\":8562:8635   */\n      tag_275\n        /* \"#utility.yul\":8630:8634   */\n      dup3\n        /* \"#utility.yul\":8616:8628   */\n      dup3\n        /* \"#utility.yul\":8562:8635   */\n      tag_145\n      jump\t// in\n    tag_275:\n        /* \"#utility.yul\":8554:8635   */\n      swap2\n      pop\n        /* \"#utility.yul\":8407:8646   */\n      pop\n        /* \"#utility.yul\":8663:8667   */\n      dup1\n        /* \"#utility.yul\":8656:8667   */\n      swap2\n      pop\n        /* \"#utility.yul\":7941:8673   */\n      pop\n        /* \"#utility.yul\":7817:8673   */\n      swap3\n      swap2\n      pop\n      pop\n      jump\t// out\n        /* \"#utility.yul\":8679:9052   */\n    tag_32:\n        /* \"#utility.yul\":8822:8826   */\n      0x00\n        /* \"#utility.yul\":8860:8862   */\n      0x20\n        /* \"#utility.yul\":8849:8858   */\n      dup3\n        /* \"#utility.yul\":8845:8863   */\n      add\n        /* \"#utility.yul\":8837:8863   */\n      swap1\n      pop\n        /* \"#utility.yul\":8909:8918   */\n      dup2\n        /* \"#utility.yul\":8903:8907   */\n      dup2\n        /* \"#utility.yul\":8899:8919   */\n      sub\n        /* \"#utility.yul\":8895:8896   */\n      0x00\n        /* \"#utility.yul\":8884:8893   */\n      dup4\n        /* \"#utility.yul\":8880:8897   */\n      add\n        /* \"#utility.yul\":8873:8920   */\n      mstore\n        /* \"#utility.yul\":8937:9045   */\n      tag_277\n        /* \"#utility.yul\":9040:9044   */\n      dup2\n        /* \"#utility.yul\":9031:9037   */\n      dup5\n        /* \"#utility.yul\":8937:9045   */\n      tag_147\n      jump\t// in\n    tag_277:\n        /* \"#utility.yul\":8929:9045   */\n      swap1\n      pop\n        /* \"#utility.yul\":8679:9052   */\n      swap3\n      swap2\n      pop\n      pop\n      jump\t// out\n        /* \"#utility.yul\":9108:9714   */\n    tag_148:\n        /* \"#utility.yul\":9219:9222   */\n      0x00\n        /* \"#utility.yul\":9255:9259   */\n      0x40\n        /* \"#utility.yul\":9250:9253   */\n      dup4\n        /* \"#utility.yul\":9246:9260   */\n      add\n        /* \"#utility.yul\":9342:9346   */\n      0x00\n        /* \"#utility.yul\":9335:9340   */\n      dup4\n        /* \"#utility.yul\":9331:9347   */\n      add\n        /* \"#utility.yul\":9325:9348   */\n      mload\n        /* \"#utility.yul\":9395:9398   */\n      dup5\n        /* \"#utility.yul\":9389:9393   */\n      dup3\n        /* \"#utility.yul\":9385:9399   */\n      sub\n        /* \"#utility.yul\":9378:9382   */\n      0x00\n        /* \"#utility.yul\":9373:9376   */\n      dup7\n        /* \"#utility.yul\":9369:9383   */\n      add\n        /* \"#utility.yul\":9362:9400   */\n      mstore\n        /* \"#utility.yul\":9421:9494   */\n      tag_279\n        /* \"#utility.yul\":9489:9493   */\n      dup3\n        /* \"#utility.yul\":9475:9487   */\n      dup3\n        /* \"#utility.yul\":9421:9494   */\n      tag_145\n      jump\t// in\n    tag_279:\n        /* \"#utility.yul\":9413:9494   */\n      swap2\n      pop\n        /* \"#utility.yul\":9270:9505   */\n      pop\n        /* \"#utility.yul\":9595:9599   */\n      0x20\n        /* \"#utility.yul\":9588:9593   */\n      dup4\n        /* \"#utility.yul\":9584:9600   */\n      add\n        /* \"#utility.yul\":9578:9601   */\n      mload\n        /* \"#utility.yul\":9614:9677   */\n      tag_280\n        /* \"#utility.yul\":9671:9675   */\n      0x20\n        /* \"#utility.yul\":9666:9669   */\n      dup7\n        /* \"#utility.yul\":9662:9676   */\n      add\n        /* \"#utility.yul\":9648:9660   */\n      dup3\n        /* \"#utility.yul\":9614:9677   */\n      tag_146\n      jump\t// in\n    tag_280:\n        /* \"#utility.yul\":9515:9687   */\n      pop\n        /* \"#utility.yul\":9704:9708   */\n      dup1\n        /* \"#utility.yul\":9697:9708   */\n      swap2\n      pop\n        /* \"#utility.yul\":9224:9714   */\n      pop\n        /* \"#utility.yul\":9108:9714   */\n      swap3\n      swap2\n      pop\n      pop\n      jump\t// out\n        /* \"#utility.yul\":9720:10077   */\n    tag_37:\n        /* \"#utility.yul\":9855:9859   */\n      0x00\n        /* \"#utility.yul\":9893:9895   */\n      0x20\n        /* \"#utility.yul\":9882:9891   */\n      dup3\n        /* \"#utility.yul\":9878:9896   */\n      add\n        /* \"#utility.yul\":9870:9896   */\n      swap1\n      pop\n        /* \"#utility.yul\":9942:9951   */\n      dup2\n        /* \"#utility.yul\":9936:9940   */\n      dup2\n        /* \"#utility.yul\":9932:9952   */\n      sub\n        /* \"#utility.yul\":9928:9929   */\n      0x00\n        /* \"#utility.yul\":9917:9926   */\n      dup4\n        /* \"#utility.yul\":9913:9930   */\n      add\n        /* \"#utility.yul\":9906:9953   */\n      mstore\n        /* \"#utility.yul\":9970:10070   */\n      tag_282\n        /* \"#utility.yul\":10065:10069   */\n      dup2\n        /* \"#utility.yul\":10056:10062   */\n      dup5\n        /* \"#utility.yul\":9970:10070   */\n      tag_148\n      jump\t// in\n    tag_282:\n        /* \"#utility.yul\":9962:10070   */\n      swap1\n      pop\n        /* \"#utility.yul\":9720:10077   */\n      swap3\n      swap2\n      pop\n      pop\n      jump\t// out\n        /* \"#utility.yul\":10083:10252   */\n    tag_149:\n        /* \"#utility.yul\":10167:10178   */\n      0x00\n        /* \"#utility.yul\":10201:10207   */\n      dup3\n        /* \"#utility.yul\":10196:10199   */\n      dup3\n        /* \"#utility.yul\":10189:10208   */\n      mstore\n        /* \"#utility.yul\":10241:10245   */\n      0x20\n        /* \"#utility.yul\":10236:10239   */\n      dup3\n        /* \"#utility.yul\":10232:10246   */\n      add\n        /* \"#utility.yul\":10217:10246   */\n      swap1\n      pop\n        /* \"#utility.yul\":10083:10252   */\n      swap3\n      swap2\n      pop\n      pop\n      jump\t// out\n        /* \"#utility.yul\":10258:10482   */\n    tag_150:\n        /* \"#utility.yul\":10398:10432   */\n      0x4f6e6c792061646d696e20697320616c6c6f77656420746f20656e6420656c65\n        /* \"#utility.yul\":10394:10395   */\n      0x00\n        /* \"#utility.yul\":10386:10392   */\n      dup3\n        /* \"#utility.yul\":10382:10396   */\n      add\n        /* \"#utility.yul\":10375:10433   */\n      mstore\n        /* \"#utility.yul\":10467:10474   */\n      0x6374696f6e000000000000000000000000000000000000000000000000000000\n        /* \"#utility.yul\":10462:10464   */\n      0x20\n        /* \"#utility.yul\":10454:10460   */\n      dup3\n        /* \"#utility.yul\":10450:10465   */\n      add\n        /* \"#utility.yul\":10443:10475   */\n      mstore\n        /* \"#utility.yul\":10258:10482   */\n      pop\n      jump\t// out\n        /* \"#utility.yul\":10488:10854   */\n    tag_151:\n        /* \"#utility.yul\":10630:10633   */\n      0x00\n        /* \"#utility.yul\":10651:10718   */\n      tag_286\n        /* \"#utility.yul\":10715:10717   */\n      0x25\n        /* \"#utility.yul\":10710:10713   */\n      dup4\n        /* \"#utility.yul\":10651:10718   */\n      tag_149\n      jump\t// in\n    tag_286:\n        /* \"#utility.yul\":10644:10718   */\n      swap2\n      pop\n        /* \"#utility.yul\":10727:10820   */\n      tag_287\n        /* \"#utility.yul\":10816:10819   */\n      dup3\n        /* \"#utility.yul\":10727:10820   */\n      tag_150\n      jump\t// in\n    tag_287:\n        /* \"#utility.yul\":10845:10847   */\n      0x40\n        /* \"#utility.yul\":10840:10843   */\n      dup3\n        /* \"#utility.yul\":10836:10848   */\n      add\n        /* \"#utility.yul\":10829:10848   */\n      swap1\n      pop\n        /* \"#utility.yul\":10488:10854   */\n      swap2\n      swap1\n      pop\n      jump\t// out\n        /* \"#utility.yul\":10860:11279   */\n    tag_44:\n        /* \"#utility.yul\":11026:11030   */\n      0x00\n        /* \"#utility.yul\":11064:11066   */\n      0x20\n        /* \"#utility.yul\":11053:11062   */\n      dup3\n        /* \"#utility.yul\":11049:11067   */\n      add\n        /* \"#utility.yul\":11041:11067   */\n      swap1\n      pop\n        /* \"#utility.yul\":11113:11122   */\n      dup2\n        /* \"#utility.yul\":11107:11111   */\n      dup2\n        /* \"#utility.yul\":11103:11123   */\n      sub\n        /* \"#utility.yul\":11099:11100   */\n      0x00\n        /* \"#utility.yul\":11088:11097   */\n      dup4\n        /* \"#utility.yul\":11084:11101   */\n      add\n        /* \"#utility.yul\":11077:11124   */\n      mstore\n        /* \"#utility.yul\":11141:11272   */\n      tag_289\n        /* \"#utility.yul\":11267:11271   */\n      dup2\n        /* \"#utility.yul\":11141:11272   */\n      tag_151\n      jump\t// in\n    tag_289:\n        /* \"#utility.yul\":11133:11272   */\n      swap1\n      pop\n        /* \"#utility.yul\":10860:11279   */\n      swap2\n      swap1\n      pop\n      jump\t// out\n        /* \"#utility.yul\":11285:11458   */\n    tag_152:\n        /* \"#utility.yul\":11425:11450   */\n      0x656c656374696f6e206973206e6f742073746172746564000000000000000000\n        /* \"#utility.yul\":11421:11422   */\n      0x00\n        /* \"#utility.yul\":11413:11419   */\n      dup3\n        /* \"#utility.yul\":11409:11423   */\n      add\n        /* \"#utility.yul\":11402:11451   */\n      mstore\n        /* \"#utility.yul\":11285:11458   */\n      pop\n      jump\t// out\n        /* \"#utility.yul\":11464:11830   */\n    tag_153:\n        /* \"#utility.yul\":11606:11609   */\n      0x00\n        /* \"#utility.yul\":11627:11694   */\n      tag_292\n        /* \"#utility.yul\":11691:11693   */\n      0x17\n        /* \"#utility.yul\":11686:11689   */\n      dup4\n        /* \"#utility.yul\":11627:11694   */\n      tag_149\n      jump\t// in\n    tag_292:\n        /* \"#utility.yul\":11620:11694   */\n      swap2\n      pop\n        /* \"#utility.yul\":11703:11796   */\n      tag_293\n        /* \"#utility.yul\":11792:11795   */\n      dup3\n        /* \"#utility.yul\":11703:11796   */\n      tag_152\n      jump\t// in\n    tag_293:\n        /* \"#utility.yul\":11821:11823   */\n      0x20\n        /* \"#utility.yul\":11816:11819   */\n      dup3\n        /* \"#utility.yul\":11812:11824   */\n      add\n        /* \"#utility.yul\":11805:11824   */\n      swap1\n      pop\n        /* \"#utility.yul\":11464:11830   */\n      swap2\n      swap1\n      pop\n      jump\t// out\n        /* \"#utility.yul\":11836:12255   */\n    tag_52:\n        /* \"#utility.yul\":12002:12006   */\n      0x00\n        /* \"#utility.yul\":12040:12042   */\n      0x20\n        /* \"#utility.yul\":12029:12038   */\n      dup3\n        /* \"#utility.yul\":12025:12043   */\n      add\n        /* \"#utility.yul\":12017:12043   */\n      swap1\n      pop\n        /* \"#utility.yul\":12089:12098   */\n      dup2\n        /* \"#utility.yul\":12083:12087   */\n      dup2\n        /* \"#utility.yul\":12079:12099   */\n      sub\n        /* \"#utility.yul\":12075:12076   */\n      0x00\n        /* \"#utility.yul\":12064:12073   */\n      dup4\n        /* \"#utility.yul\":12060:12077   */\n      add\n        /* \"#utility.yul\":12053:12100   */\n      mstore\n        /* \"#utility.yul\":12117:12248   */\n      tag_295\n        /* \"#utility.yul\":12243:12247   */\n      dup2\n        /* \"#utility.yul\":12117:12248   */\n      tag_153\n      jump\t// in\n    tag_295:\n        /* \"#utility.yul\":12109:12248   */\n      swap1\n      pop\n        /* \"#utility.yul\":11836:12255   */\n      swap2\n      swap1\n      pop\n      jump\t// out\n        /* \"#utility.yul\":12261:12486   */\n    tag_154:\n        /* \"#utility.yul\":12401:12435   */\n      0x4f6e6c792061646d696e20697320616c6c6f77656420746f206164642063616e\n        /* \"#utility.yul\":12397:12398   */\n      0x00\n        /* \"#utility.yul\":12389:12395   */\n      dup3\n        /* \"#utility.yul\":12385:12399   */\n      add\n        /* \"#utility.yul\":12378:12436   */\n      mstore\n        /* \"#utility.yul\":12470:12478   */\n      0x6469646174650000000000000000000000000000000000000000000000000000\n        /* \"#utility.yul\":12465:12467   */\n      0x20\n        /* \"#utility.yul\":12457:12463   */\n      dup3\n        /* \"#utility.yul\":12453:12468   */\n      add\n        /* \"#utility.yul\":12446:12479   */\n      mstore\n        /* \"#utility.yul\":12261:12486   */\n      pop\n      jump\t// out\n        /* \"#utility.yul\":12492:12858   */\n    tag_155:\n        /* \"#utility.yul\":12634:12637   */\n      0x00\n        /* \"#utility.yul\":12655:12722   */\n      tag_298\n        /* \"#utility.yul\":12719:12721   */\n      0x26\n        /* \"#utility.yul\":12714:12717   */\n      dup4\n        /* \"#utility.yul\":12655:12722   */\n      tag_149\n      jump\t// in\n    tag_298:\n        /* \"#utility.yul\":12648:12722   */\n      swap2\n      pop\n        /* \"#utility.yul\":12731:12824   */\n      tag_299\n        /* \"#utility.yul\":12820:12823   */\n      dup3\n        /* \"#utility.yul\":12731:12824   */\n      tag_154\n      jump\t// in\n    tag_299:\n        /* \"#utility.yul\":12849:12851   */\n      0x40\n        /* \"#utility.yul\":12844:12847   */\n      dup3\n        /* \"#utility.yul\":12840:12852   */\n      add\n        /* \"#utility.yul\":12833:12852   */\n      swap1\n      pop\n        /* \"#utility.yul\":12492:12858   */\n      swap2\n      swap1\n      pop\n      jump\t// out\n        /* \"#utility.yul\":12864:13283   */\n    tag_58:\n        /* \"#utility.yul\":13030:13034   */\n      0x00\n        /* \"#utility.yul\":13068:13070   */\n      0x20\n        /* \"#utility.yul\":13057:13066   */\n      dup3\n        /* \"#utility.yul\":13053:13071   */\n      add\n        /* \"#utility.yul\":13045:13071   */\n      swap1\n      pop\n        /* \"#utility.yul\":13117:13126   */\n      dup2\n        /* \"#utility.yul\":13111:13115   */\n      dup2\n        /* \"#utility.yul\":13107:13127   */\n      sub\n        /* \"#utility.yul\":13103:13104   */\n      0x00\n        /* \"#utility.yul\":13092:13101   */\n      dup4\n        /* \"#utility.yul\":13088:13105   */\n      add\n        /* \"#utility.yul\":13081:13128   */\n      mstore\n        /* \"#utility.yul\":13145:13276   */\n      tag_301\n        /* \"#utility.yul\":13271:13275   */\n      dup2\n        /* \"#utility.yul\":13145:13276   */\n      tag_155\n      jump\t// in\n    tag_301:\n        /* \"#utility.yul\":13137:13276   */\n      swap1\n      pop\n        /* \"#utility.yul\":12864:13283   */\n      swap2\n      swap1\n      pop\n      jump\t// out\n        /* \"#utility.yul\":13289:13463   */\n    tag_156:\n        /* \"#utility.yul\":13429:13455   */\n      0x456c656374696f6e20616c726561647920737461727465640000000000000000\n        /* \"#utility.yul\":13425:13426   */\n      0x00\n        /* \"#utility.yul\":13417:13423   */\n      dup3\n        /* \"#utility.yul\":13413:13427   */\n      add\n        /* \"#utility.yul\":13406:13456   */\n      mstore\n        /* \"#utility.yul\":13289:13463   */\n      pop\n      jump\t// out\n        /* \"#utility.yul\":13469:13835   */\n    tag_157:\n        /* \"#utility.yul\":13611:13614   */\n      0x00\n        /* \"#utility.yul\":13632:13699   */\n      tag_304\n        /* \"#utility.yul\":13696:13698   */\n      0x18\n        /* \"#utility.yul\":13691:13694   */\n      dup4\n        /* \"#utility.yul\":13632:13699   */\n      tag_149\n      jump\t// in\n    tag_304:\n        /* \"#utility.yul\":13625:13699   */\n      swap2\n      pop\n        /* \"#utility.yul\":13708:13801   */\n      tag_305\n        /* \"#utility.yul\":13797:13800   */\n      dup3\n        /* \"#utility.yul\":13708:13801   */\n      tag_156\n      jump\t// in\n    tag_305:\n        /* \"#utility.yul\":13826:13828   */\n      0x20\n        /* \"#utility.yul\":13821:13824   */\n      dup3\n        /* \"#utility.yul\":13817:13829   */\n      add\n        /* \"#utility.yul\":13810:13829   */\n      swap1\n      pop\n        /* \"#utility.yul\":13469:13835   */\n      swap2\n      swap1\n      pop\n      jump\t// out\n        /* \"#utility.yul\":13841:14260   */\n    tag_70:\n        /* \"#utility.yul\":14007:14011   */\n      0x00\n        /* \"#utility.yul\":14045:14047   */\n      0x20\n        /* \"#utility.yul\":14034:14043   */\n      dup3\n        /* \"#utility.yul\":14030:14048   */\n      add\n        /* \"#utility.yul\":14022:14048   */\n      swap1\n      pop\n        /* \"#utility.yul\":14094:14103   */\n      dup2\n        /* \"#utility.yul\":14088:14092   */\n      dup2\n        /* \"#utility.yul\":14084:14104   */\n      sub\n        /* \"#utility.yul\":14080:14081   */\n      0x00\n        /* \"#utility.yul\":14069:14078   */\n      dup4\n        /* \"#utility.yul\":14065:14082   */\n      add\n        /* \"#utility.yul\":14058:14105   */\n      mstore\n        /* \"#utility.yul\":14122:14253   */\n      tag_307\n        /* \"#utility.yul\":14248:14252   */\n      dup2\n        /* \"#utility.yul\":14122:14253   */\n      tag_157\n      jump\t// in\n    tag_307:\n        /* \"#utility.yul\":14114:14253   */\n      swap1\n      pop\n        /* \"#utility.yul\":13841:14260   */\n      swap2\n      swap1\n      pop\n      jump\t// out\n        /* \"#utility.yul\":14266:14446   */\n    tag_158:\n        /* \"#utility.yul\":14314:14391   */\n      0x4e487b7100000000000000000000000000000000000000000000000000000000\n        /* \"#utility.yul\":14311:14312   */\n      0x00\n        /* \"#utility.yul\":14304:14392   */\n      mstore\n        /* \"#utility.yul\":14411:14415   */\n      0x11\n        /* \"#utility.yul\":14408:14409   */\n      0x04\n        /* \"#utility.yul\":14401:14416   */\n      mstore\n        /* \"#utility.yul\":14435:14439   */\n      0x24\n        /* \"#utility.yul\":14432:14433   */\n      0x00\n        /* \"#utility.yul\":14425:14440   */\n      revert\n        /* \"#utility.yul\":14452:14619   */\n    tag_72:\n        /* \"#utility.yul\":14489:14492   */\n      0x00\n        /* \"#utility.yul\":14512:14534   */\n      tag_310\n        /* \"#utility.yul\":14528:14533   */\n      dup3\n        /* \"#utility.yul\":14512:14534   */\n      tag_139\n      jump\t// in\n    tag_310:\n        /* \"#utility.yul\":14503:14534   */\n      swap2\n      pop\n        /* \"#utility.yul\":14556:14560   */\n      0xff\n        /* \"#utility.yul\":14549:14554   */\n      dup3\n        /* \"#utility.yul\":14546:14561   */\n      sub\n        /* \"#utility.yul\":14543:14584   */\n      tag_311\n      jumpi\n        /* \"#utility.yul\":14564:14582   */\n      tag_312\n      tag_158\n      jump\t// in\n    tag_312:\n        /* \"#utility.yul\":14543:14584   */\n    tag_311:\n        /* \"#utility.yul\":14611:14612   */\n      0x01\n        /* \"#utility.yul\":14604:14609   */\n      dup3\n        /* \"#utility.yul\":14600:14613   */\n      add\n        /* \"#utility.yul\":14593:14613   */\n      swap1\n      pop\n        /* \"#utility.yul\":14452:14619   */\n      swap2\n      swap1\n      pop\n      jump\t// out\n        /* \"#utility.yul\":14625:14805   */\n    tag_159:\n        /* \"#utility.yul\":14673:14750   */\n      0x4e487b7100000000000000000000000000000000000000000000000000000000\n        /* \"#utility.yul\":14670:14671   */\n      0x00\n        /* \"#utility.yul\":14663:14751   */\n      mstore\n        /* \"#utility.yul\":14770:14774   */\n      0x22\n        /* \"#utility.yul\":14767:14768   */\n      0x04\n        /* \"#utility.yul\":14760:14775   */\n      mstore\n        /* \"#utility.yul\":14794:14798   */\n      0x24\n        /* \"#utility.yul\":14791:14792   */\n      0x00\n        /* \"#utility.yul\":14784:14799   */\n      revert\n        /* \"#utility.yul\":14811:15131   */\n    tag_83:\n        /* \"#utility.yul\":14855:14861   */\n      0x00\n        /* \"#utility.yul\":14892:14893   */\n      0x02\n        /* \"#utility.yul\":14886:14890   */\n      dup3\n        /* \"#utility.yul\":14882:14894   */\n      div\n        /* \"#utility.yul\":14872:14894   */\n      swap1\n      pop\n        /* \"#utility.yul\":14939:14940   */\n      0x01\n        /* \"#utility.yul\":14933:14937   */\n      dup3\n        /* \"#utility.yul\":14929:14941   */\n      and\n        /* \"#utility.yul\":14960:14978   */\n      dup1\n        /* \"#utility.yul\":14950:15031   */\n      tag_315\n      jumpi\n        /* \"#utility.yul\":15016:15020   */\n      0x7f\n        /* \"#utility.yul\":15008:15014   */\n      dup3\n        /* \"#utility.yul\":15004:15021   */\n      and\n        /* \"#utility.yul\":14994:15021   */\n      swap2\n      pop\n        /* \"#utility.yul\":14950:15031   */\n    tag_315:\n        /* \"#utility.yul\":15078:15080   */\n      0x20\n        /* \"#utility.yul\":15070:15076   */\n      dup3\n        /* \"#utility.yul\":15067:15081   */\n      lt\n        /* \"#utility.yul\":15047:15065   */\n      dup2\n        /* \"#utility.yul\":15044:15082   */\n      sub\n        /* \"#utility.yul\":15041:15125   */\n      tag_316\n      jumpi\n        /* \"#utility.yul\":15097:15115   */\n      tag_317\n      tag_159\n      jump\t// in\n    tag_317:\n        /* \"#utility.yul\":15041:15125   */\n    tag_316:\n        /* \"#utility.yul\":14862:15131   */\n      pop\n        /* \"#utility.yul\":14811:15131   */\n      swap2\n      swap1\n      pop\n      jump\t// out\n        /* \"#utility.yul\":15137:15278   */\n    tag_160:\n        /* \"#utility.yul\":15186:15190   */\n      0x00\n        /* \"#utility.yul\":15209:15212   */\n      dup2\n        /* \"#utility.yul\":15201:15212   */\n      swap1\n      pop\n        /* \"#utility.yul\":15232:15235   */\n      dup2\n        /* \"#utility.yul\":15229:15230   */\n      0x00\n        /* \"#utility.yul\":15222:15236   */\n      mstore\n        /* \"#utility.yul\":15266:15270   */\n      0x20\n        /* \"#utility.yul\":15263:15264   */\n      0x00\n        /* \"#utility.yul\":15253:15271   */\n      keccak256\n        /* \"#utility.yul\":15245:15271   */\n      swap1\n      pop\n        /* \"#utility.yul\":15137:15278   */\n      swap2\n      swap1\n      pop\n      jump\t// out\n        /* \"#utility.yul\":15284:15377   */\n    tag_161:\n        /* \"#utility.yul\":15321:15327   */\n      0x00\n        /* \"#utility.yul\":15368:15370   */\n      0x20\n        /* \"#utility.yul\":15363:15365   */\n      0x1f\n        /* \"#utility.yul\":15356:15361   */\n      dup4\n        /* \"#utility.yul\":15352:15366   */\n      add\n        /* \"#utility.yul\":15348:15371   */\n      div\n        /* \"#utility.yul\":15338:15371   */\n      swap1\n      pop\n        /* \"#utility.yul\":15284:15377   */\n      swap2\n      swap1\n      pop\n      jump\t// out\n        /* \"#utility.yul\":15383:15490   */\n    tag_162:\n        /* \"#utility.yul\":15427:15435   */\n      0x00\n        /* \"#utility.yul\":15477:15482   */\n      dup3\n        /* \"#utility.yul\":15471:15475   */\n      dup3\n        /* \"#utility.yul\":15467:15483   */\n      shl\n        /* \"#utility.yul\":15446:15483   */\n      swap1\n      pop\n        /* \"#utility.yul\":15383:15490   */\n      swap3\n      swap2\n      pop\n      pop\n      jump\t// out\n        /* \"#utility.yul\":15496:15889   */\n    tag_163:\n        /* \"#utility.yul\":15565:15571   */\n      0x00\n        /* \"#utility.yul\":15615:15616   */\n      0x08\n        /* \"#utility.yul\":15603:15613   */\n      dup4\n        /* \"#utility.yul\":15599:15617   */\n      mul\n        /* \"#utility.yul\":15638:15735   */\n      tag_322\n        /* \"#utility.yul\":15668:15734   */\n      0xffffffffffffffffffffffffffffffffffffffffffffffffffffffffffffffff\n        /* \"#utility.yul\":15657:15666   */\n      dup3\n        /* \"#utility.yul\":15638:15735   */\n      tag_162\n      jump\t// in\n    tag_322:\n        /* \"#utility.yul\":15756:15795   */\n      tag_323\n        /* \"#utility.yul\":15786:15794   */\n      dup7\n        /* \"#utility.yul\":15775:15784   */\n      dup4\n        /* \"#utility.yul\":15756:15795   */\n      tag_162\n      jump\t// in\n    tag_323:\n        /* \"#utility.yul\":15744:15795   */\n      swap6\n      pop\n        /* \"#utility.yul\":15828:15832   */\n      dup1\n        /* \"#utility.yul\":15824:15833   */\n      not\n        /* \"#utility.yul\":15817:15822   */\n      dup5\n        /* \"#utility.yul\":15813:15834   */\n      and\n        /* \"#utility.yul\":15804:15834   */\n      swap4\n      pop\n        /* \"#utility.yul\":15877:15881   */\n      dup1\n        /* \"#utility.yul\":15867:15875   */\n      dup7\n        /* \"#utility.yul\":15863:15882   */\n      and\n        /* \"#utility.yul\":15856:15861   */\n      dup5\n        /* \"#utility.yul\":15853:15883   */\n      or\n        /* \"#utility.yul\":15843:15883   */\n      swap3\n      pop\n        /* \"#utility.yul\":15572:15889   */\n      pop\n      pop\n        /* \"#utility.yul\":15496:15889   */\n      swap4\n      swap3\n      pop\n      pop\n      pop\n      jump\t// out\n        /* \"#utility.yul\":15895:15972   */\n    tag_164:\n        /* \"#utility.yul\":15932:15939   */\n      0x00\n        /* \"#utility.yul\":15961:15966   */\n      dup2\n        /* \"#utility.yul\":15950:15966   */\n      swap1\n      pop\n        /* \"#utility.yul\":15895:15972   */\n      swap2\n      swap1\n      pop\n      jump\t// out\n        /* \"#utility.yul\":15978:16038   */\n    tag_165:\n        /* \"#utility.yul\":16006:16009   */\n      0x00\n        /* \"#utility.yul\":16027:16032   */\n      dup2\n        /* \"#utility.yul\":16020:16032   */\n      swap1\n      pop\n        /* \"#utility.yul\":15978:16038   */\n      swap2\n      swap1\n      pop\n      jump\t// out\n        /* \"#utility.yul\":16044:16186   */\n    tag_166:\n        /* \"#utility.yul\":16094:16103   */\n      0x00\n        /* \"#utility.yul\":16127:16180   */\n      tag_327\n        /* \"#utility.yul\":16145:16179   */\n      tag_328\n        /* \"#utility.yul\":16154:16178   */\n      tag_329\n        /* \"#utility.yul\":16172:16177   */\n      dup5\n        /* \"#utility.yul\":16154:16178   */\n      tag_164\n      jump\t// in\n    tag_329:\n        /* \"#utility.yul\":16145:16179   */\n      tag_165\n      jump\t// in\n    tag_328:\n        /* \"#utility.yul\":16127:16180   */\n      tag_164\n      jump\t// in\n    tag_327:\n        /* \"#utility.yul\":16114:16180   */\n      swap1\n      pop\n        /* \"#utility.yul\":16044:16186   */\n      swap2\n      swap1\n      pop\n      jump\t// out\n        /* \"#utility.yul\":16192:16267   */\n    tag_167:\n        /* \"#utility.yul\":16235:16238   */\n      0x00\n        /* \"#utility.yul\":16256:16261   */\n      dup2\n        /* \"#utility.yul\":16249:16261   */\n      swap1\n      pop\n        /* \"#utility.yul\":16192:16267   */\n      swap2\n      swap1\n      pop\n      jump\t// out\n        /* \"#utility.yul\":16273:16542   */\n    tag_168:\n        /* \"#utility.yul\":16383:16422   */\n      tag_332\n        /* \"#utility.yul\":16414:16421   */\n      dup4\n        /* \"#utility.yul\":16383:16422   */\n      tag_166\n      jump\t// in\n    tag_332:\n        /* \"#utility.yul\":16444:16535   */\n      tag_333\n        /* \"#utility.yul\":16493:16534   */\n      tag_334\n        /* \"#utility.yul\":16517:16533   */\n      dup3\n        /* \"#utility.yul\":16493:16534   */\n      tag_167\n      jump\t// in\n    tag_334:\n        /* \"#utility.yul\":16485:16491   */\n      dup5\n        /* \"#utility.yul\":16478:16482   */\n      dup5\n        /* \"#utility.yul\":16472:16483   */\n      sload\n        /* \"#utility.yul\":16444:16535   */\n      tag_163\n      jump\t// in\n    tag_333:\n        /* \"#utility.yul\":16438:16442   */\n      dup3\n        /* \"#utility.yul\":16431:16536   */\n      sstore\n        /* \"#utility.yul\":16349:16542   */\n      pop\n        /* \"#utility.yul\":16273:16542   */\n      pop\n      pop\n      pop\n      jump\t// out\n        /* \"#utility.yul\":16548:16621   */\n    tag_169:\n        /* \"#utility.yul\":16593:16596   */\n      0x00\n        /* \"#utility.yul\":16548:16621   */\n      swap1\n      jump\t// out\n        /* \"#utility.yul\":16627:16816   */\n    tag_170:\n        /* \"#utility.yul\":16704:16736   */\n      tag_337\n      tag_169\n      jump\t// in\n    tag_337:\n        /* \"#utility.yul\":16745:16810   */\n      tag_338\n        /* \"#utility.yul\":16803:16809   */\n      dup2\n        /* \"#utility.yul\":16795:16801   */\n      dup5\n        /* \"#utility.yul\":16789:16793   */\n      dup5\n        /* \"#utility.yul\":16745:16810   */\n      tag_168\n      jump\t// in\n    tag_338:\n        /* \"#utility.yul\":16680:16816   */\n      pop\n        /* \"#utility.yul\":16627:16816   */\n      pop\n      pop\n      jump\t// out\n        /* \"#utility.yul\":16822:17008   */\n    tag_171:\n        /* \"#utility.yul\":16882:17002   */\n    tag_340:\n        /* \"#utility.yul\":16899:16902   */\n      dup2\n        /* \"#utility.yul\":16892:16897   */\n      dup2\n        /* \"#utility.yul\":16889:16903   */\n      lt\n        /* \"#utility.yul\":16882:17002   */\n      iszero\n      tag_342\n      jumpi\n        /* \"#utility.yul\":16953:16992   */\n      tag_343\n        /* \"#utility.yul\":16990:16991   */\n      0x00\n        /* \"#utility.yul\":16983:16988   */\n      dup3\n        /* \"#utility.yul\":16953:16992   */\n      tag_170\n      jump\t// in\n    tag_343:\n        /* \"#utility.yul\":16926:16927   */\n      0x01\n        /* \"#utility.yul\":16919:16924   */\n      dup2\n        /* \"#utility.yul\":16915:16928   */\n      add\n        /* \"#utility.yul\":16906:16928   */\n      swap1\n      pop\n        /* \"#utility.yul\":16882:17002   */\n      jump(tag_340)\n    tag_342:\n        /* \"#utility.yul\":16822:17008   */\n      pop\n      pop\n      jump\t// out\n        /* \"#utility.yul\":17014:17557   */\n    tag_172:\n        /* \"#utility.yul\":17115:17117   */\n      0x1f\n        /* \"#utility.yul\":17110:17113   */\n      dup3\n        /* \"#utility.yul\":17107:17118   */\n      gt\n        /* \"#utility.yul\":17104:17550   */\n      iszero\n      tag_345\n      jumpi\n        /* \"#utility.yul\":17149:17187   */\n      tag_346\n        /* \"#utility.yul\":17181:17186   */\n      dup2\n        /* \"#utility.yul\":17149:17187   */\n      tag_160\n      jump\t// in\n    tag_346:\n        /* \"#utility.yul\":17233:17262   */\n      tag_347\n        /* \"#utility.yul\":17251:17261   */\n      dup5\n        /* \"#utility.yul\":17233:17262   */\n      tag_161\n      jump\t// in\n    tag_347:\n        /* \"#utility.yul\":17223:17231   */\n      dup2\n        /* \"#utility.yul\":17219:17263   */\n      add\n        /* \"#utility.yul\":17416:17418   */\n      0x20\n        /* \"#utility.yul\":17404:17414   */\n      dup6\n        /* \"#utility.yul\":17401:17419   */\n      lt\n        /* \"#utility.yul\":17398:17447   */\n      iszero\n      tag_348\n      jumpi\n        /* \"#utility.yul\":17437:17445   */\n      dup2\n        /* \"#utility.yul\":17422:17445   */\n      swap1\n      pop\n        /* \"#utility.yul\":17398:17447   */\n    tag_348:\n        /* \"#utility.yul\":17460:17540   */\n      tag_349\n        /* \"#utility.yul\":17516:17538   */\n      tag_350\n        /* \"#utility.yul\":17534:17537   */\n      dup6\n        /* \"#utility.yul\":17516:17538   */\n      tag_161\n      jump\t// in\n    tag_350:\n        /* \"#utility.yul\":17506:17514   */\n      dup4\n        /* \"#utility.yul\":17502:17539   */\n      add\n        /* \"#utility.yul\":17489:17500   */\n      dup3\n        /* \"#utility.yul\":17460:17540   */\n      tag_171\n      jump\t// in\n    tag_349:\n        /* \"#utility.yul\":17119:17550   */\n      pop\n      pop\n        /* \"#utility.yul\":17104:17550   */\n    tag_345:\n        /* \"#utility.yul\":17014:17557   */\n      pop\n      pop\n      pop\n      jump\t// out\n        /* \"#utility.yul\":17563:17680   */\n    tag_173:\n        /* \"#utility.yul\":17617:17625   */\n      0x00\n        /* \"#utility.yul\":17667:17672   */\n      dup3\n        /* \"#utility.yul\":17661:17665   */\n      dup3\n        /* \"#utility.yul\":17657:17673   */\n      shr\n        /* \"#utility.yul\":17636:17673   */\n      swap1\n      pop\n        /* \"#utility.yul\":17563:17680   */\n      swap3\n      swap2\n      pop\n      pop\n      jump\t// out\n        /* \"#utility.yul\":17686:17855   */\n    tag_174:\n        /* \"#utility.yul\":17730:17736   */\n      0x00\n        /* \"#utility.yul\":17763:17814   */\n      tag_353\n        /* \"#utility.yul\":17811:17812   */\n      0x00\n        /* \"#utility.yul\":17807:17813   */\n      not\n        /* \"#utility.yul\":17799:17804   */\n      dup5\n        /* \"#utility.yul\":17796:17797   */\n      0x08\n        /* \"#utility.yul\":17792:17805   */\n      mul\n        /* \"#utility.yul\":17763:17814   */\n      tag_173\n      jump\t// in\n    tag_353:\n        /* \"#utility.yul\":17759:17815   */\n      not\n        /* \"#utility.yul\":17844:17848   */\n      dup1\n        /* \"#utility.yul\":17838:17842   */\n      dup4\n        /* \"#utility.yul\":17834:17849   */\n      and\n        /* \"#utility.yul\":17824:17849   */\n      swap2\n      pop\n        /* \"#utility.yul\":17737:17855   */\n      pop\n        /* \"#utility.yul\":17686:17855   */\n      swap3\n      swap2\n      pop\n      pop\n      jump\t// out\n        /* \"#utility.yul\":17860:18155   */\n    tag_175:\n        /* \"#utility.yul\":17936:17940   */\n      0x00\n        /* \"#utility.yul\":18082:18111   */\n      tag_355\n        /* \"#utility.yul\":18107:18110   */\n      dup4\n        /* \"#utility.yul\":18101:18105   */\n      dup4\n        /* \"#utility.yul\":18082:18111   */\n      tag_174\n      jump\t// in\n    tag_355:\n        /* \"#utility.yul\":18074:18111   */\n      swap2\n      pop\n        /* \"#utility.yul\":18144:18147   */\n      dup3\n        /* \"#utility.yul\":18141:18142   */\n      0x02\n        /* \"#utility.yul\":18137:18148   */\n      mul\n        /* \"#utility.yul\":18131:18135   */\n      dup3\n        /* \"#utility.yul\":18128:18149   */\n      or\n        /* \"#utility.yul\":18120:18149   */\n      swap1\n      pop\n        /* \"#utility.yul\":17860:18155   */\n      swap3\n      swap2\n      pop\n      pop\n      jump\t// out\n        /* \"#utility.yul\":18160:19555   */\n    tag_74:\n        /* \"#utility.yul\":18277:18314   */\n      tag_357\n        /* \"#utility.yul\":18310:18313   */\n      dup3\n        /* \"#utility.yul\":18277:18314   */\n      tag_142\n      jump\t// in\n    tag_357:\n        /* \"#utility.yul\":18379:18397   */\n      0xffffffffffffffff\n        /* \"#utility.yul\":18371:18377   */\n      dup2\n        /* \"#utility.yul\":18368:18398   */\n      gt\n        /* \"#utility.yul\":18365:18421   */\n      iszero\n      tag_358\n      jumpi\n        /* \"#utility.yul\":18401:18419   */\n      tag_359\n      tag_128\n      jump\t// in\n    tag_359:\n        /* \"#utility.yul\":18365:18421   */\n    tag_358:\n        /* \"#utility.yul\":18445:18483   */\n      tag_360\n        /* \"#utility.yul\":18477:18481   */\n      dup3\n        /* \"#utility.yul\":18471:18482   */\n      sload\n        /* \"#utility.yul\":18445:18483   */\n      tag_83\n      jump\t// in\n    tag_360:\n        /* \"#utility.yul\":18530:18597   */\n      tag_361\n        /* \"#utility.yul\":18590:18596   */\n      dup3\n        /* \"#utility.yul\":18582:18588   */\n      dup3\n        /* \"#utility.yul\":18576:18580   */\n      dup6\n        /* \"#utility.yul\":18530:18597   */\n      tag_172\n      jump\t// in\n    tag_361:\n        /* \"#utility.yul\":18624:18625   */\n      0x00\n        /* \"#utility.yul\":18648:18652   */\n      0x20\n        /* \"#utility.yul\":18635:18652   */\n      swap1\n      pop\n        /* \"#utility.yul\":18680:18682   */\n      0x1f\n        /* \"#utility.yul\":18672:18678   */\n      dup4\n        /* \"#utility.yul\":18669:18683   */\n      gt\n        /* \"#utility.yul\":18697:18698   */\n      0x01\n        /* \"#utility.yul\":18692:19310   */\n      dup2\n      eq\n      tag_363\n      jumpi\n        /* \"#utility.yul\":19354:19355   */\n      0x00\n        /* \"#utility.yul\":19371:19377   */\n      dup5\n        /* \"#utility.yul\":19368:19445   */\n      iszero\n      tag_364\n      jumpi\n        /* \"#utility.yul\":19420:19429   */\n      dup3\n        /* \"#utility.yul\":19415:19418   */\n      dup8\n        /* \"#utility.yul\":19411:19430   */\n      add\n        /* \"#utility.yul\":19405:19431   */\n      mload\n        /* \"#utility.yul\":19396:19431   */\n      swap1\n      pop\n        /* \"#utility.yul\":19368:19445   */\n    tag_364:\n        /* \"#utility.yul\":19471:19538   */\n      tag_365\n        /* \"#utility.yul\":19531:19537   */\n      dup6\n        /* \"#utility.yul\":19524:19529   */\n      dup3\n        /* \"#utility.yul\":19471:19538   */\n      tag_175\n      jump\t// in\n    tag_365:\n        /* \"#utility.yul\":19465:19469   */\n      dup7\n        /* \"#utility.yul\":19458:19539   */\n      sstore\n        /* \"#utility.yul\":19327:19549   */\n      pop\n        /* \"#utility.yul\":18662:19549   */\n      jump(tag_362)\n        /* \"#utility.yul\":18692:19310   */\n    tag_363:\n        /* \"#utility.yul\":18744:18748   */\n      0x1f\n        /* \"#utility.yul\":18740:18749   */\n      not\n        /* \"#utility.yul\":18732:18738   */\n      dup5\n        /* \"#utility.yul\":18728:18750   */\n      and\n        /* \"#utility.yul\":18778:18815   */\n      tag_366\n        /* \"#utility.yul\":18810:18814   */\n      dup7\n        /* \"#utility.yul\":18778:18815   */\n      tag_160\n      jump\t// in\n    tag_366:\n        /* \"#utility.yul\":18837:18838   */\n      0x00\n        /* \"#utility.yul\":18851:19059   */\n    tag_367:\n        /* \"#utility.yul\":18865:18872   */\n      dup3\n        /* \"#utility.yul\":18862:18863   */\n      dup2\n        /* \"#utility.yul\":18859:18873   */\n      lt\n        /* \"#utility.yul\":18851:19059   */\n      iszero\n      tag_369\n      jumpi\n        /* \"#utility.yul\":18944:18953   */\n      dup5\n        /* \"#utility.yul\":18939:18942   */\n      dup10\n        /* \"#utility.yul\":18935:18954   */\n      add\n        /* \"#utility.yul\":18929:18955   */\n      mload\n        /* \"#utility.yul\":18921:18927   */\n      dup3\n        /* \"#utility.yul\":18914:18956   */\n      sstore\n        /* \"#utility.yul\":18995:18996   */\n      0x01\n        /* \"#utility.yul\":18987:18993   */\n      dup3\n        /* \"#utility.yul\":18983:18997   */\n      add\n        /* \"#utility.yul\":18973:18997   */\n      swap2\n      pop\n        /* \"#utility.yul\":19042:19044   */\n      0x20\n        /* \"#utility.yul\":19031:19040   */\n      dup6\n        /* \"#utility.yul\":19027:19045   */\n      add\n        /* \"#utility.yul\":19014:19045   */\n      swap5\n      pop\n        /* \"#utility.yul\":18888:18892   */\n      0x20\n        /* \"#utility.yul\":18885:18886   */\n      dup2\n        /* \"#utility.yul\":18881:18893   */\n      add\n        /* \"#utility.yul\":18876:18893   */\n      swap1\n      pop\n        /* \"#utility.yul\":18851:19059   */\n      jump(tag_367)\n    tag_369:\n        /* \"#utility.yul\":19087:19093   */\n      dup7\n        /* \"#utility.yul\":19078:19085   */\n      dup4\n        /* \"#utility.yul\":19075:19094   */\n      lt\n        /* \"#utility.yul\":19072:19251   */\n      iszero\n      tag_370\n      jumpi\n        /* \"#utility.yul\":19145:19154   */\n      dup5\n        /* \"#utility.yul\":19140:19143   */\n      dup10\n        /* \"#utility.yul\":19136:19155   */\n      add\n        /* \"#utility.yul\":19130:19156   */\n      mload\n        /* \"#utility.yul\":19188:19236   */\n      tag_371\n        /* \"#utility.yul\":19230:19234   */\n      0x1f\n        /* \"#utility.yul\":19222:19228   */\n      dup10\n        /* \"#utility.yul\":19218:19235   */\n      and\n        /* \"#utility.yul\":19207:19216   */\n      dup3\n        /* \"#utility.yul\":19188:19236   */\n      tag_174\n      jump\t// in\n    tag_371:\n        /* \"#utility.yul\":19180:19186   */\n      dup4\n        /* \"#utility.yul\":19173:19237   */\n      sstore\n        /* \"#utility.yul\":19095:19251   */\n      pop\n        /* \"#utility.yul\":19072:19251   */\n    tag_370:\n        /* \"#utility.yul\":19297:19298   */\n      0x01\n        /* \"#utility.yul\":19293:19294   */\n      0x02\n        /* \"#utility.yul\":19285:19291   */\n      dup9\n        /* \"#utility.yul\":19281:19295   */\n      mul\n        /* \"#utility.yul\":19277:19299   */\n      add\n        /* \"#utility.yul\":19271:19275   */\n      dup9\n        /* \"#utility.yul\":19264:19300   */\n      sstore\n        /* \"#utility.yul\":18699:19310   */\n      pop\n      pop\n      pop\n        /* \"#utility.yul\":18662:19549   */\n    tag_362:\n      pop\n        /* \"#utility.yul\":18252:19555   */\n      pop\n      pop\n      pop\n        /* \"#utility.yul\":18160:19555   */\n      pop\n      pop\n      jump\t// out\n        /* \"#utility.yul\":19561:19787   */\n    tag_176:\n        /* \"#utility.yul\":19701:19735   */\n      0x4f6e6c792061646d696e20697320616c6c6f77656420746f2073746172742065\n        /* \"#utility.yul\":19697:19698   */\n      0x00\n        /* \"#utility.yul\":19689:19695   */\n      dup3\n        /* \"#utility.yul\":19685:19699   */\n      add\n        /* \"#utility.yul\":19678:19736   */\n      mstore\n        /* \"#utility.yul\":19770:19779   */\n      0x6c656374696f6e00000000000000000000000000000000000000000000000000\n        /* \"#utility.yul\":19765:19767   */\n      0x20\n        /* \"#utility.yul\":19757:19763   */\n      dup3\n        /* \"#utility.yul\":19753:19768   */\n      add\n        /* \"#utility.yul\":19746:19780   */\n      mstore\n        /* \"#utility.yul\":19561:19787   */\n      pop\n      jump\t// out\n        /* \"#utility.yul\":19793:20159   */\n    tag_177:\n        /* \"#utility.yul\":19935:19938   */\n      0x00\n        /* \"#utility.yul\":19956:20023   */\n      tag_374\n        /* \"#utility.yul\":20020:20022   */\n      0x27\n        /* \"#utility.yul\":20015:20018   */\n      dup4\n        /* \"#utility.yul\":19956:20023   */\n      tag_149\n      jump\t// in\n    tag_374:\n        /* \"#utility.yul\":19949:20023   */\n      swap2\n      pop\n        /* \"#utility.yul\":20032:20125   */\n      tag_375\n        /* \"#utility.yul\":20121:20124   */\n      dup3\n        /* \"#utility.yul\":20032:20125   */\n      tag_176\n      jump\t// in\n    tag_375:\n        /* \"#utility.yul\":20150:20152   */\n      0x40\n        /* \"#utility.yul\":20145:20148   */\n      dup3\n        /* \"#utility.yul\":20141:20153   */\n      add\n        /* \"#utility.yul\":20134:20153   */\n      swap1\n      pop\n        /* \"#utility.yul\":19793:20159   */\n      swap2\n      swap1\n      pop\n      jump\t// out\n        /* \"#utility.yul\":20165:20584   */\n    tag_104:\n        /* \"#utility.yul\":20331:20335   */\n      0x00\n        /* \"#utility.yul\":20369:20371   */\n      0x20\n        /* \"#utility.yul\":20358:20367   */\n      dup3\n        /* \"#utility.yul\":20354:20372   */\n      add\n        /* \"#utility.yul\":20346:20372   */\n      swap1\n      pop\n        /* \"#utility.yul\":20418:20427   */\n      dup2\n        /* \"#utility.yul\":20412:20416   */\n      dup2\n        /* \"#utility.yul\":20408:20428   */\n      sub\n        /* \"#utility.yul\":20404:20405   */\n      0x00\n        /* \"#utility.yul\":20393:20402   */\n      dup4\n        /* \"#utility.yul\":20389:20406   */\n      add\n        /* \"#utility.yul\":20382:20429   */\n      mstore\n        /* \"#utility.yul\":20446:20577   */\n      tag_377\n        /* \"#utility.yul\":20572:20576   */\n      dup2\n        /* \"#utility.yul\":20446:20577   */\n      tag_177\n      jump\t// in\n    tag_377:\n        /* \"#utility.yul\":20438:20577   */\n      swap1\n      pop\n        /* \"#utility.yul\":20165:20584   */\n      swap2\n      swap1\n      pop\n      jump\t// out\n\n    auxdata: 0xa2646970667358221220385cf6509261fff868c1cd00e48acad3c294a3b303972960f1b6448d372e745864736f6c63430008120033\n}\n",
				"bytecode": {
					"linkReferences": {},
					"object": "6080604052735b38da6a701c568545dcfcb03fcb875f56beddc46000806101000a81548173ffffffffffffffffffffffffffffffffffffffff021916908373ffffffffffffffffffffffffffffffffffffffff16021790555060008060146101000a81548160ff0219169083600281111561007d5761007c6100af565b5b021790555060008060156101000a81548160ff021916908360ff1602179055503480156100a957600080fd5b506100de565b7f4e487b7100000000000000000000000000000000000000000000000000000000600052602160045260246000fd5b6115e7806100ed6000396000f3fe608060405234801561001057600080fd5b506004361061007d5760003560e01c80635607395b1161005b5780635607395b146100d8578063cde9370f146100f4578063d4f50f9814610124578063e6a5e61d146101545761007d565b806307e4b70a146100825780630b32ff771461009e578063122902a6146100ba575b600080fd5b61009c60048036038101906100979190610b1a565b610170565b005b6100b860048036038101906100b39190610c8d565b6102a2565b005b6100c26104f9565b6040516100cf9190610d8f565b60405180910390f35b6100f260048036038101906100ed9190610daa565b61050f565b005b61010e60048036038101906101099190610e3f565b6105e4565b60405161011b9190610f51565b60405180910390f35b61013e60048036038101906101399190610b1a565b610791565b60405161014b9190610fb0565b60405180910390f35b61016e60048036038101906101699190610b1a565b6108d2565b005b60008054906101000a900473ffffffffffffffffffffffffffffffffffffffff1673ffffffffffffffffffffffffffffffffffffffff168173ffffffffffffffffffffffffffffffffffffffff16146101fe576040517f08c379a00000000000000000000000000000000000000000000000000000000081526004016101f590611055565b60405180910390fd5b6001600281111561021257610211610d18565b5b600060149054906101000a900460ff16600281111561023457610233610d18565b5b14610274576040517f08c379a000000000000000000000000000000000000000000000000000000000815260040161026b906110c1565b60405180910390fd5b6002600060146101000a81548160ff0219169083600281111561029a57610299610d18565b5b021790555050565b60008054906101000a900473ffffffffffffffffffffffffffffffffffffffff1673ffffffffffffffffffffffffffffffffffffffff163373ffffffffffffffffffffffffffffffffffffffff1614610330576040517f08c379a000000000000000000000000000000000000000000000000000000000815260040161032790611153565b60405180910390fd5b6000600281111561034457610343610d18565b5b600060149054906101000a900460ff16600281111561036657610365610d18565b5b14806103a457506002808111156103805761037f610d18565b5b600060149054906101000a900460ff1660028111156103a2576103a1610d18565b5b145b6103e3576040517f08c379a00000000000000000000000000000000000000000000000000000000081526004016103da906111bf565b60405180910390fd5b6000601581819054906101000a900460ff16809291906104029061120e565b91906101000a81548160ff021916908360ff1602179055505082600160008060159054906101000a900460ff1660ff1660ff1681526020019081526020016000206000019081610452919061144d565b5081600160008060159054906101000a900460ff1660ff1660ff168152602001908152602001600020600201908161048a919061144d565b5080600160008060159054906101000a900460ff1660ff1660ff16815260200190815260200160002060010160006101000a81548173ffffffffffffffffffffffffffffffffffffffff021916908373ffffffffffffffffffffffffffffffffffffffff160217905550505050565b60008060149054906101000a900460ff16905090565b81600260008373ffffffffffffffffffffffffffffffffffffffff1673ffffffffffffffffffffffffffffffffffffffff168152602001908152602001600020600001908161055e919061144d565b5080600260008373ffffffffffffffffffffffffffffffffffffffff1673ffffffffffffffffffffffffffffffffffffffff16815260200190815260200160002060010160006101000a81548173ffffffffffffffffffffffffffffffffffffffff021916908373ffffffffffffffffffffffffffffffffffffffff1602179055505050565b6105ec610a41565b600160008360ff1660ff16815260200190815260200160002060405180606001604052908160008201805461062090611266565b80601f016020809104026020016040519081016040528092919081815260200182805461064c90611266565b80156106995780601f1061066e57610100808354040283529160200191610699565b820191906000526020600020905b81548152906001019060200180831161067c57829003601f168201915b505050505081526020016001820160009054906101000a900473ffffffffffffffffffffffffffffffffffffffff1673ffffffffffffffffffffffffffffffffffffffff1673ffffffffffffffffffffffffffffffffffffffff16815260200160028201805461070890611266565b80601f016020809104026020016040519081016040528092919081815260200182805461073490611266565b80156107815780601f1061075657610100808354040283529160200191610781565b820191906000526020600020905b81548152906001019060200180831161076457829003601f168201915b5050505050815250509050919050565b610799610a78565b600260008373ffffffffffffffffffffffffffffffffffffffff1673ffffffffffffffffffffffffffffffffffffffff1681526020019081526020016000206040518060400160405290816000820180546107f390611266565b80601f016020809104026020016040519081016040528092919081815260200182805461081f90611266565b801561086c5780601f106108415761010080835404028352916020019161086c565b820191906000526020600020905b81548152906001019060200180831161084f57829003601f168201915b505050505081526020016001820160009054906101000a900473ffffffffffffffffffffffffffffffffffffffff1673ffffffffffffffffffffffffffffffffffffffff1673ffffffffffffffffffffffffffffffffffffffff16815250509050919050565b60008054906101000a900473ffffffffffffffffffffffffffffffffffffffff1673ffffffffffffffffffffffffffffffffffffffff168173ffffffffffffffffffffffffffffffffffffffff1614610960576040517f08c379a000000000000000000000000000000000000000000000000000000000815260040161095790611591565b60405180910390fd5b6000600281111561097457610973610d18565b5b600060149054906101000a900460ff16600281111561099657610995610d18565b5b14806109d457506002808111156109b0576109af610d18565b5b600060149054906101000a900460ff1660028111156109d2576109d1610d18565b5b145b610a13576040517f08c379a0000000000000000000000000000000000000000000000000000000008152600401610a0a906111bf565b60405180910390fd5b6001600060146101000a81548160ff02191690836002811115610a3957610a38610d18565b5b021790555050565b604051806060016040528060608152602001600073ffffffffffffffffffffffffffffffffffffffff168152602001606081525090565b604051806040016040528060608152602001600073ffffffffffffffffffffffffffffffffffffffff1681525090565b6000604051905090565b600080fd5b600080fd5b600073ffffffffffffffffffffffffffffffffffffffff82169050919050565b6000610ae782610abc565b9050919050565b610af781610adc565b8114610b0257600080fd5b50565b600081359050610b1481610aee565b92915050565b600060208284031215610b3057610b2f610ab2565b5b6000610b3e84828501610b05565b91505092915050565b600080fd5b600080fd5b6000601f19601f8301169050919050565b7f4e487b7100000000000000000000000000000000000000000000000000000000600052604160045260246000fd5b610b9a82610b51565b810181811067ffffffffffffffff82111715610bb957610bb8610b62565b5b80604052505050565b6000610bcc610aa8565b9050610bd88282610b91565b919050565b600067ffffffffffffffff821115610bf857610bf7610b62565b5b610c0182610b51565b9050602081019050919050565b82818337600083830152505050565b6000610c30610c2b84610bdd565b610bc2565b905082815260208101848484011115610c4c57610c4b610b4c565b5b610c57848285610c0e565b509392505050565b600082601f830112610c7457610c73610b47565b5b8135610c84848260208601610c1d565b91505092915050565b600080600060608486031215610ca657610ca5610ab2565b5b600084013567ffffffffffffffff811115610cc457610cc3610ab7565b5b610cd086828701610c5f565b935050602084013567ffffffffffffffff811115610cf157610cf0610ab7565b5b610cfd86828701610c5f565b9250506040610d0e86828701610b05565b9150509250925092565b7f4e487b7100000000000000000000000000000000000000000000000000000000600052602160045260246000fd5b60038110610d5857610d57610d18565b5b50565b6000819050610d6982610d47565b919050565b6000610d7982610d5b565b9050919050565b610d8981610d6e565b82525050565b6000602082019050610da46000830184610d80565b92915050565b60008060408385031215610dc157610dc0610ab2565b5b600083013567ffffffffffffffff811115610ddf57610dde610ab7565b5b610deb85828601610c5f565b9250506020610dfc85828601610b05565b9150509250929050565b600060ff82169050919050565b610e1c81610e06565b8114610e2757600080fd5b50565b600081359050610e3981610e13565b92915050565b600060208284031215610e5557610e54610ab2565b5b6000610e6384828501610e2a565b91505092915050565b600081519050919050565b600082825260208201905092915050565b60005b83811015610ea6578082015181840152602081019050610e8b565b60008484015250505050565b6000610ebd82610e6c565b610ec78185610e77565b9350610ed7818560208601610e88565b610ee081610b51565b840191505092915050565b610ef481610adc565b82525050565b60006060830160008301518482036000860152610f178282610eb2565b9150506020830151610f2c6020860182610eeb565b5060408301518482036040860152610f448282610eb2565b9150508091505092915050565b60006020820190508181036000830152610f6b8184610efa565b905092915050565b60006040830160008301518482036000860152610f908282610eb2565b9150506020830151610fa56020860182610eeb565b508091505092915050565b60006020820190508181036000830152610fca8184610f73565b905092915050565b600082825260208201905092915050565b7f4f6e6c792061646d696e20697320616c6c6f77656420746f20656e6420656c6560008201527f6374696f6e000000000000000000000000000000000000000000000000000000602082015250565b600061103f602583610fd2565b915061104a82610fe3565b604082019050919050565b6000602082019050818103600083015261106e81611032565b9050919050565b7f656c656374696f6e206973206e6f742073746172746564000000000000000000600082015250565b60006110ab601783610fd2565b91506110b682611075565b602082019050919050565b600060208201905081810360008301526110da8161109e565b9050919050565b7f4f6e6c792061646d696e20697320616c6c6f77656420746f206164642063616e60008201527f6469646174650000000000000000000000000000000000000000000000000000602082015250565b600061113d602683610fd2565b9150611148826110e1565b604082019050919050565b6000602082019050818103600083015261116c81611130565b9050919050565b7f456c656374696f6e20616c726561647920737461727465640000000000000000600082015250565b60006111a9601883610fd2565b91506111b482611173565b602082019050919050565b600060208201905081810360008301526111d88161119c565b9050919050565b7f4e487b7100000000000000000000000000000000000000000000000000000000600052601160045260246000fd5b600061121982610e06565b915060ff820361122c5761122b6111df565b5b600182019050919050565b7f4e487b7100000000000000000000000000000000000000000000000000000000600052602260045260246000fd5b6000600282049050600182168061127e57607f821691505b60208210810361129157611290611237565b5b50919050565b60008190508160005260206000209050919050565b60006020601f8301049050919050565b600082821b905092915050565b6000600883026112f97fffffffffffffffffffffffffffffffffffffffffffffffffffffffffffffffff826112bc565b61130386836112bc565b95508019841693508086168417925050509392505050565b6000819050919050565b6000819050919050565b600061134a6113456113408461131b565b611325565b61131b565b9050919050565b6000819050919050565b6113648361132f565b61137861137082611351565b8484546112c9565b825550505050565b600090565b61138d611380565b61139881848461135b565b505050565b5b818110156113bc576113b1600082611385565b60018101905061139e565b5050565b601f821115611401576113d281611297565b6113db846112ac565b810160208510156113ea578190505b6113fe6113f6856112ac565b83018261139d565b50505b505050565b600082821c905092915050565b600061142460001984600802611406565b1980831691505092915050565b600061143d8383611413565b9150826002028217905092915050565b61145682610e6c565b67ffffffffffffffff81111561146f5761146e610b62565b5b6114798254611266565b6114848282856113c0565b600060209050601f8311600181146114b757600084156114a5578287015190505b6114af8582611431565b865550611517565b601f1984166114c586611297565b60005b828110156114ed578489015182556001820191506020850194506020810190506114c8565b8683101561150a5784890151611506601f891682611413565b8355505b6001600288020188555050505b505050505050565b7f4f6e6c792061646d696e20697320616c6c6f77656420746f207374617274206560008201527f6c656374696f6e00000000000000000000000000000000000000000000000000602082015250565b600061157b602783610fd2565b91506115868261151f565b604082019050919050565b600060208201905081810360008301526115aa8161156e565b905091905056fea2646970667358221220385cf6509261fff868c1cd00e48acad3c294a3b303972960f1b6448d372e745864736f6c63430008120033",
					"opcodes": "PUSH1 0x80 PUSH1 0x40 MSTORE PUSH20 0x5B38DA6A701C568545DCFCB03FCB875F56BEDDC4 PUSH1 0x0 DUP1 PUSH2 0x100 EXP DUP2 SLOAD DUP2 PUSH20 0xFFFFFFFFFFFFFFFFFFFFFFFFFFFFFFFFFFFFFFFF MUL NOT AND SWAP1 DUP4 PUSH20 0xFFFFFFFFFFFFFFFFFFFFFFFFFFFFFFFFFFFFFFFF AND MUL OR SWAP1 SSTORE POP PUSH1 0x0 DUP1 PUSH1 0x14 PUSH2 0x100 EXP DUP2 SLOAD DUP2 PUSH1 0xFF MUL NOT AND SWAP1 DUP4 PUSH1 0x2 DUP2 GT ISZERO PUSH2 0x7D JUMPI PUSH2 0x7C PUSH2 0xAF JUMP JUMPDEST JUMPDEST MUL OR SWAP1 SSTORE POP PUSH1 0x0 DUP1 PUSH1 0x15 PUSH2 0x100 EXP DUP2 SLOAD DUP2 PUSH1 0xFF MUL NOT AND SWAP1 DUP4 PUSH1 0xFF AND MUL OR SWAP1 SSTORE POP CALLVALUE DUP1 ISZERO PUSH2 0xA9 JUMPI PUSH1 0x0 DUP1 REVERT JUMPDEST POP PUSH2 0xDE JUMP JUMPDEST PUSH32 0x4E487B7100000000000000000000000000000000000000000000000000000000 PUSH1 0x0 MSTORE PUSH1 0x21 PUSH1 0x4 MSTORE PUSH1 0x24 PUSH1 0x0 REVERT JUMPDEST PUSH2 0x15E7 DUP1 PUSH2 0xED PUSH1 0x0 CODECOPY PUSH1 0x0 RETURN INVALID PUSH1 0x80 PUSH1 0x40 MSTORE CALLVALUE DUP1 ISZERO PUSH2 0x10 JUMPI PUSH1 0x0 DUP1 REVERT JUMPDEST POP PUSH1 0x4 CALLDATASIZE LT PUSH2 0x7D JUMPI PUSH1 0x0 CALLDATALOAD PUSH1 0xE0 SHR DUP1 PUSH4 0x5607395B GT PUSH2 0x5B JUMPI DUP1 PUSH4 0x5607395B EQ PUSH2 0xD8 JUMPI DUP1 PUSH4 0xCDE9370F EQ PUSH2 0xF4 JUMPI DUP1 PUSH4 0xD4F50F98 EQ PUSH2 0x124 JUMPI DUP1 PUSH4 0xE6A5E61D EQ PUSH2 0x154 JUMPI PUSH2 0x7D JUMP JUMPDEST DUP1 PUSH4 0x7E4B70A EQ PUSH2 0x82 JUMPI DUP1 PUSH4 0xB32FF77 EQ PUSH2 0x9E JUMPI DUP1 PUSH4 0x122902A6 EQ PUSH2 0xBA JUMPI JUMPDEST PUSH1 0x0 DUP1 REVERT JUMPDEST PUSH2 0x9C PUSH1 0x4 DUP1 CALLDATASIZE SUB DUP2 ADD SWAP1 PUSH2 0x97 SWAP2 SWAP1 PUSH2 0xB1A JUMP JUMPDEST PUSH2 0x170 JUMP JUMPDEST STOP JUMPDEST PUSH2 0xB8 PUSH1 0x4 DUP1 CALLDATASIZE SUB DUP2 ADD SWAP1 PUSH2 0xB3 SWAP2 SWAP1 PUSH2 0xC8D JUMP JUMPDEST PUSH2 0x2A2 JUMP JUMPDEST STOP JUMPDEST PUSH2 0xC2 PUSH2 0x4F9 JUMP JUMPDEST PUSH1 0x40 MLOAD PUSH2 0xCF SWAP2 SWAP1 PUSH2 0xD8F JUMP JUMPDEST PUSH1 0x40 MLOAD DUP1 SWAP2 SUB SWAP1 RETURN JUMPDEST PUSH2 0xF2 PUSH1 0x4 DUP1 CALLDATASIZE SUB DUP2 ADD SWAP1 PUSH2 0xED SWAP2 SWAP1 PUSH2 0xDAA JUMP JUMPDEST PUSH2 0x50F JUMP JUMPDEST STOP JUMPDEST PUSH2 0x10E PUSH1 0x4 DUP1 CALLDATASIZE SUB DUP2 ADD SWAP1 PUSH2 0x109 SWAP2 SWAP1 PUSH2 0xE3F JUMP JUMPDEST PUSH2 0x5E4 JUMP JUMPDEST PUSH1 0x40 MLOAD PUSH2 0x11B SWAP2 SWAP1 PUSH2 0xF51 JUMP JUMPDEST PUSH1 0x40 MLOAD DUP1 SWAP2 SUB SWAP1 RETURN JUMPDEST PUSH2 0x13E PUSH1 0x4 DUP1 CALLDATASIZE SUB DUP2 ADD SWAP1 PUSH2 0x139 SWAP2 SWAP1 PUSH2 0xB1A JUMP JUMPDEST PUSH2 0x791 JUMP JUMPDEST PUSH1 0x40 MLOAD PUSH2 0x14B SWAP2 SWAP1 PUSH2 0xFB0 JUMP JUMPDEST PUSH1 0x40 MLOAD DUP1 SWAP2 SUB SWAP1 RETURN JUMPDEST PUSH2 0x16E PUSH1 0x4 DUP1 CALLDATASIZE SUB DUP2 ADD SWAP1 PUSH2 0x169 SWAP2 SWAP1 PUSH2 0xB1A JUMP JUMPDEST PUSH2 0x8D2 JUMP JUMPDEST STOP JUMPDEST PUSH1 0x0 DUP1 SLOAD SWAP1 PUSH2 0x100 EXP SWAP1 DIV PUSH20 0xFFFFFFFFFFFFFFFFFFFFFFFFFFFFFFFFFFFFFFFF AND PUSH20 0xFFFFFFFFFFFFFFFFFFFFFFFFFFFFFFFFFFFFFFFF AND DUP2 PUSH20 0xFFFFFFFFFFFFFFFFFFFFFFFFFFFFFFFFFFFFFFFF AND EQ PUSH2 0x1FE JUMPI PUSH1 0x40 MLOAD PUSH32 0x8C379A000000000000000000000000000000000000000000000000000000000 DUP2 MSTORE PUSH1 0x4 ADD PUSH2 0x1F5 SWAP1 PUSH2 0x1055 JUMP JUMPDEST PUSH1 0x40 MLOAD DUP1 SWAP2 SUB SWAP1 REVERT JUMPDEST PUSH1 0x1 PUSH1 0x2 DUP2 GT ISZERO PUSH2 0x212 JUMPI PUSH2 0x211 PUSH2 0xD18 JUMP JUMPDEST JUMPDEST PUSH1 0x0 PUSH1 0x14 SWAP1 SLOAD SWAP1 PUSH2 0x100 EXP SWAP1 DIV PUSH1 0xFF AND PUSH1 0x2 DUP2 GT ISZERO PUSH2 0x234 JUMPI PUSH2 0x233 PUSH2 0xD18 JUMP JUMPDEST JUMPDEST EQ PUSH2 0x274 JUMPI PUSH1 0x40 MLOAD PUSH32 0x8C379A000000000000000000000000000000000000000000000000000000000 DUP2 MSTORE PUSH1 0x4 ADD PUSH2 0x26B SWAP1 PUSH2 0x10C1 JUMP JUMPDEST PUSH1 0x40 MLOAD DUP1 SWAP2 SUB SWAP1 REVERT JUMPDEST PUSH1 0x2 PUSH1 0x0 PUSH1 0x14 PUSH2 0x100 EXP DUP2 SLOAD DUP2 PUSH1 0xFF MUL NOT AND SWAP1 DUP4 PUSH1 0x2 DUP2 GT ISZERO PUSH2 0x29A JUMPI PUSH2 0x299 PUSH2 0xD18 JUMP JUMPDEST JUMPDEST MUL OR SWAP1 SSTORE POP POP JUMP JUMPDEST PUSH1 0x0 DUP1 SLOAD SWAP1 PUSH2 0x100 EXP SWAP1 DIV PUSH20 0xFFFFFFFFFFFFFFFFFFFFFFFFFFFFFFFFFFFFFFFF AND PUSH20 0xFFFFFFFFFFFFFFFFFFFFFFFFFFFFFFFFFFFFFFFF AND CALLER PUSH20 0xFFFFFFFFFFFFFFFFFFFFFFFFFFFFFFFFFFFFFFFF AND EQ PUSH2 0x330 JUMPI PUSH1 0x40 MLOAD PUSH32 0x8C379A000000000000000000000000000000000000000000000000000000000 DUP2 MSTORE PUSH1 0x4 ADD PUSH2 0x327 SWAP1 PUSH2 0x1153 JUMP JUMPDEST PUSH1 0x40 MLOAD DUP1 SWAP2 SUB SWAP1 REVERT JUMPDEST PUSH1 0x0 PUSH1 0x2 DUP2 GT ISZERO PUSH2 0x344 JUMPI PUSH2 0x343 PUSH2 0xD18 JUMP JUMPDEST JUMPDEST PUSH1 0x0 PUSH1 0x14 SWAP1 SLOAD SWAP1 PUSH2 0x100 EXP SWAP1 DIV PUSH1 0xFF AND PUSH1 0x2 DUP2 GT ISZERO PUSH2 0x366 JUMPI PUSH2 0x365 PUSH2 0xD18 JUMP JUMPDEST JUMPDEST EQ DUP1 PUSH2 0x3A4 JUMPI POP PUSH1 0x2 DUP1 DUP2 GT ISZERO PUSH2 0x380 JUMPI PUSH2 0x37F PUSH2 0xD18 JUMP JUMPDEST JUMPDEST PUSH1 0x0 PUSH1 0x14 SWAP1 SLOAD SWAP1 PUSH2 0x100 EXP SWAP1 DIV PUSH1 0xFF AND PUSH1 0x2 DUP2 GT ISZERO PUSH2 0x3A2 JUMPI PUSH2 0x3A1 PUSH2 0xD18 JUMP JUMPDEST JUMPDEST EQ JUMPDEST PUSH2 0x3E3 JUMPI PUSH1 0x40 MLOAD PUSH32 0x8C379A000000000000000000000000000000000000000000000000000000000 DUP2 MSTORE PUSH1 0x4 ADD PUSH2 0x3DA SWAP1 PUSH2 0x11BF JUMP JUMPDEST PUSH1 0x40 MLOAD DUP1 SWAP2 SUB SWAP1 REVERT JUMPDEST PUSH1 0x0 PUSH1 0x15 DUP2 DUP2 SWAP1 SLOAD SWAP1 PUSH2 0x100 EXP SWAP1 DIV PUSH1 0xFF AND DUP1 SWAP3 SWAP2 SWAP1 PUSH2 0x402 SWAP1 PUSH2 0x120E JUMP JUMPDEST SWAP2 SWAP1 PUSH2 0x100 EXP DUP2 SLOAD DUP2 PUSH1 0xFF MUL NOT AND SWAP1 DUP4 PUSH1 0xFF AND MUL OR SWAP1 SSTORE POP POP DUP3 PUSH1 0x1 PUSH1 0x0 DUP1 PUSH1 0x15 SWAP1 SLOAD SWAP1 PUSH2 0x100 EXP SWAP1 DIV PUSH1 0xFF AND PUSH1 0xFF AND PUSH1 0xFF AND DUP2 MSTORE PUSH1 0x20 ADD SWAP1 DUP2 MSTORE PUSH1 0x20 ADD PUSH1 0x0 KECCAK256 PUSH1 0x0 ADD SWAP1 DUP2 PUSH2 0x452 SWAP2 SWAP1 PUSH2 0x144D JUMP JUMPDEST POP DUP2 PUSH1 0x1 PUSH1 0x0 DUP1 PUSH1 0x15 SWAP1 SLOAD SWAP1 PUSH2 0x100 EXP SWAP1 DIV PUSH1 0xFF AND PUSH1 0xFF AND PUSH1 0xFF AND DUP2 MSTORE PUSH1 0x20 ADD SWAP1 DUP2 MSTORE PUSH1 0x20 ADD PUSH1 0x0 KECCAK256 PUSH1 0x2 ADD SWAP1 DUP2 PUSH2 0x48A SWAP2 SWAP1 PUSH2 0x144D JUMP JUMPDEST POP DUP1 PUSH1 0x1 PUSH1 0x0 DUP1 PUSH1 0x15 SWAP1 SLOAD SWAP1 PUSH2 0x100 EXP SWAP1 DIV PUSH1 0xFF AND PUSH1 0xFF AND PUSH1 0xFF AND DUP2 MSTORE PUSH1 0x20 ADD SWAP1 DUP2 MSTORE PUSH1 0x20 ADD PUSH1 0x0 KECCAK256 PUSH1 0x1 ADD PUSH1 0x0 PUSH2 0x100 EXP DUP2 SLOAD DUP2 PUSH20 0xFFFFFFFFFFFFFFFFFFFFFFFFFFFFFFFFFFFFFFFF MUL NOT AND SWAP1 DUP4 PUSH20 0xFFFFFFFFFFFFFFFFFFFFFFFFFFFFFFFFFFFFFFFF AND MUL OR SWAP1 SSTORE POP POP POP POP JUMP JUMPDEST PUSH1 0x0 DUP1 PUSH1 0x14 SWAP1 SLOAD SWAP1 PUSH2 0x100 EXP SWAP1 DIV PUSH1 0xFF AND SWAP1 POP SWAP1 JUMP JUMPDEST DUP2 PUSH1 0x2 PUSH1 0x0 DUP4 PUSH20 0xFFFFFFFFFFFFFFFFFFFFFFFFFFFFFFFFFFFFFFFF AND PUSH20 0xFFFFFFFFFFFFFFFFFFFFFFFFFFFFFFFFFFFFFFFF AND DUP2 MSTORE PUSH1 0x20 ADD SWAP1 DUP2 MSTORE PUSH1 0x20 ADD PUSH1 0x0 KECCAK256 PUSH1 0x0 ADD SWAP1 DUP2 PUSH2 0x55E SWAP2 SWAP1 PUSH2 0x144D JUMP JUMPDEST POP DUP1 PUSH1 0x2 PUSH1 0x0 DUP4 PUSH20 0xFFFFFFFFFFFFFFFFFFFFFFFFFFFFFFFFFFFFFFFF AND PUSH20 0xFFFFFFFFFFFFFFFFFFFFFFFFFFFFFFFFFFFFFFFF AND DUP2 MSTORE PUSH1 0x20 ADD SWAP1 DUP2 MSTORE PUSH1 0x20 ADD PUSH1 0x0 KECCAK256 PUSH1 0x1 ADD PUSH1 0x0 PUSH2 0x100 EXP DUP2 SLOAD DUP2 PUSH20 0xFFFFFFFFFFFFFFFFFFFFFFFFFFFFFFFFFFFFFFFF MUL NOT AND SWAP1 DUP4 PUSH20 0xFFFFFFFFFFFFFFFFFFFFFFFFFFFFFFFFFFFFFFFF AND MUL OR SWAP1 SSTORE POP POP POP JUMP JUMPDEST PUSH2 0x5EC PUSH2 0xA41 JUMP JUMPDEST PUSH1 0x1 PUSH1 0x0 DUP4 PUSH1 0xFF AND PUSH1 0xFF AND DUP2 MSTORE PUSH1 0x20 ADD SWAP1 DUP2 MSTORE PUSH1 0x20 ADD PUSH1 0x0 KECCAK256 PUSH1 0x40 MLOAD DUP1 PUSH1 0x60 ADD PUSH1 0x40 MSTORE SWAP1 DUP2 PUSH1 0x0 DUP3 ADD DUP1 SLOAD PUSH2 0x620 SWAP1 PUSH2 0x1266 JUMP JUMPDEST DUP1 PUSH1 0x1F ADD PUSH1 0x20 DUP1 SWAP2 DIV MUL PUSH1 0x20 ADD PUSH1 0x40 MLOAD SWAP1 DUP2 ADD PUSH1 0x40 MSTORE DUP1 SWAP3 SWAP2 SWAP1 DUP2 DUP2 MSTORE PUSH1 0x20 ADD DUP3 DUP1 SLOAD PUSH2 0x64C SWAP1 PUSH2 0x1266 JUMP JUMPDEST DUP1 ISZERO PUSH2 0x699 JUMPI DUP1 PUSH1 0x1F LT PUSH2 0x66E JUMPI PUSH2 0x100 DUP1 DUP4 SLOAD DIV MUL DUP4 MSTORE SWAP2 PUSH1 0x20 ADD SWAP2 PUSH2 0x699 JUMP JUMPDEST DUP3 ADD SWAP2 SWAP1 PUSH1 0x0 MSTORE PUSH1 0x20 PUSH1 0x0 KECCAK256 SWAP1 JUMPDEST DUP2 SLOAD DUP2 MSTORE SWAP1 PUSH1 0x1 ADD SWAP1 PUSH1 0x20 ADD DUP1 DUP4 GT PUSH2 0x67C JUMPI DUP3 SWAP1 SUB PUSH1 0x1F AND DUP3 ADD SWAP2 JUMPDEST POP POP POP POP POP DUP2 MSTORE PUSH1 0x20 ADD PUSH1 0x1 DUP3 ADD PUSH1 0x0 SWAP1 SLOAD SWAP1 PUSH2 0x100 EXP SWAP1 DIV PUSH20 0xFFFFFFFFFFFFFFFFFFFFFFFFFFFFFFFFFFFFFFFF AND PUSH20 0xFFFFFFFFFFFFFFFFFFFFFFFFFFFFFFFFFFFFFFFF AND PUSH20 0xFFFFFFFFFFFFFFFFFFFFFFFFFFFFFFFFFFFFFFFF AND DUP2 MSTORE PUSH1 0x20 ADD PUSH1 0x2 DUP3 ADD DUP1 SLOAD PUSH2 0x708 SWAP1 PUSH2 0x1266 JUMP JUMPDEST DUP1 PUSH1 0x1F ADD PUSH1 0x20 DUP1 SWAP2 DIV MUL PUSH1 0x20 ADD PUSH1 0x40 MLOAD SWAP1 DUP2 ADD PUSH1 0x40 MSTORE DUP1 SWAP3 SWAP2 SWAP1 DUP2 DUP2 MSTORE PUSH1 0x20 ADD DUP3 DUP1 SLOAD PUSH2 0x734 SWAP1 PUSH2 0x1266 JUMP JUMPDEST DUP1 ISZERO PUSH2 0x781 JUMPI DUP1 PUSH1 0x1F LT PUSH2 0x756 JUMPI PUSH2 0x100 DUP1 DUP4 SLOAD DIV MUL DUP4 MSTORE SWAP2 PUSH1 0x20 ADD SWAP2 PUSH2 0x781 JUMP JUMPDEST DUP3 ADD SWAP2 SWAP1 PUSH1 0x0 MSTORE PUSH1 0x20 PUSH1 0x0 KECCAK256 SWAP1 JUMPDEST DUP2 SLOAD DUP2 MSTORE SWAP1 PUSH1 0x1 ADD SWAP1 PUSH1 0x20 ADD DUP1 DUP4 GT PUSH2 0x764 JUMPI DUP3 SWAP1 SUB PUSH1 0x1F AND DUP3 ADD SWAP2 JUMPDEST POP POP POP POP POP DUP2 MSTORE POP POP SWAP1 POP SWAP2 SWAP1 POP JUMP JUMPDEST PUSH2 0x799 PUSH2 0xA78 JUMP JUMPDEST PUSH1 0x2 PUSH1 0x0 DUP4 PUSH20 0xFFFFFFFFFFFFFFFFFFFFFFFFFFFFFFFFFFFFFFFF AND PUSH20 0xFFFFFFFFFFFFFFFFFFFFFFFFFFFFFFFFFFFFFFFF AND DUP2 MSTORE PUSH1 0x20 ADD SWAP1 DUP2 MSTORE PUSH1 0x20 ADD PUSH1 0x0 KECCAK256 PUSH1 0x40 MLOAD DUP1 PUSH1 0x40 ADD PUSH1 0x40 MSTORE SWAP1 DUP2 PUSH1 0x0 DUP3 ADD DUP1 SLOAD PUSH2 0x7F3 SWAP1 PUSH2 0x1266 JUMP JUMPDEST DUP1 PUSH1 0x1F ADD PUSH1 0x20 DUP1 SWAP2 DIV MUL PUSH1 0x20 ADD PUSH1 0x40 MLOAD SWAP1 DUP2 ADD PUSH1 0x40 MSTORE DUP1 SWAP3 SWAP2 SWAP1 DUP2 DUP2 MSTORE PUSH1 0x20 ADD DUP3 DUP1 SLOAD PUSH2 0x81F SWAP1 PUSH2 0x1266 JUMP JUMPDEST DUP1 ISZERO PUSH2 0x86C JUMPI DUP1 PUSH1 0x1F LT PUSH2 0x841 JUMPI PUSH2 0x100 DUP1 DUP4 SLOAD DIV MUL DUP4 MSTORE SWAP2 PUSH1 0x20 ADD SWAP2 PUSH2 0x86C JUMP JUMPDEST DUP3 ADD SWAP2 SWAP1 PUSH1 0x0 MSTORE PUSH1 0x20 PUSH1 0x0 KECCAK256 SWAP1 JUMPDEST DUP2 SLOAD DUP2 MSTORE SWAP1 PUSH1 0x1 ADD SWAP1 PUSH1 0x20 ADD DUP1 DUP4 GT PUSH2 0x84F JUMPI DUP3 SWAP1 SUB PUSH1 0x1F AND DUP3 ADD SWAP2 JUMPDEST POP POP POP POP POP DUP2 MSTORE PUSH1 0x20 ADD PUSH1 0x1 DUP3 ADD PUSH1 0x0 SWAP1 SLOAD SWAP1 PUSH2 0x100 EXP SWAP1 DIV PUSH20 0xFFFFFFFFFFFFFFFFFFFFFFFFFFFFFFFFFFFFFFFF AND PUSH20 0xFFFFFFFFFFFFFFFFFFFFFFFFFFFFFFFFFFFFFFFF AND PUSH20 0xFFFFFFFFFFFFFFFFFFFFFFFFFFFFFFFFFFFFFFFF AND DUP2 MSTORE POP POP SWAP1 POP SWAP2 SWAP1 POP JUMP JUMPDEST PUSH1 0x0 DUP1 SLOAD SWAP1 PUSH2 0x100 EXP SWAP1 DIV PUSH20 0xFFFFFFFFFFFFFFFFFFFFFFFFFFFFFFFFFFFFFFFF AND PUSH20 0xFFFFFFFFFFFFFFFFFFFFFFFFFFFFFFFFFFFFFFFF AND DUP2 PUSH20 0xFFFFFFFFFFFFFFFFFFFFFFFFFFFFFFFFFFFFFFFF AND EQ PUSH2 0x960 JUMPI PUSH1 0x40 MLOAD PUSH32 0x8C379A000000000000000000000000000000000000000000000000000000000 DUP2 MSTORE PUSH1 0x4 ADD PUSH2 0x957 SWAP1 PUSH2 0x1591 JUMP JUMPDEST PUSH1 0x40 MLOAD DUP1 SWAP2 SUB SWAP1 REVERT JUMPDEST PUSH1 0x0 PUSH1 0x2 DUP2 GT ISZERO PUSH2 0x974 JUMPI PUSH2 0x973 PUSH2 0xD18 JUMP JUMPDEST JUMPDEST PUSH1 0x0 PUSH1 0x14 SWAP1 SLOAD SWAP1 PUSH2 0x100 EXP SWAP1 DIV PUSH1 0xFF AND PUSH1 0x2 DUP2 GT ISZERO PUSH2 0x996 JUMPI PUSH2 0x995 PUSH2 0xD18 JUMP JUMPDEST JUMPDEST EQ DUP1 PUSH2 0x9D4 JUMPI POP PUSH1 0x2 DUP1 DUP2 GT ISZERO PUSH2 0x9B0 JUMPI PUSH2 0x9AF PUSH2 0xD18 JUMP JUMPDEST JUMPDEST PUSH1 0x0 PUSH1 0x14 SWAP1 SLOAD SWAP1 PUSH2 0x100 EXP SWAP1 DIV PUSH1 0xFF AND PUSH1 0x2 DUP2 GT ISZERO PUSH2 0x9D2 JUMPI PUSH2 0x9D1 PUSH2 0xD18 JUMP JUMPDEST JUMPDEST EQ JUMPDEST PUSH2 0xA13 JUMPI PUSH1 0x40 MLOAD PUSH32 0x8C379A000000000000000000000000000000000000000000000000000000000 DUP2 MSTORE PUSH1 0x4 ADD PUSH2 0xA0A SWAP1 PUSH2 0x11BF JUMP JUMPDEST PUSH1 0x40 MLOAD DUP1 SWAP2 SUB SWAP1 REVERT JUMPDEST PUSH1 0x1 PUSH1 0x0 PUSH1 0x14 PUSH2 0x100 EXP DUP2 SLOAD DUP2 PUSH1 0xFF MUL NOT AND SWAP1 DUP4 PUSH1 0x2 DUP2 GT ISZERO PUSH2 0xA39 JUMPI PUSH2 0xA38 PUSH2 0xD18 JUMP JUMPDEST JUMPDEST MUL OR SWAP1 SSTORE POP POP JUMP JUMPDEST PUSH1 0x40 MLOAD DUP1 PUSH1 0x60 ADD PUSH1 0x40 MSTORE DUP1 PUSH1 0x60 DUP2 MSTORE PUSH1 0x20 ADD PUSH1 0x0 PUSH20 0xFFFFFFFFFFFFFFFFFFFFFFFFFFFFFFFFFFFFFFFF AND DUP2 MSTORE PUSH1 0x20 ADD PUSH1 0x60 DUP2 MSTORE POP SWAP1 JUMP JUMPDEST PUSH1 0x40 MLOAD DUP1 PUSH1 0x40 ADD PUSH1 0x40 MSTORE DUP1 PUSH1 0x60 DUP2 MSTORE PUSH1 0x20 ADD PUSH1 0x0 PUSH20 0xFFFFFFFFFFFFFFFFFFFFFFFFFFFFFFFFFFFFFFFF AND DUP2 MSTORE POP SWAP1 JUMP JUMPDEST PUSH1 0x0 PUSH1 0x40 MLOAD SWAP1 POP SWAP1 JUMP JUMPDEST PUSH1 0x0 DUP1 REVERT JUMPDEST PUSH1 0x0 DUP1 REVERT JUMPDEST PUSH1 0x0 PUSH20 0xFFFFFFFFFFFFFFFFFFFFFFFFFFFFFFFFFFFFFFFF DUP3 AND SWAP1 POP SWAP2 SWAP1 POP JUMP JUMPDEST PUSH1 0x0 PUSH2 0xAE7 DUP3 PUSH2 0xABC JUMP JUMPDEST SWAP1 POP SWAP2 SWAP1 POP JUMP JUMPDEST PUSH2 0xAF7 DUP2 PUSH2 0xADC JUMP JUMPDEST DUP2 EQ PUSH2 0xB02 JUMPI PUSH1 0x0 DUP1 REVERT JUMPDEST POP JUMP JUMPDEST PUSH1 0x0 DUP2 CALLDATALOAD SWAP1 POP PUSH2 0xB14 DUP2 PUSH2 0xAEE JUMP JUMPDEST SWAP3 SWAP2 POP POP JUMP JUMPDEST PUSH1 0x0 PUSH1 0x20 DUP3 DUP5 SUB SLT ISZERO PUSH2 0xB30 JUMPI PUSH2 0xB2F PUSH2 0xAB2 JUMP JUMPDEST JUMPDEST PUSH1 0x0 PUSH2 0xB3E DUP5 DUP3 DUP6 ADD PUSH2 0xB05 JUMP JUMPDEST SWAP2 POP POP SWAP3 SWAP2 POP POP JUMP JUMPDEST PUSH1 0x0 DUP1 REVERT JUMPDEST PUSH1 0x0 DUP1 REVERT JUMPDEST PUSH1 0x0 PUSH1 0x1F NOT PUSH1 0x1F DUP4 ADD AND SWAP1 POP SWAP2 SWAP1 POP JUMP JUMPDEST PUSH32 0x4E487B7100000000000000000000000000000000000000000000000000000000 PUSH1 0x0 MSTORE PUSH1 0x41 PUSH1 0x4 MSTORE PUSH1 0x24 PUSH1 0x0 REVERT JUMPDEST PUSH2 0xB9A DUP3 PUSH2 0xB51 JUMP JUMPDEST DUP2 ADD DUP2 DUP2 LT PUSH8 0xFFFFFFFFFFFFFFFF DUP3 GT OR ISZERO PUSH2 0xBB9 JUMPI PUSH2 0xBB8 PUSH2 0xB62 JUMP JUMPDEST JUMPDEST DUP1 PUSH1 0x40 MSTORE POP POP POP JUMP JUMPDEST PUSH1 0x0 PUSH2 0xBCC PUSH2 0xAA8 JUMP JUMPDEST SWAP1 POP PUSH2 0xBD8 DUP3 DUP3 PUSH2 0xB91 JUMP JUMPDEST SWAP2 SWAP1 POP JUMP JUMPDEST PUSH1 0x0 PUSH8 0xFFFFFFFFFFFFFFFF DUP3 GT ISZERO PUSH2 0xBF8 JUMPI PUSH2 0xBF7 PUSH2 0xB62 JUMP JUMPDEST JUMPDEST PUSH2 0xC01 DUP3 PUSH2 0xB51 JUMP JUMPDEST SWAP1 POP PUSH1 0x20 DUP2 ADD SWAP1 POP SWAP2 SWAP1 POP JUMP JUMPDEST DUP3 DUP2 DUP4 CALLDATACOPY PUSH1 0x0 DUP4 DUP4 ADD MSTORE POP POP POP JUMP JUMPDEST PUSH1 0x0 PUSH2 0xC30 PUSH2 0xC2B DUP5 PUSH2 0xBDD JUMP JUMPDEST PUSH2 0xBC2 JUMP JUMPDEST SWAP1 POP DUP3 DUP2 MSTORE PUSH1 0x20 DUP2 ADD DUP5 DUP5 DUP5 ADD GT ISZERO PUSH2 0xC4C JUMPI PUSH2 0xC4B PUSH2 0xB4C JUMP JUMPDEST JUMPDEST PUSH2 0xC57 DUP5 DUP3 DUP6 PUSH2 0xC0E JUMP JUMPDEST POP SWAP4 SWAP3 POP POP POP JUMP JUMPDEST PUSH1 0x0 DUP3 PUSH1 0x1F DUP4 ADD SLT PUSH2 0xC74 JUMPI PUSH2 0xC73 PUSH2 0xB47 JUMP JUMPDEST JUMPDEST DUP2 CALLDATALOAD PUSH2 0xC84 DUP5 DUP3 PUSH1 0x20 DUP7 ADD PUSH2 0xC1D JUMP JUMPDEST SWAP2 POP POP SWAP3 SWAP2 POP POP JUMP JUMPDEST PUSH1 0x0 DUP1 PUSH1 0x0 PUSH1 0x60 DUP5 DUP7 SUB SLT ISZERO PUSH2 0xCA6 JUMPI PUSH2 0xCA5 PUSH2 0xAB2 JUMP JUMPDEST JUMPDEST PUSH1 0x0 DUP5 ADD CALLDATALOAD PUSH8 0xFFFFFFFFFFFFFFFF DUP2 GT ISZERO PUSH2 0xCC4 JUMPI PUSH2 0xCC3 PUSH2 0xAB7 JUMP JUMPDEST JUMPDEST PUSH2 0xCD0 DUP7 DUP3 DUP8 ADD PUSH2 0xC5F JUMP JUMPDEST SWAP4 POP POP PUSH1 0x20 DUP5 ADD CALLDATALOAD PUSH8 0xFFFFFFFFFFFFFFFF DUP2 GT ISZERO PUSH2 0xCF1 JUMPI PUSH2 0xCF0 PUSH2 0xAB7 JUMP JUMPDEST JUMPDEST PUSH2 0xCFD DUP7 DUP3 DUP8 ADD PUSH2 0xC5F JUMP JUMPDEST SWAP3 POP POP PUSH1 0x40 PUSH2 0xD0E DUP7 DUP3 DUP8 ADD PUSH2 0xB05 JUMP JUMPDEST SWAP2 POP POP SWAP3 POP SWAP3 POP SWAP3 JUMP JUMPDEST PUSH32 0x4E487B7100000000000000000000000000000000000000000000000000000000 PUSH1 0x0 MSTORE PUSH1 0x21 PUSH1 0x4 MSTORE PUSH1 0x24 PUSH1 0x0 REVERT JUMPDEST PUSH1 0x3 DUP2 LT PUSH2 0xD58 JUMPI PUSH2 0xD57 PUSH2 0xD18 JUMP JUMPDEST JUMPDEST POP JUMP JUMPDEST PUSH1 0x0 DUP2 SWAP1 POP PUSH2 0xD69 DUP3 PUSH2 0xD47 JUMP JUMPDEST SWAP2 SWAP1 POP JUMP JUMPDEST PUSH1 0x0 PUSH2 0xD79 DUP3 PUSH2 0xD5B JUMP JUMPDEST SWAP1 POP SWAP2 SWAP1 POP JUMP JUMPDEST PUSH2 0xD89 DUP2 PUSH2 0xD6E JUMP JUMPDEST DUP3 MSTORE POP POP JUMP JUMPDEST PUSH1 0x0 PUSH1 0x20 DUP3 ADD SWAP1 POP PUSH2 0xDA4 PUSH1 0x0 DUP4 ADD DUP5 PUSH2 0xD80 JUMP JUMPDEST SWAP3 SWAP2 POP POP JUMP JUMPDEST PUSH1 0x0 DUP1 PUSH1 0x40 DUP4 DUP6 SUB SLT ISZERO PUSH2 0xDC1 JUMPI PUSH2 0xDC0 PUSH2 0xAB2 JUMP JUMPDEST JUMPDEST PUSH1 0x0 DUP4 ADD CALLDATALOAD PUSH8 0xFFFFFFFFFFFFFFFF DUP2 GT ISZERO PUSH2 0xDDF JUMPI PUSH2 0xDDE PUSH2 0xAB7 JUMP JUMPDEST JUMPDEST PUSH2 0xDEB DUP6 DUP3 DUP7 ADD PUSH2 0xC5F JUMP JUMPDEST SWAP3 POP POP PUSH1 0x20 PUSH2 0xDFC DUP6 DUP3 DUP7 ADD PUSH2 0xB05 JUMP JUMPDEST SWAP2 POP POP SWAP3 POP SWAP3 SWAP1 POP JUMP JUMPDEST PUSH1 0x0 PUSH1 0xFF DUP3 AND SWAP1 POP SWAP2 SWAP1 POP JUMP JUMPDEST PUSH2 0xE1C DUP2 PUSH2 0xE06 JUMP JUMPDEST DUP2 EQ PUSH2 0xE27 JUMPI PUSH1 0x0 DUP1 REVERT JUMPDEST POP JUMP JUMPDEST PUSH1 0x0 DUP2 CALLDATALOAD SWAP1 POP PUSH2 0xE39 DUP2 PUSH2 0xE13 JUMP JUMPDEST SWAP3 SWAP2 POP POP JUMP JUMPDEST PUSH1 0x0 PUSH1 0x20 DUP3 DUP5 SUB SLT ISZERO PUSH2 0xE55 JUMPI PUSH2 0xE54 PUSH2 0xAB2 JUMP JUMPDEST JUMPDEST PUSH1 0x0 PUSH2 0xE63 DUP5 DUP3 DUP6 ADD PUSH2 0xE2A JUMP JUMPDEST SWAP2 POP POP SWAP3 SWAP2 POP POP JUMP JUMPDEST PUSH1 0x0 DUP2 MLOAD SWAP1 POP SWAP2 SWAP1 POP JUMP JUMPDEST PUSH1 0x0 DUP3 DUP3 MSTORE PUSH1 0x20 DUP3 ADD SWAP1 POP SWAP3 SWAP2 POP POP JUMP JUMPDEST PUSH1 0x0 JUMPDEST DUP4 DUP2 LT ISZERO PUSH2 0xEA6 JUMPI DUP1 DUP3 ADD MLOAD DUP2 DUP5 ADD MSTORE PUSH1 0x20 DUP2 ADD SWAP1 POP PUSH2 0xE8B JUMP JUMPDEST PUSH1 0x0 DUP5 DUP5 ADD MSTORE POP POP POP POP JUMP JUMPDEST PUSH1 0x0 PUSH2 0xEBD DUP3 PUSH2 0xE6C JUMP JUMPDEST PUSH2 0xEC7 DUP2 DUP6 PUSH2 0xE77 JUMP JUMPDEST SWAP4 POP PUSH2 0xED7 DUP2 DUP6 PUSH1 0x20 DUP7 ADD PUSH2 0xE88 JUMP JUMPDEST PUSH2 0xEE0 DUP2 PUSH2 0xB51 JUMP JUMPDEST DUP5 ADD SWAP2 POP POP SWAP3 SWAP2 POP POP JUMP JUMPDEST PUSH2 0xEF4 DUP2 PUSH2 0xADC JUMP JUMPDEST DUP3 MSTORE POP POP JUMP JUMPDEST PUSH1 0x0 PUSH1 0x60 DUP4 ADD PUSH1 0x0 DUP4 ADD MLOAD DUP5 DUP3 SUB PUSH1 0x0 DUP7 ADD MSTORE PUSH2 0xF17 DUP3 DUP3 PUSH2 0xEB2 JUMP JUMPDEST SWAP2 POP POP PUSH1 0x20 DUP4 ADD MLOAD PUSH2 0xF2C PUSH1 0x20 DUP7 ADD DUP3 PUSH2 0xEEB JUMP JUMPDEST POP PUSH1 0x40 DUP4 ADD MLOAD DUP5 DUP3 SUB PUSH1 0x40 DUP7 ADD MSTORE PUSH2 0xF44 DUP3 DUP3 PUSH2 0xEB2 JUMP JUMPDEST SWAP2 POP POP DUP1 SWAP2 POP POP SWAP3 SWAP2 POP POP JUMP JUMPDEST PUSH1 0x0 PUSH1 0x20 DUP3 ADD SWAP1 POP DUP2 DUP2 SUB PUSH1 0x0 DUP4 ADD MSTORE PUSH2 0xF6B DUP2 DUP5 PUSH2 0xEFA JUMP JUMPDEST SWAP1 POP SWAP3 SWAP2 POP POP JUMP JUMPDEST PUSH1 0x0 PUSH1 0x40 DUP4 ADD PUSH1 0x0 DUP4 ADD MLOAD DUP5 DUP3 SUB PUSH1 0x0 DUP7 ADD MSTORE PUSH2 0xF90 DUP3 DUP3 PUSH2 0xEB2 JUMP JUMPDEST SWAP2 POP POP PUSH1 0x20 DUP4 ADD MLOAD PUSH2 0xFA5 PUSH1 0x20 DUP7 ADD DUP3 PUSH2 0xEEB JUMP JUMPDEST POP DUP1 SWAP2 POP POP SWAP3 SWAP2 POP POP JUMP JUMPDEST PUSH1 0x0 PUSH1 0x20 DUP3 ADD SWAP1 POP DUP2 DUP2 SUB PUSH1 0x0 DUP4 ADD MSTORE PUSH2 0xFCA DUP2 DUP5 PUSH2 0xF73 JUMP JUMPDEST SWAP1 POP SWAP3 SWAP2 POP POP JUMP JUMPDEST PUSH1 0x0 DUP3 DUP3 MSTORE PUSH1 0x20 DUP3 ADD SWAP1 POP SWAP3 SWAP2 POP POP JUMP JUMPDEST PUSH32 0x4F6E6C792061646D696E20697320616C6C6F77656420746F20656E6420656C65 PUSH1 0x0 DUP3 ADD MSTORE PUSH32 0x6374696F6E000000000000000000000000000000000000000000000000000000 PUSH1 0x20 DUP3 ADD MSTORE POP JUMP JUMPDEST PUSH1 0x0 PUSH2 0x103F PUSH1 0x25 DUP4 PUSH2 0xFD2 JUMP JUMPDEST SWAP2 POP PUSH2 0x104A DUP3 PUSH2 0xFE3 JUMP JUMPDEST PUSH1 0x40 DUP3 ADD SWAP1 POP SWAP2 SWAP1 POP JUMP JUMPDEST PUSH1 0x0 PUSH1 0x20 DUP3 ADD SWAP1 POP DUP2 DUP2 SUB PUSH1 0x0 DUP4 ADD MSTORE PUSH2 0x106E DUP2 PUSH2 0x1032 JUMP JUMPDEST SWAP1 POP SWAP2 SWAP1 POP JUMP JUMPDEST PUSH32 0x656C656374696F6E206973206E6F742073746172746564000000000000000000 PUSH1 0x0 DUP3 ADD MSTORE POP JUMP JUMPDEST PUSH1 0x0 PUSH2 0x10AB PUSH1 0x17 DUP4 PUSH2 0xFD2 JUMP JUMPDEST SWAP2 POP PUSH2 0x10B6 DUP3 PUSH2 0x1075 JUMP JUMPDEST PUSH1 0x20 DUP3 ADD SWAP1 POP SWAP2 SWAP1 POP JUMP JUMPDEST PUSH1 0x0 PUSH1 0x20 DUP3 ADD SWAP1 POP DUP2 DUP2 SUB PUSH1 0x0 DUP4 ADD MSTORE PUSH2 0x10DA DUP2 PUSH2 0x109E JUMP JUMPDEST SWAP1 POP SWAP2 SWAP1 POP JUMP JUMPDEST PUSH32 0x4F6E6C792061646D696E20697320616C6C6F77656420746F206164642063616E PUSH1 0x0 DUP3 ADD MSTORE PUSH32 0x6469646174650000000000000000000000000000000000000000000000000000 PUSH1 0x20 DUP3 ADD MSTORE POP JUMP JUMPDEST PUSH1 0x0 PUSH2 0x113D PUSH1 0x26 DUP4 PUSH2 0xFD2 JUMP JUMPDEST SWAP2 POP PUSH2 0x1148 DUP3 PUSH2 0x10E1 JUMP JUMPDEST PUSH1 0x40 DUP3 ADD SWAP1 POP SWAP2 SWAP1 POP JUMP JUMPDEST PUSH1 0x0 PUSH1 0x20 DUP3 ADD SWAP1 POP DUP2 DUP2 SUB PUSH1 0x0 DUP4 ADD MSTORE PUSH2 0x116C DUP2 PUSH2 0x1130 JUMP JUMPDEST SWAP1 POP SWAP2 SWAP1 POP JUMP JUMPDEST PUSH32 0x456C656374696F6E20616C726561647920737461727465640000000000000000 PUSH1 0x0 DUP3 ADD MSTORE POP JUMP JUMPDEST PUSH1 0x0 PUSH2 0x11A9 PUSH1 0x18 DUP4 PUSH2 0xFD2 JUMP JUMPDEST SWAP2 POP PUSH2 0x11B4 DUP3 PUSH2 0x1173 JUMP JUMPDEST PUSH1 0x20 DUP3 ADD SWAP1 POP SWAP2 SWAP1 POP JUMP JUMPDEST PUSH1 0x0 PUSH1 0x20 DUP3 ADD SWAP1 POP DUP2 DUP2 SUB PUSH1 0x0 DUP4 ADD MSTORE PUSH2 0x11D8 DUP2 PUSH2 0x119C JUMP JUMPDEST SWAP1 POP SWAP2 SWAP1 POP JUMP JUMPDEST PUSH32 0x4E487B7100000000000000000000000000000000000000000000000000000000 PUSH1 0x0 MSTORE PUSH1 0x11 PUSH1 0x4 MSTORE PUSH1 0x24 PUSH1 0x0 REVERT JUMPDEST PUSH1 0x0 PUSH2 0x1219 DUP3 PUSH2 0xE06 JUMP JUMPDEST SWAP2 POP PUSH1 0xFF DUP3 SUB PUSH2 0x122C JUMPI PUSH2 0x122B PUSH2 0x11DF JUMP JUMPDEST JUMPDEST PUSH1 0x1 DUP3 ADD SWAP1 POP SWAP2 SWAP1 POP JUMP JUMPDEST PUSH32 0x4E487B7100000000000000000000000000000000000000000000000000000000 PUSH1 0x0 MSTORE PUSH1 0x22 PUSH1 0x4 MSTORE PUSH1 0x24 PUSH1 0x0 REVERT JUMPDEST PUSH1 0x0 PUSH1 0x2 DUP3 DIV SWAP1 POP PUSH1 0x1 DUP3 AND DUP1 PUSH2 0x127E JUMPI PUSH1 0x7F DUP3 AND SWAP2 POP JUMPDEST PUSH1 0x20 DUP3 LT DUP2 SUB PUSH2 0x1291 JUMPI PUSH2 0x1290 PUSH2 0x1237 JUMP JUMPDEST JUMPDEST POP SWAP2 SWAP1 POP JUMP JUMPDEST PUSH1 0x0 DUP2 SWAP1 POP DUP2 PUSH1 0x0 MSTORE PUSH1 0x20 PUSH1 0x0 KECCAK256 SWAP1 POP SWAP2 SWAP1 POP JUMP JUMPDEST PUSH1 0x0 PUSH1 0x20 PUSH1 0x1F DUP4 ADD DIV SWAP1 POP SWAP2 SWAP1 POP JUMP JUMPDEST PUSH1 0x0 DUP3 DUP3 SHL SWAP1 POP SWAP3 SWAP2 POP POP JUMP JUMPDEST PUSH1 0x0 PUSH1 0x8 DUP4 MUL PUSH2 0x12F9 PUSH32 0xFFFFFFFFFFFFFFFFFFFFFFFFFFFFFFFFFFFFFFFFFFFFFFFFFFFFFFFFFFFFFFFF DUP3 PUSH2 0x12BC JUMP JUMPDEST PUSH2 0x1303 DUP7 DUP4 PUSH2 0x12BC JUMP JUMPDEST SWAP6 POP DUP1 NOT DUP5 AND SWAP4 POP DUP1 DUP7 AND DUP5 OR SWAP3 POP POP POP SWAP4 SWAP3 POP POP POP JUMP JUMPDEST PUSH1 0x0 DUP2 SWAP1 POP SWAP2 SWAP1 POP JUMP JUMPDEST PUSH1 0x0 DUP2 SWAP1 POP SWAP2 SWAP1 POP JUMP JUMPDEST PUSH1 0x0 PUSH2 0x134A PUSH2 0x1345 PUSH2 0x1340 DUP5 PUSH2 0x131B JUMP JUMPDEST PUSH2 0x1325 JUMP JUMPDEST PUSH2 0x131B JUMP JUMPDEST SWAP1 POP SWAP2 SWAP1 POP JUMP JUMPDEST PUSH1 0x0 DUP2 SWAP1 POP SWAP2 SWAP1 POP JUMP JUMPDEST PUSH2 0x1364 DUP4 PUSH2 0x132F JUMP JUMPDEST PUSH2 0x1378 PUSH2 0x1370 DUP3 PUSH2 0x1351 JUMP JUMPDEST DUP5 DUP5 SLOAD PUSH2 0x12C9 JUMP JUMPDEST DUP3 SSTORE POP POP POP POP JUMP JUMPDEST PUSH1 0x0 SWAP1 JUMP JUMPDEST PUSH2 0x138D PUSH2 0x1380 JUMP JUMPDEST PUSH2 0x1398 DUP2 DUP5 DUP5 PUSH2 0x135B JUMP JUMPDEST POP POP POP JUMP JUMPDEST JUMPDEST DUP2 DUP2 LT ISZERO PUSH2 0x13BC JUMPI PUSH2 0x13B1 PUSH1 0x0 DUP3 PUSH2 0x1385 JUMP JUMPDEST PUSH1 0x1 DUP2 ADD SWAP1 POP PUSH2 0x139E JUMP JUMPDEST POP POP JUMP JUMPDEST PUSH1 0x1F DUP3 GT ISZERO PUSH2 0x1401 JUMPI PUSH2 0x13D2 DUP2 PUSH2 0x1297 JUMP JUMPDEST PUSH2 0x13DB DUP5 PUSH2 0x12AC JUMP JUMPDEST DUP2 ADD PUSH1 0x20 DUP6 LT ISZERO PUSH2 0x13EA JUMPI DUP2 SWAP1 POP JUMPDEST PUSH2 0x13FE PUSH2 0x13F6 DUP6 PUSH2 0x12AC JUMP JUMPDEST DUP4 ADD DUP3 PUSH2 0x139D JUMP JUMPDEST POP POP JUMPDEST POP POP POP JUMP JUMPDEST PUSH1 0x0 DUP3 DUP3 SHR SWAP1 POP SWAP3 SWAP2 POP POP JUMP JUMPDEST PUSH1 0x0 PUSH2 0x1424 PUSH1 0x0 NOT DUP5 PUSH1 0x8 MUL PUSH2 0x1406 JUMP JUMPDEST NOT DUP1 DUP4 AND SWAP2 POP POP SWAP3 SWAP2 POP POP JUMP JUMPDEST PUSH1 0x0 PUSH2 0x143D DUP4 DUP4 PUSH2 0x1413 JUMP JUMPDEST SWAP2 POP DUP3 PUSH1 0x2 MUL DUP3 OR SWAP1 POP SWAP3 SWAP2 POP POP JUMP JUMPDEST PUSH2 0x1456 DUP3 PUSH2 0xE6C JUMP JUMPDEST PUSH8 0xFFFFFFFFFFFFFFFF DUP2 GT ISZERO PUSH2 0x146F JUMPI PUSH2 0x146E PUSH2 0xB62 JUMP JUMPDEST JUMPDEST PUSH2 0x1479 DUP3 SLOAD PUSH2 0x1266 JUMP JUMPDEST PUSH2 0x1484 DUP3 DUP3 DUP6 PUSH2 0x13C0 JUMP JUMPDEST PUSH1 0x0 PUSH1 0x20 SWAP1 POP PUSH1 0x1F DUP4 GT PUSH1 0x1 DUP2 EQ PUSH2 0x14B7 JUMPI PUSH1 0x0 DUP5 ISZERO PUSH2 0x14A5 JUMPI DUP3 DUP8 ADD MLOAD SWAP1 POP JUMPDEST PUSH2 0x14AF DUP6 DUP3 PUSH2 0x1431 JUMP JUMPDEST DUP7 SSTORE POP PUSH2 0x1517 JUMP JUMPDEST PUSH1 0x1F NOT DUP5 AND PUSH2 0x14C5 DUP7 PUSH2 0x1297 JUMP JUMPDEST PUSH1 0x0 JUMPDEST DUP3 DUP2 LT ISZERO PUSH2 0x14ED JUMPI DUP5 DUP10 ADD MLOAD DUP3 SSTORE PUSH1 0x1 DUP3 ADD SWAP2 POP PUSH1 0x20 DUP6 ADD SWAP5 POP PUSH1 0x20 DUP2 ADD SWAP1 POP PUSH2 0x14C8 JUMP JUMPDEST DUP7 DUP4 LT ISZERO PUSH2 0x150A JUMPI DUP5 DUP10 ADD MLOAD PUSH2 0x1506 PUSH1 0x1F DUP10 AND DUP3 PUSH2 0x1413 JUMP JUMPDEST DUP4 SSTORE POP JUMPDEST PUSH1 0x1 PUSH1 0x2 DUP9 MUL ADD DUP9 SSTORE POP POP POP JUMPDEST POP POP POP POP POP POP JUMP JUMPDEST PUSH32 0x4F6E6C792061646D696E20697320616C6C6F77656420746F2073746172742065 PUSH1 0x0 DUP3 ADD MSTORE PUSH32 0x6C656374696F6E00000000000000000000000000000000000000000000000000 PUSH1 0x20 DUP3 ADD MSTORE POP JUMP JUMPDEST PUSH1 0x0 PUSH2 0x157B PUSH1 0x27 DUP4 PUSH2 0xFD2 JUMP JUMPDEST SWAP2 POP PUSH2 0x1586 DUP3 PUSH2 0x151F JUMP JUMPDEST PUSH1 0x40 DUP3 ADD SWAP1 POP SWAP2 SWAP1 POP JUMP JUMPDEST PUSH1 0x0 PUSH1 0x20 DUP3 ADD SWAP1 POP DUP2 DUP2 SUB PUSH1 0x0 DUP4 ADD MSTORE PUSH2 0x15AA DUP2 PUSH2 0x156E JUMP JUMPDEST SWAP1 POP SWAP2 SWAP1 POP JUMP INVALID LOG2 PUSH5 0x6970667358 0x22 SLT KECCAK256 CODESIZE 0x5C 0xF6 POP SWAP3 PUSH2 0xFFF8 PUSH9 0xC1CD00E48ACAD3C294 LOG3 0xB3 SUB SWAP8 0x29 PUSH1 0xF1 0xB6 PREVRANDAO DUP14 CALLDATACOPY 0x2E PUSH21 0x5864736F6C63430008120033000000000000000000 "
				},
				"gasEstimates": {
					"creation": {
						"codeDepositCost": "1121400",
						"executionCost": "74100",
						"totalCost": "1195500"
					},
					"external": {
						"addCandidate(string,string,address)": "infinite",
						"addVoter(string,address)": "infinite",
						"endElection(address)": "29222",
						"getCandidate(uint8)": "infinite",
						"getElectionStatus()": "2663",
						"getVoter(address)": "infinite",
						"startElection(address)": "31553"
					}
				},
				"methodIdentifiers": {
					"addCandidate(string,string,address)": "0b32ff77",
					"addVoter(string,address)": "5607395b",
					"endElection(address)": "07e4b70a",
					"getCandidate(uint8)": "cde9370f",
					"getElectionStatus()": "122902a6",
					"getVoter(address)": "d4f50f98",
					"startElection(address)": "e6a5e61d"
				}
			},
			"storageLayout": {
				"storage": [
					{
						"astId": 8,
						"contract": "contracts/voting.sol:Voting",
						"label": "admin",
						"offset": 0,
						"slot": "0",
						"type": "t_address"
					},
					{
						"astId": 13,
						"contract": "contracts/voting.sol:Voting",
						"label": "status",
						"offset": 20,
						"slot": "0",
						"type": "t_enum(ElectionStatus)5"
					},
					{
						"astId": 23,
						"contract": "contracts/voting.sol:Voting",
						"label": "candiateId",
						"offset": 21,
						"slot": "0",
						"type": "t_uint8"
					},
					{
						"astId": 28,
						"contract": "contracts/voting.sol:Voting",
						"label": "candidates",
						"offset": 0,
						"slot": "1",
						"type": "t_mapping(t_uint8,t_struct(Candidate)20_storage)"
					},
					{
						"astId": 38,
						"contract": "contracts/voting.sol:Voting",
						"label": "voters",
						"offset": 0,
						"slot": "2",
						"type": "t_mapping(t_address,t_struct(Voter)33_storage)"
					}
				],
				"types": {
					"t_address": {
						"encoding": "inplace",
						"label": "address",
						"numberOfBytes": "20"
					},
					"t_enum(ElectionStatus)5": {
						"encoding": "inplace",
						"label": "enum Voting.ElectionStatus",
						"numberOfBytes": "1"
					},
					"t_mapping(t_address,t_struct(Voter)33_storage)": {
						"encoding": "mapping",
						"key": "t_address",
						"label": "mapping(address => struct Voting.Voter)",
						"numberOfBytes": "32",
						"value": "t_struct(Voter)33_storage"
					},
					"t_mapping(t_uint8,t_struct(Candidate)20_storage)": {
						"encoding": "mapping",
						"key": "t_uint8",
						"label": "mapping(uint8 => struct Voting.Candidate)",
						"numberOfBytes": "32",
						"value": "t_struct(Candidate)20_storage"
					},
					"t_string_storage": {
						"encoding": "bytes",
						"label": "string",
						"numberOfBytes": "32"
					},
					"t_struct(Candidate)20_storage": {
						"encoding": "inplace",
						"label": "struct Voting.Candidate",
						"members": [
							{
								"astId": 15,
								"contract": "contracts/voting.sol:Voting",
								"label": "name",
								"offset": 0,
								"slot": "0",
								"type": "t_string_storage"
							},
							{
								"astId": 17,
								"contract": "contracts/voting.sol:Voting",
								"label": "owner",
								"offset": 0,
								"slot": "1",
								"type": "t_address"
							},
							{
								"astId": 19,
								"contract": "contracts/voting.sol:Voting",
								"label": "proposal",
								"offset": 0,
								"slot": "2",
								"type": "t_string_storage"
							}
						],
						"numberOfBytes": "96"
					},
					"t_struct(Voter)33_storage": {
						"encoding": "inplace",
						"label": "struct Voting.Voter",
						"members": [
							{
								"astId": 30,
								"contract": "contracts/voting.sol:Voting",
								"label": "name",
								"offset": 0,
								"slot": "0",
								"type": "t_string_storage"
							},
							{
								"astId": 32,
								"contract": "contracts/voting.sol:Voting",
								"label": "voterAddress",
								"offset": 0,
								"slot": "1",
								"type": "t_address"
							}
						],
						"numberOfBytes": "64"
					},
					"t_uint8": {
						"encoding": "inplace",
						"label": "uint8",
						"numberOfBytes": "1"
					}
				}
			},
			"userdoc": {
				"kind": "user",
				"methods": {},
				"version": 1
			}
		}
	}
}