{
	"data": {
		"bytecode": {
			"linkReferences": {},
			"object": "6080604052735b38da6a701c568545dcfcb03fcb875f56beddc46000806101000a81548173ffffffffffffffffffffffffffffffffffffffff021916908373ffffffffffffffffffffffffffffffffffffffff16021790555060008060146101000a81548160ff0219169083600281111561007d5761007c6100af565b5b021790555060008060156101000a81548160ff021916908360ff1602179055503480156100a957600080fd5b506100de565b7f4e487b7100000000000000000000000000000000000000000000000000000000600052602160045260246000fd5b611ec6806100ed6000396000f3fe608060405234801561001057600080fd5b50600436106100935760003560e01c8063b81c645311610066578063b81c64531461010a578063cde9370f14610126578063d4f50f9814610156578063e5ed5b1e14610186578063e6a5e61d146101a257610093565b806307e4b70a146100985780630b32ff77146100b4578063122902a6146100d05780635607395b146100ee575b600080fd5b6100b260048036038101906100ad91906110be565b6101be565b005b6100ce60048036038101906100c99190611231565b6102f0565b005b6100d8610547565b6040516100e59190611333565b60405180910390f35b6101086004803603810190610103919061134e565b61055d565b005b610124600480360381019061011f91906113e3565b61068e565b005b610140600480360381019061013b9190611423565b61085c565b60405161014d9190611557565b60405180910390f35b610170600480360381019061016b91906110be565b610a26565b60405161017d91906115c9565b60405180910390f35b6101a0600480360381019061019b91906115eb565b610b84565b005b6101bc60048036038101906101b791906110be565b610e62565b005b60008054906101000a900473ffffffffffffffffffffffffffffffffffffffff1673ffffffffffffffffffffffffffffffffffffffff168173ffffffffffffffffffffffffffffffffffffffff161461024c576040517f08c379a0000000000000000000000000000000000000000000000000000000008152600401610243906116ae565b60405180910390fd5b600160028111156102605761025f6112bc565b5b600060149054906101000a900460ff166002811115610282576102816112bc565b5b146102c2576040517f08c379a00000000000000000000000000000000000000000000000000000000081526004016102b99061171a565b60405180910390fd5b6002600060146101000a81548160ff021916908360028111156102e8576102e76112bc565b5b021790555050565b60008054906101000a900473ffffffffffffffffffffffffffffffffffffffff1673ffffffffffffffffffffffffffffffffffffffff163373ffffffffffffffffffffffffffffffffffffffff161461037e576040517f08c379a0000000000000000000000000000000000000000000000000000000008152600401610375906117ac565b60405180910390fd5b60006002811115610392576103916112bc565b5b600060149054906101000a900460ff1660028111156103b4576103b36112bc565b5b14806103f257506002808111156103ce576103cd6112bc565b5b600060149054906101000a900460ff1660028111156103f0576103ef6112bc565b5b145b610431576040517f08c379a000000000000000000000000000000000000000000000000000000000815260040161042890611818565b60405180910390fd5b6000601581819054906101000a900460ff168092919061045090611867565b91906101000a81548160ff021916908360ff1602179055505082600160008060159054906101000a900460ff1660ff1660ff16815260200190815260200160002060000190816104a09190611aa6565b5081600160008060159054906101000a900460ff1660ff1660ff16815260200190815260200160002060020190816104d89190611aa6565b5080600160008060159054906101000a900460ff1660ff1660ff16815260200190815260200160002060010160006101000a81548173ffffffffffffffffffffffffffffffffffffffff021916908373ffffffffffffffffffffffffffffffffffffffff160217905550505050565b60008060149054906101000a900460ff16905090565b81600260008373ffffffffffffffffffffffffffffffffffffffff1673ffffffffffffffffffffffffffffffffffffffff16815260200190815260200160002060000190816105ac9190611aa6565b5080600260008373ffffffffffffffffffffffffffffffffffffffff1673ffffffffffffffffffffffffffffffffffffffff16815260200190815260200160002060010160006101000a81548173ffffffffffffffffffffffffffffffffffffffff021916908373ffffffffffffffffffffffffffffffffffffffff1602179055506001600260008373ffffffffffffffffffffffffffffffffffffffff1673ffffffffffffffffffffffffffffffffffffffff16815260200190815260200160002060010160146101000a81548160ff021916908360ff1602179055505050565b8073ffffffffffffffffffffffffffffffffffffffff163373ffffffffffffffffffffffffffffffffffffffff16146106fc576040517f08c379a00000000000000000000000000000000000000000000000000000000081526004016106f390611bc4565b60405180910390fd5b6000600260008373ffffffffffffffffffffffffffffffffffffffff1673ffffffffffffffffffffffffffffffffffffffff16815260200190815260200160002060010160149054906101000a900460ff1660ff1611610791576040517f08c379a000000000000000000000000000000000000000000000000000000000815260040161078890611c30565b60405180910390fd5b60018060008460ff1660ff16815260200190815260200160002060030160008282829054906101000a900460ff166107c99190611c50565b92506101000a81548160ff021916908360ff1602179055506001600260008373ffffffffffffffffffffffffffffffffffffffff1673ffffffffffffffffffffffffffffffffffffffff16815260200190815260200160002060010160148282829054906101000a900460ff166108409190611c85565b92506101000a81548160ff021916908360ff1602179055505050565b610864610fd1565b600160008360ff1660ff168152602001908152602001600020604051806080016040529081600082018054610898906118bf565b80601f01602080910402602001604051908101604052809291908181526020018280546108c4906118bf565b80156109115780601f106108e657610100808354040283529160200191610911565b820191906000526020600020905b8154815290600101906020018083116108f457829003601f168201915b505050505081526020016001820160009054906101000a900473ffffffffffffffffffffffffffffffffffffffff1673ffffffffffffffffffffffffffffffffffffffff1673ffffffffffffffffffffffffffffffffffffffff168152602001600282018054610980906118bf565b80601f01602080910402602001604051908101604052809291908181526020018280546109ac906118bf565b80156109f95780601f106109ce576101008083540402835291602001916109f9565b820191906000526020600020905b8154815290600101906020018083116109dc57829003601f168201915b505050505081526020016003820160009054906101000a900460ff1660ff1660ff16815250509050919050565b610a2e611012565b600260008373ffffffffffffffffffffffffffffffffffffffff1673ffffffffffffffffffffffffffffffffffffffff168152602001908152602001600020604051806060016040529081600082018054610a88906118bf565b80601f0160208091040260200160405190810160405280929190818152602001828054610ab4906118bf565b8015610b015780601f10610ad657610100808354040283529160200191610b01565b820191906000526020600020905b815481529060010190602001808311610ae457829003601f168201915b505050505081526020016001820160009054906101000a900473ffffffffffffffffffffffffffffffffffffffff1673ffffffffffffffffffffffffffffffffffffffff1673ffffffffffffffffffffffffffffffffffffffff1681526020016001820160149054906101000a900460ff1660ff1660ff16815250509050919050565b8173ffffffffffffffffffffffffffffffffffffffff163373ffffffffffffffffffffffffffffffffffffffff1614610bf2576040517f08c379a0000000000000000000000000000000000000000000000000000000008152600401610be990611d06565b60405180910390fd5b6000600260008473ffffffffffffffffffffffffffffffffffffffff1673ffffffffffffffffffffffffffffffffffffffff16815260200190815260200160002060010160149054906101000a900460ff1660ff1611610c87576040517f08c379a0000000000000000000000000000000000000000000000000000000008152600401610c7e90611d72565b60405180910390fd5b6000600260008373ffffffffffffffffffffffffffffffffffffffff1673ffffffffffffffffffffffffffffffffffffffff16815260200190815260200160002060010160149054906101000a900460ff1660ff1611610d1c576040517f08c379a0000000000000000000000000000000000000000000000000000000008152600401610d1390611dde565b60405180910390fd5b6000600260008473ffffffffffffffffffffffffffffffffffffffff1673ffffffffffffffffffffffffffffffffffffffff16815260200190815260200160002060010160149054906101000a900460ff16905080600260008473ffffffffffffffffffffffffffffffffffffffff1673ffffffffffffffffffffffffffffffffffffffff16815260200190815260200160002060010160148282829054906101000a900460ff16610dce9190611c50565b92506101000a81548160ff021916908360ff1602179055506001600260008573ffffffffffffffffffffffffffffffffffffffff1673ffffffffffffffffffffffffffffffffffffffff16815260200190815260200160002060010160148282829054906101000a900460ff16610e459190611c85565b92506101000a81548160ff021916908360ff160217905550505050565b60008054906101000a900473ffffffffffffffffffffffffffffffffffffffff1673ffffffffffffffffffffffffffffffffffffffff168173ffffffffffffffffffffffffffffffffffffffff1614610ef0576040517f08c379a0000000000000000000000000000000000000000000000000000000008152600401610ee790611e70565b60405180910390fd5b60006002811115610f0457610f036112bc565b5b600060149054906101000a900460ff166002811115610f2657610f256112bc565b5b1480610f645750600280811115610f4057610f3f6112bc565b5b600060149054906101000a900460ff166002811115610f6257610f616112bc565b5b145b610fa3576040517f08c379a0000000000000000000000000000000000000000000000000000000008152600401610f9a90611818565b60405180910390fd5b6001600060146101000a81548160ff02191690836002811115610fc957610fc86112bc565b5b021790555050565b604051806080016040528060608152602001600073ffffffffffffffffffffffffffffffffffffffff16815260200160608152602001600060ff1681525090565b604051806060016040528060608152602001600073ffffffffffffffffffffffffffffffffffffffff168152602001600060ff1681525090565b6000604051905090565b600080fd5b600080fd5b600073ffffffffffffffffffffffffffffffffffffffff82169050919050565b600061108b82611060565b9050919050565b61109b81611080565b81146110a657600080fd5b50565b6000813590506110b881611092565b92915050565b6000602082840312156110d4576110d3611056565b5b60006110e2848285016110a9565b91505092915050565b600080fd5b600080fd5b6000601f19601f8301169050919050565b7f4e487b7100000000000000000000000000000000000000000000000000000000600052604160045260246000fd5b61113e826110f5565b810181811067ffffffffffffffff8211171561115d5761115c611106565b5b80604052505050565b600061117061104c565b905061117c8282611135565b919050565b600067ffffffffffffffff82111561119c5761119b611106565b5b6111a5826110f5565b9050602081019050919050565b82818337600083830152505050565b60006111d46111cf84611181565b611166565b9050828152602081018484840111156111f0576111ef6110f0565b5b6111fb8482856111b2565b509392505050565b600082601f830112611218576112176110eb565b5b81356112288482602086016111c1565b91505092915050565b60008060006060848603121561124a57611249611056565b5b600084013567ffffffffffffffff8111156112685761126761105b565b5b61127486828701611203565b935050602084013567ffffffffffffffff8111156112955761129461105b565b5b6112a186828701611203565b92505060406112b2868287016110a9565b9150509250925092565b7f4e487b7100000000000000000000000000000000000000000000000000000000600052602160045260246000fd5b600381106112fc576112fb6112bc565b5b50565b600081905061130d826112eb565b919050565b600061131d826112ff565b9050919050565b61132d81611312565b82525050565b60006020820190506113486000830184611324565b92915050565b6000806040838503121561136557611364611056565b5b600083013567ffffffffffffffff8111156113835761138261105b565b5b61138f85828601611203565b92505060206113a0858286016110a9565b9150509250929050565b600060ff82169050919050565b6113c0816113aa565b81146113cb57600080fd5b50565b6000813590506113dd816113b7565b92915050565b600080604083850312156113fa576113f9611056565b5b6000611408858286016113ce565b9250506020611419858286016110a9565b9150509250929050565b60006020828403121561143957611438611056565b5b6000611447848285016113ce565b91505092915050565b600081519050919050565b600082825260208201905092915050565b60005b8381101561148a57808201518184015260208101905061146f565b60008484015250505050565b60006114a182611450565b6114ab818561145b565b93506114bb81856020860161146c565b6114c4816110f5565b840191505092915050565b6114d881611080565b82525050565b6114e7816113aa565b82525050565b6000608083016000830151848203600086015261150a8282611496565b915050602083015161151f60208601826114cf565b50604083015184820360408601526115378282611496565b915050606083015161154c60608601826114de565b508091505092915050565b6000602082019050818103600083015261157181846114ed565b905092915050565b600060608301600083015184820360008601526115968282611496565b91505060208301516115ab60208601826114cf565b5060408301516115be60408601826114de565b508091505092915050565b600060208201905081810360008301526115e38184611579565b905092915050565b6000806040838503121561160257611601611056565b5b6000611610858286016110a9565b9250506020611621858286016110a9565b9150509250929050565b600082825260208201905092915050565b7f4f6e6c792061646d696e20697320616c6c6f77656420746f20656e6420656c6560008201527f6374696f6e000000000000000000000000000000000000000000000000000000602082015250565b600061169860258361162b565b91506116a38261163c565b604082019050919050565b600060208201905081810360008301526116c78161168b565b9050919050565b7f656c656374696f6e206973206e6f742073746172746564000000000000000000600082015250565b600061170460178361162b565b915061170f826116ce565b602082019050919050565b60006020820190508181036000830152611733816116f7565b9050919050565b7f4f6e6c792061646d696e20697320616c6c6f77656420746f206164642063616e60008201527f6469646174650000000000000000000000000000000000000000000000000000602082015250565b600061179660268361162b565b91506117a18261173a565b604082019050919050565b600060208201905081810360008301526117c581611789565b9050919050565b7f456c656374696f6e20616c726561647920737461727465640000000000000000600082015250565b600061180260188361162b565b915061180d826117cc565b602082019050919050565b60006020820190508181036000830152611831816117f5565b9050919050565b7f4e487b7100000000000000000000000000000000000000000000000000000000600052601160045260246000fd5b6000611872826113aa565b915060ff820361188557611884611838565b5b600182019050919050565b7f4e487b7100000000000000000000000000000000000000000000000000000000600052602260045260246000fd5b600060028204905060018216806118d757607f821691505b6020821081036118ea576118e9611890565b5b50919050565b60008190508160005260206000209050919050565b60006020601f8301049050919050565b600082821b905092915050565b6000600883026119527fffffffffffffffffffffffffffffffffffffffffffffffffffffffffffffffff82611915565b61195c8683611915565b95508019841693508086168417925050509392505050565b6000819050919050565b6000819050919050565b60006119a361199e61199984611974565b61197e565b611974565b9050919050565b6000819050919050565b6119bd83611988565b6119d16119c9826119aa565b848454611922565b825550505050565b600090565b6119e66119d9565b6119f18184846119b4565b505050565b5b81811015611a1557611a0a6000826119de565b6001810190506119f7565b5050565b601f821115611a5a57611a2b816118f0565b611a3484611905565b81016020851015611a43578190505b611a57611a4f85611905565b8301826119f6565b50505b505050565b600082821c905092915050565b6000611a7d60001984600802611a5f565b1980831691505092915050565b6000611a968383611a6c565b9150826002028217905092915050565b611aaf82611450565b67ffffffffffffffff811115611ac857611ac7611106565b5b611ad282546118bf565b611add828285611a19565b600060209050601f831160018114611b105760008415611afe578287015190505b611b088582611a8a565b865550611b70565b601f198416611b1e866118f0565b60005b82811015611b4657848901518255600182019150602085019450602081019050611b21565b86831015611b635784890151611b5f601f891682611a6c565b8355505b6001600288020188555050505b505050505050565b7f4f6e6c7920766f7465722063616e20636173742068697320766f746500000000600082015250565b6000611bae601c8361162b565b9150611bb982611b78565b602082019050919050565b60006020820190508181036000830152611bdd81611ba1565b9050919050565b7f566f74657220616c726561647920766f74656400000000000000000000000000600082015250565b6000611c1a60138361162b565b9150611c2582611be4565b602082019050919050565b60006020820190508181036000830152611c4981611c0d565b9050919050565b6000611c5b826113aa565b9150611c66836113aa565b9250828201905060ff811115611c7f57611c7e611838565b5b92915050565b6000611c90826113aa565b9150611c9b836113aa565b9250828203905060ff811115611cb457611cb3611838565b5b92915050565b7f4f6e6c7920766f7465722063616e2064656c69676174652068697320766f7465600082015250565b6000611cf060208361162b565b9150611cfb82611cba565b602082019050919050565b60006020820190508181036000830152611d1f81611ce3565b9050919050565b7f766f746572206e6f742065786973747300000000000000000000000000000000600082015250565b6000611d5c60108361162b565b9150611d6782611d26565b602082019050919050565b60006020820190508181036000830152611d8b81611d4f565b9050919050565b7f7265636569766572206e6f742065786973747300000000000000000000000000600082015250565b6000611dc860138361162b565b9150611dd382611d92565b602082019050919050565b60006020820190508181036000830152611df781611dbb565b9050919050565b7f4f6e6c792061646d696e20697320616c6c6f77656420746f207374617274206560008201527f6c656374696f6e00000000000000000000000000000000000000000000000000602082015250565b6000611e5a60278361162b565b9150611e6582611dfe565b604082019050919050565b60006020820190508181036000830152611e8981611e4d565b905091905056fea2646970667358221220c7f8baded55f623a386d82c821d910389c366ee0703e685a6003d28729a24db164736f6c63430008120033",
			"opcodes": "PUSH1 0x80 PUSH1 0x40 MSTORE PUSH20 0x5B38DA6A701C568545DCFCB03FCB875F56BEDDC4 PUSH1 0x0 DUP1 PUSH2 0x100 EXP DUP2 SLOAD DUP2 PUSH20 0xFFFFFFFFFFFFFFFFFFFFFFFFFFFFFFFFFFFFFFFF MUL NOT AND SWAP1 DUP4 PUSH20 0xFFFFFFFFFFFFFFFFFFFFFFFFFFFFFFFFFFFFFFFF AND MUL OR SWAP1 SSTORE POP PUSH1 0x0 DUP1 PUSH1 0x14 PUSH2 0x100 EXP DUP2 SLOAD DUP2 PUSH1 0xFF MUL NOT AND SWAP1 DUP4 PUSH1 0x2 DUP2 GT ISZERO PUSH2 0x7D JUMPI PUSH2 0x7C PUSH2 0xAF JUMP JUMPDEST JUMPDEST MUL OR SWAP1 SSTORE POP PUSH1 0x0 DUP1 PUSH1 0x15 PUSH2 0x100 EXP DUP2 SLOAD DUP2 PUSH1 0xFF MUL NOT AND SWAP1 DUP4 PUSH1 0xFF AND MUL OR SWAP1 SSTORE POP CALLVALUE DUP1 ISZERO PUSH2 0xA9 JUMPI PUSH1 0x0 DUP1 REVERT JUMPDEST POP PUSH2 0xDE JUMP JUMPDEST PUSH32 0x4E487B7100000000000000000000000000000000000000000000000000000000 PUSH1 0x0 MSTORE PUSH1 0x21 PUSH1 0x4 MSTORE PUSH1 0x24 PUSH1 0x0 REVERT JUMPDEST PUSH2 0x1EC6 DUP1 PUSH2 0xED PUSH1 0x0 CODECOPY PUSH1 0x0 RETURN INVALID PUSH1 0x80 PUSH1 0x40 MSTORE CALLVALUE DUP1 ISZERO PUSH2 0x10 JUMPI PUSH1 0x0 DUP1 REVERT JUMPDEST POP PUSH1 0x4 CALLDATASIZE LT PUSH2 0x93 JUMPI PUSH1 0x0 CALLDATALOAD PUSH1 0xE0 SHR DUP1 PUSH4 0xB81C6453 GT PUSH2 0x66 JUMPI DUP1 PUSH4 0xB81C6453 EQ PUSH2 0x10A JUMPI DUP1 PUSH4 0xCDE9370F EQ PUSH2 0x126 JUMPI DUP1 PUSH4 0xD4F50F98 EQ PUSH2 0x156 JUMPI DUP1 PUSH4 0xE5ED5B1E EQ PUSH2 0x186 JUMPI DUP1 PUSH4 0xE6A5E61D EQ PUSH2 0x1A2 JUMPI PUSH2 0x93 JUMP JUMPDEST DUP1 PUSH4 0x7E4B70A EQ PUSH2 0x98 JUMPI DUP1 PUSH4 0xB32FF77 EQ PUSH2 0xB4 JUMPI DUP1 PUSH4 0x122902A6 EQ PUSH2 0xD0 JUMPI DUP1 PUSH4 0x5607395B EQ PUSH2 0xEE JUMPI JUMPDEST PUSH1 0x0 DUP1 REVERT JUMPDEST PUSH2 0xB2 PUSH1 0x4 DUP1 CALLDATASIZE SUB DUP2 ADD SWAP1 PUSH2 0xAD SWAP2 SWAP1 PUSH2 0x10BE JUMP JUMPDEST PUSH2 0x1BE JUMP JUMPDEST STOP JUMPDEST PUSH2 0xCE PUSH1 0x4 DUP1 CALLDATASIZE SUB DUP2 ADD SWAP1 PUSH2 0xC9 SWAP2 SWAP1 PUSH2 0x1231 JUMP JUMPDEST PUSH2 0x2F0 JUMP JUMPDEST STOP JUMPDEST PUSH2 0xD8 PUSH2 0x547 JUMP JUMPDEST PUSH1 0x40 MLOAD PUSH2 0xE5 SWAP2 SWAP1 PUSH2 0x1333 JUMP JUMPDEST PUSH1 0x40 MLOAD DUP1 SWAP2 SUB SWAP1 RETURN JUMPDEST PUSH2 0x108 PUSH1 0x4 DUP1 CALLDATASIZE SUB DUP2 ADD SWAP1 PUSH2 0x103 SWAP2 SWAP1 PUSH2 0x134E JUMP JUMPDEST PUSH2 0x55D JUMP JUMPDEST STOP JUMPDEST PUSH2 0x124 PUSH1 0x4 DUP1 CALLDATASIZE SUB DUP2 ADD SWAP1 PUSH2 0x11F SWAP2 SWAP1 PUSH2 0x13E3 JUMP JUMPDEST PUSH2 0x68E JUMP JUMPDEST STOP JUMPDEST PUSH2 0x140 PUSH1 0x4 DUP1 CALLDATASIZE SUB DUP2 ADD SWAP1 PUSH2 0x13B SWAP2 SWAP1 PUSH2 0x1423 JUMP JUMPDEST PUSH2 0x85C JUMP JUMPDEST PUSH1 0x40 MLOAD PUSH2 0x14D SWAP2 SWAP1 PUSH2 0x1557 JUMP JUMPDEST PUSH1 0x40 MLOAD DUP1 SWAP2 SUB SWAP1 RETURN JUMPDEST PUSH2 0x170 PUSH1 0x4 DUP1 CALLDATASIZE SUB DUP2 ADD SWAP1 PUSH2 0x16B SWAP2 SWAP1 PUSH2 0x10BE JUMP JUMPDEST PUSH2 0xA26 JUMP JUMPDEST PUSH1 0x40 MLOAD PUSH2 0x17D SWAP2 SWAP1 PUSH2 0x15C9 JUMP JUMPDEST PUSH1 0x40 MLOAD DUP1 SWAP2 SUB SWAP1 RETURN JUMPDEST PUSH2 0x1A0 PUSH1 0x4 DUP1 CALLDATASIZE SUB DUP2 ADD SWAP1 PUSH2 0x19B SWAP2 SWAP1 PUSH2 0x15EB JUMP JUMPDEST PUSH2 0xB84 JUMP JUMPDEST STOP JUMPDEST PUSH2 0x1BC PUSH1 0x4 DUP1 CALLDATASIZE SUB DUP2 ADD SWAP1 PUSH2 0x1B7 SWAP2 SWAP1 PUSH2 0x10BE JUMP JUMPDEST PUSH2 0xE62 JUMP JUMPDEST STOP JUMPDEST PUSH1 0x0 DUP1 SLOAD SWAP1 PUSH2 0x100 EXP SWAP1 DIV PUSH20 0xFFFFFFFFFFFFFFFFFFFFFFFFFFFFFFFFFFFFFFFF AND PUSH20 0xFFFFFFFFFFFFFFFFFFFFFFFFFFFFFFFFFFFFFFFF AND DUP2 PUSH20 0xFFFFFFFFFFFFFFFFFFFFFFFFFFFFFFFFFFFFFFFF AND EQ PUSH2 0x24C JUMPI PUSH1 0x40 MLOAD PUSH32 0x8C379A000000000000000000000000000000000000000000000000000000000 DUP2 MSTORE PUSH1 0x4 ADD PUSH2 0x243 SWAP1 PUSH2 0x16AE JUMP JUMPDEST PUSH1 0x40 MLOAD DUP1 SWAP2 SUB SWAP1 REVERT JUMPDEST PUSH1 0x1 PUSH1 0x2 DUP2 GT ISZERO PUSH2 0x260 JUMPI PUSH2 0x25F PUSH2 0x12BC JUMP JUMPDEST JUMPDEST PUSH1 0x0 PUSH1 0x14 SWAP1 SLOAD SWAP1 PUSH2 0x100 EXP SWAP1 DIV PUSH1 0xFF AND PUSH1 0x2 DUP2 GT ISZERO PUSH2 0x282 JUMPI PUSH2 0x281 PUSH2 0x12BC JUMP JUMPDEST JUMPDEST EQ PUSH2 0x2C2 JUMPI PUSH1 0x40 MLOAD PUSH32 0x8C379A000000000000000000000000000000000000000000000000000000000 DUP2 MSTORE PUSH1 0x4 ADD PUSH2 0x2B9 SWAP1 PUSH2 0x171A JUMP JUMPDEST PUSH1 0x40 MLOAD DUP1 SWAP2 SUB SWAP1 REVERT JUMPDEST PUSH1 0x2 PUSH1 0x0 PUSH1 0x14 PUSH2 0x100 EXP DUP2 SLOAD DUP2 PUSH1 0xFF MUL NOT AND SWAP1 DUP4 PUSH1 0x2 DUP2 GT ISZERO PUSH2 0x2E8 JUMPI PUSH2 0x2E7 PUSH2 0x12BC JUMP JUMPDEST JUMPDEST MUL OR SWAP1 SSTORE POP POP JUMP JUMPDEST PUSH1 0x0 DUP1 SLOAD SWAP1 PUSH2 0x100 EXP SWAP1 DIV PUSH20 0xFFFFFFFFFFFFFFFFFFFFFFFFFFFFFFFFFFFFFFFF AND PUSH20 0xFFFFFFFFFFFFFFFFFFFFFFFFFFFFFFFFFFFFFFFF AND CALLER PUSH20 0xFFFFFFFFFFFFFFFFFFFFFFFFFFFFFFFFFFFFFFFF AND EQ PUSH2 0x37E JUMPI PUSH1 0x40 MLOAD PUSH32 0x8C379A000000000000000000000000000000000000000000000000000000000 DUP2 MSTORE PUSH1 0x4 ADD PUSH2 0x375 SWAP1 PUSH2 0x17AC JUMP JUMPDEST PUSH1 0x40 MLOAD DUP1 SWAP2 SUB SWAP1 REVERT JUMPDEST PUSH1 0x0 PUSH1 0x2 DUP2 GT ISZERO PUSH2 0x392 JUMPI PUSH2 0x391 PUSH2 0x12BC JUMP JUMPDEST JUMPDEST PUSH1 0x0 PUSH1 0x14 SWAP1 SLOAD SWAP1 PUSH2 0x100 EXP SWAP1 DIV PUSH1 0xFF AND PUSH1 0x2 DUP2 GT ISZERO PUSH2 0x3B4 JUMPI PUSH2 0x3B3 PUSH2 0x12BC JUMP JUMPDEST JUMPDEST EQ DUP1 PUSH2 0x3F2 JUMPI POP PUSH1 0x2 DUP1 DUP2 GT ISZERO PUSH2 0x3CE JUMPI PUSH2 0x3CD PUSH2 0x12BC JUMP JUMPDEST JUMPDEST PUSH1 0x0 PUSH1 0x14 SWAP1 SLOAD SWAP1 PUSH2 0x100 EXP SWAP1 DIV PUSH1 0xFF AND PUSH1 0x2 DUP2 GT ISZERO PUSH2 0x3F0 JUMPI PUSH2 0x3EF PUSH2 0x12BC JUMP JUMPDEST JUMPDEST EQ JUMPDEST PUSH2 0x431 JUMPI PUSH1 0x40 MLOAD PUSH32 0x8C379A000000000000000000000000000000000000000000000000000000000 DUP2 MSTORE PUSH1 0x4 ADD PUSH2 0x428 SWAP1 PUSH2 0x1818 JUMP JUMPDEST PUSH1 0x40 MLOAD DUP1 SWAP2 SUB SWAP1 REVERT JUMPDEST PUSH1 0x0 PUSH1 0x15 DUP2 DUP2 SWAP1 SLOAD SWAP1 PUSH2 0x100 EXP SWAP1 DIV PUSH1 0xFF AND DUP1 SWAP3 SWAP2 SWAP1 PUSH2 0x450 SWAP1 PUSH2 0x1867 JUMP JUMPDEST SWAP2 SWAP1 PUSH2 0x100 EXP DUP2 SLOAD DUP2 PUSH1 0xFF MUL NOT AND SWAP1 DUP4 PUSH1 0xFF AND MUL OR SWAP1 SSTORE POP POP DUP3 PUSH1 0x1 PUSH1 0x0 DUP1 PUSH1 0x15 SWAP1 SLOAD SWAP1 PUSH2 0x100 EXP SWAP1 DIV PUSH1 0xFF AND PUSH1 0xFF AND PUSH1 0xFF AND DUP2 MSTORE PUSH1 0x20 ADD SWAP1 DUP2 MSTORE PUSH1 0x20 ADD PUSH1 0x0 KECCAK256 PUSH1 0x0 ADD SWAP1 DUP2 PUSH2 0x4A0 SWAP2 SWAP1 PUSH2 0x1AA6 JUMP JUMPDEST POP DUP2 PUSH1 0x1 PUSH1 0x0 DUP1 PUSH1 0x15 SWAP1 SLOAD SWAP1 PUSH2 0x100 EXP SWAP1 DIV PUSH1 0xFF AND PUSH1 0xFF AND PUSH1 0xFF AND DUP2 MSTORE PUSH1 0x20 ADD SWAP1 DUP2 MSTORE PUSH1 0x20 ADD PUSH1 0x0 KECCAK256 PUSH1 0x2 ADD SWAP1 DUP2 PUSH2 0x4D8 SWAP2 SWAP1 PUSH2 0x1AA6 JUMP JUMPDEST POP DUP1 PUSH1 0x1 PUSH1 0x0 DUP1 PUSH1 0x15 SWAP1 SLOAD SWAP1 PUSH2 0x100 EXP SWAP1 DIV PUSH1 0xFF AND PUSH1 0xFF AND PUSH1 0xFF AND DUP2 MSTORE PUSH1 0x20 ADD SWAP1 DUP2 MSTORE PUSH1 0x20 ADD PUSH1 0x0 KECCAK256 PUSH1 0x1 ADD PUSH1 0x0 PUSH2 0x100 EXP DUP2 SLOAD DUP2 PUSH20 0xFFFFFFFFFFFFFFFFFFFFFFFFFFFFFFFFFFFFFFFF MUL NOT AND SWAP1 DUP4 PUSH20 0xFFFFFFFFFFFFFFFFFFFFFFFFFFFFFFFFFFFFFFFF AND MUL OR SWAP1 SSTORE POP POP POP POP JUMP JUMPDEST PUSH1 0x0 DUP1 PUSH1 0x14 SWAP1 SLOAD SWAP1 PUSH2 0x100 EXP SWAP1 DIV PUSH1 0xFF AND SWAP1 POP SWAP1 JUMP JUMPDEST DUP2 PUSH1 0x2 PUSH1 0x0 DUP4 PUSH20 0xFFFFFFFFFFFFFFFFFFFFFFFFFFFFFFFFFFFFFFFF AND PUSH20 0xFFFFFFFFFFFFFFFFFFFFFFFFFFFFFFFFFFFFFFFF AND DUP2 MSTORE PUSH1 0x20 ADD SWAP1 DUP2 MSTORE PUSH1 0x20 ADD PUSH1 0x0 KECCAK256 PUSH1 0x0 ADD SWAP1 DUP2 PUSH2 0x5AC SWAP2 SWAP1 PUSH2 0x1AA6 JUMP JUMPDEST POP DUP1 PUSH1 0x2 PUSH1 0x0 DUP4 PUSH20 0xFFFFFFFFFFFFFFFFFFFFFFFFFFFFFFFFFFFFFFFF AND PUSH20 0xFFFFFFFFFFFFFFFFFFFFFFFFFFFFFFFFFFFFFFFF AND DUP2 MSTORE PUSH1 0x20 ADD SWAP1 DUP2 MSTORE PUSH1 0x20 ADD PUSH1 0x0 KECCAK256 PUSH1 0x1 ADD PUSH1 0x0 PUSH2 0x100 EXP DUP2 SLOAD DUP2 PUSH20 0xFFFFFFFFFFFFFFFFFFFFFFFFFFFFFFFFFFFFFFFF MUL NOT AND SWAP1 DUP4 PUSH20 0xFFFFFFFFFFFFFFFFFFFFFFFFFFFFFFFFFFFFFFFF AND MUL OR SWAP1 SSTORE POP PUSH1 0x1 PUSH1 0x2 PUSH1 0x0 DUP4 PUSH20 0xFFFFFFFFFFFFFFFFFFFFFFFFFFFFFFFFFFFFFFFF AND PUSH20 0xFFFFFFFFFFFFFFFFFFFFFFFFFFFFFFFFFFFFFFFF AND DUP2 MSTORE PUSH1 0x20 ADD SWAP1 DUP2 MSTORE PUSH1 0x20 ADD PUSH1 0x0 KECCAK256 PUSH1 0x1 ADD PUSH1 0x14 PUSH2 0x100 EXP DUP2 SLOAD DUP2 PUSH1 0xFF MUL NOT AND SWAP1 DUP4 PUSH1 0xFF AND MUL OR SWAP1 SSTORE POP POP POP JUMP JUMPDEST DUP1 PUSH20 0xFFFFFFFFFFFFFFFFFFFFFFFFFFFFFFFFFFFFFFFF AND CALLER PUSH20 0xFFFFFFFFFFFFFFFFFFFFFFFFFFFFFFFFFFFFFFFF AND EQ PUSH2 0x6FC JUMPI PUSH1 0x40 MLOAD PUSH32 0x8C379A000000000000000000000000000000000000000000000000000000000 DUP2 MSTORE PUSH1 0x4 ADD PUSH2 0x6F3 SWAP1 PUSH2 0x1BC4 JUMP JUMPDEST PUSH1 0x40 MLOAD DUP1 SWAP2 SUB SWAP1 REVERT JUMPDEST PUSH1 0x0 PUSH1 0x2 PUSH1 0x0 DUP4 PUSH20 0xFFFFFFFFFFFFFFFFFFFFFFFFFFFFFFFFFFFFFFFF AND PUSH20 0xFFFFFFFFFFFFFFFFFFFFFFFFFFFFFFFFFFFFFFFF AND DUP2 MSTORE PUSH1 0x20 ADD SWAP1 DUP2 MSTORE PUSH1 0x20 ADD PUSH1 0x0 KECCAK256 PUSH1 0x1 ADD PUSH1 0x14 SWAP1 SLOAD SWAP1 PUSH2 0x100 EXP SWAP1 DIV PUSH1 0xFF AND PUSH1 0xFF AND GT PUSH2 0x791 JUMPI PUSH1 0x40 MLOAD PUSH32 0x8C379A000000000000000000000000000000000000000000000000000000000 DUP2 MSTORE PUSH1 0x4 ADD PUSH2 0x788 SWAP1 PUSH2 0x1C30 JUMP JUMPDEST PUSH1 0x40 MLOAD DUP1 SWAP2 SUB SWAP1 REVERT JUMPDEST PUSH1 0x1 DUP1 PUSH1 0x0 DUP5 PUSH1 0xFF AND PUSH1 0xFF AND DUP2 MSTORE PUSH1 0x20 ADD SWAP1 DUP2 MSTORE PUSH1 0x20 ADD PUSH1 0x0 KECCAK256 PUSH1 0x3 ADD PUSH1 0x0 DUP3 DUP3 DUP3 SWAP1 SLOAD SWAP1 PUSH2 0x100 EXP SWAP1 DIV PUSH1 0xFF AND PUSH2 0x7C9 SWAP2 SWAP1 PUSH2 0x1C50 JUMP JUMPDEST SWAP3 POP PUSH2 0x100 EXP DUP2 SLOAD DUP2 PUSH1 0xFF MUL NOT AND SWAP1 DUP4 PUSH1 0xFF AND MUL OR SWAP1 SSTORE POP PUSH1 0x1 PUSH1 0x2 PUSH1 0x0 DUP4 PUSH20 0xFFFFFFFFFFFFFFFFFFFFFFFFFFFFFFFFFFFFFFFF AND PUSH20 0xFFFFFFFFFFFFFFFFFFFFFFFFFFFFFFFFFFFFFFFF AND DUP2 MSTORE PUSH1 0x20 ADD SWAP1 DUP2 MSTORE PUSH1 0x20 ADD PUSH1 0x0 KECCAK256 PUSH1 0x1 ADD PUSH1 0x14 DUP3 DUP3 DUP3 SWAP1 SLOAD SWAP1 PUSH2 0x100 EXP SWAP1 DIV PUSH1 0xFF AND PUSH2 0x840 SWAP2 SWAP1 PUSH2 0x1C85 JUMP JUMPDEST SWAP3 POP PUSH2 0x100 EXP DUP2 SLOAD DUP2 PUSH1 0xFF MUL NOT AND SWAP1 DUP4 PUSH1 0xFF AND MUL OR SWAP1 SSTORE POP POP POP JUMP JUMPDEST PUSH2 0x864 PUSH2 0xFD1 JUMP JUMPDEST PUSH1 0x1 PUSH1 0x0 DUP4 PUSH1 0xFF AND PUSH1 0xFF AND DUP2 MSTORE PUSH1 0x20 ADD SWAP1 DUP2 MSTORE PUSH1 0x20 ADD PUSH1 0x0 KECCAK256 PUSH1 0x40 MLOAD DUP1 PUSH1 0x80 ADD PUSH1 0x40 MSTORE SWAP1 DUP2 PUSH1 0x0 DUP3 ADD DUP1 SLOAD PUSH2 0x898 SWAP1 PUSH2 0x18BF JUMP JUMPDEST DUP1 PUSH1 0x1F ADD PUSH1 0x20 DUP1 SWAP2 DIV MUL PUSH1 0x20 ADD PUSH1 0x40 MLOAD SWAP1 DUP2 ADD PUSH1 0x40 MSTORE DUP1 SWAP3 SWAP2 SWAP1 DUP2 DUP2 MSTORE PUSH1 0x20 ADD DUP3 DUP1 SLOAD PUSH2 0x8C4 SWAP1 PUSH2 0x18BF JUMP JUMPDEST DUP1 ISZERO PUSH2 0x911 JUMPI DUP1 PUSH1 0x1F LT PUSH2 0x8E6 JUMPI PUSH2 0x100 DUP1 DUP4 SLOAD DIV MUL DUP4 MSTORE SWAP2 PUSH1 0x20 ADD SWAP2 PUSH2 0x911 JUMP JUMPDEST DUP3 ADD SWAP2 SWAP1 PUSH1 0x0 MSTORE PUSH1 0x20 PUSH1 0x0 KECCAK256 SWAP1 JUMPDEST DUP2 SLOAD DUP2 MSTORE SWAP1 PUSH1 0x1 ADD SWAP1 PUSH1 0x20 ADD DUP1 DUP4 GT PUSH2 0x8F4 JUMPI DUP3 SWAP1 SUB PUSH1 0x1F AND DUP3 ADD SWAP2 JUMPDEST POP POP POP POP POP DUP2 MSTORE PUSH1 0x20 ADD PUSH1 0x1 DUP3 ADD PUSH1 0x0 SWAP1 SLOAD SWAP1 PUSH2 0x100 EXP SWAP1 DIV PUSH20 0xFFFFFFFFFFFFFFFFFFFFFFFFFFFFFFFFFFFFFFFF AND PUSH20 0xFFFFFFFFFFFFFFFFFFFFFFFFFFFFFFFFFFFFFFFF AND PUSH20 0xFFFFFFFFFFFFFFFFFFFFFFFFFFFFFFFFFFFFFFFF AND DUP2 MSTORE PUSH1 0x20 ADD PUSH1 0x2 DUP3 ADD DUP1 SLOAD PUSH2 0x980 SWAP1 PUSH2 0x18BF JUMP JUMPDEST DUP1 PUSH1 0x1F ADD PUSH1 0x20 DUP1 SWAP2 DIV MUL PUSH1 0x20 ADD PUSH1 0x40 MLOAD SWAP1 DUP2 ADD PUSH1 0x40 MSTORE DUP1 SWAP3 SWAP2 SWAP1 DUP2 DUP2 MSTORE PUSH1 0x20 ADD DUP3 DUP1 SLOAD PUSH2 0x9AC SWAP1 PUSH2 0x18BF JUMP JUMPDEST DUP1 ISZERO PUSH2 0x9F9 JUMPI DUP1 PUSH1 0x1F LT PUSH2 0x9CE JUMPI PUSH2 0x100 DUP1 DUP4 SLOAD DIV MUL DUP4 MSTORE SWAP2 PUSH1 0x20 ADD SWAP2 PUSH2 0x9F9 JUMP JUMPDEST DUP3 ADD SWAP2 SWAP1 PUSH1 0x0 MSTORE PUSH1 0x20 PUSH1 0x0 KECCAK256 SWAP1 JUMPDEST DUP2 SLOAD DUP2 MSTORE SWAP1 PUSH1 0x1 ADD SWAP1 PUSH1 0x20 ADD DUP1 DUP4 GT PUSH2 0x9DC JUMPI DUP3 SWAP1 SUB PUSH1 0x1F AND DUP3 ADD SWAP2 JUMPDEST POP POP POP POP POP DUP2 MSTORE PUSH1 0x20 ADD PUSH1 0x3 DUP3 ADD PUSH1 0x0 SWAP1 SLOAD SWAP1 PUSH2 0x100 EXP SWAP1 DIV PUSH1 0xFF AND PUSH1 0xFF AND PUSH1 0xFF AND DUP2 MSTORE POP POP SWAP1 POP SWAP2 SWAP1 POP JUMP JUMPDEST PUSH2 0xA2E PUSH2 0x1012 JUMP JUMPDEST PUSH1 0x2 PUSH1 0x0 DUP4 PUSH20 0xFFFFFFFFFFFFFFFFFFFFFFFFFFFFFFFFFFFFFFFF AND PUSH20 0xFFFFFFFFFFFFFFFFFFFFFFFFFFFFFFFFFFFFFFFF AND DUP2 MSTORE PUSH1 0x20 ADD SWAP1 DUP2 MSTORE PUSH1 0x20 ADD PUSH1 0x0 KECCAK256 PUSH1 0x40 MLOAD DUP1 PUSH1 0x60 ADD PUSH1 0x40 MSTORE SWAP1 DUP2 PUSH1 0x0 DUP3 ADD DUP1 SLOAD PUSH2 0xA88 SWAP1 PUSH2 0x18BF JUMP JUMPDEST DUP1 PUSH1 0x1F ADD PUSH1 0x20 DUP1 SWAP2 DIV MUL PUSH1 0x20 ADD PUSH1 0x40 MLOAD SWAP1 DUP2 ADD PUSH1 0x40 MSTORE DUP1 SWAP3 SWAP2 SWAP1 DUP2 DUP2 MSTORE PUSH1 0x20 ADD DUP3 DUP1 SLOAD PUSH2 0xAB4 SWAP1 PUSH2 0x18BF JUMP JUMPDEST DUP1 ISZERO PUSH2 0xB01 JUMPI DUP1 PUSH1 0x1F LT PUSH2 0xAD6 JUMPI PUSH2 0x100 DUP1 DUP4 SLOAD DIV MUL DUP4 MSTORE SWAP2 PUSH1 0x20 ADD SWAP2 PUSH2 0xB01 JUMP JUMPDEST DUP3 ADD SWAP2 SWAP1 PUSH1 0x0 MSTORE PUSH1 0x20 PUSH1 0x0 KECCAK256 SWAP1 JUMPDEST DUP2 SLOAD DUP2 MSTORE SWAP1 PUSH1 0x1 ADD SWAP1 PUSH1 0x20 ADD DUP1 DUP4 GT PUSH2 0xAE4 JUMPI DUP3 SWAP1 SUB PUSH1 0x1F AND DUP3 ADD SWAP2 JUMPDEST POP POP POP POP POP DUP2 MSTORE PUSH1 0x20 ADD PUSH1 0x1 DUP3 ADD PUSH1 0x0 SWAP1 SLOAD SWAP1 PUSH2 0x100 EXP SWAP1 DIV PUSH20 0xFFFFFFFFFFFFFFFFFFFFFFFFFFFFFFFFFFFFFFFF AND PUSH20 0xFFFFFFFFFFFFFFFFFFFFFFFFFFFFFFFFFFFFFFFF AND PUSH20 0xFFFFFFFFFFFFFFFFFFFFFFFFFFFFFFFFFFFFFFFF AND DUP2 MSTORE PUSH1 0x20 ADD PUSH1 0x1 DUP3 ADD PUSH1 0x14 SWAP1 SLOAD SWAP1 PUSH2 0x100 EXP SWAP1 DIV PUSH1 0xFF AND PUSH1 0xFF AND PUSH1 0xFF AND DUP2 MSTORE POP POP SWAP1 POP SWAP2 SWAP1 POP JUMP JUMPDEST DUP2 PUSH20 0xFFFFFFFFFFFFFFFFFFFFFFFFFFFFFFFFFFFFFFFF AND CALLER PUSH20 0xFFFFFFFFFFFFFFFFFFFFFFFFFFFFFFFFFFFFFFFF AND EQ PUSH2 0xBF2 JUMPI PUSH1 0x40 MLOAD PUSH32 0x8C379A000000000000000000000000000000000000000000000000000000000 DUP2 MSTORE PUSH1 0x4 ADD PUSH2 0xBE9 SWAP1 PUSH2 0x1D06 JUMP JUMPDEST PUSH1 0x40 MLOAD DUP1 SWAP2 SUB SWAP1 REVERT JUMPDEST PUSH1 0x0 PUSH1 0x2 PUSH1 0x0 DUP5 PUSH20 0xFFFFFFFFFFFFFFFFFFFFFFFFFFFFFFFFFFFFFFFF AND PUSH20 0xFFFFFFFFFFFFFFFFFFFFFFFFFFFFFFFFFFFFFFFF AND DUP2 MSTORE PUSH1 0x20 ADD SWAP1 DUP2 MSTORE PUSH1 0x20 ADD PUSH1 0x0 KECCAK256 PUSH1 0x1 ADD PUSH1 0x14 SWAP1 SLOAD SWAP1 PUSH2 0x100 EXP SWAP1 DIV PUSH1 0xFF AND PUSH1 0xFF AND GT PUSH2 0xC87 JUMPI PUSH1 0x40 MLOAD PUSH32 0x8C379A000000000000000000000000000000000000000000000000000000000 DUP2 MSTORE PUSH1 0x4 ADD PUSH2 0xC7E SWAP1 PUSH2 0x1D72 JUMP JUMPDEST PUSH1 0x40 MLOAD DUP1 SWAP2 SUB SWAP1 REVERT JUMPDEST PUSH1 0x0 PUSH1 0x2 PUSH1 0x0 DUP4 PUSH20 0xFFFFFFFFFFFFFFFFFFFFFFFFFFFFFFFFFFFFFFFF AND PUSH20 0xFFFFFFFFFFFFFFFFFFFFFFFFFFFFFFFFFFFFFFFF AND DUP2 MSTORE PUSH1 0x20 ADD SWAP1 DUP2 MSTORE PUSH1 0x20 ADD PUSH1 0x0 KECCAK256 PUSH1 0x1 ADD PUSH1 0x14 SWAP1 SLOAD SWAP1 PUSH2 0x100 EXP SWAP1 DIV PUSH1 0xFF AND PUSH1 0xFF AND GT PUSH2 0xD1C JUMPI PUSH1 0x40 MLOAD PUSH32 0x8C379A000000000000000000000000000000000000000000000000000000000 DUP2 MSTORE PUSH1 0x4 ADD PUSH2 0xD13 SWAP1 PUSH2 0x1DDE JUMP JUMPDEST PUSH1 0x40 MLOAD DUP1 SWAP2 SUB SWAP1 REVERT JUMPDEST PUSH1 0x0 PUSH1 0x2 PUSH1 0x0 DUP5 PUSH20 0xFFFFFFFFFFFFFFFFFFFFFFFFFFFFFFFFFFFFFFFF AND PUSH20 0xFFFFFFFFFFFFFFFFFFFFFFFFFFFFFFFFFFFFFFFF AND DUP2 MSTORE PUSH1 0x20 ADD SWAP1 DUP2 MSTORE PUSH1 0x20 ADD PUSH1 0x0 KECCAK256 PUSH1 0x1 ADD PUSH1 0x14 SWAP1 SLOAD SWAP1 PUSH2 0x100 EXP SWAP1 DIV PUSH1 0xFF AND SWAP1 POP DUP1 PUSH1 0x2 PUSH1 0x0 DUP5 PUSH20 0xFFFFFFFFFFFFFFFFFFFFFFFFFFFFFFFFFFFFFFFF AND PUSH20 0xFFFFFFFFFFFFFFFFFFFFFFFFFFFFFFFFFFFFFFFF AND DUP2 MSTORE PUSH1 0x20 ADD SWAP1 DUP2 MSTORE PUSH1 0x20 ADD PUSH1 0x0 KECCAK256 PUSH1 0x1 ADD PUSH1 0x14 DUP3 DUP3 DUP3 SWAP1 SLOAD SWAP1 PUSH2 0x100 EXP SWAP1 DIV PUSH1 0xFF AND PUSH2 0xDCE SWAP2 SWAP1 PUSH2 0x1C50 JUMP JUMPDEST SWAP3 POP PUSH2 0x100 EXP DUP2 SLOAD DUP2 PUSH1 0xFF MUL NOT AND SWAP1 DUP4 PUSH1 0xFF AND MUL OR SWAP1 SSTORE POP PUSH1 0x1 PUSH1 0x2 PUSH1 0x0 DUP6 PUSH20 0xFFFFFFFFFFFFFFFFFFFFFFFFFFFFFFFFFFFFFFFF AND PUSH20 0xFFFFFFFFFFFFFFFFFFFFFFFFFFFFFFFFFFFFFFFF AND DUP2 MSTORE PUSH1 0x20 ADD SWAP1 DUP2 MSTORE PUSH1 0x20 ADD PUSH1 0x0 KECCAK256 PUSH1 0x1 ADD PUSH1 0x14 DUP3 DUP3 DUP3 SWAP1 SLOAD SWAP1 PUSH2 0x100 EXP SWAP1 DIV PUSH1 0xFF AND PUSH2 0xE45 SWAP2 SWAP1 PUSH2 0x1C85 JUMP JUMPDEST SWAP3 POP PUSH2 0x100 EXP DUP2 SLOAD DUP2 PUSH1 0xFF MUL NOT AND SWAP1 DUP4 PUSH1 0xFF AND MUL OR SWAP1 SSTORE POP POP POP POP JUMP JUMPDEST PUSH1 0x0 DUP1 SLOAD SWAP1 PUSH2 0x100 EXP SWAP1 DIV PUSH20 0xFFFFFFFFFFFFFFFFFFFFFFFFFFFFFFFFFFFFFFFF AND PUSH20 0xFFFFFFFFFFFFFFFFFFFFFFFFFFFFFFFFFFFFFFFF AND DUP2 PUSH20 0xFFFFFFFFFFFFFFFFFFFFFFFFFFFFFFFFFFFFFFFF AND EQ PUSH2 0xEF0 JUMPI PUSH1 0x40 MLOAD PUSH32 0x8C379A000000000000000000000000000000000000000000000000000000000 DUP2 MSTORE PUSH1 0x4 ADD PUSH2 0xEE7 SWAP1 PUSH2 0x1E70 JUMP JUMPDEST PUSH1 0x40 MLOAD DUP1 SWAP2 SUB SWAP1 REVERT JUMPDEST PUSH1 0x0 PUSH1 0x2 DUP2 GT ISZERO PUSH2 0xF04 JUMPI PUSH2 0xF03 PUSH2 0x12BC JUMP JUMPDEST JUMPDEST PUSH1 0x0 PUSH1 0x14 SWAP1 SLOAD SWAP1 PUSH2 0x100 EXP SWAP1 DIV PUSH1 0xFF AND PUSH1 0x2 DUP2 GT ISZERO PUSH2 0xF26 JUMPI PUSH2 0xF25 PUSH2 0x12BC JUMP JUMPDEST JUMPDEST EQ DUP1 PUSH2 0xF64 JUMPI POP PUSH1 0x2 DUP1 DUP2 GT ISZERO PUSH2 0xF40 JUMPI PUSH2 0xF3F PUSH2 0x12BC JUMP JUMPDEST JUMPDEST PUSH1 0x0 PUSH1 0x14 SWAP1 SLOAD SWAP1 PUSH2 0x100 EXP SWAP1 DIV PUSH1 0xFF AND PUSH1 0x2 DUP2 GT ISZERO PUSH2 0xF62 JUMPI PUSH2 0xF61 PUSH2 0x12BC JUMP JUMPDEST JUMPDEST EQ JUMPDEST PUSH2 0xFA3 JUMPI PUSH1 0x40 MLOAD PUSH32 0x8C379A000000000000000000000000000000000000000000000000000000000 DUP2 MSTORE PUSH1 0x4 ADD PUSH2 0xF9A SWAP1 PUSH2 0x1818 JUMP JUMPDEST PUSH1 0x40 MLOAD DUP1 SWAP2 SUB SWAP1 REVERT JUMPDEST PUSH1 0x1 PUSH1 0x0 PUSH1 0x14 PUSH2 0x100 EXP DUP2 SLOAD DUP2 PUSH1 0xFF MUL NOT AND SWAP1 DUP4 PUSH1 0x2 DUP2 GT ISZERO PUSH2 0xFC9 JUMPI PUSH2 0xFC8 PUSH2 0x12BC JUMP JUMPDEST JUMPDEST MUL OR SWAP1 SSTORE POP POP JUMP JUMPDEST PUSH1 0x40 MLOAD DUP1 PUSH1 0x80 ADD PUSH1 0x40 MSTORE DUP1 PUSH1 0x60 DUP2 MSTORE PUSH1 0x20 ADD PUSH1 0x0 PUSH20 0xFFFFFFFFFFFFFFFFFFFFFFFFFFFFFFFFFFFFFFFF AND DUP2 MSTORE PUSH1 0x20 ADD PUSH1 0x60 DUP2 MSTORE PUSH1 0x20 ADD PUSH1 0x0 PUSH1 0xFF AND DUP2 MSTORE POP SWAP1 JUMP JUMPDEST PUSH1 0x40 MLOAD DUP1 PUSH1 0x60 ADD PUSH1 0x40 MSTORE DUP1 PUSH1 0x60 DUP2 MSTORE PUSH1 0x20 ADD PUSH1 0x0 PUSH20 0xFFFFFFFFFFFFFFFFFFFFFFFFFFFFFFFFFFFFFFFF AND DUP2 MSTORE PUSH1 0x20 ADD PUSH1 0x0 PUSH1 0xFF AND DUP2 MSTORE POP SWAP1 JUMP JUMPDEST PUSH1 0x0 PUSH1 0x40 MLOAD SWAP1 POP SWAP1 JUMP JUMPDEST PUSH1 0x0 DUP1 REVERT JUMPDEST PUSH1 0x0 DUP1 REVERT JUMPDEST PUSH1 0x0 PUSH20 0xFFFFFFFFFFFFFFFFFFFFFFFFFFFFFFFFFFFFFFFF DUP3 AND SWAP1 POP SWAP2 SWAP1 POP JUMP JUMPDEST PUSH1 0x0 PUSH2 0x108B DUP3 PUSH2 0x1060 JUMP JUMPDEST SWAP1 POP SWAP2 SWAP1 POP JUMP JUMPDEST PUSH2 0x109B DUP2 PUSH2 0x1080 JUMP JUMPDEST DUP2 EQ PUSH2 0x10A6 JUMPI PUSH1 0x0 DUP1 REVERT JUMPDEST POP JUMP JUMPDEST PUSH1 0x0 DUP2 CALLDATALOAD SWAP1 POP PUSH2 0x10B8 DUP2 PUSH2 0x1092 JUMP JUMPDEST SWAP3 SWAP2 POP POP JUMP JUMPDEST PUSH1 0x0 PUSH1 0x20 DUP3 DUP5 SUB SLT ISZERO PUSH2 0x10D4 JUMPI PUSH2 0x10D3 PUSH2 0x1056 JUMP JUMPDEST JUMPDEST PUSH1 0x0 PUSH2 0x10E2 DUP5 DUP3 DUP6 ADD PUSH2 0x10A9 JUMP JUMPDEST SWAP2 POP POP SWAP3 SWAP2 POP POP JUMP JUMPDEST PUSH1 0x0 DUP1 REVERT JUMPDEST PUSH1 0x0 DUP1 REVERT JUMPDEST PUSH1 0x0 PUSH1 0x1F NOT PUSH1 0x1F DUP4 ADD AND SWAP1 POP SWAP2 SWAP1 POP JUMP JUMPDEST PUSH32 0x4E487B7100000000000000000000000000000000000000000000000000000000 PUSH1 0x0 MSTORE PUSH1 0x41 PUSH1 0x4 MSTORE PUSH1 0x24 PUSH1 0x0 REVERT JUMPDEST PUSH2 0x113E DUP3 PUSH2 0x10F5 JUMP JUMPDEST DUP2 ADD DUP2 DUP2 LT PUSH8 0xFFFFFFFFFFFFFFFF DUP3 GT OR ISZERO PUSH2 0x115D JUMPI PUSH2 0x115C PUSH2 0x1106 JUMP JUMPDEST JUMPDEST DUP1 PUSH1 0x40 MSTORE POP POP POP JUMP JUMPDEST PUSH1 0x0 PUSH2 0x1170 PUSH2 0x104C JUMP JUMPDEST SWAP1 POP PUSH2 0x117C DUP3 DUP3 PUSH2 0x1135 JUMP JUMPDEST SWAP2 SWAP1 POP JUMP JUMPDEST PUSH1 0x0 PUSH8 0xFFFFFFFFFFFFFFFF DUP3 GT ISZERO PUSH2 0x119C JUMPI PUSH2 0x119B PUSH2 0x1106 JUMP JUMPDEST JUMPDEST PUSH2 0x11A5 DUP3 PUSH2 0x10F5 JUMP JUMPDEST SWAP1 POP PUSH1 0x20 DUP2 ADD SWAP1 POP SWAP2 SWAP1 POP JUMP JUMPDEST DUP3 DUP2 DUP4 CALLDATACOPY PUSH1 0x0 DUP4 DUP4 ADD MSTORE POP POP POP JUMP JUMPDEST PUSH1 0x0 PUSH2 0x11D4 PUSH2 0x11CF DUP5 PUSH2 0x1181 JUMP JUMPDEST PUSH2 0x1166 JUMP JUMPDEST SWAP1 POP DUP3 DUP2 MSTORE PUSH1 0x20 DUP2 ADD DUP5 DUP5 DUP5 ADD GT ISZERO PUSH2 0x11F0 JUMPI PUSH2 0x11EF PUSH2 0x10F0 JUMP JUMPDEST JUMPDEST PUSH2 0x11FB DUP5 DUP3 DUP6 PUSH2 0x11B2 JUMP JUMPDEST POP SWAP4 SWAP3 POP POP POP JUMP JUMPDEST PUSH1 0x0 DUP3 PUSH1 0x1F DUP4 ADD SLT PUSH2 0x1218 JUMPI PUSH2 0x1217 PUSH2 0x10EB JUMP JUMPDEST JUMPDEST DUP2 CALLDATALOAD PUSH2 0x1228 DUP5 DUP3 PUSH1 0x20 DUP7 ADD PUSH2 0x11C1 JUMP JUMPDEST SWAP2 POP POP SWAP3 SWAP2 POP POP JUMP JUMPDEST PUSH1 0x0 DUP1 PUSH1 0x0 PUSH1 0x60 DUP5 DUP7 SUB SLT ISZERO PUSH2 0x124A JUMPI PUSH2 0x1249 PUSH2 0x1056 JUMP JUMPDEST JUMPDEST PUSH1 0x0 DUP5 ADD CALLDATALOAD PUSH8 0xFFFFFFFFFFFFFFFF DUP2 GT ISZERO PUSH2 0x1268 JUMPI PUSH2 0x1267 PUSH2 0x105B JUMP JUMPDEST JUMPDEST PUSH2 0x1274 DUP7 DUP3 DUP8 ADD PUSH2 0x1203 JUMP JUMPDEST SWAP4 POP POP PUSH1 0x20 DUP5 ADD CALLDATALOAD PUSH8 0xFFFFFFFFFFFFFFFF DUP2 GT ISZERO PUSH2 0x1295 JUMPI PUSH2 0x1294 PUSH2 0x105B JUMP JUMPDEST JUMPDEST PUSH2 0x12A1 DUP7 DUP3 DUP8 ADD PUSH2 0x1203 JUMP JUMPDEST SWAP3 POP POP PUSH1 0x40 PUSH2 0x12B2 DUP7 DUP3 DUP8 ADD PUSH2 0x10A9 JUMP JUMPDEST SWAP2 POP POP SWAP3 POP SWAP3 POP SWAP3 JUMP JUMPDEST PUSH32 0x4E487B7100000000000000000000000000000000000000000000000000000000 PUSH1 0x0 MSTORE PUSH1 0x21 PUSH1 0x4 MSTORE PUSH1 0x24 PUSH1 0x0 REVERT JUMPDEST PUSH1 0x3 DUP2 LT PUSH2 0x12FC JUMPI PUSH2 0x12FB PUSH2 0x12BC JUMP JUMPDEST JUMPDEST POP JUMP JUMPDEST PUSH1 0x0 DUP2 SWAP1 POP PUSH2 0x130D DUP3 PUSH2 0x12EB JUMP JUMPDEST SWAP2 SWAP1 POP JUMP JUMPDEST PUSH1 0x0 PUSH2 0x131D DUP3 PUSH2 0x12FF JUMP JUMPDEST SWAP1 POP SWAP2 SWAP1 POP JUMP JUMPDEST PUSH2 0x132D DUP2 PUSH2 0x1312 JUMP JUMPDEST DUP3 MSTORE POP POP JUMP JUMPDEST PUSH1 0x0 PUSH1 0x20 DUP3 ADD SWAP1 POP PUSH2 0x1348 PUSH1 0x0 DUP4 ADD DUP5 PUSH2 0x1324 JUMP JUMPDEST SWAP3 SWAP2 POP POP JUMP JUMPDEST PUSH1 0x0 DUP1 PUSH1 0x40 DUP4 DUP6 SUB SLT ISZERO PUSH2 0x1365 JUMPI PUSH2 0x1364 PUSH2 0x1056 JUMP JUMPDEST JUMPDEST PUSH1 0x0 DUP4 ADD CALLDATALOAD PUSH8 0xFFFFFFFFFFFFFFFF DUP2 GT ISZERO PUSH2 0x1383 JUMPI PUSH2 0x1382 PUSH2 0x105B JUMP JUMPDEST JUMPDEST PUSH2 0x138F DUP6 DUP3 DUP7 ADD PUSH2 0x1203 JUMP JUMPDEST SWAP3 POP POP PUSH1 0x20 PUSH2 0x13A0 DUP6 DUP3 DUP7 ADD PUSH2 0x10A9 JUMP JUMPDEST SWAP2 POP POP SWAP3 POP SWAP3 SWAP1 POP JUMP JUMPDEST PUSH1 0x0 PUSH1 0xFF DUP3 AND SWAP1 POP SWAP2 SWAP1 POP JUMP JUMPDEST PUSH2 0x13C0 DUP2 PUSH2 0x13AA JUMP JUMPDEST DUP2 EQ PUSH2 0x13CB JUMPI PUSH1 0x0 DUP1 REVERT JUMPDEST POP JUMP JUMPDEST PUSH1 0x0 DUP2 CALLDATALOAD SWAP1 POP PUSH2 0x13DD DUP2 PUSH2 0x13B7 JUMP JUMPDEST SWAP3 SWAP2 POP POP JUMP JUMPDEST PUSH1 0x0 DUP1 PUSH1 0x40 DUP4 DUP6 SUB SLT ISZERO PUSH2 0x13FA JUMPI PUSH2 0x13F9 PUSH2 0x1056 JUMP JUMPDEST JUMPDEST PUSH1 0x0 PUSH2 0x1408 DUP6 DUP3 DUP7 ADD PUSH2 0x13CE JUMP JUMPDEST SWAP3 POP POP PUSH1 0x20 PUSH2 0x1419 DUP6 DUP3 DUP7 ADD PUSH2 0x10A9 JUMP JUMPDEST SWAP2 POP POP SWAP3 POP SWAP3 SWAP1 POP JUMP JUMPDEST PUSH1 0x0 PUSH1 0x20 DUP3 DUP5 SUB SLT ISZERO PUSH2 0x1439 JUMPI PUSH2 0x1438 PUSH2 0x1056 JUMP JUMPDEST JUMPDEST PUSH1 0x0 PUSH2 0x1447 DUP5 DUP3 DUP6 ADD PUSH2 0x13CE JUMP JUMPDEST SWAP2 POP POP SWAP3 SWAP2 POP POP JUMP JUMPDEST PUSH1 0x0 DUP2 MLOAD SWAP1 POP SWAP2 SWAP1 POP JUMP JUMPDEST PUSH1 0x0 DUP3 DUP3 MSTORE PUSH1 0x20 DUP3 ADD SWAP1 POP SWAP3 SWAP2 POP POP JUMP JUMPDEST PUSH1 0x0 JUMPDEST DUP4 DUP2 LT ISZERO PUSH2 0x148A JUMPI DUP1 DUP3 ADD MLOAD DUP2 DUP5 ADD MSTORE PUSH1 0x20 DUP2 ADD SWAP1 POP PUSH2 0x146F JUMP JUMPDEST PUSH1 0x0 DUP5 DUP5 ADD MSTORE POP POP POP POP JUMP JUMPDEST PUSH1 0x0 PUSH2 0x14A1 DUP3 PUSH2 0x1450 JUMP JUMPDEST PUSH2 0x14AB DUP2 DUP6 PUSH2 0x145B JUMP JUMPDEST SWAP4 POP PUSH2 0x14BB DUP2 DUP6 PUSH1 0x20 DUP7 ADD PUSH2 0x146C JUMP JUMPDEST PUSH2 0x14C4 DUP2 PUSH2 0x10F5 JUMP JUMPDEST DUP5 ADD SWAP2 POP POP SWAP3 SWAP2 POP POP JUMP JUMPDEST PUSH2 0x14D8 DUP2 PUSH2 0x1080 JUMP JUMPDEST DUP3 MSTORE POP POP JUMP JUMPDEST PUSH2 0x14E7 DUP2 PUSH2 0x13AA JUMP JUMPDEST DUP3 MSTORE POP POP JUMP JUMPDEST PUSH1 0x0 PUSH1 0x80 DUP4 ADD PUSH1 0x0 DUP4 ADD MLOAD DUP5 DUP3 SUB PUSH1 0x0 DUP7 ADD MSTORE PUSH2 0x150A DUP3 DUP3 PUSH2 0x1496 JUMP JUMPDEST SWAP2 POP POP PUSH1 0x20 DUP4 ADD MLOAD PUSH2 0x151F PUSH1 0x20 DUP7 ADD DUP3 PUSH2 0x14CF JUMP JUMPDEST POP PUSH1 0x40 DUP4 ADD MLOAD DUP5 DUP3 SUB PUSH1 0x40 DUP7 ADD MSTORE PUSH2 0x1537 DUP3 DUP3 PUSH2 0x1496 JUMP JUMPDEST SWAP2 POP POP PUSH1 0x60 DUP4 ADD MLOAD PUSH2 0x154C PUSH1 0x60 DUP7 ADD DUP3 PUSH2 0x14DE JUMP JUMPDEST POP DUP1 SWAP2 POP POP SWAP3 SWAP2 POP POP JUMP JUMPDEST PUSH1 0x0 PUSH1 0x20 DUP3 ADD SWAP1 POP DUP2 DUP2 SUB PUSH1 0x0 DUP4 ADD MSTORE PUSH2 0x1571 DUP2 DUP5 PUSH2 0x14ED JUMP JUMPDEST SWAP1 POP SWAP3 SWAP2 POP POP JUMP JUMPDEST PUSH1 0x0 PUSH1 0x60 DUP4 ADD PUSH1 0x0 DUP4 ADD MLOAD DUP5 DUP3 SUB PUSH1 0x0 DUP7 ADD MSTORE PUSH2 0x1596 DUP3 DUP3 PUSH2 0x1496 JUMP JUMPDEST SWAP2 POP POP PUSH1 0x20 DUP4 ADD MLOAD PUSH2 0x15AB PUSH1 0x20 DUP7 ADD DUP3 PUSH2 0x14CF JUMP JUMPDEST POP PUSH1 0x40 DUP4 ADD MLOAD PUSH2 0x15BE PUSH1 0x40 DUP7 ADD DUP3 PUSH2 0x14DE JUMP JUMPDEST POP DUP1 SWAP2 POP POP SWAP3 SWAP2 POP POP JUMP JUMPDEST PUSH1 0x0 PUSH1 0x20 DUP3 ADD SWAP1 POP DUP2 DUP2 SUB PUSH1 0x0 DUP4 ADD MSTORE PUSH2 0x15E3 DUP2 DUP5 PUSH2 0x1579 JUMP JUMPDEST SWAP1 POP SWAP3 SWAP2 POP POP JUMP JUMPDEST PUSH1 0x0 DUP1 PUSH1 0x40 DUP4 DUP6 SUB SLT ISZERO PUSH2 0x1602 JUMPI PUSH2 0x1601 PUSH2 0x1056 JUMP JUMPDEST JUMPDEST PUSH1 0x0 PUSH2 0x1610 DUP6 DUP3 DUP7 ADD PUSH2 0x10A9 JUMP JUMPDEST SWAP3 POP POP PUSH1 0x20 PUSH2 0x1621 DUP6 DUP3 DUP7 ADD PUSH2 0x10A9 JUMP JUMPDEST SWAP2 POP POP SWAP3 POP SWAP3 SWAP1 POP JUMP JUMPDEST PUSH1 0x0 DUP3 DUP3 MSTORE PUSH1 0x20 DUP3 ADD SWAP1 POP SWAP3 SWAP2 POP POP JUMP JUMPDEST PUSH32 0x4F6E6C792061646D696E20697320616C6C6F77656420746F20656E6420656C65 PUSH1 0x0 DUP3 ADD MSTORE PUSH32 0x6374696F6E000000000000000000000000000000000000000000000000000000 PUSH1 0x20 DUP3 ADD MSTORE POP JUMP JUMPDEST PUSH1 0x0 PUSH2 0x1698 PUSH1 0x25 DUP4 PUSH2 0x162B JUMP JUMPDEST SWAP2 POP PUSH2 0x16A3 DUP3 PUSH2 0x163C JUMP JUMPDEST PUSH1 0x40 DUP3 ADD SWAP1 POP SWAP2 SWAP1 POP JUMP JUMPDEST PUSH1 0x0 PUSH1 0x20 DUP3 ADD SWAP1 POP DUP2 DUP2 SUB PUSH1 0x0 DUP4 ADD MSTORE PUSH2 0x16C7 DUP2 PUSH2 0x168B JUMP JUMPDEST SWAP1 POP SWAP2 SWAP1 POP JUMP JUMPDEST PUSH32 0x656C656374696F6E206973206E6F742073746172746564000000000000000000 PUSH1 0x0 DUP3 ADD MSTORE POP JUMP JUMPDEST PUSH1 0x0 PUSH2 0x1704 PUSH1 0x17 DUP4 PUSH2 0x162B JUMP JUMPDEST SWAP2 POP PUSH2 0x170F DUP3 PUSH2 0x16CE JUMP JUMPDEST PUSH1 0x20 DUP3 ADD SWAP1 POP SWAP2 SWAP1 POP JUMP JUMPDEST PUSH1 0x0 PUSH1 0x20 DUP3 ADD SWAP1 POP DUP2 DUP2 SUB PUSH1 0x0 DUP4 ADD MSTORE PUSH2 0x1733 DUP2 PUSH2 0x16F7 JUMP JUMPDEST SWAP1 POP SWAP2 SWAP1 POP JUMP JUMPDEST PUSH32 0x4F6E6C792061646D696E20697320616C6C6F77656420746F206164642063616E PUSH1 0x0 DUP3 ADD MSTORE PUSH32 0x6469646174650000000000000000000000000000000000000000000000000000 PUSH1 0x20 DUP3 ADD MSTORE POP JUMP JUMPDEST PUSH1 0x0 PUSH2 0x1796 PUSH1 0x26 DUP4 PUSH2 0x162B JUMP JUMPDEST SWAP2 POP PUSH2 0x17A1 DUP3 PUSH2 0x173A JUMP JUMPDEST PUSH1 0x40 DUP3 ADD SWAP1 POP SWAP2 SWAP1 POP JUMP JUMPDEST PUSH1 0x0 PUSH1 0x20 DUP3 ADD SWAP1 POP DUP2 DUP2 SUB PUSH1 0x0 DUP4 ADD MSTORE PUSH2 0x17C5 DUP2 PUSH2 0x1789 JUMP JUMPDEST SWAP1 POP SWAP2 SWAP1 POP JUMP JUMPDEST PUSH32 0x456C656374696F6E20616C726561647920737461727465640000000000000000 PUSH1 0x0 DUP3 ADD MSTORE POP JUMP JUMPDEST PUSH1 0x0 PUSH2 0x1802 PUSH1 0x18 DUP4 PUSH2 0x162B JUMP JUMPDEST SWAP2 POP PUSH2 0x180D DUP3 PUSH2 0x17CC JUMP JUMPDEST PUSH1 0x20 DUP3 ADD SWAP1 POP SWAP2 SWAP1 POP JUMP JUMPDEST PUSH1 0x0 PUSH1 0x20 DUP3 ADD SWAP1 POP DUP2 DUP2 SUB PUSH1 0x0 DUP4 ADD MSTORE PUSH2 0x1831 DUP2 PUSH2 0x17F5 JUMP JUMPDEST SWAP1 POP SWAP2 SWAP1 POP JUMP JUMPDEST PUSH32 0x4E487B7100000000000000000000000000000000000000000000000000000000 PUSH1 0x0 MSTORE PUSH1 0x11 PUSH1 0x4 MSTORE PUSH1 0x24 PUSH1 0x0 REVERT JUMPDEST PUSH1 0x0 PUSH2 0x1872 DUP3 PUSH2 0x13AA JUMP JUMPDEST SWAP2 POP PUSH1 0xFF DUP3 SUB PUSH2 0x1885 JUMPI PUSH2 0x1884 PUSH2 0x1838 JUMP JUMPDEST JUMPDEST PUSH1 0x1 DUP3 ADD SWAP1 POP SWAP2 SWAP1 POP JUMP JUMPDEST PUSH32 0x4E487B7100000000000000000000000000000000000000000000000000000000 PUSH1 0x0 MSTORE PUSH1 0x22 PUSH1 0x4 MSTORE PUSH1 0x24 PUSH1 0x0 REVERT JUMPDEST PUSH1 0x0 PUSH1 0x2 DUP3 DIV SWAP1 POP PUSH1 0x1 DUP3 AND DUP1 PUSH2 0x18D7 JUMPI PUSH1 0x7F DUP3 AND SWAP2 POP JUMPDEST PUSH1 0x20 DUP3 LT DUP2 SUB PUSH2 0x18EA JUMPI PUSH2 0x18E9 PUSH2 0x1890 JUMP JUMPDEST JUMPDEST POP SWAP2 SWAP1 POP JUMP JUMPDEST PUSH1 0x0 DUP2 SWAP1 POP DUP2 PUSH1 0x0 MSTORE PUSH1 0x20 PUSH1 0x0 KECCAK256 SWAP1 POP SWAP2 SWAP1 POP JUMP JUMPDEST PUSH1 0x0 PUSH1 0x20 PUSH1 0x1F DUP4 ADD DIV SWAP1 POP SWAP2 SWAP1 POP JUMP JUMPDEST PUSH1 0x0 DUP3 DUP3 SHL SWAP1 POP SWAP3 SWAP2 POP POP JUMP JUMPDEST PUSH1 0x0 PUSH1 0x8 DUP4 MUL PUSH2 0x1952 PUSH32 0xFFFFFFFFFFFFFFFFFFFFFFFFFFFFFFFFFFFFFFFFFFFFFFFFFFFFFFFFFFFFFFFF DUP3 PUSH2 0x1915 JUMP JUMPDEST PUSH2 0x195C DUP7 DUP4 PUSH2 0x1915 JUMP JUMPDEST SWAP6 POP DUP1 NOT DUP5 AND SWAP4 POP DUP1 DUP7 AND DUP5 OR SWAP3 POP POP POP SWAP4 SWAP3 POP POP POP JUMP JUMPDEST PUSH1 0x0 DUP2 SWAP1 POP SWAP2 SWAP1 POP JUMP JUMPDEST PUSH1 0x0 DUP2 SWAP1 POP SWAP2 SWAP1 POP JUMP JUMPDEST PUSH1 0x0 PUSH2 0x19A3 PUSH2 0x199E PUSH2 0x1999 DUP5 PUSH2 0x1974 JUMP JUMPDEST PUSH2 0x197E JUMP JUMPDEST PUSH2 0x1974 JUMP JUMPDEST SWAP1 POP SWAP2 SWAP1 POP JUMP JUMPDEST PUSH1 0x0 DUP2 SWAP1 POP SWAP2 SWAP1 POP JUMP JUMPDEST PUSH2 0x19BD DUP4 PUSH2 0x1988 JUMP JUMPDEST PUSH2 0x19D1 PUSH2 0x19C9 DUP3 PUSH2 0x19AA JUMP JUMPDEST DUP5 DUP5 SLOAD PUSH2 0x1922 JUMP JUMPDEST DUP3 SSTORE POP POP POP POP JUMP JUMPDEST PUSH1 0x0 SWAP1 JUMP JUMPDEST PUSH2 0x19E6 PUSH2 0x19D9 JUMP JUMPDEST PUSH2 0x19F1 DUP2 DUP5 DUP5 PUSH2 0x19B4 JUMP JUMPDEST POP POP POP JUMP JUMPDEST JUMPDEST DUP2 DUP2 LT ISZERO PUSH2 0x1A15 JUMPI PUSH2 0x1A0A PUSH1 0x0 DUP3 PUSH2 0x19DE JUMP JUMPDEST PUSH1 0x1 DUP2 ADD SWAP1 POP PUSH2 0x19F7 JUMP JUMPDEST POP POP JUMP JUMPDEST PUSH1 0x1F DUP3 GT ISZERO PUSH2 0x1A5A JUMPI PUSH2 0x1A2B DUP2 PUSH2 0x18F0 JUMP JUMPDEST PUSH2 0x1A34 DUP5 PUSH2 0x1905 JUMP JUMPDEST DUP2 ADD PUSH1 0x20 DUP6 LT ISZERO PUSH2 0x1A43 JUMPI DUP2 SWAP1 POP JUMPDEST PUSH2 0x1A57 PUSH2 0x1A4F DUP6 PUSH2 0x1905 JUMP JUMPDEST DUP4 ADD DUP3 PUSH2 0x19F6 JUMP JUMPDEST POP POP JUMPDEST POP POP POP JUMP JUMPDEST PUSH1 0x0 DUP3 DUP3 SHR SWAP1 POP SWAP3 SWAP2 POP POP JUMP JUMPDEST PUSH1 0x0 PUSH2 0x1A7D PUSH1 0x0 NOT DUP5 PUSH1 0x8 MUL PUSH2 0x1A5F JUMP JUMPDEST NOT DUP1 DUP4 AND SWAP2 POP POP SWAP3 SWAP2 POP POP JUMP JUMPDEST PUSH1 0x0 PUSH2 0x1A96 DUP4 DUP4 PUSH2 0x1A6C JUMP JUMPDEST SWAP2 POP DUP3 PUSH1 0x2 MUL DUP3 OR SWAP1 POP SWAP3 SWAP2 POP POP JUMP JUMPDEST PUSH2 0x1AAF DUP3 PUSH2 0x1450 JUMP JUMPDEST PUSH8 0xFFFFFFFFFFFFFFFF DUP2 GT ISZERO PUSH2 0x1AC8 JUMPI PUSH2 0x1AC7 PUSH2 0x1106 JUMP JUMPDEST JUMPDEST PUSH2 0x1AD2 DUP3 SLOAD PUSH2 0x18BF JUMP JUMPDEST PUSH2 0x1ADD DUP3 DUP3 DUP6 PUSH2 0x1A19 JUMP JUMPDEST PUSH1 0x0 PUSH1 0x20 SWAP1 POP PUSH1 0x1F DUP4 GT PUSH1 0x1 DUP2 EQ PUSH2 0x1B10 JUMPI PUSH1 0x0 DUP5 ISZERO PUSH2 0x1AFE JUMPI DUP3 DUP8 ADD MLOAD SWAP1 POP JUMPDEST PUSH2 0x1B08 DUP6 DUP3 PUSH2 0x1A8A JUMP JUMPDEST DUP7 SSTORE POP PUSH2 0x1B70 JUMP JUMPDEST PUSH1 0x1F NOT DUP5 AND PUSH2 0x1B1E DUP7 PUSH2 0x18F0 JUMP JUMPDEST PUSH1 0x0 JUMPDEST DUP3 DUP2 LT ISZERO PUSH2 0x1B46 JUMPI DUP5 DUP10 ADD MLOAD DUP3 SSTORE PUSH1 0x1 DUP3 ADD SWAP2 POP PUSH1 0x20 DUP6 ADD SWAP5 POP PUSH1 0x20 DUP2 ADD SWAP1 POP PUSH2 0x1B21 JUMP JUMPDEST DUP7 DUP4 LT ISZERO PUSH2 0x1B63 JUMPI DUP5 DUP10 ADD MLOAD PUSH2 0x1B5F PUSH1 0x1F DUP10 AND DUP3 PUSH2 0x1A6C JUMP JUMPDEST DUP4 SSTORE POP JUMPDEST PUSH1 0x1 PUSH1 0x2 DUP9 MUL ADD DUP9 SSTORE POP POP POP JUMPDEST POP POP POP POP POP POP JUMP JUMPDEST PUSH32 0x4F6E6C7920766F7465722063616E20636173742068697320766F746500000000 PUSH1 0x0 DUP3 ADD MSTORE POP JUMP JUMPDEST PUSH1 0x0 PUSH2 0x1BAE PUSH1 0x1C DUP4 PUSH2 0x162B JUMP JUMPDEST SWAP2 POP PUSH2 0x1BB9 DUP3 PUSH2 0x1B78 JUMP JUMPDEST PUSH1 0x20 DUP3 ADD SWAP1 POP SWAP2 SWAP1 POP JUMP JUMPDEST PUSH1 0x0 PUSH1 0x20 DUP3 ADD SWAP1 POP DUP2 DUP2 SUB PUSH1 0x0 DUP4 ADD MSTORE PUSH2 0x1BDD DUP2 PUSH2 0x1BA1 JUMP JUMPDEST SWAP1 POP SWAP2 SWAP1 POP JUMP JUMPDEST PUSH32 0x566F74657220616C726561647920766F74656400000000000000000000000000 PUSH1 0x0 DUP3 ADD MSTORE POP JUMP JUMPDEST PUSH1 0x0 PUSH2 0x1C1A PUSH1 0x13 DUP4 PUSH2 0x162B JUMP JUMPDEST SWAP2 POP PUSH2 0x1C25 DUP3 PUSH2 0x1BE4 JUMP JUMPDEST PUSH1 0x20 DUP3 ADD SWAP1 POP SWAP2 SWAP1 POP JUMP JUMPDEST PUSH1 0x0 PUSH1 0x20 DUP3 ADD SWAP1 POP DUP2 DUP2 SUB PUSH1 0x0 DUP4 ADD MSTORE PUSH2 0x1C49 DUP2 PUSH2 0x1C0D JUMP JUMPDEST SWAP1 POP SWAP2 SWAP1 POP JUMP JUMPDEST PUSH1 0x0 PUSH2 0x1C5B DUP3 PUSH2 0x13AA JUMP JUMPDEST SWAP2 POP PUSH2 0x1C66 DUP4 PUSH2 0x13AA JUMP JUMPDEST SWAP3 POP DUP3 DUP3 ADD SWAP1 POP PUSH1 0xFF DUP2 GT ISZERO PUSH2 0x1C7F JUMPI PUSH2 0x1C7E PUSH2 0x1838 JUMP JUMPDEST JUMPDEST SWAP3 SWAP2 POP POP JUMP JUMPDEST PUSH1 0x0 PUSH2 0x1C90 DUP3 PUSH2 0x13AA JUMP JUMPDEST SWAP2 POP PUSH2 0x1C9B DUP4 PUSH2 0x13AA JUMP JUMPDEST SWAP3 POP DUP3 DUP3 SUB SWAP1 POP PUSH1 0xFF DUP2 GT ISZERO PUSH2 0x1CB4 JUMPI PUSH2 0x1CB3 PUSH2 0x1838 JUMP JUMPDEST JUMPDEST SWAP3 SWAP2 POP POP JUMP JUMPDEST PUSH32 0x4F6E6C7920766F7465722063616E2064656C69676174652068697320766F7465 PUSH1 0x0 DUP3 ADD MSTORE POP JUMP JUMPDEST PUSH1 0x0 PUSH2 0x1CF0 PUSH1 0x20 DUP4 PUSH2 0x162B JUMP JUMPDEST SWAP2 POP PUSH2 0x1CFB DUP3 PUSH2 0x1CBA JUMP JUMPDEST PUSH1 0x20 DUP3 ADD SWAP1 POP SWAP2 SWAP1 POP JUMP JUMPDEST PUSH1 0x0 PUSH1 0x20 DUP3 ADD SWAP1 POP DUP2 DUP2 SUB PUSH1 0x0 DUP4 ADD MSTORE PUSH2 0x1D1F DUP2 PUSH2 0x1CE3 JUMP JUMPDEST SWAP1 POP SWAP2 SWAP1 POP JUMP JUMPDEST PUSH32 0x766F746572206E6F742065786973747300000000000000000000000000000000 PUSH1 0x0 DUP3 ADD MSTORE POP JUMP JUMPDEST PUSH1 0x0 PUSH2 0x1D5C PUSH1 0x10 DUP4 PUSH2 0x162B JUMP JUMPDEST SWAP2 POP PUSH2 0x1D67 DUP3 PUSH2 0x1D26 JUMP JUMPDEST PUSH1 0x20 DUP3 ADD SWAP1 POP SWAP2 SWAP1 POP JUMP JUMPDEST PUSH1 0x0 PUSH1 0x20 DUP3 ADD SWAP1 POP DUP2 DUP2 SUB PUSH1 0x0 DUP4 ADD MSTORE PUSH2 0x1D8B DUP2 PUSH2 0x1D4F JUMP JUMPDEST SWAP1 POP SWAP2 SWAP1 POP JUMP JUMPDEST PUSH32 0x7265636569766572206E6F742065786973747300000000000000000000000000 PUSH1 0x0 DUP3 ADD MSTORE POP JUMP JUMPDEST PUSH1 0x0 PUSH2 0x1DC8 PUSH1 0x13 DUP4 PUSH2 0x162B JUMP JUMPDEST SWAP2 POP PUSH2 0x1DD3 DUP3 PUSH2 0x1D92 JUMP JUMPDEST PUSH1 0x20 DUP3 ADD SWAP1 POP SWAP2 SWAP1 POP JUMP JUMPDEST PUSH1 0x0 PUSH1 0x20 DUP3 ADD SWAP1 POP DUP2 DUP2 SUB PUSH1 0x0 DUP4 ADD MSTORE PUSH2 0x1DF7 DUP2 PUSH2 0x1DBB JUMP JUMPDEST SWAP1 POP SWAP2 SWAP1 POP JUMP JUMPDEST PUSH32 0x4F6E6C792061646D696E20697320616C6C6F77656420746F2073746172742065 PUSH1 0x0 DUP3 ADD MSTORE PUSH32 0x6C656374696F6E00000000000000000000000000000000000000000000000000 PUSH1 0x20 DUP3 ADD MSTORE POP JUMP JUMPDEST PUSH1 0x0 PUSH2 0x1E5A PUSH1 0x27 DUP4 PUSH2 0x162B JUMP JUMPDEST SWAP2 POP PUSH2 0x1E65 DUP3 PUSH2 0x1DFE JUMP JUMPDEST PUSH1 0x40 DUP3 ADD SWAP1 POP SWAP2 SWAP1 POP JUMP JUMPDEST PUSH1 0x0 PUSH1 0x20 DUP3 ADD SWAP1 POP DUP2 DUP2 SUB PUSH1 0x0 DUP4 ADD MSTORE PUSH2 0x1E89 DUP2 PUSH2 0x1E4D JUMP JUMPDEST SWAP1 POP SWAP2 SWAP1 POP JUMP INVALID LOG2 PUSH5 0x6970667358 0x22 SLT KECCAK256 0xC7 0xF8 0xBA 0xDE 0xD5 0x5F PUSH3 0x3A386D DUP3 0xC8 0x21 0xD9 LT CODESIZE SWAP13 CALLDATASIZE PUSH15 0xE0703E685A6003D28729A24DB16473 PUSH16 0x6C634300081200330000000000000000 "
		},
		"gasEstimates": {
			"creation": {
				"codeDepositCost": "1575600",
				"executionCost": "74585",
				"totalCost": "1650185"
			},
			"external": {
				"addCandidate(string,string,address)": "infinite",
				"addVoter(string,address)": "infinite",
				"delegateVote(address,address)": "infinite",
				"endElection(address)": "29222",
				"getCandidate(uint8)": "infinite",
				"getElectionStatus()": "2663",
				"getVoter(address)": "infinite",
				"startElection(address)": "31575",
				"vote(uint8,address)": "infinite"
			}
		},
		"methodIdentifiers": {
			"addCandidate(string,string,address)": "0b32ff77",
			"addVoter(string,address)": "5607395b",
			"delegateVote(address,address)": "e5ed5b1e",
			"endElection(address)": "07e4b70a",
			"getCandidate(uint8)": "cde9370f",
			"getElectionStatus()": "122902a6",
			"getVoter(address)": "d4f50f98",
			"startElection(address)": "e6a5e61d",
			"vote(uint8,address)": "b81c6453"
		}
	},
	"abi": [
		{
			"inputs": [
				{
					"internalType": "string",
					"name": "_name",
					"type": "string"
				},
				{
					"internalType": "string",
					"name": "_proposal",
					"type": "string"
				},
				{
					"internalType": "address",
					"name": "owner",
					"type": "address"
				}
			],
			"name": "addCandidate",
			"outputs": [],
			"stateMutability": "nonpayable",
			"type": "function"
		},
		{
			"inputs": [
				{
					"internalType": "string",
					"name": "name",
					"type": "string"
				},
				{
					"internalType": "address",
					"name": "_voterAddrress",
					"type": "address"
				}
			],
			"name": "addVoter",
			"outputs": [],
			"stateMutability": "nonpayable",
			"type": "function"
		},
		{
			"inputs": [
				{
					"internalType": "address",
					"name": "voterAddress",
					"type": "address"
				},
				{
					"internalType": "address",
					"name": "receiverAddress",
					"type": "address"
				}
			],
			"name": "delegateVote",
			"outputs": [],
			"stateMutability": "nonpayable",
			"type": "function"
		},
		{
			"inputs": [
				{
					"internalType": "address",
					"name": "owner",
					"type": "address"
				}
			],
			"name": "endElection",
			"outputs": [],
			"stateMutability": "nonpayable",
			"type": "function"
		},
		{
			"inputs": [
				{
					"internalType": "uint8",
					"name": "_id",
					"type": "uint8"
				}
			],
			"name": "getCandidate",
			"outputs": [
				{
					"components": [
						{
							"internalType": "string",
							"name": "name",
							"type": "string"
						},
						{
							"internalType": "address",
							"name": "owner",
							"type": "address"
						},
						{
							"internalType": "string",
							"name": "proposal",
							"type": "string"
						},
						{
							"internalType": "uint8",
							"name": "votes",
							"type": "uint8"
						}
					],
					"internalType": "struct Voting.Candidate",
					"name": "",
					"type": "tuple"
				}
			],
			"stateMutability": "view",
			"type": "function"
		},
		{
			"inputs": [],
			"name": "getElectionStatus",
			"outputs": [
				{
					"internalType": "enum Voting.ElectionStatus",
					"name": "",
					"type": "uint8"
				}
			],
			"stateMutability": "view",
			"type": "function"
		},
		{
			"inputs": [
				{
					"internalType": "address",
					"name": "_voterAddress",
					"type": "address"
				}
			],
			"name": "getVoter",
			"outputs": [
				{
					"components": [
						{
							"internalType": "string",
							"name": "name",
							"type": "string"
						},
						{
							"internalType": "address",
							"name": "voterAddress",
							"type": "address"
						},
						{
							"internalType": "uint8",
							"name": "no_of_votes",
							"type": "uint8"
						}
					],
					"internalType": "struct Voting.Voter",
					"name": "",
					"type": "tuple"
				}
			],
			"stateMutability": "view",
			"type": "function"
		},
		{
			"inputs": [
				{
					"internalType": "address",
					"name": "owner",
					"type": "address"
				}
			],
			"name": "startElection",
			"outputs": [],
			"stateMutability": "nonpayable",
			"type": "function"
		},
		{
			"inputs": [
				{
					"internalType": "uint8",
					"name": "candidateId",
					"type": "uint8"
				},
				{
					"internalType": "address",
					"name": "voter",
					"type": "address"
				}
			],
			"name": "vote",
			"outputs": [],
			"stateMutability": "nonpayable",
			"type": "function"
		}
	]
}